{
	"source/Storage.sol": {
		"Storage": {
			"abi": [
				{
					"inputs": [],
					"name": "allKeys",
					"outputs": [
						{
							"internalType": "string[]",
							"name": "",
							"type": "string[]"
						}
					],
					"stateMutability": "view",
					"type": "function"
				},
				{
					"inputs": [],
					"name": "allKeysData",
					"outputs": [
						{
							"components": [
								{
									"internalType": "address",
									"name": "owner",
									"type": "address"
								},
								{
									"internalType": "string",
									"name": "info",
									"type": "string"
								}
							],
							"internalType": "struct IStorage.Data[]",
							"name": "",
							"type": "tuple[]"
						}
					],
					"stateMutability": "view",
					"type": "function"
				},
				{
					"inputs": [
						{
							"internalType": "string",
							"name": "_key",
							"type": "string"
						}
					],
					"name": "clearKeyData",
					"outputs": [],
					"stateMutability": "nonpayable",
					"type": "function"
				},
				{
					"inputs": [
						{
							"internalType": "string[]",
							"name": "_keys",
							"type": "string[]"
						}
					],
					"name": "clearKeysData",
					"outputs": [],
					"stateMutability": "nonpayable",
					"type": "function"
				},
				{
					"inputs": [
						{
							"internalType": "string",
							"name": "_key",
							"type": "string"
						}
					],
					"name": "getData",
					"outputs": [
						{
							"components": [
								{
									"internalType": "address",
									"name": "owner",
									"type": "address"
								},
								{
									"internalType": "string",
									"name": "info",
									"type": "string"
								}
							],
							"internalType": "struct IStorage.Data",
							"name": "",
							"type": "tuple"
						}
					],
					"stateMutability": "view",
					"type": "function"
				},
				{
					"inputs": [
						{
							"internalType": "string",
							"name": "_key",
							"type": "string"
						},
						{
							"components": [
								{
									"internalType": "address",
									"name": "owner",
									"type": "address"
								},
								{
									"internalType": "string",
									"name": "info",
									"type": "string"
								}
							],
							"internalType": "struct IStorage.Data",
							"name": "_data",
							"type": "tuple"
						}
					],
					"name": "setKeyData",
					"outputs": [],
					"stateMutability": "nonpayable",
					"type": "function"
				},
				{
					"inputs": [
						{
							"components": [
								{
									"internalType": "string",
									"name": "key",
									"type": "string"
								},
								{
									"components": [
										{
											"internalType": "address",
											"name": "owner",
											"type": "address"
										},
										{
											"internalType": "string",
											"name": "info",
											"type": "string"
										}
									],
									"internalType": "struct IStorage.Data",
									"name": "data",
									"type": "tuple"
								}
							],
							"internalType": "struct IStorage.KeyData[]",
							"name": "_keysData",
							"type": "tuple[]"
						}
					],
					"name": "setKeysData",
					"outputs": [],
					"stateMutability": "nonpayable",
					"type": "function"
				}
			],
			"devdoc": {
				"kind": "dev",
				"methods": {},
				"version": 1
			},
			"evm": {
				"assembly": "    /* \"source/Storage.sol\":698:3726  contract Storage is IStorage {... */\n  mstore(0x40, 0x80)\n  callvalue\n  dup1\n  iszero\n  tag_1\n  jumpi\n  0x00\n  dup1\n  revert\ntag_1:\n  pop\n  dataSize(sub_0)\n  dup1\n  dataOffset(sub_0)\n  0x00\n  codecopy\n  0x00\n  return\nstop\n\nsub_0: assembly {\n        /* \"source/Storage.sol\":698:3726  contract Storage is IStorage {... */\n      mstore(0x40, 0x80)\n      callvalue\n      dup1\n      iszero\n      tag_1\n      jumpi\n      0x00\n      dup1\n      revert\n    tag_1:\n      pop\n      jumpi(tag_2, lt(calldatasize, 0x04))\n      shr(0xe0, calldataload(0x00))\n      dup1\n      0xae55c888\n      gt\n      tag_10\n      jumpi\n      dup1\n      0xae55c888\n      eq\n      tag_6\n      jumpi\n      dup1\n      0xbe05133c\n      eq\n      tag_7\n      jumpi\n      dup1\n      0xcb965ae9\n      eq\n      tag_8\n      jumpi\n      dup1\n      0xf14805c3\n      eq\n      tag_9\n      jumpi\n      0x00\n      dup1\n      revert\n    tag_10:\n      dup1\n      0x11d881b1\n      eq\n      tag_3\n      jumpi\n      dup1\n      0x28ce8638\n      eq\n      tag_4\n      jumpi\n      dup1\n      0xac193f1a\n      eq\n      tag_5\n      jumpi\n    tag_2:\n      0x00\n      dup1\n      revert\n        /* \"source/Storage.sol\":1416:1692  function allKeysData() external override view returns(Data[] memory) {... */\n    tag_3:\n      tag_11\n      tag_12\n      jump\t// in\n    tag_11:\n      mload(0x40)\n      tag_13\n      swap2\n      swap1\n      tag_14\n      jump\t// in\n    tag_13:\n      mload(0x40)\n      dup1\n      swap2\n      sub\n      swap1\n      return\n        /* \"source/Storage.sol\":2086:2184  function clearKeyData(string memory _key) external override {... */\n    tag_4:\n      tag_15\n      tag_16\n      calldatasize\n      0x04\n      tag_17\n      jump\t// in\n    tag_16:\n      tag_18\n      jump\t// in\n    tag_15:\n      stop\n        /* \"source/Storage.sol\":2192:2406  function clearKeysData(string[] memory _keys) external override {... */\n    tag_5:\n      tag_15\n      tag_20\n      calldatasize\n      0x04\n      tag_21\n      jump\t// in\n    tag_20:\n      tag_22\n      jump\t// in\n        /* \"source/Storage.sol\":1182:1303  function getData(string memory _key) external override view returns(Data memory) {... */\n    tag_6:\n      tag_23\n      tag_24\n      calldatasize\n      0x04\n      tag_17\n      jump\t// in\n    tag_24:\n      tag_25\n      jump\t// in\n    tag_23:\n      mload(0x40)\n      tag_13\n      swap2\n      swap1\n      tag_27\n      jump\t// in\n        /* \"source/Storage.sol\":1828:2078  function setKeysData(KeyData[] memory _keysData) external override {... */\n    tag_7:\n      tag_15\n      tag_29\n      calldatasize\n      0x04\n      tag_30\n      jump\t// in\n    tag_29:\n      tag_31\n      jump\t// in\n        /* \"source/Storage.sol\":1311:1408  function allKeys() external override view returns(string[] memory) {... */\n    tag_8:\n      tag_32\n      tag_33\n      jump\t// in\n    tag_32:\n      mload(0x40)\n      tag_13\n      swap2\n      swap1\n      tag_35\n      jump\t// in\n        /* \"source/Storage.sol\":1700:1820  function setKeyData(string memory _key, Data memory _data) external override {... */\n    tag_9:\n      tag_15\n      tag_37\n      calldatasize\n      0x04\n      tag_38\n      jump\t// in\n    tag_37:\n      tag_39\n      jump\t// in\n        /* \"source/Storage.sol\":1416:1692  function allKeysData() external override view returns(Data[] memory) {... */\n    tag_12:\n        /* \"source/Storage.sol\":1536:1540  keys */\n      0x01\n        /* \"source/Storage.sol\":1536:1547  keys.length */\n      sload\n        /* \"source/Storage.sol\":1470:1483  Data[] memory */\n      0x60\n      swap1\n        /* \"source/Storage.sol\":1496:1522  Data[] memory _allKeysData */\n      0x00\n      swap1\n        /* \"source/Storage.sol\":1525:1548  new Data[](keys.length) */\n      0xffffffffffffffff\n      dup2\n      gt\n      iszero\n      tag_42\n      jumpi\n      tag_42\n      tag_43\n      jump\t// in\n    tag_42:\n      mload(0x40)\n      swap1\n      dup1\n      dup3\n      mstore\n      dup1\n      0x20\n      mul\n      0x20\n      add\n      dup3\n      add\n      0x40\n      mstore\n      dup1\n      iszero\n      tag_44\n      jumpi\n      dup2\n      0x20\n      add\n    tag_45:\n      0x40\n      dup1\n      mload\n      dup1\n      dup3\n      add\n      swap1\n      swap2\n      mstore\n      0x00\n      dup2\n      mstore\n      0x60\n      0x20\n      dup3\n      add\n      mstore\n      dup2\n      mstore\n      0x20\n      add\n      swap1\n      0x01\n      swap1\n      sub\n      swap1\n      dup2\n      tag_45\n      jumpi\n      swap1\n      pop\n    tag_44:\n      pop\n        /* \"source/Storage.sol\":1496:1548  Data[] memory _allKeysData = new Data[](keys.length) */\n      swap1\n      pop\n        /* \"source/Storage.sol\":1563:1569  uint x */\n      0x00\n        /* \"source/Storage.sol\":1559:1655  for(uint x; x < keys.length; x++) {... */\n    tag_48:\n        /* \"source/Storage.sol\":1575:1579  keys */\n      0x01\n        /* \"source/Storage.sol\":1575:1586  keys.length */\n      sload\n        /* \"source/Storage.sol\":1571:1586  x < keys.length */\n      dup2\n      lt\n        /* \"source/Storage.sol\":1559:1655  for(uint x; x < keys.length; x++) {... */\n      iszero\n      tag_49\n      jumpi\n        /* \"source/Storage.sol\":1626:1643  _keyData(keys[x]) */\n      tag_51\n        /* \"source/Storage.sol\":1635:1639  keys */\n      0x01\n        /* \"source/Storage.sol\":1640:1641  x */\n      dup3\n        /* \"source/Storage.sol\":1635:1642  keys[x] */\n      dup2\n      sload\n      dup2\n      lt\n      tag_53\n      jumpi\n      tag_53\n      tag_54\n      jump\t// in\n    tag_53:\n      swap1\n      0x00\n      mstore\n      keccak256(0x00, 0x20)\n      add\n        /* \"source/Storage.sol\":1626:1643  _keyData(keys[x]) */\n      dup1\n      sload\n      tag_56\n      swap1\n      tag_57\n      jump\t// in\n    tag_56:\n      dup1\n      0x1f\n      add\n      0x20\n      dup1\n      swap2\n      div\n      mul\n      0x20\n      add\n      mload(0x40)\n      swap1\n      dup2\n      add\n      0x40\n      mstore\n      dup1\n      swap3\n      swap2\n      swap1\n      dup2\n      dup2\n      mstore\n      0x20\n      add\n      dup3\n      dup1\n      sload\n      tag_58\n      swap1\n      tag_57\n      jump\t// in\n    tag_58:\n      dup1\n      iszero\n      tag_59\n      jumpi\n      dup1\n      0x1f\n      lt\n      tag_60\n      jumpi\n      0x0100\n      dup1\n      dup4\n      sload\n      div\n      mul\n      dup4\n      mstore\n      swap2\n      0x20\n      add\n      swap2\n      jump(tag_59)\n    tag_60:\n      dup3\n      add\n      swap2\n      swap1\n      0x00\n      mstore\n      keccak256(0x00, 0x20)\n      swap1\n    tag_61:\n      dup2\n      sload\n      dup2\n      mstore\n      swap1\n      0x01\n      add\n      swap1\n      0x20\n      add\n      dup1\n      dup4\n      gt\n      tag_61\n      jumpi\n      dup3\n      swap1\n      sub\n      0x1f\n      and\n      dup3\n      add\n      swap2\n    tag_59:\n      pop\n      pop\n      pop\n      pop\n      pop\n        /* \"source/Storage.sol\":1626:1634  _keyData */\n      tag_62\n        /* \"source/Storage.sol\":1626:1643  _keyData(keys[x]) */\n      jump\t// in\n    tag_51:\n        /* \"source/Storage.sol\":1608:1620  _allKeysData */\n      dup3\n        /* \"source/Storage.sol\":1621:1622  x */\n      dup3\n        /* \"source/Storage.sol\":1608:1623  _allKeysData[x] */\n      dup2\n      mload\n      dup2\n      lt\n      tag_64\n      jumpi\n      tag_64\n      tag_54\n      jump\t// in\n    tag_64:\n      0x20\n      mul\n      0x20\n      add\n      add\n        /* \"source/Storage.sol\":1608:1643  _allKeysData[x] = _keyData(keys[x]) */\n      dup2\n      swap1\n      mstore\n      pop\n        /* \"source/Storage.sol\":1588:1591  x++ */\n      dup1\n      dup1\n      tag_65\n      swap1\n      tag_66\n      jump\t// in\n    tag_65:\n      swap2\n      pop\n      pop\n        /* \"source/Storage.sol\":1559:1655  for(uint x; x < keys.length; x++) {... */\n      jump(tag_48)\n    tag_49:\n      pop\n        /* \"source/Storage.sol\":1672:1684  _allKeysData */\n      swap2\n        /* \"source/Storage.sol\":1416:1692  function allKeysData() external override view returns(Data[] memory) {... */\n      swap1\n      pop\n      jump\t// out\n        /* \"source/Storage.sol\":2086:2184  function clearKeyData(string memory _key) external override {... */\n    tag_18:\n        /* \"source/Storage.sol\":2157:2176  _clearKeyData(_key) */\n      tag_68\n        /* \"source/Storage.sol\":2171:2175  _key */\n      dup2\n        /* \"source/Storage.sol\":2157:2170  _clearKeyData */\n      tag_69\n        /* \"source/Storage.sol\":2157:2176  _clearKeyData(_key) */\n      jump\t// in\n    tag_68:\n        /* \"source/Storage.sol\":2086:2184  function clearKeyData(string memory _key) external override {... */\n      pop\n      jump\t// out\n        /* \"source/Storage.sol\":2192:2406  function clearKeysData(string[] memory _keys) external override {... */\n    tag_22:\n        /* \"source/Storage.sol\":2290:2291  0 */\n      0x00\n        /* \"source/Storage.sol\":2275:2280  _keys */\n      dup2\n        /* \"source/Storage.sol\":2275:2287  _keys.length */\n      mload\n        /* \"source/Storage.sol\":2275:2291  _keys.length > 0 */\n      gt\n        /* \"source/Storage.sol\":2267:2303  require(_keys.length > 0, 'NO_KEYS') */\n      tag_71\n      jumpi\n      mload(0x40)\n      shl(0xe5, 0x461bcd)\n      dup2\n      mstore\n        /* \"#utility.yul\":9531:9533   */\n      0x20\n        /* \"source/Storage.sol\":2267:2303  require(_keys.length > 0, 'NO_KEYS') */\n      0x04\n      dup3\n      add\n        /* \"#utility.yul\":9513:9534   */\n      mstore\n        /* \"#utility.yul\":9570:9571   */\n      0x07\n        /* \"#utility.yul\":9550:9568   */\n      0x24\n      dup3\n      add\n        /* \"#utility.yul\":9543:9572   */\n      mstore\n      shl(0xc8, 0x4e4f5f4b455953)\n        /* \"#utility.yul\":9588:9606   */\n      0x44\n      dup3\n      add\n        /* \"#utility.yul\":9581:9618   */\n      mstore\n        /* \"#utility.yul\":9635:9653   */\n      0x64\n      add\n        /* \"source/Storage.sol\":2267:2303  require(_keys.length > 0, 'NO_KEYS') */\n    tag_72:\n      mload(0x40)\n      dup1\n      swap2\n      sub\n      swap1\n      revert\n    tag_71:\n        /* \"source/Storage.sol\":2318:2324  uint x */\n      0x00\n        /* \"source/Storage.sol\":2314:2399  for(uint x; x < _keys.length; x++) {... */\n    tag_74:\n        /* \"source/Storage.sol\":2330:2335  _keys */\n      dup2\n        /* \"source/Storage.sol\":2330:2342  _keys.length */\n      mload\n        /* \"source/Storage.sol\":2326:2327  x */\n      dup2\n        /* \"source/Storage.sol\":2326:2342  x < _keys.length */\n      lt\n        /* \"source/Storage.sol\":2314:2399  for(uint x; x < _keys.length; x++) {... */\n      iszero\n      tag_75\n      jumpi\n        /* \"source/Storage.sol\":2364:2387  _clearKeyData(_keys[x]) */\n      tag_77\n        /* \"source/Storage.sol\":2378:2383  _keys */\n      dup3\n        /* \"source/Storage.sol\":2384:2385  x */\n      dup3\n        /* \"source/Storage.sol\":2378:2386  _keys[x] */\n      dup2\n      mload\n      dup2\n      lt\n      tag_79\n      jumpi\n      tag_79\n      tag_54\n      jump\t// in\n    tag_79:\n      0x20\n      mul\n      0x20\n      add\n      add\n      mload\n        /* \"source/Storage.sol\":2364:2377  _clearKeyData */\n      tag_69\n        /* \"source/Storage.sol\":2364:2387  _clearKeyData(_keys[x]) */\n      jump\t// in\n    tag_77:\n        /* \"source/Storage.sol\":2344:2347  x++ */\n      dup1\n      tag_80\n      dup2\n      tag_66\n      jump\t// in\n    tag_80:\n      swap2\n      pop\n      pop\n        /* \"source/Storage.sol\":2314:2399  for(uint x; x < _keys.length; x++) {... */\n      jump(tag_74)\n    tag_75:\n      pop\n        /* \"source/Storage.sol\":2192:2406  function clearKeysData(string[] memory _keys) external override {... */\n      pop\n      jump\t// out\n        /* \"source/Storage.sol\":1182:1303  function getData(string memory _key) external override view returns(Data memory) {... */\n    tag_25:\n      0x40\n      dup1\n      mload\n      dup1\n      dup3\n      add\n      swap1\n      swap2\n      mstore\n      0x00\n      dup2\n      mstore\n      0x60\n      0x20\n      dup3\n      add\n      mstore\n        /* \"source/Storage.sol\":1281:1295  _keyData(_key) */\n      tag_83\n        /* \"source/Storage.sol\":1290:1294  _key */\n      dup3\n        /* \"source/Storage.sol\":1281:1289  _keyData */\n      tag_62\n        /* \"source/Storage.sol\":1281:1295  _keyData(_key) */\n      jump\t// in\n    tag_83:\n        /* \"source/Storage.sol\":1274:1295  return _keyData(_key) */\n      swap3\n        /* \"source/Storage.sol\":1182:1303  function getData(string memory _key) external override view returns(Data memory) {... */\n      swap2\n      pop\n      pop\n      jump\t// out\n        /* \"source/Storage.sol\":1828:2078  function setKeysData(KeyData[] memory _keysData) external override {... */\n    tag_31:\n        /* \"source/Storage.sol\":1933:1934  0 */\n      0x00\n        /* \"source/Storage.sol\":1914:1923  _keysData */\n      dup2\n        /* \"source/Storage.sol\":1914:1930  _keysData.length */\n      mload\n        /* \"source/Storage.sol\":1914:1934  _keysData.length > 0 */\n      gt\n        /* \"source/Storage.sol\":1906:1946  require(_keysData.length > 0, 'NO_DATA') */\n      tag_85\n      jumpi\n      mload(0x40)\n      shl(0xe5, 0x461bcd)\n      dup2\n      mstore\n        /* \"#utility.yul\":9866:9868   */\n      0x20\n        /* \"source/Storage.sol\":1906:1946  require(_keysData.length > 0, 'NO_DATA') */\n      0x04\n      dup3\n      add\n        /* \"#utility.yul\":9848:9869   */\n      mstore\n        /* \"#utility.yul\":9905:9906   */\n      0x07\n        /* \"#utility.yul\":9885:9903   */\n      0x24\n      dup3\n      add\n        /* \"#utility.yul\":9878:9907   */\n      mstore\n      shl(0xc8, 0x4e4f5f44415441)\n        /* \"#utility.yul\":9923:9941   */\n      0x44\n      dup3\n      add\n        /* \"#utility.yul\":9916:9953   */\n      mstore\n        /* \"#utility.yul\":9970:9988   */\n      0x64\n      add\n        /* \"source/Storage.sol\":1906:1946  require(_keysData.length > 0, 'NO_DATA') */\n      tag_72\n        /* \"#utility.yul\":9664:9994   */\n      jump\n        /* \"source/Storage.sol\":1906:1946  require(_keysData.length > 0, 'NO_DATA') */\n    tag_85:\n        /* \"source/Storage.sol\":1961:1967  uint x */\n      0x00\n        /* \"source/Storage.sol\":1957:2071  for(uint x; x < _keysData.length; x++) {... */\n    tag_88:\n        /* \"source/Storage.sol\":1973:1982  _keysData */\n      dup2\n        /* \"source/Storage.sol\":1973:1989  _keysData.length */\n      mload\n        /* \"source/Storage.sol\":1969:1970  x */\n      dup2\n        /* \"source/Storage.sol\":1969:1989  x < _keysData.length */\n      lt\n        /* \"source/Storage.sol\":1957:2071  for(uint x; x < _keysData.length; x++) {... */\n      iszero\n      tag_75\n      jumpi\n        /* \"source/Storage.sol\":2011:2059  _setKeyData(_keysData[x].key, _keysData[x].data) */\n      tag_91\n        /* \"source/Storage.sol\":2023:2032  _keysData */\n      dup3\n        /* \"source/Storage.sol\":2033:2034  x */\n      dup3\n        /* \"source/Storage.sol\":2023:2035  _keysData[x] */\n      dup2\n      mload\n      dup2\n      lt\n      tag_93\n      jumpi\n      tag_93\n      tag_54\n      jump\t// in\n    tag_93:\n      0x20\n      mul\n      0x20\n      add\n      add\n      mload\n        /* \"source/Storage.sol\":2023:2039  _keysData[x].key */\n      0x00\n      add\n      mload\n        /* \"source/Storage.sol\":2041:2050  _keysData */\n      dup4\n        /* \"source/Storage.sol\":2051:2052  x */\n      dup4\n        /* \"source/Storage.sol\":2041:2053  _keysData[x] */\n      dup2\n      mload\n      dup2\n      lt\n      tag_95\n      jumpi\n      tag_95\n      tag_54\n      jump\t// in\n    tag_95:\n      0x20\n      mul\n      0x20\n      add\n      add\n      mload\n        /* \"source/Storage.sol\":2041:2058  _keysData[x].data */\n      0x20\n      add\n      mload\n        /* \"source/Storage.sol\":2011:2022  _setKeyData */\n      tag_96\n        /* \"source/Storage.sol\":2011:2059  _setKeyData(_keysData[x].key, _keysData[x].data) */\n      jump\t// in\n    tag_91:\n        /* \"source/Storage.sol\":1991:1994  x++ */\n      dup1\n      tag_97\n      dup2\n      tag_66\n      jump\t// in\n    tag_97:\n      swap2\n      pop\n      pop\n        /* \"source/Storage.sol\":1957:2071  for(uint x; x < _keysData.length; x++) {... */\n      jump(tag_88)\n        /* \"source/Storage.sol\":1311:1408  function allKeys() external override view returns(string[] memory) {... */\n    tag_33:\n        /* \"source/Storage.sol\":1361:1376  string[] memory */\n      0x60\n        /* \"source/Storage.sol\":1396:1400  keys */\n      0x01\n        /* \"source/Storage.sol\":1389:1400  return keys */\n      dup1\n      sload\n      dup1\n      0x20\n      mul\n      0x20\n      add\n      mload(0x40)\n      swap1\n      dup2\n      add\n      0x40\n      mstore\n      dup1\n      swap3\n      swap2\n      swap1\n      dup2\n      dup2\n      mstore\n      0x20\n      add\n      0x00\n      swap1\n    tag_99:\n      dup3\n      dup3\n      lt\n      iszero\n      tag_100\n      jumpi\n      dup4\n      dup3\n      swap1\n      0x00\n      mstore\n      keccak256(0x00, 0x20)\n      add\n      dup1\n      sload\n      tag_102\n      swap1\n      tag_57\n      jump\t// in\n    tag_102:\n      dup1\n      0x1f\n      add\n      0x20\n      dup1\n      swap2\n      div\n      mul\n      0x20\n      add\n      mload(0x40)\n      swap1\n      dup2\n      add\n      0x40\n      mstore\n      dup1\n      swap3\n      swap2\n      swap1\n      dup2\n      dup2\n      mstore\n      0x20\n      add\n      dup3\n      dup1\n      sload\n      tag_103\n      swap1\n      tag_57\n      jump\t// in\n    tag_103:\n      dup1\n      iszero\n      tag_104\n      jumpi\n      dup1\n      0x1f\n      lt\n      tag_105\n      jumpi\n      0x0100\n      dup1\n      dup4\n      sload\n      div\n      mul\n      dup4\n      mstore\n      swap2\n      0x20\n      add\n      swap2\n      jump(tag_104)\n    tag_105:\n      dup3\n      add\n      swap2\n      swap1\n      0x00\n      mstore\n      keccak256(0x00, 0x20)\n      swap1\n    tag_106:\n      dup2\n      sload\n      dup2\n      mstore\n      swap1\n      0x01\n      add\n      swap1\n      0x20\n      add\n      dup1\n      dup4\n      gt\n      tag_106\n      jumpi\n      dup3\n      swap1\n      sub\n      0x1f\n      and\n      dup3\n      add\n      swap2\n    tag_104:\n      pop\n      pop\n      pop\n      pop\n      pop\n      dup2\n      mstore\n      0x20\n      add\n      swap1\n      0x01\n      add\n      swap1\n      jump(tag_99)\n    tag_100:\n      pop\n      pop\n      pop\n      pop\n      swap1\n      pop\n        /* \"source/Storage.sol\":1311:1408  function allKeys() external override view returns(string[] memory) {... */\n      swap1\n      jump\t// out\n        /* \"source/Storage.sol\":1700:1820  function setKeyData(string memory _key, Data memory _data) external override {... */\n    tag_39:\n        /* \"source/Storage.sol\":1788:1812  _setKeyData(_key, _data) */\n      tag_75\n        /* \"source/Storage.sol\":1800:1804  _key */\n      dup3\n        /* \"source/Storage.sol\":1806:1811  _data */\n      dup3\n        /* \"source/Storage.sol\":1788:1799  _setKeyData */\n      tag_96\n        /* \"source/Storage.sol\":1788:1812  _setKeyData(_key, _data) */\n      jump\t// in\n        /* \"source/Storage.sol\":2414:2631  function _keyData(string memory _key) private view notEmpty(_key) returns(Data memory _data) {... */\n    tag_62:\n      0x40\n      dup1\n      mload\n      dup1\n      dup3\n      add\n      swap1\n      swap2\n      mstore\n      0x00\n      dup2\n      mstore\n      0x60\n      0x20\n      dup3\n      add\n      mstore\n        /* \"source/Storage.sol\":1120:1136  byteValue.length */\n      dup2\n      mload\n        /* \"source/Storage.sol\":2474:2478  _key */\n      dup3\n      swap1\n      dup2\n      swap1\n        /* \"source/Storage.sol\":1112:1154  require(byteValue.length != 0, 'NO_VALUE') */\n      tag_111\n      jumpi\n      mload(0x40)\n      shl(0xe5, 0x461bcd)\n      dup2\n      mstore\n      0x04\n      add\n      tag_72\n      swap1\n      tag_113\n      jump\t// in\n    tag_111:\n        /* \"source/Storage.sol\":2526:2623  Data({... */\n      mload(0x40)\n      dup1\n      0x40\n      add\n      0x40\n      mstore\n      dup1\n        /* \"source/Storage.sol\":2553:2560  allData */\n      0x00\n        /* \"source/Storage.sol\":2561:2565  _key */\n      dup7\n        /* \"source/Storage.sol\":2553:2566  allData[_key] */\n      mload(0x40)\n      tag_115\n      swap2\n      swap1\n      tag_116\n      jump\t// in\n    tag_115:\n      swap1\n      dup2\n      mstore\n      0x40\n      dup1\n      mload\n      0x20\n      swap3\n      dup2\n      swap1\n      sub\n      dup4\n      add\n      swap1\n      keccak256\n        /* \"source/Storage.sol\":2553:2572  allData[_key].owner */\n      sload\n      sub(shl(0xa0, 0x01), 0x01)\n      and\n        /* \"source/Storage.sol\":2526:2623  Data({... */\n      dup4\n      mstore\n        /* \"source/Storage.sol\":2593:2606  allData[_key] */\n      mload\n        /* \"source/Storage.sol\":2526:2623  Data({... */\n      swap2\n      add\n      swap1\n        /* \"source/Storage.sol\":2553:2572  allData[_key].owner */\n      0x00\n      swap1\n        /* \"source/Storage.sol\":2593:2606  allData[_key] */\n      tag_117\n      swap1\n        /* \"source/Storage.sol\":2601:2605  _key */\n      dup9\n      swap1\n        /* \"source/Storage.sol\":2593:2606  allData[_key] */\n      tag_116\n      jump\t// in\n    tag_117:\n      swap1\n      dup2\n      mstore\n      0x20\n      add\n      mload(0x40)\n      dup1\n      swap2\n      sub\n      swap1\n      keccak256\n        /* \"source/Storage.sol\":2593:2611  allData[_key].info */\n      0x01\n      add\n        /* \"source/Storage.sol\":2526:2623  Data({... */\n      dup1\n      sload\n      tag_118\n      swap1\n      tag_57\n      jump\t// in\n    tag_118:\n      dup1\n      0x1f\n      add\n      0x20\n      dup1\n      swap2\n      div\n      mul\n      0x20\n      add\n      mload(0x40)\n      swap1\n      dup2\n      add\n      0x40\n      mstore\n      dup1\n      swap3\n      swap2\n      swap1\n      dup2\n      dup2\n      mstore\n      0x20\n      add\n      dup3\n      dup1\n      sload\n      tag_119\n      swap1\n      tag_57\n      jump\t// in\n    tag_119:\n      dup1\n      iszero\n      tag_120\n      jumpi\n      dup1\n      0x1f\n      lt\n      tag_121\n      jumpi\n      0x0100\n      dup1\n      dup4\n      sload\n      div\n      mul\n      dup4\n      mstore\n      swap2\n      0x20\n      add\n      swap2\n      jump(tag_120)\n    tag_121:\n      dup3\n      add\n      swap2\n      swap1\n      0x00\n      mstore\n      keccak256(0x00, 0x20)\n      swap1\n    tag_122:\n      dup2\n      sload\n      dup2\n      mstore\n      swap1\n      0x01\n      add\n      swap1\n      0x20\n      add\n      dup1\n      dup4\n      gt\n      tag_122\n      jumpi\n      dup3\n      swap1\n      sub\n      0x1f\n      and\n      dup3\n      add\n      swap2\n    tag_120:\n      pop\n      pop\n      pop\n      pop\n      pop\n      dup2\n      mstore\n      pop\n        /* \"source/Storage.sol\":2518:2623  _data = Data({... */\n      swap3\n      pop\n        /* \"source/Storage.sol\":1052:1174  {... */\n      pop\n        /* \"source/Storage.sol\":2414:2631  function _keyData(string memory _key) private view notEmpty(_key) returns(Data memory _data) {... */\n      pop\n      swap2\n      swap1\n      pop\n      jump\t// out\n        /* \"source/Storage.sol\":3003:3723  function _clearKeyData(string memory _key) private notEmpty(_key) onlyDataOwner(_key) {... */\n    tag_69:\n        /* \"source/Storage.sol\":1120:1136  byteValue.length */\n      dup1\n      mload\n        /* \"source/Storage.sol\":3063:3067  _key */\n      dup2\n      swap1\n      dup2\n      swap1\n        /* \"source/Storage.sol\":1112:1154  require(byteValue.length != 0, 'NO_VALUE') */\n      tag_124\n      jumpi\n      mload(0x40)\n      shl(0xe5, 0x461bcd)\n      dup2\n      mstore\n      0x04\n      add\n      tag_72\n      swap1\n      tag_113\n      jump\t// in\n    tag_124:\n        /* \"source/Storage.sol\":3083:3087  _key */\n      dup3\n        /* \"source/Storage.sol\":903:904  0 */\n      0x00\n      sub(shl(0xa0, 0x01), 0x01)\n        /* \"source/Storage.sol\":872:905  allData[_key].owner != address(0) */\n      and\n        /* \"source/Storage.sol\":872:879  allData */\n      0x00\n        /* \"source/Storage.sol\":880:884  _key */\n      dup3\n        /* \"source/Storage.sol\":872:885  allData[_key] */\n      mload(0x40)\n      tag_127\n      swap2\n      swap1\n      tag_116\n      jump\t// in\n    tag_127:\n      swap1\n      dup2\n      mstore\n      mload(0x40)\n      swap1\n      dup2\n      swap1\n      sub\n      0x20\n      add\n      swap1\n      keccak256\n        /* \"source/Storage.sol\":872:891  allData[_key].owner */\n      sload\n      sub(shl(0xa0, 0x01), 0x01)\n      and\n        /* \"source/Storage.sol\":872:905  allData[_key].owner != address(0) */\n      eq\n      iszero\n        /* \"source/Storage.sol\":864:918  require(allData[_key].owner != address(0), 'NO_OWNER') */\n      tag_128\n      jumpi\n      mload(0x40)\n      shl(0xe5, 0x461bcd)\n      dup2\n      mstore\n        /* \"#utility.yul\":10818:10820   */\n      0x20\n        /* \"source/Storage.sol\":864:918  require(allData[_key].owner != address(0), 'NO_OWNER') */\n      0x04\n      dup3\n      add\n        /* \"#utility.yul\":10800:10821   */\n      mstore\n        /* \"#utility.yul\":10857:10858   */\n      0x08\n        /* \"#utility.yul\":10837:10855   */\n      0x24\n      dup3\n      add\n        /* \"#utility.yul\":10830:10859   */\n      mstore\n      shl(0xc1, 0x2727afa7aba722a9)\n        /* \"#utility.yul\":10875:10893   */\n      0x44\n      dup3\n      add\n        /* \"#utility.yul\":10868:10906   */\n      mstore\n        /* \"#utility.yul\":10923:10941   */\n      0x64\n      add\n        /* \"source/Storage.sol\":864:918  require(allData[_key].owner != address(0), 'NO_OWNER') */\n      tag_72\n        /* \"#utility.yul\":10616:10947   */\n      jump\n        /* \"source/Storage.sol\":864:918  require(allData[_key].owner != address(0), 'NO_OWNER') */\n    tag_128:\n        /* \"source/Storage.sol\":951:958  allData */\n      0x00\n        /* \"source/Storage.sol\":959:963  _key */\n      dup2\n        /* \"source/Storage.sol\":951:964  allData[_key] */\n      mload(0x40)\n      tag_131\n      swap2\n      swap1\n      tag_116\n      jump\t// in\n    tag_131:\n      swap1\n      dup2\n      mstore\n      mload(0x40)\n      swap1\n      dup2\n      swap1\n      sub\n      0x20\n      add\n      swap1\n      keccak256\n        /* \"source/Storage.sol\":951:970  allData[_key].owner */\n      sload\n        /* \"source/Storage.sol\":937:947  msg.sender */\n      caller\n      sub(shl(0xa0, 0x01), 0x01)\n        /* \"source/Storage.sol\":951:970  allData[_key].owner */\n      swap1\n      swap2\n      and\n        /* \"source/Storage.sol\":937:970  msg.sender == allData[_key].owner */\n      eq\n        /* \"source/Storage.sol\":929:984  require(msg.sender == allData[_key].owner, 'FORBIDDEN') */\n      tag_132\n      jumpi\n      mload(0x40)\n      shl(0xe5, 0x461bcd)\n      dup2\n      mstore\n        /* \"#utility.yul\":11154:11156   */\n      0x20\n        /* \"source/Storage.sol\":929:984  require(msg.sender == allData[_key].owner, 'FORBIDDEN') */\n      0x04\n      dup3\n      add\n        /* \"#utility.yul\":11136:11157   */\n      mstore\n        /* \"#utility.yul\":11193:11194   */\n      0x09\n        /* \"#utility.yul\":11173:11191   */\n      0x24\n      dup3\n      add\n        /* \"#utility.yul\":11166:11195   */\n      mstore\n      shl(0xb9, 0x2327a92124a22222a7)\n        /* \"#utility.yul\":11211:11229   */\n      0x44\n      dup3\n      add\n        /* \"#utility.yul\":11204:11243   */\n      mstore\n        /* \"#utility.yul\":11260:11278   */\n      0x64\n      add\n        /* \"source/Storage.sol\":929:984  require(msg.sender == allData[_key].owner, 'FORBIDDEN') */\n      tag_72\n        /* \"#utility.yul\":10952:11284   */\n      jump\n        /* \"source/Storage.sol\":929:984  require(msg.sender == allData[_key].owner, 'FORBIDDEN') */\n    tag_132:\n        /* \"source/Storage.sol\":3107:3114  allData */\n      0x00\n        /* \"source/Storage.sol\":3115:3119  _key */\n      dup5\n        /* \"source/Storage.sol\":3107:3120  allData[_key] */\n      mload(0x40)\n      tag_136\n      swap2\n      swap1\n      tag_116\n      jump\t// in\n    tag_136:\n      swap1\n      dup2\n      mstore\n      mload(0x40)\n      swap1\n      dup2\n      swap1\n      sub\n      0x20\n      add\n      swap1\n      keccak256\n        /* \"source/Storage.sol\":3100:3120  delete allData[_key] */\n      dup1\n      sload\n      not(sub(shl(0xa0, 0x01), 0x01))\n      and\n      dup2\n      sstore\n        /* \"source/Storage.sol\":3107:3120  allData[_key] */\n      0x00\n        /* \"source/Storage.sol\":3100:3120  delete allData[_key] */\n      tag_137\n      0x01\n      dup4\n      add\n        /* \"source/Storage.sol\":3107:3120  allData[_key] */\n      dup3\n        /* \"source/Storage.sol\":3100:3120  delete allData[_key] */\n      tag_138\n      jump\t// in\n    tag_137:\n      pop\n      pop\n        /* \"source/Storage.sol\":3135:3139  keys */\n      0x01\n        /* \"source/Storage.sol\":3135:3146  keys.length */\n      sload\n        /* \"source/Storage.sol\":3131:3160  if (keys.length == 0) return; */\n      tag_139\n      jumpi\n        /* \"source/Storage.sol\":3153:3160  return; */\n      jump(tag_153)\n        /* \"source/Storage.sol\":3131:3160  if (keys.length == 0) return; */\n    tag_139:\n        /* \"source/Storage.sol\":3174:3178  keys */\n      0x01\n        /* \"source/Storage.sol\":3174:3185  keys.length */\n      dup1\n      sload\n        /* \"source/Storage.sol\":3174:3190  keys.length == 1 */\n      eq\n        /* \"source/Storage.sol\":3170:3716  if (keys.length == 1) {... */\n      iszero\n      tag_140\n      jumpi\n        /* \"source/Storage.sol\":3278:3282  _key */\n      dup4\n        /* \"source/Storage.sol\":3261:3283  abi.encodePacked(_key) */\n      add(0x20, mload(0x40))\n      tag_141\n      swap2\n      swap1\n      tag_116\n      jump\t// in\n    tag_141:\n      mload(0x40)\n      0x20\n      dup2\n      dup4\n      sub\n      sub\n      dup2\n      mstore\n      swap1\n      0x40\n      mstore\n        /* \"source/Storage.sol\":3251:3284  keccak256(abi.encodePacked(_key)) */\n      dup1\n      mload\n      swap1\n      0x20\n      add\n      keccak256\n        /* \"source/Storage.sol\":3238:3242  keys */\n      0x01\n        /* \"source/Storage.sol\":3243:3244  0 */\n      0x00\n        /* \"source/Storage.sol\":3238:3245  keys[0] */\n      dup2\n      sload\n      dup2\n      lt\n      tag_143\n      jumpi\n      tag_143\n      tag_54\n      jump\t// in\n    tag_143:\n      swap1\n      0x00\n      mstore\n      keccak256(0x00, 0x20)\n      add\n        /* \"source/Storage.sol\":3221:3246  abi.encodePacked(keys[0]) */\n      add(0x20, mload(0x40))\n      tag_145\n      swap2\n      swap1\n      tag_146\n      jump\t// in\n    tag_145:\n      mload(0x40)\n      0x20\n      dup2\n      dup4\n      sub\n      sub\n      dup2\n      mstore\n      swap1\n      0x40\n      mstore\n        /* \"source/Storage.sol\":3211:3247  keccak256(abi.encodePacked(keys[0])) */\n      dup1\n      mload\n      swap1\n      0x20\n      add\n      keccak256\n        /* \"source/Storage.sol\":3211:3284  keccak256(abi.encodePacked(keys[0])) == keccak256(abi.encodePacked(_key)) */\n      eq\n        /* \"source/Storage.sol\":3207:3331  if (keccak256(abi.encodePacked(keys[0])) == keccak256(abi.encodePacked(_key))) {... */\n      iszero\n      tag_147\n      jumpi\n        /* \"source/Storage.sol\":3305:3309  keys */\n      0x01\n        /* \"source/Storage.sol\":3305:3315  keys.pop() */\n      dup1\n      sload\n      dup1\n      tag_149\n      jumpi\n      tag_149\n      tag_150\n      jump\t// in\n    tag_149:\n      0x01\n      swap1\n      sub\n      dup2\n      dup2\n      swap1\n      0x00\n      mstore\n      keccak256(0x00, 0x20)\n      add\n      0x00\n      tag_152\n      swap2\n      swap1\n      tag_138\n      jump\t// in\n    tag_152:\n      swap1\n      sstore\n        /* \"source/Storage.sol\":3207:3331  if (keccak256(abi.encodePacked(keys[0])) == keccak256(abi.encodePacked(_key))) {... */\n    tag_147:\n        /* \"source/Storage.sol\":3170:3716  if (keys.length == 1) {... */\n      jump(tag_153)\n    tag_140:\n        /* \"source/Storage.sol\":3363:3379  bool arrayOffset */\n      0x00\n        /* \"source/Storage.sol\":3398:3404  uint x */\n      dup1\n        /* \"source/Storage.sol\":3394:3663  for(uint x; x < keys.length - 1; x++) {... */\n    tag_154:\n        /* \"source/Storage.sol\":3424:3425  1 */\n      0x01\n        /* \"source/Storage.sol\":3410:3421  keys.length */\n      dup1\n      sload\n        /* \"source/Storage.sol\":3410:3425  keys.length - 1 */\n      tag_157\n      swap2\n        /* \"source/Storage.sol\":3424:3425  1 */\n      swap1\n        /* \"source/Storage.sol\":3410:3425  keys.length - 1 */\n      tag_158\n      jump\t// in\n    tag_157:\n        /* \"source/Storage.sol\":3406:3407  x */\n      dup2\n        /* \"source/Storage.sol\":3406:3425  x < keys.length - 1 */\n      lt\n        /* \"source/Storage.sol\":3394:3663  for(uint x; x < keys.length - 1; x++) {... */\n      iszero\n      tag_155\n      jumpi\n        /* \"source/Storage.sol\":3522:3526  _key */\n      dup6\n        /* \"source/Storage.sol\":3505:3527  abi.encodePacked(_key) */\n      add(0x20, mload(0x40))\n      tag_159\n      swap2\n      swap1\n      tag_116\n      jump\t// in\n    tag_159:\n      mload(0x40)\n      0x20\n      dup2\n      dup4\n      sub\n      sub\n      dup2\n      mstore\n      swap1\n      0x40\n      mstore\n        /* \"source/Storage.sol\":3495:3528  keccak256(abi.encodePacked(_key)) */\n      dup1\n      mload\n      swap1\n      0x20\n      add\n      keccak256\n        /* \"source/Storage.sol\":3482:3486  keys */\n      0x01\n        /* \"source/Storage.sol\":3487:3488  x */\n      dup3\n        /* \"source/Storage.sol\":3482:3489  keys[x] */\n      dup2\n      sload\n      dup2\n      lt\n      tag_161\n      jumpi\n      tag_161\n      tag_54\n      jump\t// in\n    tag_161:\n      swap1\n      0x00\n      mstore\n      keccak256(0x00, 0x20)\n      add\n        /* \"source/Storage.sol\":3465:3490  abi.encodePacked(keys[x]) */\n      add(0x20, mload(0x40))\n      tag_163\n      swap2\n      swap1\n      tag_146\n      jump\t// in\n    tag_163:\n      mload(0x40)\n      0x20\n      dup2\n      dup4\n      sub\n      sub\n      dup2\n      mstore\n      swap1\n      0x40\n      mstore\n        /* \"source/Storage.sol\":3455:3491  keccak256(abi.encodePacked(keys[x])) */\n      dup1\n      mload\n      swap1\n      0x20\n      add\n      keccak256\n        /* \"source/Storage.sol\":3455:3528  keccak256(abi.encodePacked(keys[x])) == keccak256(abi.encodePacked(_key)) */\n      eq\n        /* \"source/Storage.sol\":3451:3591  if (keccak256(abi.encodePacked(keys[x])) == keccak256(abi.encodePacked(_key))) {... */\n      iszero\n      tag_164\n      jumpi\n        /* \"source/Storage.sol\":3567:3571  true */\n      0x01\n        /* \"source/Storage.sol\":3553:3571  arrayOffset = true */\n      swap2\n      pop\n        /* \"source/Storage.sol\":3451:3591  if (keccak256(abi.encodePacked(keys[x])) == keccak256(abi.encodePacked(_key))) {... */\n    tag_164:\n        /* \"source/Storage.sol\":3613:3624  arrayOffset */\n      dup2\n        /* \"source/Storage.sol\":3609:3647  if (arrayOffset) keys[x] = keys[x + 1] */\n      iszero\n      tag_165\n      jumpi\n        /* \"source/Storage.sol\":3636:3640  keys */\n      0x01\n        /* \"source/Storage.sol\":3641:3646  x + 1 */\n      tag_166\n        /* \"source/Storage.sol\":3641:3642  x */\n      dup3\n        /* \"source/Storage.sol\":3636:3640  keys */\n      dup3\n        /* \"source/Storage.sol\":3641:3646  x + 1 */\n      tag_167\n      jump\t// in\n    tag_166:\n        /* \"source/Storage.sol\":3636:3647  keys[x + 1] */\n      dup2\n      sload\n      dup2\n      lt\n      tag_169\n      jumpi\n      tag_169\n      tag_54\n      jump\t// in\n    tag_169:\n      swap1\n      0x00\n      mstore\n      keccak256(0x00, 0x20)\n      add\n        /* \"source/Storage.sol\":3626:3630  keys */\n      0x01\n        /* \"source/Storage.sol\":3631:3632  x */\n      dup3\n        /* \"source/Storage.sol\":3626:3633  keys[x] */\n      dup2\n      sload\n      dup2\n      lt\n      tag_172\n      jumpi\n      tag_172\n      tag_54\n      jump\t// in\n    tag_172:\n      swap1\n      0x00\n      mstore\n      keccak256(0x00, 0x20)\n      add\n        /* \"source/Storage.sol\":3626:3647  keys[x] = keys[x + 1] */\n      swap1\n      dup1\n      sload\n      tag_174\n      swap1\n      tag_57\n      jump\t// in\n    tag_174:\n      tag_175\n      swap3\n      swap2\n      swap1\n      tag_176\n      jump\t// in\n    tag_175:\n      pop\n        /* \"source/Storage.sol\":3609:3647  if (arrayOffset) keys[x] = keys[x + 1] */\n    tag_165:\n        /* \"source/Storage.sol\":3427:3430  x++ */\n      dup1\n      tag_177\n      dup2\n      tag_66\n      jump\t// in\n    tag_177:\n      swap2\n      pop\n      pop\n        /* \"source/Storage.sol\":3394:3663  for(uint x; x < keys.length - 1; x++) {... */\n      jump(tag_154)\n    tag_155:\n      pop\n        /* \"source/Storage.sol\":3681:3692  arrayOffset */\n      dup1\n        /* \"source/Storage.sol\":3677:3704  if (arrayOffset) keys.pop() */\n      iszero\n      tag_178\n      jumpi\n        /* \"source/Storage.sol\":3694:3698  keys */\n      0x01\n        /* \"source/Storage.sol\":3694:3704  keys.pop() */\n      dup1\n      sload\n      dup1\n      tag_180\n      jumpi\n      tag_180\n      tag_150\n      jump\t// in\n    tag_180:\n      0x01\n      swap1\n      sub\n      dup2\n      dup2\n      swap1\n      0x00\n      mstore\n      keccak256(0x00, 0x20)\n      add\n      0x00\n      tag_182\n      swap2\n      swap1\n      tag_138\n      jump\t// in\n    tag_182:\n      swap1\n      sstore\n        /* \"source/Storage.sol\":3677:3704  if (arrayOffset) keys.pop() */\n    tag_178:\n        /* \"source/Storage.sol\":3348:3716  {... */\n      pop\n        /* \"source/Storage.sol\":3170:3716  if (keys.length == 1) {... */\n    tag_153:\n        /* \"source/Storage.sol\":1165:1166  _ */\n      pop\n        /* \"source/Storage.sol\":1052:1174  {... */\n      pop\n        /* \"source/Storage.sol\":3003:3723  function _clearKeyData(string memory _key) private notEmpty(_key) onlyDataOwner(_key) {... */\n      pop\n      pop\n      jump\t// out\n        /* \"source/Storage.sol\":2639:2995  function _setKeyData(string memory _key, Data memory _data) private notEmpty(_key) {... */\n    tag_96:\n        /* \"source/Storage.sol\":1120:1136  byteValue.length */\n      dup2\n      mload\n        /* \"source/Storage.sol\":2716:2720  _key */\n      dup3\n      swap1\n      dup2\n      swap1\n        /* \"source/Storage.sol\":1112:1154  require(byteValue.length != 0, 'NO_VALUE') */\n      tag_184\n      jumpi\n      mload(0x40)\n      shl(0xe5, 0x461bcd)\n      dup2\n      mstore\n      0x04\n      add\n      tag_72\n      swap1\n      tag_113\n      jump\t// in\n    tag_184:\n        /* \"source/Storage.sol\":2768:2769  0 */\n      0x00\n      sub(shl(0xa0, 0x01), 0x01)\n        /* \"source/Storage.sol\":2737:2770  allData[_key].owner != address(0) */\n      and\n        /* \"source/Storage.sol\":2737:2744  allData */\n      0x00\n        /* \"source/Storage.sol\":2745:2749  _key */\n      dup6\n        /* \"source/Storage.sol\":2737:2750  allData[_key] */\n      mload(0x40)\n      tag_187\n      swap2\n      swap1\n      tag_116\n      jump\t// in\n    tag_187:\n      swap1\n      dup2\n      mstore\n      mload(0x40)\n      swap1\n      dup2\n      swap1\n      sub\n      0x20\n      add\n      swap1\n      keccak256\n        /* \"source/Storage.sol\":2737:2756  allData[_key].owner */\n      sload\n      sub(shl(0xa0, 0x01), 0x01)\n      and\n        /* \"source/Storage.sol\":2737:2770  allData[_key].owner != address(0) */\n      eq\n        /* \"source/Storage.sol\":2733:2902  if (allData[_key].owner != address(0)) {... */\n      tag_188\n      jumpi\n        /* \"source/Storage.sol\":2809:2816  allData */\n      0x00\n        /* \"source/Storage.sol\":2817:2821  _key */\n      dup5\n        /* \"source/Storage.sol\":2809:2822  allData[_key] */\n      mload(0x40)\n      tag_189\n      swap2\n      swap1\n      tag_116\n      jump\t// in\n    tag_189:\n      swap1\n      dup2\n      mstore\n      mload(0x40)\n      swap1\n      dup2\n      swap1\n      sub\n      0x20\n      add\n      swap1\n      keccak256\n        /* \"source/Storage.sol\":2809:2828  allData[_key].owner */\n      sload\n        /* \"source/Storage.sol\":2795:2805  msg.sender */\n      caller\n      sub(shl(0xa0, 0x01), 0x01)\n        /* \"source/Storage.sol\":2809:2828  allData[_key].owner */\n      swap1\n      swap2\n      and\n        /* \"source/Storage.sol\":2795:2828  msg.sender == allData[_key].owner */\n      eq\n        /* \"source/Storage.sol\":2787:2842  require(msg.sender == allData[_key].owner, 'FORBIDDEN') */\n      tag_190\n      jumpi\n      mload(0x40)\n      shl(0xe5, 0x461bcd)\n      dup2\n      mstore\n        /* \"#utility.yul\":11154:11156   */\n      0x20\n        /* \"source/Storage.sol\":2787:2842  require(msg.sender == allData[_key].owner, 'FORBIDDEN') */\n      0x04\n      dup3\n      add\n        /* \"#utility.yul\":11136:11157   */\n      mstore\n        /* \"#utility.yul\":11193:11194   */\n      0x09\n        /* \"#utility.yul\":11173:11191   */\n      0x24\n      dup3\n      add\n        /* \"#utility.yul\":11166:11195   */\n      mstore\n      shl(0xb9, 0x2327a92124a22222a7)\n        /* \"#utility.yul\":11211:11229   */\n      0x44\n      dup3\n      add\n        /* \"#utility.yul\":11204:11243   */\n      mstore\n        /* \"#utility.yul\":11260:11278   */\n      0x64\n      add\n        /* \"source/Storage.sol\":2787:2842  require(msg.sender == allData[_key].owner, 'FORBIDDEN') */\n      tag_72\n        /* \"#utility.yul\":10952:11284   */\n      jump\n        /* \"source/Storage.sol\":2787:2842  require(msg.sender == allData[_key].owner, 'FORBIDDEN') */\n    tag_190:\n        /* \"source/Storage.sol\":2733:2902  if (allData[_key].owner != address(0)) {... */\n      jump(tag_192)\n    tag_188:\n        /* \"source/Storage.sol\":2875:2879  keys */\n      0x01\n        /* \"source/Storage.sol\":2875:2890  keys.push(_key) */\n      dup1\n      sload\n      dup1\n      dup3\n      add\n      dup3\n      sstore\n      0x00\n      swap2\n      swap1\n      swap2\n      mstore\n      dup5\n      mload\n      tag_194\n      swap2\n      0xb10e2d527612073b26eecdfd717e6a320cf44b4afac2b0732d9fcbe2b7fa0cf6\n      add\n      swap1\n      0x20\n      dup8\n      add\n      swap1\n      tag_195\n      jump\t// in\n    tag_194:\n      pop\n        /* \"source/Storage.sol\":2733:2902  if (allData[_key].owner != address(0)) {... */\n    tag_192:\n        /* \"source/Storage.sol\":2934:2945  _data.owner */\n      dup3\n      mload\n        /* \"source/Storage.sol\":2912:2925  allData[_key] */\n      mload(0x40)\n        /* \"source/Storage.sol\":2934:2945  _data.owner */\n      0x00\n      swap1\n        /* \"source/Storage.sol\":2912:2925  allData[_key] */\n      tag_196\n      swap1\n        /* \"source/Storage.sol\":2920:2924  _key */\n      dup8\n      swap1\n        /* \"source/Storage.sol\":2912:2925  allData[_key] */\n      tag_116\n      jump\t// in\n    tag_196:\n      swap1\n      dup2\n      mstore\n      0x20\n      add\n      mload(0x40)\n      dup1\n      swap2\n      sub\n      swap1\n      keccak256\n        /* \"source/Storage.sol\":2912:2931  allData[_key].owner */\n      0x00\n      add\n      0x00\n        /* \"source/Storage.sol\":2912:2945  allData[_key].owner = _data.owner */\n      0x0100\n      exp\n      dup2\n      sload\n      dup2\n      sub(shl(0xa0, 0x01), 0x01)\n      mul\n      not\n      and\n      swap1\n      dup4\n      sub(shl(0xa0, 0x01), 0x01)\n      and\n      mul\n      or\n      swap1\n      sstore\n      pop\n        /* \"source/Storage.sol\":2977:2982  _data */\n      dup3\n        /* \"source/Storage.sol\":2977:2987  _data.info */\n      0x20\n      add\n      mload\n        /* \"source/Storage.sol\":2956:2963  allData */\n      0x00\n        /* \"source/Storage.sol\":2964:2968  _key */\n      dup6\n        /* \"source/Storage.sol\":2956:2969  allData[_key] */\n      mload(0x40)\n      tag_197\n      swap2\n      swap1\n      tag_116\n      jump\t// in\n    tag_197:\n      swap1\n      dup2\n      mstore\n      0x20\n      add\n      mload(0x40)\n      dup1\n      swap2\n      sub\n      swap1\n      keccak256\n        /* \"source/Storage.sol\":2956:2974  allData[_key].info */\n      0x01\n      add\n        /* \"source/Storage.sol\":2956:2987  allData[_key].info = _data.info */\n      swap1\n      dup1\n      mload\n      swap1\n      0x20\n      add\n      swap1\n      tag_178\n      swap3\n      swap2\n      swap1\n      tag_195\n      jump\t// in\n    tag_138:\n      pop\n      dup1\n      sload\n      tag_199\n      swap1\n      tag_57\n      jump\t// in\n    tag_199:\n      0x00\n      dup3\n      sstore\n      dup1\n      0x1f\n      lt\n      tag_201\n      jumpi\n      pop\n      pop\n      jump\t// out\n    tag_201:\n      0x1f\n      add\n      0x20\n      swap1\n      div\n      swap1\n      0x00\n      mstore\n      keccak256(0x00, 0x20)\n      swap1\n      dup2\n      add\n      swap1\n      tag_68\n      swap2\n      swap1\n      tag_203\n      jump\t// in\n    tag_176:\n      dup3\n      dup1\n      sload\n      tag_204\n      swap1\n      tag_57\n      jump\t// in\n    tag_204:\n      swap1\n      0x00\n      mstore\n      keccak256(0x00, 0x20)\n      swap1\n      0x1f\n      add\n      0x20\n      swap1\n      div\n      dup2\n      add\n      swap3\n      dup3\n      tag_206\n      jumpi\n      0x00\n      dup6\n      sstore\n      jump(tag_209)\n    tag_206:\n      dup3\n      0x1f\n      lt\n      tag_207\n      jumpi\n      dup1\n      sload\n      dup6\n      sstore\n      jump(tag_209)\n    tag_207:\n      dup3\n      dup1\n      add\n      0x01\n      add\n      dup6\n      sstore\n      dup3\n      iszero\n      tag_209\n      jumpi\n      0x00\n      mstore\n      keccak256(0x00, 0x20)\n      swap2\n      0x1f\n      add\n      0x20\n      swap1\n      div\n      dup3\n      add\n    tag_208:\n      dup3\n      dup2\n      gt\n      iszero\n      tag_209\n      jumpi\n      dup3\n      sload\n      dup3\n      sstore\n      swap2\n      0x01\n      add\n      swap2\n      swap1\n      0x01\n      add\n      swap1\n      jump(tag_208)\n    tag_209:\n      pop\n      tag_210\n      swap3\n      swap2\n      pop\n      tag_203\n      jump\t// in\n    tag_210:\n      pop\n      swap1\n      jump\t// out\n    tag_195:\n      dup3\n      dup1\n      sload\n      tag_211\n      swap1\n      tag_57\n      jump\t// in\n    tag_211:\n      swap1\n      0x00\n      mstore\n      keccak256(0x00, 0x20)\n      swap1\n      0x1f\n      add\n      0x20\n      swap1\n      div\n      dup2\n      add\n      swap3\n      dup3\n      tag_213\n      jumpi\n      0x00\n      dup6\n      sstore\n      jump(tag_209)\n    tag_213:\n      dup3\n      0x1f\n      lt\n      tag_214\n      jumpi\n      dup1\n      mload\n      not(0xff)\n      and\n      dup4\n      dup1\n      add\n      or\n      dup6\n      sstore\n      jump(tag_209)\n    tag_214:\n      dup3\n      dup1\n      add\n      0x01\n      add\n      dup6\n      sstore\n      dup3\n      iszero\n      tag_209\n      jumpi\n      swap2\n      dup3\n      add\n    tag_215:\n      dup3\n      dup2\n      gt\n      iszero\n      tag_209\n      jumpi\n      dup3\n      mload\n      dup3\n      sstore\n      swap2\n      0x20\n      add\n      swap2\n      swap1\n      0x01\n      add\n      swap1\n      jump(tag_215)\n    tag_203:\n    tag_218:\n      dup1\n      dup3\n      gt\n      iszero\n      tag_210\n      jumpi\n      0x00\n      dup2\n      sstore\n      0x01\n      add\n      jump(tag_218)\n        /* \"#utility.yul\":14:272   */\n    tag_220:\n        /* \"#utility.yul\":86:87   */\n      0x00\n        /* \"#utility.yul\":96:209   */\n    tag_232:\n        /* \"#utility.yul\":110:116   */\n      dup4\n        /* \"#utility.yul\":107:108   */\n      dup2\n        /* \"#utility.yul\":104:117   */\n      lt\n        /* \"#utility.yul\":96:209   */\n      iszero\n      tag_234\n      jumpi\n        /* \"#utility.yul\":186:197   */\n      dup2\n      dup2\n      add\n        /* \"#utility.yul\":180:198   */\n      mload\n        /* \"#utility.yul\":167:178   */\n      dup4\n      dup3\n      add\n        /* \"#utility.yul\":160:199   */\n      mstore\n        /* \"#utility.yul\":132:134   */\n      0x20\n        /* \"#utility.yul\":125:135   */\n      add\n        /* \"#utility.yul\":96:209   */\n      jump(tag_232)\n    tag_234:\n        /* \"#utility.yul\":227:233   */\n      dup4\n        /* \"#utility.yul\":224:225   */\n      dup2\n        /* \"#utility.yul\":221:234   */\n      gt\n        /* \"#utility.yul\":218:266   */\n      iszero\n      tag_153\n      jumpi\n      pop\n      pop\n        /* \"#utility.yul\":262:263   */\n      0x00\n        /* \"#utility.yul\":244:260   */\n      swap2\n      add\n        /* \"#utility.yul\":237:264   */\n      mstore\n        /* \"#utility.yul\":14:272   */\n      jump\t// out\n        /* \"#utility.yul\":277:535   */\n    tag_221:\n        /* \"#utility.yul\":319:322   */\n      0x00\n        /* \"#utility.yul\":357:362   */\n      dup2\n        /* \"#utility.yul\":351:363   */\n      mload\n        /* \"#utility.yul\":384:390   */\n      dup1\n        /* \"#utility.yul\":379:382   */\n      dup5\n        /* \"#utility.yul\":372:391   */\n      mstore\n        /* \"#utility.yul\":400:463   */\n      tag_237\n        /* \"#utility.yul\":456:462   */\n      dup2\n        /* \"#utility.yul\":449:453   */\n      0x20\n        /* \"#utility.yul\":444:447   */\n      dup7\n        /* \"#utility.yul\":440:454   */\n      add\n        /* \"#utility.yul\":433:437   */\n      0x20\n        /* \"#utility.yul\":426:431   */\n      dup7\n        /* \"#utility.yul\":422:438   */\n      add\n        /* \"#utility.yul\":400:463   */\n      tag_220\n      jump\t// in\n    tag_237:\n        /* \"#utility.yul\":517:519   */\n      0x1f\n        /* \"#utility.yul\":496:511   */\n      add\n      not(0x1f)\n        /* \"#utility.yul\":492:521   */\n      and\n        /* \"#utility.yul\":483:522   */\n      swap3\n      swap1\n      swap3\n      add\n        /* \"#utility.yul\":524:528   */\n      0x20\n        /* \"#utility.yul\":479:529   */\n      add\n      swap3\n        /* \"#utility.yul\":277:535   */\n      swap2\n      pop\n      pop\n      jump\t// out\n        /* \"#utility.yul\":540:814   */\n    tag_222:\n        /* \"#utility.yul\":652:653   */\n      0x01\n        /* \"#utility.yul\":648:649   */\n      dup1\n        /* \"#utility.yul\":643:646   */\n      0xa0\n        /* \"#utility.yul\":639:650   */\n      shl\n        /* \"#utility.yul\":635:654   */\n      sub\n        /* \"#utility.yul\":627:632   */\n      dup2\n        /* \"#utility.yul\":621:633   */\n      mload\n        /* \"#utility.yul\":617:655   */\n      and\n        /* \"#utility.yul\":612:615   */\n      dup3\n        /* \"#utility.yul\":605:656   */\n      mstore\n        /* \"#utility.yul\":587:590   */\n      0x00\n        /* \"#utility.yul\":702:706   */\n      0x20\n        /* \"#utility.yul\":695:700   */\n      dup3\n        /* \"#utility.yul\":691:707   */\n      add\n        /* \"#utility.yul\":685:708   */\n      mload\n        /* \"#utility.yul\":740:744   */\n      0x40\n        /* \"#utility.yul\":733:737   */\n      0x20\n        /* \"#utility.yul\":728:731   */\n      dup6\n        /* \"#utility.yul\":724:738   */\n      add\n        /* \"#utility.yul\":717:745   */\n      mstore\n        /* \"#utility.yul\":761:808   */\n      tag_239\n        /* \"#utility.yul\":802:806   */\n      0x40\n        /* \"#utility.yul\":797:800   */\n      dup6\n        /* \"#utility.yul\":793:807   */\n      add\n        /* \"#utility.yul\":779:791   */\n      dup3\n        /* \"#utility.yul\":761:808   */\n      tag_221\n      jump\t// in\n    tag_239:\n        /* \"#utility.yul\":754:808   */\n      swap5\n        /* \"#utility.yul\":540:814   */\n      swap4\n      pop\n      pop\n      pop\n      pop\n      jump\t// out\n        /* \"#utility.yul\":819:1645   */\n    tag_14:\n        /* \"#utility.yul\":999:1003   */\n      0x00\n        /* \"#utility.yul\":1028:1030   */\n      0x20\n        /* \"#utility.yul\":1068:1070   */\n      dup1\n        /* \"#utility.yul\":1057:1066   */\n      dup4\n        /* \"#utility.yul\":1053:1071   */\n      add\n        /* \"#utility.yul\":1098:1100   */\n      dup2\n        /* \"#utility.yul\":1087:1096   */\n      dup5\n        /* \"#utility.yul\":1080:1101   */\n      mstore\n        /* \"#utility.yul\":1121:1127   */\n      dup1\n        /* \"#utility.yul\":1156:1162   */\n      dup6\n        /* \"#utility.yul\":1150:1163   */\n      mload\n        /* \"#utility.yul\":1187:1193   */\n      dup1\n        /* \"#utility.yul\":1179:1185   */\n      dup4\n        /* \"#utility.yul\":1172:1194   */\n      mstore\n        /* \"#utility.yul\":1225:1227   */\n      0x40\n        /* \"#utility.yul\":1214:1223   */\n      dup7\n        /* \"#utility.yul\":1210:1228   */\n      add\n        /* \"#utility.yul\":1203:1228   */\n      swap2\n      pop\n        /* \"#utility.yul\":1287:1289   */\n      0x40\n        /* \"#utility.yul\":1277:1283   */\n      dup2\n        /* \"#utility.yul\":1274:1275   */\n      0x05\n        /* \"#utility.yul\":1270:1284   */\n      shl\n        /* \"#utility.yul\":1259:1268   */\n      dup8\n        /* \"#utility.yul\":1255:1285   */\n      add\n        /* \"#utility.yul\":1251:1290   */\n      add\n        /* \"#utility.yul\":1237:1290   */\n      swap3\n      pop\n        /* \"#utility.yul\":1325:1327   */\n      dup4\n        /* \"#utility.yul\":1317:1323   */\n      dup8\n        /* \"#utility.yul\":1313:1328   */\n      add\n        /* \"#utility.yul\":1346:1347   */\n      0x00\n        /* \"#utility.yul\":1356:1616   */\n    tag_241:\n        /* \"#utility.yul\":1370:1376   */\n      dup3\n        /* \"#utility.yul\":1367:1368   */\n      dup2\n        /* \"#utility.yul\":1364:1377   */\n      lt\n        /* \"#utility.yul\":1356:1616   */\n      iszero\n      tag_243\n      jumpi\n        /* \"#utility.yul\":1463:1465   */\n      0x3f\n        /* \"#utility.yul\":1459:1466   */\n      not\n        /* \"#utility.yul\":1447:1456   */\n      dup9\n        /* \"#utility.yul\":1439:1445   */\n      dup7\n        /* \"#utility.yul\":1435:1457   */\n      sub\n        /* \"#utility.yul\":1431:1467   */\n      add\n        /* \"#utility.yul\":1426:1429   */\n      dup5\n        /* \"#utility.yul\":1419:1468   */\n      mstore\n        /* \"#utility.yul\":1491:1536   */\n      tag_244\n        /* \"#utility.yul\":1529:1535   */\n      dup6\n        /* \"#utility.yul\":1520:1526   */\n      dup4\n        /* \"#utility.yul\":1514:1527   */\n      mload\n        /* \"#utility.yul\":1491:1536   */\n      tag_222\n      jump\t// in\n    tag_244:\n        /* \"#utility.yul\":1481:1536   */\n      swap5\n      pop\n        /* \"#utility.yul\":1594:1606   */\n      swap3\n      dup6\n      add\n      swap3\n        /* \"#utility.yul\":1559:1574   */\n      swap1\n      dup6\n      add\n      swap1\n        /* \"#utility.yul\":1392:1393   */\n      0x01\n        /* \"#utility.yul\":1385:1394   */\n      add\n        /* \"#utility.yul\":1356:1616   */\n      jump(tag_241)\n    tag_243:\n      pop\n        /* \"#utility.yul\":1633:1639   */\n      swap3\n      swap8\n        /* \"#utility.yul\":819:1645   */\n      swap7\n      pop\n      pop\n      pop\n      pop\n      pop\n      pop\n      pop\n      jump\t// out\n        /* \"#utility.yul\":1650:1777   */\n    tag_43:\n        /* \"#utility.yul\":1711:1721   */\n      0x4e487b71\n        /* \"#utility.yul\":1706:1709   */\n      0xe0\n        /* \"#utility.yul\":1702:1722   */\n      shl\n        /* \"#utility.yul\":1699:1700   */\n      0x00\n        /* \"#utility.yul\":1692:1723   */\n      mstore\n        /* \"#utility.yul\":1742:1746   */\n      0x41\n        /* \"#utility.yul\":1739:1740   */\n      0x04\n        /* \"#utility.yul\":1732:1747   */\n      mstore\n        /* \"#utility.yul\":1766:1770   */\n      0x24\n        /* \"#utility.yul\":1763:1764   */\n      0x00\n        /* \"#utility.yul\":1756:1771   */\n      revert\n        /* \"#utility.yul\":1782:2039   */\n    tag_223:\n        /* \"#utility.yul\":1854:1858   */\n      0x40\n        /* \"#utility.yul\":1848:1859   */\n      dup1\n      mload\n      swap1\n        /* \"#utility.yul\":1886:1903   */\n      dup2\n      add\n        /* \"#utility.yul\":1933:1951   */\n      0xffffffffffffffff\n        /* \"#utility.yul\":1918:1952   */\n      dup2\n      gt\n        /* \"#utility.yul\":1954:1976   */\n      dup3\n      dup3\n      lt\n        /* \"#utility.yul\":1915:1977   */\n      or\n        /* \"#utility.yul\":1912:2000   */\n      iszero\n      tag_248\n      jumpi\n        /* \"#utility.yul\":1980:1998   */\n      tag_248\n      tag_43\n      jump\t// in\n    tag_248:\n        /* \"#utility.yul\":2016:2020   */\n      0x40\n        /* \"#utility.yul\":2009:2033   */\n      mstore\n        /* \"#utility.yul\":1782:2039   */\n      swap1\n      jump\t// out\n        /* \"#utility.yul\":2044:2319   */\n    tag_224:\n        /* \"#utility.yul\":2115:2117   */\n      0x40\n        /* \"#utility.yul\":2109:2118   */\n      mload\n        /* \"#utility.yul\":2180:2182   */\n      0x1f\n        /* \"#utility.yul\":2161:2174   */\n      dup3\n      add\n      not(0x1f)\n        /* \"#utility.yul\":2157:2184   */\n      and\n        /* \"#utility.yul\":2145:2185   */\n      dup2\n      add\n        /* \"#utility.yul\":2215:2233   */\n      0xffffffffffffffff\n        /* \"#utility.yul\":2200:2234   */\n      dup2\n      gt\n        /* \"#utility.yul\":2236:2258   */\n      dup3\n      dup3\n      lt\n        /* \"#utility.yul\":2197:2259   */\n      or\n        /* \"#utility.yul\":2194:2282   */\n      iszero\n      tag_251\n      jumpi\n        /* \"#utility.yul\":2262:2280   */\n      tag_251\n      tag_43\n      jump\t// in\n    tag_251:\n        /* \"#utility.yul\":2298:2300   */\n      0x40\n        /* \"#utility.yul\":2291:2313   */\n      mstore\n        /* \"#utility.yul\":2044:2319   */\n      swap2\n      swap1\n      pop\n      jump\t// out\n        /* \"#utility.yul\":2324:2855   */\n    tag_225:\n        /* \"#utility.yul\":2367:2372   */\n      0x00\n        /* \"#utility.yul\":2420:2423   */\n      dup3\n        /* \"#utility.yul\":2413:2417   */\n      0x1f\n        /* \"#utility.yul\":2405:2411   */\n      dup4\n        /* \"#utility.yul\":2401:2418   */\n      add\n        /* \"#utility.yul\":2397:2424   */\n      slt\n        /* \"#utility.yul\":2387:2442   */\n      tag_253\n      jumpi\n        /* \"#utility.yul\":2438:2439   */\n      0x00\n        /* \"#utility.yul\":2435:2436   */\n      dup1\n        /* \"#utility.yul\":2428:2440   */\n      revert\n        /* \"#utility.yul\":2387:2442   */\n    tag_253:\n        /* \"#utility.yul\":2474:2480   */\n      dup2\n        /* \"#utility.yul\":2461:2481   */\n      calldataload\n        /* \"#utility.yul\":2500:2518   */\n      0xffffffffffffffff\n        /* \"#utility.yul\":2496:2498   */\n      dup2\n        /* \"#utility.yul\":2493:2519   */\n      gt\n        /* \"#utility.yul\":2490:2542   */\n      iszero\n      tag_255\n      jumpi\n        /* \"#utility.yul\":2522:2540   */\n      tag_255\n      tag_43\n      jump\t// in\n    tag_255:\n        /* \"#utility.yul\":2566:2621   */\n      tag_256\n        /* \"#utility.yul\":2609:2611   */\n      0x1f\n        /* \"#utility.yul\":2590:2603   */\n      dup3\n      add\n      not(0x1f)\n        /* \"#utility.yul\":2586:2613   */\n      and\n        /* \"#utility.yul\":2615:2619   */\n      0x20\n        /* \"#utility.yul\":2582:2620   */\n      add\n        /* \"#utility.yul\":2566:2621   */\n      tag_224\n      jump\t// in\n    tag_256:\n        /* \"#utility.yul\":2646:2648   */\n      dup2\n        /* \"#utility.yul\":2637:2644   */\n      dup2\n        /* \"#utility.yul\":2630:2649   */\n      mstore\n        /* \"#utility.yul\":2692:2695   */\n      dup5\n        /* \"#utility.yul\":2685:2689   */\n      0x20\n        /* \"#utility.yul\":2680:2682   */\n      dup4\n        /* \"#utility.yul\":2672:2678   */\n      dup7\n        /* \"#utility.yul\":2668:2683   */\n      add\n        /* \"#utility.yul\":2664:2690   */\n      add\n        /* \"#utility.yul\":2661:2696   */\n      gt\n        /* \"#utility.yul\":2658:2713   */\n      iszero\n      tag_257\n      jumpi\n        /* \"#utility.yul\":2709:2710   */\n      0x00\n        /* \"#utility.yul\":2706:2707   */\n      dup1\n        /* \"#utility.yul\":2699:2711   */\n      revert\n        /* \"#utility.yul\":2658:2713   */\n    tag_257:\n        /* \"#utility.yul\":2774:2776   */\n      dup2\n        /* \"#utility.yul\":2767:2771   */\n      0x20\n        /* \"#utility.yul\":2759:2765   */\n      dup6\n        /* \"#utility.yul\":2755:2772   */\n      add\n        /* \"#utility.yul\":2748:2752   */\n      0x20\n        /* \"#utility.yul\":2739:2746   */\n      dup4\n        /* \"#utility.yul\":2735:2753   */\n      add\n        /* \"#utility.yul\":2722:2777   */\n      calldatacopy\n        /* \"#utility.yul\":2822:2823   */\n      0x00\n        /* \"#utility.yul\":2797:2813   */\n      swap2\n      dup2\n      add\n        /* \"#utility.yul\":2815:2819   */\n      0x20\n        /* \"#utility.yul\":2793:2820   */\n      add\n        /* \"#utility.yul\":2786:2824   */\n      swap2\n      swap1\n      swap2\n      mstore\n        /* \"#utility.yul\":2801:2808   */\n      swap4\n        /* \"#utility.yul\":2324:2855   */\n      swap3\n      pop\n      pop\n      pop\n      jump\t// out\n        /* \"#utility.yul\":2860:3182   */\n    tag_17:\n        /* \"#utility.yul\":2929:2935   */\n      0x00\n        /* \"#utility.yul\":2982:2984   */\n      0x20\n        /* \"#utility.yul\":2970:2979   */\n      dup3\n        /* \"#utility.yul\":2961:2968   */\n      dup5\n        /* \"#utility.yul\":2957:2980   */\n      sub\n        /* \"#utility.yul\":2953:2985   */\n      slt\n        /* \"#utility.yul\":2950:3002   */\n      iszero\n      tag_259\n      jumpi\n        /* \"#utility.yul\":2998:2999   */\n      0x00\n        /* \"#utility.yul\":2995:2996   */\n      dup1\n        /* \"#utility.yul\":2988:3000   */\n      revert\n        /* \"#utility.yul\":2950:3002   */\n    tag_259:\n        /* \"#utility.yul\":3038:3047   */\n      dup2\n        /* \"#utility.yul\":3025:3048   */\n      calldataload\n        /* \"#utility.yul\":3071:3089   */\n      0xffffffffffffffff\n        /* \"#utility.yul\":3063:3069   */\n      dup2\n        /* \"#utility.yul\":3060:3090   */\n      gt\n        /* \"#utility.yul\":3057:3107   */\n      iszero\n      tag_260\n      jumpi\n        /* \"#utility.yul\":3103:3104   */\n      0x00\n        /* \"#utility.yul\":3100:3101   */\n      dup1\n        /* \"#utility.yul\":3093:3105   */\n      revert\n        /* \"#utility.yul\":3057:3107   */\n    tag_260:\n        /* \"#utility.yul\":3126:3176   */\n      tag_239\n        /* \"#utility.yul\":3168:3175   */\n      dup5\n        /* \"#utility.yul\":3159:3165   */\n      dup3\n        /* \"#utility.yul\":3148:3157   */\n      dup6\n        /* \"#utility.yul\":3144:3166   */\n      add\n        /* \"#utility.yul\":3126:3176   */\n      tag_225\n      jump\t// in\n        /* \"#utility.yul\":3187:3369   */\n    tag_226:\n        /* \"#utility.yul\":3246:3250   */\n      0x00\n        /* \"#utility.yul\":3279:3297   */\n      0xffffffffffffffff\n        /* \"#utility.yul\":3271:3277   */\n      dup3\n        /* \"#utility.yul\":3268:3298   */\n      gt\n        /* \"#utility.yul\":3265:3321   */\n      iszero\n      tag_264\n      jumpi\n        /* \"#utility.yul\":3301:3319   */\n      tag_264\n      tag_43\n      jump\t// in\n    tag_264:\n      pop\n        /* \"#utility.yul\":3346:3347   */\n      0x05\n        /* \"#utility.yul\":3342:3356   */\n      shl\n        /* \"#utility.yul\":3358:3362   */\n      0x20\n        /* \"#utility.yul\":3338:3363   */\n      add\n      swap1\n        /* \"#utility.yul\":3187:3369   */\n      jump\t// out\n        /* \"#utility.yul\":3374:4506   */\n    tag_21:\n        /* \"#utility.yul\":3468:3474   */\n      0x00\n        /* \"#utility.yul\":3499:3501   */\n      0x20\n        /* \"#utility.yul\":3542:3544   */\n      dup1\n        /* \"#utility.yul\":3530:3539   */\n      dup4\n        /* \"#utility.yul\":3521:3528   */\n      dup6\n        /* \"#utility.yul\":3517:3540   */\n      sub\n        /* \"#utility.yul\":3513:3545   */\n      slt\n        /* \"#utility.yul\":3510:3562   */\n      iszero\n      tag_266\n      jumpi\n        /* \"#utility.yul\":3558:3559   */\n      0x00\n        /* \"#utility.yul\":3555:3556   */\n      dup1\n        /* \"#utility.yul\":3548:3560   */\n      revert\n        /* \"#utility.yul\":3510:3562   */\n    tag_266:\n        /* \"#utility.yul\":3598:3607   */\n      dup3\n        /* \"#utility.yul\":3585:3608   */\n      calldataload\n        /* \"#utility.yul\":3627:3645   */\n      0xffffffffffffffff\n        /* \"#utility.yul\":3668:3670   */\n      dup1\n        /* \"#utility.yul\":3660:3666   */\n      dup3\n        /* \"#utility.yul\":3657:3671   */\n      gt\n        /* \"#utility.yul\":3654:3688   */\n      iszero\n      tag_267\n      jumpi\n        /* \"#utility.yul\":3684:3685   */\n      0x00\n        /* \"#utility.yul\":3681:3682   */\n      dup1\n        /* \"#utility.yul\":3674:3686   */\n      revert\n        /* \"#utility.yul\":3654:3688   */\n    tag_267:\n        /* \"#utility.yul\":3722:3728   */\n      dup2\n        /* \"#utility.yul\":3711:3720   */\n      dup6\n        /* \"#utility.yul\":3707:3729   */\n      add\n        /* \"#utility.yul\":3697:3729   */\n      swap2\n      pop\n        /* \"#utility.yul\":3767:3774   */\n      dup6\n        /* \"#utility.yul\":3760:3764   */\n      0x1f\n        /* \"#utility.yul\":3756:3758   */\n      dup4\n        /* \"#utility.yul\":3752:3765   */\n      add\n        /* \"#utility.yul\":3748:3775   */\n      slt\n        /* \"#utility.yul\":3738:3793   */\n      tag_268\n      jumpi\n        /* \"#utility.yul\":3789:3790   */\n      0x00\n        /* \"#utility.yul\":3786:3787   */\n      dup1\n        /* \"#utility.yul\":3779:3791   */\n      revert\n        /* \"#utility.yul\":3738:3793   */\n    tag_268:\n        /* \"#utility.yul\":3825:3827   */\n      dup2\n        /* \"#utility.yul\":3812:3828   */\n      calldataload\n        /* \"#utility.yul\":3848:3907   */\n      tag_269\n        /* \"#utility.yul\":3864:3906   */\n      tag_270\n        /* \"#utility.yul\":3903:3905   */\n      dup3\n        /* \"#utility.yul\":3864:3906   */\n      tag_226\n      jump\t// in\n    tag_270:\n        /* \"#utility.yul\":3848:3907   */\n      tag_224\n      jump\t// in\n    tag_269:\n        /* \"#utility.yul\":3941:3956   */\n      dup2\n      dup2\n      mstore\n        /* \"#utility.yul\":4023:4024   */\n      0x05\n        /* \"#utility.yul\":4019:4029   */\n      swap2\n      swap1\n      swap2\n      shl\n        /* \"#utility.yul\":4011:4030   */\n      dup4\n      add\n        /* \"#utility.yul\":4007:4035   */\n      dup5\n      add\n      swap1\n        /* \"#utility.yul\":3972:3984   */\n      dup5\n      dup2\n      add\n      swap1\n        /* \"#utility.yul\":4047:4066   */\n      dup9\n      dup4\n      gt\n        /* \"#utility.yul\":4044:4083   */\n      iszero\n      tag_271\n      jumpi\n        /* \"#utility.yul\":4079:4080   */\n      0x00\n        /* \"#utility.yul\":4076:4077   */\n      dup1\n        /* \"#utility.yul\":4069:4081   */\n      revert\n        /* \"#utility.yul\":4044:4083   */\n    tag_271:\n        /* \"#utility.yul\":4111:4113   */\n      dup6\n        /* \"#utility.yul\":4107:4109   */\n      dup6\n        /* \"#utility.yul\":4103:4114   */\n      add\n        /* \"#utility.yul\":4123:4476   */\n    tag_272:\n        /* \"#utility.yul\":4139:4145   */\n      dup4\n        /* \"#utility.yul\":4134:4137   */\n      dup2\n        /* \"#utility.yul\":4131:4146   */\n      lt\n        /* \"#utility.yul\":4123:4476   */\n      iszero\n      tag_274\n      jumpi\n        /* \"#utility.yul\":4225:4228   */\n      dup1\n        /* \"#utility.yul\":4212:4229   */\n      calldataload\n        /* \"#utility.yul\":4261:4263   */\n      dup6\n        /* \"#utility.yul\":4248:4259   */\n      dup2\n        /* \"#utility.yul\":4245:4264   */\n      gt\n        /* \"#utility.yul\":4242:4351   */\n      iszero\n      tag_275\n      jumpi\n        /* \"#utility.yul\":4305:4306   */\n      0x00\n        /* \"#utility.yul\":4334:4336   */\n      dup1\n        /* \"#utility.yul\":4330:4332   */\n      dup2\n        /* \"#utility.yul\":4323:4337   */\n      revert\n        /* \"#utility.yul\":4242:4351   */\n    tag_275:\n        /* \"#utility.yul\":4376:4433   */\n      tag_276\n        /* \"#utility.yul\":4425:4432   */\n      dup12\n        /* \"#utility.yul\":4420:4422   */\n      dup10\n        /* \"#utility.yul\":4406:4417   */\n      dup4\n        /* \"#utility.yul\":4402:4404   */\n      dup11\n        /* \"#utility.yul\":4398:4418   */\n      add\n        /* \"#utility.yul\":4394:4423   */\n      add\n        /* \"#utility.yul\":4376:4433   */\n      tag_225\n      jump\t// in\n    tag_276:\n        /* \"#utility.yul\":4364:4434   */\n      dup5\n      mstore\n      pop\n        /* \"#utility.yul\":4454:4466   */\n      swap2\n      dup7\n      add\n      swap2\n        /* \"#utility.yul\":4156:4168   */\n      dup7\n      add\n        /* \"#utility.yul\":4123:4476   */\n      jump(tag_272)\n    tag_274:\n      pop\n        /* \"#utility.yul\":4495:4500   */\n      swap9\n        /* \"#utility.yul\":3374:4506   */\n      swap8\n      pop\n      pop\n      pop\n      pop\n      pop\n      pop\n      pop\n      pop\n      jump\t// out\n        /* \"#utility.yul\":4511:4754   */\n    tag_27:\n        /* \"#utility.yul\":4678:4680   */\n      0x20\n        /* \"#utility.yul\":4667:4676   */\n      dup2\n        /* \"#utility.yul\":4660:4681   */\n      mstore\n        /* \"#utility.yul\":4641:4645   */\n      0x00\n        /* \"#utility.yul\":4698:4748   */\n      tag_278\n        /* \"#utility.yul\":4744:4746   */\n      0x20\n        /* \"#utility.yul\":4733:4742   */\n      dup4\n        /* \"#utility.yul\":4729:4747   */\n      add\n        /* \"#utility.yul\":4721:4727   */\n      dup5\n        /* \"#utility.yul\":4698:4748   */\n      tag_222\n      jump\t// in\n    tag_278:\n        /* \"#utility.yul\":4690:4748   */\n      swap4\n        /* \"#utility.yul\":4511:4754   */\n      swap3\n      pop\n      pop\n      pop\n      jump\t// out\n        /* \"#utility.yul\":4759:5280   */\n    tag_227:\n        /* \"#utility.yul\":4810:4815   */\n      0x00\n        /* \"#utility.yul\":4858:4862   */\n      0x40\n        /* \"#utility.yul\":4846:4855   */\n      dup3\n        /* \"#utility.yul\":4841:4844   */\n      dup5\n        /* \"#utility.yul\":4837:4856   */\n      sub\n        /* \"#utility.yul\":4833:4863   */\n      slt\n        /* \"#utility.yul\":4830:4880   */\n      iszero\n      tag_280\n      jumpi\n        /* \"#utility.yul\":4876:4877   */\n      0x00\n        /* \"#utility.yul\":4873:4874   */\n      dup1\n        /* \"#utility.yul\":4866:4878   */\n      revert\n        /* \"#utility.yul\":4830:4880   */\n    tag_280:\n        /* \"#utility.yul\":4898:4920   */\n      tag_281\n      tag_223\n      jump\t// in\n    tag_281:\n        /* \"#utility.yul\":4889:4920   */\n      swap1\n      pop\n        /* \"#utility.yul\":4944:4967   */\n      dup2\n      calldataload\n      sub(shl(0xa0, 0x01), 0x01)\n        /* \"#utility.yul\":4998:5031   */\n      dup2\n      and\n        /* \"#utility.yul\":4986:5032   */\n      dup2\n      eq\n        /* \"#utility.yul\":4976:5050   */\n      tag_282\n      jumpi\n        /* \"#utility.yul\":5046:5047   */\n      0x00\n        /* \"#utility.yul\":5043:5044   */\n      dup1\n        /* \"#utility.yul\":5036:5048   */\n      revert\n        /* \"#utility.yul\":4976:5050   */\n    tag_282:\n        /* \"#utility.yul\":5059:5081   */\n      dup2\n      mstore\n        /* \"#utility.yul\":5132:5134   */\n      0x20\n        /* \"#utility.yul\":5117:5135   */\n      dup3\n      add\n        /* \"#utility.yul\":5104:5136   */\n      calldataload\n        /* \"#utility.yul\":5159:5177   */\n      0xffffffffffffffff\n        /* \"#utility.yul\":5148:5178   */\n      dup2\n      gt\n        /* \"#utility.yul\":5145:5195   */\n      iszero\n      tag_283\n      jumpi\n        /* \"#utility.yul\":5191:5192   */\n      0x00\n        /* \"#utility.yul\":5188:5189   */\n      dup1\n        /* \"#utility.yul\":5181:5193   */\n      revert\n        /* \"#utility.yul\":5145:5195   */\n    tag_283:\n        /* \"#utility.yul\":5227:5273   */\n      tag_284\n        /* \"#utility.yul\":5269:5272   */\n      dup5\n        /* \"#utility.yul\":5260:5266   */\n      dup3\n        /* \"#utility.yul\":5249:5258   */\n      dup6\n        /* \"#utility.yul\":5245:5267   */\n      add\n        /* \"#utility.yul\":5227:5273   */\n      tag_225\n      jump\t// in\n    tag_284:\n        /* \"#utility.yul\":5222:5224   */\n      0x20\n        /* \"#utility.yul\":5215:5220   */\n      dup4\n        /* \"#utility.yul\":5211:5225   */\n      add\n        /* \"#utility.yul\":5204:5274   */\n      mstore\n      pop\n        /* \"#utility.yul\":4759:5280   */\n      swap3\n      swap2\n      pop\n      pop\n      jump\t// out\n        /* \"#utility.yul\":5285:7165   */\n    tag_30:\n        /* \"#utility.yul\":5392:5398   */\n      0x00\n        /* \"#utility.yul\":5423:5425   */\n      0x20\n        /* \"#utility.yul\":5466:5468   */\n      dup1\n        /* \"#utility.yul\":5454:5463   */\n      dup4\n        /* \"#utility.yul\":5445:5452   */\n      dup6\n        /* \"#utility.yul\":5441:5464   */\n      sub\n        /* \"#utility.yul\":5437:5469   */\n      slt\n        /* \"#utility.yul\":5434:5486   */\n      iszero\n      tag_286\n      jumpi\n        /* \"#utility.yul\":5482:5483   */\n      0x00\n        /* \"#utility.yul\":5479:5480   */\n      dup1\n        /* \"#utility.yul\":5472:5484   */\n      revert\n        /* \"#utility.yul\":5434:5486   */\n    tag_286:\n        /* \"#utility.yul\":5522:5531   */\n      dup3\n        /* \"#utility.yul\":5509:5532   */\n      calldataload\n        /* \"#utility.yul\":5551:5569   */\n      0xffffffffffffffff\n        /* \"#utility.yul\":5592:5594   */\n      dup1\n        /* \"#utility.yul\":5584:5590   */\n      dup3\n        /* \"#utility.yul\":5581:5595   */\n      gt\n        /* \"#utility.yul\":5578:5612   */\n      iszero\n      tag_287\n      jumpi\n        /* \"#utility.yul\":5608:5609   */\n      0x00\n        /* \"#utility.yul\":5605:5606   */\n      dup1\n        /* \"#utility.yul\":5598:5610   */\n      revert\n        /* \"#utility.yul\":5578:5612   */\n    tag_287:\n        /* \"#utility.yul\":5646:5652   */\n      dup2\n        /* \"#utility.yul\":5635:5644   */\n      dup6\n        /* \"#utility.yul\":5631:5653   */\n      add\n        /* \"#utility.yul\":5621:5653   */\n      swap2\n      pop\n        /* \"#utility.yul\":5691:5698   */\n      dup6\n        /* \"#utility.yul\":5684:5688   */\n      0x1f\n        /* \"#utility.yul\":5680:5682   */\n      dup4\n        /* \"#utility.yul\":5676:5689   */\n      add\n        /* \"#utility.yul\":5672:5699   */\n      slt\n        /* \"#utility.yul\":5662:5717   */\n      tag_288\n      jumpi\n        /* \"#utility.yul\":5713:5714   */\n      0x00\n        /* \"#utility.yul\":5710:5711   */\n      dup1\n        /* \"#utility.yul\":5703:5715   */\n      revert\n        /* \"#utility.yul\":5662:5717   */\n    tag_288:\n        /* \"#utility.yul\":5749:5751   */\n      dup2\n        /* \"#utility.yul\":5736:5752   */\n      calldataload\n        /* \"#utility.yul\":5772:5831   */\n      tag_289\n        /* \"#utility.yul\":5788:5830   */\n      tag_270\n        /* \"#utility.yul\":5827:5829   */\n      dup3\n        /* \"#utility.yul\":5788:5830   */\n      tag_226\n      jump\t// in\n        /* \"#utility.yul\":5772:5831   */\n    tag_289:\n        /* \"#utility.yul\":5865:5880   */\n      dup2\n      dup2\n      mstore\n        /* \"#utility.yul\":5947:5948   */\n      0x05\n        /* \"#utility.yul\":5943:5953   */\n      swap2\n      swap1\n      swap2\n      shl\n        /* \"#utility.yul\":5935:5954   */\n      dup4\n      add\n        /* \"#utility.yul\":5931:5959   */\n      dup5\n      add\n      swap1\n        /* \"#utility.yul\":5896:5908   */\n      dup5\n      dup2\n      add\n      swap1\n        /* \"#utility.yul\":5971:5990   */\n      dup9\n      dup4\n      gt\n        /* \"#utility.yul\":5968:6007   */\n      iszero\n      tag_291\n      jumpi\n        /* \"#utility.yul\":6003:6004   */\n      0x00\n        /* \"#utility.yul\":6000:6001   */\n      dup1\n        /* \"#utility.yul\":5993:6005   */\n      revert\n        /* \"#utility.yul\":5968:6007   */\n    tag_291:\n        /* \"#utility.yul\":6035:6037   */\n      dup6\n        /* \"#utility.yul\":6031:6033   */\n      dup6\n        /* \"#utility.yul\":6027:6038   */\n      add\n        /* \"#utility.yul\":6047:7135   */\n    tag_292:\n        /* \"#utility.yul\":6063:6069   */\n      dup4\n        /* \"#utility.yul\":6058:6061   */\n      dup2\n        /* \"#utility.yul\":6055:6070   */\n      lt\n        /* \"#utility.yul\":6047:7135   */\n      iszero\n      tag_274\n      jumpi\n        /* \"#utility.yul\":6149:6152   */\n      dup1\n        /* \"#utility.yul\":6136:6153   */\n      calldataload\n        /* \"#utility.yul\":6185:6187   */\n      dup6\n        /* \"#utility.yul\":6172:6183   */\n      dup2\n        /* \"#utility.yul\":6169:6188   */\n      gt\n        /* \"#utility.yul\":6166:6275   */\n      iszero\n      tag_295\n      jumpi\n        /* \"#utility.yul\":6229:6230   */\n      0x00\n        /* \"#utility.yul\":6258:6260   */\n      dup1\n        /* \"#utility.yul\":6254:6256   */\n      dup2\n        /* \"#utility.yul\":6247:6261   */\n      revert\n        /* \"#utility.yul\":6166:6275   */\n    tag_295:\n        /* \"#utility.yul\":6298:6318   */\n      dup7\n      add\n        /* \"#utility.yul\":6341:6345   */\n      0x40\n        /* \"#utility.yul\":6369:6385   */\n      dup2\n      dup13\n      sub\n      not(0x1f)\n        /* \"#utility.yul\":6365:6395   */\n      add\n        /* \"#utility.yul\":6361:6400   */\n      dup2\n      sgt\n        /* \"#utility.yul\":6358:6487   */\n      iszero\n      tag_296\n      jumpi\n        /* \"#utility.yul\":6441:6442   */\n      0x00\n        /* \"#utility.yul\":6470:6472   */\n      dup1\n        /* \"#utility.yul\":6466:6468   */\n      dup2\n        /* \"#utility.yul\":6459:6473   */\n      revert\n        /* \"#utility.yul\":6358:6487   */\n    tag_296:\n        /* \"#utility.yul\":6513:6535   */\n      tag_297\n      tag_223\n      jump\t// in\n    tag_297:\n        /* \"#utility.yul\":6585:6587   */\n      dup10\n        /* \"#utility.yul\":6581:6583   */\n      dup4\n        /* \"#utility.yul\":6577:6588   */\n      add\n        /* \"#utility.yul\":6564:6589   */\n      calldataload\n        /* \"#utility.yul\":6618:6620   */\n      dup9\n        /* \"#utility.yul\":6608:6616   */\n      dup2\n        /* \"#utility.yul\":6605:6621   */\n      gt\n        /* \"#utility.yul\":6602:6708   */\n      iszero\n      tag_298\n      jumpi\n        /* \"#utility.yul\":6662:6663   */\n      0x00\n        /* \"#utility.yul\":6691:6693   */\n      dup1\n        /* \"#utility.yul\":6687:6689   */\n      dup2\n        /* \"#utility.yul\":6680:6694   */\n      revert\n        /* \"#utility.yul\":6602:6708   */\n    tag_298:\n        /* \"#utility.yul\":6735:6789   */\n      tag_299\n        /* \"#utility.yul\":6781:6788   */\n      dup15\n        /* \"#utility.yul\":6776:6778   */\n      dup13\n        /* \"#utility.yul\":6765:6773   */\n      dup4\n        /* \"#utility.yul\":6761:6763   */\n      dup8\n        /* \"#utility.yul\":6757:6774   */\n      add\n        /* \"#utility.yul\":6753:6779   */\n      add\n        /* \"#utility.yul\":6735:6789   */\n      tag_225\n      jump\t// in\n    tag_299:\n        /* \"#utility.yul\":6721:6790   */\n      dup3\n      mstore\n      pop\n        /* \"#utility.yul\":6832:6843   */\n      swap1\n      dup3\n      add\n        /* \"#utility.yul\":6819:6844   */\n      calldataload\n      swap1\n        /* \"#utility.yul\":6860:6876   */\n      dup8\n      dup3\n      gt\n        /* \"#utility.yul\":6857:6966   */\n      iszero\n      tag_300\n      jumpi\n        /* \"#utility.yul\":6918:6919   */\n      0x00\n        /* \"#utility.yul\":6948:6951   */\n      dup1\n        /* \"#utility.yul\":6943:6946   */\n      dup2\n        /* \"#utility.yul\":6936:6952   */\n      revert\n        /* \"#utility.yul\":6857:6966   */\n    tag_300:\n        /* \"#utility.yul\":7002:7061   */\n      tag_301\n        /* \"#utility.yul\":7053:7060   */\n      dup14\n        /* \"#utility.yul\":7048:7050   */\n      dup12\n        /* \"#utility.yul\":7037:7045   */\n      dup5\n        /* \"#utility.yul\":7033:7035   */\n      dup7\n        /* \"#utility.yul\":7029:7046   */\n      add\n        /* \"#utility.yul\":7025:7051   */\n      add\n        /* \"#utility.yul\":7002:7061   */\n      tag_227\n      jump\t// in\n    tag_301:\n        /* \"#utility.yul\":6986:7000   */\n      dup2\n      dup12\n      add\n        /* \"#utility.yul\":6979:7062   */\n      mstore\n        /* \"#utility.yul\":7075:7093   */\n      dup6\n      mstore\n      pop\n      pop\n        /* \"#utility.yul\":7113:7125   */\n      swap2\n      dup7\n      add\n      swap2\n        /* \"#utility.yul\":6080:6092   */\n      dup7\n      add\n        /* \"#utility.yul\":6047:7135   */\n      jump(tag_292)\n        /* \"#utility.yul\":7170:7973   */\n    tag_35:\n        /* \"#utility.yul\":7332:7336   */\n      0x00\n        /* \"#utility.yul\":7361:7363   */\n      0x20\n        /* \"#utility.yul\":7401:7403   */\n      dup1\n        /* \"#utility.yul\":7390:7399   */\n      dup4\n        /* \"#utility.yul\":7386:7404   */\n      add\n        /* \"#utility.yul\":7431:7433   */\n      dup2\n        /* \"#utility.yul\":7420:7429   */\n      dup5\n        /* \"#utility.yul\":7413:7434   */\n      mstore\n        /* \"#utility.yul\":7454:7460   */\n      dup1\n        /* \"#utility.yul\":7489:7495   */\n      dup6\n        /* \"#utility.yul\":7483:7496   */\n      mload\n        /* \"#utility.yul\":7520:7526   */\n      dup1\n        /* \"#utility.yul\":7512:7518   */\n      dup4\n        /* \"#utility.yul\":7505:7527   */\n      mstore\n        /* \"#utility.yul\":7558:7560   */\n      0x40\n        /* \"#utility.yul\":7547:7556   */\n      dup7\n        /* \"#utility.yul\":7543:7561   */\n      add\n        /* \"#utility.yul\":7536:7561   */\n      swap2\n      pop\n        /* \"#utility.yul\":7620:7622   */\n      0x40\n        /* \"#utility.yul\":7610:7616   */\n      dup2\n        /* \"#utility.yul\":7607:7608   */\n      0x05\n        /* \"#utility.yul\":7603:7617   */\n      shl\n        /* \"#utility.yul\":7592:7601   */\n      dup8\n        /* \"#utility.yul\":7588:7618   */\n      add\n        /* \"#utility.yul\":7584:7623   */\n      add\n        /* \"#utility.yul\":7570:7623   */\n      swap3\n      pop\n        /* \"#utility.yul\":7658:7660   */\n      dup4\n        /* \"#utility.yul\":7650:7656   */\n      dup8\n        /* \"#utility.yul\":7646:7661   */\n      add\n        /* \"#utility.yul\":7679:7680   */\n      0x00\n        /* \"#utility.yul\":7689:7944   */\n    tag_303:\n        /* \"#utility.yul\":7703:7709   */\n      dup3\n        /* \"#utility.yul\":7700:7701   */\n      dup2\n        /* \"#utility.yul\":7697:7710   */\n      lt\n        /* \"#utility.yul\":7689:7944   */\n      iszero\n      tag_243\n      jumpi\n        /* \"#utility.yul\":7796:7798   */\n      0x3f\n        /* \"#utility.yul\":7792:7799   */\n      not\n        /* \"#utility.yul\":7780:7789   */\n      dup9\n        /* \"#utility.yul\":7772:7778   */\n      dup7\n        /* \"#utility.yul\":7768:7790   */\n      sub\n        /* \"#utility.yul\":7764:7800   */\n      add\n        /* \"#utility.yul\":7759:7762   */\n      dup5\n        /* \"#utility.yul\":7752:7801   */\n      mstore\n        /* \"#utility.yul\":7824:7864   */\n      tag_306\n        /* \"#utility.yul\":7857:7863   */\n      dup6\n        /* \"#utility.yul\":7848:7854   */\n      dup4\n        /* \"#utility.yul\":7842:7855   */\n      mload\n        /* \"#utility.yul\":7824:7864   */\n      tag_221\n      jump\t// in\n    tag_306:\n        /* \"#utility.yul\":7814:7864   */\n      swap5\n      pop\n        /* \"#utility.yul\":7922:7934   */\n      swap3\n      dup6\n      add\n      swap3\n        /* \"#utility.yul\":7887:7902   */\n      swap1\n      dup6\n      add\n      swap1\n        /* \"#utility.yul\":7725:7726   */\n      0x01\n        /* \"#utility.yul\":7718:7727   */\n      add\n        /* \"#utility.yul\":7689:7944   */\n      jump(tag_303)\n        /* \"#utility.yul\":7978:8535   */\n    tag_38:\n        /* \"#utility.yul\":8075:8081   */\n      0x00\n        /* \"#utility.yul\":8083:8089   */\n      dup1\n        /* \"#utility.yul\":8136:8138   */\n      0x40\n        /* \"#utility.yul\":8124:8133   */\n      dup4\n        /* \"#utility.yul\":8115:8122   */\n      dup6\n        /* \"#utility.yul\":8111:8134   */\n      sub\n        /* \"#utility.yul\":8107:8139   */\n      slt\n        /* \"#utility.yul\":8104:8156   */\n      iszero\n      tag_308\n      jumpi\n        /* \"#utility.yul\":8152:8153   */\n      0x00\n        /* \"#utility.yul\":8149:8150   */\n      dup1\n        /* \"#utility.yul\":8142:8154   */\n      revert\n        /* \"#utility.yul\":8104:8156   */\n    tag_308:\n        /* \"#utility.yul\":8192:8201   */\n      dup3\n        /* \"#utility.yul\":8179:8202   */\n      calldataload\n        /* \"#utility.yul\":8221:8239   */\n      0xffffffffffffffff\n        /* \"#utility.yul\":8262:8264   */\n      dup1\n        /* \"#utility.yul\":8254:8260   */\n      dup3\n        /* \"#utility.yul\":8251:8265   */\n      gt\n        /* \"#utility.yul\":8248:8282   */\n      iszero\n      tag_309\n      jumpi\n        /* \"#utility.yul\":8278:8279   */\n      0x00\n        /* \"#utility.yul\":8275:8276   */\n      dup1\n        /* \"#utility.yul\":8268:8280   */\n      revert\n        /* \"#utility.yul\":8248:8282   */\n    tag_309:\n        /* \"#utility.yul\":8301:8351   */\n      tag_310\n        /* \"#utility.yul\":8343:8350   */\n      dup7\n        /* \"#utility.yul\":8334:8340   */\n      dup4\n        /* \"#utility.yul\":8323:8332   */\n      dup8\n        /* \"#utility.yul\":8319:8341   */\n      add\n        /* \"#utility.yul\":8301:8351   */\n      tag_225\n      jump\t// in\n    tag_310:\n        /* \"#utility.yul\":8291:8351   */\n      swap4\n      pop\n        /* \"#utility.yul\":8404:8406   */\n      0x20\n        /* \"#utility.yul\":8393:8402   */\n      dup6\n        /* \"#utility.yul\":8389:8407   */\n      add\n        /* \"#utility.yul\":8376:8408   */\n      calldataload\n        /* \"#utility.yul\":8360:8408   */\n      swap2\n      pop\n        /* \"#utility.yul\":8433:8435   */\n      dup1\n        /* \"#utility.yul\":8423:8431   */\n      dup3\n        /* \"#utility.yul\":8420:8436   */\n      gt\n        /* \"#utility.yul\":8417:8453   */\n      iszero\n      tag_311\n      jumpi\n        /* \"#utility.yul\":8449:8450   */\n      0x00\n        /* \"#utility.yul\":8446:8447   */\n      dup1\n        /* \"#utility.yul\":8439:8451   */\n      revert\n        /* \"#utility.yul\":8417:8453   */\n    tag_311:\n      pop\n        /* \"#utility.yul\":8472:8529   */\n      tag_312\n        /* \"#utility.yul\":8521:8528   */\n      dup6\n        /* \"#utility.yul\":8510:8518   */\n      dup3\n        /* \"#utility.yul\":8499:8508   */\n      dup7\n        /* \"#utility.yul\":8495:8519   */\n      add\n        /* \"#utility.yul\":8472:8529   */\n      tag_227\n      jump\t// in\n    tag_312:\n        /* \"#utility.yul\":8462:8529   */\n      swap2\n      pop\n      pop\n        /* \"#utility.yul\":7978:8535   */\n      swap3\n      pop\n      swap3\n      swap1\n      pop\n      jump\t// out\n        /* \"#utility.yul\":8540:8667   */\n    tag_54:\n        /* \"#utility.yul\":8601:8611   */\n      0x4e487b71\n        /* \"#utility.yul\":8596:8599   */\n      0xe0\n        /* \"#utility.yul\":8592:8612   */\n      shl\n        /* \"#utility.yul\":8589:8590   */\n      0x00\n        /* \"#utility.yul\":8582:8613   */\n      mstore\n        /* \"#utility.yul\":8632:8636   */\n      0x32\n        /* \"#utility.yul\":8629:8630   */\n      0x04\n        /* \"#utility.yul\":8622:8637   */\n      mstore\n        /* \"#utility.yul\":8656:8660   */\n      0x24\n        /* \"#utility.yul\":8653:8654   */\n      0x00\n        /* \"#utility.yul\":8646:8661   */\n      revert\n        /* \"#utility.yul\":8672:9052   */\n    tag_57:\n        /* \"#utility.yul\":8751:8752   */\n      0x01\n        /* \"#utility.yul\":8747:8759   */\n      dup2\n      dup2\n      shr\n      swap1\n        /* \"#utility.yul\":8794:8806   */\n      dup3\n      and\n      dup1\n        /* \"#utility.yul\":8815:8876   */\n      tag_315\n      jumpi\n        /* \"#utility.yul\":8869:8873   */\n      0x7f\n        /* \"#utility.yul\":8861:8867   */\n      dup3\n        /* \"#utility.yul\":8857:8874   */\n      and\n        /* \"#utility.yul\":8847:8874   */\n      swap2\n      pop\n        /* \"#utility.yul\":8815:8876   */\n    tag_315:\n        /* \"#utility.yul\":8922:8924   */\n      0x20\n        /* \"#utility.yul\":8914:8920   */\n      dup3\n        /* \"#utility.yul\":8911:8925   */\n      lt\n        /* \"#utility.yul\":8891:8909   */\n      dup2\n        /* \"#utility.yul\":8888:8926   */\n      eq\n        /* \"#utility.yul\":8885:9046   */\n      iszero\n      tag_49\n      jumpi\n        /* \"#utility.yul\":8968:8978   */\n      0x4e487b71\n        /* \"#utility.yul\":8963:8966   */\n      0xe0\n        /* \"#utility.yul\":8959:8979   */\n      shl\n        /* \"#utility.yul\":8956:8957   */\n      0x00\n        /* \"#utility.yul\":8949:8980   */\n      mstore\n        /* \"#utility.yul\":9003:9007   */\n      0x22\n        /* \"#utility.yul\":9000:9001   */\n      0x04\n        /* \"#utility.yul\":8993:9008   */\n      mstore\n        /* \"#utility.yul\":9031:9035   */\n      0x24\n        /* \"#utility.yul\":9028:9029   */\n      0x00\n        /* \"#utility.yul\":9021:9036   */\n      revert\n        /* \"#utility.yul\":9057:9184   */\n    tag_228:\n        /* \"#utility.yul\":9118:9128   */\n      0x4e487b71\n        /* \"#utility.yul\":9113:9116   */\n      0xe0\n        /* \"#utility.yul\":9109:9129   */\n      shl\n        /* \"#utility.yul\":9106:9107   */\n      0x00\n        /* \"#utility.yul\":9099:9130   */\n      mstore\n        /* \"#utility.yul\":9149:9153   */\n      0x11\n        /* \"#utility.yul\":9146:9147   */\n      0x04\n        /* \"#utility.yul\":9139:9154   */\n      mstore\n        /* \"#utility.yul\":9173:9177   */\n      0x24\n        /* \"#utility.yul\":9170:9171   */\n      0x00\n        /* \"#utility.yul\":9163:9178   */\n      revert\n        /* \"#utility.yul\":9189:9324   */\n    tag_66:\n        /* \"#utility.yul\":9228:9231   */\n      0x00\n      not(0x00)\n        /* \"#utility.yul\":9249:9266   */\n      dup3\n      eq\n        /* \"#utility.yul\":9246:9289   */\n      iszero\n      tag_320\n      jumpi\n        /* \"#utility.yul\":9269:9287   */\n      tag_320\n      tag_228\n      jump\t// in\n    tag_320:\n      pop\n        /* \"#utility.yul\":9316:9317   */\n      0x01\n        /* \"#utility.yul\":9305:9318   */\n      add\n      swap1\n        /* \"#utility.yul\":9189:9324   */\n      jump\t// out\n        /* \"#utility.yul\":9999:10330   */\n    tag_113:\n        /* \"#utility.yul\":10201:10203   */\n      0x20\n        /* \"#utility.yul\":10183:10204   */\n      dup1\n      dup3\n      mstore\n        /* \"#utility.yul\":10240:10241   */\n      0x08\n        /* \"#utility.yul\":10220:10238   */\n      swap1\n      dup3\n      add\n        /* \"#utility.yul\":10213:10242   */\n      mstore\n      shl(0xc0, 0x4e4f5f56414c5545)\n        /* \"#utility.yul\":10273:10275   */\n      0x40\n        /* \"#utility.yul\":10258:10276   */\n      dup3\n      add\n        /* \"#utility.yul\":10251:10289   */\n      mstore\n        /* \"#utility.yul\":10321:10323   */\n      0x60\n        /* \"#utility.yul\":10306:10324   */\n      add\n      swap1\n        /* \"#utility.yul\":9999:10330   */\n      jump\t// out\n        /* \"#utility.yul\":10335:10611   */\n    tag_116:\n        /* \"#utility.yul\":10466:10469   */\n      0x00\n        /* \"#utility.yul\":10504:10510   */\n      dup3\n        /* \"#utility.yul\":10498:10511   */\n      mload\n        /* \"#utility.yul\":10520:10573   */\n      tag_325\n        /* \"#utility.yul\":10566:10572   */\n      dup2\n        /* \"#utility.yul\":10561:10564   */\n      dup5\n        /* \"#utility.yul\":10554:10558   */\n      0x20\n        /* \"#utility.yul\":10546:10552   */\n      dup8\n        /* \"#utility.yul\":10542:10559   */\n      add\n        /* \"#utility.yul\":10520:10573   */\n      tag_220\n      jump\t// in\n    tag_325:\n        /* \"#utility.yul\":10589:10605   */\n      swap2\n      swap1\n      swap2\n      add\n      swap3\n        /* \"#utility.yul\":10335:10611   */\n      swap2\n      pop\n      pop\n      jump\t// out\n        /* \"#utility.yul\":11415:12514   */\n    tag_146:\n        /* \"#utility.yul\":11543:11546   */\n      0x00\n        /* \"#utility.yul\":11572:11573   */\n      dup1\n        /* \"#utility.yul\":11605:11611   */\n      dup4\n        /* \"#utility.yul\":11599:11612   */\n      sload\n        /* \"#utility.yul\":11635:11638   */\n      dup2\n        /* \"#utility.yul\":11657:11658   */\n      0x01\n        /* \"#utility.yul\":11685:11694   */\n      dup3\n        /* \"#utility.yul\":11681:11683   */\n      dup2\n        /* \"#utility.yul\":11677:11695   */\n      shr\n        /* \"#utility.yul\":11667:11695   */\n      swap2\n      pop\n        /* \"#utility.yul\":11745:11747   */\n      dup1\n        /* \"#utility.yul\":11734:11743   */\n      dup4\n        /* \"#utility.yul\":11730:11748   */\n      and\n        /* \"#utility.yul\":11767:11785   */\n      dup1\n        /* \"#utility.yul\":11757:11818   */\n      tag_330\n      jumpi\n        /* \"#utility.yul\":11811:11815   */\n      0x7f\n        /* \"#utility.yul\":11803:11809   */\n      dup4\n        /* \"#utility.yul\":11799:11816   */\n      and\n        /* \"#utility.yul\":11789:11816   */\n      swap3\n      pop\n        /* \"#utility.yul\":11757:11818   */\n    tag_330:\n        /* \"#utility.yul\":11837:11839   */\n      0x20\n        /* \"#utility.yul\":11885:11887   */\n      dup1\n        /* \"#utility.yul\":11877:11883   */\n      dup5\n        /* \"#utility.yul\":11874:11888   */\n      lt\n        /* \"#utility.yul\":11854:11872   */\n      dup3\n        /* \"#utility.yul\":11851:11889   */\n      eq\n        /* \"#utility.yul\":11848:12013   */\n      iszero\n      tag_331\n      jumpi\n      shl(0xe0, 0x4e487b71)\n        /* \"#utility.yul\":11912:11945   */\n      dup7\n      mstore\n        /* \"#utility.yul\":11968:11972   */\n      0x22\n        /* \"#utility.yul\":11965:11966   */\n      0x04\n        /* \"#utility.yul\":11958:11973   */\n      mstore\n        /* \"#utility.yul\":11998:12002   */\n      0x24\n        /* \"#utility.yul\":11919:11922   */\n      dup7\n        /* \"#utility.yul\":11986:12003   */\n      revert\n        /* \"#utility.yul\":11848:12013   */\n    tag_331:\n        /* \"#utility.yul\":12029:12047   */\n      dup2\n        /* \"#utility.yul\":12056:12160   */\n      dup1\n      iszero\n      tag_333\n      jumpi\n        /* \"#utility.yul\":12174:12175   */\n      0x01\n        /* \"#utility.yul\":12169:12489   */\n      dup2\n      eq\n      tag_334\n      jumpi\n        /* \"#utility.yul\":12022:12489   */\n      jump(tag_332)\n        /* \"#utility.yul\":12056:12160   */\n    tag_333:\n      not(0xff)\n        /* \"#utility.yul\":12089:12113   */\n      dup7\n      and\n        /* \"#utility.yul\":12077:12114   */\n      dup10\n      mstore\n        /* \"#utility.yul\":12134:12150   */\n      dup5\n      dup10\n      add\n      swap7\n      pop\n        /* \"#utility.yul\":12056:12160   */\n      jump(tag_332)\n        /* \"#utility.yul\":12169:12489   */\n    tag_334:\n        /* \"#utility.yul\":11362:11363   */\n      0x00\n        /* \"#utility.yul\":11355:11369   */\n      dup11\n      dup2\n      mstore\n        /* \"#utility.yul\":11399:11403   */\n      0x20\n        /* \"#utility.yul\":11386:11404   */\n      swap1\n      keccak256\n        /* \"#utility.yul\":12264:12265   */\n      0x00\n        /* \"#utility.yul\":12278:12443   */\n    tag_336:\n        /* \"#utility.yul\":12292:12298   */\n      dup7\n        /* \"#utility.yul\":12289:12290   */\n      dup2\n        /* \"#utility.yul\":12286:12299   */\n      lt\n        /* \"#utility.yul\":12278:12443   */\n      iszero\n      tag_338\n      jumpi\n        /* \"#utility.yul\":12370:12384   */\n      dup2\n      sload\n        /* \"#utility.yul\":12357:12368   */\n      dup12\n      dup3\n      add\n        /* \"#utility.yul\":12350:12385   */\n      mstore\n        /* \"#utility.yul\":12413:12429   */\n      swap1\n      dup6\n      add\n      swap1\n        /* \"#utility.yul\":12307:12317   */\n      dup4\n      add\n        /* \"#utility.yul\":12278:12443   */\n      jump(tag_336)\n    tag_338:\n        /* \"#utility.yul\":12282:12285   */\n      pop\n      pop\n        /* \"#utility.yul\":12472:12478   */\n      dup5\n        /* \"#utility.yul\":12467:12470   */\n      dup10\n        /* \"#utility.yul\":12463:12479   */\n      add\n        /* \"#utility.yul\":12456:12479   */\n      swap7\n      pop\n        /* \"#utility.yul\":12022:12489   */\n    tag_332:\n      pop\n        /* \"#utility.yul\":12505:12508   */\n      swap5\n      swap9\n        /* \"#utility.yul\":11415:12514   */\n      swap8\n      pop\n      pop\n      pop\n      pop\n      pop\n      pop\n      pop\n      pop\n      jump\t// out\n        /* \"#utility.yul\":12519:12646   */\n    tag_150:\n        /* \"#utility.yul\":12580:12590   */\n      0x4e487b71\n        /* \"#utility.yul\":12575:12578   */\n      0xe0\n        /* \"#utility.yul\":12571:12591   */\n      shl\n        /* \"#utility.yul\":12568:12569   */\n      0x00\n        /* \"#utility.yul\":12561:12592   */\n      mstore\n        /* \"#utility.yul\":12611:12615   */\n      0x31\n        /* \"#utility.yul\":12608:12609   */\n      0x04\n        /* \"#utility.yul\":12601:12616   */\n      mstore\n        /* \"#utility.yul\":12635:12639   */\n      0x24\n        /* \"#utility.yul\":12632:12633   */\n      0x00\n        /* \"#utility.yul\":12625:12640   */\n      revert\n        /* \"#utility.yul\":12651:12776   */\n    tag_158:\n        /* \"#utility.yul\":12691:12695   */\n      0x00\n        /* \"#utility.yul\":12719:12720   */\n      dup3\n        /* \"#utility.yul\":12716:12717   */\n      dup3\n        /* \"#utility.yul\":12713:12721   */\n      lt\n        /* \"#utility.yul\":12710:12744   */\n      iszero\n      tag_342\n      jumpi\n        /* \"#utility.yul\":12724:12742   */\n      tag_342\n      tag_228\n      jump\t// in\n    tag_342:\n      pop\n        /* \"#utility.yul\":12761:12770   */\n      sub\n      swap1\n        /* \"#utility.yul\":12651:12776   */\n      jump\t// out\n        /* \"#utility.yul\":12781:12909   */\n    tag_167:\n        /* \"#utility.yul\":12821:12824   */\n      0x00\n        /* \"#utility.yul\":12852:12853   */\n      dup3\n        /* \"#utility.yul\":12848:12854   */\n      not\n        /* \"#utility.yul\":12845:12846   */\n      dup3\n        /* \"#utility.yul\":12842:12855   */\n      gt\n        /* \"#utility.yul\":12839:12878   */\n      iszero\n      tag_345\n      jumpi\n        /* \"#utility.yul\":12858:12876   */\n      tag_345\n      tag_228\n      jump\t// in\n    tag_345:\n      pop\n        /* \"#utility.yul\":12894:12903   */\n      add\n      swap1\n        /* \"#utility.yul\":12781:12909   */\n      jump\t// out\n\n    auxdata: 0xa264697066735822122014b64f9b0a1367db6c03105e01d53b7ffefe6d1ee92ef5c4fd62e5bfe33752f464736f6c634300080c0033\n}\n",
				"bytecode": {
					"linkReferences": {},
					"object": "608060405234801561001057600080fd5b506112c3806100206000396000f3fe608060405234801561001057600080fd5b506004361061007d5760003560e01c8063ae55c8881161005b578063ae55c888146100c8578063be05133c146100e8578063cb965ae9146100fb578063f14805c31461011057600080fd5b806311d881b11461008257806328ce8638146100a0578063ac193f1a146100b5575b600080fd5b61008a610123565b6040516100979190610c68565b60405180910390f35b6100b36100ae366004610daa565b61027e565b005b6100b36100c3366004610e03565b61028a565b6100db6100d6366004610daa565b61030e565b6040516100979190610eb9565b6100b36100f6366004610f3a565b610332565b6101036103cf565b6040516100979190611039565b6100b361011e36600461108e565b6104a8565b60015460609060009067ffffffffffffffff81111561014457610144610cca565b60405190808252806020026020018201604052801561018a57816020015b6040805180820190915260008152606060208201528152602001906001900390816101625790505b50905060005b60015481101561027857610248600182815481106101b0576101b06110f2565b9060005260206000200180546101c590611108565b80601f01602080910402602001604051908101604052809291908181526020018280546101f190611108565b801561023e5780601f106102135761010080835404028352916020019161023e565b820191906000526020600020905b81548152906001019060200180831161022157829003601f168201915b50505050506104b2565b82828151811061025a5761025a6110f2565b6020026020010181905250808061027090611153565b915050610190565b50919050565b610287816105d9565b50565b60008151116102ca5760405162461bcd60e51b81526020600482015260076024820152664e4f5f4b45595360c81b60448201526064015b60405180910390fd5b60005b815181101561030a576102f88282815181106102eb576102eb6110f2565b60200260200101516105d9565b8061030281611153565b9150506102cd565b5050565b60408051808201909152600081526060602082015261032c826104b2565b92915050565b600081511161036d5760405162461bcd60e51b81526020600482015260076024820152664e4f5f4441544160c81b60448201526064016102c1565b60005b815181101561030a576103bd82828151811061038e5761038e6110f2565b6020026020010151600001518383815181106103ac576103ac6110f2565b602002602001015160200151610909565b806103c781611153565b915050610370565b60606001805480602002602001604051908101604052809291908181526020016000905b8282101561049f57838290600052602060002001805461041290611108565b80601f016020809104026020016040519081016040528092919081815260200182805461043e90611108565b801561048b5780601f106104605761010080835404028352916020019161048b565b820191906000526020600020905b81548152906001019060200180831161046e57829003601f168201915b5050505050815260200190600101906103f3565b50505050905090565b61030a8282610909565b6040805180820190915260008152606060208201528151829081906104e95760405162461bcd60e51b81526004016102c19061116e565b60405180604001604052806000866040516105049190611190565b9081526040805160209281900383019020546001600160a01b0316835251910190600090610533908890611190565b9081526020016040518091039020600101805461054f90611108565b80601f016020809104026020016040519081016040528092919081815260200182805461057b90611108565b80156105c85780601f1061059d576101008083540402835291602001916105c8565b820191906000526020600020905b8154815290600101906020018083116105ab57829003601f168201915b505050505081525092505050919050565b8051819081906105fb5760405162461bcd60e51b81526004016102c19061116e565b8260006001600160a01b03166000826040516106179190611190565b908152604051908190036020019020546001600160a01b031614156106695760405162461bcd60e51b81526020600482015260086024820152672727afa7aba722a960c11b60448201526064016102c1565b6000816040516106799190611190565b90815260405190819003602001902054336001600160a01b03909116146106ce5760405162461bcd60e51b81526020600482015260096024820152682327a92124a22222a760b91b60448201526064016102c1565b6000846040516106de9190611190565b90815260405190819003602001902080546001600160a01b0319168155600061070a6001830182610a93565b505060015461071857610903565b6001805414156107c857836040516020016107339190611190565b60405160208183030381529060405280519060200120600160008154811061075d5761075d6110f2565b9060005260206000200160405160200161077791906111ac565b6040516020818303038152906040528051906020012014156107c35760018054806107a4576107a4611248565b6001900381819060005260206000200160006107c09190610a93565b90555b610903565b6000805b600180546107da919061125e565b8110156108ca57856040516020016107f29190611190565b604051602081830303815290604052805190602001206001828154811061081b5761081b6110f2565b9060005260206000200160405160200161083591906111ac565b60405160208183030381529060405280519060200120141561085657600191505b81156108b85760016108688282611275565b81548110610878576108786110f2565b9060005260206000200160018281548110610895576108956110f2565b906000526020600020019080546108ab90611108565b6108b6929190610acd565b505b806108c281611153565b9150506107cc565b5080156109015760018054806108e2576108e2611248565b6001900381819060005260206000200160006108fe9190610a93565b90555b505b50505050565b81518290819061092b5760405162461bcd60e51b81526004016102c19061116e565b60006001600160a01b03166000856040516109469190611190565b908152604051908190036020019020546001600160a01b0316146109ce576000846040516109749190611190565b90815260405190819003602001902054336001600160a01b03909116146109c95760405162461bcd60e51b81526020600482015260096024820152682327a92124a22222a760b91b60448201526064016102c1565b610a12565b6001805480820182556000919091528451610a10917fb10e2d527612073b26eecdfd717e6a320cf44b4afac2b0732d9fcbe2b7fa0cf601906020870190610b58565b505b8251604051600090610a25908790611190565b908152602001604051809103902060000160006101000a8154816001600160a01b0302191690836001600160a01b031602179055508260200151600085604051610a6f9190611190565b90815260200160405180910390206001019080519060200190610901929190610b58565b508054610a9f90611108565b6000825580601f10610aaf575050565b601f0160209004906000526020600020908101906102879190610bcc565b828054610ad990611108565b90600052602060002090601f016020900481019282610afb5760008555610b48565b82601f10610b0c5780548555610b48565b82800160010185558215610b4857600052602060002091601f016020900482015b82811115610b48578254825591600101919060010190610b2d565b50610b54929150610bcc565b5090565b828054610b6490611108565b90600052602060002090601f016020900481019282610b865760008555610b48565b82601f10610b9f57805160ff1916838001178555610b48565b82800160010185558215610b48579182015b82811115610b48578251825591602001919060010190610bb1565b5b80821115610b545760008155600101610bcd565b60005b83811015610bfc578181015183820152602001610be4565b838111156109035750506000910152565b60008151808452610c25816020860160208601610be1565b601f01601f19169290920160200192915050565b60018060a01b0381511682526000602082015160406020850152610c606040850182610c0d565b949350505050565b6000602080830181845280855180835260408601915060408160051b870101925083870160005b82811015610cbd57603f19888603018452610cab858351610c39565b94509285019290850190600101610c8f565b5092979650505050505050565b634e487b7160e01b600052604160045260246000fd5b6040805190810167ffffffffffffffff81118282101715610d0357610d03610cca565b60405290565b604051601f8201601f1916810167ffffffffffffffff81118282101715610d3257610d32610cca565b604052919050565b600082601f830112610d4b57600080fd5b813567ffffffffffffffff811115610d6557610d65610cca565b610d78601f8201601f1916602001610d09565b818152846020838601011115610d8d57600080fd5b816020850160208301376000918101602001919091529392505050565b600060208284031215610dbc57600080fd5b813567ffffffffffffffff811115610dd357600080fd5b610c6084828501610d3a565b600067ffffffffffffffff821115610df957610df9610cca565b5060051b60200190565b60006020808385031215610e1657600080fd5b823567ffffffffffffffff80821115610e2e57600080fd5b818501915085601f830112610e4257600080fd5b8135610e55610e5082610ddf565b610d09565b81815260059190911b83018401908481019088831115610e7457600080fd5b8585015b83811015610eac57803585811115610e905760008081fd5b610e9e8b89838a0101610d3a565b845250918601918601610e78565b5098975050505050505050565b602081526000610ecc6020830184610c39565b9392505050565b600060408284031215610ee557600080fd5b610eed610ce0565b905081356001600160a01b0381168114610f0657600080fd5b8152602082013567ffffffffffffffff811115610f2257600080fd5b610f2e84828501610d3a565b60208301525092915050565b60006020808385031215610f4d57600080fd5b823567ffffffffffffffff80821115610f6557600080fd5b818501915085601f830112610f7957600080fd5b8135610f87610e5082610ddf565b81815260059190911b83018401908481019088831115610fa657600080fd5b8585015b83811015610eac57803585811115610fc25760008081fd5b86016040818c03601f1901811315610fda5760008081fd5b610fe2610ce0565b8983013588811115610ff45760008081fd5b6110028e8c83870101610d3a565b8252509082013590878211156110185760008081fd5b6110268d8b84860101610ed3565b818b015285525050918601918601610faa565b6000602080830181845280855180835260408601915060408160051b870101925083870160005b82811015610cbd57603f1988860301845261107c858351610c0d565b94509285019290850190600101611060565b600080604083850312156110a157600080fd5b823567ffffffffffffffff808211156110b957600080fd5b6110c586838701610d3a565b935060208501359150808211156110db57600080fd5b506110e885828601610ed3565b9150509250929050565b634e487b7160e01b600052603260045260246000fd5b600181811c9082168061111c57607f821691505b6020821081141561027857634e487b7160e01b600052602260045260246000fd5b634e487b7160e01b600052601160045260246000fd5b60006000198214156111675761116761113d565b5060010190565b6020808252600890820152674e4f5f56414c554560c01b604082015260600190565b600082516111a2818460208701610be1565b9190910192915050565b600080835481600182811c9150808316806111c857607f831692505b60208084108214156111e857634e487b7160e01b86526022600452602486fd5b8180156111fc576001811461120d5761123a565b60ff1986168952848901965061123a565b60008a81526020902060005b868110156112325781548b820152908501908301611219565b505084890196505b509498975050505050505050565b634e487b7160e01b600052603160045260246000fd5b6000828210156112705761127061113d565b500390565b600082198211156112885761128861113d565b50019056fea264697066735822122014b64f9b0a1367db6c03105e01d53b7ffefe6d1ee92ef5c4fd62e5bfe33752f464736f6c634300080c0033",
					"opcodes": "PUSH1 0x80 PUSH1 0x40 MSTORE CALLVALUE DUP1 ISZERO PUSH2 0x10 JUMPI PUSH1 0x0 DUP1 REVERT JUMPDEST POP PUSH2 0x12C3 DUP1 PUSH2 0x20 PUSH1 0x0 CODECOPY PUSH1 0x0 RETURN INVALID PUSH1 0x80 PUSH1 0x40 MSTORE CALLVALUE DUP1 ISZERO PUSH2 0x10 JUMPI PUSH1 0x0 DUP1 REVERT JUMPDEST POP PUSH1 0x4 CALLDATASIZE LT PUSH2 0x7D JUMPI PUSH1 0x0 CALLDATALOAD PUSH1 0xE0 SHR DUP1 PUSH4 0xAE55C888 GT PUSH2 0x5B JUMPI DUP1 PUSH4 0xAE55C888 EQ PUSH2 0xC8 JUMPI DUP1 PUSH4 0xBE05133C EQ PUSH2 0xE8 JUMPI DUP1 PUSH4 0xCB965AE9 EQ PUSH2 0xFB JUMPI DUP1 PUSH4 0xF14805C3 EQ PUSH2 0x110 JUMPI PUSH1 0x0 DUP1 REVERT JUMPDEST DUP1 PUSH4 0x11D881B1 EQ PUSH2 0x82 JUMPI DUP1 PUSH4 0x28CE8638 EQ PUSH2 0xA0 JUMPI DUP1 PUSH4 0xAC193F1A EQ PUSH2 0xB5 JUMPI JUMPDEST PUSH1 0x0 DUP1 REVERT JUMPDEST PUSH2 0x8A PUSH2 0x123 JUMP JUMPDEST PUSH1 0x40 MLOAD PUSH2 0x97 SWAP2 SWAP1 PUSH2 0xC68 JUMP JUMPDEST PUSH1 0x40 MLOAD DUP1 SWAP2 SUB SWAP1 RETURN JUMPDEST PUSH2 0xB3 PUSH2 0xAE CALLDATASIZE PUSH1 0x4 PUSH2 0xDAA JUMP JUMPDEST PUSH2 0x27E JUMP JUMPDEST STOP JUMPDEST PUSH2 0xB3 PUSH2 0xC3 CALLDATASIZE PUSH1 0x4 PUSH2 0xE03 JUMP JUMPDEST PUSH2 0x28A JUMP JUMPDEST PUSH2 0xDB PUSH2 0xD6 CALLDATASIZE PUSH1 0x4 PUSH2 0xDAA JUMP JUMPDEST PUSH2 0x30E JUMP JUMPDEST PUSH1 0x40 MLOAD PUSH2 0x97 SWAP2 SWAP1 PUSH2 0xEB9 JUMP JUMPDEST PUSH2 0xB3 PUSH2 0xF6 CALLDATASIZE PUSH1 0x4 PUSH2 0xF3A JUMP JUMPDEST PUSH2 0x332 JUMP JUMPDEST PUSH2 0x103 PUSH2 0x3CF JUMP JUMPDEST PUSH1 0x40 MLOAD PUSH2 0x97 SWAP2 SWAP1 PUSH2 0x1039 JUMP JUMPDEST PUSH2 0xB3 PUSH2 0x11E CALLDATASIZE PUSH1 0x4 PUSH2 0x108E JUMP JUMPDEST PUSH2 0x4A8 JUMP JUMPDEST PUSH1 0x1 SLOAD PUSH1 0x60 SWAP1 PUSH1 0x0 SWAP1 PUSH8 0xFFFFFFFFFFFFFFFF DUP2 GT ISZERO PUSH2 0x144 JUMPI PUSH2 0x144 PUSH2 0xCCA JUMP JUMPDEST PUSH1 0x40 MLOAD SWAP1 DUP1 DUP3 MSTORE DUP1 PUSH1 0x20 MUL PUSH1 0x20 ADD DUP3 ADD PUSH1 0x40 MSTORE DUP1 ISZERO PUSH2 0x18A JUMPI DUP2 PUSH1 0x20 ADD JUMPDEST PUSH1 0x40 DUP1 MLOAD DUP1 DUP3 ADD SWAP1 SWAP2 MSTORE PUSH1 0x0 DUP2 MSTORE PUSH1 0x60 PUSH1 0x20 DUP3 ADD MSTORE DUP2 MSTORE PUSH1 0x20 ADD SWAP1 PUSH1 0x1 SWAP1 SUB SWAP1 DUP2 PUSH2 0x162 JUMPI SWAP1 POP JUMPDEST POP SWAP1 POP PUSH1 0x0 JUMPDEST PUSH1 0x1 SLOAD DUP2 LT ISZERO PUSH2 0x278 JUMPI PUSH2 0x248 PUSH1 0x1 DUP3 DUP2 SLOAD DUP2 LT PUSH2 0x1B0 JUMPI PUSH2 0x1B0 PUSH2 0x10F2 JUMP JUMPDEST SWAP1 PUSH1 0x0 MSTORE PUSH1 0x20 PUSH1 0x0 KECCAK256 ADD DUP1 SLOAD PUSH2 0x1C5 SWAP1 PUSH2 0x1108 JUMP JUMPDEST DUP1 PUSH1 0x1F ADD PUSH1 0x20 DUP1 SWAP2 DIV MUL PUSH1 0x20 ADD PUSH1 0x40 MLOAD SWAP1 DUP2 ADD PUSH1 0x40 MSTORE DUP1 SWAP3 SWAP2 SWAP1 DUP2 DUP2 MSTORE PUSH1 0x20 ADD DUP3 DUP1 SLOAD PUSH2 0x1F1 SWAP1 PUSH2 0x1108 JUMP JUMPDEST DUP1 ISZERO PUSH2 0x23E JUMPI DUP1 PUSH1 0x1F LT PUSH2 0x213 JUMPI PUSH2 0x100 DUP1 DUP4 SLOAD DIV MUL DUP4 MSTORE SWAP2 PUSH1 0x20 ADD SWAP2 PUSH2 0x23E JUMP JUMPDEST DUP3 ADD SWAP2 SWAP1 PUSH1 0x0 MSTORE PUSH1 0x20 PUSH1 0x0 KECCAK256 SWAP1 JUMPDEST DUP2 SLOAD DUP2 MSTORE SWAP1 PUSH1 0x1 ADD SWAP1 PUSH1 0x20 ADD DUP1 DUP4 GT PUSH2 0x221 JUMPI DUP3 SWAP1 SUB PUSH1 0x1F AND DUP3 ADD SWAP2 JUMPDEST POP POP POP POP POP PUSH2 0x4B2 JUMP JUMPDEST DUP3 DUP3 DUP2 MLOAD DUP2 LT PUSH2 0x25A JUMPI PUSH2 0x25A PUSH2 0x10F2 JUMP JUMPDEST PUSH1 0x20 MUL PUSH1 0x20 ADD ADD DUP2 SWAP1 MSTORE POP DUP1 DUP1 PUSH2 0x270 SWAP1 PUSH2 0x1153 JUMP JUMPDEST SWAP2 POP POP PUSH2 0x190 JUMP JUMPDEST POP SWAP2 SWAP1 POP JUMP JUMPDEST PUSH2 0x287 DUP2 PUSH2 0x5D9 JUMP JUMPDEST POP JUMP JUMPDEST PUSH1 0x0 DUP2 MLOAD GT PUSH2 0x2CA JUMPI PUSH1 0x40 MLOAD PUSH3 0x461BCD PUSH1 0xE5 SHL DUP2 MSTORE PUSH1 0x20 PUSH1 0x4 DUP3 ADD MSTORE PUSH1 0x7 PUSH1 0x24 DUP3 ADD MSTORE PUSH7 0x4E4F5F4B455953 PUSH1 0xC8 SHL PUSH1 0x44 DUP3 ADD MSTORE PUSH1 0x64 ADD JUMPDEST PUSH1 0x40 MLOAD DUP1 SWAP2 SUB SWAP1 REVERT JUMPDEST PUSH1 0x0 JUMPDEST DUP2 MLOAD DUP2 LT ISZERO PUSH2 0x30A JUMPI PUSH2 0x2F8 DUP3 DUP3 DUP2 MLOAD DUP2 LT PUSH2 0x2EB JUMPI PUSH2 0x2EB PUSH2 0x10F2 JUMP JUMPDEST PUSH1 0x20 MUL PUSH1 0x20 ADD ADD MLOAD PUSH2 0x5D9 JUMP JUMPDEST DUP1 PUSH2 0x302 DUP2 PUSH2 0x1153 JUMP JUMPDEST SWAP2 POP POP PUSH2 0x2CD JUMP JUMPDEST POP POP JUMP JUMPDEST PUSH1 0x40 DUP1 MLOAD DUP1 DUP3 ADD SWAP1 SWAP2 MSTORE PUSH1 0x0 DUP2 MSTORE PUSH1 0x60 PUSH1 0x20 DUP3 ADD MSTORE PUSH2 0x32C DUP3 PUSH2 0x4B2 JUMP JUMPDEST SWAP3 SWAP2 POP POP JUMP JUMPDEST PUSH1 0x0 DUP2 MLOAD GT PUSH2 0x36D JUMPI PUSH1 0x40 MLOAD PUSH3 0x461BCD PUSH1 0xE5 SHL DUP2 MSTORE PUSH1 0x20 PUSH1 0x4 DUP3 ADD MSTORE PUSH1 0x7 PUSH1 0x24 DUP3 ADD MSTORE PUSH7 0x4E4F5F44415441 PUSH1 0xC8 SHL PUSH1 0x44 DUP3 ADD MSTORE PUSH1 0x64 ADD PUSH2 0x2C1 JUMP JUMPDEST PUSH1 0x0 JUMPDEST DUP2 MLOAD DUP2 LT ISZERO PUSH2 0x30A JUMPI PUSH2 0x3BD DUP3 DUP3 DUP2 MLOAD DUP2 LT PUSH2 0x38E JUMPI PUSH2 0x38E PUSH2 0x10F2 JUMP JUMPDEST PUSH1 0x20 MUL PUSH1 0x20 ADD ADD MLOAD PUSH1 0x0 ADD MLOAD DUP4 DUP4 DUP2 MLOAD DUP2 LT PUSH2 0x3AC JUMPI PUSH2 0x3AC PUSH2 0x10F2 JUMP JUMPDEST PUSH1 0x20 MUL PUSH1 0x20 ADD ADD MLOAD PUSH1 0x20 ADD MLOAD PUSH2 0x909 JUMP JUMPDEST DUP1 PUSH2 0x3C7 DUP2 PUSH2 0x1153 JUMP JUMPDEST SWAP2 POP POP PUSH2 0x370 JUMP JUMPDEST PUSH1 0x60 PUSH1 0x1 DUP1 SLOAD DUP1 PUSH1 0x20 MUL PUSH1 0x20 ADD PUSH1 0x40 MLOAD SWAP1 DUP2 ADD PUSH1 0x40 MSTORE DUP1 SWAP3 SWAP2 SWAP1 DUP2 DUP2 MSTORE PUSH1 0x20 ADD PUSH1 0x0 SWAP1 JUMPDEST DUP3 DUP3 LT ISZERO PUSH2 0x49F JUMPI DUP4 DUP3 SWAP1 PUSH1 0x0 MSTORE PUSH1 0x20 PUSH1 0x0 KECCAK256 ADD DUP1 SLOAD PUSH2 0x412 SWAP1 PUSH2 0x1108 JUMP JUMPDEST DUP1 PUSH1 0x1F ADD PUSH1 0x20 DUP1 SWAP2 DIV MUL PUSH1 0x20 ADD PUSH1 0x40 MLOAD SWAP1 DUP2 ADD PUSH1 0x40 MSTORE DUP1 SWAP3 SWAP2 SWAP1 DUP2 DUP2 MSTORE PUSH1 0x20 ADD DUP3 DUP1 SLOAD PUSH2 0x43E SWAP1 PUSH2 0x1108 JUMP JUMPDEST DUP1 ISZERO PUSH2 0x48B JUMPI DUP1 PUSH1 0x1F LT PUSH2 0x460 JUMPI PUSH2 0x100 DUP1 DUP4 SLOAD DIV MUL DUP4 MSTORE SWAP2 PUSH1 0x20 ADD SWAP2 PUSH2 0x48B JUMP JUMPDEST DUP3 ADD SWAP2 SWAP1 PUSH1 0x0 MSTORE PUSH1 0x20 PUSH1 0x0 KECCAK256 SWAP1 JUMPDEST DUP2 SLOAD DUP2 MSTORE SWAP1 PUSH1 0x1 ADD SWAP1 PUSH1 0x20 ADD DUP1 DUP4 GT PUSH2 0x46E JUMPI DUP3 SWAP1 SUB PUSH1 0x1F AND DUP3 ADD SWAP2 JUMPDEST POP POP POP POP POP DUP2 MSTORE PUSH1 0x20 ADD SWAP1 PUSH1 0x1 ADD SWAP1 PUSH2 0x3F3 JUMP JUMPDEST POP POP POP POP SWAP1 POP SWAP1 JUMP JUMPDEST PUSH2 0x30A DUP3 DUP3 PUSH2 0x909 JUMP JUMPDEST PUSH1 0x40 DUP1 MLOAD DUP1 DUP3 ADD SWAP1 SWAP2 MSTORE PUSH1 0x0 DUP2 MSTORE PUSH1 0x60 PUSH1 0x20 DUP3 ADD MSTORE DUP2 MLOAD DUP3 SWAP1 DUP2 SWAP1 PUSH2 0x4E9 JUMPI PUSH1 0x40 MLOAD PUSH3 0x461BCD PUSH1 0xE5 SHL DUP2 MSTORE PUSH1 0x4 ADD PUSH2 0x2C1 SWAP1 PUSH2 0x116E JUMP JUMPDEST PUSH1 0x40 MLOAD DUP1 PUSH1 0x40 ADD PUSH1 0x40 MSTORE DUP1 PUSH1 0x0 DUP7 PUSH1 0x40 MLOAD PUSH2 0x504 SWAP2 SWAP1 PUSH2 0x1190 JUMP JUMPDEST SWAP1 DUP2 MSTORE PUSH1 0x40 DUP1 MLOAD PUSH1 0x20 SWAP3 DUP2 SWAP1 SUB DUP4 ADD SWAP1 KECCAK256 SLOAD PUSH1 0x1 PUSH1 0x1 PUSH1 0xA0 SHL SUB AND DUP4 MSTORE MLOAD SWAP2 ADD SWAP1 PUSH1 0x0 SWAP1 PUSH2 0x533 SWAP1 DUP9 SWAP1 PUSH2 0x1190 JUMP JUMPDEST SWAP1 DUP2 MSTORE PUSH1 0x20 ADD PUSH1 0x40 MLOAD DUP1 SWAP2 SUB SWAP1 KECCAK256 PUSH1 0x1 ADD DUP1 SLOAD PUSH2 0x54F SWAP1 PUSH2 0x1108 JUMP JUMPDEST DUP1 PUSH1 0x1F ADD PUSH1 0x20 DUP1 SWAP2 DIV MUL PUSH1 0x20 ADD PUSH1 0x40 MLOAD SWAP1 DUP2 ADD PUSH1 0x40 MSTORE DUP1 SWAP3 SWAP2 SWAP1 DUP2 DUP2 MSTORE PUSH1 0x20 ADD DUP3 DUP1 SLOAD PUSH2 0x57B SWAP1 PUSH2 0x1108 JUMP JUMPDEST DUP1 ISZERO PUSH2 0x5C8 JUMPI DUP1 PUSH1 0x1F LT PUSH2 0x59D JUMPI PUSH2 0x100 DUP1 DUP4 SLOAD DIV MUL DUP4 MSTORE SWAP2 PUSH1 0x20 ADD SWAP2 PUSH2 0x5C8 JUMP JUMPDEST DUP3 ADD SWAP2 SWAP1 PUSH1 0x0 MSTORE PUSH1 0x20 PUSH1 0x0 KECCAK256 SWAP1 JUMPDEST DUP2 SLOAD DUP2 MSTORE SWAP1 PUSH1 0x1 ADD SWAP1 PUSH1 0x20 ADD DUP1 DUP4 GT PUSH2 0x5AB JUMPI DUP3 SWAP1 SUB PUSH1 0x1F AND DUP3 ADD SWAP2 JUMPDEST POP POP POP POP POP DUP2 MSTORE POP SWAP3 POP POP POP SWAP2 SWAP1 POP JUMP JUMPDEST DUP1 MLOAD DUP2 SWAP1 DUP2 SWAP1 PUSH2 0x5FB JUMPI PUSH1 0x40 MLOAD PUSH3 0x461BCD PUSH1 0xE5 SHL DUP2 MSTORE PUSH1 0x4 ADD PUSH2 0x2C1 SWAP1 PUSH2 0x116E JUMP JUMPDEST DUP3 PUSH1 0x0 PUSH1 0x1 PUSH1 0x1 PUSH1 0xA0 SHL SUB AND PUSH1 0x0 DUP3 PUSH1 0x40 MLOAD PUSH2 0x617 SWAP2 SWAP1 PUSH2 0x1190 JUMP JUMPDEST SWAP1 DUP2 MSTORE PUSH1 0x40 MLOAD SWAP1 DUP2 SWAP1 SUB PUSH1 0x20 ADD SWAP1 KECCAK256 SLOAD PUSH1 0x1 PUSH1 0x1 PUSH1 0xA0 SHL SUB AND EQ ISZERO PUSH2 0x669 JUMPI PUSH1 0x40 MLOAD PUSH3 0x461BCD PUSH1 0xE5 SHL DUP2 MSTORE PUSH1 0x20 PUSH1 0x4 DUP3 ADD MSTORE PUSH1 0x8 PUSH1 0x24 DUP3 ADD MSTORE PUSH8 0x2727AFA7ABA722A9 PUSH1 0xC1 SHL PUSH1 0x44 DUP3 ADD MSTORE PUSH1 0x64 ADD PUSH2 0x2C1 JUMP JUMPDEST PUSH1 0x0 DUP2 PUSH1 0x40 MLOAD PUSH2 0x679 SWAP2 SWAP1 PUSH2 0x1190 JUMP JUMPDEST SWAP1 DUP2 MSTORE PUSH1 0x40 MLOAD SWAP1 DUP2 SWAP1 SUB PUSH1 0x20 ADD SWAP1 KECCAK256 SLOAD CALLER PUSH1 0x1 PUSH1 0x1 PUSH1 0xA0 SHL SUB SWAP1 SWAP2 AND EQ PUSH2 0x6CE JUMPI PUSH1 0x40 MLOAD PUSH3 0x461BCD PUSH1 0xE5 SHL DUP2 MSTORE PUSH1 0x20 PUSH1 0x4 DUP3 ADD MSTORE PUSH1 0x9 PUSH1 0x24 DUP3 ADD MSTORE PUSH9 0x2327A92124A22222A7 PUSH1 0xB9 SHL PUSH1 0x44 DUP3 ADD MSTORE PUSH1 0x64 ADD PUSH2 0x2C1 JUMP JUMPDEST PUSH1 0x0 DUP5 PUSH1 0x40 MLOAD PUSH2 0x6DE SWAP2 SWAP1 PUSH2 0x1190 JUMP JUMPDEST SWAP1 DUP2 MSTORE PUSH1 0x40 MLOAD SWAP1 DUP2 SWAP1 SUB PUSH1 0x20 ADD SWAP1 KECCAK256 DUP1 SLOAD PUSH1 0x1 PUSH1 0x1 PUSH1 0xA0 SHL SUB NOT AND DUP2 SSTORE PUSH1 0x0 PUSH2 0x70A PUSH1 0x1 DUP4 ADD DUP3 PUSH2 0xA93 JUMP JUMPDEST POP POP PUSH1 0x1 SLOAD PUSH2 0x718 JUMPI PUSH2 0x903 JUMP JUMPDEST PUSH1 0x1 DUP1 SLOAD EQ ISZERO PUSH2 0x7C8 JUMPI DUP4 PUSH1 0x40 MLOAD PUSH1 0x20 ADD PUSH2 0x733 SWAP2 SWAP1 PUSH2 0x1190 JUMP JUMPDEST PUSH1 0x40 MLOAD PUSH1 0x20 DUP2 DUP4 SUB SUB DUP2 MSTORE SWAP1 PUSH1 0x40 MSTORE DUP1 MLOAD SWAP1 PUSH1 0x20 ADD KECCAK256 PUSH1 0x1 PUSH1 0x0 DUP2 SLOAD DUP2 LT PUSH2 0x75D JUMPI PUSH2 0x75D PUSH2 0x10F2 JUMP JUMPDEST SWAP1 PUSH1 0x0 MSTORE PUSH1 0x20 PUSH1 0x0 KECCAK256 ADD PUSH1 0x40 MLOAD PUSH1 0x20 ADD PUSH2 0x777 SWAP2 SWAP1 PUSH2 0x11AC JUMP JUMPDEST PUSH1 0x40 MLOAD PUSH1 0x20 DUP2 DUP4 SUB SUB DUP2 MSTORE SWAP1 PUSH1 0x40 MSTORE DUP1 MLOAD SWAP1 PUSH1 0x20 ADD KECCAK256 EQ ISZERO PUSH2 0x7C3 JUMPI PUSH1 0x1 DUP1 SLOAD DUP1 PUSH2 0x7A4 JUMPI PUSH2 0x7A4 PUSH2 0x1248 JUMP JUMPDEST PUSH1 0x1 SWAP1 SUB DUP2 DUP2 SWAP1 PUSH1 0x0 MSTORE PUSH1 0x20 PUSH1 0x0 KECCAK256 ADD PUSH1 0x0 PUSH2 0x7C0 SWAP2 SWAP1 PUSH2 0xA93 JUMP JUMPDEST SWAP1 SSTORE JUMPDEST PUSH2 0x903 JUMP JUMPDEST PUSH1 0x0 DUP1 JUMPDEST PUSH1 0x1 DUP1 SLOAD PUSH2 0x7DA SWAP2 SWAP1 PUSH2 0x125E JUMP JUMPDEST DUP2 LT ISZERO PUSH2 0x8CA JUMPI DUP6 PUSH1 0x40 MLOAD PUSH1 0x20 ADD PUSH2 0x7F2 SWAP2 SWAP1 PUSH2 0x1190 JUMP JUMPDEST PUSH1 0x40 MLOAD PUSH1 0x20 DUP2 DUP4 SUB SUB DUP2 MSTORE SWAP1 PUSH1 0x40 MSTORE DUP1 MLOAD SWAP1 PUSH1 0x20 ADD KECCAK256 PUSH1 0x1 DUP3 DUP2 SLOAD DUP2 LT PUSH2 0x81B JUMPI PUSH2 0x81B PUSH2 0x10F2 JUMP JUMPDEST SWAP1 PUSH1 0x0 MSTORE PUSH1 0x20 PUSH1 0x0 KECCAK256 ADD PUSH1 0x40 MLOAD PUSH1 0x20 ADD PUSH2 0x835 SWAP2 SWAP1 PUSH2 0x11AC JUMP JUMPDEST PUSH1 0x40 MLOAD PUSH1 0x20 DUP2 DUP4 SUB SUB DUP2 MSTORE SWAP1 PUSH1 0x40 MSTORE DUP1 MLOAD SWAP1 PUSH1 0x20 ADD KECCAK256 EQ ISZERO PUSH2 0x856 JUMPI PUSH1 0x1 SWAP2 POP JUMPDEST DUP2 ISZERO PUSH2 0x8B8 JUMPI PUSH1 0x1 PUSH2 0x868 DUP3 DUP3 PUSH2 0x1275 JUMP JUMPDEST DUP2 SLOAD DUP2 LT PUSH2 0x878 JUMPI PUSH2 0x878 PUSH2 0x10F2 JUMP JUMPDEST SWAP1 PUSH1 0x0 MSTORE PUSH1 0x20 PUSH1 0x0 KECCAK256 ADD PUSH1 0x1 DUP3 DUP2 SLOAD DUP2 LT PUSH2 0x895 JUMPI PUSH2 0x895 PUSH2 0x10F2 JUMP JUMPDEST SWAP1 PUSH1 0x0 MSTORE PUSH1 0x20 PUSH1 0x0 KECCAK256 ADD SWAP1 DUP1 SLOAD PUSH2 0x8AB SWAP1 PUSH2 0x1108 JUMP JUMPDEST PUSH2 0x8B6 SWAP3 SWAP2 SWAP1 PUSH2 0xACD JUMP JUMPDEST POP JUMPDEST DUP1 PUSH2 0x8C2 DUP2 PUSH2 0x1153 JUMP JUMPDEST SWAP2 POP POP PUSH2 0x7CC JUMP JUMPDEST POP DUP1 ISZERO PUSH2 0x901 JUMPI PUSH1 0x1 DUP1 SLOAD DUP1 PUSH2 0x8E2 JUMPI PUSH2 0x8E2 PUSH2 0x1248 JUMP JUMPDEST PUSH1 0x1 SWAP1 SUB DUP2 DUP2 SWAP1 PUSH1 0x0 MSTORE PUSH1 0x20 PUSH1 0x0 KECCAK256 ADD PUSH1 0x0 PUSH2 0x8FE SWAP2 SWAP1 PUSH2 0xA93 JUMP JUMPDEST SWAP1 SSTORE JUMPDEST POP JUMPDEST POP POP POP POP JUMP JUMPDEST DUP2 MLOAD DUP3 SWAP1 DUP2 SWAP1 PUSH2 0x92B JUMPI PUSH1 0x40 MLOAD PUSH3 0x461BCD PUSH1 0xE5 SHL DUP2 MSTORE PUSH1 0x4 ADD PUSH2 0x2C1 SWAP1 PUSH2 0x116E JUMP JUMPDEST PUSH1 0x0 PUSH1 0x1 PUSH1 0x1 PUSH1 0xA0 SHL SUB AND PUSH1 0x0 DUP6 PUSH1 0x40 MLOAD PUSH2 0x946 SWAP2 SWAP1 PUSH2 0x1190 JUMP JUMPDEST SWAP1 DUP2 MSTORE PUSH1 0x40 MLOAD SWAP1 DUP2 SWAP1 SUB PUSH1 0x20 ADD SWAP1 KECCAK256 SLOAD PUSH1 0x1 PUSH1 0x1 PUSH1 0xA0 SHL SUB AND EQ PUSH2 0x9CE JUMPI PUSH1 0x0 DUP5 PUSH1 0x40 MLOAD PUSH2 0x974 SWAP2 SWAP1 PUSH2 0x1190 JUMP JUMPDEST SWAP1 DUP2 MSTORE PUSH1 0x40 MLOAD SWAP1 DUP2 SWAP1 SUB PUSH1 0x20 ADD SWAP1 KECCAK256 SLOAD CALLER PUSH1 0x1 PUSH1 0x1 PUSH1 0xA0 SHL SUB SWAP1 SWAP2 AND EQ PUSH2 0x9C9 JUMPI PUSH1 0x40 MLOAD PUSH3 0x461BCD PUSH1 0xE5 SHL DUP2 MSTORE PUSH1 0x20 PUSH1 0x4 DUP3 ADD MSTORE PUSH1 0x9 PUSH1 0x24 DUP3 ADD MSTORE PUSH9 0x2327A92124A22222A7 PUSH1 0xB9 SHL PUSH1 0x44 DUP3 ADD MSTORE PUSH1 0x64 ADD PUSH2 0x2C1 JUMP JUMPDEST PUSH2 0xA12 JUMP JUMPDEST PUSH1 0x1 DUP1 SLOAD DUP1 DUP3 ADD DUP3 SSTORE PUSH1 0x0 SWAP2 SWAP1 SWAP2 MSTORE DUP5 MLOAD PUSH2 0xA10 SWAP2 PUSH32 0xB10E2D527612073B26EECDFD717E6A320CF44B4AFAC2B0732D9FCBE2B7FA0CF6 ADD SWAP1 PUSH1 0x20 DUP8 ADD SWAP1 PUSH2 0xB58 JUMP JUMPDEST POP JUMPDEST DUP3 MLOAD PUSH1 0x40 MLOAD PUSH1 0x0 SWAP1 PUSH2 0xA25 SWAP1 DUP8 SWAP1 PUSH2 0x1190 JUMP JUMPDEST SWAP1 DUP2 MSTORE PUSH1 0x20 ADD PUSH1 0x40 MLOAD DUP1 SWAP2 SUB SWAP1 KECCAK256 PUSH1 0x0 ADD PUSH1 0x0 PUSH2 0x100 EXP DUP2 SLOAD DUP2 PUSH1 0x1 PUSH1 0x1 PUSH1 0xA0 SHL SUB MUL NOT AND SWAP1 DUP4 PUSH1 0x1 PUSH1 0x1 PUSH1 0xA0 SHL SUB AND MUL OR SWAP1 SSTORE POP DUP3 PUSH1 0x20 ADD MLOAD PUSH1 0x0 DUP6 PUSH1 0x40 MLOAD PUSH2 0xA6F SWAP2 SWAP1 PUSH2 0x1190 JUMP JUMPDEST SWAP1 DUP2 MSTORE PUSH1 0x20 ADD PUSH1 0x40 MLOAD DUP1 SWAP2 SUB SWAP1 KECCAK256 PUSH1 0x1 ADD SWAP1 DUP1 MLOAD SWAP1 PUSH1 0x20 ADD SWAP1 PUSH2 0x901 SWAP3 SWAP2 SWAP1 PUSH2 0xB58 JUMP JUMPDEST POP DUP1 SLOAD PUSH2 0xA9F SWAP1 PUSH2 0x1108 JUMP JUMPDEST PUSH1 0x0 DUP3 SSTORE DUP1 PUSH1 0x1F LT PUSH2 0xAAF JUMPI POP POP JUMP JUMPDEST PUSH1 0x1F ADD PUSH1 0x20 SWAP1 DIV SWAP1 PUSH1 0x0 MSTORE PUSH1 0x20 PUSH1 0x0 KECCAK256 SWAP1 DUP2 ADD SWAP1 PUSH2 0x287 SWAP2 SWAP1 PUSH2 0xBCC JUMP JUMPDEST DUP3 DUP1 SLOAD PUSH2 0xAD9 SWAP1 PUSH2 0x1108 JUMP JUMPDEST SWAP1 PUSH1 0x0 MSTORE PUSH1 0x20 PUSH1 0x0 KECCAK256 SWAP1 PUSH1 0x1F ADD PUSH1 0x20 SWAP1 DIV DUP2 ADD SWAP3 DUP3 PUSH2 0xAFB JUMPI PUSH1 0x0 DUP6 SSTORE PUSH2 0xB48 JUMP JUMPDEST DUP3 PUSH1 0x1F LT PUSH2 0xB0C JUMPI DUP1 SLOAD DUP6 SSTORE PUSH2 0xB48 JUMP JUMPDEST DUP3 DUP1 ADD PUSH1 0x1 ADD DUP6 SSTORE DUP3 ISZERO PUSH2 0xB48 JUMPI PUSH1 0x0 MSTORE PUSH1 0x20 PUSH1 0x0 KECCAK256 SWAP2 PUSH1 0x1F ADD PUSH1 0x20 SWAP1 DIV DUP3 ADD JUMPDEST DUP3 DUP2 GT ISZERO PUSH2 0xB48 JUMPI DUP3 SLOAD DUP3 SSTORE SWAP2 PUSH1 0x1 ADD SWAP2 SWAP1 PUSH1 0x1 ADD SWAP1 PUSH2 0xB2D JUMP JUMPDEST POP PUSH2 0xB54 SWAP3 SWAP2 POP PUSH2 0xBCC JUMP JUMPDEST POP SWAP1 JUMP JUMPDEST DUP3 DUP1 SLOAD PUSH2 0xB64 SWAP1 PUSH2 0x1108 JUMP JUMPDEST SWAP1 PUSH1 0x0 MSTORE PUSH1 0x20 PUSH1 0x0 KECCAK256 SWAP1 PUSH1 0x1F ADD PUSH1 0x20 SWAP1 DIV DUP2 ADD SWAP3 DUP3 PUSH2 0xB86 JUMPI PUSH1 0x0 DUP6 SSTORE PUSH2 0xB48 JUMP JUMPDEST DUP3 PUSH1 0x1F LT PUSH2 0xB9F JUMPI DUP1 MLOAD PUSH1 0xFF NOT AND DUP4 DUP1 ADD OR DUP6 SSTORE PUSH2 0xB48 JUMP JUMPDEST DUP3 DUP1 ADD PUSH1 0x1 ADD DUP6 SSTORE DUP3 ISZERO PUSH2 0xB48 JUMPI SWAP2 DUP3 ADD JUMPDEST DUP3 DUP2 GT ISZERO PUSH2 0xB48 JUMPI DUP3 MLOAD DUP3 SSTORE SWAP2 PUSH1 0x20 ADD SWAP2 SWAP1 PUSH1 0x1 ADD SWAP1 PUSH2 0xBB1 JUMP JUMPDEST JUMPDEST DUP1 DUP3 GT ISZERO PUSH2 0xB54 JUMPI PUSH1 0x0 DUP2 SSTORE PUSH1 0x1 ADD PUSH2 0xBCD JUMP JUMPDEST PUSH1 0x0 JUMPDEST DUP4 DUP2 LT ISZERO PUSH2 0xBFC JUMPI DUP2 DUP2 ADD MLOAD DUP4 DUP3 ADD MSTORE PUSH1 0x20 ADD PUSH2 0xBE4 JUMP JUMPDEST DUP4 DUP2 GT ISZERO PUSH2 0x903 JUMPI POP POP PUSH1 0x0 SWAP2 ADD MSTORE JUMP JUMPDEST PUSH1 0x0 DUP2 MLOAD DUP1 DUP5 MSTORE PUSH2 0xC25 DUP2 PUSH1 0x20 DUP7 ADD PUSH1 0x20 DUP7 ADD PUSH2 0xBE1 JUMP JUMPDEST PUSH1 0x1F ADD PUSH1 0x1F NOT AND SWAP3 SWAP1 SWAP3 ADD PUSH1 0x20 ADD SWAP3 SWAP2 POP POP JUMP JUMPDEST PUSH1 0x1 DUP1 PUSH1 0xA0 SHL SUB DUP2 MLOAD AND DUP3 MSTORE PUSH1 0x0 PUSH1 0x20 DUP3 ADD MLOAD PUSH1 0x40 PUSH1 0x20 DUP6 ADD MSTORE PUSH2 0xC60 PUSH1 0x40 DUP6 ADD DUP3 PUSH2 0xC0D JUMP JUMPDEST SWAP5 SWAP4 POP POP POP POP JUMP JUMPDEST PUSH1 0x0 PUSH1 0x20 DUP1 DUP4 ADD DUP2 DUP5 MSTORE DUP1 DUP6 MLOAD DUP1 DUP4 MSTORE PUSH1 0x40 DUP7 ADD SWAP2 POP PUSH1 0x40 DUP2 PUSH1 0x5 SHL DUP8 ADD ADD SWAP3 POP DUP4 DUP8 ADD PUSH1 0x0 JUMPDEST DUP3 DUP2 LT ISZERO PUSH2 0xCBD JUMPI PUSH1 0x3F NOT DUP9 DUP7 SUB ADD DUP5 MSTORE PUSH2 0xCAB DUP6 DUP4 MLOAD PUSH2 0xC39 JUMP JUMPDEST SWAP5 POP SWAP3 DUP6 ADD SWAP3 SWAP1 DUP6 ADD SWAP1 PUSH1 0x1 ADD PUSH2 0xC8F JUMP JUMPDEST POP SWAP3 SWAP8 SWAP7 POP POP POP POP POP POP POP JUMP JUMPDEST PUSH4 0x4E487B71 PUSH1 0xE0 SHL PUSH1 0x0 MSTORE PUSH1 0x41 PUSH1 0x4 MSTORE PUSH1 0x24 PUSH1 0x0 REVERT JUMPDEST PUSH1 0x40 DUP1 MLOAD SWAP1 DUP2 ADD PUSH8 0xFFFFFFFFFFFFFFFF DUP2 GT DUP3 DUP3 LT OR ISZERO PUSH2 0xD03 JUMPI PUSH2 0xD03 PUSH2 0xCCA JUMP JUMPDEST PUSH1 0x40 MSTORE SWAP1 JUMP JUMPDEST PUSH1 0x40 MLOAD PUSH1 0x1F DUP3 ADD PUSH1 0x1F NOT AND DUP2 ADD PUSH8 0xFFFFFFFFFFFFFFFF DUP2 GT DUP3 DUP3 LT OR ISZERO PUSH2 0xD32 JUMPI PUSH2 0xD32 PUSH2 0xCCA JUMP JUMPDEST PUSH1 0x40 MSTORE SWAP2 SWAP1 POP JUMP JUMPDEST PUSH1 0x0 DUP3 PUSH1 0x1F DUP4 ADD SLT PUSH2 0xD4B JUMPI PUSH1 0x0 DUP1 REVERT JUMPDEST DUP2 CALLDATALOAD PUSH8 0xFFFFFFFFFFFFFFFF DUP2 GT ISZERO PUSH2 0xD65 JUMPI PUSH2 0xD65 PUSH2 0xCCA JUMP JUMPDEST PUSH2 0xD78 PUSH1 0x1F DUP3 ADD PUSH1 0x1F NOT AND PUSH1 0x20 ADD PUSH2 0xD09 JUMP JUMPDEST DUP2 DUP2 MSTORE DUP5 PUSH1 0x20 DUP4 DUP7 ADD ADD GT ISZERO PUSH2 0xD8D JUMPI PUSH1 0x0 DUP1 REVERT JUMPDEST DUP2 PUSH1 0x20 DUP6 ADD PUSH1 0x20 DUP4 ADD CALLDATACOPY PUSH1 0x0 SWAP2 DUP2 ADD PUSH1 0x20 ADD SWAP2 SWAP1 SWAP2 MSTORE SWAP4 SWAP3 POP POP POP JUMP JUMPDEST PUSH1 0x0 PUSH1 0x20 DUP3 DUP5 SUB SLT ISZERO PUSH2 0xDBC JUMPI PUSH1 0x0 DUP1 REVERT JUMPDEST DUP2 CALLDATALOAD PUSH8 0xFFFFFFFFFFFFFFFF DUP2 GT ISZERO PUSH2 0xDD3 JUMPI PUSH1 0x0 DUP1 REVERT JUMPDEST PUSH2 0xC60 DUP5 DUP3 DUP6 ADD PUSH2 0xD3A JUMP JUMPDEST PUSH1 0x0 PUSH8 0xFFFFFFFFFFFFFFFF DUP3 GT ISZERO PUSH2 0xDF9 JUMPI PUSH2 0xDF9 PUSH2 0xCCA JUMP JUMPDEST POP PUSH1 0x5 SHL PUSH1 0x20 ADD SWAP1 JUMP JUMPDEST PUSH1 0x0 PUSH1 0x20 DUP1 DUP4 DUP6 SUB SLT ISZERO PUSH2 0xE16 JUMPI PUSH1 0x0 DUP1 REVERT JUMPDEST DUP3 CALLDATALOAD PUSH8 0xFFFFFFFFFFFFFFFF DUP1 DUP3 GT ISZERO PUSH2 0xE2E JUMPI PUSH1 0x0 DUP1 REVERT JUMPDEST DUP2 DUP6 ADD SWAP2 POP DUP6 PUSH1 0x1F DUP4 ADD SLT PUSH2 0xE42 JUMPI PUSH1 0x0 DUP1 REVERT JUMPDEST DUP2 CALLDATALOAD PUSH2 0xE55 PUSH2 0xE50 DUP3 PUSH2 0xDDF JUMP JUMPDEST PUSH2 0xD09 JUMP JUMPDEST DUP2 DUP2 MSTORE PUSH1 0x5 SWAP2 SWAP1 SWAP2 SHL DUP4 ADD DUP5 ADD SWAP1 DUP5 DUP2 ADD SWAP1 DUP9 DUP4 GT ISZERO PUSH2 0xE74 JUMPI PUSH1 0x0 DUP1 REVERT JUMPDEST DUP6 DUP6 ADD JUMPDEST DUP4 DUP2 LT ISZERO PUSH2 0xEAC JUMPI DUP1 CALLDATALOAD DUP6 DUP2 GT ISZERO PUSH2 0xE90 JUMPI PUSH1 0x0 DUP1 DUP2 REVERT JUMPDEST PUSH2 0xE9E DUP12 DUP10 DUP4 DUP11 ADD ADD PUSH2 0xD3A JUMP JUMPDEST DUP5 MSTORE POP SWAP2 DUP7 ADD SWAP2 DUP7 ADD PUSH2 0xE78 JUMP JUMPDEST POP SWAP9 SWAP8 POP POP POP POP POP POP POP POP JUMP JUMPDEST PUSH1 0x20 DUP2 MSTORE PUSH1 0x0 PUSH2 0xECC PUSH1 0x20 DUP4 ADD DUP5 PUSH2 0xC39 JUMP JUMPDEST SWAP4 SWAP3 POP POP POP JUMP JUMPDEST PUSH1 0x0 PUSH1 0x40 DUP3 DUP5 SUB SLT ISZERO PUSH2 0xEE5 JUMPI PUSH1 0x0 DUP1 REVERT JUMPDEST PUSH2 0xEED PUSH2 0xCE0 JUMP JUMPDEST SWAP1 POP DUP2 CALLDATALOAD PUSH1 0x1 PUSH1 0x1 PUSH1 0xA0 SHL SUB DUP2 AND DUP2 EQ PUSH2 0xF06 JUMPI PUSH1 0x0 DUP1 REVERT JUMPDEST DUP2 MSTORE PUSH1 0x20 DUP3 ADD CALLDATALOAD PUSH8 0xFFFFFFFFFFFFFFFF DUP2 GT ISZERO PUSH2 0xF22 JUMPI PUSH1 0x0 DUP1 REVERT JUMPDEST PUSH2 0xF2E DUP5 DUP3 DUP6 ADD PUSH2 0xD3A JUMP JUMPDEST PUSH1 0x20 DUP4 ADD MSTORE POP SWAP3 SWAP2 POP POP JUMP JUMPDEST PUSH1 0x0 PUSH1 0x20 DUP1 DUP4 DUP6 SUB SLT ISZERO PUSH2 0xF4D JUMPI PUSH1 0x0 DUP1 REVERT JUMPDEST DUP3 CALLDATALOAD PUSH8 0xFFFFFFFFFFFFFFFF DUP1 DUP3 GT ISZERO PUSH2 0xF65 JUMPI PUSH1 0x0 DUP1 REVERT JUMPDEST DUP2 DUP6 ADD SWAP2 POP DUP6 PUSH1 0x1F DUP4 ADD SLT PUSH2 0xF79 JUMPI PUSH1 0x0 DUP1 REVERT JUMPDEST DUP2 CALLDATALOAD PUSH2 0xF87 PUSH2 0xE50 DUP3 PUSH2 0xDDF JUMP JUMPDEST DUP2 DUP2 MSTORE PUSH1 0x5 SWAP2 SWAP1 SWAP2 SHL DUP4 ADD DUP5 ADD SWAP1 DUP5 DUP2 ADD SWAP1 DUP9 DUP4 GT ISZERO PUSH2 0xFA6 JUMPI PUSH1 0x0 DUP1 REVERT JUMPDEST DUP6 DUP6 ADD JUMPDEST DUP4 DUP2 LT ISZERO PUSH2 0xEAC JUMPI DUP1 CALLDATALOAD DUP6 DUP2 GT ISZERO PUSH2 0xFC2 JUMPI PUSH1 0x0 DUP1 DUP2 REVERT JUMPDEST DUP7 ADD PUSH1 0x40 DUP2 DUP13 SUB PUSH1 0x1F NOT ADD DUP2 SGT ISZERO PUSH2 0xFDA JUMPI PUSH1 0x0 DUP1 DUP2 REVERT JUMPDEST PUSH2 0xFE2 PUSH2 0xCE0 JUMP JUMPDEST DUP10 DUP4 ADD CALLDATALOAD DUP9 DUP2 GT ISZERO PUSH2 0xFF4 JUMPI PUSH1 0x0 DUP1 DUP2 REVERT JUMPDEST PUSH2 0x1002 DUP15 DUP13 DUP4 DUP8 ADD ADD PUSH2 0xD3A JUMP JUMPDEST DUP3 MSTORE POP SWAP1 DUP3 ADD CALLDATALOAD SWAP1 DUP8 DUP3 GT ISZERO PUSH2 0x1018 JUMPI PUSH1 0x0 DUP1 DUP2 REVERT JUMPDEST PUSH2 0x1026 DUP14 DUP12 DUP5 DUP7 ADD ADD PUSH2 0xED3 JUMP JUMPDEST DUP2 DUP12 ADD MSTORE DUP6 MSTORE POP POP SWAP2 DUP7 ADD SWAP2 DUP7 ADD PUSH2 0xFAA JUMP JUMPDEST PUSH1 0x0 PUSH1 0x20 DUP1 DUP4 ADD DUP2 DUP5 MSTORE DUP1 DUP6 MLOAD DUP1 DUP4 MSTORE PUSH1 0x40 DUP7 ADD SWAP2 POP PUSH1 0x40 DUP2 PUSH1 0x5 SHL DUP8 ADD ADD SWAP3 POP DUP4 DUP8 ADD PUSH1 0x0 JUMPDEST DUP3 DUP2 LT ISZERO PUSH2 0xCBD JUMPI PUSH1 0x3F NOT DUP9 DUP7 SUB ADD DUP5 MSTORE PUSH2 0x107C DUP6 DUP4 MLOAD PUSH2 0xC0D JUMP JUMPDEST SWAP5 POP SWAP3 DUP6 ADD SWAP3 SWAP1 DUP6 ADD SWAP1 PUSH1 0x1 ADD PUSH2 0x1060 JUMP JUMPDEST PUSH1 0x0 DUP1 PUSH1 0x40 DUP4 DUP6 SUB SLT ISZERO PUSH2 0x10A1 JUMPI PUSH1 0x0 DUP1 REVERT JUMPDEST DUP3 CALLDATALOAD PUSH8 0xFFFFFFFFFFFFFFFF DUP1 DUP3 GT ISZERO PUSH2 0x10B9 JUMPI PUSH1 0x0 DUP1 REVERT JUMPDEST PUSH2 0x10C5 DUP7 DUP4 DUP8 ADD PUSH2 0xD3A JUMP JUMPDEST SWAP4 POP PUSH1 0x20 DUP6 ADD CALLDATALOAD SWAP2 POP DUP1 DUP3 GT ISZERO PUSH2 0x10DB JUMPI PUSH1 0x0 DUP1 REVERT JUMPDEST POP PUSH2 0x10E8 DUP6 DUP3 DUP7 ADD PUSH2 0xED3 JUMP JUMPDEST SWAP2 POP POP SWAP3 POP SWAP3 SWAP1 POP JUMP JUMPDEST PUSH4 0x4E487B71 PUSH1 0xE0 SHL PUSH1 0x0 MSTORE PUSH1 0x32 PUSH1 0x4 MSTORE PUSH1 0x24 PUSH1 0x0 REVERT JUMPDEST PUSH1 0x1 DUP2 DUP2 SHR SWAP1 DUP3 AND DUP1 PUSH2 0x111C JUMPI PUSH1 0x7F DUP3 AND SWAP2 POP JUMPDEST PUSH1 0x20 DUP3 LT DUP2 EQ ISZERO PUSH2 0x278 JUMPI PUSH4 0x4E487B71 PUSH1 0xE0 SHL PUSH1 0x0 MSTORE PUSH1 0x22 PUSH1 0x4 MSTORE PUSH1 0x24 PUSH1 0x0 REVERT JUMPDEST PUSH4 0x4E487B71 PUSH1 0xE0 SHL PUSH1 0x0 MSTORE PUSH1 0x11 PUSH1 0x4 MSTORE PUSH1 0x24 PUSH1 0x0 REVERT JUMPDEST PUSH1 0x0 PUSH1 0x0 NOT DUP3 EQ ISZERO PUSH2 0x1167 JUMPI PUSH2 0x1167 PUSH2 0x113D JUMP JUMPDEST POP PUSH1 0x1 ADD SWAP1 JUMP JUMPDEST PUSH1 0x20 DUP1 DUP3 MSTORE PUSH1 0x8 SWAP1 DUP3 ADD MSTORE PUSH8 0x4E4F5F56414C5545 PUSH1 0xC0 SHL PUSH1 0x40 DUP3 ADD MSTORE PUSH1 0x60 ADD SWAP1 JUMP JUMPDEST PUSH1 0x0 DUP3 MLOAD PUSH2 0x11A2 DUP2 DUP5 PUSH1 0x20 DUP8 ADD PUSH2 0xBE1 JUMP JUMPDEST SWAP2 SWAP1 SWAP2 ADD SWAP3 SWAP2 POP POP JUMP JUMPDEST PUSH1 0x0 DUP1 DUP4 SLOAD DUP2 PUSH1 0x1 DUP3 DUP2 SHR SWAP2 POP DUP1 DUP4 AND DUP1 PUSH2 0x11C8 JUMPI PUSH1 0x7F DUP4 AND SWAP3 POP JUMPDEST PUSH1 0x20 DUP1 DUP5 LT DUP3 EQ ISZERO PUSH2 0x11E8 JUMPI PUSH4 0x4E487B71 PUSH1 0xE0 SHL DUP7 MSTORE PUSH1 0x22 PUSH1 0x4 MSTORE PUSH1 0x24 DUP7 REVERT JUMPDEST DUP2 DUP1 ISZERO PUSH2 0x11FC JUMPI PUSH1 0x1 DUP2 EQ PUSH2 0x120D JUMPI PUSH2 0x123A JUMP JUMPDEST PUSH1 0xFF NOT DUP7 AND DUP10 MSTORE DUP5 DUP10 ADD SWAP7 POP PUSH2 0x123A JUMP JUMPDEST PUSH1 0x0 DUP11 DUP2 MSTORE PUSH1 0x20 SWAP1 KECCAK256 PUSH1 0x0 JUMPDEST DUP7 DUP2 LT ISZERO PUSH2 0x1232 JUMPI DUP2 SLOAD DUP12 DUP3 ADD MSTORE SWAP1 DUP6 ADD SWAP1 DUP4 ADD PUSH2 0x1219 JUMP JUMPDEST POP POP DUP5 DUP10 ADD SWAP7 POP JUMPDEST POP SWAP5 SWAP9 SWAP8 POP POP POP POP POP POP POP POP JUMP JUMPDEST PUSH4 0x4E487B71 PUSH1 0xE0 SHL PUSH1 0x0 MSTORE PUSH1 0x31 PUSH1 0x4 MSTORE PUSH1 0x24 PUSH1 0x0 REVERT JUMPDEST PUSH1 0x0 DUP3 DUP3 LT ISZERO PUSH2 0x1270 JUMPI PUSH2 0x1270 PUSH2 0x113D JUMP JUMPDEST POP SUB SWAP1 JUMP JUMPDEST PUSH1 0x0 DUP3 NOT DUP3 GT ISZERO PUSH2 0x1288 JUMPI PUSH2 0x1288 PUSH2 0x113D JUMP JUMPDEST POP ADD SWAP1 JUMP INVALID LOG2 PUSH5 0x6970667358 0x22 SLT KECCAK256 EQ 0xB6 0x4F SWAP12 EXP SGT PUSH8 0xDB6C03105E01D53B PUSH32 0xFEFE6D1EE92EF5C4FD62E5BFE33752F464736F6C634300080C00330000000000 "
				},
				"gasEstimates": {
					"creation": {
						"codeDepositCost": "960600",
						"executionCost": "1001",
						"totalCost": "961601"
					},
					"external": {
						"allKeys()": "infinite",
						"allKeysData()": "infinite",
						"clearKeyData(string)": "infinite",
						"clearKeysData(string[])": "infinite",
						"getData(string)": "infinite",
						"setKeyData(string,(address,string))": "infinite",
						"setKeysData((string,(address,string))[])": "infinite"
					},
					"internal": {
						"_clearKeyData(string memory)": "infinite",
						"_keyData(string memory)": "infinite",
						"_setKeyData(string memory,struct IStorage.Data memory)": "infinite"
					}
				},
				"methodIdentifiers": {
					"allKeys()": "cb965ae9",
					"allKeysData()": "11d881b1",
					"clearKeyData(string)": "28ce8638",
					"clearKeysData(string[])": "ac193f1a",
					"getData(string)": "ae55c888",
					"setKeyData(string,(address,string))": "f14805c3",
					"setKeysData((string,(address,string))[])": "be05133c"
				}
			},
			"storageLayout": {
				"storage": [
					{
						"astId": 67,
						"contract": "source/Storage.sol:Storage",
						"label": "allData",
						"offset": 0,
						"slot": "0",
						"type": "t_mapping(t_string_memory_ptr,t_struct(Data)6_storage)"
					},
					{
						"astId": 70,
						"contract": "source/Storage.sol:Storage",
						"label": "keys",
						"offset": 0,
						"slot": "1",
						"type": "t_array(t_string_storage)dyn_storage"
					}
				],
				"types": {
					"t_address": {
						"encoding": "inplace",
						"label": "address",
						"numberOfBytes": "20"
					},
					"t_array(t_string_storage)dyn_storage": {
						"base": "t_string_storage",
						"encoding": "dynamic_array",
						"label": "string[]",
						"numberOfBytes": "32"
					},
					"t_mapping(t_string_memory_ptr,t_struct(Data)6_storage)": {
						"encoding": "mapping",
						"key": "t_string_memory_ptr",
						"label": "mapping(string => struct IStorage.Data)",
						"numberOfBytes": "32",
						"value": "t_struct(Data)6_storage"
					},
					"t_string_memory_ptr": {
						"encoding": "bytes",
						"label": "string",
						"numberOfBytes": "32"
					},
					"t_string_storage": {
						"encoding": "bytes",
						"label": "string",
						"numberOfBytes": "32"
					},
					"t_struct(Data)6_storage": {
						"encoding": "inplace",
						"label": "struct IStorage.Data",
						"members": [
							{
								"astId": 3,
								"contract": "source/Storage.sol:Storage",
								"label": "owner",
								"offset": 0,
								"slot": "0",
								"type": "t_address"
							},
							{
								"astId": 5,
								"contract": "source/Storage.sol:Storage",
								"label": "info",
								"offset": 0,
								"slot": "1",
								"type": "t_string_storage"
							}
						],
						"numberOfBytes": "64"
					}
				}
			},
			"userdoc": {
				"kind": "user",
				"methods": {},
				"version": 1
			}
		}
	}
}