{
	"source/Farm.sol": {
		"Farm": {
			"abi": [
				{
					"inputs": [
						{
							"internalType": "address",
							"name": "_nftCollection",
							"type": "address"
						},
						{
							"internalType": "contract IERC20",
							"name": "_rewardsToken",
							"type": "address"
						},
						{
							"internalType": "uint256",
							"name": "_rewardsPerHour",
							"type": "uint256"
						}
					],
					"stateMutability": "nonpayable",
					"type": "constructor"
				},
				{
					"anonymous": false,
					"inputs": [
						{
							"indexed": true,
							"internalType": "address",
							"name": "previousOwner",
							"type": "address"
						},
						{
							"indexed": true,
							"internalType": "address",
							"name": "newOwner",
							"type": "address"
						}
					],
					"name": "OwnershipTransferred",
					"type": "event"
				},
				{
					"anonymous": false,
					"inputs": [
						{
							"indexed": false,
							"internalType": "address",
							"name": "account",
							"type": "address"
						}
					],
					"name": "Paused",
					"type": "event"
				},
				{
					"anonymous": false,
					"inputs": [
						{
							"indexed": false,
							"internalType": "address",
							"name": "account",
							"type": "address"
						}
					],
					"name": "Unpaused",
					"type": "event"
				},
				{
					"inputs": [],
					"name": "adminWithdrawRewards",
					"outputs": [],
					"stateMutability": "nonpayable",
					"type": "function"
				},
				{
					"inputs": [
						{
							"internalType": "address",
							"name": "_staker",
							"type": "address"
						}
					],
					"name": "availableRewards",
					"outputs": [
						{
							"internalType": "uint256",
							"name": "",
							"type": "uint256"
						}
					],
					"stateMutability": "view",
					"type": "function"
				},
				{
					"inputs": [],
					"name": "claimRewards",
					"outputs": [],
					"stateMutability": "nonpayable",
					"type": "function"
				},
				{
					"inputs": [
						{
							"internalType": "address",
							"name": "_user",
							"type": "address"
						}
					],
					"name": "getStakedTokens",
					"outputs": [
						{
							"components": [
								{
									"internalType": "address",
									"name": "staker",
									"type": "address"
								},
								{
									"internalType": "uint256",
									"name": "tokenId",
									"type": "uint256"
								}
							],
							"internalType": "struct Farm.StakedToken[]",
							"name": "",
							"type": "tuple[]"
						}
					],
					"stateMutability": "view",
					"type": "function"
				},
				{
					"inputs": [],
					"name": "nftCollection",
					"outputs": [
						{
							"internalType": "contract IERC721",
							"name": "",
							"type": "address"
						}
					],
					"stateMutability": "view",
					"type": "function"
				},
				{
					"inputs": [],
					"name": "owner",
					"outputs": [
						{
							"internalType": "address",
							"name": "",
							"type": "address"
						}
					],
					"stateMutability": "view",
					"type": "function"
				},
				{
					"inputs": [],
					"name": "paused",
					"outputs": [
						{
							"internalType": "bool",
							"name": "",
							"type": "bool"
						}
					],
					"stateMutability": "view",
					"type": "function"
				},
				{
					"inputs": [],
					"name": "renounceOwnership",
					"outputs": [],
					"stateMutability": "nonpayable",
					"type": "function"
				},
				{
					"inputs": [],
					"name": "rewardsPerHour",
					"outputs": [
						{
							"internalType": "uint256",
							"name": "",
							"type": "uint256"
						}
					],
					"stateMutability": "view",
					"type": "function"
				},
				{
					"inputs": [],
					"name": "rewardsToken",
					"outputs": [
						{
							"internalType": "contract IERC20",
							"name": "",
							"type": "address"
						}
					],
					"stateMutability": "view",
					"type": "function"
				},
				{
					"inputs": [
						{
							"internalType": "uint256",
							"name": "_rewardsPerHour",
							"type": "uint256"
						}
					],
					"name": "setRewardsPerHour",
					"outputs": [],
					"stateMutability": "nonpayable",
					"type": "function"
				},
				{
					"inputs": [
						{
							"internalType": "uint256",
							"name": "_tokenId",
							"type": "uint256"
						}
					],
					"name": "stake",
					"outputs": [],
					"stateMutability": "nonpayable",
					"type": "function"
				},
				{
					"inputs": [
						{
							"internalType": "uint256",
							"name": "",
							"type": "uint256"
						}
					],
					"name": "stakerAddress",
					"outputs": [
						{
							"internalType": "address",
							"name": "",
							"type": "address"
						}
					],
					"stateMutability": "view",
					"type": "function"
				},
				{
					"inputs": [
						{
							"internalType": "address",
							"name": "",
							"type": "address"
						}
					],
					"name": "stakers",
					"outputs": [
						{
							"internalType": "uint256",
							"name": "amountStaked",
							"type": "uint256"
						},
						{
							"internalType": "uint256",
							"name": "timeOfLastUpdate",
							"type": "uint256"
						},
						{
							"internalType": "uint256",
							"name": "unclaimedRewards",
							"type": "uint256"
						}
					],
					"stateMutability": "view",
					"type": "function"
				},
				{
					"inputs": [
						{
							"internalType": "address",
							"name": "newOwner",
							"type": "address"
						}
					],
					"name": "transferOwnership",
					"outputs": [],
					"stateMutability": "nonpayable",
					"type": "function"
				},
				{
					"inputs": [],
					"name": "version",
					"outputs": [
						{
							"internalType": "uint256",
							"name": "",
							"type": "uint256"
						}
					],
					"stateMutability": "view",
					"type": "function"
				},
				{
					"inputs": [
						{
							"internalType": "uint256",
							"name": "_tokenId",
							"type": "uint256"
						}
					],
					"name": "withdraw",
					"outputs": [],
					"stateMutability": "nonpayable",
					"type": "function"
				}
			],
			"devdoc": {
				"kind": "dev",
				"methods": {
					"owner()": {
						"details": "Returns the address of the current owner."
					},
					"paused()": {
						"details": "Returns true if the contract is paused, and false otherwise."
					},
					"renounceOwnership()": {
						"details": "Leaves the contract without owner. It will not be possible to call `onlyOwner` functions anymore. Can only be called by the current owner. NOTE: Renouncing ownership will leave the contract without an owner, thereby removing any functionality that is only available to the owner."
					},
					"transferOwnership(address)": {
						"details": "Transfers ownership of the contract to a new account (`newOwner`). Can only be called by the current owner."
					}
				},
				"version": 1
			},
			"evm": {
				"assembly": "    /* \"source/Farm.sol\":28878:33989  contract Farm is ReentrancyGuard, Pausable, Ownable {\r... */\n  mstore(0x40, 0x80)\n    /* \"source/Farm.sol\":29472:29478  100000 */\n  0x0186a0\n    /* \"source/Farm.sol\":29440:29478  uint256 public rewardsPerHour = 100000 */\n  0x05\n  sstore\n    /* \"source/Farm.sol\":29512:29513  2 */\n  0x02\n    /* \"source/Farm.sol\":29487:29513  uint256 public version = 2 */\n  0x06\n  sstore\n    /* \"source/Farm.sol\":29710:29981  constructor(address _nftCollection, IERC20 _rewardsToken, uint256 _rewardsPerHour) {\r... */\n  callvalue\n  dup1\n  iszero\n  tag_1\n  jumpi\n  0x00\n  dup1\n  revert\ntag_1:\n  pop\n  mload(0x40)\n  sub(codesize, bytecodeSize)\n  dup1\n  bytecodeSize\n  dup4\n  codecopy\n  dup2\n  dup2\n  add\n  0x40\n  mstore\n  dup2\n  add\n  swap1\n  tag_2\n  swap2\n  swap1\n  tag_3\n  jump\t// in\ntag_2:\n    /* \"source/Farm.sol\":17794:17795  1 */\n  0x01\n    /* \"source/Farm.sol\":17905:17912  _status */\n  0x00\n    /* \"source/Farm.sol\":17905:17927  _status = _NOT_ENTERED */\n  dup2\n  swap1\n  sstore\n  pop\n    /* \"source/Farm.sol\":15333:15338  false */\n  0x00\n    /* \"source/Farm.sol\":15323:15330  _paused */\n  0x01\n  0x00\n    /* \"source/Farm.sol\":15323:15338  _paused = false */\n  0x0100\n  exp\n  dup2\n  sload\n  dup2\n  0xff\n  mul\n  not\n  and\n  swap1\n  dup4\n  iszero\n  iszero\n  mul\n  or\n  swap1\n  sstore\n  pop\n    /* \"source/Farm.sol\":27132:27164  _transferOwnership(_msgSender()) */\n  tag_11\n    /* \"source/Farm.sol\":27151:27163  _msgSender() */\n  tag_12\n    /* \"source/Farm.sol\":27151:27161  _msgSender */\n  shl(0x20, tag_13)\n    /* \"source/Farm.sol\":27151:27163  _msgSender() */\n  0x20\n  shr\n  jump\t// in\ntag_12:\n    /* \"source/Farm.sol\":27132:27150  _transferOwnership */\n  shl(0x20, tag_14)\n    /* \"source/Farm.sol\":27132:27164  _transferOwnership(_msgSender()) */\n  0x20\n  shr\n  jump\t// in\ntag_11:\n    /* \"source/Farm.sol\":29828:29842  _nftCollection */\n  dup3\n    /* \"source/Farm.sol\":29804:29817  nftCollection */\n  0x03\n  0x00\n    /* \"source/Farm.sol\":29804:29843  nftCollection = IERC721(_nftCollection) */\n  0x0100\n  exp\n  dup2\n  sload\n  dup2\n  0xffffffffffffffffffffffffffffffffffffffff\n  mul\n  not\n  and\n  swap1\n  dup4\n  0xffffffffffffffffffffffffffffffffffffffff\n  and\n  mul\n  or\n  swap1\n  sstore\n  pop\n    /* \"source/Farm.sol\":29877:29891  _nftCollection */\n  dup3\n    /* \"source/Farm.sol\":29854:29874  nftCollectionAddress */\n  0x04\n  0x00\n    /* \"source/Farm.sol\":29854:29891  nftCollectionAddress = _nftCollection */\n  0x0100\n  exp\n  dup2\n  sload\n  dup2\n  0xffffffffffffffffffffffffffffffffffffffff\n  mul\n  not\n  and\n  swap1\n  dup4\n  0xffffffffffffffffffffffffffffffffffffffff\n  and\n  mul\n  or\n  swap1\n  sstore\n  pop\n    /* \"source/Farm.sol\":29917:29930  _rewardsToken */\n  dup2\n    /* \"source/Farm.sol\":29902:29914  rewardsToken */\n  0x02\n  0x00\n    /* \"source/Farm.sol\":29902:29930  rewardsToken = _rewardsToken */\n  0x0100\n  exp\n  dup2\n  sload\n  dup2\n  0xffffffffffffffffffffffffffffffffffffffff\n  mul\n  not\n  and\n  swap1\n  dup4\n  0xffffffffffffffffffffffffffffffffffffffff\n  and\n  mul\n  or\n  swap1\n  sstore\n  pop\n    /* \"source/Farm.sol\":29958:29973  _rewardsPerHour */\n  dup1\n    /* \"source/Farm.sol\":29941:29955  rewardsPerHour */\n  0x05\n    /* \"source/Farm.sol\":29941:29973  rewardsPerHour = _rewardsPerHour */\n  dup2\n  swap1\n  sstore\n  pop\n    /* \"source/Farm.sol\":29710:29981  constructor(address _nftCollection, IERC20 _rewardsToken, uint256 _rewardsPerHour) {\r... */\n  pop\n  pop\n  pop\n    /* \"source/Farm.sol\":28878:33989  contract Farm is ReentrancyGuard, Pausable, Ownable {\r... */\n  jump(tag_16)\n    /* \"source/Farm.sol\":14698:14796  function _msgSender() internal view virtual returns (address) {\r... */\ntag_13:\n    /* \"source/Farm.sol\":14751:14758  address */\n  0x00\n    /* \"source/Farm.sol\":14778:14788  msg.sender */\n  caller\n    /* \"source/Farm.sol\":14771:14788  return msg.sender */\n  swap1\n  pop\n    /* \"source/Farm.sol\":14698:14796  function _msgSender() internal view virtual returns (address) {\r... */\n  swap1\n  jump\t// out\n    /* \"source/Farm.sol\":28678:28869  function _transferOwnership(address newOwner) internal virtual {\r... */\ntag_14:\n    /* \"source/Farm.sol\":28752:28768  address oldOwner */\n  0x00\n    /* \"source/Farm.sol\":28771:28777  _owner */\n  0x01\n  dup1\n  sload\n  swap1\n  0x0100\n  exp\n  swap1\n  div\n  0xffffffffffffffffffffffffffffffffffffffff\n  and\n    /* \"source/Farm.sol\":28752:28777  address oldOwner = _owner */\n  swap1\n  pop\n    /* \"source/Farm.sol\":28797:28805  newOwner */\n  dup2\n    /* \"source/Farm.sol\":28788:28794  _owner */\n  0x01\n  dup1\n    /* \"source/Farm.sol\":28788:28805  _owner = newOwner */\n  0x0100\n  exp\n  dup2\n  sload\n  dup2\n  0xffffffffffffffffffffffffffffffffffffffff\n  mul\n  not\n  and\n  swap1\n  dup4\n  0xffffffffffffffffffffffffffffffffffffffff\n  and\n  mul\n  or\n  swap1\n  sstore\n  pop\n    /* \"source/Farm.sol\":28852:28860  newOwner */\n  dup2\n    /* \"source/Farm.sol\":28821:28861  OwnershipTransferred(oldOwner, newOwner) */\n  0xffffffffffffffffffffffffffffffffffffffff\n  and\n    /* \"source/Farm.sol\":28842:28850  oldOwner */\n  dup2\n    /* \"source/Farm.sol\":28821:28861  OwnershipTransferred(oldOwner, newOwner) */\n  0xffffffffffffffffffffffffffffffffffffffff\n  and\n  0x8be0079c531659141344cd1fd0a4f28419497f9722a3daafe3b4186f6b6457e0\n  mload(0x40)\n  mload(0x40)\n  dup1\n  swap2\n  sub\n  swap1\n  log3\n    /* \"source/Farm.sol\":28741:28869  {\r... */\n  pop\n    /* \"source/Farm.sol\":28678:28869  function _transferOwnership(address newOwner) internal virtual {\r... */\n  pop\n  jump\t// out\n    /* \"#utility.yul\":7:150   */\ntag_20:\n    /* \"#utility.yul\":64:69   */\n  0x00\n    /* \"#utility.yul\":95:101   */\n  dup2\n    /* \"#utility.yul\":89:102   */\n  mload\n    /* \"#utility.yul\":80:102   */\n  swap1\n  pop\n    /* \"#utility.yul\":111:144   */\n  tag_22\n    /* \"#utility.yul\":138:143   */\n  dup2\n    /* \"#utility.yul\":111:144   */\n  tag_23\n  jump\t// in\ntag_22:\n    /* \"#utility.yul\":7:150   */\n  swap3\n  swap2\n  pop\n  pop\n  jump\t// out\n    /* \"#utility.yul\":156:327   */\ntag_24:\n    /* \"#utility.yul\":227:232   */\n  0x00\n    /* \"#utility.yul\":258:264   */\n  dup2\n    /* \"#utility.yul\":252:265   */\n  mload\n    /* \"#utility.yul\":243:265   */\n  swap1\n  pop\n    /* \"#utility.yul\":274:321   */\n  tag_26\n    /* \"#utility.yul\":315:320   */\n  dup2\n    /* \"#utility.yul\":274:321   */\n  tag_27\n  jump\t// in\ntag_26:\n    /* \"#utility.yul\":156:327   */\n  swap3\n  swap2\n  pop\n  pop\n  jump\t// out\n    /* \"#utility.yul\":333:476   */\ntag_28:\n    /* \"#utility.yul\":390:395   */\n  0x00\n    /* \"#utility.yul\":421:427   */\n  dup2\n    /* \"#utility.yul\":415:428   */\n  mload\n    /* \"#utility.yul\":406:428   */\n  swap1\n  pop\n    /* \"#utility.yul\":437:470   */\n  tag_30\n    /* \"#utility.yul\":464:469   */\n  dup2\n    /* \"#utility.yul\":437:470   */\n  tag_31\n  jump\t// in\ntag_30:\n    /* \"#utility.yul\":333:476   */\n  swap3\n  swap2\n  pop\n  pop\n  jump\t// out\n    /* \"#utility.yul\":482:1173   */\ntag_3:\n    /* \"#utility.yul\":584:590   */\n  0x00\n    /* \"#utility.yul\":592:598   */\n  dup1\n    /* \"#utility.yul\":600:606   */\n  0x00\n    /* \"#utility.yul\":649:651   */\n  0x60\n    /* \"#utility.yul\":637:646   */\n  dup5\n    /* \"#utility.yul\":628:635   */\n  dup7\n    /* \"#utility.yul\":624:647   */\n  sub\n    /* \"#utility.yul\":620:652   */\n  slt\n    /* \"#utility.yul\":617:736   */\n  iszero\n  tag_33\n  jumpi\n    /* \"#utility.yul\":655:734   */\n  tag_34\n  tag_35\n  jump\t// in\ntag_34:\n    /* \"#utility.yul\":617:736   */\ntag_33:\n    /* \"#utility.yul\":775:776   */\n  0x00\n    /* \"#utility.yul\":800:864   */\n  tag_36\n    /* \"#utility.yul\":856:863   */\n  dup7\n    /* \"#utility.yul\":847:853   */\n  dup3\n    /* \"#utility.yul\":836:845   */\n  dup8\n    /* \"#utility.yul\":832:854   */\n  add\n    /* \"#utility.yul\":800:864   */\n  tag_20\n  jump\t// in\ntag_36:\n    /* \"#utility.yul\":790:864   */\n  swap4\n  pop\n    /* \"#utility.yul\":746:874   */\n  pop\n    /* \"#utility.yul\":913:915   */\n  0x20\n    /* \"#utility.yul\":939:1017   */\n  tag_37\n    /* \"#utility.yul\":1009:1016   */\n  dup7\n    /* \"#utility.yul\":1000:1006   */\n  dup3\n    /* \"#utility.yul\":989:998   */\n  dup8\n    /* \"#utility.yul\":985:1007   */\n  add\n    /* \"#utility.yul\":939:1017   */\n  tag_24\n  jump\t// in\ntag_37:\n    /* \"#utility.yul\":929:1017   */\n  swap3\n  pop\n    /* \"#utility.yul\":884:1027   */\n  pop\n    /* \"#utility.yul\":1066:1068   */\n  0x40\n    /* \"#utility.yul\":1092:1156   */\n  tag_38\n    /* \"#utility.yul\":1148:1155   */\n  dup7\n    /* \"#utility.yul\":1139:1145   */\n  dup3\n    /* \"#utility.yul\":1128:1137   */\n  dup8\n    /* \"#utility.yul\":1124:1146   */\n  add\n    /* \"#utility.yul\":1092:1156   */\n  tag_28\n  jump\t// in\ntag_38:\n    /* \"#utility.yul\":1082:1156   */\n  swap2\n  pop\n    /* \"#utility.yul\":1037:1166   */\n  pop\n    /* \"#utility.yul\":482:1173   */\n  swap3\n  pop\n  swap3\n  pop\n  swap3\n  jump\t// out\n    /* \"#utility.yul\":1260:1356   */\ntag_41:\n    /* \"#utility.yul\":1297:1304   */\n  0x00\n    /* \"#utility.yul\":1326:1350   */\n  tag_43\n    /* \"#utility.yul\":1344:1349   */\n  dup3\n    /* \"#utility.yul\":1326:1350   */\n  tag_44\n  jump\t// in\ntag_43:\n    /* \"#utility.yul\":1315:1350   */\n  swap1\n  pop\n    /* \"#utility.yul\":1260:1356   */\n  swap2\n  swap1\n  pop\n  jump\t// out\n    /* \"#utility.yul\":1362:1472   */\ntag_45:\n    /* \"#utility.yul\":1413:1420   */\n  0x00\n    /* \"#utility.yul\":1442:1466   */\n  tag_47\n    /* \"#utility.yul\":1460:1465   */\n  dup3\n    /* \"#utility.yul\":1442:1466   */\n  tag_41\n  jump\t// in\ntag_47:\n    /* \"#utility.yul\":1431:1466   */\n  swap1\n  pop\n    /* \"#utility.yul\":1362:1472   */\n  swap2\n  swap1\n  pop\n  jump\t// out\n    /* \"#utility.yul\":1478:1604   */\ntag_44:\n    /* \"#utility.yul\":1515:1522   */\n  0x00\n    /* \"#utility.yul\":1555:1597   */\n  0xffffffffffffffffffffffffffffffffffffffff\n    /* \"#utility.yul\":1548:1553   */\n  dup3\n    /* \"#utility.yul\":1544:1598   */\n  and\n    /* \"#utility.yul\":1533:1598   */\n  swap1\n  pop\n    /* \"#utility.yul\":1478:1604   */\n  swap2\n  swap1\n  pop\n  jump\t// out\n    /* \"#utility.yul\":1610:1687   */\ntag_49:\n    /* \"#utility.yul\":1647:1654   */\n  0x00\n    /* \"#utility.yul\":1676:1681   */\n  dup2\n    /* \"#utility.yul\":1665:1681   */\n  swap1\n  pop\n    /* \"#utility.yul\":1610:1687   */\n  swap2\n  swap1\n  pop\n  jump\t// out\n    /* \"#utility.yul\":1816:1933   */\ntag_35:\n    /* \"#utility.yul\":1925:1926   */\n  0x00\n    /* \"#utility.yul\":1922:1923   */\n  dup1\n    /* \"#utility.yul\":1915:1927   */\n  revert\n    /* \"#utility.yul\":1939:2061   */\ntag_23:\n    /* \"#utility.yul\":2012:2036   */\n  tag_55\n    /* \"#utility.yul\":2030:2035   */\n  dup2\n    /* \"#utility.yul\":2012:2036   */\n  tag_41\n  jump\t// in\ntag_55:\n    /* \"#utility.yul\":2005:2010   */\n  dup2\n    /* \"#utility.yul\":2002:2037   */\n  eq\n    /* \"#utility.yul\":1992:2055   */\n  tag_56\n  jumpi\n    /* \"#utility.yul\":2051:2052   */\n  0x00\n    /* \"#utility.yul\":2048:2049   */\n  dup1\n    /* \"#utility.yul\":2041:2053   */\n  revert\n    /* \"#utility.yul\":1992:2055   */\ntag_56:\n    /* \"#utility.yul\":1939:2061   */\n  pop\n  jump\t// out\n    /* \"#utility.yul\":2067:2217   */\ntag_27:\n    /* \"#utility.yul\":2154:2192   */\n  tag_58\n    /* \"#utility.yul\":2186:2191   */\n  dup2\n    /* \"#utility.yul\":2154:2192   */\n  tag_45\n  jump\t// in\ntag_58:\n    /* \"#utility.yul\":2147:2152   */\n  dup2\n    /* \"#utility.yul\":2144:2193   */\n  eq\n    /* \"#utility.yul\":2134:2211   */\n  tag_59\n  jumpi\n    /* \"#utility.yul\":2207:2208   */\n  0x00\n    /* \"#utility.yul\":2204:2205   */\n  dup1\n    /* \"#utility.yul\":2197:2209   */\n  revert\n    /* \"#utility.yul\":2134:2211   */\ntag_59:\n    /* \"#utility.yul\":2067:2217   */\n  pop\n  jump\t// out\n    /* \"#utility.yul\":2223:2345   */\ntag_31:\n    /* \"#utility.yul\":2296:2320   */\n  tag_61\n    /* \"#utility.yul\":2314:2319   */\n  dup2\n    /* \"#utility.yul\":2296:2320   */\n  tag_49\n  jump\t// in\ntag_61:\n    /* \"#utility.yul\":2289:2294   */\n  dup2\n    /* \"#utility.yul\":2286:2321   */\n  eq\n    /* \"#utility.yul\":2276:2339   */\n  tag_62\n  jumpi\n    /* \"#utility.yul\":2335:2336   */\n  0x00\n    /* \"#utility.yul\":2332:2333   */\n  dup1\n    /* \"#utility.yul\":2325:2337   */\n  revert\n    /* \"#utility.yul\":2276:2339   */\ntag_62:\n    /* \"#utility.yul\":2223:2345   */\n  pop\n  jump\t// out\n    /* \"source/Farm.sol\":28878:33989  contract Farm is ReentrancyGuard, Pausable, Ownable {\r... */\ntag_16:\n  dataSize(sub_0)\n  dup1\n  dataOffset(sub_0)\n  0x00\n  codecopy\n  0x00\n  return\nstop\n\nsub_0: assembly {\n        /* \"source/Farm.sol\":28878:33989  contract Farm is ReentrancyGuard, Pausable, Ownable {\r... */\n      mstore(0x40, 0x80)\n      callvalue\n      dup1\n      iszero\n      tag_1\n      jumpi\n      0x00\n      dup1\n      revert\n    tag_1:\n      pop\n      jumpi(tag_2, lt(calldatasize, 0x04))\n      shr(0xe0, calldataload(0x00))\n      dup1\n      0x8e7271fa\n      gt\n      tag_20\n      jumpi\n      dup1\n      0xb5a5e509\n      gt\n      tag_21\n      jumpi\n      dup1\n      0xb5a5e509\n      eq\n      tag_15\n      jumpi\n      dup1\n      0xd1af0c7d\n      eq\n      tag_16\n      jumpi\n      dup1\n      0xf2fde38b\n      eq\n      tag_17\n      jumpi\n      dup1\n      0xf854a27f\n      eq\n      tag_18\n      jumpi\n      dup1\n      0xf995441b\n      eq\n      tag_19\n      jumpi\n      jump(tag_2)\n    tag_21:\n      dup1\n      0x8e7271fa\n      eq\n      tag_11\n      jumpi\n      dup1\n      0x9168ae72\n      eq\n      tag_12\n      jumpi\n      dup1\n      0x94067045\n      eq\n      tag_13\n      jumpi\n      dup1\n      0xa694fc3a\n      eq\n      tag_14\n      jumpi\n      jump(tag_2)\n    tag_20:\n      dup1\n      0x63c28db1\n      gt\n      tag_22\n      jumpi\n      dup1\n      0x63c28db1\n      eq\n      tag_7\n      jumpi\n      dup1\n      0x6588103b\n      eq\n      tag_8\n      jumpi\n      dup1\n      0x715018a6\n      eq\n      tag_9\n      jumpi\n      dup1\n      0x8da5cb5b\n      eq\n      tag_10\n      jumpi\n      jump(tag_2)\n    tag_22:\n      dup1\n      0x2e1a7d4d\n      eq\n      tag_3\n      jumpi\n      dup1\n      0x372500ab\n      eq\n      tag_4\n      jumpi\n      dup1\n      0x54fd4d50\n      eq\n      tag_5\n      jumpi\n      dup1\n      0x5c975abb\n      eq\n      tag_6\n      jumpi\n    tag_2:\n      0x00\n      dup1\n      revert\n        /* \"source/Farm.sol\":31185:32377  function withdraw(uint256 _tokenId) external nonReentrant {\r... */\n    tag_3:\n      tag_23\n      0x04\n      dup1\n      calldatasize\n      sub\n      dup2\n      add\n      swap1\n      tag_24\n      swap2\n      swap1\n      tag_25\n      jump\t// in\n    tag_24:\n      tag_26\n      jump\t// in\n    tag_23:\n      stop\n        /* \"source/Farm.sol\":32693:33079  function claimRewards() external {\r... */\n    tag_4:\n      tag_27\n      tag_28\n      jump\t// in\n    tag_27:\n      stop\n        /* \"source/Farm.sol\":29487:29513  uint256 public version = 2 */\n    tag_5:\n      tag_29\n      tag_30\n      jump\t// in\n    tag_29:\n      mload(0x40)\n      tag_31\n      swap2\n      swap1\n      tag_32\n      jump\t// in\n    tag_31:\n      mload(0x40)\n      dup1\n      swap2\n      sub\n      swap1\n      return\n        /* \"source/Farm.sol\":15972:16058  function paused() public view virtual returns (bool) {\r... */\n    tag_6:\n      tag_33\n      tag_34\n      jump\t// in\n    tag_33:\n      mload(0x40)\n      tag_35\n      swap2\n      swap1\n      tag_36\n      jump\t// in\n    tag_35:\n      mload(0x40)\n      dup1\n      swap2\n      sub\n      swap1\n      return\n        /* \"source/Farm.sol\":33087:33767  function getStakedTokens(address _user) public view returns (StakedToken[] memory) {\r... */\n    tag_7:\n      tag_37\n      0x04\n      dup1\n      calldatasize\n      sub\n      dup2\n      add\n      swap1\n      tag_38\n      swap2\n      swap1\n      tag_39\n      jump\t// in\n    tag_38:\n      tag_40\n      jump\t// in\n    tag_37:\n      mload(0x40)\n      tag_41\n      swap2\n      swap1\n      tag_42\n      jump\t// in\n    tag_41:\n      mload(0x40)\n      dup1\n      swap2\n      sub\n      swap1\n      return\n        /* \"source/Farm.sol\":29310:29338  IERC721 public nftCollection */\n    tag_8:\n      tag_43\n      tag_44\n      jump\t// in\n    tag_43:\n      mload(0x40)\n      tag_45\n      swap2\n      swap1\n      tag_46\n      jump\t// in\n    tag_45:\n      mload(0x40)\n      dup1\n      swap2\n      sub\n      swap1\n      return\n        /* \"source/Farm.sol\":28059:28162  function renounceOwnership() public virtual onlyOwner {\r... */\n    tag_9:\n      tag_47\n      tag_48\n      jump\t// in\n    tag_47:\n      stop\n        /* \"source/Farm.sol\":27411:27498  function owner() public view virtual returns (address) {\r... */\n    tag_10:\n      tag_49\n      tag_50\n      jump\t// in\n    tag_49:\n      mload(0x40)\n      tag_51\n      swap2\n      swap1\n      tag_52\n      jump\t// in\n    tag_51:\n      mload(0x40)\n      dup1\n      swap2\n      sub\n      swap1\n      return\n        /* \"source/Farm.sol\":29440:29478  uint256 public rewardsPerHour = 100000 */\n    tag_11:\n      tag_53\n      tag_54\n      jump\t// in\n    tag_53:\n      mload(0x40)\n      tag_55\n      swap2\n      swap1\n      tag_32\n      jump\t// in\n    tag_55:\n      mload(0x40)\n      dup1\n      swap2\n      sub\n      swap1\n      return\n        /* \"source/Farm.sol\":29526:29567  mapping(address => Staker) public stakers */\n    tag_12:\n      tag_56\n      0x04\n      dup1\n      calldatasize\n      sub\n      dup2\n      add\n      swap1\n      tag_57\n      swap2\n      swap1\n      tag_39\n      jump\t// in\n    tag_57:\n      tag_58\n      jump\t// in\n    tag_56:\n      mload(0x40)\n      tag_59\n      swap4\n      swap3\n      swap2\n      swap1\n      tag_60\n      jump\t// in\n    tag_59:\n      mload(0x40)\n      dup1\n      swap2\n      sub\n      swap1\n      return\n        /* \"source/Farm.sol\":29653:29701  mapping(uint256 => address) public stakerAddress */\n    tag_13:\n      tag_61\n      0x04\n      dup1\n      calldatasize\n      sub\n      dup2\n      add\n      swap1\n      tag_62\n      swap2\n      swap1\n      tag_25\n      jump\t// in\n    tag_62:\n      tag_63\n      jump\t// in\n    tag_61:\n      mload(0x40)\n      tag_64\n      swap2\n      swap1\n      tag_52\n      jump\t// in\n    tag_64:\n      mload(0x40)\n      dup1\n      swap2\n      sub\n      swap1\n      return\n        /* \"source/Farm.sol\":31061:31177  function stake(uint256 _tokenId) external nonReentrant whenNotPaused {\r... */\n    tag_14:\n      tag_65\n      0x04\n      dup1\n      calldatasize\n      sub\n      dup2\n      add\n      swap1\n      tag_66\n      swap2\n      swap1\n      tag_25\n      jump\t// in\n    tag_66:\n      tag_67\n      jump\t// in\n    tag_65:\n      stop\n        /* \"source/Farm.sol\":29989:30111  function setRewardsPerHour(uint256 _rewardsPerHour) external onlyOwner {\r... */\n    tag_15:\n      tag_68\n      0x04\n      dup1\n      calldatasize\n      sub\n      dup2\n      add\n      swap1\n      tag_69\n      swap2\n      swap1\n      tag_25\n      jump\t// in\n    tag_69:\n      tag_70\n      jump\t// in\n    tag_68:\n      stop\n        /* \"source/Farm.sol\":29277:29303  IERC20 public rewardsToken */\n    tag_16:\n      tag_71\n      tag_72\n      jump\t// in\n    tag_71:\n      mload(0x40)\n      tag_73\n      swap2\n      swap1\n      tag_74\n      jump\t// in\n    tag_73:\n      mload(0x40)\n      dup1\n      swap2\n      sub\n      swap1\n      return\n        /* \"source/Farm.sol\":28317:28518  function transferOwnership(address newOwner) public virtual onlyOwner {\r... */\n    tag_17:\n      tag_75\n      0x04\n      dup1\n      calldatasize\n      sub\n      dup2\n      add\n      swap1\n      tag_76\n      swap2\n      swap1\n      tag_39\n      jump\t// in\n    tag_76:\n      tag_77\n      jump\t// in\n    tag_75:\n      stop\n        /* \"source/Farm.sol\":33775:33984  function availableRewards(address _staker) public view returns (uint256) {\r... */\n    tag_18:\n      tag_78\n      0x04\n      dup1\n      calldatasize\n      sub\n      dup2\n      add\n      swap1\n      tag_79\n      swap2\n      swap1\n      tag_39\n      jump\t// in\n    tag_79:\n      tag_80\n      jump\t// in\n    tag_78:\n      mload(0x40)\n      tag_81\n      swap2\n      swap1\n      tag_32\n      jump\t// in\n    tag_81:\n      mload(0x40)\n      dup1\n      swap2\n      sub\n      swap1\n      return\n        /* \"source/Farm.sol\":30858:31053  function adminWithdrawRewards() external onlyOwner whenPaused {\r... */\n    tag_19:\n      tag_82\n      tag_83\n      jump\t// in\n    tag_82:\n      stop\n        /* \"source/Farm.sol\":31185:32377  function withdraw(uint256 _tokenId) external nonReentrant {\r... */\n    tag_26:\n        /* \"source/Farm.sol\":18356:18377  _nonReentrantBefore() */\n      tag_85\n        /* \"source/Farm.sol\":18356:18375  _nonReentrantBefore */\n      tag_86\n        /* \"source/Farm.sol\":18356:18377  _nonReentrantBefore() */\n      jump\t// in\n    tag_85:\n        /* \"source/Farm.sol\":31311:31312  0 */\n      0x00\n        /* \"source/Farm.sol\":31276:31283  stakers */\n      0x07\n        /* \"source/Farm.sol\":31276:31295  stakers[msg.sender] */\n      0x00\n        /* \"source/Farm.sol\":31284:31294  msg.sender */\n      caller\n        /* \"source/Farm.sol\":31276:31295  stakers[msg.sender] */\n      0xffffffffffffffffffffffffffffffffffffffff\n      and\n      0xffffffffffffffffffffffffffffffffffffffff\n      and\n      dup2\n      mstore\n      0x20\n      add\n      swap1\n      dup2\n      mstore\n      0x20\n      add\n      0x00\n      keccak256\n        /* \"source/Farm.sol\":31276:31308  stakers[msg.sender].amountStaked */\n      0x00\n      add\n      sload\n        /* \"source/Farm.sol\":31276:31312  stakers[msg.sender].amountStaked > 0 */\n      gt\n        /* \"source/Farm.sol\":31254:31365  require(\r... */\n      tag_88\n      jumpi\n      mload(0x40)\n      0x08c379a000000000000000000000000000000000000000000000000000000000\n      dup2\n      mstore\n      0x04\n      add\n      tag_89\n      swap1\n      tag_90\n      jump\t// in\n    tag_89:\n      mload(0x40)\n      dup1\n      swap2\n      sub\n      swap1\n      revert\n    tag_88:\n        /* \"source/Farm.sol\":31411:31421  msg.sender */\n      caller\n        /* \"source/Farm.sol\":31384:31421  stakerAddress[_tokenId] == msg.sender */\n      0xffffffffffffffffffffffffffffffffffffffff\n      and\n        /* \"source/Farm.sol\":31384:31397  stakerAddress */\n      0x08\n        /* \"source/Farm.sol\":31384:31407  stakerAddress[_tokenId] */\n      0x00\n        /* \"source/Farm.sol\":31398:31406  _tokenId */\n      dup4\n        /* \"source/Farm.sol\":31384:31407  stakerAddress[_tokenId] */\n      dup2\n      mstore\n      0x20\n      add\n      swap1\n      dup2\n      mstore\n      0x20\n      add\n      0x00\n      keccak256\n      0x00\n      swap1\n      sload\n      swap1\n      0x0100\n      exp\n      swap1\n      div\n      0xffffffffffffffffffffffffffffffffffffffff\n      and\n        /* \"source/Farm.sol\":31384:31421  stakerAddress[_tokenId] == msg.sender */\n      0xffffffffffffffffffffffffffffffffffffffff\n      and\n      eq\n        /* \"source/Farm.sol\":31376:31451  require(stakerAddress[_tokenId] == msg.sender, \"You don't own this token!\") */\n      tag_91\n      jumpi\n      mload(0x40)\n      0x08c379a000000000000000000000000000000000000000000000000000000000\n      dup2\n      mstore\n      0x04\n      add\n      tag_92\n      swap1\n      tag_93\n      jump\t// in\n    tag_92:\n      mload(0x40)\n      dup1\n      swap2\n      sub\n      swap1\n      revert\n    tag_91:\n        /* \"source/Farm.sol\":31563:31578  uint256 rewards */\n      0x00\n        /* \"source/Farm.sol\":31581:31609  calculateRewards(msg.sender) */\n      tag_94\n        /* \"source/Farm.sol\":31598:31608  msg.sender */\n      caller\n        /* \"source/Farm.sol\":31581:31597  calculateRewards */\n      tag_95\n        /* \"source/Farm.sol\":31581:31609  calculateRewards(msg.sender) */\n      jump\t// in\n    tag_94:\n        /* \"source/Farm.sol\":31563:31609  uint256 rewards = calculateRewards(msg.sender) */\n      swap1\n      pop\n        /* \"source/Farm.sol\":31660:31667  rewards */\n      dup1\n        /* \"source/Farm.sol\":31620:31627  stakers */\n      0x07\n        /* \"source/Farm.sol\":31620:31639  stakers[msg.sender] */\n      0x00\n        /* \"source/Farm.sol\":31628:31638  msg.sender */\n      caller\n        /* \"source/Farm.sol\":31620:31639  stakers[msg.sender] */\n      0xffffffffffffffffffffffffffffffffffffffff\n      and\n      0xffffffffffffffffffffffffffffffffffffffff\n      and\n      dup2\n      mstore\n      0x20\n      add\n      swap1\n      dup2\n      mstore\n      0x20\n      add\n      0x00\n      keccak256\n        /* \"source/Farm.sol\":31620:31656  stakers[msg.sender].unclaimedRewards */\n      0x03\n      add\n      0x00\n        /* \"source/Farm.sol\":31620:31667  stakers[msg.sender].unclaimedRewards += rewards */\n      dup3\n      dup3\n      sload\n      tag_96\n      swap2\n      swap1\n      tag_97\n      jump\t// in\n    tag_96:\n      swap3\n      pop\n      pop\n      dup2\n      swap1\n      sstore\n      pop\n        /* \"source/Farm.sol\":31682:31695  uint256 index */\n      0x00\n        /* \"source/Farm.sol\":31715:31724  uint256 i */\n      dup1\n        /* \"source/Farm.sol\":31710:32063  for (uint256 i = 0; i < stakers[msg.sender].stakedTokens.length; i++) {\r... */\n    tag_98:\n        /* \"source/Farm.sol\":31734:31741  stakers */\n      0x07\n        /* \"source/Farm.sol\":31734:31753  stakers[msg.sender] */\n      0x00\n        /* \"source/Farm.sol\":31742:31752  msg.sender */\n      caller\n        /* \"source/Farm.sol\":31734:31753  stakers[msg.sender] */\n      0xffffffffffffffffffffffffffffffffffffffff\n      and\n      0xffffffffffffffffffffffffffffffffffffffff\n      and\n      dup2\n      mstore\n      0x20\n      add\n      swap1\n      dup2\n      mstore\n      0x20\n      add\n      0x00\n      keccak256\n        /* \"source/Farm.sol\":31734:31766  stakers[msg.sender].stakedTokens */\n      0x01\n      add\n        /* \"source/Farm.sol\":31734:31773  stakers[msg.sender].stakedTokens.length */\n      dup1\n      sload\n      swap1\n      pop\n        /* \"source/Farm.sol\":31730:31731  i */\n      dup2\n        /* \"source/Farm.sol\":31730:31773  i < stakers[msg.sender].stakedTokens.length */\n      lt\n        /* \"source/Farm.sol\":31710:32063  for (uint256 i = 0; i < stakers[msg.sender].stakedTokens.length; i++) {\r... */\n      iszero\n      tag_99\n      jumpi\n        /* \"source/Farm.sol\":31864:31872  _tokenId */\n      dup4\n        /* \"source/Farm.sol\":31817:31824  stakers */\n      0x07\n        /* \"source/Farm.sol\":31817:31836  stakers[msg.sender] */\n      0x00\n        /* \"source/Farm.sol\":31825:31835  msg.sender */\n      caller\n        /* \"source/Farm.sol\":31817:31836  stakers[msg.sender] */\n      0xffffffffffffffffffffffffffffffffffffffff\n      and\n      0xffffffffffffffffffffffffffffffffffffffff\n      and\n      dup2\n      mstore\n      0x20\n      add\n      swap1\n      dup2\n      mstore\n      0x20\n      add\n      0x00\n      keccak256\n        /* \"source/Farm.sol\":31817:31849  stakers[msg.sender].stakedTokens */\n      0x01\n      add\n        /* \"source/Farm.sol\":31850:31851  i */\n      dup3\n        /* \"source/Farm.sol\":31817:31852  stakers[msg.sender].stakedTokens[i] */\n      dup2\n      sload\n      dup2\n      lt\n      tag_101\n      jumpi\n      tag_102\n      tag_103\n      jump\t// in\n    tag_102:\n    tag_101:\n      swap1\n      0x00\n      mstore\n      keccak256(0x00, 0x20)\n      swap1\n      0x02\n      mul\n      add\n        /* \"source/Farm.sol\":31817:31860  stakers[msg.sender].stakedTokens[i].tokenId */\n      0x01\n      add\n      sload\n        /* \"source/Farm.sol\":31817:31872  stakers[msg.sender].stakedTokens[i].tokenId == _tokenId */\n      eq\n        /* \"source/Farm.sol\":31817:31968  stakers[msg.sender].stakedTokens[i].tokenId == _tokenId \r... */\n      dup1\n      iszero\n      tag_105\n      jumpi\n      pop\n        /* \"source/Farm.sol\":31966:31967  0 */\n      0x00\n        /* \"source/Farm.sol\":31912:31968  stakers[msg.sender].stakedTokens[i].staker != address(0) */\n      0xffffffffffffffffffffffffffffffffffffffff\n      and\n        /* \"source/Farm.sol\":31912:31919  stakers */\n      0x07\n        /* \"source/Farm.sol\":31912:31931  stakers[msg.sender] */\n      0x00\n        /* \"source/Farm.sol\":31920:31930  msg.sender */\n      caller\n        /* \"source/Farm.sol\":31912:31931  stakers[msg.sender] */\n      0xffffffffffffffffffffffffffffffffffffffff\n      and\n      0xffffffffffffffffffffffffffffffffffffffff\n      and\n      dup2\n      mstore\n      0x20\n      add\n      swap1\n      dup2\n      mstore\n      0x20\n      add\n      0x00\n      keccak256\n        /* \"source/Farm.sol\":31912:31944  stakers[msg.sender].stakedTokens */\n      0x01\n      add\n        /* \"source/Farm.sol\":31945:31946  i */\n      dup3\n        /* \"source/Farm.sol\":31912:31947  stakers[msg.sender].stakedTokens[i] */\n      dup2\n      sload\n      dup2\n      lt\n      tag_106\n      jumpi\n      tag_107\n      tag_103\n      jump\t// in\n    tag_107:\n    tag_106:\n      swap1\n      0x00\n      mstore\n      keccak256(0x00, 0x20)\n      swap1\n      0x02\n      mul\n      add\n        /* \"source/Farm.sol\":31912:31954  stakers[msg.sender].stakedTokens[i].staker */\n      0x00\n      add\n      0x00\n      swap1\n      sload\n      swap1\n      0x0100\n      exp\n      swap1\n      div\n      0xffffffffffffffffffffffffffffffffffffffff\n      and\n        /* \"source/Farm.sol\":31912:31968  stakers[msg.sender].stakedTokens[i].staker != address(0) */\n      0xffffffffffffffffffffffffffffffffffffffff\n      and\n      eq\n      iszero\n        /* \"source/Farm.sol\":31817:31968  stakers[msg.sender].stakedTokens[i].tokenId == _tokenId \r... */\n    tag_105:\n        /* \"source/Farm.sol\":31795:32052  if (\r... */\n      iszero\n      tag_109\n      jumpi\n        /* \"source/Farm.sol\":32011:32012  i */\n      dup1\n        /* \"source/Farm.sol\":32003:32012  index = i */\n      swap2\n      pop\n        /* \"source/Farm.sol\":32031:32036  break */\n      jump(tag_99)\n        /* \"source/Farm.sol\":31795:32052  if (\r... */\n    tag_109:\n        /* \"source/Farm.sol\":31775:31778  i++ */\n      dup1\n      dup1\n      tag_110\n      swap1\n      tag_111\n      jump\t// in\n    tag_110:\n      swap2\n      pop\n      pop\n        /* \"source/Farm.sol\":31710:32063  for (uint256 i = 0; i < stakers[msg.sender].stakedTokens.length; i++) {\r... */\n      jump(tag_98)\n    tag_99:\n      pop\n        /* \"source/Farm.sol\":32134:32135  0 */\n      0x00\n        /* \"source/Farm.sol\":32077:32084  stakers */\n      0x07\n        /* \"source/Farm.sol\":32077:32096  stakers[msg.sender] */\n      0x00\n        /* \"source/Farm.sol\":32085:32095  msg.sender */\n      caller\n        /* \"source/Farm.sol\":32077:32096  stakers[msg.sender] */\n      0xffffffffffffffffffffffffffffffffffffffff\n      and\n      0xffffffffffffffffffffffffffffffffffffffff\n      and\n      dup2\n      mstore\n      0x20\n      add\n      swap1\n      dup2\n      mstore\n      0x20\n      add\n      0x00\n      keccak256\n        /* \"source/Farm.sol\":32077:32109  stakers[msg.sender].stakedTokens */\n      0x01\n      add\n        /* \"source/Farm.sol\":32110:32115  index */\n      dup3\n        /* \"source/Farm.sol\":32077:32116  stakers[msg.sender].stakedTokens[index] */\n      dup2\n      sload\n      dup2\n      lt\n      tag_112\n      jumpi\n      tag_113\n      tag_103\n      jump\t// in\n    tag_113:\n    tag_112:\n      swap1\n      0x00\n      mstore\n      keccak256(0x00, 0x20)\n      swap1\n      0x02\n      mul\n      add\n        /* \"source/Farm.sol\":32077:32123  stakers[msg.sender].stakedTokens[index].staker */\n      0x00\n      add\n      0x00\n        /* \"source/Farm.sol\":32077:32136  stakers[msg.sender].stakedTokens[index].staker = address(0) */\n      0x0100\n      exp\n      dup2\n      sload\n      dup2\n      0xffffffffffffffffffffffffffffffffffffffff\n      mul\n      not\n      and\n      swap1\n      dup4\n      0xffffffffffffffffffffffffffffffffffffffff\n      and\n      mul\n      or\n      swap1\n      sstore\n      pop\n        /* \"source/Farm.sol\":32147:32154  stakers */\n      0x07\n        /* \"source/Farm.sol\":32147:32166  stakers[msg.sender] */\n      0x00\n        /* \"source/Farm.sol\":32155:32165  msg.sender */\n      caller\n        /* \"source/Farm.sol\":32147:32166  stakers[msg.sender] */\n      0xffffffffffffffffffffffffffffffffffffffff\n      and\n      0xffffffffffffffffffffffffffffffffffffffff\n      and\n      dup2\n      mstore\n      0x20\n      add\n      swap1\n      dup2\n      mstore\n      0x20\n      add\n      0x00\n      keccak256\n        /* \"source/Farm.sol\":32147:32179  stakers[msg.sender].amountStaked */\n      0x00\n      add\n      0x00\n        /* \"source/Farm.sol\":32147:32181  stakers[msg.sender].amountStaked-- */\n      dup2\n      sload\n      dup1\n      swap3\n      swap2\n      swap1\n      tag_115\n      swap1\n      tag_116\n      jump\t// in\n    tag_115:\n      swap2\n      swap1\n      pop\n      sstore\n      pop\n        /* \"source/Farm.sol\":32226:32227  0 */\n      0x00\n        /* \"source/Farm.sol\":32192:32205  stakerAddress */\n      0x08\n        /* \"source/Farm.sol\":32192:32215  stakerAddress[_tokenId] */\n      0x00\n        /* \"source/Farm.sol\":32206:32214  _tokenId */\n      dup6\n        /* \"source/Farm.sol\":32192:32215  stakerAddress[_tokenId] */\n      dup2\n      mstore\n      0x20\n      add\n      swap1\n      dup2\n      mstore\n      0x20\n      add\n      0x00\n      keccak256\n      0x00\n        /* \"source/Farm.sol\":32192:32228  stakerAddress[_tokenId] = address(0) */\n      0x0100\n      exp\n      dup2\n      sload\n      dup2\n      0xffffffffffffffffffffffffffffffffffffffff\n      mul\n      not\n      and\n      swap1\n      dup4\n      0xffffffffffffffffffffffffffffffffffffffff\n      and\n      mul\n      or\n      swap1\n      sstore\n      pop\n        /* \"source/Farm.sol\":32241:32254  nftCollection */\n      0x03\n      0x00\n      swap1\n      sload\n      swap1\n      0x0100\n      exp\n      swap1\n      div\n      0xffffffffffffffffffffffffffffffffffffffff\n      and\n        /* \"source/Farm.sol\":32241:32267  nftCollection.transferFrom */\n      0xffffffffffffffffffffffffffffffffffffffff\n      and\n      0x23b872dd\n        /* \"source/Farm.sol\":32276:32280  this */\n      address\n        /* \"source/Farm.sol\":32283:32293  msg.sender */\n      caller\n        /* \"source/Farm.sol\":32295:32303  _tokenId */\n      dup7\n        /* \"source/Farm.sol\":32241:32304  nftCollection.transferFrom(address(this), msg.sender, _tokenId) */\n      mload(0x40)\n      dup5\n      0xffffffff\n      and\n      0xe0\n      shl\n      dup2\n      mstore\n      0x04\n      add\n      tag_117\n      swap4\n      swap3\n      swap2\n      swap1\n      tag_118\n      jump\t// in\n    tag_117:\n      0x00\n      mload(0x40)\n      dup1\n      dup4\n      sub\n      dup2\n      0x00\n      dup8\n      dup1\n      extcodesize\n      iszero\n      dup1\n      iszero\n      tag_119\n      jumpi\n      0x00\n      dup1\n      revert\n    tag_119:\n      pop\n      gas\n      call\n      iszero\n      dup1\n      iszero\n      tag_121\n      jumpi\n      returndatasize\n      0x00\n      dup1\n      returndatacopy\n      revert(0x00, returndatasize)\n    tag_121:\n      pop\n      pop\n      pop\n      pop\n        /* \"source/Farm.sol\":32354:32369  block.timestamp */\n      timestamp\n        /* \"source/Farm.sol\":32315:32322  stakers */\n      0x07\n        /* \"source/Farm.sol\":32315:32334  stakers[msg.sender] */\n      0x00\n        /* \"source/Farm.sol\":32323:32333  msg.sender */\n      caller\n        /* \"source/Farm.sol\":32315:32334  stakers[msg.sender] */\n      0xffffffffffffffffffffffffffffffffffffffff\n      and\n      0xffffffffffffffffffffffffffffffffffffffff\n      and\n      dup2\n      mstore\n      0x20\n      add\n      swap1\n      dup2\n      mstore\n      0x20\n      add\n      0x00\n      keccak256\n        /* \"source/Farm.sol\":32315:32351  stakers[msg.sender].timeOfLastUpdate */\n      0x02\n      add\n        /* \"source/Farm.sol\":32315:32369  stakers[msg.sender].timeOfLastUpdate = block.timestamp */\n      dup2\n      swap1\n      sstore\n      pop\n        /* \"source/Farm.sol\":31243:32377  {\r... */\n      pop\n      pop\n        /* \"source/Farm.sol\":18400:18420  _nonReentrantAfter() */\n      tag_122\n        /* \"source/Farm.sol\":18400:18418  _nonReentrantAfter */\n      tag_123\n        /* \"source/Farm.sol\":18400:18420  _nonReentrantAfter() */\n      jump\t// in\n    tag_122:\n        /* \"source/Farm.sol\":31185:32377  function withdraw(uint256 _tokenId) external nonReentrant {\r... */\n      pop\n      jump\t// out\n        /* \"source/Farm.sol\":32693:33079  function claimRewards() external {\r... */\n    tag_28:\n        /* \"source/Farm.sol\":32737:32752  uint256 rewards */\n      0x00\n        /* \"source/Farm.sol\":32799:32806  stakers */\n      0x07\n        /* \"source/Farm.sol\":32799:32818  stakers[msg.sender] */\n      0x00\n        /* \"source/Farm.sol\":32807:32817  msg.sender */\n      caller\n        /* \"source/Farm.sol\":32799:32818  stakers[msg.sender] */\n      0xffffffffffffffffffffffffffffffffffffffff\n      and\n      0xffffffffffffffffffffffffffffffffffffffff\n      and\n      dup2\n      mstore\n      0x20\n      add\n      swap1\n      dup2\n      mstore\n      0x20\n      add\n      0x00\n      keccak256\n        /* \"source/Farm.sol\":32799:32835  stakers[msg.sender].unclaimedRewards */\n      0x03\n      add\n      sload\n        /* \"source/Farm.sol\":32755:32783  calculateRewards(msg.sender) */\n      tag_125\n        /* \"source/Farm.sol\":32772:32782  msg.sender */\n      caller\n        /* \"source/Farm.sol\":32755:32771  calculateRewards */\n      tag_95\n        /* \"source/Farm.sol\":32755:32783  calculateRewards(msg.sender) */\n      jump\t// in\n    tag_125:\n        /* \"source/Farm.sol\":32755:32835  calculateRewards(msg.sender) +\r... */\n      tag_126\n      swap2\n      swap1\n      tag_97\n      jump\t// in\n    tag_126:\n        /* \"source/Farm.sol\":32737:32835  uint256 rewards = calculateRewards(msg.sender) +\r... */\n      swap1\n      pop\n        /* \"source/Farm.sol\":32864:32865  0 */\n      0x00\n        /* \"source/Farm.sol\":32854:32861  rewards */\n      dup2\n        /* \"source/Farm.sol\":32854:32865  rewards > 0 */\n      gt\n        /* \"source/Farm.sol\":32846:32898  require(rewards > 0, \"You have no rewards to claim\") */\n      tag_127\n      jumpi\n      mload(0x40)\n      0x08c379a000000000000000000000000000000000000000000000000000000000\n      dup2\n      mstore\n      0x04\n      add\n      tag_128\n      swap1\n      tag_129\n      jump\t// in\n    tag_128:\n      mload(0x40)\n      dup1\n      swap2\n      sub\n      swap1\n      revert\n    tag_127:\n        /* \"source/Farm.sol\":32948:32963  block.timestamp */\n      timestamp\n        /* \"source/Farm.sol\":32909:32916  stakers */\n      0x07\n        /* \"source/Farm.sol\":32909:32928  stakers[msg.sender] */\n      0x00\n        /* \"source/Farm.sol\":32917:32927  msg.sender */\n      caller\n        /* \"source/Farm.sol\":32909:32928  stakers[msg.sender] */\n      0xffffffffffffffffffffffffffffffffffffffff\n      and\n      0xffffffffffffffffffffffffffffffffffffffff\n      and\n      dup2\n      mstore\n      0x20\n      add\n      swap1\n      dup2\n      mstore\n      0x20\n      add\n      0x00\n      keccak256\n        /* \"source/Farm.sol\":32909:32945  stakers[msg.sender].timeOfLastUpdate */\n      0x02\n      add\n        /* \"source/Farm.sol\":32909:32963  stakers[msg.sender].timeOfLastUpdate = block.timestamp */\n      dup2\n      swap1\n      sstore\n      pop\n        /* \"source/Farm.sol\":33013:33014  0 */\n      0x00\n        /* \"source/Farm.sol\":32974:32981  stakers */\n      0x07\n        /* \"source/Farm.sol\":32974:32993  stakers[msg.sender] */\n      0x00\n        /* \"source/Farm.sol\":32982:32992  msg.sender */\n      caller\n        /* \"source/Farm.sol\":32974:32993  stakers[msg.sender] */\n      0xffffffffffffffffffffffffffffffffffffffff\n      and\n      0xffffffffffffffffffffffffffffffffffffffff\n      and\n      dup2\n      mstore\n      0x20\n      add\n      swap1\n      dup2\n      mstore\n      0x20\n      add\n      0x00\n      keccak256\n        /* \"source/Farm.sol\":32974:33010  stakers[msg.sender].unclaimedRewards */\n      0x03\n      add\n        /* \"source/Farm.sol\":32974:33014  stakers[msg.sender].unclaimedRewards = 0 */\n      dup2\n      swap1\n      sstore\n      pop\n        /* \"source/Farm.sol\":33025:33071  rewardsToken.safeTransfer(msg.sender, rewards) */\n      tag_130\n        /* \"source/Farm.sol\":33051:33061  msg.sender */\n      caller\n        /* \"source/Farm.sol\":33063:33070  rewards */\n      dup3\n        /* \"source/Farm.sol\":33025:33037  rewardsToken */\n      0x02\n      0x00\n      swap1\n      sload\n      swap1\n      0x0100\n      exp\n      swap1\n      div\n      0xffffffffffffffffffffffffffffffffffffffff\n      and\n        /* \"source/Farm.sol\":33025:33050  rewardsToken.safeTransfer */\n      0xffffffffffffffffffffffffffffffffffffffff\n      and\n      tag_131\n      swap1\n        /* \"source/Farm.sol\":33025:33071  rewardsToken.safeTransfer(msg.sender, rewards) */\n      swap3\n      swap2\n      swap1\n      0xffffffff\n      and\n      jump\t// in\n    tag_130:\n        /* \"source/Farm.sol\":32726:33079  {\r... */\n      pop\n        /* \"source/Farm.sol\":32693:33079  function claimRewards() external {\r... */\n      jump\t// out\n        /* \"source/Farm.sol\":29487:29513  uint256 public version = 2 */\n    tag_30:\n      sload(0x06)\n      dup2\n      jump\t// out\n        /* \"source/Farm.sol\":15972:16058  function paused() public view virtual returns (bool) {\r... */\n    tag_34:\n        /* \"source/Farm.sol\":16019:16023  bool */\n      0x00\n        /* \"source/Farm.sol\":16043:16050  _paused */\n      0x01\n      0x00\n      swap1\n      sload\n      swap1\n      0x0100\n      exp\n      swap1\n      div\n      0xff\n      and\n        /* \"source/Farm.sol\":16036:16050  return _paused */\n      swap1\n      pop\n        /* \"source/Farm.sol\":15972:16058  function paused() public view virtual returns (bool) {\r... */\n      swap1\n      jump\t// out\n        /* \"source/Farm.sol\":33087:33767  function getStakedTokens(address _user) public view returns (StakedToken[] memory) {\r... */\n    tag_40:\n        /* \"source/Farm.sol\":33148:33168  StakedToken[] memory */\n      0x60\n        /* \"source/Farm.sol\":33215:33216  0 */\n      0x00\n        /* \"source/Farm.sol\":33185:33192  stakers */\n      0x07\n        /* \"source/Farm.sol\":33185:33199  stakers[_user] */\n      0x00\n        /* \"source/Farm.sol\":33193:33198  _user */\n      dup5\n        /* \"source/Farm.sol\":33185:33199  stakers[_user] */\n      0xffffffffffffffffffffffffffffffffffffffff\n      and\n      0xffffffffffffffffffffffffffffffffffffffff\n      and\n      dup2\n      mstore\n      0x20\n      add\n      swap1\n      dup2\n      mstore\n      0x20\n      add\n      0x00\n      keccak256\n        /* \"source/Farm.sol\":33185:33212  stakers[_user].amountStaked */\n      0x00\n      add\n      sload\n        /* \"source/Farm.sol\":33185:33216  stakers[_user].amountStaked > 0 */\n      gt\n        /* \"source/Farm.sol\":33181:33760  if (stakers[_user].amountStaked > 0) {\r... */\n      iszero\n      tag_134\n      jumpi\n        /* \"source/Farm.sol\":33233:33267  StakedToken[] memory _stakedTokens */\n      0x00\n        /* \"source/Farm.sol\":33288:33295  stakers */\n      0x07\n        /* \"source/Farm.sol\":33288:33302  stakers[_user] */\n      0x00\n        /* \"source/Farm.sol\":33296:33301  _user */\n      dup5\n        /* \"source/Farm.sol\":33288:33302  stakers[_user] */\n      0xffffffffffffffffffffffffffffffffffffffff\n      and\n      0xffffffffffffffffffffffffffffffffffffffff\n      and\n      dup2\n      mstore\n      0x20\n      add\n      swap1\n      dup2\n      mstore\n      0x20\n      add\n      0x00\n      keccak256\n        /* \"source/Farm.sol\":33288:33315  stakers[_user].amountStaked */\n      0x00\n      add\n      sload\n        /* \"source/Farm.sol\":33270:33316  new StakedToken[](stakers[_user].amountStaked) */\n      0xffffffffffffffff\n      dup2\n      gt\n      iszero\n      tag_135\n      jumpi\n      tag_136\n      tag_137\n      jump\t// in\n    tag_136:\n    tag_135:\n      mload(0x40)\n      swap1\n      dup1\n      dup3\n      mstore\n      dup1\n      0x20\n      mul\n      0x20\n      add\n      dup3\n      add\n      0x40\n      mstore\n      dup1\n      iszero\n      tag_138\n      jumpi\n      dup2\n      0x20\n      add\n    tag_139:\n      tag_140\n      tag_141\n      jump\t// in\n    tag_140:\n      dup2\n      mstore\n      0x20\n      add\n      swap1\n      0x01\n      swap1\n      sub\n      swap1\n      dup2\n      tag_139\n      jumpi\n      swap1\n      pop\n    tag_138:\n      pop\n        /* \"source/Farm.sol\":33233:33316  StakedToken[] memory _stakedTokens = new StakedToken[](stakers[_user].amountStaked) */\n      swap1\n      pop\n        /* \"source/Farm.sol\":33331:33345  uint256 _index */\n      0x00\n        /* \"source/Farm.sol\":33371:33380  uint256 j */\n      dup1\n        /* \"source/Farm.sol\":33366:33652  for (uint256 j = 0; j < stakers[_user].stakedTokens.length; j++) {\r... */\n    tag_142:\n        /* \"source/Farm.sol\":33390:33397  stakers */\n      0x07\n        /* \"source/Farm.sol\":33390:33404  stakers[_user] */\n      0x00\n        /* \"source/Farm.sol\":33398:33403  _user */\n      dup7\n        /* \"source/Farm.sol\":33390:33404  stakers[_user] */\n      0xffffffffffffffffffffffffffffffffffffffff\n      and\n      0xffffffffffffffffffffffffffffffffffffffff\n      and\n      dup2\n      mstore\n      0x20\n      add\n      swap1\n      dup2\n      mstore\n      0x20\n      add\n      0x00\n      keccak256\n        /* \"source/Farm.sol\":33390:33417  stakers[_user].stakedTokens */\n      0x01\n      add\n        /* \"source/Farm.sol\":33390:33424  stakers[_user].stakedTokens.length */\n      dup1\n      sload\n      swap1\n      pop\n        /* \"source/Farm.sol\":33386:33387  j */\n      dup2\n        /* \"source/Farm.sol\":33386:33424  j < stakers[_user].stakedTokens.length */\n      lt\n        /* \"source/Farm.sol\":33366:33652  for (uint256 j = 0; j < stakers[_user].stakedTokens.length; j++) {\r... */\n      iszero\n      tag_143\n      jumpi\n        /* \"source/Farm.sol\":33504:33505  0 */\n      0x00\n        /* \"source/Farm.sol\":33454:33507  stakers[_user].stakedTokens[j].staker != (address(0)) */\n      0xffffffffffffffffffffffffffffffffffffffff\n      and\n        /* \"source/Farm.sol\":33454:33461  stakers */\n      0x07\n        /* \"source/Farm.sol\":33454:33468  stakers[_user] */\n      0x00\n        /* \"source/Farm.sol\":33462:33467  _user */\n      dup8\n        /* \"source/Farm.sol\":33454:33468  stakers[_user] */\n      0xffffffffffffffffffffffffffffffffffffffff\n      and\n      0xffffffffffffffffffffffffffffffffffffffff\n      and\n      dup2\n      mstore\n      0x20\n      add\n      swap1\n      dup2\n      mstore\n      0x20\n      add\n      0x00\n      keccak256\n        /* \"source/Farm.sol\":33454:33481  stakers[_user].stakedTokens */\n      0x01\n      add\n        /* \"source/Farm.sol\":33482:33483  j */\n      dup3\n        /* \"source/Farm.sol\":33454:33484  stakers[_user].stakedTokens[j] */\n      dup2\n      sload\n      dup2\n      lt\n      tag_145\n      jumpi\n      tag_146\n      tag_103\n      jump\t// in\n    tag_146:\n    tag_145:\n      swap1\n      0x00\n      mstore\n      keccak256(0x00, 0x20)\n      swap1\n      0x02\n      mul\n      add\n        /* \"source/Farm.sol\":33454:33491  stakers[_user].stakedTokens[j].staker */\n      0x00\n      add\n      0x00\n      swap1\n      sload\n      swap1\n      0x0100\n      exp\n      swap1\n      div\n      0xffffffffffffffffffffffffffffffffffffffff\n      and\n        /* \"source/Farm.sol\":33454:33507  stakers[_user].stakedTokens[j].staker != (address(0)) */\n      0xffffffffffffffffffffffffffffffffffffffff\n      and\n      eq\n        /* \"source/Farm.sol\":33450:33637  if (stakers[_user].stakedTokens[j].staker != (address(0))) {\r... */\n      tag_148\n      jumpi\n        /* \"source/Farm.sol\":33556:33563  stakers */\n      0x07\n        /* \"source/Farm.sol\":33556:33570  stakers[_user] */\n      0x00\n        /* \"source/Farm.sol\":33564:33569  _user */\n      dup7\n        /* \"source/Farm.sol\":33556:33570  stakers[_user] */\n      0xffffffffffffffffffffffffffffffffffffffff\n      and\n      0xffffffffffffffffffffffffffffffffffffffff\n      and\n      dup2\n      mstore\n      0x20\n      add\n      swap1\n      dup2\n      mstore\n      0x20\n      add\n      0x00\n      keccak256\n        /* \"source/Farm.sol\":33556:33583  stakers[_user].stakedTokens */\n      0x01\n      add\n        /* \"source/Farm.sol\":33584:33585  j */\n      dup2\n        /* \"source/Farm.sol\":33556:33586  stakers[_user].stakedTokens[j] */\n      dup2\n      sload\n      dup2\n      lt\n      tag_149\n      jumpi\n      tag_150\n      tag_103\n      jump\t// in\n    tag_150:\n    tag_149:\n      swap1\n      0x00\n      mstore\n      keccak256(0x00, 0x20)\n      swap1\n      0x02\n      mul\n      add\n        /* \"source/Farm.sol\":33532:33586  _stakedTokens[_index] = stakers[_user].stakedTokens[j] */\n      mload(0x40)\n      dup1\n      0x40\n      add\n      0x40\n      mstore\n      swap1\n      dup2\n      0x00\n      dup3\n      add\n      0x00\n      swap1\n      sload\n      swap1\n      0x0100\n      exp\n      swap1\n      div\n      0xffffffffffffffffffffffffffffffffffffffff\n      and\n      0xffffffffffffffffffffffffffffffffffffffff\n      and\n      0xffffffffffffffffffffffffffffffffffffffff\n      and\n      dup2\n      mstore\n      0x20\n      add\n      0x01\n      dup3\n      add\n      sload\n      dup2\n      mstore\n      pop\n      pop\n        /* \"source/Farm.sol\":33532:33545  _stakedTokens */\n      dup4\n        /* \"source/Farm.sol\":33546:33552  _index */\n      dup4\n        /* \"source/Farm.sol\":33532:33553  _stakedTokens[_index] */\n      dup2\n      mload\n      dup2\n      lt\n      tag_152\n      jumpi\n      tag_153\n      tag_103\n      jump\t// in\n    tag_153:\n    tag_152:\n      0x20\n      mul\n      0x20\n      add\n      add\n        /* \"source/Farm.sol\":33532:33586  _stakedTokens[_index] = stakers[_user].stakedTokens[j] */\n      dup2\n      swap1\n      mstore\n      pop\n        /* \"source/Farm.sol\":33609:33617  _index++ */\n      dup2\n      dup1\n      tag_154\n      swap1\n      tag_111\n      jump\t// in\n    tag_154:\n      swap3\n      pop\n      pop\n        /* \"source/Farm.sol\":33450:33637  if (stakers[_user].stakedTokens[j].staker != (address(0))) {\r... */\n    tag_148:\n        /* \"source/Farm.sol\":33426:33429  j++ */\n      dup1\n      dup1\n      tag_155\n      swap1\n      tag_111\n      jump\t// in\n    tag_155:\n      swap2\n      pop\n      pop\n        /* \"source/Farm.sol\":33366:33652  for (uint256 j = 0; j < stakers[_user].stakedTokens.length; j++) {\r... */\n      jump(tag_142)\n    tag_143:\n      pop\n        /* \"source/Farm.sol\":33675:33688  _stakedTokens */\n      dup2\n        /* \"source/Farm.sol\":33668:33688  return _stakedTokens */\n      swap3\n      pop\n      pop\n      pop\n      jump(tag_133)\n        /* \"source/Farm.sol\":33181:33760  if (stakers[_user].amountStaked > 0) {\r... */\n    tag_134:\n        /* \"source/Farm.sol\":33746:33747  0 */\n      0x00\n        /* \"source/Farm.sol\":33728:33748  new StakedToken[](0) */\n      0xffffffffffffffff\n      dup2\n      gt\n      iszero\n      tag_157\n      jumpi\n      tag_158\n      tag_137\n      jump\t// in\n    tag_158:\n    tag_157:\n      mload(0x40)\n      swap1\n      dup1\n      dup3\n      mstore\n      dup1\n      0x20\n      mul\n      0x20\n      add\n      dup3\n      add\n      0x40\n      mstore\n      dup1\n      iszero\n      tag_159\n      jumpi\n      dup2\n      0x20\n      add\n    tag_160:\n      tag_161\n      tag_141\n      jump\t// in\n    tag_161:\n      dup2\n      mstore\n      0x20\n      add\n      swap1\n      0x01\n      swap1\n      sub\n      swap1\n      dup2\n      tag_160\n      jumpi\n      swap1\n      pop\n    tag_159:\n      pop\n        /* \"source/Farm.sol\":33721:33748  return new StakedToken[](0) */\n      swap1\n      pop\n        /* \"source/Farm.sol\":33087:33767  function getStakedTokens(address _user) public view returns (StakedToken[] memory) {\r... */\n    tag_133:\n      swap2\n      swap1\n      pop\n      jump\t// out\n        /* \"source/Farm.sol\":29310:29338  IERC721 public nftCollection */\n    tag_44:\n      0x03\n      0x00\n      swap1\n      sload\n      swap1\n      0x0100\n      exp\n      swap1\n      div\n      0xffffffffffffffffffffffffffffffffffffffff\n      and\n      dup2\n      jump\t// out\n        /* \"source/Farm.sol\":28059:28162  function renounceOwnership() public virtual onlyOwner {\r... */\n    tag_48:\n        /* \"source/Farm.sol\":27297:27310  _checkOwner() */\n      tag_163\n        /* \"source/Farm.sol\":27297:27308  _checkOwner */\n      tag_164\n        /* \"source/Farm.sol\":27297:27310  _checkOwner() */\n      jump\t// in\n    tag_163:\n        /* \"source/Farm.sol\":28124:28154  _transferOwnership(address(0)) */\n      tag_166\n        /* \"source/Farm.sol\":28151:28152  0 */\n      0x00\n        /* \"source/Farm.sol\":28124:28142  _transferOwnership */\n      tag_167\n        /* \"source/Farm.sol\":28124:28154  _transferOwnership(address(0)) */\n      jump\t// in\n    tag_166:\n        /* \"source/Farm.sol\":28059:28162  function renounceOwnership() public virtual onlyOwner {\r... */\n      jump\t// out\n        /* \"source/Farm.sol\":27411:27498  function owner() public view virtual returns (address) {\r... */\n    tag_50:\n        /* \"source/Farm.sol\":27457:27464  address */\n      0x00\n        /* \"source/Farm.sol\":27484:27490  _owner */\n      0x01\n      dup1\n      sload\n      swap1\n      0x0100\n      exp\n      swap1\n      div\n      0xffffffffffffffffffffffffffffffffffffffff\n      and\n        /* \"source/Farm.sol\":27477:27490  return _owner */\n      swap1\n      pop\n        /* \"source/Farm.sol\":27411:27498  function owner() public view virtual returns (address) {\r... */\n      swap1\n      jump\t// out\n        /* \"source/Farm.sol\":29440:29478  uint256 public rewardsPerHour = 100000 */\n    tag_54:\n      sload(0x05)\n      dup2\n      jump\t// out\n        /* \"source/Farm.sol\":29526:29567  mapping(address => Staker) public stakers */\n    tag_58:\n      mstore(0x20, 0x07)\n      dup1\n      0x00\n      mstore\n      keccak256(0x00, 0x40)\n      0x00\n      swap2\n      pop\n      swap1\n      pop\n      dup1\n      0x00\n      add\n      sload\n      swap1\n      dup1\n      0x02\n      add\n      sload\n      swap1\n      dup1\n      0x03\n      add\n      sload\n      swap1\n      pop\n      dup4\n      jump\t// out\n        /* \"source/Farm.sol\":29653:29701  mapping(uint256 => address) public stakerAddress */\n    tag_63:\n      mstore(0x20, 0x08)\n      dup1\n      0x00\n      mstore\n      keccak256(0x00, 0x40)\n      0x00\n      swap2\n      pop\n      sload\n      swap1\n      0x0100\n      exp\n      swap1\n      div\n      0xffffffffffffffffffffffffffffffffffffffff\n      and\n      dup2\n      jump\t// out\n        /* \"source/Farm.sol\":31061:31177  function stake(uint256 _tokenId) external nonReentrant whenNotPaused {\r... */\n    tag_67:\n        /* \"source/Farm.sol\":18356:18377  _nonReentrantBefore() */\n      tag_170\n        /* \"source/Farm.sol\":18356:18375  _nonReentrantBefore */\n      tag_86\n        /* \"source/Farm.sol\":18356:18377  _nonReentrantBefore() */\n      jump\t// in\n    tag_170:\n        /* \"source/Farm.sol\":15577:15596  _requireNotPaused() */\n      tag_172\n        /* \"source/Farm.sol\":15577:15594  _requireNotPaused */\n      tag_173\n        /* \"source/Farm.sol\":15577:15596  _requireNotPaused() */\n      jump\t// in\n    tag_172:\n        /* \"source/Farm.sol\":31141:31169  _stake(msg.sender, _tokenId) */\n      tag_175\n        /* \"source/Farm.sol\":31148:31158  msg.sender */\n      caller\n        /* \"source/Farm.sol\":31160:31168  _tokenId */\n      dup3\n        /* \"source/Farm.sol\":31141:31147  _stake */\n      tag_176\n        /* \"source/Farm.sol\":31141:31169  _stake(msg.sender, _tokenId) */\n      jump\t// in\n    tag_175:\n        /* \"source/Farm.sol\":18400:18420  _nonReentrantAfter() */\n      tag_177\n        /* \"source/Farm.sol\":18400:18418  _nonReentrantAfter */\n      tag_123\n        /* \"source/Farm.sol\":18400:18420  _nonReentrantAfter() */\n      jump\t// in\n    tag_177:\n        /* \"source/Farm.sol\":31061:31177  function stake(uint256 _tokenId) external nonReentrant whenNotPaused {\r... */\n      pop\n      jump\t// out\n        /* \"source/Farm.sol\":29989:30111  function setRewardsPerHour(uint256 _rewardsPerHour) external onlyOwner {\r... */\n    tag_70:\n        /* \"source/Farm.sol\":27297:27310  _checkOwner() */\n      tag_179\n        /* \"source/Farm.sol\":27297:27308  _checkOwner */\n      tag_164\n        /* \"source/Farm.sol\":27297:27310  _checkOwner() */\n      jump\t// in\n    tag_179:\n        /* \"source/Farm.sol\":30088:30103  _rewardsPerHour */\n      dup1\n        /* \"source/Farm.sol\":30071:30085  rewardsPerHour */\n      0x05\n        /* \"source/Farm.sol\":30071:30103  rewardsPerHour = _rewardsPerHour */\n      dup2\n      swap1\n      sstore\n      pop\n        /* \"source/Farm.sol\":29989:30111  function setRewardsPerHour(uint256 _rewardsPerHour) external onlyOwner {\r... */\n      pop\n      jump\t// out\n        /* \"source/Farm.sol\":29277:29303  IERC20 public rewardsToken */\n    tag_72:\n      0x02\n      0x00\n      swap1\n      sload\n      swap1\n      0x0100\n      exp\n      swap1\n      div\n      0xffffffffffffffffffffffffffffffffffffffff\n      and\n      dup2\n      jump\t// out\n        /* \"source/Farm.sol\":28317:28518  function transferOwnership(address newOwner) public virtual onlyOwner {\r... */\n    tag_77:\n        /* \"source/Farm.sol\":27297:27310  _checkOwner() */\n      tag_182\n        /* \"source/Farm.sol\":27297:27308  _checkOwner */\n      tag_164\n        /* \"source/Farm.sol\":27297:27310  _checkOwner() */\n      jump\t// in\n    tag_182:\n        /* \"source/Farm.sol\":28426:28427  0 */\n      0x00\n        /* \"source/Farm.sol\":28406:28428  newOwner != address(0) */\n      0xffffffffffffffffffffffffffffffffffffffff\n      and\n        /* \"source/Farm.sol\":28406:28414  newOwner */\n      dup2\n        /* \"source/Farm.sol\":28406:28428  newOwner != address(0) */\n      0xffffffffffffffffffffffffffffffffffffffff\n      and\n      eq\n      iszero\n        /* \"source/Farm.sol\":28398:28471  require(newOwner != address(0), \"Ownable: new owner is the zero address\") */\n      tag_184\n      jumpi\n      mload(0x40)\n      0x08c379a000000000000000000000000000000000000000000000000000000000\n      dup2\n      mstore\n      0x04\n      add\n      tag_185\n      swap1\n      tag_186\n      jump\t// in\n    tag_185:\n      mload(0x40)\n      dup1\n      swap2\n      sub\n      swap1\n      revert\n    tag_184:\n        /* \"source/Farm.sol\":28482:28510  _transferOwnership(newOwner) */\n      tag_187\n        /* \"source/Farm.sol\":28501:28509  newOwner */\n      dup2\n        /* \"source/Farm.sol\":28482:28500  _transferOwnership */\n      tag_167\n        /* \"source/Farm.sol\":28482:28510  _transferOwnership(newOwner) */\n      jump\t// in\n    tag_187:\n        /* \"source/Farm.sol\":28317:28518  function transferOwnership(address newOwner) public virtual onlyOwner {\r... */\n      pop\n      jump\t// out\n        /* \"source/Farm.sol\":33775:33984  function availableRewards(address _staker) public view returns (uint256) {\r... */\n    tag_80:\n        /* \"source/Farm.sol\":33839:33846  uint256 */\n      0x00\n        /* \"source/Farm.sol\":33859:33874  uint256 rewards */\n      dup1\n        /* \"source/Farm.sol\":33918:33925  stakers */\n      0x07\n        /* \"source/Farm.sol\":33918:33934  stakers[_staker] */\n      0x00\n        /* \"source/Farm.sol\":33926:33933  _staker */\n      dup5\n        /* \"source/Farm.sol\":33918:33934  stakers[_staker] */\n      0xffffffffffffffffffffffffffffffffffffffff\n      and\n      0xffffffffffffffffffffffffffffffffffffffff\n      and\n      dup2\n      mstore\n      0x20\n      add\n      swap1\n      dup2\n      mstore\n      0x20\n      add\n      0x00\n      keccak256\n        /* \"source/Farm.sol\":33918:33951  stakers[_staker].unclaimedRewards */\n      0x03\n      add\n      sload\n        /* \"source/Farm.sol\":33877:33902  calculateRewards(_staker) */\n      tag_189\n        /* \"source/Farm.sol\":33894:33901  _staker */\n      dup5\n        /* \"source/Farm.sol\":33877:33893  calculateRewards */\n      tag_95\n        /* \"source/Farm.sol\":33877:33902  calculateRewards(_staker) */\n      jump\t// in\n    tag_189:\n        /* \"source/Farm.sol\":33877:33951  calculateRewards(_staker) +\r... */\n      tag_190\n      swap2\n      swap1\n      tag_97\n      jump\t// in\n    tag_190:\n        /* \"source/Farm.sol\":33859:33951  uint256 rewards = calculateRewards(_staker) +\r... */\n      swap1\n      pop\n        /* \"source/Farm.sol\":33969:33976  rewards */\n      dup1\n        /* \"source/Farm.sol\":33962:33976  return rewards */\n      swap2\n      pop\n      pop\n        /* \"source/Farm.sol\":33775:33984  function availableRewards(address _staker) public view returns (uint256) {\r... */\n      swap2\n      swap1\n      pop\n      jump\t// out\n        /* \"source/Farm.sol\":30858:31053  function adminWithdrawRewards() external onlyOwner whenPaused {\r... */\n    tag_83:\n        /* \"source/Farm.sol\":27297:27310  _checkOwner() */\n      tag_192\n        /* \"source/Farm.sol\":27297:27308  _checkOwner */\n      tag_164\n        /* \"source/Farm.sol\":27297:27310  _checkOwner() */\n      jump\t// in\n    tag_192:\n        /* \"source/Farm.sol\":15836:15852  _requirePaused() */\n      tag_194\n        /* \"source/Farm.sol\":15836:15850  _requirePaused */\n      tag_195\n        /* \"source/Farm.sol\":15836:15852  _requirePaused() */\n      jump\t// in\n    tag_194:\n        /* \"source/Farm.sol\":30931:30947  uint256 _balance */\n      0x00\n        /* \"source/Farm.sol\":30950:30962  rewardsToken */\n      0x02\n      0x00\n      swap1\n      sload\n      swap1\n      0x0100\n      exp\n      swap1\n      div\n      0xffffffffffffffffffffffffffffffffffffffff\n      and\n        /* \"source/Farm.sol\":30950:30972  rewardsToken.balanceOf */\n      0xffffffffffffffffffffffffffffffffffffffff\n      and\n      0x70a08231\n        /* \"source/Farm.sol\":30981:30985  this */\n      address\n        /* \"source/Farm.sol\":30950:30987  rewardsToken.balanceOf(address(this)) */\n      mload(0x40)\n      dup3\n      0xffffffff\n      and\n      0xe0\n      shl\n      dup2\n      mstore\n      0x04\n      add\n      tag_197\n      swap2\n      swap1\n      tag_52\n      jump\t// in\n    tag_197:\n      0x20\n      mload(0x40)\n      dup1\n      dup4\n      sub\n      dup2\n      dup7\n      dup1\n      extcodesize\n      iszero\n      dup1\n      iszero\n      tag_198\n      jumpi\n      0x00\n      dup1\n      revert\n    tag_198:\n      pop\n      gas\n      staticcall\n      iszero\n      dup1\n      iszero\n      tag_200\n      jumpi\n      returndatasize\n      0x00\n      dup1\n      returndatacopy\n      revert(0x00, returndatasize)\n    tag_200:\n      pop\n      pop\n      pop\n      pop\n      mload(0x40)\n      returndatasize\n      not(0x1f)\n      0x1f\n      dup3\n      add\n      and\n      dup3\n      add\n      dup1\n      0x40\n      mstore\n      pop\n      dup2\n      add\n      swap1\n      tag_201\n      swap2\n      swap1\n      tag_202\n      jump\t// in\n    tag_201:\n        /* \"source/Farm.sol\":30931:30987  uint256 _balance = rewardsToken.balanceOf(address(this)) */\n      swap1\n      pop\n        /* \"source/Farm.sol\":30998:31045  rewardsToken.safeTransfer(msg.sender, _balance) */\n      tag_203\n        /* \"source/Farm.sol\":31024:31034  msg.sender */\n      caller\n        /* \"source/Farm.sol\":31036:31044  _balance */\n      dup3\n        /* \"source/Farm.sol\":30998:31010  rewardsToken */\n      0x02\n      0x00\n      swap1\n      sload\n      swap1\n      0x0100\n      exp\n      swap1\n      div\n      0xffffffffffffffffffffffffffffffffffffffff\n      and\n        /* \"source/Farm.sol\":30998:31023  rewardsToken.safeTransfer */\n      0xffffffffffffffffffffffffffffffffffffffff\n      and\n      tag_131\n      swap1\n        /* \"source/Farm.sol\":30998:31045  rewardsToken.safeTransfer(msg.sender, _balance) */\n      swap3\n      swap2\n      swap1\n      0xffffffff\n      and\n      jump\t// in\n    tag_203:\n        /* \"source/Farm.sol\":30920:31053  {\r... */\n      pop\n        /* \"source/Farm.sol\":30858:31053  function adminWithdrawRewards() external onlyOwner whenPaused {\r... */\n      jump\t// out\n        /* \"source/Farm.sol\":18436:18725  function _nonReentrantBefore() private {\r... */\n    tag_86:\n        /* \"source/Farm.sol\":17838:17839  2 */\n      0x02\n        /* \"source/Farm.sol\":18566:18573  _status */\n      sload(0x00)\n        /* \"source/Farm.sol\":18566:18585  _status != _ENTERED */\n      eq\n      iszero\n        /* \"source/Farm.sol\":18558:18621  require(_status != _ENTERED, \"ReentrancyGuard: reentrant call\") */\n      tag_205\n      jumpi\n      mload(0x40)\n      0x08c379a000000000000000000000000000000000000000000000000000000000\n      dup2\n      mstore\n      0x04\n      add\n      tag_206\n      swap1\n      tag_207\n      jump\t// in\n    tag_206:\n      mload(0x40)\n      dup1\n      swap2\n      sub\n      swap1\n      revert\n    tag_205:\n        /* \"source/Farm.sol\":17838:17839  2 */\n      0x02\n        /* \"source/Farm.sol\":18699:18706  _status */\n      0x00\n        /* \"source/Farm.sol\":18699:18717  _status = _ENTERED */\n      dup2\n      swap1\n      sstore\n      pop\n        /* \"source/Farm.sol\":18436:18725  function _nonReentrantBefore() private {\r... */\n      jump\t// out\n        /* \"source/Farm.sol\":32385:32685  function calculateRewards(address _staker)\r... */\n    tag_95:\n        /* \"source/Farm.sol\":32478:32494  uint256 _rewards */\n      0x00\n        /* \"source/Farm.sol\":32672:32676  3600 */\n      0x0e10\n        /* \"source/Farm.sol\":32654:32668  rewardsPerHour */\n      sload(0x05)\n        /* \"source/Farm.sol\":32610:32617  stakers */\n      0x07\n        /* \"source/Farm.sol\":32610:32626  stakers[_staker] */\n      0x00\n        /* \"source/Farm.sol\":32618:32625  _staker */\n      dup6\n        /* \"source/Farm.sol\":32610:32626  stakers[_staker] */\n      0xffffffffffffffffffffffffffffffffffffffff\n      and\n      0xffffffffffffffffffffffffffffffffffffffff\n      and\n      dup2\n      mstore\n      0x20\n      add\n      swap1\n      dup2\n      mstore\n      0x20\n      add\n      0x00\n      keccak256\n        /* \"source/Farm.sol\":32610:32639  stakers[_staker].amountStaked */\n      0x00\n      add\n      sload\n        /* \"source/Farm.sol\":32556:32563  stakers */\n      0x07\n        /* \"source/Farm.sol\":32556:32572  stakers[_staker] */\n      0x00\n        /* \"source/Farm.sol\":32564:32571  _staker */\n      dup7\n        /* \"source/Farm.sol\":32556:32572  stakers[_staker] */\n      0xffffffffffffffffffffffffffffffffffffffff\n      and\n      0xffffffffffffffffffffffffffffffffffffffff\n      and\n      dup2\n      mstore\n      0x20\n      add\n      swap1\n      dup2\n      mstore\n      0x20\n      add\n      0x00\n      keccak256\n        /* \"source/Farm.sol\":32556:32589  stakers[_staker].timeOfLastUpdate */\n      0x02\n      add\n      sload\n        /* \"source/Farm.sol\":32538:32553  block.timestamp */\n      timestamp\n        /* \"source/Farm.sol\":32538:32589  block.timestamp - stakers[_staker].timeOfLastUpdate */\n      tag_209\n      swap2\n      swap1\n      tag_210\n      jump\t// in\n    tag_209:\n        /* \"source/Farm.sol\":32537:32639  (block.timestamp - stakers[_staker].timeOfLastUpdate) *\r... */\n      tag_211\n      swap2\n      swap1\n      tag_212\n      jump\t// in\n    tag_211:\n        /* \"source/Farm.sol\":32521:32668  (\r... */\n      tag_213\n      swap2\n      swap1\n      tag_212\n      jump\t// in\n    tag_213:\n        /* \"source/Farm.sol\":32520:32676  ((\r... */\n      tag_214\n      swap2\n      swap1\n      tag_215\n      jump\t// in\n    tag_214:\n        /* \"source/Farm.sol\":32512:32677  return (((\r... */\n      swap1\n      pop\n        /* \"source/Farm.sol\":32385:32685  function calculateRewards(address _staker)\r... */\n      swap2\n      swap1\n      pop\n      jump\t// out\n        /* \"source/Farm.sol\":18733:18946  function _nonReentrantAfter() private {\r... */\n    tag_123:\n        /* \"source/Farm.sol\":17794:17795  1 */\n      0x01\n        /* \"source/Farm.sol\":18916:18923  _status */\n      0x00\n        /* \"source/Farm.sol\":18916:18938  _status = _NOT_ENTERED */\n      dup2\n      swap1\n      sstore\n      pop\n        /* \"source/Farm.sol\":18733:18946  function _nonReentrantAfter() private {\r... */\n      jump\t// out\n        /* \"source/Farm.sol\":23768:23945  function safeTransfer(IERC20 token, address to, uint256 value) internal {\r... */\n    tag_131:\n        /* \"source/Farm.sol\":23851:23937  _callOptionalReturn(token, abi.encodeWithSelector(token.transfer.selector, to, value)) */\n      tag_218\n        /* \"source/Farm.sol\":23871:23876  token */\n      dup4\n        /* \"source/Farm.sol\":23901:23924  token.transfer.selector */\n      shl(0xe0, 0xa9059cbb)\n        /* \"source/Farm.sol\":23926:23928  to */\n      dup5\n        /* \"source/Farm.sol\":23930:23935  value */\n      dup5\n        /* \"source/Farm.sol\":23878:23936  abi.encodeWithSelector(token.transfer.selector, to, value) */\n      add(0x24, mload(0x40))\n      tag_219\n      swap3\n      swap2\n      swap1\n      tag_220\n      jump\t// in\n    tag_219:\n      mload(0x40)\n      0x20\n      dup2\n      dup4\n      sub\n      sub\n      dup2\n      mstore\n      swap1\n      0x40\n      mstore\n      swap1\n      not(0xffffffffffffffffffffffffffffffffffffffffffffffffffffffff)\n      and\n      0x20\n      dup3\n      add\n      dup1\n      mload\n      0xffffffffffffffffffffffffffffffffffffffffffffffffffffffff\n      dup4\n      dup2\n      dup4\n      and\n      or\n      dup4\n      mstore\n      pop\n      pop\n      pop\n      pop\n        /* \"source/Farm.sol\":23851:23870  _callOptionalReturn */\n      tag_221\n        /* \"source/Farm.sol\":23851:23937  _callOptionalReturn(token, abi.encodeWithSelector(token.transfer.selector, to, value)) */\n      jump\t// in\n    tag_218:\n        /* \"source/Farm.sol\":23768:23945  function safeTransfer(IERC20 token, address to, uint256 value) internal {\r... */\n      pop\n      pop\n      pop\n      jump\t// out\n        /* \"source/Farm.sol\":27576:27708  function _checkOwner() internal view virtual {\r... */\n    tag_164:\n        /* \"source/Farm.sol\":27651:27663  _msgSender() */\n      tag_223\n        /* \"source/Farm.sol\":27651:27661  _msgSender */\n      tag_224\n        /* \"source/Farm.sol\":27651:27663  _msgSender() */\n      jump\t// in\n    tag_223:\n        /* \"source/Farm.sol\":27640:27663  owner() == _msgSender() */\n      0xffffffffffffffffffffffffffffffffffffffff\n      and\n        /* \"source/Farm.sol\":27640:27647  owner() */\n      tag_225\n        /* \"source/Farm.sol\":27640:27645  owner */\n      tag_50\n        /* \"source/Farm.sol\":27640:27647  owner() */\n      jump\t// in\n    tag_225:\n        /* \"source/Farm.sol\":27640:27663  owner() == _msgSender() */\n      0xffffffffffffffffffffffffffffffffffffffff\n      and\n      eq\n        /* \"source/Farm.sol\":27632:27700  require(owner() == _msgSender(), \"Ownable: caller is not the owner\") */\n      tag_226\n      jumpi\n      mload(0x40)\n      0x08c379a000000000000000000000000000000000000000000000000000000000\n      dup2\n      mstore\n      0x04\n      add\n      tag_227\n      swap1\n      tag_228\n      jump\t// in\n    tag_227:\n      mload(0x40)\n      dup1\n      swap2\n      sub\n      swap1\n      revert\n    tag_226:\n        /* \"source/Farm.sol\":27576:27708  function _checkOwner() internal view virtual {\r... */\n      jump\t// out\n        /* \"source/Farm.sol\":28678:28869  function _transferOwnership(address newOwner) internal virtual {\r... */\n    tag_167:\n        /* \"source/Farm.sol\":28752:28768  address oldOwner */\n      0x00\n        /* \"source/Farm.sol\":28771:28777  _owner */\n      0x01\n      dup1\n      sload\n      swap1\n      0x0100\n      exp\n      swap1\n      div\n      0xffffffffffffffffffffffffffffffffffffffff\n      and\n        /* \"source/Farm.sol\":28752:28777  address oldOwner = _owner */\n      swap1\n      pop\n        /* \"source/Farm.sol\":28797:28805  newOwner */\n      dup2\n        /* \"source/Farm.sol\":28788:28794  _owner */\n      0x01\n      dup1\n        /* \"source/Farm.sol\":28788:28805  _owner = newOwner */\n      0x0100\n      exp\n      dup2\n      sload\n      dup2\n      0xffffffffffffffffffffffffffffffffffffffff\n      mul\n      not\n      and\n      swap1\n      dup4\n      0xffffffffffffffffffffffffffffffffffffffff\n      and\n      mul\n      or\n      swap1\n      sstore\n      pop\n        /* \"source/Farm.sol\":28852:28860  newOwner */\n      dup2\n        /* \"source/Farm.sol\":28821:28861  OwnershipTransferred(oldOwner, newOwner) */\n      0xffffffffffffffffffffffffffffffffffffffff\n      and\n        /* \"source/Farm.sol\":28842:28850  oldOwner */\n      dup2\n        /* \"source/Farm.sol\":28821:28861  OwnershipTransferred(oldOwner, newOwner) */\n      0xffffffffffffffffffffffffffffffffffffffff\n      and\n      0x8be0079c531659141344cd1fd0a4f28419497f9722a3daafe3b4186f6b6457e0\n      mload(0x40)\n      mload(0x40)\n      dup1\n      swap2\n      sub\n      swap1\n      log3\n        /* \"source/Farm.sol\":28741:28869  {\r... */\n      pop\n        /* \"source/Farm.sol\":28678:28869  function _transferOwnership(address newOwner) internal virtual {\r... */\n      pop\n      jump\t// out\n        /* \"source/Farm.sol\":16131:16239  function _requireNotPaused() internal view virtual {\r... */\n    tag_173:\n        /* \"source/Farm.sol\":16202:16210  paused() */\n      tag_231\n        /* \"source/Farm.sol\":16202:16208  paused */\n      tag_34\n        /* \"source/Farm.sol\":16202:16210  paused() */\n      jump\t// in\n    tag_231:\n        /* \"source/Farm.sol\":16201:16210  !paused() */\n      iszero\n        /* \"source/Farm.sol\":16193:16231  require(!paused(), \"Pausable: paused\") */\n      tag_232\n      jumpi\n      mload(0x40)\n      0x08c379a000000000000000000000000000000000000000000000000000000000\n      dup2\n      mstore\n      0x04\n      add\n      tag_233\n      swap1\n      tag_234\n      jump\t// in\n    tag_233:\n      mload(0x40)\n      dup1\n      swap2\n      sub\n      swap1\n      revert\n    tag_232:\n        /* \"source/Farm.sol\":16131:16239  function _requireNotPaused() internal view virtual {\r... */\n      jump\t// out\n        /* \"source/Farm.sol\":30119:30850  function _stake(address _staker, uint256 _tokenId) internal {\r... */\n    tag_176:\n        /* \"source/Farm.sol\":30247:30254  _staker */\n      dup2\n        /* \"source/Farm.sol\":30212:30254  nftCollection.ownerOf(_tokenId) == _staker */\n      0xffffffffffffffffffffffffffffffffffffffff\n      and\n        /* \"source/Farm.sol\":30212:30225  nftCollection */\n      0x03\n      0x00\n      swap1\n      sload\n      swap1\n      0x0100\n      exp\n      swap1\n      div\n      0xffffffffffffffffffffffffffffffffffffffff\n      and\n        /* \"source/Farm.sol\":30212:30233  nftCollection.ownerOf */\n      0xffffffffffffffffffffffffffffffffffffffff\n      and\n      0x6352211e\n        /* \"source/Farm.sol\":30234:30242  _tokenId */\n      dup4\n        /* \"source/Farm.sol\":30212:30243  nftCollection.ownerOf(_tokenId) */\n      mload(0x40)\n      dup3\n      0xffffffff\n      and\n      0xe0\n      shl\n      dup2\n      mstore\n      0x04\n      add\n      tag_236\n      swap2\n      swap1\n      tag_32\n      jump\t// in\n    tag_236:\n      0x20\n      mload(0x40)\n      dup1\n      dup4\n      sub\n      dup2\n      dup7\n      dup1\n      extcodesize\n      iszero\n      dup1\n      iszero\n      tag_237\n      jumpi\n      0x00\n      dup1\n      revert\n    tag_237:\n      pop\n      gas\n      staticcall\n      iszero\n      dup1\n      iszero\n      tag_239\n      jumpi\n      returndatasize\n      0x00\n      dup1\n      returndatacopy\n      revert(0x00, returndatasize)\n    tag_239:\n      pop\n      pop\n      pop\n      pop\n      mload(0x40)\n      returndatasize\n      not(0x1f)\n      0x1f\n      dup3\n      add\n      and\n      dup3\n      add\n      dup1\n      0x40\n      mstore\n      pop\n      dup2\n      add\n      swap1\n      tag_240\n      swap2\n      swap1\n      tag_241\n      jump\t// in\n    tag_240:\n        /* \"source/Farm.sol\":30212:30254  nftCollection.ownerOf(_tokenId) == _staker */\n      0xffffffffffffffffffffffffffffffffffffffff\n      and\n      eq\n        /* \"source/Farm.sol\":30190:30307  require(\r... */\n      tag_242\n      jumpi\n      mload(0x40)\n      0x08c379a000000000000000000000000000000000000000000000000000000000\n      dup2\n      mstore\n      0x04\n      add\n      tag_243\n      swap1\n      tag_93\n      jump\t// in\n    tag_243:\n      mload(0x40)\n      dup1\n      swap2\n      sub\n      swap1\n      revert\n    tag_242:\n        /* \"source/Farm.sol\":30356:30357  0 */\n      0x00\n        /* \"source/Farm.sol\":30324:30331  stakers */\n      0x07\n        /* \"source/Farm.sol\":30324:30340  stakers[_staker] */\n      0x00\n        /* \"source/Farm.sol\":30332:30339  _staker */\n      dup5\n        /* \"source/Farm.sol\":30324:30340  stakers[_staker] */\n      0xffffffffffffffffffffffffffffffffffffffff\n      and\n      0xffffffffffffffffffffffffffffffffffffffff\n      and\n      dup2\n      mstore\n      0x20\n      add\n      swap1\n      dup2\n      mstore\n      0x20\n      add\n      0x00\n      keccak256\n        /* \"source/Farm.sol\":30324:30353  stakers[_staker].amountStaked */\n      0x00\n      add\n      sload\n        /* \"source/Farm.sol\":30324:30357  stakers[_staker].amountStaked > 0 */\n      gt\n        /* \"source/Farm.sol\":30320:30488  if (stakers[_staker].amountStaked > 0) {\r... */\n      iszero\n      tag_244\n      jumpi\n        /* \"source/Farm.sol\":30374:30389  uint256 rewards */\n      0x00\n        /* \"source/Farm.sol\":30392:30417  calculateRewards(_staker) */\n      tag_245\n        /* \"source/Farm.sol\":30409:30416  _staker */\n      dup4\n        /* \"source/Farm.sol\":30392:30408  calculateRewards */\n      tag_95\n        /* \"source/Farm.sol\":30392:30417  calculateRewards(_staker) */\n      jump\t// in\n    tag_245:\n        /* \"source/Farm.sol\":30374:30417  uint256 rewards = calculateRewards(_staker) */\n      swap1\n      pop\n        /* \"source/Farm.sol\":30469:30476  rewards */\n      dup1\n        /* \"source/Farm.sol\":30432:30439  stakers */\n      0x07\n        /* \"source/Farm.sol\":30432:30448  stakers[_staker] */\n      0x00\n        /* \"source/Farm.sol\":30440:30447  _staker */\n      dup6\n        /* \"source/Farm.sol\":30432:30448  stakers[_staker] */\n      0xffffffffffffffffffffffffffffffffffffffff\n      and\n      0xffffffffffffffffffffffffffffffffffffffff\n      and\n      dup2\n      mstore\n      0x20\n      add\n      swap1\n      dup2\n      mstore\n      0x20\n      add\n      0x00\n      keccak256\n        /* \"source/Farm.sol\":30432:30465  stakers[_staker].unclaimedRewards */\n      0x03\n      add\n      0x00\n        /* \"source/Farm.sol\":30432:30476  stakers[_staker].unclaimedRewards += rewards */\n      dup3\n      dup3\n      sload\n      tag_246\n      swap2\n      swap1\n      tag_97\n      jump\t// in\n    tag_246:\n      swap3\n      pop\n      pop\n      dup2\n      swap1\n      sstore\n      pop\n        /* \"source/Farm.sol\":30359:30488  {\r... */\n      pop\n        /* \"source/Farm.sol\":30320:30488  if (stakers[_staker].amountStaked > 0) {\r... */\n    tag_244:\n        /* \"source/Farm.sol\":30500:30513  nftCollection */\n      0x03\n      0x00\n      swap1\n      sload\n      swap1\n      0x0100\n      exp\n      swap1\n      div\n      0xffffffffffffffffffffffffffffffffffffffff\n      and\n        /* \"source/Farm.sol\":30500:30526  nftCollection.transferFrom */\n      0xffffffffffffffffffffffffffffffffffffffff\n      and\n      0x23b872dd\n        /* \"source/Farm.sol\":30527:30534  _staker */\n      dup4\n        /* \"source/Farm.sol\":30544:30548  this */\n      address\n        /* \"source/Farm.sol\":30551:30559  _tokenId */\n      dup5\n        /* \"source/Farm.sol\":30500:30560  nftCollection.transferFrom(_staker, address(this), _tokenId) */\n      mload(0x40)\n      dup5\n      0xffffffff\n      and\n      0xe0\n      shl\n      dup2\n      mstore\n      0x04\n      add\n      tag_247\n      swap4\n      swap3\n      swap2\n      swap1\n      tag_118\n      jump\t// in\n    tag_247:\n      0x00\n      mload(0x40)\n      dup1\n      dup4\n      sub\n      dup2\n      0x00\n      dup8\n      dup1\n      extcodesize\n      iszero\n      dup1\n      iszero\n      tag_248\n      jumpi\n      0x00\n      dup1\n      revert\n    tag_248:\n      pop\n      gas\n      call\n      iszero\n      dup1\n      iszero\n      tag_250\n      jumpi\n      returndatasize\n      0x00\n      dup1\n      returndatacopy\n      revert(0x00, returndatasize)\n    tag_250:\n      pop\n      pop\n      pop\n      pop\n        /* \"source/Farm.sol\":30573:30603  StakedToken memory stakedToken */\n      0x00\n        /* \"source/Farm.sol\":30606:30636  StakedToken(_staker, _tokenId) */\n      mload(0x40)\n      dup1\n      0x40\n      add\n      0x40\n      mstore\n      dup1\n        /* \"source/Farm.sol\":30618:30625  _staker */\n      dup5\n        /* \"source/Farm.sol\":30606:30636  StakedToken(_staker, _tokenId) */\n      0xffffffffffffffffffffffffffffffffffffffff\n      and\n      dup2\n      mstore\n      0x20\n      add\n        /* \"source/Farm.sol\":30627:30635  _tokenId */\n      dup4\n        /* \"source/Farm.sol\":30606:30636  StakedToken(_staker, _tokenId) */\n      dup2\n      mstore\n      pop\n        /* \"source/Farm.sol\":30573:30636  StakedToken memory stakedToken = StakedToken(_staker, _tokenId) */\n      swap1\n      pop\n        /* \"source/Farm.sol\":30647:30654  stakers */\n      0x07\n        /* \"source/Farm.sol\":30647:30663  stakers[_staker] */\n      0x00\n        /* \"source/Farm.sol\":30655:30662  _staker */\n      dup5\n        /* \"source/Farm.sol\":30647:30663  stakers[_staker] */\n      0xffffffffffffffffffffffffffffffffffffffff\n      and\n      0xffffffffffffffffffffffffffffffffffffffff\n      and\n      dup2\n      mstore\n      0x20\n      add\n      swap1\n      dup2\n      mstore\n      0x20\n      add\n      0x00\n      keccak256\n        /* \"source/Farm.sol\":30647:30676  stakers[_staker].stakedTokens */\n      0x01\n      add\n        /* \"source/Farm.sol\":30682:30693  stakedToken */\n      dup2\n        /* \"source/Farm.sol\":30647:30694  stakers[_staker].stakedTokens.push(stakedToken) */\n      swap1\n      dup1\n      0x01\n      dup2\n      sload\n      add\n      dup1\n      dup3\n      sstore\n      dup1\n      swap2\n      pop\n      pop\n      0x01\n      swap1\n      sub\n      swap1\n      0x00\n      mstore\n      keccak256(0x00, 0x20)\n      swap1\n      0x02\n      mul\n      add\n      0x00\n      swap1\n      swap2\n      swap1\n      swap2\n      swap1\n      swap2\n      pop\n      0x00\n      dup3\n      add\n      mload\n      dup2\n      0x00\n      add\n      exp(0x0100, 0x00)\n      dup2\n      sload\n      dup2\n      0xffffffffffffffffffffffffffffffffffffffff\n      mul\n      not\n      and\n      swap1\n      dup4\n      0xffffffffffffffffffffffffffffffffffffffff\n      and\n      mul\n      or\n      swap1\n      sstore\n      pop\n      0x20\n      dup3\n      add\n      mload\n      dup2\n      0x01\n      add\n      sstore\n      pop\n      pop\n        /* \"source/Farm.sol\":30705:30712  stakers */\n      0x07\n        /* \"source/Farm.sol\":30705:30721  stakers[_staker] */\n      0x00\n        /* \"source/Farm.sol\":30713:30720  _staker */\n      dup5\n        /* \"source/Farm.sol\":30705:30721  stakers[_staker] */\n      0xffffffffffffffffffffffffffffffffffffffff\n      and\n      0xffffffffffffffffffffffffffffffffffffffff\n      and\n      dup2\n      mstore\n      0x20\n      add\n      swap1\n      dup2\n      mstore\n      0x20\n      add\n      0x00\n      keccak256\n        /* \"source/Farm.sol\":30705:30734  stakers[_staker].amountStaked */\n      0x00\n      add\n      0x00\n        /* \"source/Farm.sol\":30705:30736  stakers[_staker].amountStaked++ */\n      dup2\n      sload\n      dup1\n      swap3\n      swap2\n      swap1\n      tag_252\n      swap1\n      tag_111\n      jump\t// in\n    tag_252:\n      swap2\n      swap1\n      pop\n      sstore\n      pop\n        /* \"source/Farm.sol\":30773:30780  _staker */\n      dup3\n        /* \"source/Farm.sol\":30747:30760  stakerAddress */\n      0x08\n        /* \"source/Farm.sol\":30747:30770  stakerAddress[_tokenId] */\n      0x00\n        /* \"source/Farm.sol\":30761:30769  _tokenId */\n      dup5\n        /* \"source/Farm.sol\":30747:30770  stakerAddress[_tokenId] */\n      dup2\n      mstore\n      0x20\n      add\n      swap1\n      dup2\n      mstore\n      0x20\n      add\n      0x00\n      keccak256\n      0x00\n        /* \"source/Farm.sol\":30747:30780  stakerAddress[_tokenId] = _staker */\n      0x0100\n      exp\n      dup2\n      sload\n      dup2\n      0xffffffffffffffffffffffffffffffffffffffff\n      mul\n      not\n      and\n      swap1\n      dup4\n      0xffffffffffffffffffffffffffffffffffffffff\n      and\n      mul\n      or\n      swap1\n      sstore\n      pop\n        /* \"source/Farm.sol\":30827:30842  block.timestamp */\n      timestamp\n        /* \"source/Farm.sol\":30791:30798  stakers */\n      0x07\n        /* \"source/Farm.sol\":30791:30807  stakers[_staker] */\n      0x00\n        /* \"source/Farm.sol\":30799:30806  _staker */\n      dup6\n        /* \"source/Farm.sol\":30791:30807  stakers[_staker] */\n      0xffffffffffffffffffffffffffffffffffffffff\n      and\n      0xffffffffffffffffffffffffffffffffffffffff\n      and\n      dup2\n      mstore\n      0x20\n      add\n      swap1\n      dup2\n      mstore\n      0x20\n      add\n      0x00\n      keccak256\n        /* \"source/Farm.sol\":30791:30824  stakers[_staker].timeOfLastUpdate */\n      0x02\n      add\n        /* \"source/Farm.sol\":30791:30842  stakers[_staker].timeOfLastUpdate = block.timestamp */\n      dup2\n      swap1\n      sstore\n      pop\n        /* \"source/Farm.sol\":30179:30850  {\r... */\n      pop\n        /* \"source/Farm.sol\":30119:30850  function _stake(address _staker, uint256 _tokenId) internal {\r... */\n      pop\n      pop\n      jump\t// out\n        /* \"source/Farm.sol\":16316:16424  function _requirePaused() internal view virtual {\r... */\n    tag_195:\n        /* \"source/Farm.sol\":16383:16391  paused() */\n      tag_254\n        /* \"source/Farm.sol\":16383:16389  paused */\n      tag_34\n        /* \"source/Farm.sol\":16383:16391  paused() */\n      jump\t// in\n    tag_254:\n        /* \"source/Farm.sol\":16375:16416  require(paused(), \"Pausable: not paused\") */\n      tag_255\n      jumpi\n      mload(0x40)\n      0x08c379a000000000000000000000000000000000000000000000000000000000\n      dup2\n      mstore\n      0x04\n      add\n      tag_256\n      swap1\n      tag_257\n      jump\t// in\n    tag_256:\n      mload(0x40)\n      dup1\n      swap2\n      sub\n      swap1\n      revert\n    tag_255:\n        /* \"source/Farm.sol\":16316:16424  function _requirePaused() internal view virtual {\r... */\n      jump\t// out\n        /* \"source/Farm.sol\":26073:26834  function _callOptionalReturn(IERC20 token, bytes memory data) private {\r... */\n    tag_221:\n        /* \"source/Farm.sol\":26497:26520  bytes memory returndata */\n      0x00\n        /* \"source/Farm.sol\":26523:26592  address(token).functionCall(data, \"SafeERC20: low-level call failed\") */\n      tag_259\n        /* \"source/Farm.sol\":26551:26555  data */\n      dup3\n        /* \"source/Farm.sol\":26523:26592  address(token).functionCall(data, \"SafeERC20: low-level call failed\") */\n      mload(0x40)\n      dup1\n      0x40\n      add\n      0x40\n      mstore\n      dup1\n      0x20\n      dup2\n      mstore\n      0x20\n      add\n      0x5361666545524332303a206c6f772d6c6576656c2063616c6c206661696c6564\n      dup2\n      mstore\n      pop\n        /* \"source/Farm.sol\":26531:26536  token */\n      dup6\n        /* \"source/Farm.sol\":26523:26550  address(token).functionCall */\n      0xffffffffffffffffffffffffffffffffffffffff\n      and\n      tag_260\n      swap1\n        /* \"source/Farm.sol\":26523:26592  address(token).functionCall(data, \"SafeERC20: low-level call failed\") */\n      swap3\n      swap2\n      swap1\n      0xffffffff\n      and\n      jump\t// in\n    tag_259:\n        /* \"source/Farm.sol\":26497:26592  bytes memory returndata = address(token).functionCall(data, \"SafeERC20: low-level call failed\") */\n      swap1\n      pop\n        /* \"source/Farm.sol\":26627:26628  0 */\n      0x00\n        /* \"source/Farm.sol\":26607:26617  returndata */\n      dup2\n        /* \"source/Farm.sol\":26607:26624  returndata.length */\n      mload\n        /* \"source/Farm.sol\":26607:26628  returndata.length > 0 */\n      gt\n        /* \"source/Farm.sol\":26603:26827  if (returndata.length > 0) { // Return data is optional\r... */\n      iszero\n      tag_261\n      jumpi\n        /* \"source/Farm.sol\":26749:26759  returndata */\n      dup1\n        /* \"source/Farm.sol\":26738:26768  abi.decode(returndata, (bool)) */\n      dup1\n      0x20\n      add\n      swap1\n      mload\n      dup2\n      add\n      swap1\n      tag_262\n      swap2\n      swap1\n      tag_263\n      jump\t// in\n    tag_262:\n        /* \"source/Farm.sol\":26730:26815  require(abi.decode(returndata, (bool)), \"SafeERC20: ERC20 operation did not succeed\") */\n      tag_264\n      jumpi\n      mload(0x40)\n      0x08c379a000000000000000000000000000000000000000000000000000000000\n      dup2\n      mstore\n      0x04\n      add\n      tag_265\n      swap1\n      tag_266\n      jump\t// in\n    tag_265:\n      mload(0x40)\n      dup1\n      swap2\n      sub\n      swap1\n      revert\n    tag_264:\n        /* \"source/Farm.sol\":26603:26827  if (returndata.length > 0) { // Return data is optional\r... */\n    tag_261:\n        /* \"source/Farm.sol\":26143:26834  {\r... */\n      pop\n        /* \"source/Farm.sol\":26073:26834  function _callOptionalReturn(IERC20 token, bytes memory data) private {\r... */\n      pop\n      pop\n      jump\t// out\n        /* \"source/Farm.sol\":14698:14796  function _msgSender() internal view virtual returns (address) {\r... */\n    tag_224:\n        /* \"source/Farm.sol\":14751:14758  address */\n      0x00\n        /* \"source/Farm.sol\":14778:14788  msg.sender */\n      caller\n        /* \"source/Farm.sol\":14771:14788  return msg.sender */\n      swap1\n      pop\n        /* \"source/Farm.sol\":14698:14796  function _msgSender() internal view virtual returns (address) {\r... */\n      swap1\n      jump\t// out\n        /* \"source/Farm.sol\":8687:8882  function functionCall(address target, bytes memory data, string memory errorMessage) internal returns (bytes memory) {\r... */\n    tag_260:\n        /* \"source/Farm.sol\":8790:8802  bytes memory */\n      0x60\n        /* \"source/Farm.sol\":8822:8874  functionCallWithValue(target, data, 0, errorMessage) */\n      tag_269\n        /* \"source/Farm.sol\":8844:8850  target */\n      dup5\n        /* \"source/Farm.sol\":8852:8856  data */\n      dup5\n        /* \"source/Farm.sol\":8858:8859  0 */\n      0x00\n        /* \"source/Farm.sol\":8861:8873  errorMessage */\n      dup6\n        /* \"source/Farm.sol\":8822:8843  functionCallWithValue */\n      tag_270\n        /* \"source/Farm.sol\":8822:8874  functionCallWithValue(target, data, 0, errorMessage) */\n      jump\t// in\n    tag_269:\n        /* \"source/Farm.sol\":8815:8874  return functionCallWithValue(target, data, 0, errorMessage) */\n      swap1\n      pop\n        /* \"source/Farm.sol\":8687:8882  function functionCall(address target, bytes memory data, string memory errorMessage) internal returns (bytes memory) {\r... */\n      swap4\n      swap3\n      pop\n      pop\n      pop\n      jump\t// out\n        /* \"source/Farm.sol\":9739:10269  function functionCallWithValue(address target, bytes memory data, uint256 value, string memory errorMessage) internal returns (bytes memory) {\r... */\n    tag_270:\n        /* \"source/Farm.sol\":9866:9878  bytes memory */\n      0x60\n        /* \"source/Farm.sol\":9924:9929  value */\n      dup3\n        /* \"source/Farm.sol\":9899:9920  address(this).balance */\n      selfbalance\n        /* \"source/Farm.sol\":9899:9929  address(this).balance >= value */\n      lt\n      iszero\n        /* \"source/Farm.sol\":9891:9972  require(address(this).balance >= value, \"Address: insufficient balance for call\") */\n      tag_272\n      jumpi\n      mload(0x40)\n      0x08c379a000000000000000000000000000000000000000000000000000000000\n      dup2\n      mstore\n      0x04\n      add\n      tag_273\n      swap1\n      tag_274\n      jump\t// in\n    tag_273:\n      mload(0x40)\n      dup1\n      swap2\n      sub\n      swap1\n      revert\n    tag_272:\n        /* \"source/Farm.sol\":9991:10009  isContract(target) */\n      tag_275\n        /* \"source/Farm.sol\":10002:10008  target */\n      dup6\n        /* \"source/Farm.sol\":9991:10001  isContract */\n      tag_276\n        /* \"source/Farm.sol\":9991:10009  isContract(target) */\n      jump\t// in\n    tag_275:\n        /* \"source/Farm.sol\":9983:10043  require(isContract(target), \"Address: call to non-contract\") */\n      tag_277\n      jumpi\n      mload(0x40)\n      0x08c379a000000000000000000000000000000000000000000000000000000000\n      dup2\n      mstore\n      0x04\n      add\n      tag_278\n      swap1\n      tag_279\n      jump\t// in\n    tag_278:\n      mload(0x40)\n      dup1\n      swap2\n      sub\n      swap1\n      revert\n    tag_277:\n        /* \"source/Farm.sol\":10117:10129  bool success */\n      0x00\n        /* \"source/Farm.sol\":10131:10154  bytes memory returndata */\n      dup1\n        /* \"source/Farm.sol\":10158:10164  target */\n      dup7\n        /* \"source/Farm.sol\":10158:10169  target.call */\n      0xffffffffffffffffffffffffffffffffffffffff\n      and\n        /* \"source/Farm.sol\":10178:10183  value */\n      dup6\n        /* \"source/Farm.sol\":10186:10190  data */\n      dup8\n        /* \"source/Farm.sol\":10158:10191  target.call{ value: value }(data) */\n      mload(0x40)\n      tag_280\n      swap2\n      swap1\n      tag_281\n      jump\t// in\n    tag_280:\n      0x00\n      mload(0x40)\n      dup1\n      dup4\n      sub\n      dup2\n      dup6\n      dup8\n      gas\n      call\n      swap3\n      pop\n      pop\n      pop\n      returndatasize\n      dup1\n      0x00\n      dup2\n      eq\n      tag_284\n      jumpi\n      mload(0x40)\n      swap2\n      pop\n      and(add(returndatasize, 0x3f), not(0x1f))\n      dup3\n      add\n      0x40\n      mstore\n      returndatasize\n      dup3\n      mstore\n      returndatasize\n      0x00\n      0x20\n      dup5\n      add\n      returndatacopy\n      jump(tag_283)\n    tag_284:\n      0x60\n      swap2\n      pop\n    tag_283:\n      pop\n        /* \"source/Farm.sol\":10116:10191  (bool success, bytes memory returndata) = target.call{ value: value }(data) */\n      swap2\n      pop\n      swap2\n      pop\n        /* \"source/Farm.sol\":10209:10261  _verifyCallResult(success, returndata, errorMessage) */\n      tag_285\n        /* \"source/Farm.sol\":10227:10234  success */\n      dup3\n        /* \"source/Farm.sol\":10236:10246  returndata */\n      dup3\n        /* \"source/Farm.sol\":10248:10260  errorMessage */\n      dup7\n        /* \"source/Farm.sol\":10209:10226  _verifyCallResult */\n      tag_286\n        /* \"source/Farm.sol\":10209:10261  _verifyCallResult(success, returndata, errorMessage) */\n      jump\t// in\n    tag_285:\n        /* \"source/Farm.sol\":10202:10261  return _verifyCallResult(success, returndata, errorMessage) */\n      swap3\n      pop\n      pop\n      pop\n        /* \"source/Farm.sol\":9739:10269  function functionCallWithValue(address target, bytes memory data, uint256 value, string memory errorMessage) internal returns (bytes memory) {\r... */\n      swap5\n      swap4\n      pop\n      pop\n      pop\n      pop\n      jump\t// out\n        /* \"source/Farm.sol\":5769:6191  function isContract(address account) internal view returns (bool) {\r... */\n    tag_276:\n        /* \"source/Farm.sol\":5829:5833  bool */\n      0x00\n        /* \"source/Farm.sol\":6037:6049  uint256 size */\n      dup1\n        /* \"source/Farm.sol\":6148:6155  account */\n      dup3\n        /* \"source/Farm.sol\":6136:6156  extcodesize(account) */\n      extcodesize\n        /* \"source/Farm.sol\":6128:6156  size := extcodesize(account) */\n      swap1\n      pop\n        /* \"source/Farm.sol\":6182:6183  0 */\n      0x00\n        /* \"source/Farm.sol\":6175:6179  size */\n      dup2\n        /* \"source/Farm.sol\":6175:6183  size > 0 */\n      gt\n        /* \"source/Farm.sol\":6168:6183  return size > 0 */\n      swap2\n      pop\n      pop\n        /* \"source/Farm.sol\":5769:6191  function isContract(address account) internal view returns (bool) {\r... */\n      swap2\n      swap1\n      pop\n      jump\t// out\n        /* \"source/Farm.sol\":11275:12017  function _verifyCallResult(bool success, bytes memory returndata, string memory errorMessage) private pure returns(bytes memory) {\r... */\n    tag_286:\n        /* \"source/Farm.sol\":11390:11402  bytes memory */\n      0x60\n        /* \"source/Farm.sol\":11419:11426  success */\n      dup4\n        /* \"source/Farm.sol\":11415:12010  if (success) {\r... */\n      iszero\n      tag_289\n      jumpi\n        /* \"source/Farm.sol\":11450:11460  returndata */\n      dup3\n        /* \"source/Farm.sol\":11443:11460  return returndata */\n      swap1\n      pop\n      jump(tag_288)\n        /* \"source/Farm.sol\":11415:12010  if (success) {\r... */\n    tag_289:\n        /* \"source/Farm.sol\":11584:11585  0 */\n      0x00\n        /* \"source/Farm.sol\":11564:11574  returndata */\n      dup4\n        /* \"source/Farm.sol\":11564:11581  returndata.length */\n      mload\n        /* \"source/Farm.sol\":11564:11585  returndata.length > 0 */\n      gt\n        /* \"source/Farm.sol\":11560:11999  if (returndata.length > 0) {\r... */\n      iszero\n      tag_291\n      jumpi\n        /* \"source/Farm.sol\":11827:11837  returndata */\n      dup3\n        /* \"source/Farm.sol\":11821:11838  mload(returndata) */\n      mload\n        /* \"source/Farm.sol\":11888:11903  returndata_size */\n      dup1\n        /* \"source/Farm.sol\":11875:11885  returndata */\n      dup5\n        /* \"source/Farm.sol\":11871:11873  32 */\n      0x20\n        /* \"source/Farm.sol\":11867:11886  add(32, returndata) */\n      add\n        /* \"source/Farm.sol\":11860:11904  revert(add(32, returndata), returndata_size) */\n      revert\n        /* \"source/Farm.sol\":11560:11999  if (returndata.length > 0) {\r... */\n    tag_291:\n        /* \"source/Farm.sol\":11970:11982  errorMessage */\n      dup2\n        /* \"source/Farm.sol\":11963:11983  revert(errorMessage) */\n      mload(0x40)\n      0x08c379a000000000000000000000000000000000000000000000000000000000\n      dup2\n      mstore\n      0x04\n      add\n      tag_293\n      swap2\n      swap1\n      tag_294\n      jump\t// in\n    tag_293:\n      mload(0x40)\n      dup1\n      swap2\n      sub\n      swap1\n      revert\n        /* \"source/Farm.sol\":11275:12017  function _verifyCallResult(bool success, bytes memory returndata, string memory errorMessage) private pure returns(bytes memory) {\r... */\n    tag_288:\n      swap4\n      swap3\n      pop\n      pop\n      pop\n      jump\t// out\n    tag_141:\n      mload(0x40)\n      dup1\n      0x40\n      add\n      0x40\n      mstore\n      dup1\n      and(0xffffffffffffffffffffffffffffffffffffffff, 0x00)\n      dup2\n      mstore\n      0x20\n      add\n      0x00\n      dup2\n      mstore\n      pop\n      swap1\n      jump\t// out\n        /* \"#utility.yul\":7:146   */\n    tag_296:\n        /* \"#utility.yul\":53:58   */\n      0x00\n        /* \"#utility.yul\":91:97   */\n      dup2\n        /* \"#utility.yul\":78:98   */\n      calldataload\n        /* \"#utility.yul\":69:98   */\n      swap1\n      pop\n        /* \"#utility.yul\":107:140   */\n      tag_298\n        /* \"#utility.yul\":134:139   */\n      dup2\n        /* \"#utility.yul\":107:140   */\n      tag_299\n      jump\t// in\n    tag_298:\n        /* \"#utility.yul\":7:146   */\n      swap3\n      swap2\n      pop\n      pop\n      jump\t// out\n        /* \"#utility.yul\":152:295   */\n    tag_300:\n        /* \"#utility.yul\":209:214   */\n      0x00\n        /* \"#utility.yul\":240:246   */\n      dup2\n        /* \"#utility.yul\":234:247   */\n      mload\n        /* \"#utility.yul\":225:247   */\n      swap1\n      pop\n        /* \"#utility.yul\":256:289   */\n      tag_302\n        /* \"#utility.yul\":283:288   */\n      dup2\n        /* \"#utility.yul\":256:289   */\n      tag_299\n      jump\t// in\n    tag_302:\n        /* \"#utility.yul\":152:295   */\n      swap3\n      swap2\n      pop\n      pop\n      jump\t// out\n        /* \"#utility.yul\":301:438   */\n    tag_303:\n        /* \"#utility.yul\":355:360   */\n      0x00\n        /* \"#utility.yul\":386:392   */\n      dup2\n        /* \"#utility.yul\":380:393   */\n      mload\n        /* \"#utility.yul\":371:393   */\n      swap1\n      pop\n        /* \"#utility.yul\":402:432   */\n      tag_305\n        /* \"#utility.yul\":426:431   */\n      dup2\n        /* \"#utility.yul\":402:432   */\n      tag_306\n      jump\t// in\n    tag_305:\n        /* \"#utility.yul\":301:438   */\n      swap3\n      swap2\n      pop\n      pop\n      jump\t// out\n        /* \"#utility.yul\":444:583   */\n    tag_307:\n        /* \"#utility.yul\":490:495   */\n      0x00\n        /* \"#utility.yul\":528:534   */\n      dup2\n        /* \"#utility.yul\":515:535   */\n      calldataload\n        /* \"#utility.yul\":506:535   */\n      swap1\n      pop\n        /* \"#utility.yul\":544:577   */\n      tag_309\n        /* \"#utility.yul\":571:576   */\n      dup2\n        /* \"#utility.yul\":544:577   */\n      tag_310\n      jump\t// in\n    tag_309:\n        /* \"#utility.yul\":444:583   */\n      swap3\n      swap2\n      pop\n      pop\n      jump\t// out\n        /* \"#utility.yul\":589:732   */\n    tag_311:\n        /* \"#utility.yul\":646:651   */\n      0x00\n        /* \"#utility.yul\":677:683   */\n      dup2\n        /* \"#utility.yul\":671:684   */\n      mload\n        /* \"#utility.yul\":662:684   */\n      swap1\n      pop\n        /* \"#utility.yul\":693:726   */\n      tag_313\n        /* \"#utility.yul\":720:725   */\n      dup2\n        /* \"#utility.yul\":693:726   */\n      tag_310\n      jump\t// in\n    tag_313:\n        /* \"#utility.yul\":589:732   */\n      swap3\n      swap2\n      pop\n      pop\n      jump\t// out\n        /* \"#utility.yul\":738:1067   */\n    tag_39:\n        /* \"#utility.yul\":797:803   */\n      0x00\n        /* \"#utility.yul\":846:848   */\n      0x20\n        /* \"#utility.yul\":834:843   */\n      dup3\n        /* \"#utility.yul\":825:832   */\n      dup5\n        /* \"#utility.yul\":821:844   */\n      sub\n        /* \"#utility.yul\":817:849   */\n      slt\n        /* \"#utility.yul\":814:933   */\n      iszero\n      tag_315\n      jumpi\n        /* \"#utility.yul\":852:931   */\n      tag_316\n      tag_317\n      jump\t// in\n    tag_316:\n        /* \"#utility.yul\":814:933   */\n    tag_315:\n        /* \"#utility.yul\":972:973   */\n      0x00\n        /* \"#utility.yul\":997:1050   */\n      tag_318\n        /* \"#utility.yul\":1042:1049   */\n      dup5\n        /* \"#utility.yul\":1033:1039   */\n      dup3\n        /* \"#utility.yul\":1022:1031   */\n      dup6\n        /* \"#utility.yul\":1018:1040   */\n      add\n        /* \"#utility.yul\":997:1050   */\n      tag_296\n      jump\t// in\n    tag_318:\n        /* \"#utility.yul\":987:1050   */\n      swap2\n      pop\n        /* \"#utility.yul\":943:1060   */\n      pop\n        /* \"#utility.yul\":738:1067   */\n      swap3\n      swap2\n      pop\n      pop\n      jump\t// out\n        /* \"#utility.yul\":1073:1424   */\n    tag_241:\n        /* \"#utility.yul\":1143:1149   */\n      0x00\n        /* \"#utility.yul\":1192:1194   */\n      0x20\n        /* \"#utility.yul\":1180:1189   */\n      dup3\n        /* \"#utility.yul\":1171:1178   */\n      dup5\n        /* \"#utility.yul\":1167:1190   */\n      sub\n        /* \"#utility.yul\":1163:1195   */\n      slt\n        /* \"#utility.yul\":1160:1279   */\n      iszero\n      tag_320\n      jumpi\n        /* \"#utility.yul\":1198:1277   */\n      tag_321\n      tag_317\n      jump\t// in\n    tag_321:\n        /* \"#utility.yul\":1160:1279   */\n    tag_320:\n        /* \"#utility.yul\":1318:1319   */\n      0x00\n        /* \"#utility.yul\":1343:1407   */\n      tag_322\n        /* \"#utility.yul\":1399:1406   */\n      dup5\n        /* \"#utility.yul\":1390:1396   */\n      dup3\n        /* \"#utility.yul\":1379:1388   */\n      dup6\n        /* \"#utility.yul\":1375:1397   */\n      add\n        /* \"#utility.yul\":1343:1407   */\n      tag_300\n      jump\t// in\n    tag_322:\n        /* \"#utility.yul\":1333:1407   */\n      swap2\n      pop\n        /* \"#utility.yul\":1289:1417   */\n      pop\n        /* \"#utility.yul\":1073:1424   */\n      swap3\n      swap2\n      pop\n      pop\n      jump\t// out\n        /* \"#utility.yul\":1430:1775   */\n    tag_263:\n        /* \"#utility.yul\":1497:1503   */\n      0x00\n        /* \"#utility.yul\":1546:1548   */\n      0x20\n        /* \"#utility.yul\":1534:1543   */\n      dup3\n        /* \"#utility.yul\":1525:1532   */\n      dup5\n        /* \"#utility.yul\":1521:1544   */\n      sub\n        /* \"#utility.yul\":1517:1549   */\n      slt\n        /* \"#utility.yul\":1514:1633   */\n      iszero\n      tag_324\n      jumpi\n        /* \"#utility.yul\":1552:1631   */\n      tag_325\n      tag_317\n      jump\t// in\n    tag_325:\n        /* \"#utility.yul\":1514:1633   */\n    tag_324:\n        /* \"#utility.yul\":1672:1673   */\n      0x00\n        /* \"#utility.yul\":1697:1758   */\n      tag_326\n        /* \"#utility.yul\":1750:1757   */\n      dup5\n        /* \"#utility.yul\":1741:1747   */\n      dup3\n        /* \"#utility.yul\":1730:1739   */\n      dup6\n        /* \"#utility.yul\":1726:1748   */\n      add\n        /* \"#utility.yul\":1697:1758   */\n      tag_303\n      jump\t// in\n    tag_326:\n        /* \"#utility.yul\":1687:1758   */\n      swap2\n      pop\n        /* \"#utility.yul\":1643:1768   */\n      pop\n        /* \"#utility.yul\":1430:1775   */\n      swap3\n      swap2\n      pop\n      pop\n      jump\t// out\n        /* \"#utility.yul\":1781:2110   */\n    tag_25:\n        /* \"#utility.yul\":1840:1846   */\n      0x00\n        /* \"#utility.yul\":1889:1891   */\n      0x20\n        /* \"#utility.yul\":1877:1886   */\n      dup3\n        /* \"#utility.yul\":1868:1875   */\n      dup5\n        /* \"#utility.yul\":1864:1887   */\n      sub\n        /* \"#utility.yul\":1860:1892   */\n      slt\n        /* \"#utility.yul\":1857:1976   */\n      iszero\n      tag_328\n      jumpi\n        /* \"#utility.yul\":1895:1974   */\n      tag_329\n      tag_317\n      jump\t// in\n    tag_329:\n        /* \"#utility.yul\":1857:1976   */\n    tag_328:\n        /* \"#utility.yul\":2015:2016   */\n      0x00\n        /* \"#utility.yul\":2040:2093   */\n      tag_330\n        /* \"#utility.yul\":2085:2092   */\n      dup5\n        /* \"#utility.yul\":2076:2082   */\n      dup3\n        /* \"#utility.yul\":2065:2074   */\n      dup6\n        /* \"#utility.yul\":2061:2083   */\n      add\n        /* \"#utility.yul\":2040:2093   */\n      tag_307\n      jump\t// in\n    tag_330:\n        /* \"#utility.yul\":2030:2093   */\n      swap2\n      pop\n        /* \"#utility.yul\":1986:2103   */\n      pop\n        /* \"#utility.yul\":1781:2110   */\n      swap3\n      swap2\n      pop\n      pop\n      jump\t// out\n        /* \"#utility.yul\":2116:2467   */\n    tag_202:\n        /* \"#utility.yul\":2186:2192   */\n      0x00\n        /* \"#utility.yul\":2235:2237   */\n      0x20\n        /* \"#utility.yul\":2223:2232   */\n      dup3\n        /* \"#utility.yul\":2214:2221   */\n      dup5\n        /* \"#utility.yul\":2210:2233   */\n      sub\n        /* \"#utility.yul\":2206:2238   */\n      slt\n        /* \"#utility.yul\":2203:2322   */\n      iszero\n      tag_332\n      jumpi\n        /* \"#utility.yul\":2241:2320   */\n      tag_333\n      tag_317\n      jump\t// in\n    tag_333:\n        /* \"#utility.yul\":2203:2322   */\n    tag_332:\n        /* \"#utility.yul\":2361:2362   */\n      0x00\n        /* \"#utility.yul\":2386:2450   */\n      tag_334\n        /* \"#utility.yul\":2442:2449   */\n      dup5\n        /* \"#utility.yul\":2433:2439   */\n      dup3\n        /* \"#utility.yul\":2422:2431   */\n      dup6\n        /* \"#utility.yul\":2418:2440   */\n      add\n        /* \"#utility.yul\":2386:2450   */\n      tag_311\n      jump\t// in\n    tag_334:\n        /* \"#utility.yul\":2376:2450   */\n      swap2\n      pop\n        /* \"#utility.yul\":2332:2460   */\n      pop\n        /* \"#utility.yul\":2116:2467   */\n      swap3\n      swap2\n      pop\n      pop\n      jump\t// out\n        /* \"#utility.yul\":2473:2768   */\n    tag_335:\n        /* \"#utility.yul\":2600:2610   */\n      0x00\n        /* \"#utility.yul\":2621:2725   */\n      tag_337\n        /* \"#utility.yul\":2721:2724   */\n      dup4\n        /* \"#utility.yul\":2713:2719   */\n      dup4\n        /* \"#utility.yul\":2621:2725   */\n      tag_338\n      jump\t// in\n    tag_337:\n        /* \"#utility.yul\":2757:2761   */\n      0x40\n        /* \"#utility.yul\":2752:2755   */\n      dup4\n        /* \"#utility.yul\":2748:2762   */\n      add\n        /* \"#utility.yul\":2734:2762   */\n      swap1\n      pop\n        /* \"#utility.yul\":2473:2768   */\n      swap3\n      swap2\n      pop\n      pop\n      jump\t// out\n        /* \"#utility.yul\":2774:2882   */\n    tag_339:\n        /* \"#utility.yul\":2851:2875   */\n      tag_341\n        /* \"#utility.yul\":2869:2874   */\n      dup2\n        /* \"#utility.yul\":2851:2875   */\n      tag_342\n      jump\t// in\n    tag_341:\n        /* \"#utility.yul\":2846:2849   */\n      dup3\n        /* \"#utility.yul\":2839:2876   */\n      mstore\n        /* \"#utility.yul\":2774:2882   */\n      pop\n      pop\n      jump\t// out\n        /* \"#utility.yul\":2888:3006   */\n    tag_343:\n        /* \"#utility.yul\":2975:2999   */\n      tag_345\n        /* \"#utility.yul\":2993:2998   */\n      dup2\n        /* \"#utility.yul\":2975:2999   */\n      tag_342\n      jump\t// in\n    tag_345:\n        /* \"#utility.yul\":2970:2973   */\n      dup3\n        /* \"#utility.yul\":2963:3000   */\n      mstore\n        /* \"#utility.yul\":2888:3006   */\n      pop\n      pop\n      jump\t// out\n        /* \"#utility.yul\":3074:4038   */\n    tag_346:\n        /* \"#utility.yul\":3251:3254   */\n      0x00\n        /* \"#utility.yul\":3280:3363   */\n      tag_348\n        /* \"#utility.yul\":3357:3362   */\n      dup3\n        /* \"#utility.yul\":3280:3363   */\n      tag_349\n      jump\t// in\n    tag_348:\n        /* \"#utility.yul\":3379:3494   */\n      tag_350\n        /* \"#utility.yul\":3487:3493   */\n      dup2\n        /* \"#utility.yul\":3482:3485   */\n      dup6\n        /* \"#utility.yul\":3379:3494   */\n      tag_351\n      jump\t// in\n    tag_350:\n        /* \"#utility.yul\":3372:3494   */\n      swap4\n      pop\n        /* \"#utility.yul\":3518:3603   */\n      tag_352\n        /* \"#utility.yul\":3597:3602   */\n      dup4\n        /* \"#utility.yul\":3518:3603   */\n      tag_353\n      jump\t// in\n    tag_352:\n        /* \"#utility.yul\":3626:3633   */\n      dup1\n        /* \"#utility.yul\":3657:3658   */\n      0x00\n        /* \"#utility.yul\":3642:4013   */\n    tag_354:\n        /* \"#utility.yul\":3667:3673   */\n      dup4\n        /* \"#utility.yul\":3664:3665   */\n      dup2\n        /* \"#utility.yul\":3661:3674   */\n      lt\n        /* \"#utility.yul\":3642:4013   */\n      iszero\n      tag_356\n      jumpi\n        /* \"#utility.yul\":3743:3749   */\n      dup2\n        /* \"#utility.yul\":3737:3750   */\n      mload\n        /* \"#utility.yul\":3770:3891   */\n      tag_357\n        /* \"#utility.yul\":3887:3890   */\n      dup9\n        /* \"#utility.yul\":3872:3885   */\n      dup3\n        /* \"#utility.yul\":3770:3891   */\n      tag_335\n      jump\t// in\n    tag_357:\n        /* \"#utility.yul\":3763:3891   */\n      swap8\n      pop\n        /* \"#utility.yul\":3914:4003   */\n      tag_358\n        /* \"#utility.yul\":3996:4002   */\n      dup4\n        /* \"#utility.yul\":3914:4003   */\n      tag_359\n      jump\t// in\n    tag_358:\n        /* \"#utility.yul\":3904:4003   */\n      swap3\n      pop\n        /* \"#utility.yul\":3702:4013   */\n      pop\n        /* \"#utility.yul\":3689:3690   */\n      0x01\n        /* \"#utility.yul\":3686:3687   */\n      dup2\n        /* \"#utility.yul\":3682:3691   */\n      add\n        /* \"#utility.yul\":3677:3691   */\n      swap1\n      pop\n        /* \"#utility.yul\":3642:4013   */\n      jump(tag_354)\n    tag_356:\n        /* \"#utility.yul\":3646:3660   */\n      pop\n        /* \"#utility.yul\":4029:4032   */\n      dup6\n        /* \"#utility.yul\":4022:4032   */\n      swap4\n      pop\n        /* \"#utility.yul\":3256:4038   */\n      pop\n      pop\n      pop\n        /* \"#utility.yul\":3074:4038   */\n      swap3\n      swap2\n      pop\n      pop\n      jump\t// out\n        /* \"#utility.yul\":4044:4153   */\n    tag_360:\n        /* \"#utility.yul\":4125:4146   */\n      tag_362\n        /* \"#utility.yul\":4140:4145   */\n      dup2\n        /* \"#utility.yul\":4125:4146   */\n      tag_363\n      jump\t// in\n    tag_362:\n        /* \"#utility.yul\":4120:4123   */\n      dup3\n        /* \"#utility.yul\":4113:4147   */\n      mstore\n        /* \"#utility.yul\":4044:4153   */\n      pop\n      pop\n      jump\t// out\n        /* \"#utility.yul\":4159:4532   */\n    tag_364:\n        /* \"#utility.yul\":4263:4266   */\n      0x00\n        /* \"#utility.yul\":4291:4329   */\n      tag_366\n        /* \"#utility.yul\":4323:4328   */\n      dup3\n        /* \"#utility.yul\":4291:4329   */\n      tag_367\n      jump\t// in\n    tag_366:\n        /* \"#utility.yul\":4345:4433   */\n      tag_368\n        /* \"#utility.yul\":4426:4432   */\n      dup2\n        /* \"#utility.yul\":4421:4424   */\n      dup6\n        /* \"#utility.yul\":4345:4433   */\n      tag_369\n      jump\t// in\n    tag_368:\n        /* \"#utility.yul\":4338:4433   */\n      swap4\n      pop\n        /* \"#utility.yul\":4442:4494   */\n      tag_370\n        /* \"#utility.yul\":4487:4493   */\n      dup2\n        /* \"#utility.yul\":4482:4485   */\n      dup6\n        /* \"#utility.yul\":4475:4479   */\n      0x20\n        /* \"#utility.yul\":4468:4473   */\n      dup7\n        /* \"#utility.yul\":4464:4480   */\n      add\n        /* \"#utility.yul\":4442:4494   */\n      tag_371\n      jump\t// in\n    tag_370:\n        /* \"#utility.yul\":4519:4525   */\n      dup1\n        /* \"#utility.yul\":4514:4517   */\n      dup5\n        /* \"#utility.yul\":4510:4526   */\n      add\n        /* \"#utility.yul\":4503:4526   */\n      swap2\n      pop\n        /* \"#utility.yul\":4267:4532   */\n      pop\n        /* \"#utility.yul\":4159:4532   */\n      swap3\n      swap2\n      pop\n      pop\n      jump\t// out\n        /* \"#utility.yul\":4538:4697   */\n    tag_372:\n        /* \"#utility.yul\":4639:4690   */\n      tag_374\n        /* \"#utility.yul\":4684:4689   */\n      dup2\n        /* \"#utility.yul\":4639:4690   */\n      tag_375\n      jump\t// in\n    tag_374:\n        /* \"#utility.yul\":4634:4637   */\n      dup3\n        /* \"#utility.yul\":4627:4691   */\n      mstore\n        /* \"#utility.yul\":4538:4697   */\n      pop\n      pop\n      jump\t// out\n        /* \"#utility.yul\":4703:4864   */\n    tag_376:\n        /* \"#utility.yul\":4805:4857   */\n      tag_378\n        /* \"#utility.yul\":4851:4856   */\n      dup2\n        /* \"#utility.yul\":4805:4857   */\n      tag_379\n      jump\t// in\n    tag_378:\n        /* \"#utility.yul\":4800:4803   */\n      dup3\n        /* \"#utility.yul\":4793:4858   */\n      mstore\n        /* \"#utility.yul\":4703:4864   */\n      pop\n      pop\n      jump\t// out\n        /* \"#utility.yul\":4870:5234   */\n    tag_380:\n        /* \"#utility.yul\":4958:4961   */\n      0x00\n        /* \"#utility.yul\":4986:5025   */\n      tag_382\n        /* \"#utility.yul\":5019:5024   */\n      dup3\n        /* \"#utility.yul\":4986:5025   */\n      tag_383\n      jump\t// in\n    tag_382:\n        /* \"#utility.yul\":5041:5112   */\n      tag_384\n        /* \"#utility.yul\":5105:5111   */\n      dup2\n        /* \"#utility.yul\":5100:5103   */\n      dup6\n        /* \"#utility.yul\":5041:5112   */\n      tag_385\n      jump\t// in\n    tag_384:\n        /* \"#utility.yul\":5034:5112   */\n      swap4\n      pop\n        /* \"#utility.yul\":5121:5173   */\n      tag_386\n        /* \"#utility.yul\":5166:5172   */\n      dup2\n        /* \"#utility.yul\":5161:5164   */\n      dup6\n        /* \"#utility.yul\":5154:5158   */\n      0x20\n        /* \"#utility.yul\":5147:5152   */\n      dup7\n        /* \"#utility.yul\":5143:5159   */\n      add\n        /* \"#utility.yul\":5121:5173   */\n      tag_371\n      jump\t// in\n    tag_386:\n        /* \"#utility.yul\":5198:5227   */\n      tag_387\n        /* \"#utility.yul\":5220:5226   */\n      dup2\n        /* \"#utility.yul\":5198:5227   */\n      tag_388\n      jump\t// in\n    tag_387:\n        /* \"#utility.yul\":5193:5196   */\n      dup5\n        /* \"#utility.yul\":5189:5228   */\n      add\n        /* \"#utility.yul\":5182:5228   */\n      swap2\n      pop\n        /* \"#utility.yul\":4962:5234   */\n      pop\n        /* \"#utility.yul\":4870:5234   */\n      swap3\n      swap2\n      pop\n      pop\n      jump\t// out\n        /* \"#utility.yul\":5240:5606   */\n    tag_389:\n        /* \"#utility.yul\":5382:5385   */\n      0x00\n        /* \"#utility.yul\":5403:5470   */\n      tag_391\n        /* \"#utility.yul\":5467:5469   */\n      0x19\n        /* \"#utility.yul\":5462:5465   */\n      dup4\n        /* \"#utility.yul\":5403:5470   */\n      tag_385\n      jump\t// in\n    tag_391:\n        /* \"#utility.yul\":5396:5470   */\n      swap2\n      pop\n        /* \"#utility.yul\":5479:5572   */\n      tag_392\n        /* \"#utility.yul\":5568:5571   */\n      dup3\n        /* \"#utility.yul\":5479:5572   */\n      tag_393\n      jump\t// in\n    tag_392:\n        /* \"#utility.yul\":5597:5599   */\n      0x20\n        /* \"#utility.yul\":5592:5595   */\n      dup3\n        /* \"#utility.yul\":5588:5600   */\n      add\n        /* \"#utility.yul\":5581:5600   */\n      swap1\n      pop\n        /* \"#utility.yul\":5240:5606   */\n      swap2\n      swap1\n      pop\n      jump\t// out\n        /* \"#utility.yul\":5612:5978   */\n    tag_394:\n        /* \"#utility.yul\":5754:5757   */\n      0x00\n        /* \"#utility.yul\":5775:5842   */\n      tag_396\n        /* \"#utility.yul\":5839:5841   */\n      0x14\n        /* \"#utility.yul\":5834:5837   */\n      dup4\n        /* \"#utility.yul\":5775:5842   */\n      tag_385\n      jump\t// in\n    tag_396:\n        /* \"#utility.yul\":5768:5842   */\n      swap2\n      pop\n        /* \"#utility.yul\":5851:5944   */\n      tag_397\n        /* \"#utility.yul\":5940:5943   */\n      dup3\n        /* \"#utility.yul\":5851:5944   */\n      tag_398\n      jump\t// in\n    tag_397:\n        /* \"#utility.yul\":5969:5971   */\n      0x20\n        /* \"#utility.yul\":5964:5967   */\n      dup3\n        /* \"#utility.yul\":5960:5972   */\n      add\n        /* \"#utility.yul\":5953:5972   */\n      swap1\n      pop\n        /* \"#utility.yul\":5612:5978   */\n      swap2\n      swap1\n      pop\n      jump\t// out\n        /* \"#utility.yul\":5984:6350   */\n    tag_399:\n        /* \"#utility.yul\":6126:6129   */\n      0x00\n        /* \"#utility.yul\":6147:6214   */\n      tag_401\n        /* \"#utility.yul\":6211:6213   */\n      0x26\n        /* \"#utility.yul\":6206:6209   */\n      dup4\n        /* \"#utility.yul\":6147:6214   */\n      tag_385\n      jump\t// in\n    tag_401:\n        /* \"#utility.yul\":6140:6214   */\n      swap2\n      pop\n        /* \"#utility.yul\":6223:6316   */\n      tag_402\n        /* \"#utility.yul\":6312:6315   */\n      dup3\n        /* \"#utility.yul\":6223:6316   */\n      tag_403\n      jump\t// in\n    tag_402:\n        /* \"#utility.yul\":6341:6343   */\n      0x40\n        /* \"#utility.yul\":6336:6339   */\n      dup3\n        /* \"#utility.yul\":6332:6344   */\n      add\n        /* \"#utility.yul\":6325:6344   */\n      swap1\n      pop\n        /* \"#utility.yul\":5984:6350   */\n      swap2\n      swap1\n      pop\n      jump\t// out\n        /* \"#utility.yul\":6356:6722   */\n    tag_404:\n        /* \"#utility.yul\":6498:6501   */\n      0x00\n        /* \"#utility.yul\":6519:6586   */\n      tag_406\n        /* \"#utility.yul\":6583:6585   */\n      0x19\n        /* \"#utility.yul\":6578:6581   */\n      dup4\n        /* \"#utility.yul\":6519:6586   */\n      tag_385\n      jump\t// in\n    tag_406:\n        /* \"#utility.yul\":6512:6586   */\n      swap2\n      pop\n        /* \"#utility.yul\":6595:6688   */\n      tag_407\n        /* \"#utility.yul\":6684:6687   */\n      dup3\n        /* \"#utility.yul\":6595:6688   */\n      tag_408\n      jump\t// in\n    tag_407:\n        /* \"#utility.yul\":6713:6715   */\n      0x20\n        /* \"#utility.yul\":6708:6711   */\n      dup3\n        /* \"#utility.yul\":6704:6716   */\n      add\n        /* \"#utility.yul\":6697:6716   */\n      swap1\n      pop\n        /* \"#utility.yul\":6356:6722   */\n      swap2\n      swap1\n      pop\n      jump\t// out\n        /* \"#utility.yul\":6728:7094   */\n    tag_409:\n        /* \"#utility.yul\":6870:6873   */\n      0x00\n        /* \"#utility.yul\":6891:6958   */\n      tag_411\n        /* \"#utility.yul\":6955:6957   */\n      0x26\n        /* \"#utility.yul\":6950:6953   */\n      dup4\n        /* \"#utility.yul\":6891:6958   */\n      tag_385\n      jump\t// in\n    tag_411:\n        /* \"#utility.yul\":6884:6958   */\n      swap2\n      pop\n        /* \"#utility.yul\":6967:7060   */\n      tag_412\n        /* \"#utility.yul\":7056:7059   */\n      dup3\n        /* \"#utility.yul\":6967:7060   */\n      tag_413\n      jump\t// in\n    tag_412:\n        /* \"#utility.yul\":7085:7087   */\n      0x40\n        /* \"#utility.yul\":7080:7083   */\n      dup3\n        /* \"#utility.yul\":7076:7088   */\n      add\n        /* \"#utility.yul\":7069:7088   */\n      swap1\n      pop\n        /* \"#utility.yul\":6728:7094   */\n      swap2\n      swap1\n      pop\n      jump\t// out\n        /* \"#utility.yul\":7100:7466   */\n    tag_414:\n        /* \"#utility.yul\":7242:7245   */\n      0x00\n        /* \"#utility.yul\":7263:7330   */\n      tag_416\n        /* \"#utility.yul\":7327:7329   */\n      0x10\n        /* \"#utility.yul\":7322:7325   */\n      dup4\n        /* \"#utility.yul\":7263:7330   */\n      tag_385\n      jump\t// in\n    tag_416:\n        /* \"#utility.yul\":7256:7330   */\n      swap2\n      pop\n        /* \"#utility.yul\":7339:7432   */\n      tag_417\n        /* \"#utility.yul\":7428:7431   */\n      dup3\n        /* \"#utility.yul\":7339:7432   */\n      tag_418\n      jump\t// in\n    tag_417:\n        /* \"#utility.yul\":7457:7459   */\n      0x20\n        /* \"#utility.yul\":7452:7455   */\n      dup3\n        /* \"#utility.yul\":7448:7460   */\n      add\n        /* \"#utility.yul\":7441:7460   */\n      swap1\n      pop\n        /* \"#utility.yul\":7100:7466   */\n      swap2\n      swap1\n      pop\n      jump\t// out\n        /* \"#utility.yul\":7472:7838   */\n    tag_419:\n        /* \"#utility.yul\":7614:7617   */\n      0x00\n        /* \"#utility.yul\":7635:7702   */\n      tag_421\n        /* \"#utility.yul\":7699:7701   */\n      0x20\n        /* \"#utility.yul\":7694:7697   */\n      dup4\n        /* \"#utility.yul\":7635:7702   */\n      tag_385\n      jump\t// in\n    tag_421:\n        /* \"#utility.yul\":7628:7702   */\n      swap2\n      pop\n        /* \"#utility.yul\":7711:7804   */\n      tag_422\n        /* \"#utility.yul\":7800:7803   */\n      dup3\n        /* \"#utility.yul\":7711:7804   */\n      tag_423\n      jump\t// in\n    tag_422:\n        /* \"#utility.yul\":7829:7831   */\n      0x20\n        /* \"#utility.yul\":7824:7827   */\n      dup3\n        /* \"#utility.yul\":7820:7832   */\n      add\n        /* \"#utility.yul\":7813:7832   */\n      swap1\n      pop\n        /* \"#utility.yul\":7472:7838   */\n      swap2\n      swap1\n      pop\n      jump\t// out\n        /* \"#utility.yul\":7844:8210   */\n    tag_424:\n        /* \"#utility.yul\":7986:7989   */\n      0x00\n        /* \"#utility.yul\":8007:8074   */\n      tag_426\n        /* \"#utility.yul\":8071:8073   */\n      0x1c\n        /* \"#utility.yul\":8066:8069   */\n      dup4\n        /* \"#utility.yul\":8007:8074   */\n      tag_385\n      jump\t// in\n    tag_426:\n        /* \"#utility.yul\":8000:8074   */\n      swap2\n      pop\n        /* \"#utility.yul\":8083:8176   */\n      tag_427\n        /* \"#utility.yul\":8172:8175   */\n      dup3\n        /* \"#utility.yul\":8083:8176   */\n      tag_428\n      jump\t// in\n    tag_427:\n        /* \"#utility.yul\":8201:8203   */\n      0x20\n        /* \"#utility.yul\":8196:8199   */\n      dup3\n        /* \"#utility.yul\":8192:8204   */\n      add\n        /* \"#utility.yul\":8185:8204   */\n      swap1\n      pop\n        /* \"#utility.yul\":7844:8210   */\n      swap2\n      swap1\n      pop\n      jump\t// out\n        /* \"#utility.yul\":8216:8582   */\n    tag_429:\n        /* \"#utility.yul\":8358:8361   */\n      0x00\n        /* \"#utility.yul\":8379:8446   */\n      tag_431\n        /* \"#utility.yul\":8443:8445   */\n      0x1d\n        /* \"#utility.yul\":8438:8441   */\n      dup4\n        /* \"#utility.yul\":8379:8446   */\n      tag_385\n      jump\t// in\n    tag_431:\n        /* \"#utility.yul\":8372:8446   */\n      swap2\n      pop\n        /* \"#utility.yul\":8455:8548   */\n      tag_432\n        /* \"#utility.yul\":8544:8547   */\n      dup3\n        /* \"#utility.yul\":8455:8548   */\n      tag_433\n      jump\t// in\n    tag_432:\n        /* \"#utility.yul\":8573:8575   */\n      0x20\n        /* \"#utility.yul\":8568:8571   */\n      dup3\n        /* \"#utility.yul\":8564:8576   */\n      add\n        /* \"#utility.yul\":8557:8576   */\n      swap1\n      pop\n        /* \"#utility.yul\":8216:8582   */\n      swap2\n      swap1\n      pop\n      jump\t// out\n        /* \"#utility.yul\":8588:8954   */\n    tag_434:\n        /* \"#utility.yul\":8730:8733   */\n      0x00\n        /* \"#utility.yul\":8751:8818   */\n      tag_436\n        /* \"#utility.yul\":8815:8817   */\n      0x2a\n        /* \"#utility.yul\":8810:8813   */\n      dup4\n        /* \"#utility.yul\":8751:8818   */\n      tag_385\n      jump\t// in\n    tag_436:\n        /* \"#utility.yul\":8744:8818   */\n      swap2\n      pop\n        /* \"#utility.yul\":8827:8920   */\n      tag_437\n        /* \"#utility.yul\":8916:8919   */\n      dup3\n        /* \"#utility.yul\":8827:8920   */\n      tag_438\n      jump\t// in\n    tag_437:\n        /* \"#utility.yul\":8945:8947   */\n      0x40\n        /* \"#utility.yul\":8940:8943   */\n      dup3\n        /* \"#utility.yul\":8936:8948   */\n      add\n        /* \"#utility.yul\":8929:8948   */\n      swap1\n      pop\n        /* \"#utility.yul\":8588:8954   */\n      swap2\n      swap1\n      pop\n      jump\t// out\n        /* \"#utility.yul\":8960:9326   */\n    tag_439:\n        /* \"#utility.yul\":9102:9105   */\n      0x00\n        /* \"#utility.yul\":9123:9190   */\n      tag_441\n        /* \"#utility.yul\":9187:9189   */\n      0x1f\n        /* \"#utility.yul\":9182:9185   */\n      dup4\n        /* \"#utility.yul\":9123:9190   */\n      tag_385\n      jump\t// in\n    tag_441:\n        /* \"#utility.yul\":9116:9190   */\n      swap2\n      pop\n        /* \"#utility.yul\":9199:9292   */\n      tag_442\n        /* \"#utility.yul\":9288:9291   */\n      dup3\n        /* \"#utility.yul\":9199:9292   */\n      tag_443\n      jump\t// in\n    tag_442:\n        /* \"#utility.yul\":9317:9319   */\n      0x20\n        /* \"#utility.yul\":9312:9315   */\n      dup3\n        /* \"#utility.yul\":9308:9320   */\n      add\n        /* \"#utility.yul\":9301:9320   */\n      swap1\n      pop\n        /* \"#utility.yul\":8960:9326   */\n      swap2\n      swap1\n      pop\n      jump\t// out\n        /* \"#utility.yul\":9390:9900   */\n    tag_338:\n        /* \"#utility.yul\":9535:9539   */\n      0x40\n        /* \"#utility.yul\":9530:9533   */\n      dup3\n        /* \"#utility.yul\":9526:9540   */\n      add\n        /* \"#utility.yul\":9624:9628   */\n      0x00\n        /* \"#utility.yul\":9617:9622   */\n      dup3\n        /* \"#utility.yul\":9613:9629   */\n      add\n        /* \"#utility.yul\":9607:9630   */\n      mload\n        /* \"#utility.yul\":9643:9706   */\n      tag_445\n        /* \"#utility.yul\":9700:9704   */\n      0x00\n        /* \"#utility.yul\":9695:9698   */\n      dup6\n        /* \"#utility.yul\":9691:9705   */\n      add\n        /* \"#utility.yul\":9677:9689   */\n      dup3\n        /* \"#utility.yul\":9643:9706   */\n      tag_339\n      jump\t// in\n    tag_445:\n        /* \"#utility.yul\":9550:9716   */\n      pop\n        /* \"#utility.yul\":9801:9805   */\n      0x20\n        /* \"#utility.yul\":9794:9799   */\n      dup3\n        /* \"#utility.yul\":9790:9806   */\n      add\n        /* \"#utility.yul\":9784:9807   */\n      mload\n        /* \"#utility.yul\":9820:9883   */\n      tag_446\n        /* \"#utility.yul\":9877:9881   */\n      0x20\n        /* \"#utility.yul\":9872:9875   */\n      dup6\n        /* \"#utility.yul\":9868:9882   */\n      add\n        /* \"#utility.yul\":9854:9866   */\n      dup3\n        /* \"#utility.yul\":9820:9883   */\n      tag_447\n      jump\t// in\n    tag_446:\n        /* \"#utility.yul\":9726:9893   */\n      pop\n        /* \"#utility.yul\":9504:9900   */\n      pop\n        /* \"#utility.yul\":9390:9900   */\n      pop\n      pop\n      jump\t// out\n        /* \"#utility.yul\":9906:10014   */\n    tag_447:\n        /* \"#utility.yul\":9983:10007   */\n      tag_449\n        /* \"#utility.yul\":10001:10006   */\n      dup2\n        /* \"#utility.yul\":9983:10007   */\n      tag_450\n      jump\t// in\n    tag_449:\n        /* \"#utility.yul\":9978:9981   */\n      dup3\n        /* \"#utility.yul\":9971:10008   */\n      mstore\n        /* \"#utility.yul\":9906:10014   */\n      pop\n      pop\n      jump\t// out\n        /* \"#utility.yul\":10020:10138   */\n    tag_451:\n        /* \"#utility.yul\":10107:10131   */\n      tag_453\n        /* \"#utility.yul\":10125:10130   */\n      dup2\n        /* \"#utility.yul\":10107:10131   */\n      tag_450\n      jump\t// in\n    tag_453:\n        /* \"#utility.yul\":10102:10105   */\n      dup3\n        /* \"#utility.yul\":10095:10132   */\n      mstore\n        /* \"#utility.yul\":10020:10138   */\n      pop\n      pop\n      jump\t// out\n        /* \"#utility.yul\":10144:10415   */\n    tag_281:\n        /* \"#utility.yul\":10274:10277   */\n      0x00\n        /* \"#utility.yul\":10296:10389   */\n      tag_455\n        /* \"#utility.yul\":10385:10388   */\n      dup3\n        /* \"#utility.yul\":10376:10382   */\n      dup5\n        /* \"#utility.yul\":10296:10389   */\n      tag_364\n      jump\t// in\n    tag_455:\n        /* \"#utility.yul\":10289:10389   */\n      swap2\n      pop\n        /* \"#utility.yul\":10406:10409   */\n      dup2\n        /* \"#utility.yul\":10399:10409   */\n      swap1\n      pop\n        /* \"#utility.yul\":10144:10415   */\n      swap3\n      swap2\n      pop\n      pop\n      jump\t// out\n        /* \"#utility.yul\":10421:10643   */\n    tag_52:\n        /* \"#utility.yul\":10514:10518   */\n      0x00\n        /* \"#utility.yul\":10552:10554   */\n      0x20\n        /* \"#utility.yul\":10541:10550   */\n      dup3\n        /* \"#utility.yul\":10537:10555   */\n      add\n        /* \"#utility.yul\":10529:10555   */\n      swap1\n      pop\n        /* \"#utility.yul\":10565:10636   */\n      tag_457\n        /* \"#utility.yul\":10633:10634   */\n      0x00\n        /* \"#utility.yul\":10622:10631   */\n      dup4\n        /* \"#utility.yul\":10618:10635   */\n      add\n        /* \"#utility.yul\":10609:10615   */\n      dup5\n        /* \"#utility.yul\":10565:10636   */\n      tag_343\n      jump\t// in\n    tag_457:\n        /* \"#utility.yul\":10421:10643   */\n      swap3\n      swap2\n      pop\n      pop\n      jump\t// out\n        /* \"#utility.yul\":10649:11091   */\n    tag_118:\n        /* \"#utility.yul\":10798:10802   */\n      0x00\n        /* \"#utility.yul\":10836:10838   */\n      0x60\n        /* \"#utility.yul\":10825:10834   */\n      dup3\n        /* \"#utility.yul\":10821:10839   */\n      add\n        /* \"#utility.yul\":10813:10839   */\n      swap1\n      pop\n        /* \"#utility.yul\":10849:10920   */\n      tag_459\n        /* \"#utility.yul\":10917:10918   */\n      0x00\n        /* \"#utility.yul\":10906:10915   */\n      dup4\n        /* \"#utility.yul\":10902:10919   */\n      add\n        /* \"#utility.yul\":10893:10899   */\n      dup7\n        /* \"#utility.yul\":10849:10920   */\n      tag_343\n      jump\t// in\n    tag_459:\n        /* \"#utility.yul\":10930:11002   */\n      tag_460\n        /* \"#utility.yul\":10998:11000   */\n      0x20\n        /* \"#utility.yul\":10987:10996   */\n      dup4\n        /* \"#utility.yul\":10983:11001   */\n      add\n        /* \"#utility.yul\":10974:10980   */\n      dup6\n        /* \"#utility.yul\":10930:11002   */\n      tag_343\n      jump\t// in\n    tag_460:\n        /* \"#utility.yul\":11012:11084   */\n      tag_461\n        /* \"#utility.yul\":11080:11082   */\n      0x40\n        /* \"#utility.yul\":11069:11078   */\n      dup4\n        /* \"#utility.yul\":11065:11083   */\n      add\n        /* \"#utility.yul\":11056:11062   */\n      dup5\n        /* \"#utility.yul\":11012:11084   */\n      tag_451\n      jump\t// in\n    tag_461:\n        /* \"#utility.yul\":10649:11091   */\n      swap5\n      swap4\n      pop\n      pop\n      pop\n      pop\n      jump\t// out\n        /* \"#utility.yul\":11097:11429   */\n    tag_220:\n        /* \"#utility.yul\":11218:11222   */\n      0x00\n        /* \"#utility.yul\":11256:11258   */\n      0x40\n        /* \"#utility.yul\":11245:11254   */\n      dup3\n        /* \"#utility.yul\":11241:11259   */\n      add\n        /* \"#utility.yul\":11233:11259   */\n      swap1\n      pop\n        /* \"#utility.yul\":11269:11340   */\n      tag_463\n        /* \"#utility.yul\":11337:11338   */\n      0x00\n        /* \"#utility.yul\":11326:11335   */\n      dup4\n        /* \"#utility.yul\":11322:11339   */\n      add\n        /* \"#utility.yul\":11313:11319   */\n      dup6\n        /* \"#utility.yul\":11269:11340   */\n      tag_343\n      jump\t// in\n    tag_463:\n        /* \"#utility.yul\":11350:11422   */\n      tag_464\n        /* \"#utility.yul\":11418:11420   */\n      0x20\n        /* \"#utility.yul\":11407:11416   */\n      dup4\n        /* \"#utility.yul\":11403:11421   */\n      add\n        /* \"#utility.yul\":11394:11400   */\n      dup5\n        /* \"#utility.yul\":11350:11422   */\n      tag_451\n      jump\t// in\n    tag_464:\n        /* \"#utility.yul\":11097:11429   */\n      swap4\n      swap3\n      pop\n      pop\n      pop\n      jump\t// out\n        /* \"#utility.yul\":11435:11924   */\n    tag_42:\n        /* \"#utility.yul\":11636:11640   */\n      0x00\n        /* \"#utility.yul\":11674:11676   */\n      0x20\n        /* \"#utility.yul\":11663:11672   */\n      dup3\n        /* \"#utility.yul\":11659:11677   */\n      add\n        /* \"#utility.yul\":11651:11677   */\n      swap1\n      pop\n        /* \"#utility.yul\":11723:11732   */\n      dup2\n        /* \"#utility.yul\":11717:11721   */\n      dup2\n        /* \"#utility.yul\":11713:11733   */\n      sub\n        /* \"#utility.yul\":11709:11710   */\n      0x00\n        /* \"#utility.yul\":11698:11707   */\n      dup4\n        /* \"#utility.yul\":11694:11711   */\n      add\n        /* \"#utility.yul\":11687:11734   */\n      mstore\n        /* \"#utility.yul\":11751:11917   */\n      tag_466\n        /* \"#utility.yul\":11912:11916   */\n      dup2\n        /* \"#utility.yul\":11903:11909   */\n      dup5\n        /* \"#utility.yul\":11751:11917   */\n      tag_346\n      jump\t// in\n    tag_466:\n        /* \"#utility.yul\":11743:11917   */\n      swap1\n      pop\n        /* \"#utility.yul\":11435:11924   */\n      swap3\n      swap2\n      pop\n      pop\n      jump\t// out\n        /* \"#utility.yul\":11930:12140   */\n    tag_36:\n        /* \"#utility.yul\":12017:12021   */\n      0x00\n        /* \"#utility.yul\":12055:12057   */\n      0x20\n        /* \"#utility.yul\":12044:12053   */\n      dup3\n        /* \"#utility.yul\":12040:12058   */\n      add\n        /* \"#utility.yul\":12032:12058   */\n      swap1\n      pop\n        /* \"#utility.yul\":12068:12133   */\n      tag_468\n        /* \"#utility.yul\":12130:12131   */\n      0x00\n        /* \"#utility.yul\":12119:12128   */\n      dup4\n        /* \"#utility.yul\":12115:12132   */\n      add\n        /* \"#utility.yul\":12106:12112   */\n      dup5\n        /* \"#utility.yul\":12068:12133   */\n      tag_360\n      jump\t// in\n    tag_468:\n        /* \"#utility.yul\":11930:12140   */\n      swap3\n      swap2\n      pop\n      pop\n      jump\t// out\n        /* \"#utility.yul\":12146:12396   */\n    tag_74:\n        /* \"#utility.yul\":12253:12257   */\n      0x00\n        /* \"#utility.yul\":12291:12293   */\n      0x20\n        /* \"#utility.yul\":12280:12289   */\n      dup3\n        /* \"#utility.yul\":12276:12294   */\n      add\n        /* \"#utility.yul\":12268:12294   */\n      swap1\n      pop\n        /* \"#utility.yul\":12304:12389   */\n      tag_470\n        /* \"#utility.yul\":12386:12387   */\n      0x00\n        /* \"#utility.yul\":12375:12384   */\n      dup4\n        /* \"#utility.yul\":12371:12388   */\n      add\n        /* \"#utility.yul\":12362:12368   */\n      dup5\n        /* \"#utility.yul\":12304:12389   */\n      tag_372\n      jump\t// in\n    tag_470:\n        /* \"#utility.yul\":12146:12396   */\n      swap3\n      swap2\n      pop\n      pop\n      jump\t// out\n        /* \"#utility.yul\":12402:12654   */\n    tag_46:\n        /* \"#utility.yul\":12510:12514   */\n      0x00\n        /* \"#utility.yul\":12548:12550   */\n      0x20\n        /* \"#utility.yul\":12537:12546   */\n      dup3\n        /* \"#utility.yul\":12533:12551   */\n      add\n        /* \"#utility.yul\":12525:12551   */\n      swap1\n      pop\n        /* \"#utility.yul\":12561:12647   */\n      tag_472\n        /* \"#utility.yul\":12644:12645   */\n      0x00\n        /* \"#utility.yul\":12633:12642   */\n      dup4\n        /* \"#utility.yul\":12629:12646   */\n      add\n        /* \"#utility.yul\":12620:12626   */\n      dup5\n        /* \"#utility.yul\":12561:12647   */\n      tag_376\n      jump\t// in\n    tag_472:\n        /* \"#utility.yul\":12402:12654   */\n      swap3\n      swap2\n      pop\n      pop\n      jump\t// out\n        /* \"#utility.yul\":12660:12973   */\n    tag_294:\n        /* \"#utility.yul\":12773:12777   */\n      0x00\n        /* \"#utility.yul\":12811:12813   */\n      0x20\n        /* \"#utility.yul\":12800:12809   */\n      dup3\n        /* \"#utility.yul\":12796:12814   */\n      add\n        /* \"#utility.yul\":12788:12814   */\n      swap1\n      pop\n        /* \"#utility.yul\":12860:12869   */\n      dup2\n        /* \"#utility.yul\":12854:12858   */\n      dup2\n        /* \"#utility.yul\":12850:12870   */\n      sub\n        /* \"#utility.yul\":12846:12847   */\n      0x00\n        /* \"#utility.yul\":12835:12844   */\n      dup4\n        /* \"#utility.yul\":12831:12848   */\n      add\n        /* \"#utility.yul\":12824:12871   */\n      mstore\n        /* \"#utility.yul\":12888:12966   */\n      tag_474\n        /* \"#utility.yul\":12961:12965   */\n      dup2\n        /* \"#utility.yul\":12952:12958   */\n      dup5\n        /* \"#utility.yul\":12888:12966   */\n      tag_380\n      jump\t// in\n    tag_474:\n        /* \"#utility.yul\":12880:12966   */\n      swap1\n      pop\n        /* \"#utility.yul\":12660:12973   */\n      swap3\n      swap2\n      pop\n      pop\n      jump\t// out\n        /* \"#utility.yul\":12979:13398   */\n    tag_93:\n        /* \"#utility.yul\":13145:13149   */\n      0x00\n        /* \"#utility.yul\":13183:13185   */\n      0x20\n        /* \"#utility.yul\":13172:13181   */\n      dup3\n        /* \"#utility.yul\":13168:13186   */\n      add\n        /* \"#utility.yul\":13160:13186   */\n      swap1\n      pop\n        /* \"#utility.yul\":13232:13241   */\n      dup2\n        /* \"#utility.yul\":13226:13230   */\n      dup2\n        /* \"#utility.yul\":13222:13242   */\n      sub\n        /* \"#utility.yul\":13218:13219   */\n      0x00\n        /* \"#utility.yul\":13207:13216   */\n      dup4\n        /* \"#utility.yul\":13203:13220   */\n      add\n        /* \"#utility.yul\":13196:13243   */\n      mstore\n        /* \"#utility.yul\":13260:13391   */\n      tag_476\n        /* \"#utility.yul\":13386:13390   */\n      dup2\n        /* \"#utility.yul\":13260:13391   */\n      tag_389\n      jump\t// in\n    tag_476:\n        /* \"#utility.yul\":13252:13391   */\n      swap1\n      pop\n        /* \"#utility.yul\":12979:13398   */\n      swap2\n      swap1\n      pop\n      jump\t// out\n        /* \"#utility.yul\":13404:13823   */\n    tag_257:\n        /* \"#utility.yul\":13570:13574   */\n      0x00\n        /* \"#utility.yul\":13608:13610   */\n      0x20\n        /* \"#utility.yul\":13597:13606   */\n      dup3\n        /* \"#utility.yul\":13593:13611   */\n      add\n        /* \"#utility.yul\":13585:13611   */\n      swap1\n      pop\n        /* \"#utility.yul\":13657:13666   */\n      dup2\n        /* \"#utility.yul\":13651:13655   */\n      dup2\n        /* \"#utility.yul\":13647:13667   */\n      sub\n        /* \"#utility.yul\":13643:13644   */\n      0x00\n        /* \"#utility.yul\":13632:13641   */\n      dup4\n        /* \"#utility.yul\":13628:13645   */\n      add\n        /* \"#utility.yul\":13621:13668   */\n      mstore\n        /* \"#utility.yul\":13685:13816   */\n      tag_478\n        /* \"#utility.yul\":13811:13815   */\n      dup2\n        /* \"#utility.yul\":13685:13816   */\n      tag_394\n      jump\t// in\n    tag_478:\n        /* \"#utility.yul\":13677:13816   */\n      swap1\n      pop\n        /* \"#utility.yul\":13404:13823   */\n      swap2\n      swap1\n      pop\n      jump\t// out\n        /* \"#utility.yul\":13829:14248   */\n    tag_186:\n        /* \"#utility.yul\":13995:13999   */\n      0x00\n        /* \"#utility.yul\":14033:14035   */\n      0x20\n        /* \"#utility.yul\":14022:14031   */\n      dup3\n        /* \"#utility.yul\":14018:14036   */\n      add\n        /* \"#utility.yul\":14010:14036   */\n      swap1\n      pop\n        /* \"#utility.yul\":14082:14091   */\n      dup2\n        /* \"#utility.yul\":14076:14080   */\n      dup2\n        /* \"#utility.yul\":14072:14092   */\n      sub\n        /* \"#utility.yul\":14068:14069   */\n      0x00\n        /* \"#utility.yul\":14057:14066   */\n      dup4\n        /* \"#utility.yul\":14053:14070   */\n      add\n        /* \"#utility.yul\":14046:14093   */\n      mstore\n        /* \"#utility.yul\":14110:14241   */\n      tag_480\n        /* \"#utility.yul\":14236:14240   */\n      dup2\n        /* \"#utility.yul\":14110:14241   */\n      tag_399\n      jump\t// in\n    tag_480:\n        /* \"#utility.yul\":14102:14241   */\n      swap1\n      pop\n        /* \"#utility.yul\":13829:14248   */\n      swap2\n      swap1\n      pop\n      jump\t// out\n        /* \"#utility.yul\":14254:14673   */\n    tag_90:\n        /* \"#utility.yul\":14420:14424   */\n      0x00\n        /* \"#utility.yul\":14458:14460   */\n      0x20\n        /* \"#utility.yul\":14447:14456   */\n      dup3\n        /* \"#utility.yul\":14443:14461   */\n      add\n        /* \"#utility.yul\":14435:14461   */\n      swap1\n      pop\n        /* \"#utility.yul\":14507:14516   */\n      dup2\n        /* \"#utility.yul\":14501:14505   */\n      dup2\n        /* \"#utility.yul\":14497:14517   */\n      sub\n        /* \"#utility.yul\":14493:14494   */\n      0x00\n        /* \"#utility.yul\":14482:14491   */\n      dup4\n        /* \"#utility.yul\":14478:14495   */\n      add\n        /* \"#utility.yul\":14471:14518   */\n      mstore\n        /* \"#utility.yul\":14535:14666   */\n      tag_482\n        /* \"#utility.yul\":14661:14665   */\n      dup2\n        /* \"#utility.yul\":14535:14666   */\n      tag_404\n      jump\t// in\n    tag_482:\n        /* \"#utility.yul\":14527:14666   */\n      swap1\n      pop\n        /* \"#utility.yul\":14254:14673   */\n      swap2\n      swap1\n      pop\n      jump\t// out\n        /* \"#utility.yul\":14679:15098   */\n    tag_274:\n        /* \"#utility.yul\":14845:14849   */\n      0x00\n        /* \"#utility.yul\":14883:14885   */\n      0x20\n        /* \"#utility.yul\":14872:14881   */\n      dup3\n        /* \"#utility.yul\":14868:14886   */\n      add\n        /* \"#utility.yul\":14860:14886   */\n      swap1\n      pop\n        /* \"#utility.yul\":14932:14941   */\n      dup2\n        /* \"#utility.yul\":14926:14930   */\n      dup2\n        /* \"#utility.yul\":14922:14942   */\n      sub\n        /* \"#utility.yul\":14918:14919   */\n      0x00\n        /* \"#utility.yul\":14907:14916   */\n      dup4\n        /* \"#utility.yul\":14903:14920   */\n      add\n        /* \"#utility.yul\":14896:14943   */\n      mstore\n        /* \"#utility.yul\":14960:15091   */\n      tag_484\n        /* \"#utility.yul\":15086:15090   */\n      dup2\n        /* \"#utility.yul\":14960:15091   */\n      tag_409\n      jump\t// in\n    tag_484:\n        /* \"#utility.yul\":14952:15091   */\n      swap1\n      pop\n        /* \"#utility.yul\":14679:15098   */\n      swap2\n      swap1\n      pop\n      jump\t// out\n        /* \"#utility.yul\":15104:15523   */\n    tag_234:\n        /* \"#utility.yul\":15270:15274   */\n      0x00\n        /* \"#utility.yul\":15308:15310   */\n      0x20\n        /* \"#utility.yul\":15297:15306   */\n      dup3\n        /* \"#utility.yul\":15293:15311   */\n      add\n        /* \"#utility.yul\":15285:15311   */\n      swap1\n      pop\n        /* \"#utility.yul\":15357:15366   */\n      dup2\n        /* \"#utility.yul\":15351:15355   */\n      dup2\n        /* \"#utility.yul\":15347:15367   */\n      sub\n        /* \"#utility.yul\":15343:15344   */\n      0x00\n        /* \"#utility.yul\":15332:15341   */\n      dup4\n        /* \"#utility.yul\":15328:15345   */\n      add\n        /* \"#utility.yul\":15321:15368   */\n      mstore\n        /* \"#utility.yul\":15385:15516   */\n      tag_486\n        /* \"#utility.yul\":15511:15515   */\n      dup2\n        /* \"#utility.yul\":15385:15516   */\n      tag_414\n      jump\t// in\n    tag_486:\n        /* \"#utility.yul\":15377:15516   */\n      swap1\n      pop\n        /* \"#utility.yul\":15104:15523   */\n      swap2\n      swap1\n      pop\n      jump\t// out\n        /* \"#utility.yul\":15529:15948   */\n    tag_228:\n        /* \"#utility.yul\":15695:15699   */\n      0x00\n        /* \"#utility.yul\":15733:15735   */\n      0x20\n        /* \"#utility.yul\":15722:15731   */\n      dup3\n        /* \"#utility.yul\":15718:15736   */\n      add\n        /* \"#utility.yul\":15710:15736   */\n      swap1\n      pop\n        /* \"#utility.yul\":15782:15791   */\n      dup2\n        /* \"#utility.yul\":15776:15780   */\n      dup2\n        /* \"#utility.yul\":15772:15792   */\n      sub\n        /* \"#utility.yul\":15768:15769   */\n      0x00\n        /* \"#utility.yul\":15757:15766   */\n      dup4\n        /* \"#utility.yul\":15753:15770   */\n      add\n        /* \"#utility.yul\":15746:15793   */\n      mstore\n        /* \"#utility.yul\":15810:15941   */\n      tag_488\n        /* \"#utility.yul\":15936:15940   */\n      dup2\n        /* \"#utility.yul\":15810:15941   */\n      tag_419\n      jump\t// in\n    tag_488:\n        /* \"#utility.yul\":15802:15941   */\n      swap1\n      pop\n        /* \"#utility.yul\":15529:15948   */\n      swap2\n      swap1\n      pop\n      jump\t// out\n        /* \"#utility.yul\":15954:16373   */\n    tag_129:\n        /* \"#utility.yul\":16120:16124   */\n      0x00\n        /* \"#utility.yul\":16158:16160   */\n      0x20\n        /* \"#utility.yul\":16147:16156   */\n      dup3\n        /* \"#utility.yul\":16143:16161   */\n      add\n        /* \"#utility.yul\":16135:16161   */\n      swap1\n      pop\n        /* \"#utility.yul\":16207:16216   */\n      dup2\n        /* \"#utility.yul\":16201:16205   */\n      dup2\n        /* \"#utility.yul\":16197:16217   */\n      sub\n        /* \"#utility.yul\":16193:16194   */\n      0x00\n        /* \"#utility.yul\":16182:16191   */\n      dup4\n        /* \"#utility.yul\":16178:16195   */\n      add\n        /* \"#utility.yul\":16171:16218   */\n      mstore\n        /* \"#utility.yul\":16235:16366   */\n      tag_490\n        /* \"#utility.yul\":16361:16365   */\n      dup2\n        /* \"#utility.yul\":16235:16366   */\n      tag_424\n      jump\t// in\n    tag_490:\n        /* \"#utility.yul\":16227:16366   */\n      swap1\n      pop\n        /* \"#utility.yul\":15954:16373   */\n      swap2\n      swap1\n      pop\n      jump\t// out\n        /* \"#utility.yul\":16379:16798   */\n    tag_279:\n        /* \"#utility.yul\":16545:16549   */\n      0x00\n        /* \"#utility.yul\":16583:16585   */\n      0x20\n        /* \"#utility.yul\":16572:16581   */\n      dup3\n        /* \"#utility.yul\":16568:16586   */\n      add\n        /* \"#utility.yul\":16560:16586   */\n      swap1\n      pop\n        /* \"#utility.yul\":16632:16641   */\n      dup2\n        /* \"#utility.yul\":16626:16630   */\n      dup2\n        /* \"#utility.yul\":16622:16642   */\n      sub\n        /* \"#utility.yul\":16618:16619   */\n      0x00\n        /* \"#utility.yul\":16607:16616   */\n      dup4\n        /* \"#utility.yul\":16603:16620   */\n      add\n        /* \"#utility.yul\":16596:16643   */\n      mstore\n        /* \"#utility.yul\":16660:16791   */\n      tag_492\n        /* \"#utility.yul\":16786:16790   */\n      dup2\n        /* \"#utility.yul\":16660:16791   */\n      tag_429\n      jump\t// in\n    tag_492:\n        /* \"#utility.yul\":16652:16791   */\n      swap1\n      pop\n        /* \"#utility.yul\":16379:16798   */\n      swap2\n      swap1\n      pop\n      jump\t// out\n        /* \"#utility.yul\":16804:17223   */\n    tag_266:\n        /* \"#utility.yul\":16970:16974   */\n      0x00\n        /* \"#utility.yul\":17008:17010   */\n      0x20\n        /* \"#utility.yul\":16997:17006   */\n      dup3\n        /* \"#utility.yul\":16993:17011   */\n      add\n        /* \"#utility.yul\":16985:17011   */\n      swap1\n      pop\n        /* \"#utility.yul\":17057:17066   */\n      dup2\n        /* \"#utility.yul\":17051:17055   */\n      dup2\n        /* \"#utility.yul\":17047:17067   */\n      sub\n        /* \"#utility.yul\":17043:17044   */\n      0x00\n        /* \"#utility.yul\":17032:17041   */\n      dup4\n        /* \"#utility.yul\":17028:17045   */\n      add\n        /* \"#utility.yul\":17021:17068   */\n      mstore\n        /* \"#utility.yul\":17085:17216   */\n      tag_494\n        /* \"#utility.yul\":17211:17215   */\n      dup2\n        /* \"#utility.yul\":17085:17216   */\n      tag_434\n      jump\t// in\n    tag_494:\n        /* \"#utility.yul\":17077:17216   */\n      swap1\n      pop\n        /* \"#utility.yul\":16804:17223   */\n      swap2\n      swap1\n      pop\n      jump\t// out\n        /* \"#utility.yul\":17229:17648   */\n    tag_207:\n        /* \"#utility.yul\":17395:17399   */\n      0x00\n        /* \"#utility.yul\":17433:17435   */\n      0x20\n        /* \"#utility.yul\":17422:17431   */\n      dup3\n        /* \"#utility.yul\":17418:17436   */\n      add\n        /* \"#utility.yul\":17410:17436   */\n      swap1\n      pop\n        /* \"#utility.yul\":17482:17491   */\n      dup2\n        /* \"#utility.yul\":17476:17480   */\n      dup2\n        /* \"#utility.yul\":17472:17492   */\n      sub\n        /* \"#utility.yul\":17468:17469   */\n      0x00\n        /* \"#utility.yul\":17457:17466   */\n      dup4\n        /* \"#utility.yul\":17453:17470   */\n      add\n        /* \"#utility.yul\":17446:17493   */\n      mstore\n        /* \"#utility.yul\":17510:17641   */\n      tag_496\n        /* \"#utility.yul\":17636:17640   */\n      dup2\n        /* \"#utility.yul\":17510:17641   */\n      tag_439\n      jump\t// in\n    tag_496:\n        /* \"#utility.yul\":17502:17641   */\n      swap1\n      pop\n        /* \"#utility.yul\":17229:17648   */\n      swap2\n      swap1\n      pop\n      jump\t// out\n        /* \"#utility.yul\":17654:17876   */\n    tag_32:\n        /* \"#utility.yul\":17747:17751   */\n      0x00\n        /* \"#utility.yul\":17785:17787   */\n      0x20\n        /* \"#utility.yul\":17774:17783   */\n      dup3\n        /* \"#utility.yul\":17770:17788   */\n      add\n        /* \"#utility.yul\":17762:17788   */\n      swap1\n      pop\n        /* \"#utility.yul\":17798:17869   */\n      tag_498\n        /* \"#utility.yul\":17866:17867   */\n      0x00\n        /* \"#utility.yul\":17855:17864   */\n      dup4\n        /* \"#utility.yul\":17851:17868   */\n      add\n        /* \"#utility.yul\":17842:17848   */\n      dup5\n        /* \"#utility.yul\":17798:17869   */\n      tag_451\n      jump\t// in\n    tag_498:\n        /* \"#utility.yul\":17654:17876   */\n      swap3\n      swap2\n      pop\n      pop\n      jump\t// out\n        /* \"#utility.yul\":17882:18324   */\n    tag_60:\n        /* \"#utility.yul\":18031:18035   */\n      0x00\n        /* \"#utility.yul\":18069:18071   */\n      0x60\n        /* \"#utility.yul\":18058:18067   */\n      dup3\n        /* \"#utility.yul\":18054:18072   */\n      add\n        /* \"#utility.yul\":18046:18072   */\n      swap1\n      pop\n        /* \"#utility.yul\":18082:18153   */\n      tag_500\n        /* \"#utility.yul\":18150:18151   */\n      0x00\n        /* \"#utility.yul\":18139:18148   */\n      dup4\n        /* \"#utility.yul\":18135:18152   */\n      add\n        /* \"#utility.yul\":18126:18132   */\n      dup7\n        /* \"#utility.yul\":18082:18153   */\n      tag_451\n      jump\t// in\n    tag_500:\n        /* \"#utility.yul\":18163:18235   */\n      tag_501\n        /* \"#utility.yul\":18231:18233   */\n      0x20\n        /* \"#utility.yul\":18220:18229   */\n      dup4\n        /* \"#utility.yul\":18216:18234   */\n      add\n        /* \"#utility.yul\":18207:18213   */\n      dup6\n        /* \"#utility.yul\":18163:18235   */\n      tag_451\n      jump\t// in\n    tag_501:\n        /* \"#utility.yul\":18245:18317   */\n      tag_502\n        /* \"#utility.yul\":18313:18315   */\n      0x40\n        /* \"#utility.yul\":18302:18311   */\n      dup4\n        /* \"#utility.yul\":18298:18316   */\n      add\n        /* \"#utility.yul\":18289:18295   */\n      dup5\n        /* \"#utility.yul\":18245:18317   */\n      tag_451\n      jump\t// in\n    tag_502:\n        /* \"#utility.yul\":17882:18324   */\n      swap5\n      swap4\n      pop\n      pop\n      pop\n      pop\n      jump\t// out\n        /* \"#utility.yul\":18411:18572   */\n    tag_353:\n        /* \"#utility.yul\":18507:18511   */\n      0x00\n        /* \"#utility.yul\":18530:18533   */\n      dup2\n        /* \"#utility.yul\":18522:18533   */\n      swap1\n      pop\n        /* \"#utility.yul\":18560:18564   */\n      0x20\n        /* \"#utility.yul\":18555:18558   */\n      dup3\n        /* \"#utility.yul\":18551:18565   */\n      add\n        /* \"#utility.yul\":18543:18565   */\n      swap1\n      pop\n        /* \"#utility.yul\":18411:18572   */\n      swap2\n      swap1\n      pop\n      jump\t// out\n        /* \"#utility.yul\":18578:18721   */\n    tag_349:\n        /* \"#utility.yul\":18674:18680   */\n      0x00\n        /* \"#utility.yul\":18708:18713   */\n      dup2\n        /* \"#utility.yul\":18702:18714   */\n      mload\n        /* \"#utility.yul\":18692:18714   */\n      swap1\n      pop\n        /* \"#utility.yul\":18578:18721   */\n      swap2\n      swap1\n      pop\n      jump\t// out\n        /* \"#utility.yul\":18727:18825   */\n    tag_367:\n        /* \"#utility.yul\":18778:18784   */\n      0x00\n        /* \"#utility.yul\":18812:18817   */\n      dup2\n        /* \"#utility.yul\":18806:18818   */\n      mload\n        /* \"#utility.yul\":18796:18818   */\n      swap1\n      pop\n        /* \"#utility.yul\":18727:18825   */\n      swap2\n      swap1\n      pop\n      jump\t// out\n        /* \"#utility.yul\":18831:18930   */\n    tag_383:\n        /* \"#utility.yul\":18883:18889   */\n      0x00\n        /* \"#utility.yul\":18917:18922   */\n      dup2\n        /* \"#utility.yul\":18911:18923   */\n      mload\n        /* \"#utility.yul\":18901:18923   */\n      swap1\n      pop\n        /* \"#utility.yul\":18831:18930   */\n      swap2\n      swap1\n      pop\n      jump\t// out\n        /* \"#utility.yul\":18936:19078   */\n    tag_359:\n        /* \"#utility.yul\":19035:19039   */\n      0x00\n        /* \"#utility.yul\":19067:19071   */\n      0x20\n        /* \"#utility.yul\":19062:19065   */\n      dup3\n        /* \"#utility.yul\":19058:19072   */\n      add\n        /* \"#utility.yul\":19050:19072   */\n      swap1\n      pop\n        /* \"#utility.yul\":18936:19078   */\n      swap2\n      swap1\n      pop\n      jump\t// out\n        /* \"#utility.yul\":19084:19297   */\n    tag_351:\n        /* \"#utility.yul\":19212:19223   */\n      0x00\n        /* \"#utility.yul\":19246:19252   */\n      dup3\n        /* \"#utility.yul\":19241:19244   */\n      dup3\n        /* \"#utility.yul\":19234:19253   */\n      mstore\n        /* \"#utility.yul\":19286:19290   */\n      0x20\n        /* \"#utility.yul\":19281:19284   */\n      dup3\n        /* \"#utility.yul\":19277:19291   */\n      add\n        /* \"#utility.yul\":19262:19291   */\n      swap1\n      pop\n        /* \"#utility.yul\":19084:19297   */\n      swap3\n      swap2\n      pop\n      pop\n      jump\t// out\n        /* \"#utility.yul\":19303:19450   */\n    tag_369:\n        /* \"#utility.yul\":19404:19415   */\n      0x00\n        /* \"#utility.yul\":19441:19444   */\n      dup2\n        /* \"#utility.yul\":19426:19444   */\n      swap1\n      pop\n        /* \"#utility.yul\":19303:19450   */\n      swap3\n      swap2\n      pop\n      pop\n      jump\t// out\n        /* \"#utility.yul\":19456:19625   */\n    tag_385:\n        /* \"#utility.yul\":19540:19551   */\n      0x00\n        /* \"#utility.yul\":19574:19580   */\n      dup3\n        /* \"#utility.yul\":19569:19572   */\n      dup3\n        /* \"#utility.yul\":19562:19581   */\n      mstore\n        /* \"#utility.yul\":19614:19618   */\n      0x20\n        /* \"#utility.yul\":19609:19612   */\n      dup3\n        /* \"#utility.yul\":19605:19619   */\n      add\n        /* \"#utility.yul\":19590:19619   */\n      swap1\n      pop\n        /* \"#utility.yul\":19456:19625   */\n      swap3\n      swap2\n      pop\n      pop\n      jump\t// out\n        /* \"#utility.yul\":19631:19936   */\n    tag_97:\n        /* \"#utility.yul\":19671:19674   */\n      0x00\n        /* \"#utility.yul\":19690:19710   */\n      tag_514\n        /* \"#utility.yul\":19708:19709   */\n      dup3\n        /* \"#utility.yul\":19690:19710   */\n      tag_450\n      jump\t// in\n    tag_514:\n        /* \"#utility.yul\":19685:19710   */\n      swap2\n      pop\n        /* \"#utility.yul\":19724:19744   */\n      tag_515\n        /* \"#utility.yul\":19742:19743   */\n      dup4\n        /* \"#utility.yul\":19724:19744   */\n      tag_450\n      jump\t// in\n    tag_515:\n        /* \"#utility.yul\":19719:19744   */\n      swap3\n      pop\n        /* \"#utility.yul\":19878:19879   */\n      dup3\n        /* \"#utility.yul\":19810:19876   */\n      0xffffffffffffffffffffffffffffffffffffffffffffffffffffffffffffffff\n        /* \"#utility.yul\":19806:19880   */\n      sub\n        /* \"#utility.yul\":19803:19804   */\n      dup3\n        /* \"#utility.yul\":19800:19881   */\n      gt\n        /* \"#utility.yul\":19797:19904   */\n      iszero\n      tag_516\n      jumpi\n        /* \"#utility.yul\":19884:19902   */\n      tag_517\n      tag_518\n      jump\t// in\n    tag_517:\n        /* \"#utility.yul\":19797:19904   */\n    tag_516:\n        /* \"#utility.yul\":19928:19929   */\n      dup3\n        /* \"#utility.yul\":19925:19926   */\n      dup3\n        /* \"#utility.yul\":19921:19930   */\n      add\n        /* \"#utility.yul\":19914:19930   */\n      swap1\n      pop\n        /* \"#utility.yul\":19631:19936   */\n      swap3\n      swap2\n      pop\n      pop\n      jump\t// out\n        /* \"#utility.yul\":19942:20127   */\n    tag_215:\n        /* \"#utility.yul\":19982:19983   */\n      0x00\n        /* \"#utility.yul\":19999:20019   */\n      tag_520\n        /* \"#utility.yul\":20017:20018   */\n      dup3\n        /* \"#utility.yul\":19999:20019   */\n      tag_450\n      jump\t// in\n    tag_520:\n        /* \"#utility.yul\":19994:20019   */\n      swap2\n      pop\n        /* \"#utility.yul\":20033:20053   */\n      tag_521\n        /* \"#utility.yul\":20051:20052   */\n      dup4\n        /* \"#utility.yul\":20033:20053   */\n      tag_450\n      jump\t// in\n    tag_521:\n        /* \"#utility.yul\":20028:20053   */\n      swap3\n      pop\n        /* \"#utility.yul\":20072:20073   */\n      dup3\n        /* \"#utility.yul\":20062:20097   */\n      tag_522\n      jumpi\n        /* \"#utility.yul\":20077:20095   */\n      tag_523\n      tag_524\n      jump\t// in\n    tag_523:\n        /* \"#utility.yul\":20062:20097   */\n    tag_522:\n        /* \"#utility.yul\":20119:20120   */\n      dup3\n        /* \"#utility.yul\":20116:20117   */\n      dup3\n        /* \"#utility.yul\":20112:20121   */\n      div\n        /* \"#utility.yul\":20107:20121   */\n      swap1\n      pop\n        /* \"#utility.yul\":19942:20127   */\n      swap3\n      swap2\n      pop\n      pop\n      jump\t// out\n        /* \"#utility.yul\":20133:20481   */\n    tag_212:\n        /* \"#utility.yul\":20173:20180   */\n      0x00\n        /* \"#utility.yul\":20196:20216   */\n      tag_526\n        /* \"#utility.yul\":20214:20215   */\n      dup3\n        /* \"#utility.yul\":20196:20216   */\n      tag_450\n      jump\t// in\n    tag_526:\n        /* \"#utility.yul\":20191:20216   */\n      swap2\n      pop\n        /* \"#utility.yul\":20230:20250   */\n      tag_527\n        /* \"#utility.yul\":20248:20249   */\n      dup4\n        /* \"#utility.yul\":20230:20250   */\n      tag_450\n      jump\t// in\n    tag_527:\n        /* \"#utility.yul\":20225:20250   */\n      swap3\n      pop\n        /* \"#utility.yul\":20418:20419   */\n      dup2\n        /* \"#utility.yul\":20350:20416   */\n      0xffffffffffffffffffffffffffffffffffffffffffffffffffffffffffffffff\n        /* \"#utility.yul\":20346:20420   */\n      div\n        /* \"#utility.yul\":20343:20344   */\n      dup4\n        /* \"#utility.yul\":20340:20421   */\n      gt\n        /* \"#utility.yul\":20335:20336   */\n      dup3\n        /* \"#utility.yul\":20328:20337   */\n      iszero\n        /* \"#utility.yul\":20321:20338   */\n      iszero\n        /* \"#utility.yul\":20317:20422   */\n      and\n        /* \"#utility.yul\":20314:20445   */\n      iszero\n      tag_528\n      jumpi\n        /* \"#utility.yul\":20425:20443   */\n      tag_529\n      tag_518\n      jump\t// in\n    tag_529:\n        /* \"#utility.yul\":20314:20445   */\n    tag_528:\n        /* \"#utility.yul\":20473:20474   */\n      dup3\n        /* \"#utility.yul\":20470:20471   */\n      dup3\n        /* \"#utility.yul\":20466:20475   */\n      mul\n        /* \"#utility.yul\":20455:20475   */\n      swap1\n      pop\n        /* \"#utility.yul\":20133:20481   */\n      swap3\n      swap2\n      pop\n      pop\n      jump\t// out\n        /* \"#utility.yul\":20487:20678   */\n    tag_210:\n        /* \"#utility.yul\":20527:20531   */\n      0x00\n        /* \"#utility.yul\":20547:20567   */\n      tag_531\n        /* \"#utility.yul\":20565:20566   */\n      dup3\n        /* \"#utility.yul\":20547:20567   */\n      tag_450\n      jump\t// in\n    tag_531:\n        /* \"#utility.yul\":20542:20567   */\n      swap2\n      pop\n        /* \"#utility.yul\":20581:20601   */\n      tag_532\n        /* \"#utility.yul\":20599:20600   */\n      dup4\n        /* \"#utility.yul\":20581:20601   */\n      tag_450\n      jump\t// in\n    tag_532:\n        /* \"#utility.yul\":20576:20601   */\n      swap3\n      pop\n        /* \"#utility.yul\":20620:20621   */\n      dup3\n        /* \"#utility.yul\":20617:20618   */\n      dup3\n        /* \"#utility.yul\":20614:20622   */\n      lt\n        /* \"#utility.yul\":20611:20645   */\n      iszero\n      tag_533\n      jumpi\n        /* \"#utility.yul\":20625:20643   */\n      tag_534\n      tag_518\n      jump\t// in\n    tag_534:\n        /* \"#utility.yul\":20611:20645   */\n    tag_533:\n        /* \"#utility.yul\":20670:20671   */\n      dup3\n        /* \"#utility.yul\":20667:20668   */\n      dup3\n        /* \"#utility.yul\":20663:20672   */\n      sub\n        /* \"#utility.yul\":20655:20672   */\n      swap1\n      pop\n        /* \"#utility.yul\":20487:20678   */\n      swap3\n      swap2\n      pop\n      pop\n      jump\t// out\n        /* \"#utility.yul\":20684:20780   */\n    tag_342:\n        /* \"#utility.yul\":20721:20728   */\n      0x00\n        /* \"#utility.yul\":20750:20774   */\n      tag_536\n        /* \"#utility.yul\":20768:20773   */\n      dup3\n        /* \"#utility.yul\":20750:20774   */\n      tag_537\n      jump\t// in\n    tag_536:\n        /* \"#utility.yul\":20739:20774   */\n      swap1\n      pop\n        /* \"#utility.yul\":20684:20780   */\n      swap2\n      swap1\n      pop\n      jump\t// out\n        /* \"#utility.yul\":20786:20876   */\n    tag_363:\n        /* \"#utility.yul\":20820:20827   */\n      0x00\n        /* \"#utility.yul\":20863:20868   */\n      dup2\n        /* \"#utility.yul\":20856:20869   */\n      iszero\n        /* \"#utility.yul\":20849:20870   */\n      iszero\n        /* \"#utility.yul\":20838:20870   */\n      swap1\n      pop\n        /* \"#utility.yul\":20786:20876   */\n      swap2\n      swap1\n      pop\n      jump\t// out\n        /* \"#utility.yul\":20882:21008   */\n    tag_537:\n        /* \"#utility.yul\":20919:20926   */\n      0x00\n        /* \"#utility.yul\":20959:21001   */\n      0xffffffffffffffffffffffffffffffffffffffff\n        /* \"#utility.yul\":20952:20957   */\n      dup3\n        /* \"#utility.yul\":20948:21002   */\n      and\n        /* \"#utility.yul\":20937:21002   */\n      swap1\n      pop\n        /* \"#utility.yul\":20882:21008   */\n      swap2\n      swap1\n      pop\n      jump\t// out\n        /* \"#utility.yul\":21014:21091   */\n    tag_450:\n        /* \"#utility.yul\":21051:21058   */\n      0x00\n        /* \"#utility.yul\":21080:21085   */\n      dup2\n        /* \"#utility.yul\":21069:21085   */\n      swap1\n      pop\n        /* \"#utility.yul\":21014:21091   */\n      swap2\n      swap1\n      pop\n      jump\t// out\n        /* \"#utility.yul\":21097:21237   */\n    tag_375:\n        /* \"#utility.yul\":21161:21170   */\n      0x00\n        /* \"#utility.yul\":21194:21231   */\n      tag_542\n        /* \"#utility.yul\":21225:21230   */\n      dup3\n        /* \"#utility.yul\":21194:21231   */\n      tag_543\n      jump\t// in\n    tag_542:\n        /* \"#utility.yul\":21181:21231   */\n      swap1\n      pop\n        /* \"#utility.yul\":21097:21237   */\n      swap2\n      swap1\n      pop\n      jump\t// out\n        /* \"#utility.yul\":21243:21384   */\n    tag_379:\n        /* \"#utility.yul\":21308:21317   */\n      0x00\n        /* \"#utility.yul\":21341:21378   */\n      tag_545\n        /* \"#utility.yul\":21372:21377   */\n      dup3\n        /* \"#utility.yul\":21341:21378   */\n      tag_543\n      jump\t// in\n    tag_545:\n        /* \"#utility.yul\":21328:21378   */\n      swap1\n      pop\n        /* \"#utility.yul\":21243:21384   */\n      swap2\n      swap1\n      pop\n      jump\t// out\n        /* \"#utility.yul\":21390:21516   */\n    tag_543:\n        /* \"#utility.yul\":21440:21449   */\n      0x00\n        /* \"#utility.yul\":21473:21510   */\n      tag_547\n        /* \"#utility.yul\":21504:21509   */\n      dup3\n        /* \"#utility.yul\":21473:21510   */\n      tag_548\n      jump\t// in\n    tag_547:\n        /* \"#utility.yul\":21460:21510   */\n      swap1\n      pop\n        /* \"#utility.yul\":21390:21516   */\n      swap2\n      swap1\n      pop\n      jump\t// out\n        /* \"#utility.yul\":21522:21635   */\n    tag_548:\n        /* \"#utility.yul\":21572:21581   */\n      0x00\n        /* \"#utility.yul\":21605:21629   */\n      tag_550\n        /* \"#utility.yul\":21623:21628   */\n      dup3\n        /* \"#utility.yul\":21605:21629   */\n      tag_537\n      jump\t// in\n    tag_550:\n        /* \"#utility.yul\":21592:21629   */\n      swap1\n      pop\n        /* \"#utility.yul\":21522:21635   */\n      swap2\n      swap1\n      pop\n      jump\t// out\n        /* \"#utility.yul\":21641:21948   */\n    tag_371:\n        /* \"#utility.yul\":21709:21710   */\n      0x00\n        /* \"#utility.yul\":21719:21832   */\n    tag_552:\n        /* \"#utility.yul\":21733:21739   */\n      dup4\n        /* \"#utility.yul\":21730:21731   */\n      dup2\n        /* \"#utility.yul\":21727:21740   */\n      lt\n        /* \"#utility.yul\":21719:21832   */\n      iszero\n      tag_554\n      jumpi\n        /* \"#utility.yul\":21818:21819   */\n      dup1\n        /* \"#utility.yul\":21813:21816   */\n      dup3\n        /* \"#utility.yul\":21809:21820   */\n      add\n        /* \"#utility.yul\":21803:21821   */\n      mload\n        /* \"#utility.yul\":21799:21800   */\n      dup2\n        /* \"#utility.yul\":21794:21797   */\n      dup5\n        /* \"#utility.yul\":21790:21801   */\n      add\n        /* \"#utility.yul\":21783:21822   */\n      mstore\n        /* \"#utility.yul\":21755:21757   */\n      0x20\n        /* \"#utility.yul\":21752:21753   */\n      dup2\n        /* \"#utility.yul\":21748:21758   */\n      add\n        /* \"#utility.yul\":21743:21758   */\n      swap1\n      pop\n        /* \"#utility.yul\":21719:21832   */\n      jump(tag_552)\n    tag_554:\n        /* \"#utility.yul\":21850:21856   */\n      dup4\n        /* \"#utility.yul\":21847:21848   */\n      dup2\n        /* \"#utility.yul\":21844:21857   */\n      gt\n        /* \"#utility.yul\":21841:21942   */\n      iszero\n      tag_555\n      jumpi\n        /* \"#utility.yul\":21930:21931   */\n      0x00\n        /* \"#utility.yul\":21921:21927   */\n      dup5\n        /* \"#utility.yul\":21916:21919   */\n      dup5\n        /* \"#utility.yul\":21912:21928   */\n      add\n        /* \"#utility.yul\":21905:21932   */\n      mstore\n        /* \"#utility.yul\":21841:21942   */\n    tag_555:\n        /* \"#utility.yul\":21690:21948   */\n      pop\n        /* \"#utility.yul\":21641:21948   */\n      pop\n      pop\n      pop\n      jump\t// out\n        /* \"#utility.yul\":21954:22125   */\n    tag_116:\n        /* \"#utility.yul\":21993:21996   */\n      0x00\n        /* \"#utility.yul\":22016:22040   */\n      tag_557\n        /* \"#utility.yul\":22034:22039   */\n      dup3\n        /* \"#utility.yul\":22016:22040   */\n      tag_450\n      jump\t// in\n    tag_557:\n        /* \"#utility.yul\":22007:22040   */\n      swap2\n      pop\n        /* \"#utility.yul\":22062:22066   */\n      0x00\n        /* \"#utility.yul\":22055:22060   */\n      dup3\n        /* \"#utility.yul\":22052:22067   */\n      eq\n        /* \"#utility.yul\":22049:22090   */\n      iszero\n      tag_558\n      jumpi\n        /* \"#utility.yul\":22070:22088   */\n      tag_559\n      tag_518\n      jump\t// in\n    tag_559:\n        /* \"#utility.yul\":22049:22090   */\n    tag_558:\n        /* \"#utility.yul\":22117:22118   */\n      0x01\n        /* \"#utility.yul\":22110:22115   */\n      dup3\n        /* \"#utility.yul\":22106:22119   */\n      sub\n        /* \"#utility.yul\":22099:22119   */\n      swap1\n      pop\n        /* \"#utility.yul\":21954:22125   */\n      swap2\n      swap1\n      pop\n      jump\t// out\n        /* \"#utility.yul\":22131:22364   */\n    tag_111:\n        /* \"#utility.yul\":22170:22173   */\n      0x00\n        /* \"#utility.yul\":22193:22217   */\n      tag_561\n        /* \"#utility.yul\":22211:22216   */\n      dup3\n        /* \"#utility.yul\":22193:22217   */\n      tag_450\n      jump\t// in\n    tag_561:\n        /* \"#utility.yul\":22184:22217   */\n      swap2\n      pop\n        /* \"#utility.yul\":22239:22305   */\n      0xffffffffffffffffffffffffffffffffffffffffffffffffffffffffffffffff\n        /* \"#utility.yul\":22232:22237   */\n      dup3\n        /* \"#utility.yul\":22229:22306   */\n      eq\n        /* \"#utility.yul\":22226:22329   */\n      iszero\n      tag_562\n      jumpi\n        /* \"#utility.yul\":22309:22327   */\n      tag_563\n      tag_518\n      jump\t// in\n    tag_563:\n        /* \"#utility.yul\":22226:22329   */\n    tag_562:\n        /* \"#utility.yul\":22356:22357   */\n      0x01\n        /* \"#utility.yul\":22349:22354   */\n      dup3\n        /* \"#utility.yul\":22345:22358   */\n      add\n        /* \"#utility.yul\":22338:22358   */\n      swap1\n      pop\n        /* \"#utility.yul\":22131:22364   */\n      swap2\n      swap1\n      pop\n      jump\t// out\n        /* \"#utility.yul\":22370:22550   */\n    tag_518:\n        /* \"#utility.yul\":22418:22495   */\n      0x4e487b7100000000000000000000000000000000000000000000000000000000\n        /* \"#utility.yul\":22415:22416   */\n      0x00\n        /* \"#utility.yul\":22408:22496   */\n      mstore\n        /* \"#utility.yul\":22515:22519   */\n      0x11\n        /* \"#utility.yul\":22512:22513   */\n      0x04\n        /* \"#utility.yul\":22505:22520   */\n      mstore\n        /* \"#utility.yul\":22539:22543   */\n      0x24\n        /* \"#utility.yul\":22536:22537   */\n      0x00\n        /* \"#utility.yul\":22529:22544   */\n      revert\n        /* \"#utility.yul\":22556:22736   */\n    tag_524:\n        /* \"#utility.yul\":22604:22681   */\n      0x4e487b7100000000000000000000000000000000000000000000000000000000\n        /* \"#utility.yul\":22601:22602   */\n      0x00\n        /* \"#utility.yul\":22594:22682   */\n      mstore\n        /* \"#utility.yul\":22701:22705   */\n      0x12\n        /* \"#utility.yul\":22698:22699   */\n      0x04\n        /* \"#utility.yul\":22691:22706   */\n      mstore\n        /* \"#utility.yul\":22725:22729   */\n      0x24\n        /* \"#utility.yul\":22722:22723   */\n      0x00\n        /* \"#utility.yul\":22715:22730   */\n      revert\n        /* \"#utility.yul\":22742:22922   */\n    tag_103:\n        /* \"#utility.yul\":22790:22867   */\n      0x4e487b7100000000000000000000000000000000000000000000000000000000\n        /* \"#utility.yul\":22787:22788   */\n      0x00\n        /* \"#utility.yul\":22780:22868   */\n      mstore\n        /* \"#utility.yul\":22887:22891   */\n      0x32\n        /* \"#utility.yul\":22884:22885   */\n      0x04\n        /* \"#utility.yul\":22877:22892   */\n      mstore\n        /* \"#utility.yul\":22911:22915   */\n      0x24\n        /* \"#utility.yul\":22908:22909   */\n      0x00\n        /* \"#utility.yul\":22901:22916   */\n      revert\n        /* \"#utility.yul\":22928:23108   */\n    tag_137:\n        /* \"#utility.yul\":22976:23053   */\n      0x4e487b7100000000000000000000000000000000000000000000000000000000\n        /* \"#utility.yul\":22973:22974   */\n      0x00\n        /* \"#utility.yul\":22966:23054   */\n      mstore\n        /* \"#utility.yul\":23073:23077   */\n      0x41\n        /* \"#utility.yul\":23070:23071   */\n      0x04\n        /* \"#utility.yul\":23063:23078   */\n      mstore\n        /* \"#utility.yul\":23097:23101   */\n      0x24\n        /* \"#utility.yul\":23094:23095   */\n      0x00\n        /* \"#utility.yul\":23087:23102   */\n      revert\n        /* \"#utility.yul\":23237:23354   */\n    tag_317:\n        /* \"#utility.yul\":23346:23347   */\n      0x00\n        /* \"#utility.yul\":23343:23344   */\n      dup1\n        /* \"#utility.yul\":23336:23348   */\n      revert\n        /* \"#utility.yul\":23360:23462   */\n    tag_388:\n        /* \"#utility.yul\":23401:23407   */\n      0x00\n        /* \"#utility.yul\":23452:23454   */\n      0x1f\n        /* \"#utility.yul\":23448:23455   */\n      not\n        /* \"#utility.yul\":23443:23445   */\n      0x1f\n        /* \"#utility.yul\":23436:23441   */\n      dup4\n        /* \"#utility.yul\":23432:23446   */\n      add\n        /* \"#utility.yul\":23428:23456   */\n      and\n        /* \"#utility.yul\":23418:23456   */\n      swap1\n      pop\n        /* \"#utility.yul\":23360:23462   */\n      swap2\n      swap1\n      pop\n      jump\t// out\n        /* \"#utility.yul\":23468:23643   */\n    tag_393:\n        /* \"#utility.yul\":23608:23635   */\n      0x596f7520646f6e2774206f776e207468697320746f6b656e2100000000000000\n        /* \"#utility.yul\":23604:23605   */\n      0x00\n        /* \"#utility.yul\":23596:23602   */\n      dup3\n        /* \"#utility.yul\":23592:23606   */\n      add\n        /* \"#utility.yul\":23585:23636   */\n      mstore\n        /* \"#utility.yul\":23468:23643   */\n      pop\n      jump\t// out\n        /* \"#utility.yul\":23649:23819   */\n    tag_398:\n        /* \"#utility.yul\":23789:23811   */\n      0x5061757361626c653a206e6f7420706175736564000000000000000000000000\n        /* \"#utility.yul\":23785:23786   */\n      0x00\n        /* \"#utility.yul\":23777:23783   */\n      dup3\n        /* \"#utility.yul\":23773:23787   */\n      add\n        /* \"#utility.yul\":23766:23812   */\n      mstore\n        /* \"#utility.yul\":23649:23819   */\n      pop\n      jump\t// out\n        /* \"#utility.yul\":23825:24050   */\n    tag_403:\n        /* \"#utility.yul\":23965:23999   */\n      0x4f776e61626c653a206e6577206f776e657220697320746865207a65726f2061\n        /* \"#utility.yul\":23961:23962   */\n      0x00\n        /* \"#utility.yul\":23953:23959   */\n      dup3\n        /* \"#utility.yul\":23949:23963   */\n      add\n        /* \"#utility.yul\":23942:24000   */\n      mstore\n        /* \"#utility.yul\":24034:24042   */\n      0x6464726573730000000000000000000000000000000000000000000000000000\n        /* \"#utility.yul\":24029:24031   */\n      0x20\n        /* \"#utility.yul\":24021:24027   */\n      dup3\n        /* \"#utility.yul\":24017:24032   */\n      add\n        /* \"#utility.yul\":24010:24043   */\n      mstore\n        /* \"#utility.yul\":23825:24050   */\n      pop\n      jump\t// out\n        /* \"#utility.yul\":24056:24231   */\n    tag_408:\n        /* \"#utility.yul\":24196:24223   */\n      0x596f752068617665206e6f20746f6b656e73207374616b656400000000000000\n        /* \"#utility.yul\":24192:24193   */\n      0x00\n        /* \"#utility.yul\":24184:24190   */\n      dup3\n        /* \"#utility.yul\":24180:24194   */\n      add\n        /* \"#utility.yul\":24173:24224   */\n      mstore\n        /* \"#utility.yul\":24056:24231   */\n      pop\n      jump\t// out\n        /* \"#utility.yul\":24237:24462   */\n    tag_413:\n        /* \"#utility.yul\":24377:24411   */\n      0x416464726573733a20696e73756666696369656e742062616c616e636520666f\n        /* \"#utility.yul\":24373:24374   */\n      0x00\n        /* \"#utility.yul\":24365:24371   */\n      dup3\n        /* \"#utility.yul\":24361:24375   */\n      add\n        /* \"#utility.yul\":24354:24412   */\n      mstore\n        /* \"#utility.yul\":24446:24454   */\n      0x722063616c6c0000000000000000000000000000000000000000000000000000\n        /* \"#utility.yul\":24441:24443   */\n      0x20\n        /* \"#utility.yul\":24433:24439   */\n      dup3\n        /* \"#utility.yul\":24429:24444   */\n      add\n        /* \"#utility.yul\":24422:24455   */\n      mstore\n        /* \"#utility.yul\":24237:24462   */\n      pop\n      jump\t// out\n        /* \"#utility.yul\":24468:24634   */\n    tag_418:\n        /* \"#utility.yul\":24608:24626   */\n      0x5061757361626c653a2070617573656400000000000000000000000000000000\n        /* \"#utility.yul\":24604:24605   */\n      0x00\n        /* \"#utility.yul\":24596:24602   */\n      dup3\n        /* \"#utility.yul\":24592:24606   */\n      add\n        /* \"#utility.yul\":24585:24627   */\n      mstore\n        /* \"#utility.yul\":24468:24634   */\n      pop\n      jump\t// out\n        /* \"#utility.yul\":24640:24822   */\n    tag_423:\n        /* \"#utility.yul\":24780:24814   */\n      0x4f776e61626c653a2063616c6c6572206973206e6f7420746865206f776e6572\n        /* \"#utility.yul\":24776:24777   */\n      0x00\n        /* \"#utility.yul\":24768:24774   */\n      dup3\n        /* \"#utility.yul\":24764:24778   */\n      add\n        /* \"#utility.yul\":24757:24815   */\n      mstore\n        /* \"#utility.yul\":24640:24822   */\n      pop\n      jump\t// out\n        /* \"#utility.yul\":24828:25006   */\n    tag_428:\n        /* \"#utility.yul\":24968:24998   */\n      0x596f752068617665206e6f207265776172647320746f20636c61696d00000000\n        /* \"#utility.yul\":24964:24965   */\n      0x00\n        /* \"#utility.yul\":24956:24962   */\n      dup3\n        /* \"#utility.yul\":24952:24966   */\n      add\n        /* \"#utility.yul\":24945:24999   */\n      mstore\n        /* \"#utility.yul\":24828:25006   */\n      pop\n      jump\t// out\n        /* \"#utility.yul\":25012:25191   */\n    tag_433:\n        /* \"#utility.yul\":25152:25183   */\n      0x416464726573733a2063616c6c20746f206e6f6e2d636f6e7472616374000000\n        /* \"#utility.yul\":25148:25149   */\n      0x00\n        /* \"#utility.yul\":25140:25146   */\n      dup3\n        /* \"#utility.yul\":25136:25150   */\n      add\n        /* \"#utility.yul\":25129:25184   */\n      mstore\n        /* \"#utility.yul\":25012:25191   */\n      pop\n      jump\t// out\n        /* \"#utility.yul\":25197:25426   */\n    tag_438:\n        /* \"#utility.yul\":25337:25371   */\n      0x5361666545524332303a204552433230206f7065726174696f6e20646964206e\n        /* \"#utility.yul\":25333:25334   */\n      0x00\n        /* \"#utility.yul\":25325:25331   */\n      dup3\n        /* \"#utility.yul\":25321:25335   */\n      add\n        /* \"#utility.yul\":25314:25372   */\n      mstore\n        /* \"#utility.yul\":25406:25418   */\n      0x6f74207375636365656400000000000000000000000000000000000000000000\n        /* \"#utility.yul\":25401:25403   */\n      0x20\n        /* \"#utility.yul\":25393:25399   */\n      dup3\n        /* \"#utility.yul\":25389:25404   */\n      add\n        /* \"#utility.yul\":25382:25419   */\n      mstore\n        /* \"#utility.yul\":25197:25426   */\n      pop\n      jump\t// out\n        /* \"#utility.yul\":25432:25613   */\n    tag_443:\n        /* \"#utility.yul\":25572:25605   */\n      0x5265656e7472616e637947756172643a207265656e7472616e742063616c6c00\n        /* \"#utility.yul\":25568:25569   */\n      0x00\n        /* \"#utility.yul\":25560:25566   */\n      dup3\n        /* \"#utility.yul\":25556:25570   */\n      add\n        /* \"#utility.yul\":25549:25606   */\n      mstore\n        /* \"#utility.yul\":25432:25613   */\n      pop\n      jump\t// out\n        /* \"#utility.yul\":25619:25741   */\n    tag_299:\n        /* \"#utility.yul\":25692:25716   */\n      tag_584\n        /* \"#utility.yul\":25710:25715   */\n      dup2\n        /* \"#utility.yul\":25692:25716   */\n      tag_342\n      jump\t// in\n    tag_584:\n        /* \"#utility.yul\":25685:25690   */\n      dup2\n        /* \"#utility.yul\":25682:25717   */\n      eq\n        /* \"#utility.yul\":25672:25735   */\n      tag_585\n      jumpi\n        /* \"#utility.yul\":25731:25732   */\n      0x00\n        /* \"#utility.yul\":25728:25729   */\n      dup1\n        /* \"#utility.yul\":25721:25733   */\n      revert\n        /* \"#utility.yul\":25672:25735   */\n    tag_585:\n        /* \"#utility.yul\":25619:25741   */\n      pop\n      jump\t// out\n        /* \"#utility.yul\":25747:25863   */\n    tag_306:\n        /* \"#utility.yul\":25817:25838   */\n      tag_587\n        /* \"#utility.yul\":25832:25837   */\n      dup2\n        /* \"#utility.yul\":25817:25838   */\n      tag_363\n      jump\t// in\n    tag_587:\n        /* \"#utility.yul\":25810:25815   */\n      dup2\n        /* \"#utility.yul\":25807:25839   */\n      eq\n        /* \"#utility.yul\":25797:25857   */\n      tag_588\n      jumpi\n        /* \"#utility.yul\":25853:25854   */\n      0x00\n        /* \"#utility.yul\":25850:25851   */\n      dup1\n        /* \"#utility.yul\":25843:25855   */\n      revert\n        /* \"#utility.yul\":25797:25857   */\n    tag_588:\n        /* \"#utility.yul\":25747:25863   */\n      pop\n      jump\t// out\n        /* \"#utility.yul\":25869:25991   */\n    tag_310:\n        /* \"#utility.yul\":25942:25966   */\n      tag_590\n        /* \"#utility.yul\":25960:25965   */\n      dup2\n        /* \"#utility.yul\":25942:25966   */\n      tag_450\n      jump\t// in\n    tag_590:\n        /* \"#utility.yul\":25935:25940   */\n      dup2\n        /* \"#utility.yul\":25932:25967   */\n      eq\n        /* \"#utility.yul\":25922:25985   */\n      tag_591\n      jumpi\n        /* \"#utility.yul\":25981:25982   */\n      0x00\n        /* \"#utility.yul\":25978:25979   */\n      dup1\n        /* \"#utility.yul\":25971:25983   */\n      revert\n        /* \"#utility.yul\":25922:25985   */\n    tag_591:\n        /* \"#utility.yul\":25869:25991   */\n      pop\n      jump\t// out\n\n    auxdata: 0xa26469706673582212209019748e1cbe56bbaac29383869f53765f24890bd3d12acc83e6cf2637d5126964736f6c63430008070033\n}\n",
				"bytecode": {
					"linkReferences": {},
					"object": "6080604052620186a060055560026006553480156200001d57600080fd5b5060405162002bb238038062002bb2833981810160405281019062000043919062000269565b60016000819055506000600160006101000a81548160ff021916908315150217905550620000866200007a6200015960201b60201c565b6200016160201b60201c565b82600360006101000a81548173ffffffffffffffffffffffffffffffffffffffff021916908373ffffffffffffffffffffffffffffffffffffffff16021790555082600460006101000a81548173ffffffffffffffffffffffffffffffffffffffff021916908373ffffffffffffffffffffffffffffffffffffffff16021790555081600260006101000a81548173ffffffffffffffffffffffffffffffffffffffff021916908373ffffffffffffffffffffffffffffffffffffffff160217905550806005819055505050506200036a565b600033905090565b600060018054906101000a900473ffffffffffffffffffffffffffffffffffffffff169050816001806101000a81548173ffffffffffffffffffffffffffffffffffffffff021916908373ffffffffffffffffffffffffffffffffffffffff1602179055508173ffffffffffffffffffffffffffffffffffffffff168173ffffffffffffffffffffffffffffffffffffffff167f8be0079c531659141344cd1fd0a4f28419497f9722a3daafe3b4186f6b6457e060405160405180910390a35050565b60008151905062000235816200031c565b92915050565b6000815190506200024c8162000336565b92915050565b600081519050620002638162000350565b92915050565b60008060006060848603121562000285576200028462000317565b5b6000620002958682870162000224565b9350506020620002a8868287016200023b565b9250506040620002bb8682870162000252565b9150509250925092565b6000620002d282620002ed565b9050919050565b6000620002e682620002c5565b9050919050565b600073ffffffffffffffffffffffffffffffffffffffff82169050919050565b6000819050919050565b600080fd5b6200032781620002c5565b81146200033357600080fd5b50565b6200034181620002d9565b81146200034d57600080fd5b50565b6200035b816200030d565b81146200036757600080fd5b50565b612838806200037a6000396000f3fe608060405234801561001057600080fd5b506004361061010b5760003560e01c80638e7271fa116100a2578063b5a5e50911610071578063b5a5e50914610284578063d1af0c7d146102a0578063f2fde38b146102be578063f854a27f146102da578063f995441b1461030a5761010b565b80638e7271fa146101e85780639168ae72146102065780639406704514610238578063a694fc3a146102685761010b565b806363c28db1116100de57806363c28db1146101725780636588103b146101a2578063715018a6146101c05780638da5cb5b146101ca5761010b565b80632e1a7d4d14610110578063372500ab1461012c57806354fd4d50146101365780635c975abb14610154575b600080fd5b61012a60048036038101906101259190611bd4565b610314565b005b610134610875565b005b61013e6109f1565b60405161014b91906121ae565b60405180910390f35b61015c6109f7565b6040516101699190611fdb565b60405180910390f35b61018c60048036038101906101879190611b4d565b610a0e565b6040516101999190611fb9565b60405180910390f35b6101aa610d74565b6040516101b79190612011565b60405180910390f35b6101c8610d9a565b005b6101d2610dae565b6040516101df9190611f3e565b60405180910390f35b6101f0610dd6565b6040516101fd91906121ae565b60405180910390f35b610220600480360381019061021b9190611b4d565b610ddc565b60405161022f939291906121c9565b60405180910390f35b610252600480360381019061024d9190611bd4565b610e06565b60405161025f9190611f3e565b60405180910390f35b610282600480360381019061027d9190611bd4565b610e39565b005b61029e60048036038101906102999190611bd4565b610e5e565b005b6102a8610e70565b6040516102b59190611ff6565b60405180910390f35b6102d860048036038101906102d39190611b4d565b610e96565b005b6102f460048036038101906102ef9190611b4d565b610f1a565b60405161030191906121ae565b60405180910390f35b610312610f7e565b005b61031c61108d565b6000600760003373ffffffffffffffffffffffffffffffffffffffff1673ffffffffffffffffffffffffffffffffffffffff16815260200190815260200160002060000154116103a1576040517f08c379a0000000000000000000000000000000000000000000000000000000008152600401610398906120ae565b60405180910390fd5b3373ffffffffffffffffffffffffffffffffffffffff166008600083815260200190815260200160002060009054906101000a900473ffffffffffffffffffffffffffffffffffffffff1673ffffffffffffffffffffffffffffffffffffffff1614610442576040517f08c379a00000000000000000000000000000000000000000000000000000000081526004016104399061204e565b60405180910390fd5b600061044d336110dd565b905080600760003373ffffffffffffffffffffffffffffffffffffffff1673ffffffffffffffffffffffffffffffffffffffff16815260200190815260200160002060030160008282546104a1919061226b565b925050819055506000805b600760003373ffffffffffffffffffffffffffffffffffffffff1673ffffffffffffffffffffffffffffffffffffffff1681526020019081526020016000206001018054905081101561063f5783600760003373ffffffffffffffffffffffffffffffffffffffff1673ffffffffffffffffffffffffffffffffffffffff168152602001908152602001600020600101828154811061054e5761054d612514565b5b90600052602060002090600202016001015414801561061f5750600073ffffffffffffffffffffffffffffffffffffffff16600760003373ffffffffffffffffffffffffffffffffffffffff1673ffffffffffffffffffffffffffffffffffffffff16815260200190815260200160002060010182815481106105d4576105d3612514565b5b906000526020600020906002020160000160009054906101000a900473ffffffffffffffffffffffffffffffffffffffff1673ffffffffffffffffffffffffffffffffffffffff1614155b1561062c5780915061063f565b80806106379061246d565b9150506104ac565b506000600760003373ffffffffffffffffffffffffffffffffffffffff1673ffffffffffffffffffffffffffffffffffffffff168152602001908152602001600020600101828154811061069657610695612514565b5b906000526020600020906002020160000160006101000a81548173ffffffffffffffffffffffffffffffffffffffff021916908373ffffffffffffffffffffffffffffffffffffffff160217905550600760003373ffffffffffffffffffffffffffffffffffffffff1673ffffffffffffffffffffffffffffffffffffffff168152602001908152602001600020600001600081548092919061073890612443565b919050555060006008600085815260200190815260200160002060006101000a81548173ffffffffffffffffffffffffffffffffffffffff021916908373ffffffffffffffffffffffffffffffffffffffff160217905550600360009054906101000a900473ffffffffffffffffffffffffffffffffffffffff1673ffffffffffffffffffffffffffffffffffffffff166323b872dd3033866040518463ffffffff1660e01b81526004016107ef93929190611f59565b600060405180830381600087803b15801561080957600080fd5b505af115801561081d573d6000803e3d6000fd5b5050505042600760003373ffffffffffffffffffffffffffffffffffffffff1673ffffffffffffffffffffffffffffffffffffffff16815260200190815260200160002060020181905550505061087261119b565b50565b6000600760003373ffffffffffffffffffffffffffffffffffffffff1673ffffffffffffffffffffffffffffffffffffffff168152602001908152602001600020600301546108c3336110dd565b6108cd919061226b565b905060008111610912576040517f08c379a00000000000000000000000000000000000000000000000000000000081526004016109099061212e565b60405180910390fd5b42600760003373ffffffffffffffffffffffffffffffffffffffff1673ffffffffffffffffffffffffffffffffffffffff168152602001908152602001600020600201819055506000600760003373ffffffffffffffffffffffffffffffffffffffff1673ffffffffffffffffffffffffffffffffffffffff168152602001908152602001600020600301819055506109ee3382600260009054906101000a900473ffffffffffffffffffffffffffffffffffffffff1673ffffffffffffffffffffffffffffffffffffffff166111a59092919063ffffffff16565b50565b60065481565b6000600160009054906101000a900460ff16905090565b60606000600760008473ffffffffffffffffffffffffffffffffffffffff1673ffffffffffffffffffffffffffffffffffffffff168152602001908152602001600020600001541115610d17576000600760008473ffffffffffffffffffffffffffffffffffffffff1673ffffffffffffffffffffffffffffffffffffffff1681526020019081526020016000206000015467ffffffffffffffff811115610ab957610ab8612543565b5b604051908082528060200260200182016040528015610af257816020015b610adf611ab4565b815260200190600190039081610ad75790505b5090506000805b600760008673ffffffffffffffffffffffffffffffffffffffff1673ffffffffffffffffffffffffffffffffffffffff16815260200190815260200160002060010180549050811015610d0c57600073ffffffffffffffffffffffffffffffffffffffff16600760008773ffffffffffffffffffffffffffffffffffffffff1673ffffffffffffffffffffffffffffffffffffffff1681526020019081526020016000206001018281548110610bb257610bb1612514565b5b906000526020600020906002020160000160009054906101000a900473ffffffffffffffffffffffffffffffffffffffff1673ffffffffffffffffffffffffffffffffffffffff1614610cf957600760008673ffffffffffffffffffffffffffffffffffffffff1673ffffffffffffffffffffffffffffffffffffffff1681526020019081526020016000206001018181548110610c5357610c52612514565b5b90600052602060002090600202016040518060400160405290816000820160009054906101000a900473ffffffffffffffffffffffffffffffffffffffff1673ffffffffffffffffffffffffffffffffffffffff1673ffffffffffffffffffffffffffffffffffffffff168152602001600182015481525050838381518110610cdf57610cde612514565b5b60200260200101819052508180610cf59061246d565b9250505b8080610d049061246d565b915050610af9565b508192505050610d6f565b600067ffffffffffffffff811115610d3257610d31612543565b5b604051908082528060200260200182016040528015610d6b57816020015b610d58611ab4565b815260200190600190039081610d505790505b5090505b919050565b600360009054906101000a900473ffffffffffffffffffffffffffffffffffffffff1681565b610da261122b565b610dac60006112a9565b565b600060018054906101000a900473ffffffffffffffffffffffffffffffffffffffff16905090565b60055481565b60076020528060005260406000206000915090508060000154908060020154908060030154905083565b60086020528060005260406000206000915054906101000a900473ffffffffffffffffffffffffffffffffffffffff1681565b610e4161108d565b610e4961136c565b610e5333826113b6565b610e5b61119b565b50565b610e6661122b565b8060058190555050565b600260009054906101000a900473ffffffffffffffffffffffffffffffffffffffff1681565b610e9e61122b565b600073ffffffffffffffffffffffffffffffffffffffff168173ffffffffffffffffffffffffffffffffffffffff161415610f0e576040517f08c379a0000000000000000000000000000000000000000000000000000000008152600401610f059061208e565b60405180910390fd5b610f17816112a9565b50565b600080600760008473ffffffffffffffffffffffffffffffffffffffff1673ffffffffffffffffffffffffffffffffffffffff16815260200190815260200160002060030154610f69846110dd565b610f73919061226b565b905080915050919050565b610f8661122b565b610f8e6117f6565b6000600260009054906101000a900473ffffffffffffffffffffffffffffffffffffffff1673ffffffffffffffffffffffffffffffffffffffff166370a08231306040518263ffffffff1660e01b8152600401610feb9190611f3e565b60206040518083038186803b15801561100357600080fd5b505afa158015611017573d6000803e3d6000fd5b505050506040513d601f19601f8201168201806040525081019061103b9190611c01565b905061108a3382600260009054906101000a900473ffffffffffffffffffffffffffffffffffffffff1673ffffffffffffffffffffffffffffffffffffffff166111a59092919063ffffffff16565b50565b600260005414156110d3576040517f08c379a00000000000000000000000000000000000000000000000000000000081526004016110ca9061218e565b60405180910390fd5b6002600081905550565b6000610e10600554600760008573ffffffffffffffffffffffffffffffffffffffff1673ffffffffffffffffffffffffffffffffffffffff16815260200190815260200160002060000154600760008673ffffffffffffffffffffffffffffffffffffffff1673ffffffffffffffffffffffffffffffffffffffff1681526020019081526020016000206002015442611176919061234c565b61118091906122f2565b61118a91906122f2565b61119491906122c1565b9050919050565b6001600081905550565b6112268363a9059cbb60e01b84846040516024016111c4929190611f90565b604051602081830303815290604052907bffffffffffffffffffffffffffffffffffffffffffffffffffffffff19166020820180517bffffffffffffffffffffffffffffffffffffffffffffffffffffffff838183161783525050505061183f565b505050565b611233611906565b73ffffffffffffffffffffffffffffffffffffffff16611251610dae565b73ffffffffffffffffffffffffffffffffffffffff16146112a7576040517f08c379a000000000000000000000000000000000000000000000000000000000815260040161129e9061210e565b60405180910390fd5b565b600060018054906101000a900473ffffffffffffffffffffffffffffffffffffffff169050816001806101000a81548173ffffffffffffffffffffffffffffffffffffffff021916908373ffffffffffffffffffffffffffffffffffffffff1602179055508173ffffffffffffffffffffffffffffffffffffffff168173ffffffffffffffffffffffffffffffffffffffff167f8be0079c531659141344cd1fd0a4f28419497f9722a3daafe3b4186f6b6457e060405160405180910390a35050565b6113746109f7565b156113b4576040517f08c379a00000000000000000000000000000000000000000000000000000000081526004016113ab906120ee565b60405180910390fd5b565b8173ffffffffffffffffffffffffffffffffffffffff16600360009054906101000a900473ffffffffffffffffffffffffffffffffffffffff1673ffffffffffffffffffffffffffffffffffffffff16636352211e836040518263ffffffff1660e01b815260040161142891906121ae565b60206040518083038186803b15801561144057600080fd5b505afa158015611454573d6000803e3d6000fd5b505050506040513d601f19601f820116820180604052508101906114789190611b7a565b73ffffffffffffffffffffffffffffffffffffffff16146114ce576040517f08c379a00000000000000000000000000000000000000000000000000000000081526004016114c59061204e565b60405180910390fd5b6000600760008473ffffffffffffffffffffffffffffffffffffffff1673ffffffffffffffffffffffffffffffffffffffff168152602001908152602001600020600001541115611581576000611524836110dd565b905080600760008573ffffffffffffffffffffffffffffffffffffffff1673ffffffffffffffffffffffffffffffffffffffff1681526020019081526020016000206003016000828254611578919061226b565b92505081905550505b600360009054906101000a900473ffffffffffffffffffffffffffffffffffffffff1673ffffffffffffffffffffffffffffffffffffffff166323b872dd8330846040518463ffffffff1660e01b81526004016115e093929190611f59565b600060405180830381600087803b1580156115fa57600080fd5b505af115801561160e573d6000803e3d6000fd5b50505050600060405180604001604052808473ffffffffffffffffffffffffffffffffffffffff168152602001838152509050600760008473ffffffffffffffffffffffffffffffffffffffff1673ffffffffffffffffffffffffffffffffffffffff16815260200190815260200160002060010181908060018154018082558091505060019003906000526020600020906002020160009091909190915060008201518160000160006101000a81548173ffffffffffffffffffffffffffffffffffffffff021916908373ffffffffffffffffffffffffffffffffffffffff160217905550602082015181600101555050600760008473ffffffffffffffffffffffffffffffffffffffff1673ffffffffffffffffffffffffffffffffffffffff16815260200190815260200160002060000160008154809291906117539061246d565b9190505550826008600084815260200190815260200160002060006101000a81548173ffffffffffffffffffffffffffffffffffffffff021916908373ffffffffffffffffffffffffffffffffffffffff16021790555042600760008573ffffffffffffffffffffffffffffffffffffffff1673ffffffffffffffffffffffffffffffffffffffff16815260200190815260200160002060020181905550505050565b6117fe6109f7565b61183d576040517f08c379a00000000000000000000000000000000000000000000000000000000081526004016118349061206e565b60405180910390fd5b565b60006118a1826040518060400160405280602081526020017f5361666545524332303a206c6f772d6c6576656c2063616c6c206661696c65648152508573ffffffffffffffffffffffffffffffffffffffff1661190e9092919063ffffffff16565b905060008151111561190157808060200190518101906118c19190611ba7565b611900576040517f08c379a00000000000000000000000000000000000000000000000000000000081526004016118f79061216e565b60405180910390fd5b5b505050565b600033905090565b606061191d8484600085611926565b90509392505050565b60608247101561196b576040517f08c379a0000000000000000000000000000000000000000000000000000000008152600401611962906120ce565b60405180910390fd5b61197485611a3a565b6119b3576040517f08c379a00000000000000000000000000000000000000000000000000000000081526004016119aa9061214e565b60405180910390fd5b6000808673ffffffffffffffffffffffffffffffffffffffff1685876040516119dc9190611f27565b60006040518083038185875af1925050503d8060008114611a19576040519150601f19603f3d011682016040523d82523d6000602084013e611a1e565b606091505b5091509150611a2e828286611a4d565b92505050949350505050565b600080823b905060008111915050919050565b60608315611a5d57829050611aad565b600083511115611a705782518084602001fd5b816040517f08c379a0000000000000000000000000000000000000000000000000000000008152600401611aa4919061202c565b60405180910390fd5b9392505050565b6040518060400160405280600073ffffffffffffffffffffffffffffffffffffffff168152602001600081525090565b600081359050611af3816127bd565b92915050565b600081519050611b08816127bd565b92915050565b600081519050611b1d816127d4565b92915050565b600081359050611b32816127eb565b92915050565b600081519050611b47816127eb565b92915050565b600060208284031215611b6357611b62612572565b5b6000611b7184828501611ae4565b91505092915050565b600060208284031215611b9057611b8f612572565b5b6000611b9e84828501611af9565b91505092915050565b600060208284031215611bbd57611bbc612572565b5b6000611bcb84828501611b0e565b91505092915050565b600060208284031215611bea57611be9612572565b5b6000611bf884828501611b23565b91505092915050565b600060208284031215611c1757611c16612572565b5b6000611c2584828501611b38565b91505092915050565b6000611c3a8383611eda565b60408301905092915050565b611c4f81612380565b82525050565b611c5e81612380565b82525050565b6000611c6f82612210565b611c79818561223e565b9350611c8483612200565b8060005b83811015611cb5578151611c9c8882611c2e565b9750611ca783612231565b925050600181019050611c88565b5085935050505092915050565b611ccb81612392565b82525050565b6000611cdc8261221b565b611ce6818561224f565b9350611cf6818560208601612410565b80840191505092915050565b611d0b816123c8565b82525050565b611d1a816123da565b82525050565b6000611d2b82612226565b611d35818561225a565b9350611d45818560208601612410565b611d4e81612577565b840191505092915050565b6000611d6660198361225a565b9150611d7182612588565b602082019050919050565b6000611d8960148361225a565b9150611d94826125b1565b602082019050919050565b6000611dac60268361225a565b9150611db7826125da565b604082019050919050565b6000611dcf60198361225a565b9150611dda82612629565b602082019050919050565b6000611df260268361225a565b9150611dfd82612652565b604082019050919050565b6000611e1560108361225a565b9150611e20826126a1565b602082019050919050565b6000611e3860208361225a565b9150611e43826126ca565b602082019050919050565b6000611e5b601c8361225a565b9150611e66826126f3565b602082019050919050565b6000611e7e601d8361225a565b9150611e898261271c565b602082019050919050565b6000611ea1602a8361225a565b9150611eac82612745565b604082019050919050565b6000611ec4601f8361225a565b9150611ecf82612794565b602082019050919050565b604082016000820151611ef06000850182611c46565b506020820151611f036020850182611f09565b50505050565b611f12816123be565b82525050565b611f21816123be565b82525050565b6000611f338284611cd1565b915081905092915050565b6000602082019050611f536000830184611c55565b92915050565b6000606082019050611f6e6000830186611c55565b611f7b6020830185611c55565b611f886040830184611f18565b949350505050565b6000604082019050611fa56000830185611c55565b611fb26020830184611f18565b9392505050565b60006020820190508181036000830152611fd38184611c64565b905092915050565b6000602082019050611ff06000830184611cc2565b92915050565b600060208201905061200b6000830184611d02565b92915050565b60006020820190506120266000830184611d11565b92915050565b600060208201905081810360008301526120468184611d20565b905092915050565b6000602082019050818103600083015261206781611d59565b9050919050565b6000602082019050818103600083015261208781611d7c565b9050919050565b600060208201905081810360008301526120a781611d9f565b9050919050565b600060208201905081810360008301526120c781611dc2565b9050919050565b600060208201905081810360008301526120e781611de5565b9050919050565b6000602082019050818103600083015261210781611e08565b9050919050565b6000602082019050818103600083015261212781611e2b565b9050919050565b6000602082019050818103600083015261214781611e4e565b9050919050565b6000602082019050818103600083015261216781611e71565b9050919050565b6000602082019050818103600083015261218781611e94565b9050919050565b600060208201905081810360008301526121a781611eb7565b9050919050565b60006020820190506121c36000830184611f18565b92915050565b60006060820190506121de6000830186611f18565b6121eb6020830185611f18565b6121f86040830184611f18565b949350505050565b6000819050602082019050919050565b600081519050919050565b600081519050919050565b600081519050919050565b6000602082019050919050565b600082825260208201905092915050565b600081905092915050565b600082825260208201905092915050565b6000612276826123be565b9150612281836123be565b9250827fffffffffffffffffffffffffffffffffffffffffffffffffffffffffffffffff038211156122b6576122b56124b6565b5b828201905092915050565b60006122cc826123be565b91506122d7836123be565b9250826122e7576122e66124e5565b5b828204905092915050565b60006122fd826123be565b9150612308836123be565b9250817fffffffffffffffffffffffffffffffffffffffffffffffffffffffffffffffff0483118215151615612341576123406124b6565b5b828202905092915050565b6000612357826123be565b9150612362836123be565b925082821015612375576123746124b6565b5b828203905092915050565b600061238b8261239e565b9050919050565b60008115159050919050565b600073ffffffffffffffffffffffffffffffffffffffff82169050919050565b6000819050919050565b60006123d3826123ec565b9050919050565b60006123e5826123ec565b9050919050565b60006123f7826123fe565b9050919050565b60006124098261239e565b9050919050565b60005b8381101561242e578082015181840152602081019050612413565b8381111561243d576000848401525b50505050565b600061244e826123be565b91506000821415612462576124616124b6565b5b600182039050919050565b6000612478826123be565b91507fffffffffffffffffffffffffffffffffffffffffffffffffffffffffffffffff8214156124ab576124aa6124b6565b5b600182019050919050565b7f4e487b7100000000000000000000000000000000000000000000000000000000600052601160045260246000fd5b7f4e487b7100000000000000000000000000000000000000000000000000000000600052601260045260246000fd5b7f4e487b7100000000000000000000000000000000000000000000000000000000600052603260045260246000fd5b7f4e487b7100000000000000000000000000000000000000000000000000000000600052604160045260246000fd5b600080fd5b6000601f19601f8301169050919050565b7f596f7520646f6e2774206f776e207468697320746f6b656e2100000000000000600082015250565b7f5061757361626c653a206e6f7420706175736564000000000000000000000000600082015250565b7f4f776e61626c653a206e6577206f776e657220697320746865207a65726f206160008201527f6464726573730000000000000000000000000000000000000000000000000000602082015250565b7f596f752068617665206e6f20746f6b656e73207374616b656400000000000000600082015250565b7f416464726573733a20696e73756666696369656e742062616c616e636520666f60008201527f722063616c6c0000000000000000000000000000000000000000000000000000602082015250565b7f5061757361626c653a2070617573656400000000000000000000000000000000600082015250565b7f4f776e61626c653a2063616c6c6572206973206e6f7420746865206f776e6572600082015250565b7f596f752068617665206e6f207265776172647320746f20636c61696d00000000600082015250565b7f416464726573733a2063616c6c20746f206e6f6e2d636f6e7472616374000000600082015250565b7f5361666545524332303a204552433230206f7065726174696f6e20646964206e60008201527f6f74207375636365656400000000000000000000000000000000000000000000602082015250565b7f5265656e7472616e637947756172643a207265656e7472616e742063616c6c00600082015250565b6127c681612380565b81146127d157600080fd5b50565b6127dd81612392565b81146127e857600080fd5b50565b6127f4816123be565b81146127ff57600080fd5b5056fea26469706673582212209019748e1cbe56bbaac29383869f53765f24890bd3d12acc83e6cf2637d5126964736f6c63430008070033",
					"opcodes": "PUSH1 0x80 PUSH1 0x40 MSTORE PUSH3 0x186A0 PUSH1 0x5 SSTORE PUSH1 0x2 PUSH1 0x6 SSTORE CALLVALUE DUP1 ISZERO PUSH3 0x1D JUMPI PUSH1 0x0 DUP1 REVERT JUMPDEST POP PUSH1 0x40 MLOAD PUSH3 0x2BB2 CODESIZE SUB DUP1 PUSH3 0x2BB2 DUP4 CODECOPY DUP2 DUP2 ADD PUSH1 0x40 MSTORE DUP2 ADD SWAP1 PUSH3 0x43 SWAP2 SWAP1 PUSH3 0x269 JUMP JUMPDEST PUSH1 0x1 PUSH1 0x0 DUP2 SWAP1 SSTORE POP PUSH1 0x0 PUSH1 0x1 PUSH1 0x0 PUSH2 0x100 EXP DUP2 SLOAD DUP2 PUSH1 0xFF MUL NOT AND SWAP1 DUP4 ISZERO ISZERO MUL OR SWAP1 SSTORE POP PUSH3 0x86 PUSH3 0x7A PUSH3 0x159 PUSH1 0x20 SHL PUSH1 0x20 SHR JUMP JUMPDEST PUSH3 0x161 PUSH1 0x20 SHL PUSH1 0x20 SHR JUMP JUMPDEST DUP3 PUSH1 0x3 PUSH1 0x0 PUSH2 0x100 EXP DUP2 SLOAD DUP2 PUSH20 0xFFFFFFFFFFFFFFFFFFFFFFFFFFFFFFFFFFFFFFFF MUL NOT AND SWAP1 DUP4 PUSH20 0xFFFFFFFFFFFFFFFFFFFFFFFFFFFFFFFFFFFFFFFF AND MUL OR SWAP1 SSTORE POP DUP3 PUSH1 0x4 PUSH1 0x0 PUSH2 0x100 EXP DUP2 SLOAD DUP2 PUSH20 0xFFFFFFFFFFFFFFFFFFFFFFFFFFFFFFFFFFFFFFFF MUL NOT AND SWAP1 DUP4 PUSH20 0xFFFFFFFFFFFFFFFFFFFFFFFFFFFFFFFFFFFFFFFF AND MUL OR SWAP1 SSTORE POP DUP2 PUSH1 0x2 PUSH1 0x0 PUSH2 0x100 EXP DUP2 SLOAD DUP2 PUSH20 0xFFFFFFFFFFFFFFFFFFFFFFFFFFFFFFFFFFFFFFFF MUL NOT AND SWAP1 DUP4 PUSH20 0xFFFFFFFFFFFFFFFFFFFFFFFFFFFFFFFFFFFFFFFF AND MUL OR SWAP1 SSTORE POP DUP1 PUSH1 0x5 DUP2 SWAP1 SSTORE POP POP POP POP PUSH3 0x36A JUMP JUMPDEST PUSH1 0x0 CALLER SWAP1 POP SWAP1 JUMP JUMPDEST PUSH1 0x0 PUSH1 0x1 DUP1 SLOAD SWAP1 PUSH2 0x100 EXP SWAP1 DIV PUSH20 0xFFFFFFFFFFFFFFFFFFFFFFFFFFFFFFFFFFFFFFFF AND SWAP1 POP DUP2 PUSH1 0x1 DUP1 PUSH2 0x100 EXP DUP2 SLOAD DUP2 PUSH20 0xFFFFFFFFFFFFFFFFFFFFFFFFFFFFFFFFFFFFFFFF MUL NOT AND SWAP1 DUP4 PUSH20 0xFFFFFFFFFFFFFFFFFFFFFFFFFFFFFFFFFFFFFFFF AND MUL OR SWAP1 SSTORE POP DUP2 PUSH20 0xFFFFFFFFFFFFFFFFFFFFFFFFFFFFFFFFFFFFFFFF AND DUP2 PUSH20 0xFFFFFFFFFFFFFFFFFFFFFFFFFFFFFFFFFFFFFFFF AND PUSH32 0x8BE0079C531659141344CD1FD0A4F28419497F9722A3DAAFE3B4186F6B6457E0 PUSH1 0x40 MLOAD PUSH1 0x40 MLOAD DUP1 SWAP2 SUB SWAP1 LOG3 POP POP JUMP JUMPDEST PUSH1 0x0 DUP2 MLOAD SWAP1 POP PUSH3 0x235 DUP2 PUSH3 0x31C JUMP JUMPDEST SWAP3 SWAP2 POP POP JUMP JUMPDEST PUSH1 0x0 DUP2 MLOAD SWAP1 POP PUSH3 0x24C DUP2 PUSH3 0x336 JUMP JUMPDEST SWAP3 SWAP2 POP POP JUMP JUMPDEST PUSH1 0x0 DUP2 MLOAD SWAP1 POP PUSH3 0x263 DUP2 PUSH3 0x350 JUMP JUMPDEST SWAP3 SWAP2 POP POP JUMP JUMPDEST PUSH1 0x0 DUP1 PUSH1 0x0 PUSH1 0x60 DUP5 DUP7 SUB SLT ISZERO PUSH3 0x285 JUMPI PUSH3 0x284 PUSH3 0x317 JUMP JUMPDEST JUMPDEST PUSH1 0x0 PUSH3 0x295 DUP7 DUP3 DUP8 ADD PUSH3 0x224 JUMP JUMPDEST SWAP4 POP POP PUSH1 0x20 PUSH3 0x2A8 DUP7 DUP3 DUP8 ADD PUSH3 0x23B JUMP JUMPDEST SWAP3 POP POP PUSH1 0x40 PUSH3 0x2BB DUP7 DUP3 DUP8 ADD PUSH3 0x252 JUMP JUMPDEST SWAP2 POP POP SWAP3 POP SWAP3 POP SWAP3 JUMP JUMPDEST PUSH1 0x0 PUSH3 0x2D2 DUP3 PUSH3 0x2ED JUMP JUMPDEST SWAP1 POP SWAP2 SWAP1 POP JUMP JUMPDEST PUSH1 0x0 PUSH3 0x2E6 DUP3 PUSH3 0x2C5 JUMP JUMPDEST SWAP1 POP SWAP2 SWAP1 POP JUMP JUMPDEST PUSH1 0x0 PUSH20 0xFFFFFFFFFFFFFFFFFFFFFFFFFFFFFFFFFFFFFFFF DUP3 AND SWAP1 POP SWAP2 SWAP1 POP JUMP JUMPDEST PUSH1 0x0 DUP2 SWAP1 POP SWAP2 SWAP1 POP JUMP JUMPDEST PUSH1 0x0 DUP1 REVERT JUMPDEST PUSH3 0x327 DUP2 PUSH3 0x2C5 JUMP JUMPDEST DUP2 EQ PUSH3 0x333 JUMPI PUSH1 0x0 DUP1 REVERT JUMPDEST POP JUMP JUMPDEST PUSH3 0x341 DUP2 PUSH3 0x2D9 JUMP JUMPDEST DUP2 EQ PUSH3 0x34D JUMPI PUSH1 0x0 DUP1 REVERT JUMPDEST POP JUMP JUMPDEST PUSH3 0x35B DUP2 PUSH3 0x30D JUMP JUMPDEST DUP2 EQ PUSH3 0x367 JUMPI PUSH1 0x0 DUP1 REVERT JUMPDEST POP JUMP JUMPDEST PUSH2 0x2838 DUP1 PUSH3 0x37A PUSH1 0x0 CODECOPY PUSH1 0x0 RETURN INVALID PUSH1 0x80 PUSH1 0x40 MSTORE CALLVALUE DUP1 ISZERO PUSH2 0x10 JUMPI PUSH1 0x0 DUP1 REVERT JUMPDEST POP PUSH1 0x4 CALLDATASIZE LT PUSH2 0x10B JUMPI PUSH1 0x0 CALLDATALOAD PUSH1 0xE0 SHR DUP1 PUSH4 0x8E7271FA GT PUSH2 0xA2 JUMPI DUP1 PUSH4 0xB5A5E509 GT PUSH2 0x71 JUMPI DUP1 PUSH4 0xB5A5E509 EQ PUSH2 0x284 JUMPI DUP1 PUSH4 0xD1AF0C7D EQ PUSH2 0x2A0 JUMPI DUP1 PUSH4 0xF2FDE38B EQ PUSH2 0x2BE JUMPI DUP1 PUSH4 0xF854A27F EQ PUSH2 0x2DA JUMPI DUP1 PUSH4 0xF995441B EQ PUSH2 0x30A JUMPI PUSH2 0x10B JUMP JUMPDEST DUP1 PUSH4 0x8E7271FA EQ PUSH2 0x1E8 JUMPI DUP1 PUSH4 0x9168AE72 EQ PUSH2 0x206 JUMPI DUP1 PUSH4 0x94067045 EQ PUSH2 0x238 JUMPI DUP1 PUSH4 0xA694FC3A EQ PUSH2 0x268 JUMPI PUSH2 0x10B JUMP JUMPDEST DUP1 PUSH4 0x63C28DB1 GT PUSH2 0xDE JUMPI DUP1 PUSH4 0x63C28DB1 EQ PUSH2 0x172 JUMPI DUP1 PUSH4 0x6588103B EQ PUSH2 0x1A2 JUMPI DUP1 PUSH4 0x715018A6 EQ PUSH2 0x1C0 JUMPI DUP1 PUSH4 0x8DA5CB5B EQ PUSH2 0x1CA JUMPI PUSH2 0x10B JUMP JUMPDEST DUP1 PUSH4 0x2E1A7D4D EQ PUSH2 0x110 JUMPI DUP1 PUSH4 0x372500AB EQ PUSH2 0x12C JUMPI DUP1 PUSH4 0x54FD4D50 EQ PUSH2 0x136 JUMPI DUP1 PUSH4 0x5C975ABB EQ PUSH2 0x154 JUMPI JUMPDEST PUSH1 0x0 DUP1 REVERT JUMPDEST PUSH2 0x12A PUSH1 0x4 DUP1 CALLDATASIZE SUB DUP2 ADD SWAP1 PUSH2 0x125 SWAP2 SWAP1 PUSH2 0x1BD4 JUMP JUMPDEST PUSH2 0x314 JUMP JUMPDEST STOP JUMPDEST PUSH2 0x134 PUSH2 0x875 JUMP JUMPDEST STOP JUMPDEST PUSH2 0x13E PUSH2 0x9F1 JUMP JUMPDEST PUSH1 0x40 MLOAD PUSH2 0x14B SWAP2 SWAP1 PUSH2 0x21AE JUMP JUMPDEST PUSH1 0x40 MLOAD DUP1 SWAP2 SUB SWAP1 RETURN JUMPDEST PUSH2 0x15C PUSH2 0x9F7 JUMP JUMPDEST PUSH1 0x40 MLOAD PUSH2 0x169 SWAP2 SWAP1 PUSH2 0x1FDB JUMP JUMPDEST PUSH1 0x40 MLOAD DUP1 SWAP2 SUB SWAP1 RETURN JUMPDEST PUSH2 0x18C PUSH1 0x4 DUP1 CALLDATASIZE SUB DUP2 ADD SWAP1 PUSH2 0x187 SWAP2 SWAP1 PUSH2 0x1B4D JUMP JUMPDEST PUSH2 0xA0E JUMP JUMPDEST PUSH1 0x40 MLOAD PUSH2 0x199 SWAP2 SWAP1 PUSH2 0x1FB9 JUMP JUMPDEST PUSH1 0x40 MLOAD DUP1 SWAP2 SUB SWAP1 RETURN JUMPDEST PUSH2 0x1AA PUSH2 0xD74 JUMP JUMPDEST PUSH1 0x40 MLOAD PUSH2 0x1B7 SWAP2 SWAP1 PUSH2 0x2011 JUMP JUMPDEST PUSH1 0x40 MLOAD DUP1 SWAP2 SUB SWAP1 RETURN JUMPDEST PUSH2 0x1C8 PUSH2 0xD9A JUMP JUMPDEST STOP JUMPDEST PUSH2 0x1D2 PUSH2 0xDAE JUMP JUMPDEST PUSH1 0x40 MLOAD PUSH2 0x1DF SWAP2 SWAP1 PUSH2 0x1F3E JUMP JUMPDEST PUSH1 0x40 MLOAD DUP1 SWAP2 SUB SWAP1 RETURN JUMPDEST PUSH2 0x1F0 PUSH2 0xDD6 JUMP JUMPDEST PUSH1 0x40 MLOAD PUSH2 0x1FD SWAP2 SWAP1 PUSH2 0x21AE JUMP JUMPDEST PUSH1 0x40 MLOAD DUP1 SWAP2 SUB SWAP1 RETURN JUMPDEST PUSH2 0x220 PUSH1 0x4 DUP1 CALLDATASIZE SUB DUP2 ADD SWAP1 PUSH2 0x21B SWAP2 SWAP1 PUSH2 0x1B4D JUMP JUMPDEST PUSH2 0xDDC JUMP JUMPDEST PUSH1 0x40 MLOAD PUSH2 0x22F SWAP4 SWAP3 SWAP2 SWAP1 PUSH2 0x21C9 JUMP JUMPDEST PUSH1 0x40 MLOAD DUP1 SWAP2 SUB SWAP1 RETURN JUMPDEST PUSH2 0x252 PUSH1 0x4 DUP1 CALLDATASIZE SUB DUP2 ADD SWAP1 PUSH2 0x24D SWAP2 SWAP1 PUSH2 0x1BD4 JUMP JUMPDEST PUSH2 0xE06 JUMP JUMPDEST PUSH1 0x40 MLOAD PUSH2 0x25F SWAP2 SWAP1 PUSH2 0x1F3E JUMP JUMPDEST PUSH1 0x40 MLOAD DUP1 SWAP2 SUB SWAP1 RETURN JUMPDEST PUSH2 0x282 PUSH1 0x4 DUP1 CALLDATASIZE SUB DUP2 ADD SWAP1 PUSH2 0x27D SWAP2 SWAP1 PUSH2 0x1BD4 JUMP JUMPDEST PUSH2 0xE39 JUMP JUMPDEST STOP JUMPDEST PUSH2 0x29E PUSH1 0x4 DUP1 CALLDATASIZE SUB DUP2 ADD SWAP1 PUSH2 0x299 SWAP2 SWAP1 PUSH2 0x1BD4 JUMP JUMPDEST PUSH2 0xE5E JUMP JUMPDEST STOP JUMPDEST PUSH2 0x2A8 PUSH2 0xE70 JUMP JUMPDEST PUSH1 0x40 MLOAD PUSH2 0x2B5 SWAP2 SWAP1 PUSH2 0x1FF6 JUMP JUMPDEST PUSH1 0x40 MLOAD DUP1 SWAP2 SUB SWAP1 RETURN JUMPDEST PUSH2 0x2D8 PUSH1 0x4 DUP1 CALLDATASIZE SUB DUP2 ADD SWAP1 PUSH2 0x2D3 SWAP2 SWAP1 PUSH2 0x1B4D JUMP JUMPDEST PUSH2 0xE96 JUMP JUMPDEST STOP JUMPDEST PUSH2 0x2F4 PUSH1 0x4 DUP1 CALLDATASIZE SUB DUP2 ADD SWAP1 PUSH2 0x2EF SWAP2 SWAP1 PUSH2 0x1B4D JUMP JUMPDEST PUSH2 0xF1A JUMP JUMPDEST PUSH1 0x40 MLOAD PUSH2 0x301 SWAP2 SWAP1 PUSH2 0x21AE JUMP JUMPDEST PUSH1 0x40 MLOAD DUP1 SWAP2 SUB SWAP1 RETURN JUMPDEST PUSH2 0x312 PUSH2 0xF7E JUMP JUMPDEST STOP JUMPDEST PUSH2 0x31C PUSH2 0x108D JUMP JUMPDEST PUSH1 0x0 PUSH1 0x7 PUSH1 0x0 CALLER PUSH20 0xFFFFFFFFFFFFFFFFFFFFFFFFFFFFFFFFFFFFFFFF AND PUSH20 0xFFFFFFFFFFFFFFFFFFFFFFFFFFFFFFFFFFFFFFFF AND DUP2 MSTORE PUSH1 0x20 ADD SWAP1 DUP2 MSTORE PUSH1 0x20 ADD PUSH1 0x0 KECCAK256 PUSH1 0x0 ADD SLOAD GT PUSH2 0x3A1 JUMPI PUSH1 0x40 MLOAD PUSH32 0x8C379A000000000000000000000000000000000000000000000000000000000 DUP2 MSTORE PUSH1 0x4 ADD PUSH2 0x398 SWAP1 PUSH2 0x20AE JUMP JUMPDEST PUSH1 0x40 MLOAD DUP1 SWAP2 SUB SWAP1 REVERT JUMPDEST CALLER PUSH20 0xFFFFFFFFFFFFFFFFFFFFFFFFFFFFFFFFFFFFFFFF AND PUSH1 0x8 PUSH1 0x0 DUP4 DUP2 MSTORE PUSH1 0x20 ADD SWAP1 DUP2 MSTORE PUSH1 0x20 ADD PUSH1 0x0 KECCAK256 PUSH1 0x0 SWAP1 SLOAD SWAP1 PUSH2 0x100 EXP SWAP1 DIV PUSH20 0xFFFFFFFFFFFFFFFFFFFFFFFFFFFFFFFFFFFFFFFF AND PUSH20 0xFFFFFFFFFFFFFFFFFFFFFFFFFFFFFFFFFFFFFFFF AND EQ PUSH2 0x442 JUMPI PUSH1 0x40 MLOAD PUSH32 0x8C379A000000000000000000000000000000000000000000000000000000000 DUP2 MSTORE PUSH1 0x4 ADD PUSH2 0x439 SWAP1 PUSH2 0x204E JUMP JUMPDEST PUSH1 0x40 MLOAD DUP1 SWAP2 SUB SWAP1 REVERT JUMPDEST PUSH1 0x0 PUSH2 0x44D CALLER PUSH2 0x10DD JUMP JUMPDEST SWAP1 POP DUP1 PUSH1 0x7 PUSH1 0x0 CALLER PUSH20 0xFFFFFFFFFFFFFFFFFFFFFFFFFFFFFFFFFFFFFFFF AND PUSH20 0xFFFFFFFFFFFFFFFFFFFFFFFFFFFFFFFFFFFFFFFF AND DUP2 MSTORE PUSH1 0x20 ADD SWAP1 DUP2 MSTORE PUSH1 0x20 ADD PUSH1 0x0 KECCAK256 PUSH1 0x3 ADD PUSH1 0x0 DUP3 DUP3 SLOAD PUSH2 0x4A1 SWAP2 SWAP1 PUSH2 0x226B JUMP JUMPDEST SWAP3 POP POP DUP2 SWAP1 SSTORE POP PUSH1 0x0 DUP1 JUMPDEST PUSH1 0x7 PUSH1 0x0 CALLER PUSH20 0xFFFFFFFFFFFFFFFFFFFFFFFFFFFFFFFFFFFFFFFF AND PUSH20 0xFFFFFFFFFFFFFFFFFFFFFFFFFFFFFFFFFFFFFFFF AND DUP2 MSTORE PUSH1 0x20 ADD SWAP1 DUP2 MSTORE PUSH1 0x20 ADD PUSH1 0x0 KECCAK256 PUSH1 0x1 ADD DUP1 SLOAD SWAP1 POP DUP2 LT ISZERO PUSH2 0x63F JUMPI DUP4 PUSH1 0x7 PUSH1 0x0 CALLER PUSH20 0xFFFFFFFFFFFFFFFFFFFFFFFFFFFFFFFFFFFFFFFF AND PUSH20 0xFFFFFFFFFFFFFFFFFFFFFFFFFFFFFFFFFFFFFFFF AND DUP2 MSTORE PUSH1 0x20 ADD SWAP1 DUP2 MSTORE PUSH1 0x20 ADD PUSH1 0x0 KECCAK256 PUSH1 0x1 ADD DUP3 DUP2 SLOAD DUP2 LT PUSH2 0x54E JUMPI PUSH2 0x54D PUSH2 0x2514 JUMP JUMPDEST JUMPDEST SWAP1 PUSH1 0x0 MSTORE PUSH1 0x20 PUSH1 0x0 KECCAK256 SWAP1 PUSH1 0x2 MUL ADD PUSH1 0x1 ADD SLOAD EQ DUP1 ISZERO PUSH2 0x61F JUMPI POP PUSH1 0x0 PUSH20 0xFFFFFFFFFFFFFFFFFFFFFFFFFFFFFFFFFFFFFFFF AND PUSH1 0x7 PUSH1 0x0 CALLER PUSH20 0xFFFFFFFFFFFFFFFFFFFFFFFFFFFFFFFFFFFFFFFF AND PUSH20 0xFFFFFFFFFFFFFFFFFFFFFFFFFFFFFFFFFFFFFFFF AND DUP2 MSTORE PUSH1 0x20 ADD SWAP1 DUP2 MSTORE PUSH1 0x20 ADD PUSH1 0x0 KECCAK256 PUSH1 0x1 ADD DUP3 DUP2 SLOAD DUP2 LT PUSH2 0x5D4 JUMPI PUSH2 0x5D3 PUSH2 0x2514 JUMP JUMPDEST JUMPDEST SWAP1 PUSH1 0x0 MSTORE PUSH1 0x20 PUSH1 0x0 KECCAK256 SWAP1 PUSH1 0x2 MUL ADD PUSH1 0x0 ADD PUSH1 0x0 SWAP1 SLOAD SWAP1 PUSH2 0x100 EXP SWAP1 DIV PUSH20 0xFFFFFFFFFFFFFFFFFFFFFFFFFFFFFFFFFFFFFFFF AND PUSH20 0xFFFFFFFFFFFFFFFFFFFFFFFFFFFFFFFFFFFFFFFF AND EQ ISZERO JUMPDEST ISZERO PUSH2 0x62C JUMPI DUP1 SWAP2 POP PUSH2 0x63F JUMP JUMPDEST DUP1 DUP1 PUSH2 0x637 SWAP1 PUSH2 0x246D JUMP JUMPDEST SWAP2 POP POP PUSH2 0x4AC JUMP JUMPDEST POP PUSH1 0x0 PUSH1 0x7 PUSH1 0x0 CALLER PUSH20 0xFFFFFFFFFFFFFFFFFFFFFFFFFFFFFFFFFFFFFFFF AND PUSH20 0xFFFFFFFFFFFFFFFFFFFFFFFFFFFFFFFFFFFFFFFF AND DUP2 MSTORE PUSH1 0x20 ADD SWAP1 DUP2 MSTORE PUSH1 0x20 ADD PUSH1 0x0 KECCAK256 PUSH1 0x1 ADD DUP3 DUP2 SLOAD DUP2 LT PUSH2 0x696 JUMPI PUSH2 0x695 PUSH2 0x2514 JUMP JUMPDEST JUMPDEST SWAP1 PUSH1 0x0 MSTORE PUSH1 0x20 PUSH1 0x0 KECCAK256 SWAP1 PUSH1 0x2 MUL ADD PUSH1 0x0 ADD PUSH1 0x0 PUSH2 0x100 EXP DUP2 SLOAD DUP2 PUSH20 0xFFFFFFFFFFFFFFFFFFFFFFFFFFFFFFFFFFFFFFFF MUL NOT AND SWAP1 DUP4 PUSH20 0xFFFFFFFFFFFFFFFFFFFFFFFFFFFFFFFFFFFFFFFF AND MUL OR SWAP1 SSTORE POP PUSH1 0x7 PUSH1 0x0 CALLER PUSH20 0xFFFFFFFFFFFFFFFFFFFFFFFFFFFFFFFFFFFFFFFF AND PUSH20 0xFFFFFFFFFFFFFFFFFFFFFFFFFFFFFFFFFFFFFFFF AND DUP2 MSTORE PUSH1 0x20 ADD SWAP1 DUP2 MSTORE PUSH1 0x20 ADD PUSH1 0x0 KECCAK256 PUSH1 0x0 ADD PUSH1 0x0 DUP2 SLOAD DUP1 SWAP3 SWAP2 SWAP1 PUSH2 0x738 SWAP1 PUSH2 0x2443 JUMP JUMPDEST SWAP2 SWAP1 POP SSTORE POP PUSH1 0x0 PUSH1 0x8 PUSH1 0x0 DUP6 DUP2 MSTORE PUSH1 0x20 ADD SWAP1 DUP2 MSTORE PUSH1 0x20 ADD PUSH1 0x0 KECCAK256 PUSH1 0x0 PUSH2 0x100 EXP DUP2 SLOAD DUP2 PUSH20 0xFFFFFFFFFFFFFFFFFFFFFFFFFFFFFFFFFFFFFFFF MUL NOT AND SWAP1 DUP4 PUSH20 0xFFFFFFFFFFFFFFFFFFFFFFFFFFFFFFFFFFFFFFFF AND MUL OR SWAP1 SSTORE POP PUSH1 0x3 PUSH1 0x0 SWAP1 SLOAD SWAP1 PUSH2 0x100 EXP SWAP1 DIV PUSH20 0xFFFFFFFFFFFFFFFFFFFFFFFFFFFFFFFFFFFFFFFF AND PUSH20 0xFFFFFFFFFFFFFFFFFFFFFFFFFFFFFFFFFFFFFFFF AND PUSH4 0x23B872DD ADDRESS CALLER DUP7 PUSH1 0x40 MLOAD DUP5 PUSH4 0xFFFFFFFF AND PUSH1 0xE0 SHL DUP2 MSTORE PUSH1 0x4 ADD PUSH2 0x7EF SWAP4 SWAP3 SWAP2 SWAP1 PUSH2 0x1F59 JUMP JUMPDEST PUSH1 0x0 PUSH1 0x40 MLOAD DUP1 DUP4 SUB DUP2 PUSH1 0x0 DUP8 DUP1 EXTCODESIZE ISZERO DUP1 ISZERO PUSH2 0x809 JUMPI PUSH1 0x0 DUP1 REVERT JUMPDEST POP GAS CALL ISZERO DUP1 ISZERO PUSH2 0x81D JUMPI RETURNDATASIZE PUSH1 0x0 DUP1 RETURNDATACOPY RETURNDATASIZE PUSH1 0x0 REVERT JUMPDEST POP POP POP POP TIMESTAMP PUSH1 0x7 PUSH1 0x0 CALLER PUSH20 0xFFFFFFFFFFFFFFFFFFFFFFFFFFFFFFFFFFFFFFFF AND PUSH20 0xFFFFFFFFFFFFFFFFFFFFFFFFFFFFFFFFFFFFFFFF AND DUP2 MSTORE PUSH1 0x20 ADD SWAP1 DUP2 MSTORE PUSH1 0x20 ADD PUSH1 0x0 KECCAK256 PUSH1 0x2 ADD DUP2 SWAP1 SSTORE POP POP POP PUSH2 0x872 PUSH2 0x119B JUMP JUMPDEST POP JUMP JUMPDEST PUSH1 0x0 PUSH1 0x7 PUSH1 0x0 CALLER PUSH20 0xFFFFFFFFFFFFFFFFFFFFFFFFFFFFFFFFFFFFFFFF AND PUSH20 0xFFFFFFFFFFFFFFFFFFFFFFFFFFFFFFFFFFFFFFFF AND DUP2 MSTORE PUSH1 0x20 ADD SWAP1 DUP2 MSTORE PUSH1 0x20 ADD PUSH1 0x0 KECCAK256 PUSH1 0x3 ADD SLOAD PUSH2 0x8C3 CALLER PUSH2 0x10DD JUMP JUMPDEST PUSH2 0x8CD SWAP2 SWAP1 PUSH2 0x226B JUMP JUMPDEST SWAP1 POP PUSH1 0x0 DUP2 GT PUSH2 0x912 JUMPI PUSH1 0x40 MLOAD PUSH32 0x8C379A000000000000000000000000000000000000000000000000000000000 DUP2 MSTORE PUSH1 0x4 ADD PUSH2 0x909 SWAP1 PUSH2 0x212E JUMP JUMPDEST PUSH1 0x40 MLOAD DUP1 SWAP2 SUB SWAP1 REVERT JUMPDEST TIMESTAMP PUSH1 0x7 PUSH1 0x0 CALLER PUSH20 0xFFFFFFFFFFFFFFFFFFFFFFFFFFFFFFFFFFFFFFFF AND PUSH20 0xFFFFFFFFFFFFFFFFFFFFFFFFFFFFFFFFFFFFFFFF AND DUP2 MSTORE PUSH1 0x20 ADD SWAP1 DUP2 MSTORE PUSH1 0x20 ADD PUSH1 0x0 KECCAK256 PUSH1 0x2 ADD DUP2 SWAP1 SSTORE POP PUSH1 0x0 PUSH1 0x7 PUSH1 0x0 CALLER PUSH20 0xFFFFFFFFFFFFFFFFFFFFFFFFFFFFFFFFFFFFFFFF AND PUSH20 0xFFFFFFFFFFFFFFFFFFFFFFFFFFFFFFFFFFFFFFFF AND DUP2 MSTORE PUSH1 0x20 ADD SWAP1 DUP2 MSTORE PUSH1 0x20 ADD PUSH1 0x0 KECCAK256 PUSH1 0x3 ADD DUP2 SWAP1 SSTORE POP PUSH2 0x9EE CALLER DUP3 PUSH1 0x2 PUSH1 0x0 SWAP1 SLOAD SWAP1 PUSH2 0x100 EXP SWAP1 DIV PUSH20 0xFFFFFFFFFFFFFFFFFFFFFFFFFFFFFFFFFFFFFFFF AND PUSH20 0xFFFFFFFFFFFFFFFFFFFFFFFFFFFFFFFFFFFFFFFF AND PUSH2 0x11A5 SWAP1 SWAP3 SWAP2 SWAP1 PUSH4 0xFFFFFFFF AND JUMP JUMPDEST POP JUMP JUMPDEST PUSH1 0x6 SLOAD DUP2 JUMP JUMPDEST PUSH1 0x0 PUSH1 0x1 PUSH1 0x0 SWAP1 SLOAD SWAP1 PUSH2 0x100 EXP SWAP1 DIV PUSH1 0xFF AND SWAP1 POP SWAP1 JUMP JUMPDEST PUSH1 0x60 PUSH1 0x0 PUSH1 0x7 PUSH1 0x0 DUP5 PUSH20 0xFFFFFFFFFFFFFFFFFFFFFFFFFFFFFFFFFFFFFFFF AND PUSH20 0xFFFFFFFFFFFFFFFFFFFFFFFFFFFFFFFFFFFFFFFF AND DUP2 MSTORE PUSH1 0x20 ADD SWAP1 DUP2 MSTORE PUSH1 0x20 ADD PUSH1 0x0 KECCAK256 PUSH1 0x0 ADD SLOAD GT ISZERO PUSH2 0xD17 JUMPI PUSH1 0x0 PUSH1 0x7 PUSH1 0x0 DUP5 PUSH20 0xFFFFFFFFFFFFFFFFFFFFFFFFFFFFFFFFFFFFFFFF AND PUSH20 0xFFFFFFFFFFFFFFFFFFFFFFFFFFFFFFFFFFFFFFFF AND DUP2 MSTORE PUSH1 0x20 ADD SWAP1 DUP2 MSTORE PUSH1 0x20 ADD PUSH1 0x0 KECCAK256 PUSH1 0x0 ADD SLOAD PUSH8 0xFFFFFFFFFFFFFFFF DUP2 GT ISZERO PUSH2 0xAB9 JUMPI PUSH2 0xAB8 PUSH2 0x2543 JUMP JUMPDEST JUMPDEST PUSH1 0x40 MLOAD SWAP1 DUP1 DUP3 MSTORE DUP1 PUSH1 0x20 MUL PUSH1 0x20 ADD DUP3 ADD PUSH1 0x40 MSTORE DUP1 ISZERO PUSH2 0xAF2 JUMPI DUP2 PUSH1 0x20 ADD JUMPDEST PUSH2 0xADF PUSH2 0x1AB4 JUMP JUMPDEST DUP2 MSTORE PUSH1 0x20 ADD SWAP1 PUSH1 0x1 SWAP1 SUB SWAP1 DUP2 PUSH2 0xAD7 JUMPI SWAP1 POP JUMPDEST POP SWAP1 POP PUSH1 0x0 DUP1 JUMPDEST PUSH1 0x7 PUSH1 0x0 DUP7 PUSH20 0xFFFFFFFFFFFFFFFFFFFFFFFFFFFFFFFFFFFFFFFF AND PUSH20 0xFFFFFFFFFFFFFFFFFFFFFFFFFFFFFFFFFFFFFFFF AND DUP2 MSTORE PUSH1 0x20 ADD SWAP1 DUP2 MSTORE PUSH1 0x20 ADD PUSH1 0x0 KECCAK256 PUSH1 0x1 ADD DUP1 SLOAD SWAP1 POP DUP2 LT ISZERO PUSH2 0xD0C JUMPI PUSH1 0x0 PUSH20 0xFFFFFFFFFFFFFFFFFFFFFFFFFFFFFFFFFFFFFFFF AND PUSH1 0x7 PUSH1 0x0 DUP8 PUSH20 0xFFFFFFFFFFFFFFFFFFFFFFFFFFFFFFFFFFFFFFFF AND PUSH20 0xFFFFFFFFFFFFFFFFFFFFFFFFFFFFFFFFFFFFFFFF AND DUP2 MSTORE PUSH1 0x20 ADD SWAP1 DUP2 MSTORE PUSH1 0x20 ADD PUSH1 0x0 KECCAK256 PUSH1 0x1 ADD DUP3 DUP2 SLOAD DUP2 LT PUSH2 0xBB2 JUMPI PUSH2 0xBB1 PUSH2 0x2514 JUMP JUMPDEST JUMPDEST SWAP1 PUSH1 0x0 MSTORE PUSH1 0x20 PUSH1 0x0 KECCAK256 SWAP1 PUSH1 0x2 MUL ADD PUSH1 0x0 ADD PUSH1 0x0 SWAP1 SLOAD SWAP1 PUSH2 0x100 EXP SWAP1 DIV PUSH20 0xFFFFFFFFFFFFFFFFFFFFFFFFFFFFFFFFFFFFFFFF AND PUSH20 0xFFFFFFFFFFFFFFFFFFFFFFFFFFFFFFFFFFFFFFFF AND EQ PUSH2 0xCF9 JUMPI PUSH1 0x7 PUSH1 0x0 DUP7 PUSH20 0xFFFFFFFFFFFFFFFFFFFFFFFFFFFFFFFFFFFFFFFF AND PUSH20 0xFFFFFFFFFFFFFFFFFFFFFFFFFFFFFFFFFFFFFFFF AND DUP2 MSTORE PUSH1 0x20 ADD SWAP1 DUP2 MSTORE PUSH1 0x20 ADD PUSH1 0x0 KECCAK256 PUSH1 0x1 ADD DUP2 DUP2 SLOAD DUP2 LT PUSH2 0xC53 JUMPI PUSH2 0xC52 PUSH2 0x2514 JUMP JUMPDEST JUMPDEST SWAP1 PUSH1 0x0 MSTORE PUSH1 0x20 PUSH1 0x0 KECCAK256 SWAP1 PUSH1 0x2 MUL ADD PUSH1 0x40 MLOAD DUP1 PUSH1 0x40 ADD PUSH1 0x40 MSTORE SWAP1 DUP2 PUSH1 0x0 DUP3 ADD PUSH1 0x0 SWAP1 SLOAD SWAP1 PUSH2 0x100 EXP SWAP1 DIV PUSH20 0xFFFFFFFFFFFFFFFFFFFFFFFFFFFFFFFFFFFFFFFF AND PUSH20 0xFFFFFFFFFFFFFFFFFFFFFFFFFFFFFFFFFFFFFFFF AND PUSH20 0xFFFFFFFFFFFFFFFFFFFFFFFFFFFFFFFFFFFFFFFF AND DUP2 MSTORE PUSH1 0x20 ADD PUSH1 0x1 DUP3 ADD SLOAD DUP2 MSTORE POP POP DUP4 DUP4 DUP2 MLOAD DUP2 LT PUSH2 0xCDF JUMPI PUSH2 0xCDE PUSH2 0x2514 JUMP JUMPDEST JUMPDEST PUSH1 0x20 MUL PUSH1 0x20 ADD ADD DUP2 SWAP1 MSTORE POP DUP2 DUP1 PUSH2 0xCF5 SWAP1 PUSH2 0x246D JUMP JUMPDEST SWAP3 POP POP JUMPDEST DUP1 DUP1 PUSH2 0xD04 SWAP1 PUSH2 0x246D JUMP JUMPDEST SWAP2 POP POP PUSH2 0xAF9 JUMP JUMPDEST POP DUP2 SWAP3 POP POP POP PUSH2 0xD6F JUMP JUMPDEST PUSH1 0x0 PUSH8 0xFFFFFFFFFFFFFFFF DUP2 GT ISZERO PUSH2 0xD32 JUMPI PUSH2 0xD31 PUSH2 0x2543 JUMP JUMPDEST JUMPDEST PUSH1 0x40 MLOAD SWAP1 DUP1 DUP3 MSTORE DUP1 PUSH1 0x20 MUL PUSH1 0x20 ADD DUP3 ADD PUSH1 0x40 MSTORE DUP1 ISZERO PUSH2 0xD6B JUMPI DUP2 PUSH1 0x20 ADD JUMPDEST PUSH2 0xD58 PUSH2 0x1AB4 JUMP JUMPDEST DUP2 MSTORE PUSH1 0x20 ADD SWAP1 PUSH1 0x1 SWAP1 SUB SWAP1 DUP2 PUSH2 0xD50 JUMPI SWAP1 POP JUMPDEST POP SWAP1 POP JUMPDEST SWAP2 SWAP1 POP JUMP JUMPDEST PUSH1 0x3 PUSH1 0x0 SWAP1 SLOAD SWAP1 PUSH2 0x100 EXP SWAP1 DIV PUSH20 0xFFFFFFFFFFFFFFFFFFFFFFFFFFFFFFFFFFFFFFFF AND DUP2 JUMP JUMPDEST PUSH2 0xDA2 PUSH2 0x122B JUMP JUMPDEST PUSH2 0xDAC PUSH1 0x0 PUSH2 0x12A9 JUMP JUMPDEST JUMP JUMPDEST PUSH1 0x0 PUSH1 0x1 DUP1 SLOAD SWAP1 PUSH2 0x100 EXP SWAP1 DIV PUSH20 0xFFFFFFFFFFFFFFFFFFFFFFFFFFFFFFFFFFFFFFFF AND SWAP1 POP SWAP1 JUMP JUMPDEST PUSH1 0x5 SLOAD DUP2 JUMP JUMPDEST PUSH1 0x7 PUSH1 0x20 MSTORE DUP1 PUSH1 0x0 MSTORE PUSH1 0x40 PUSH1 0x0 KECCAK256 PUSH1 0x0 SWAP2 POP SWAP1 POP DUP1 PUSH1 0x0 ADD SLOAD SWAP1 DUP1 PUSH1 0x2 ADD SLOAD SWAP1 DUP1 PUSH1 0x3 ADD SLOAD SWAP1 POP DUP4 JUMP JUMPDEST PUSH1 0x8 PUSH1 0x20 MSTORE DUP1 PUSH1 0x0 MSTORE PUSH1 0x40 PUSH1 0x0 KECCAK256 PUSH1 0x0 SWAP2 POP SLOAD SWAP1 PUSH2 0x100 EXP SWAP1 DIV PUSH20 0xFFFFFFFFFFFFFFFFFFFFFFFFFFFFFFFFFFFFFFFF AND DUP2 JUMP JUMPDEST PUSH2 0xE41 PUSH2 0x108D JUMP JUMPDEST PUSH2 0xE49 PUSH2 0x136C JUMP JUMPDEST PUSH2 0xE53 CALLER DUP3 PUSH2 0x13B6 JUMP JUMPDEST PUSH2 0xE5B PUSH2 0x119B JUMP JUMPDEST POP JUMP JUMPDEST PUSH2 0xE66 PUSH2 0x122B JUMP JUMPDEST DUP1 PUSH1 0x5 DUP2 SWAP1 SSTORE POP POP JUMP JUMPDEST PUSH1 0x2 PUSH1 0x0 SWAP1 SLOAD SWAP1 PUSH2 0x100 EXP SWAP1 DIV PUSH20 0xFFFFFFFFFFFFFFFFFFFFFFFFFFFFFFFFFFFFFFFF AND DUP2 JUMP JUMPDEST PUSH2 0xE9E PUSH2 0x122B JUMP JUMPDEST PUSH1 0x0 PUSH20 0xFFFFFFFFFFFFFFFFFFFFFFFFFFFFFFFFFFFFFFFF AND DUP2 PUSH20 0xFFFFFFFFFFFFFFFFFFFFFFFFFFFFFFFFFFFFFFFF AND EQ ISZERO PUSH2 0xF0E JUMPI PUSH1 0x40 MLOAD PUSH32 0x8C379A000000000000000000000000000000000000000000000000000000000 DUP2 MSTORE PUSH1 0x4 ADD PUSH2 0xF05 SWAP1 PUSH2 0x208E JUMP JUMPDEST PUSH1 0x40 MLOAD DUP1 SWAP2 SUB SWAP1 REVERT JUMPDEST PUSH2 0xF17 DUP2 PUSH2 0x12A9 JUMP JUMPDEST POP JUMP JUMPDEST PUSH1 0x0 DUP1 PUSH1 0x7 PUSH1 0x0 DUP5 PUSH20 0xFFFFFFFFFFFFFFFFFFFFFFFFFFFFFFFFFFFFFFFF AND PUSH20 0xFFFFFFFFFFFFFFFFFFFFFFFFFFFFFFFFFFFFFFFF AND DUP2 MSTORE PUSH1 0x20 ADD SWAP1 DUP2 MSTORE PUSH1 0x20 ADD PUSH1 0x0 KECCAK256 PUSH1 0x3 ADD SLOAD PUSH2 0xF69 DUP5 PUSH2 0x10DD JUMP JUMPDEST PUSH2 0xF73 SWAP2 SWAP1 PUSH2 0x226B JUMP JUMPDEST SWAP1 POP DUP1 SWAP2 POP POP SWAP2 SWAP1 POP JUMP JUMPDEST PUSH2 0xF86 PUSH2 0x122B JUMP JUMPDEST PUSH2 0xF8E PUSH2 0x17F6 JUMP JUMPDEST PUSH1 0x0 PUSH1 0x2 PUSH1 0x0 SWAP1 SLOAD SWAP1 PUSH2 0x100 EXP SWAP1 DIV PUSH20 0xFFFFFFFFFFFFFFFFFFFFFFFFFFFFFFFFFFFFFFFF AND PUSH20 0xFFFFFFFFFFFFFFFFFFFFFFFFFFFFFFFFFFFFFFFF AND PUSH4 0x70A08231 ADDRESS PUSH1 0x40 MLOAD DUP3 PUSH4 0xFFFFFFFF AND PUSH1 0xE0 SHL DUP2 MSTORE PUSH1 0x4 ADD PUSH2 0xFEB SWAP2 SWAP1 PUSH2 0x1F3E JUMP JUMPDEST PUSH1 0x20 PUSH1 0x40 MLOAD DUP1 DUP4 SUB DUP2 DUP7 DUP1 EXTCODESIZE ISZERO DUP1 ISZERO PUSH2 0x1003 JUMPI PUSH1 0x0 DUP1 REVERT JUMPDEST POP GAS STATICCALL ISZERO DUP1 ISZERO PUSH2 0x1017 JUMPI RETURNDATASIZE PUSH1 0x0 DUP1 RETURNDATACOPY RETURNDATASIZE PUSH1 0x0 REVERT JUMPDEST POP POP POP POP PUSH1 0x40 MLOAD RETURNDATASIZE PUSH1 0x1F NOT PUSH1 0x1F DUP3 ADD AND DUP3 ADD DUP1 PUSH1 0x40 MSTORE POP DUP2 ADD SWAP1 PUSH2 0x103B SWAP2 SWAP1 PUSH2 0x1C01 JUMP JUMPDEST SWAP1 POP PUSH2 0x108A CALLER DUP3 PUSH1 0x2 PUSH1 0x0 SWAP1 SLOAD SWAP1 PUSH2 0x100 EXP SWAP1 DIV PUSH20 0xFFFFFFFFFFFFFFFFFFFFFFFFFFFFFFFFFFFFFFFF AND PUSH20 0xFFFFFFFFFFFFFFFFFFFFFFFFFFFFFFFFFFFFFFFF AND PUSH2 0x11A5 SWAP1 SWAP3 SWAP2 SWAP1 PUSH4 0xFFFFFFFF AND JUMP JUMPDEST POP JUMP JUMPDEST PUSH1 0x2 PUSH1 0x0 SLOAD EQ ISZERO PUSH2 0x10D3 JUMPI PUSH1 0x40 MLOAD PUSH32 0x8C379A000000000000000000000000000000000000000000000000000000000 DUP2 MSTORE PUSH1 0x4 ADD PUSH2 0x10CA SWAP1 PUSH2 0x218E JUMP JUMPDEST PUSH1 0x40 MLOAD DUP1 SWAP2 SUB SWAP1 REVERT JUMPDEST PUSH1 0x2 PUSH1 0x0 DUP2 SWAP1 SSTORE POP JUMP JUMPDEST PUSH1 0x0 PUSH2 0xE10 PUSH1 0x5 SLOAD PUSH1 0x7 PUSH1 0x0 DUP6 PUSH20 0xFFFFFFFFFFFFFFFFFFFFFFFFFFFFFFFFFFFFFFFF AND PUSH20 0xFFFFFFFFFFFFFFFFFFFFFFFFFFFFFFFFFFFFFFFF AND DUP2 MSTORE PUSH1 0x20 ADD SWAP1 DUP2 MSTORE PUSH1 0x20 ADD PUSH1 0x0 KECCAK256 PUSH1 0x0 ADD SLOAD PUSH1 0x7 PUSH1 0x0 DUP7 PUSH20 0xFFFFFFFFFFFFFFFFFFFFFFFFFFFFFFFFFFFFFFFF AND PUSH20 0xFFFFFFFFFFFFFFFFFFFFFFFFFFFFFFFFFFFFFFFF AND DUP2 MSTORE PUSH1 0x20 ADD SWAP1 DUP2 MSTORE PUSH1 0x20 ADD PUSH1 0x0 KECCAK256 PUSH1 0x2 ADD SLOAD TIMESTAMP PUSH2 0x1176 SWAP2 SWAP1 PUSH2 0x234C JUMP JUMPDEST PUSH2 0x1180 SWAP2 SWAP1 PUSH2 0x22F2 JUMP JUMPDEST PUSH2 0x118A SWAP2 SWAP1 PUSH2 0x22F2 JUMP JUMPDEST PUSH2 0x1194 SWAP2 SWAP1 PUSH2 0x22C1 JUMP JUMPDEST SWAP1 POP SWAP2 SWAP1 POP JUMP JUMPDEST PUSH1 0x1 PUSH1 0x0 DUP2 SWAP1 SSTORE POP JUMP JUMPDEST PUSH2 0x1226 DUP4 PUSH4 0xA9059CBB PUSH1 0xE0 SHL DUP5 DUP5 PUSH1 0x40 MLOAD PUSH1 0x24 ADD PUSH2 0x11C4 SWAP3 SWAP2 SWAP1 PUSH2 0x1F90 JUMP JUMPDEST PUSH1 0x40 MLOAD PUSH1 0x20 DUP2 DUP4 SUB SUB DUP2 MSTORE SWAP1 PUSH1 0x40 MSTORE SWAP1 PUSH28 0xFFFFFFFFFFFFFFFFFFFFFFFFFFFFFFFFFFFFFFFFFFFFFFFFFFFFFFFF NOT AND PUSH1 0x20 DUP3 ADD DUP1 MLOAD PUSH28 0xFFFFFFFFFFFFFFFFFFFFFFFFFFFFFFFFFFFFFFFFFFFFFFFFFFFFFFFF DUP4 DUP2 DUP4 AND OR DUP4 MSTORE POP POP POP POP PUSH2 0x183F JUMP JUMPDEST POP POP POP JUMP JUMPDEST PUSH2 0x1233 PUSH2 0x1906 JUMP JUMPDEST PUSH20 0xFFFFFFFFFFFFFFFFFFFFFFFFFFFFFFFFFFFFFFFF AND PUSH2 0x1251 PUSH2 0xDAE JUMP JUMPDEST PUSH20 0xFFFFFFFFFFFFFFFFFFFFFFFFFFFFFFFFFFFFFFFF AND EQ PUSH2 0x12A7 JUMPI PUSH1 0x40 MLOAD PUSH32 0x8C379A000000000000000000000000000000000000000000000000000000000 DUP2 MSTORE PUSH1 0x4 ADD PUSH2 0x129E SWAP1 PUSH2 0x210E JUMP JUMPDEST PUSH1 0x40 MLOAD DUP1 SWAP2 SUB SWAP1 REVERT JUMPDEST JUMP JUMPDEST PUSH1 0x0 PUSH1 0x1 DUP1 SLOAD SWAP1 PUSH2 0x100 EXP SWAP1 DIV PUSH20 0xFFFFFFFFFFFFFFFFFFFFFFFFFFFFFFFFFFFFFFFF AND SWAP1 POP DUP2 PUSH1 0x1 DUP1 PUSH2 0x100 EXP DUP2 SLOAD DUP2 PUSH20 0xFFFFFFFFFFFFFFFFFFFFFFFFFFFFFFFFFFFFFFFF MUL NOT AND SWAP1 DUP4 PUSH20 0xFFFFFFFFFFFFFFFFFFFFFFFFFFFFFFFFFFFFFFFF AND MUL OR SWAP1 SSTORE POP DUP2 PUSH20 0xFFFFFFFFFFFFFFFFFFFFFFFFFFFFFFFFFFFFFFFF AND DUP2 PUSH20 0xFFFFFFFFFFFFFFFFFFFFFFFFFFFFFFFFFFFFFFFF AND PUSH32 0x8BE0079C531659141344CD1FD0A4F28419497F9722A3DAAFE3B4186F6B6457E0 PUSH1 0x40 MLOAD PUSH1 0x40 MLOAD DUP1 SWAP2 SUB SWAP1 LOG3 POP POP JUMP JUMPDEST PUSH2 0x1374 PUSH2 0x9F7 JUMP JUMPDEST ISZERO PUSH2 0x13B4 JUMPI PUSH1 0x40 MLOAD PUSH32 0x8C379A000000000000000000000000000000000000000000000000000000000 DUP2 MSTORE PUSH1 0x4 ADD PUSH2 0x13AB SWAP1 PUSH2 0x20EE JUMP JUMPDEST PUSH1 0x40 MLOAD DUP1 SWAP2 SUB SWAP1 REVERT JUMPDEST JUMP JUMPDEST DUP2 PUSH20 0xFFFFFFFFFFFFFFFFFFFFFFFFFFFFFFFFFFFFFFFF AND PUSH1 0x3 PUSH1 0x0 SWAP1 SLOAD SWAP1 PUSH2 0x100 EXP SWAP1 DIV PUSH20 0xFFFFFFFFFFFFFFFFFFFFFFFFFFFFFFFFFFFFFFFF AND PUSH20 0xFFFFFFFFFFFFFFFFFFFFFFFFFFFFFFFFFFFFFFFF AND PUSH4 0x6352211E DUP4 PUSH1 0x40 MLOAD DUP3 PUSH4 0xFFFFFFFF AND PUSH1 0xE0 SHL DUP2 MSTORE PUSH1 0x4 ADD PUSH2 0x1428 SWAP2 SWAP1 PUSH2 0x21AE JUMP JUMPDEST PUSH1 0x20 PUSH1 0x40 MLOAD DUP1 DUP4 SUB DUP2 DUP7 DUP1 EXTCODESIZE ISZERO DUP1 ISZERO PUSH2 0x1440 JUMPI PUSH1 0x0 DUP1 REVERT JUMPDEST POP GAS STATICCALL ISZERO DUP1 ISZERO PUSH2 0x1454 JUMPI RETURNDATASIZE PUSH1 0x0 DUP1 RETURNDATACOPY RETURNDATASIZE PUSH1 0x0 REVERT JUMPDEST POP POP POP POP PUSH1 0x40 MLOAD RETURNDATASIZE PUSH1 0x1F NOT PUSH1 0x1F DUP3 ADD AND DUP3 ADD DUP1 PUSH1 0x40 MSTORE POP DUP2 ADD SWAP1 PUSH2 0x1478 SWAP2 SWAP1 PUSH2 0x1B7A JUMP JUMPDEST PUSH20 0xFFFFFFFFFFFFFFFFFFFFFFFFFFFFFFFFFFFFFFFF AND EQ PUSH2 0x14CE JUMPI PUSH1 0x40 MLOAD PUSH32 0x8C379A000000000000000000000000000000000000000000000000000000000 DUP2 MSTORE PUSH1 0x4 ADD PUSH2 0x14C5 SWAP1 PUSH2 0x204E JUMP JUMPDEST PUSH1 0x40 MLOAD DUP1 SWAP2 SUB SWAP1 REVERT JUMPDEST PUSH1 0x0 PUSH1 0x7 PUSH1 0x0 DUP5 PUSH20 0xFFFFFFFFFFFFFFFFFFFFFFFFFFFFFFFFFFFFFFFF AND PUSH20 0xFFFFFFFFFFFFFFFFFFFFFFFFFFFFFFFFFFFFFFFF AND DUP2 MSTORE PUSH1 0x20 ADD SWAP1 DUP2 MSTORE PUSH1 0x20 ADD PUSH1 0x0 KECCAK256 PUSH1 0x0 ADD SLOAD GT ISZERO PUSH2 0x1581 JUMPI PUSH1 0x0 PUSH2 0x1524 DUP4 PUSH2 0x10DD JUMP JUMPDEST SWAP1 POP DUP1 PUSH1 0x7 PUSH1 0x0 DUP6 PUSH20 0xFFFFFFFFFFFFFFFFFFFFFFFFFFFFFFFFFFFFFFFF AND PUSH20 0xFFFFFFFFFFFFFFFFFFFFFFFFFFFFFFFFFFFFFFFF AND DUP2 MSTORE PUSH1 0x20 ADD SWAP1 DUP2 MSTORE PUSH1 0x20 ADD PUSH1 0x0 KECCAK256 PUSH1 0x3 ADD PUSH1 0x0 DUP3 DUP3 SLOAD PUSH2 0x1578 SWAP2 SWAP1 PUSH2 0x226B JUMP JUMPDEST SWAP3 POP POP DUP2 SWAP1 SSTORE POP POP JUMPDEST PUSH1 0x3 PUSH1 0x0 SWAP1 SLOAD SWAP1 PUSH2 0x100 EXP SWAP1 DIV PUSH20 0xFFFFFFFFFFFFFFFFFFFFFFFFFFFFFFFFFFFFFFFF AND PUSH20 0xFFFFFFFFFFFFFFFFFFFFFFFFFFFFFFFFFFFFFFFF AND PUSH4 0x23B872DD DUP4 ADDRESS DUP5 PUSH1 0x40 MLOAD DUP5 PUSH4 0xFFFFFFFF AND PUSH1 0xE0 SHL DUP2 MSTORE PUSH1 0x4 ADD PUSH2 0x15E0 SWAP4 SWAP3 SWAP2 SWAP1 PUSH2 0x1F59 JUMP JUMPDEST PUSH1 0x0 PUSH1 0x40 MLOAD DUP1 DUP4 SUB DUP2 PUSH1 0x0 DUP8 DUP1 EXTCODESIZE ISZERO DUP1 ISZERO PUSH2 0x15FA JUMPI PUSH1 0x0 DUP1 REVERT JUMPDEST POP GAS CALL ISZERO DUP1 ISZERO PUSH2 0x160E JUMPI RETURNDATASIZE PUSH1 0x0 DUP1 RETURNDATACOPY RETURNDATASIZE PUSH1 0x0 REVERT JUMPDEST POP POP POP POP PUSH1 0x0 PUSH1 0x40 MLOAD DUP1 PUSH1 0x40 ADD PUSH1 0x40 MSTORE DUP1 DUP5 PUSH20 0xFFFFFFFFFFFFFFFFFFFFFFFFFFFFFFFFFFFFFFFF AND DUP2 MSTORE PUSH1 0x20 ADD DUP4 DUP2 MSTORE POP SWAP1 POP PUSH1 0x7 PUSH1 0x0 DUP5 PUSH20 0xFFFFFFFFFFFFFFFFFFFFFFFFFFFFFFFFFFFFFFFF AND PUSH20 0xFFFFFFFFFFFFFFFFFFFFFFFFFFFFFFFFFFFFFFFF AND DUP2 MSTORE PUSH1 0x20 ADD SWAP1 DUP2 MSTORE PUSH1 0x20 ADD PUSH1 0x0 KECCAK256 PUSH1 0x1 ADD DUP2 SWAP1 DUP1 PUSH1 0x1 DUP2 SLOAD ADD DUP1 DUP3 SSTORE DUP1 SWAP2 POP POP PUSH1 0x1 SWAP1 SUB SWAP1 PUSH1 0x0 MSTORE PUSH1 0x20 PUSH1 0x0 KECCAK256 SWAP1 PUSH1 0x2 MUL ADD PUSH1 0x0 SWAP1 SWAP2 SWAP1 SWAP2 SWAP1 SWAP2 POP PUSH1 0x0 DUP3 ADD MLOAD DUP2 PUSH1 0x0 ADD PUSH1 0x0 PUSH2 0x100 EXP DUP2 SLOAD DUP2 PUSH20 0xFFFFFFFFFFFFFFFFFFFFFFFFFFFFFFFFFFFFFFFF MUL NOT AND SWAP1 DUP4 PUSH20 0xFFFFFFFFFFFFFFFFFFFFFFFFFFFFFFFFFFFFFFFF AND MUL OR SWAP1 SSTORE POP PUSH1 0x20 DUP3 ADD MLOAD DUP2 PUSH1 0x1 ADD SSTORE POP POP PUSH1 0x7 PUSH1 0x0 DUP5 PUSH20 0xFFFFFFFFFFFFFFFFFFFFFFFFFFFFFFFFFFFFFFFF AND PUSH20 0xFFFFFFFFFFFFFFFFFFFFFFFFFFFFFFFFFFFFFFFF AND DUP2 MSTORE PUSH1 0x20 ADD SWAP1 DUP2 MSTORE PUSH1 0x20 ADD PUSH1 0x0 KECCAK256 PUSH1 0x0 ADD PUSH1 0x0 DUP2 SLOAD DUP1 SWAP3 SWAP2 SWAP1 PUSH2 0x1753 SWAP1 PUSH2 0x246D JUMP JUMPDEST SWAP2 SWAP1 POP SSTORE POP DUP3 PUSH1 0x8 PUSH1 0x0 DUP5 DUP2 MSTORE PUSH1 0x20 ADD SWAP1 DUP2 MSTORE PUSH1 0x20 ADD PUSH1 0x0 KECCAK256 PUSH1 0x0 PUSH2 0x100 EXP DUP2 SLOAD DUP2 PUSH20 0xFFFFFFFFFFFFFFFFFFFFFFFFFFFFFFFFFFFFFFFF MUL NOT AND SWAP1 DUP4 PUSH20 0xFFFFFFFFFFFFFFFFFFFFFFFFFFFFFFFFFFFFFFFF AND MUL OR SWAP1 SSTORE POP TIMESTAMP PUSH1 0x7 PUSH1 0x0 DUP6 PUSH20 0xFFFFFFFFFFFFFFFFFFFFFFFFFFFFFFFFFFFFFFFF AND PUSH20 0xFFFFFFFFFFFFFFFFFFFFFFFFFFFFFFFFFFFFFFFF AND DUP2 MSTORE PUSH1 0x20 ADD SWAP1 DUP2 MSTORE PUSH1 0x20 ADD PUSH1 0x0 KECCAK256 PUSH1 0x2 ADD DUP2 SWAP1 SSTORE POP POP POP POP JUMP JUMPDEST PUSH2 0x17FE PUSH2 0x9F7 JUMP JUMPDEST PUSH2 0x183D JUMPI PUSH1 0x40 MLOAD PUSH32 0x8C379A000000000000000000000000000000000000000000000000000000000 DUP2 MSTORE PUSH1 0x4 ADD PUSH2 0x1834 SWAP1 PUSH2 0x206E JUMP JUMPDEST PUSH1 0x40 MLOAD DUP1 SWAP2 SUB SWAP1 REVERT JUMPDEST JUMP JUMPDEST PUSH1 0x0 PUSH2 0x18A1 DUP3 PUSH1 0x40 MLOAD DUP1 PUSH1 0x40 ADD PUSH1 0x40 MSTORE DUP1 PUSH1 0x20 DUP2 MSTORE PUSH1 0x20 ADD PUSH32 0x5361666545524332303A206C6F772D6C6576656C2063616C6C206661696C6564 DUP2 MSTORE POP DUP6 PUSH20 0xFFFFFFFFFFFFFFFFFFFFFFFFFFFFFFFFFFFFFFFF AND PUSH2 0x190E SWAP1 SWAP3 SWAP2 SWAP1 PUSH4 0xFFFFFFFF AND JUMP JUMPDEST SWAP1 POP PUSH1 0x0 DUP2 MLOAD GT ISZERO PUSH2 0x1901 JUMPI DUP1 DUP1 PUSH1 0x20 ADD SWAP1 MLOAD DUP2 ADD SWAP1 PUSH2 0x18C1 SWAP2 SWAP1 PUSH2 0x1BA7 JUMP JUMPDEST PUSH2 0x1900 JUMPI PUSH1 0x40 MLOAD PUSH32 0x8C379A000000000000000000000000000000000000000000000000000000000 DUP2 MSTORE PUSH1 0x4 ADD PUSH2 0x18F7 SWAP1 PUSH2 0x216E JUMP JUMPDEST PUSH1 0x40 MLOAD DUP1 SWAP2 SUB SWAP1 REVERT JUMPDEST JUMPDEST POP POP POP JUMP JUMPDEST PUSH1 0x0 CALLER SWAP1 POP SWAP1 JUMP JUMPDEST PUSH1 0x60 PUSH2 0x191D DUP5 DUP5 PUSH1 0x0 DUP6 PUSH2 0x1926 JUMP JUMPDEST SWAP1 POP SWAP4 SWAP3 POP POP POP JUMP JUMPDEST PUSH1 0x60 DUP3 SELFBALANCE LT ISZERO PUSH2 0x196B JUMPI PUSH1 0x40 MLOAD PUSH32 0x8C379A000000000000000000000000000000000000000000000000000000000 DUP2 MSTORE PUSH1 0x4 ADD PUSH2 0x1962 SWAP1 PUSH2 0x20CE JUMP JUMPDEST PUSH1 0x40 MLOAD DUP1 SWAP2 SUB SWAP1 REVERT JUMPDEST PUSH2 0x1974 DUP6 PUSH2 0x1A3A JUMP JUMPDEST PUSH2 0x19B3 JUMPI PUSH1 0x40 MLOAD PUSH32 0x8C379A000000000000000000000000000000000000000000000000000000000 DUP2 MSTORE PUSH1 0x4 ADD PUSH2 0x19AA SWAP1 PUSH2 0x214E JUMP JUMPDEST PUSH1 0x40 MLOAD DUP1 SWAP2 SUB SWAP1 REVERT JUMPDEST PUSH1 0x0 DUP1 DUP7 PUSH20 0xFFFFFFFFFFFFFFFFFFFFFFFFFFFFFFFFFFFFFFFF AND DUP6 DUP8 PUSH1 0x40 MLOAD PUSH2 0x19DC SWAP2 SWAP1 PUSH2 0x1F27 JUMP JUMPDEST PUSH1 0x0 PUSH1 0x40 MLOAD DUP1 DUP4 SUB DUP2 DUP6 DUP8 GAS CALL SWAP3 POP POP POP RETURNDATASIZE DUP1 PUSH1 0x0 DUP2 EQ PUSH2 0x1A19 JUMPI PUSH1 0x40 MLOAD SWAP2 POP PUSH1 0x1F NOT PUSH1 0x3F RETURNDATASIZE ADD AND DUP3 ADD PUSH1 0x40 MSTORE RETURNDATASIZE DUP3 MSTORE RETURNDATASIZE PUSH1 0x0 PUSH1 0x20 DUP5 ADD RETURNDATACOPY PUSH2 0x1A1E JUMP JUMPDEST PUSH1 0x60 SWAP2 POP JUMPDEST POP SWAP2 POP SWAP2 POP PUSH2 0x1A2E DUP3 DUP3 DUP7 PUSH2 0x1A4D JUMP JUMPDEST SWAP3 POP POP POP SWAP5 SWAP4 POP POP POP POP JUMP JUMPDEST PUSH1 0x0 DUP1 DUP3 EXTCODESIZE SWAP1 POP PUSH1 0x0 DUP2 GT SWAP2 POP POP SWAP2 SWAP1 POP JUMP JUMPDEST PUSH1 0x60 DUP4 ISZERO PUSH2 0x1A5D JUMPI DUP3 SWAP1 POP PUSH2 0x1AAD JUMP JUMPDEST PUSH1 0x0 DUP4 MLOAD GT ISZERO PUSH2 0x1A70 JUMPI DUP3 MLOAD DUP1 DUP5 PUSH1 0x20 ADD REVERT JUMPDEST DUP2 PUSH1 0x40 MLOAD PUSH32 0x8C379A000000000000000000000000000000000000000000000000000000000 DUP2 MSTORE PUSH1 0x4 ADD PUSH2 0x1AA4 SWAP2 SWAP1 PUSH2 0x202C JUMP JUMPDEST PUSH1 0x40 MLOAD DUP1 SWAP2 SUB SWAP1 REVERT JUMPDEST SWAP4 SWAP3 POP POP POP JUMP JUMPDEST PUSH1 0x40 MLOAD DUP1 PUSH1 0x40 ADD PUSH1 0x40 MSTORE DUP1 PUSH1 0x0 PUSH20 0xFFFFFFFFFFFFFFFFFFFFFFFFFFFFFFFFFFFFFFFF AND DUP2 MSTORE PUSH1 0x20 ADD PUSH1 0x0 DUP2 MSTORE POP SWAP1 JUMP JUMPDEST PUSH1 0x0 DUP2 CALLDATALOAD SWAP1 POP PUSH2 0x1AF3 DUP2 PUSH2 0x27BD JUMP JUMPDEST SWAP3 SWAP2 POP POP JUMP JUMPDEST PUSH1 0x0 DUP2 MLOAD SWAP1 POP PUSH2 0x1B08 DUP2 PUSH2 0x27BD JUMP JUMPDEST SWAP3 SWAP2 POP POP JUMP JUMPDEST PUSH1 0x0 DUP2 MLOAD SWAP1 POP PUSH2 0x1B1D DUP2 PUSH2 0x27D4 JUMP JUMPDEST SWAP3 SWAP2 POP POP JUMP JUMPDEST PUSH1 0x0 DUP2 CALLDATALOAD SWAP1 POP PUSH2 0x1B32 DUP2 PUSH2 0x27EB JUMP JUMPDEST SWAP3 SWAP2 POP POP JUMP JUMPDEST PUSH1 0x0 DUP2 MLOAD SWAP1 POP PUSH2 0x1B47 DUP2 PUSH2 0x27EB JUMP JUMPDEST SWAP3 SWAP2 POP POP JUMP JUMPDEST PUSH1 0x0 PUSH1 0x20 DUP3 DUP5 SUB SLT ISZERO PUSH2 0x1B63 JUMPI PUSH2 0x1B62 PUSH2 0x2572 JUMP JUMPDEST JUMPDEST PUSH1 0x0 PUSH2 0x1B71 DUP5 DUP3 DUP6 ADD PUSH2 0x1AE4 JUMP JUMPDEST SWAP2 POP POP SWAP3 SWAP2 POP POP JUMP JUMPDEST PUSH1 0x0 PUSH1 0x20 DUP3 DUP5 SUB SLT ISZERO PUSH2 0x1B90 JUMPI PUSH2 0x1B8F PUSH2 0x2572 JUMP JUMPDEST JUMPDEST PUSH1 0x0 PUSH2 0x1B9E DUP5 DUP3 DUP6 ADD PUSH2 0x1AF9 JUMP JUMPDEST SWAP2 POP POP SWAP3 SWAP2 POP POP JUMP JUMPDEST PUSH1 0x0 PUSH1 0x20 DUP3 DUP5 SUB SLT ISZERO PUSH2 0x1BBD JUMPI PUSH2 0x1BBC PUSH2 0x2572 JUMP JUMPDEST JUMPDEST PUSH1 0x0 PUSH2 0x1BCB DUP5 DUP3 DUP6 ADD PUSH2 0x1B0E JUMP JUMPDEST SWAP2 POP POP SWAP3 SWAP2 POP POP JUMP JUMPDEST PUSH1 0x0 PUSH1 0x20 DUP3 DUP5 SUB SLT ISZERO PUSH2 0x1BEA JUMPI PUSH2 0x1BE9 PUSH2 0x2572 JUMP JUMPDEST JUMPDEST PUSH1 0x0 PUSH2 0x1BF8 DUP5 DUP3 DUP6 ADD PUSH2 0x1B23 JUMP JUMPDEST SWAP2 POP POP SWAP3 SWAP2 POP POP JUMP JUMPDEST PUSH1 0x0 PUSH1 0x20 DUP3 DUP5 SUB SLT ISZERO PUSH2 0x1C17 JUMPI PUSH2 0x1C16 PUSH2 0x2572 JUMP JUMPDEST JUMPDEST PUSH1 0x0 PUSH2 0x1C25 DUP5 DUP3 DUP6 ADD PUSH2 0x1B38 JUMP JUMPDEST SWAP2 POP POP SWAP3 SWAP2 POP POP JUMP JUMPDEST PUSH1 0x0 PUSH2 0x1C3A DUP4 DUP4 PUSH2 0x1EDA JUMP JUMPDEST PUSH1 0x40 DUP4 ADD SWAP1 POP SWAP3 SWAP2 POP POP JUMP JUMPDEST PUSH2 0x1C4F DUP2 PUSH2 0x2380 JUMP JUMPDEST DUP3 MSTORE POP POP JUMP JUMPDEST PUSH2 0x1C5E DUP2 PUSH2 0x2380 JUMP JUMPDEST DUP3 MSTORE POP POP JUMP JUMPDEST PUSH1 0x0 PUSH2 0x1C6F DUP3 PUSH2 0x2210 JUMP JUMPDEST PUSH2 0x1C79 DUP2 DUP6 PUSH2 0x223E JUMP JUMPDEST SWAP4 POP PUSH2 0x1C84 DUP4 PUSH2 0x2200 JUMP JUMPDEST DUP1 PUSH1 0x0 JUMPDEST DUP4 DUP2 LT ISZERO PUSH2 0x1CB5 JUMPI DUP2 MLOAD PUSH2 0x1C9C DUP9 DUP3 PUSH2 0x1C2E JUMP JUMPDEST SWAP8 POP PUSH2 0x1CA7 DUP4 PUSH2 0x2231 JUMP JUMPDEST SWAP3 POP POP PUSH1 0x1 DUP2 ADD SWAP1 POP PUSH2 0x1C88 JUMP JUMPDEST POP DUP6 SWAP4 POP POP POP POP SWAP3 SWAP2 POP POP JUMP JUMPDEST PUSH2 0x1CCB DUP2 PUSH2 0x2392 JUMP JUMPDEST DUP3 MSTORE POP POP JUMP JUMPDEST PUSH1 0x0 PUSH2 0x1CDC DUP3 PUSH2 0x221B JUMP JUMPDEST PUSH2 0x1CE6 DUP2 DUP6 PUSH2 0x224F JUMP JUMPDEST SWAP4 POP PUSH2 0x1CF6 DUP2 DUP6 PUSH1 0x20 DUP7 ADD PUSH2 0x2410 JUMP JUMPDEST DUP1 DUP5 ADD SWAP2 POP POP SWAP3 SWAP2 POP POP JUMP JUMPDEST PUSH2 0x1D0B DUP2 PUSH2 0x23C8 JUMP JUMPDEST DUP3 MSTORE POP POP JUMP JUMPDEST PUSH2 0x1D1A DUP2 PUSH2 0x23DA JUMP JUMPDEST DUP3 MSTORE POP POP JUMP JUMPDEST PUSH1 0x0 PUSH2 0x1D2B DUP3 PUSH2 0x2226 JUMP JUMPDEST PUSH2 0x1D35 DUP2 DUP6 PUSH2 0x225A JUMP JUMPDEST SWAP4 POP PUSH2 0x1D45 DUP2 DUP6 PUSH1 0x20 DUP7 ADD PUSH2 0x2410 JUMP JUMPDEST PUSH2 0x1D4E DUP2 PUSH2 0x2577 JUMP JUMPDEST DUP5 ADD SWAP2 POP POP SWAP3 SWAP2 POP POP JUMP JUMPDEST PUSH1 0x0 PUSH2 0x1D66 PUSH1 0x19 DUP4 PUSH2 0x225A JUMP JUMPDEST SWAP2 POP PUSH2 0x1D71 DUP3 PUSH2 0x2588 JUMP JUMPDEST PUSH1 0x20 DUP3 ADD SWAP1 POP SWAP2 SWAP1 POP JUMP JUMPDEST PUSH1 0x0 PUSH2 0x1D89 PUSH1 0x14 DUP4 PUSH2 0x225A JUMP JUMPDEST SWAP2 POP PUSH2 0x1D94 DUP3 PUSH2 0x25B1 JUMP JUMPDEST PUSH1 0x20 DUP3 ADD SWAP1 POP SWAP2 SWAP1 POP JUMP JUMPDEST PUSH1 0x0 PUSH2 0x1DAC PUSH1 0x26 DUP4 PUSH2 0x225A JUMP JUMPDEST SWAP2 POP PUSH2 0x1DB7 DUP3 PUSH2 0x25DA JUMP JUMPDEST PUSH1 0x40 DUP3 ADD SWAP1 POP SWAP2 SWAP1 POP JUMP JUMPDEST PUSH1 0x0 PUSH2 0x1DCF PUSH1 0x19 DUP4 PUSH2 0x225A JUMP JUMPDEST SWAP2 POP PUSH2 0x1DDA DUP3 PUSH2 0x2629 JUMP JUMPDEST PUSH1 0x20 DUP3 ADD SWAP1 POP SWAP2 SWAP1 POP JUMP JUMPDEST PUSH1 0x0 PUSH2 0x1DF2 PUSH1 0x26 DUP4 PUSH2 0x225A JUMP JUMPDEST SWAP2 POP PUSH2 0x1DFD DUP3 PUSH2 0x2652 JUMP JUMPDEST PUSH1 0x40 DUP3 ADD SWAP1 POP SWAP2 SWAP1 POP JUMP JUMPDEST PUSH1 0x0 PUSH2 0x1E15 PUSH1 0x10 DUP4 PUSH2 0x225A JUMP JUMPDEST SWAP2 POP PUSH2 0x1E20 DUP3 PUSH2 0x26A1 JUMP JUMPDEST PUSH1 0x20 DUP3 ADD SWAP1 POP SWAP2 SWAP1 POP JUMP JUMPDEST PUSH1 0x0 PUSH2 0x1E38 PUSH1 0x20 DUP4 PUSH2 0x225A JUMP JUMPDEST SWAP2 POP PUSH2 0x1E43 DUP3 PUSH2 0x26CA JUMP JUMPDEST PUSH1 0x20 DUP3 ADD SWAP1 POP SWAP2 SWAP1 POP JUMP JUMPDEST PUSH1 0x0 PUSH2 0x1E5B PUSH1 0x1C DUP4 PUSH2 0x225A JUMP JUMPDEST SWAP2 POP PUSH2 0x1E66 DUP3 PUSH2 0x26F3 JUMP JUMPDEST PUSH1 0x20 DUP3 ADD SWAP1 POP SWAP2 SWAP1 POP JUMP JUMPDEST PUSH1 0x0 PUSH2 0x1E7E PUSH1 0x1D DUP4 PUSH2 0x225A JUMP JUMPDEST SWAP2 POP PUSH2 0x1E89 DUP3 PUSH2 0x271C JUMP JUMPDEST PUSH1 0x20 DUP3 ADD SWAP1 POP SWAP2 SWAP1 POP JUMP JUMPDEST PUSH1 0x0 PUSH2 0x1EA1 PUSH1 0x2A DUP4 PUSH2 0x225A JUMP JUMPDEST SWAP2 POP PUSH2 0x1EAC DUP3 PUSH2 0x2745 JUMP JUMPDEST PUSH1 0x40 DUP3 ADD SWAP1 POP SWAP2 SWAP1 POP JUMP JUMPDEST PUSH1 0x0 PUSH2 0x1EC4 PUSH1 0x1F DUP4 PUSH2 0x225A JUMP JUMPDEST SWAP2 POP PUSH2 0x1ECF DUP3 PUSH2 0x2794 JUMP JUMPDEST PUSH1 0x20 DUP3 ADD SWAP1 POP SWAP2 SWAP1 POP JUMP JUMPDEST PUSH1 0x40 DUP3 ADD PUSH1 0x0 DUP3 ADD MLOAD PUSH2 0x1EF0 PUSH1 0x0 DUP6 ADD DUP3 PUSH2 0x1C46 JUMP JUMPDEST POP PUSH1 0x20 DUP3 ADD MLOAD PUSH2 0x1F03 PUSH1 0x20 DUP6 ADD DUP3 PUSH2 0x1F09 JUMP JUMPDEST POP POP POP POP JUMP JUMPDEST PUSH2 0x1F12 DUP2 PUSH2 0x23BE JUMP JUMPDEST DUP3 MSTORE POP POP JUMP JUMPDEST PUSH2 0x1F21 DUP2 PUSH2 0x23BE JUMP JUMPDEST DUP3 MSTORE POP POP JUMP JUMPDEST PUSH1 0x0 PUSH2 0x1F33 DUP3 DUP5 PUSH2 0x1CD1 JUMP JUMPDEST SWAP2 POP DUP2 SWAP1 POP SWAP3 SWAP2 POP POP JUMP JUMPDEST PUSH1 0x0 PUSH1 0x20 DUP3 ADD SWAP1 POP PUSH2 0x1F53 PUSH1 0x0 DUP4 ADD DUP5 PUSH2 0x1C55 JUMP JUMPDEST SWAP3 SWAP2 POP POP JUMP JUMPDEST PUSH1 0x0 PUSH1 0x60 DUP3 ADD SWAP1 POP PUSH2 0x1F6E PUSH1 0x0 DUP4 ADD DUP7 PUSH2 0x1C55 JUMP JUMPDEST PUSH2 0x1F7B PUSH1 0x20 DUP4 ADD DUP6 PUSH2 0x1C55 JUMP JUMPDEST PUSH2 0x1F88 PUSH1 0x40 DUP4 ADD DUP5 PUSH2 0x1F18 JUMP JUMPDEST SWAP5 SWAP4 POP POP POP POP JUMP JUMPDEST PUSH1 0x0 PUSH1 0x40 DUP3 ADD SWAP1 POP PUSH2 0x1FA5 PUSH1 0x0 DUP4 ADD DUP6 PUSH2 0x1C55 JUMP JUMPDEST PUSH2 0x1FB2 PUSH1 0x20 DUP4 ADD DUP5 PUSH2 0x1F18 JUMP JUMPDEST SWAP4 SWAP3 POP POP POP JUMP JUMPDEST PUSH1 0x0 PUSH1 0x20 DUP3 ADD SWAP1 POP DUP2 DUP2 SUB PUSH1 0x0 DUP4 ADD MSTORE PUSH2 0x1FD3 DUP2 DUP5 PUSH2 0x1C64 JUMP JUMPDEST SWAP1 POP SWAP3 SWAP2 POP POP JUMP JUMPDEST PUSH1 0x0 PUSH1 0x20 DUP3 ADD SWAP1 POP PUSH2 0x1FF0 PUSH1 0x0 DUP4 ADD DUP5 PUSH2 0x1CC2 JUMP JUMPDEST SWAP3 SWAP2 POP POP JUMP JUMPDEST PUSH1 0x0 PUSH1 0x20 DUP3 ADD SWAP1 POP PUSH2 0x200B PUSH1 0x0 DUP4 ADD DUP5 PUSH2 0x1D02 JUMP JUMPDEST SWAP3 SWAP2 POP POP JUMP JUMPDEST PUSH1 0x0 PUSH1 0x20 DUP3 ADD SWAP1 POP PUSH2 0x2026 PUSH1 0x0 DUP4 ADD DUP5 PUSH2 0x1D11 JUMP JUMPDEST SWAP3 SWAP2 POP POP JUMP JUMPDEST PUSH1 0x0 PUSH1 0x20 DUP3 ADD SWAP1 POP DUP2 DUP2 SUB PUSH1 0x0 DUP4 ADD MSTORE PUSH2 0x2046 DUP2 DUP5 PUSH2 0x1D20 JUMP JUMPDEST SWAP1 POP SWAP3 SWAP2 POP POP JUMP JUMPDEST PUSH1 0x0 PUSH1 0x20 DUP3 ADD SWAP1 POP DUP2 DUP2 SUB PUSH1 0x0 DUP4 ADD MSTORE PUSH2 0x2067 DUP2 PUSH2 0x1D59 JUMP JUMPDEST SWAP1 POP SWAP2 SWAP1 POP JUMP JUMPDEST PUSH1 0x0 PUSH1 0x20 DUP3 ADD SWAP1 POP DUP2 DUP2 SUB PUSH1 0x0 DUP4 ADD MSTORE PUSH2 0x2087 DUP2 PUSH2 0x1D7C JUMP JUMPDEST SWAP1 POP SWAP2 SWAP1 POP JUMP JUMPDEST PUSH1 0x0 PUSH1 0x20 DUP3 ADD SWAP1 POP DUP2 DUP2 SUB PUSH1 0x0 DUP4 ADD MSTORE PUSH2 0x20A7 DUP2 PUSH2 0x1D9F JUMP JUMPDEST SWAP1 POP SWAP2 SWAP1 POP JUMP JUMPDEST PUSH1 0x0 PUSH1 0x20 DUP3 ADD SWAP1 POP DUP2 DUP2 SUB PUSH1 0x0 DUP4 ADD MSTORE PUSH2 0x20C7 DUP2 PUSH2 0x1DC2 JUMP JUMPDEST SWAP1 POP SWAP2 SWAP1 POP JUMP JUMPDEST PUSH1 0x0 PUSH1 0x20 DUP3 ADD SWAP1 POP DUP2 DUP2 SUB PUSH1 0x0 DUP4 ADD MSTORE PUSH2 0x20E7 DUP2 PUSH2 0x1DE5 JUMP JUMPDEST SWAP1 POP SWAP2 SWAP1 POP JUMP JUMPDEST PUSH1 0x0 PUSH1 0x20 DUP3 ADD SWAP1 POP DUP2 DUP2 SUB PUSH1 0x0 DUP4 ADD MSTORE PUSH2 0x2107 DUP2 PUSH2 0x1E08 JUMP JUMPDEST SWAP1 POP SWAP2 SWAP1 POP JUMP JUMPDEST PUSH1 0x0 PUSH1 0x20 DUP3 ADD SWAP1 POP DUP2 DUP2 SUB PUSH1 0x0 DUP4 ADD MSTORE PUSH2 0x2127 DUP2 PUSH2 0x1E2B JUMP JUMPDEST SWAP1 POP SWAP2 SWAP1 POP JUMP JUMPDEST PUSH1 0x0 PUSH1 0x20 DUP3 ADD SWAP1 POP DUP2 DUP2 SUB PUSH1 0x0 DUP4 ADD MSTORE PUSH2 0x2147 DUP2 PUSH2 0x1E4E JUMP JUMPDEST SWAP1 POP SWAP2 SWAP1 POP JUMP JUMPDEST PUSH1 0x0 PUSH1 0x20 DUP3 ADD SWAP1 POP DUP2 DUP2 SUB PUSH1 0x0 DUP4 ADD MSTORE PUSH2 0x2167 DUP2 PUSH2 0x1E71 JUMP JUMPDEST SWAP1 POP SWAP2 SWAP1 POP JUMP JUMPDEST PUSH1 0x0 PUSH1 0x20 DUP3 ADD SWAP1 POP DUP2 DUP2 SUB PUSH1 0x0 DUP4 ADD MSTORE PUSH2 0x2187 DUP2 PUSH2 0x1E94 JUMP JUMPDEST SWAP1 POP SWAP2 SWAP1 POP JUMP JUMPDEST PUSH1 0x0 PUSH1 0x20 DUP3 ADD SWAP1 POP DUP2 DUP2 SUB PUSH1 0x0 DUP4 ADD MSTORE PUSH2 0x21A7 DUP2 PUSH2 0x1EB7 JUMP JUMPDEST SWAP1 POP SWAP2 SWAP1 POP JUMP JUMPDEST PUSH1 0x0 PUSH1 0x20 DUP3 ADD SWAP1 POP PUSH2 0x21C3 PUSH1 0x0 DUP4 ADD DUP5 PUSH2 0x1F18 JUMP JUMPDEST SWAP3 SWAP2 POP POP JUMP JUMPDEST PUSH1 0x0 PUSH1 0x60 DUP3 ADD SWAP1 POP PUSH2 0x21DE PUSH1 0x0 DUP4 ADD DUP7 PUSH2 0x1F18 JUMP JUMPDEST PUSH2 0x21EB PUSH1 0x20 DUP4 ADD DUP6 PUSH2 0x1F18 JUMP JUMPDEST PUSH2 0x21F8 PUSH1 0x40 DUP4 ADD DUP5 PUSH2 0x1F18 JUMP JUMPDEST SWAP5 SWAP4 POP POP POP POP JUMP JUMPDEST PUSH1 0x0 DUP2 SWAP1 POP PUSH1 0x20 DUP3 ADD SWAP1 POP SWAP2 SWAP1 POP JUMP JUMPDEST PUSH1 0x0 DUP2 MLOAD SWAP1 POP SWAP2 SWAP1 POP JUMP JUMPDEST PUSH1 0x0 DUP2 MLOAD SWAP1 POP SWAP2 SWAP1 POP JUMP JUMPDEST PUSH1 0x0 DUP2 MLOAD SWAP1 POP SWAP2 SWAP1 POP JUMP JUMPDEST PUSH1 0x0 PUSH1 0x20 DUP3 ADD SWAP1 POP SWAP2 SWAP1 POP JUMP JUMPDEST PUSH1 0x0 DUP3 DUP3 MSTORE PUSH1 0x20 DUP3 ADD SWAP1 POP SWAP3 SWAP2 POP POP JUMP JUMPDEST PUSH1 0x0 DUP2 SWAP1 POP SWAP3 SWAP2 POP POP JUMP JUMPDEST PUSH1 0x0 DUP3 DUP3 MSTORE PUSH1 0x20 DUP3 ADD SWAP1 POP SWAP3 SWAP2 POP POP JUMP JUMPDEST PUSH1 0x0 PUSH2 0x2276 DUP3 PUSH2 0x23BE JUMP JUMPDEST SWAP2 POP PUSH2 0x2281 DUP4 PUSH2 0x23BE JUMP JUMPDEST SWAP3 POP DUP3 PUSH32 0xFFFFFFFFFFFFFFFFFFFFFFFFFFFFFFFFFFFFFFFFFFFFFFFFFFFFFFFFFFFFFFFF SUB DUP3 GT ISZERO PUSH2 0x22B6 JUMPI PUSH2 0x22B5 PUSH2 0x24B6 JUMP JUMPDEST JUMPDEST DUP3 DUP3 ADD SWAP1 POP SWAP3 SWAP2 POP POP JUMP JUMPDEST PUSH1 0x0 PUSH2 0x22CC DUP3 PUSH2 0x23BE JUMP JUMPDEST SWAP2 POP PUSH2 0x22D7 DUP4 PUSH2 0x23BE JUMP JUMPDEST SWAP3 POP DUP3 PUSH2 0x22E7 JUMPI PUSH2 0x22E6 PUSH2 0x24E5 JUMP JUMPDEST JUMPDEST DUP3 DUP3 DIV SWAP1 POP SWAP3 SWAP2 POP POP JUMP JUMPDEST PUSH1 0x0 PUSH2 0x22FD DUP3 PUSH2 0x23BE JUMP JUMPDEST SWAP2 POP PUSH2 0x2308 DUP4 PUSH2 0x23BE JUMP JUMPDEST SWAP3 POP DUP2 PUSH32 0xFFFFFFFFFFFFFFFFFFFFFFFFFFFFFFFFFFFFFFFFFFFFFFFFFFFFFFFFFFFFFFFF DIV DUP4 GT DUP3 ISZERO ISZERO AND ISZERO PUSH2 0x2341 JUMPI PUSH2 0x2340 PUSH2 0x24B6 JUMP JUMPDEST JUMPDEST DUP3 DUP3 MUL SWAP1 POP SWAP3 SWAP2 POP POP JUMP JUMPDEST PUSH1 0x0 PUSH2 0x2357 DUP3 PUSH2 0x23BE JUMP JUMPDEST SWAP2 POP PUSH2 0x2362 DUP4 PUSH2 0x23BE JUMP JUMPDEST SWAP3 POP DUP3 DUP3 LT ISZERO PUSH2 0x2375 JUMPI PUSH2 0x2374 PUSH2 0x24B6 JUMP JUMPDEST JUMPDEST DUP3 DUP3 SUB SWAP1 POP SWAP3 SWAP2 POP POP JUMP JUMPDEST PUSH1 0x0 PUSH2 0x238B DUP3 PUSH2 0x239E JUMP JUMPDEST SWAP1 POP SWAP2 SWAP1 POP JUMP JUMPDEST PUSH1 0x0 DUP2 ISZERO ISZERO SWAP1 POP SWAP2 SWAP1 POP JUMP JUMPDEST PUSH1 0x0 PUSH20 0xFFFFFFFFFFFFFFFFFFFFFFFFFFFFFFFFFFFFFFFF DUP3 AND SWAP1 POP SWAP2 SWAP1 POP JUMP JUMPDEST PUSH1 0x0 DUP2 SWAP1 POP SWAP2 SWAP1 POP JUMP JUMPDEST PUSH1 0x0 PUSH2 0x23D3 DUP3 PUSH2 0x23EC JUMP JUMPDEST SWAP1 POP SWAP2 SWAP1 POP JUMP JUMPDEST PUSH1 0x0 PUSH2 0x23E5 DUP3 PUSH2 0x23EC JUMP JUMPDEST SWAP1 POP SWAP2 SWAP1 POP JUMP JUMPDEST PUSH1 0x0 PUSH2 0x23F7 DUP3 PUSH2 0x23FE JUMP JUMPDEST SWAP1 POP SWAP2 SWAP1 POP JUMP JUMPDEST PUSH1 0x0 PUSH2 0x2409 DUP3 PUSH2 0x239E JUMP JUMPDEST SWAP1 POP SWAP2 SWAP1 POP JUMP JUMPDEST PUSH1 0x0 JUMPDEST DUP4 DUP2 LT ISZERO PUSH2 0x242E JUMPI DUP1 DUP3 ADD MLOAD DUP2 DUP5 ADD MSTORE PUSH1 0x20 DUP2 ADD SWAP1 POP PUSH2 0x2413 JUMP JUMPDEST DUP4 DUP2 GT ISZERO PUSH2 0x243D JUMPI PUSH1 0x0 DUP5 DUP5 ADD MSTORE JUMPDEST POP POP POP POP JUMP JUMPDEST PUSH1 0x0 PUSH2 0x244E DUP3 PUSH2 0x23BE JUMP JUMPDEST SWAP2 POP PUSH1 0x0 DUP3 EQ ISZERO PUSH2 0x2462 JUMPI PUSH2 0x2461 PUSH2 0x24B6 JUMP JUMPDEST JUMPDEST PUSH1 0x1 DUP3 SUB SWAP1 POP SWAP2 SWAP1 POP JUMP JUMPDEST PUSH1 0x0 PUSH2 0x2478 DUP3 PUSH2 0x23BE JUMP JUMPDEST SWAP2 POP PUSH32 0xFFFFFFFFFFFFFFFFFFFFFFFFFFFFFFFFFFFFFFFFFFFFFFFFFFFFFFFFFFFFFFFF DUP3 EQ ISZERO PUSH2 0x24AB JUMPI PUSH2 0x24AA PUSH2 0x24B6 JUMP JUMPDEST JUMPDEST PUSH1 0x1 DUP3 ADD SWAP1 POP SWAP2 SWAP1 POP JUMP JUMPDEST PUSH32 0x4E487B7100000000000000000000000000000000000000000000000000000000 PUSH1 0x0 MSTORE PUSH1 0x11 PUSH1 0x4 MSTORE PUSH1 0x24 PUSH1 0x0 REVERT JUMPDEST PUSH32 0x4E487B7100000000000000000000000000000000000000000000000000000000 PUSH1 0x0 MSTORE PUSH1 0x12 PUSH1 0x4 MSTORE PUSH1 0x24 PUSH1 0x0 REVERT JUMPDEST PUSH32 0x4E487B7100000000000000000000000000000000000000000000000000000000 PUSH1 0x0 MSTORE PUSH1 0x32 PUSH1 0x4 MSTORE PUSH1 0x24 PUSH1 0x0 REVERT JUMPDEST PUSH32 0x4E487B7100000000000000000000000000000000000000000000000000000000 PUSH1 0x0 MSTORE PUSH1 0x41 PUSH1 0x4 MSTORE PUSH1 0x24 PUSH1 0x0 REVERT JUMPDEST PUSH1 0x0 DUP1 REVERT JUMPDEST PUSH1 0x0 PUSH1 0x1F NOT PUSH1 0x1F DUP4 ADD AND SWAP1 POP SWAP2 SWAP1 POP JUMP JUMPDEST PUSH32 0x596F7520646F6E2774206F776E207468697320746F6B656E2100000000000000 PUSH1 0x0 DUP3 ADD MSTORE POP JUMP JUMPDEST PUSH32 0x5061757361626C653A206E6F7420706175736564000000000000000000000000 PUSH1 0x0 DUP3 ADD MSTORE POP JUMP JUMPDEST PUSH32 0x4F776E61626C653A206E6577206F776E657220697320746865207A65726F2061 PUSH1 0x0 DUP3 ADD MSTORE PUSH32 0x6464726573730000000000000000000000000000000000000000000000000000 PUSH1 0x20 DUP3 ADD MSTORE POP JUMP JUMPDEST PUSH32 0x596F752068617665206E6F20746F6B656E73207374616B656400000000000000 PUSH1 0x0 DUP3 ADD MSTORE POP JUMP JUMPDEST PUSH32 0x416464726573733A20696E73756666696369656E742062616C616E636520666F PUSH1 0x0 DUP3 ADD MSTORE PUSH32 0x722063616C6C0000000000000000000000000000000000000000000000000000 PUSH1 0x20 DUP3 ADD MSTORE POP JUMP JUMPDEST PUSH32 0x5061757361626C653A2070617573656400000000000000000000000000000000 PUSH1 0x0 DUP3 ADD MSTORE POP JUMP JUMPDEST PUSH32 0x4F776E61626C653A2063616C6C6572206973206E6F7420746865206F776E6572 PUSH1 0x0 DUP3 ADD MSTORE POP JUMP JUMPDEST PUSH32 0x596F752068617665206E6F207265776172647320746F20636C61696D00000000 PUSH1 0x0 DUP3 ADD MSTORE POP JUMP JUMPDEST PUSH32 0x416464726573733A2063616C6C20746F206E6F6E2D636F6E7472616374000000 PUSH1 0x0 DUP3 ADD MSTORE POP JUMP JUMPDEST PUSH32 0x5361666545524332303A204552433230206F7065726174696F6E20646964206E PUSH1 0x0 DUP3 ADD MSTORE PUSH32 0x6F74207375636365656400000000000000000000000000000000000000000000 PUSH1 0x20 DUP3 ADD MSTORE POP JUMP JUMPDEST PUSH32 0x5265656E7472616E637947756172643A207265656E7472616E742063616C6C00 PUSH1 0x0 DUP3 ADD MSTORE POP JUMP JUMPDEST PUSH2 0x27C6 DUP2 PUSH2 0x2380 JUMP JUMPDEST DUP2 EQ PUSH2 0x27D1 JUMPI PUSH1 0x0 DUP1 REVERT JUMPDEST POP JUMP JUMPDEST PUSH2 0x27DD DUP2 PUSH2 0x2392 JUMP JUMPDEST DUP2 EQ PUSH2 0x27E8 JUMPI PUSH1 0x0 DUP1 REVERT JUMPDEST POP JUMP JUMPDEST PUSH2 0x27F4 DUP2 PUSH2 0x23BE JUMP JUMPDEST DUP2 EQ PUSH2 0x27FF JUMPI PUSH1 0x0 DUP1 REVERT JUMPDEST POP JUMP INVALID LOG2 PUSH5 0x6970667358 0x22 SLT KECCAK256 SWAP1 NOT PUSH21 0x8E1CBE56BBAAC29383869F53765F24890BD3D12ACC DUP4 0xE6 0xCF 0x26 CALLDATACOPY 0xD5 SLT PUSH10 0x64736F6C634300080700 CALLER "
				},
				"gasEstimates": {
					"creation": {
						"codeDepositCost": "2059200",
						"executionCost": "infinite",
						"totalCost": "infinite"
					},
					"external": {
						"adminWithdrawRewards()": "infinite",
						"availableRewards(address)": "infinite",
						"claimRewards()": "infinite",
						"getStakedTokens(address)": "infinite",
						"nftCollection()": "2645",
						"owner()": "2658",
						"paused()": "2569",
						"renounceOwnership()": "30609",
						"rewardsPerHour()": "2452",
						"rewardsToken()": "2644",
						"setRewardsPerHour(uint256)": "24853",
						"stake(uint256)": "infinite",
						"stakerAddress(uint256)": "2906",
						"stakers(address)": "infinite",
						"transferOwnership(address)": "30957",
						"version()": "2497",
						"withdraw(uint256)": "infinite"
					},
					"internal": {
						"_stake(address,uint256)": "infinite",
						"calculateRewards(address)": "infinite"
					}
				},
				"methodIdentifiers": {
					"adminWithdrawRewards()": "f995441b",
					"availableRewards(address)": "f854a27f",
					"claimRewards()": "372500ab",
					"getStakedTokens(address)": "63c28db1",
					"nftCollection()": "6588103b",
					"owner()": "8da5cb5b",
					"paused()": "5c975abb",
					"renounceOwnership()": "715018a6",
					"rewardsPerHour()": "8e7271fa",
					"rewardsToken()": "d1af0c7d",
					"setRewardsPerHour(uint256)": "b5a5e509",
					"stake(uint256)": "a694fc3a",
					"stakerAddress(uint256)": "94067045",
					"stakers(address)": "9168ae72",
					"transferOwnership(address)": "f2fde38b",
					"version()": "54fd4d50",
					"withdraw(uint256)": "2e1a7d4d"
				}
			},
			"storageLayout": {
				"storage": [
					{
						"astId": 569,
						"contract": "source/Farm.sol:Farm",
						"label": "_status",
						"offset": 0,
						"slot": "0",
						"type": "t_uint256"
					},
					{
						"astId": 471,
						"contract": "source/Farm.sol:Farm",
						"label": "_paused",
						"offset": 0,
						"slot": "1",
						"type": "t_bool"
					},
					{
						"astId": 1022,
						"contract": "source/Farm.sol:Farm",
						"label": "_owner",
						"offset": 1,
						"slot": "1",
						"type": "t_address"
					},
					{
						"astId": 1159,
						"contract": "source/Farm.sol:Farm",
						"label": "rewardsToken",
						"offset": 0,
						"slot": "2",
						"type": "t_contract(IERC20)438"
					},
					{
						"astId": 1162,
						"contract": "source/Farm.sol:Farm",
						"label": "nftCollection",
						"offset": 0,
						"slot": "3",
						"type": "t_contract(IERC721)122"
					},
					{
						"astId": 1164,
						"contract": "source/Farm.sol:Farm",
						"label": "nftCollectionAddress",
						"offset": 0,
						"slot": "4",
						"type": "t_address"
					},
					{
						"astId": 1167,
						"contract": "source/Farm.sol:Farm",
						"label": "rewardsPerHour",
						"offset": 0,
						"slot": "5",
						"type": "t_uint256"
					},
					{
						"astId": 1170,
						"contract": "source/Farm.sol:Farm",
						"label": "version",
						"offset": 0,
						"slot": "6",
						"type": "t_uint256"
					},
					{
						"astId": 1175,
						"contract": "source/Farm.sol:Farm",
						"label": "stakers",
						"offset": 0,
						"slot": "7",
						"type": "t_mapping(t_address,t_struct(Staker)1156_storage)"
					},
					{
						"astId": 1179,
						"contract": "source/Farm.sol:Farm",
						"label": "stakerAddress",
						"offset": 0,
						"slot": "8",
						"type": "t_mapping(t_uint256,t_address)"
					}
				],
				"types": {
					"t_address": {
						"encoding": "inplace",
						"label": "address",
						"numberOfBytes": "20"
					},
					"t_array(t_struct(StakedToken)1145_storage)dyn_storage": {
						"base": "t_struct(StakedToken)1145_storage",
						"encoding": "dynamic_array",
						"label": "struct Farm.StakedToken[]",
						"numberOfBytes": "32"
					},
					"t_bool": {
						"encoding": "inplace",
						"label": "bool",
						"numberOfBytes": "1"
					},
					"t_contract(IERC20)438": {
						"encoding": "inplace",
						"label": "contract IERC20",
						"numberOfBytes": "20"
					},
					"t_contract(IERC721)122": {
						"encoding": "inplace",
						"label": "contract IERC721",
						"numberOfBytes": "20"
					},
					"t_mapping(t_address,t_struct(Staker)1156_storage)": {
						"encoding": "mapping",
						"key": "t_address",
						"label": "mapping(address => struct Farm.Staker)",
						"numberOfBytes": "32",
						"value": "t_struct(Staker)1156_storage"
					},
					"t_mapping(t_uint256,t_address)": {
						"encoding": "mapping",
						"key": "t_uint256",
						"label": "mapping(uint256 => address)",
						"numberOfBytes": "32",
						"value": "t_address"
					},
					"t_struct(StakedToken)1145_storage": {
						"encoding": "inplace",
						"label": "struct Farm.StakedToken",
						"members": [
							{
								"astId": 1142,
								"contract": "source/Farm.sol:Farm",
								"label": "staker",
								"offset": 0,
								"slot": "0",
								"type": "t_address"
							},
							{
								"astId": 1144,
								"contract": "source/Farm.sol:Farm",
								"label": "tokenId",
								"offset": 0,
								"slot": "1",
								"type": "t_uint256"
							}
						],
						"numberOfBytes": "64"
					},
					"t_struct(Staker)1156_storage": {
						"encoding": "inplace",
						"label": "struct Farm.Staker",
						"members": [
							{
								"astId": 1147,
								"contract": "source/Farm.sol:Farm",
								"label": "amountStaked",
								"offset": 0,
								"slot": "0",
								"type": "t_uint256"
							},
							{
								"astId": 1151,
								"contract": "source/Farm.sol:Farm",
								"label": "stakedTokens",
								"offset": 0,
								"slot": "1",
								"type": "t_array(t_struct(StakedToken)1145_storage)dyn_storage"
							},
							{
								"astId": 1153,
								"contract": "source/Farm.sol:Farm",
								"label": "timeOfLastUpdate",
								"offset": 0,
								"slot": "2",
								"type": "t_uint256"
							},
							{
								"astId": 1155,
								"contract": "source/Farm.sol:Farm",
								"label": "unclaimedRewards",
								"offset": 0,
								"slot": "3",
								"type": "t_uint256"
							}
						],
						"numberOfBytes": "128"
					},
					"t_uint256": {
						"encoding": "inplace",
						"label": "uint256",
						"numberOfBytes": "32"
					}
				}
			},
			"userdoc": {
				"kind": "user",
				"methods": {},
				"version": 1
			}
		}
	}
}