{
	"source/Farm.sol": {
		"Farm": {
			"abi": [
				{
					"inputs": [
						{
							"internalType": "address",
							"name": "_nftCollection",
							"type": "address"
						},
						{
							"internalType": "contract IERC20",
							"name": "_rewardsToken",
							"type": "address"
						},
						{
							"internalType": "uint256",
							"name": "_rewardsPerHour",
							"type": "uint256"
						},
						{
							"internalType": "bool",
							"name": "_lockEnabled",
							"type": "bool"
						},
						{
							"internalType": "uint256",
							"name": "_lockTime",
							"type": "uint256"
						}
					],
					"stateMutability": "nonpayable",
					"type": "constructor"
				},
				{
					"anonymous": false,
					"inputs": [
						{
							"indexed": true,
							"internalType": "address",
							"name": "previousOwner",
							"type": "address"
						},
						{
							"indexed": true,
							"internalType": "address",
							"name": "newOwner",
							"type": "address"
						}
					],
					"name": "OwnershipTransferred",
					"type": "event"
				},
				{
					"anonymous": false,
					"inputs": [
						{
							"indexed": false,
							"internalType": "address",
							"name": "account",
							"type": "address"
						}
					],
					"name": "Paused",
					"type": "event"
				},
				{
					"anonymous": false,
					"inputs": [
						{
							"indexed": false,
							"internalType": "address",
							"name": "account",
							"type": "address"
						}
					],
					"name": "Unpaused",
					"type": "event"
				},
				{
					"inputs": [],
					"name": "adminWithdrawRewards",
					"outputs": [],
					"stateMutability": "nonpayable",
					"type": "function"
				},
				{
					"inputs": [
						{
							"internalType": "address",
							"name": "_staker",
							"type": "address"
						}
					],
					"name": "availableRewards",
					"outputs": [
						{
							"internalType": "uint256",
							"name": "",
							"type": "uint256"
						}
					],
					"stateMutability": "view",
					"type": "function"
				},
				{
					"inputs": [],
					"name": "claimRewards",
					"outputs": [],
					"stateMutability": "nonpayable",
					"type": "function"
				},
				{
					"inputs": [
						{
							"internalType": "address",
							"name": "_user",
							"type": "address"
						}
					],
					"name": "getStakedTokens",
					"outputs": [
						{
							"components": [
								{
									"internalType": "address",
									"name": "staker",
									"type": "address"
								},
								{
									"internalType": "uint256",
									"name": "tokenId",
									"type": "uint256"
								}
							],
							"internalType": "struct Farm.StakedToken_V1[]",
							"name": "",
							"type": "tuple[]"
						}
					],
					"stateMutability": "view",
					"type": "function"
				},
				{
					"inputs": [
						{
							"internalType": "address",
							"name": "_user",
							"type": "address"
						}
					],
					"name": "getStakedTokens_V3",
					"outputs": [
						{
							"components": [
								{
									"internalType": "address",
									"name": "staker",
									"type": "address"
								},
								{
									"internalType": "uint256",
									"name": "tokenId",
									"type": "uint256"
								},
								{
									"internalType": "uint256",
									"name": "stackeUtx",
									"type": "uint256"
								}
							],
							"internalType": "struct Farm.StakedToken[]",
							"name": "",
							"type": "tuple[]"
						}
					],
					"stateMutability": "view",
					"type": "function"
				},
				{
					"inputs": [],
					"name": "lockEnabled",
					"outputs": [
						{
							"internalType": "bool",
							"name": "",
							"type": "bool"
						}
					],
					"stateMutability": "view",
					"type": "function"
				},
				{
					"inputs": [],
					"name": "lockTime",
					"outputs": [
						{
							"internalType": "uint256",
							"name": "",
							"type": "uint256"
						}
					],
					"stateMutability": "view",
					"type": "function"
				},
				{
					"inputs": [],
					"name": "nftCollection",
					"outputs": [
						{
							"internalType": "contract IERC721",
							"name": "",
							"type": "address"
						}
					],
					"stateMutability": "view",
					"type": "function"
				},
				{
					"inputs": [],
					"name": "owner",
					"outputs": [
						{
							"internalType": "address",
							"name": "",
							"type": "address"
						}
					],
					"stateMutability": "view",
					"type": "function"
				},
				{
					"inputs": [],
					"name": "paused",
					"outputs": [
						{
							"internalType": "bool",
							"name": "",
							"type": "bool"
						}
					],
					"stateMutability": "view",
					"type": "function"
				},
				{
					"inputs": [],
					"name": "renounceOwnership",
					"outputs": [],
					"stateMutability": "nonpayable",
					"type": "function"
				},
				{
					"inputs": [],
					"name": "rewardsPerHour",
					"outputs": [
						{
							"internalType": "uint256",
							"name": "",
							"type": "uint256"
						}
					],
					"stateMutability": "view",
					"type": "function"
				},
				{
					"inputs": [],
					"name": "rewardsToken",
					"outputs": [
						{
							"internalType": "contract IERC20",
							"name": "",
							"type": "address"
						}
					],
					"stateMutability": "view",
					"type": "function"
				},
				{
					"inputs": [
						{
							"internalType": "bool",
							"name": "_lockEnabled",
							"type": "bool"
						}
					],
					"name": "setLockEnabled",
					"outputs": [],
					"stateMutability": "nonpayable",
					"type": "function"
				},
				{
					"inputs": [
						{
							"internalType": "uint256",
							"name": "_lockTime",
							"type": "uint256"
						}
					],
					"name": "setLockTime",
					"outputs": [],
					"stateMutability": "nonpayable",
					"type": "function"
				},
				{
					"inputs": [
						{
							"internalType": "uint256",
							"name": "_rewardsPerHour",
							"type": "uint256"
						}
					],
					"name": "setRewardsPerHour",
					"outputs": [],
					"stateMutability": "nonpayable",
					"type": "function"
				},
				{
					"inputs": [
						{
							"internalType": "uint256",
							"name": "_tokenId",
							"type": "uint256"
						}
					],
					"name": "stake",
					"outputs": [],
					"stateMutability": "nonpayable",
					"type": "function"
				},
				{
					"inputs": [
						{
							"internalType": "uint256",
							"name": "",
							"type": "uint256"
						}
					],
					"name": "stakerAddress",
					"outputs": [
						{
							"internalType": "address",
							"name": "",
							"type": "address"
						}
					],
					"stateMutability": "view",
					"type": "function"
				},
				{
					"inputs": [
						{
							"internalType": "address",
							"name": "",
							"type": "address"
						}
					],
					"name": "stakers",
					"outputs": [
						{
							"internalType": "uint256",
							"name": "amountStaked",
							"type": "uint256"
						},
						{
							"internalType": "uint256",
							"name": "timeOfLastUpdate",
							"type": "uint256"
						},
						{
							"internalType": "uint256",
							"name": "unclaimedRewards",
							"type": "uint256"
						}
					],
					"stateMutability": "view",
					"type": "function"
				},
				{
					"inputs": [
						{
							"internalType": "uint256",
							"name": "",
							"type": "uint256"
						}
					],
					"name": "tokenStartStakeTime",
					"outputs": [
						{
							"internalType": "uint256",
							"name": "",
							"type": "uint256"
						}
					],
					"stateMutability": "view",
					"type": "function"
				},
				{
					"inputs": [
						{
							"internalType": "address",
							"name": "newOwner",
							"type": "address"
						}
					],
					"name": "transferOwnership",
					"outputs": [],
					"stateMutability": "nonpayable",
					"type": "function"
				},
				{
					"inputs": [],
					"name": "version",
					"outputs": [
						{
							"internalType": "uint256",
							"name": "",
							"type": "uint256"
						}
					],
					"stateMutability": "view",
					"type": "function"
				},
				{
					"inputs": [
						{
							"internalType": "uint256",
							"name": "_tokenId",
							"type": "uint256"
						}
					],
					"name": "withdraw",
					"outputs": [],
					"stateMutability": "nonpayable",
					"type": "function"
				}
			],
			"devdoc": {
				"kind": "dev",
				"methods": {
					"owner()": {
						"details": "Returns the address of the current owner."
					},
					"paused()": {
						"details": "Returns true if the contract is paused, and false otherwise."
					},
					"renounceOwnership()": {
						"details": "Leaves the contract without owner. It will not be possible to call `onlyOwner` functions anymore. Can only be called by the current owner. NOTE: Renouncing ownership will leave the contract without an owner, thereby removing any functionality that is only available to the owner."
					},
					"transferOwnership(address)": {
						"details": "Transfers ownership of the contract to a new account (`newOwner`). Can only be called by the current owner."
					}
				},
				"version": 1
			},
			"evm": {
				"assembly": "    /* \"source/Farm.sol\":28878:35803  contract Farm is ReentrancyGuard, Pausable, Ownable {... */\n  mstore(0x40, 0x80)\n    /* \"source/Farm.sol\":29644:29650  100000 */\n  0x0186a0\n    /* \"source/Farm.sol\":29612:29650  uint256 public rewardsPerHour = 100000 */\n  0x05\n  sstore\n    /* \"source/Farm.sol\":29684:29685  3 */\n  0x03\n    /* \"source/Farm.sol\":29659:29685  uint256 public version = 3 */\n  0x06\n  sstore\n    /* \"source/Farm.sol\":29694:29725  bool public lockEnabled = false */\n  0x07\n  dup1\n  sload\n  not(0xff)\n  and\n  swap1\n  sstore\n  0x00\n    /* \"source/Farm.sol\":29743:29770  uint256 public lockTime = 0 */\n  0x08\n  sstore\n    /* \"source/Farm.sol\":30100:30584  constructor(... */\n  callvalue\n  dup1\n  iszero\n  tag_1\n  jumpi\n  0x00\n  dup1\n  revert\ntag_1:\n  pop\n  mload(0x40)\n  sub(codesize, bytecodeSize)\n  dup1\n  bytecodeSize\n  dup4\n  codecopy\n  dup2\n  add\n  0x40\n  dup2\n  swap1\n  mstore\n  tag_2\n  swap2\n  tag_3\n  jump\t// in\ntag_2:\n    /* \"source/Farm.sol\":17794:17795  1 */\n  0x01\n    /* \"source/Farm.sol\":17905:17912  _status */\n  0x00\n    /* \"source/Farm.sol\":17905:17927  _status = _NOT_ENTERED */\n  dup2\n  swap1\n  sstore\n    /* \"source/Farm.sol\":15323:15338  _paused = false */\n  dup1\n  sload\n  not(0xff)\n  and\n  swap1\n  sstore\n    /* \"source/Farm.sol\":27132:27164  _transferOwnership(_msgSender()) */\n  tag_11\n    /* \"source/Farm.sol\":14778:14788  msg.sender */\n  caller\n    /* \"source/Farm.sol\":27132:27150  _transferOwnership */\n  tag_14\n    /* \"source/Farm.sol\":27132:27164  _transferOwnership(_msgSender()) */\n  jump\t// in\ntag_11:\n    /* \"source/Farm.sol\":30313:30326  nftCollection */\n  0x03\n    /* \"source/Farm.sol\":30313:30352  nftCollection = IERC721(_nftCollection) */\n  dup1\n  sload\n  sub(shl(0xa0, 0x01), 0x01)\n  swap7\n  dup8\n  and\n  not(sub(shl(0xa0, 0x01), 0x01))\n  swap2\n  dup3\n  and\n  dup2\n  or\n  swap1\n  swap3\n  sstore\n    /* \"source/Farm.sol\":30363:30383  nftCollectionAddress */\n  0x04\n    /* \"source/Farm.sol\":30363:30400  nftCollectionAddress = _nftCollection */\n  dup1\n  sload\n  dup3\n  and\n  swap1\n  swap3\n  or\n  swap1\n  swap2\n  sstore\n    /* \"source/Farm.sol\":30411:30423  rewardsToken */\n  0x02\n    /* \"source/Farm.sol\":30411:30439  rewardsToken = _rewardsToken */\n  dup1\n  sload\n  swap6\n  swap1\n  swap7\n  and\n  swap5\n  and\n  swap4\n  swap1\n  swap4\n  or\n  swap1\n  swap4\n  sstore\n    /* \"source/Farm.sol\":30450:30464  rewardsPerHour */\n  0x05\n    /* \"source/Farm.sol\":30450:30482  rewardsPerHour = _rewardsPerHour */\n  sstore\n    /* \"source/Farm.sol\":30493:30501  lockTime */\n  0x08\n    /* \"source/Farm.sol\":30493:30513  lockTime = _lockTime */\n  sstore\n    /* \"source/Farm.sol\":30540:30551  lockEnabled */\n  0x07\n    /* \"source/Farm.sol\":30540:30566  lockEnabled = _lockEnabled */\n  dup1\n  sload\n  swap2\n  iszero\n  iszero\n  not(0xff)\n  swap1\n  swap3\n  and\n  swap2\n  swap1\n  swap2\n  or\n  swap1\n  sstore\n    /* \"source/Farm.sol\":28878:35803  contract Farm is ReentrancyGuard, Pausable, Ownable {... */\n  jump(tag_20)\n    /* \"source/Farm.sol\":28678:28869  function _transferOwnership(address newOwner) internal virtual {... */\ntag_14:\n    /* \"source/Farm.sol\":28771:28777  _owner */\n  0x01\n  dup1\n  sload\n  sub(shl(0xa0, 0x01), 0x01)\n    /* \"source/Farm.sol\":28788:28805  _owner = newOwner */\n  dup4\n  dup2\n  and\n    /* \"source/Farm.sol\":28771:28777  _owner */\n  0x0100\n    /* \"source/Farm.sol\":28788:28805  _owner = newOwner */\n  dup2\n  dup2\n  mul\n  not(sub(shl(0xa8, 0x01), 0x0100))\n  dup6\n  and\n  or\n  swap1\n  swap5\n  sstore\n    /* \"source/Farm.sol\":28821:28861  OwnershipTransferred(oldOwner, newOwner) */\n  mload(0x40)\n    /* \"source/Farm.sol\":28771:28777  _owner */\n  swap4\n  swap1\n  swap3\n  div\n  and\n  swap2\n  dup3\n  swap1\n    /* \"source/Farm.sol\":28821:28861  OwnershipTransferred(oldOwner, newOwner) */\n  0x8be0079c531659141344cd1fd0a4f28419497f9722a3daafe3b4186f6b6457e0\n  swap1\n    /* \"source/Farm.sol\":28752:28768  address oldOwner */\n  0x00\n  swap1\n    /* \"source/Farm.sol\":28821:28861  OwnershipTransferred(oldOwner, newOwner) */\n  log3\n    /* \"source/Farm.sol\":28741:28869  {... */\n  pop\n    /* \"source/Farm.sol\":28678:28869  function _transferOwnership(address newOwner) internal virtual {... */\n  pop\n  jump\t// out\n    /* \"#utility.yul\":14:145   */\ntag_19:\n  sub(shl(0xa0, 0x01), 0x01)\n    /* \"#utility.yul\":89:120   */\n  dup2\n  and\n    /* \"#utility.yul\":79:121   */\n  dup2\n  eq\n    /* \"#utility.yul\":69:139   */\n  tag_22\n  jumpi\n    /* \"#utility.yul\":135:136   */\n  0x00\n    /* \"#utility.yul\":132:133   */\n  dup1\n    /* \"#utility.yul\":125:137   */\n  revert\n    /* \"#utility.yul\":69:139   */\ntag_22:\n    /* \"#utility.yul\":14:145   */\n  pop\n  jump\t// out\n    /* \"#utility.yul\":150:835   */\ntag_3:\n    /* \"#utility.yul\":267:273   */\n  0x00\n    /* \"#utility.yul\":275:281   */\n  dup1\n    /* \"#utility.yul\":283:289   */\n  0x00\n    /* \"#utility.yul\":291:297   */\n  dup1\n    /* \"#utility.yul\":299:305   */\n  0x00\n    /* \"#utility.yul\":352:355   */\n  0xa0\n    /* \"#utility.yul\":340:349   */\n  dup7\n    /* \"#utility.yul\":331:338   */\n  dup9\n    /* \"#utility.yul\":327:350   */\n  sub\n    /* \"#utility.yul\":323:356   */\n  slt\n    /* \"#utility.yul\":320:373   */\n  iszero\n  tag_24\n  jumpi\n    /* \"#utility.yul\":369:370   */\n  0x00\n    /* \"#utility.yul\":366:367   */\n  dup1\n    /* \"#utility.yul\":359:371   */\n  revert\n    /* \"#utility.yul\":320:373   */\ntag_24:\n    /* \"#utility.yul\":401:410   */\n  dup6\n    /* \"#utility.yul\":395:411   */\n  mload\n    /* \"#utility.yul\":420:451   */\n  tag_25\n    /* \"#utility.yul\":445:450   */\n  dup2\n    /* \"#utility.yul\":420:451   */\n  tag_19\n  jump\t// in\ntag_25:\n    /* \"#utility.yul\":520:522   */\n  0x20\n    /* \"#utility.yul\":505:523   */\n  dup8\n  add\n    /* \"#utility.yul\":499:524   */\n  mload\n    /* \"#utility.yul\":470:475   */\n  swap1\n  swap6\n  pop\n    /* \"#utility.yul\":533:566   */\n  tag_26\n    /* \"#utility.yul\":499:524   */\n  dup2\n    /* \"#utility.yul\":533:566   */\n  tag_19\n  jump\t// in\ntag_26:\n    /* \"#utility.yul\":632:634   */\n  0x40\n    /* \"#utility.yul\":617:635   */\n  dup8\n  add\n    /* \"#utility.yul\":611:636   */\n  mload\n    /* \"#utility.yul\":681:683   */\n  0x60\n    /* \"#utility.yul\":666:684   */\n  dup9\n  add\n    /* \"#utility.yul\":660:685   */\n  mload\n    /* \"#utility.yul\":585:592   */\n  swap2\n  swap6\n  pop\n    /* \"#utility.yul\":611:636   */\n  swap4\n  pop\n    /* \"#utility.yul\":723:738   */\n  dup1\n  iszero\n    /* \"#utility.yul\":716:739   */\n  iszero\n    /* \"#utility.yul\":704:740   */\n  dup2\n  eq\n    /* \"#utility.yul\":694:758   */\n  tag_27\n  jumpi\n    /* \"#utility.yul\":754:755   */\n  0x00\n    /* \"#utility.yul\":751:752   */\n  dup1\n    /* \"#utility.yul\":744:756   */\n  revert\n    /* \"#utility.yul\":694:758   */\ntag_27:\n    /* \"#utility.yul\":777:784   */\n  dup1\n    /* \"#utility.yul\":767:784   */\n  swap3\n  pop\n  pop\n    /* \"#utility.yul\":824:827   */\n  0x80\n    /* \"#utility.yul\":813:822   */\n  dup7\n    /* \"#utility.yul\":809:828   */\n  add\n    /* \"#utility.yul\":803:829   */\n  mload\n    /* \"#utility.yul\":793:829   */\n  swap1\n  pop\n    /* \"#utility.yul\":150:835   */\n  swap3\n  swap6\n  pop\n  swap3\n  swap6\n  swap1\n  swap4\n  pop\n  jump\t// out\ntag_20:\n    /* \"source/Farm.sol\":28878:35803  contract Farm is ReentrancyGuard, Pausable, Ownable {... */\n  dataSize(sub_0)\n  dup1\n  dataOffset(sub_0)\n  0x00\n  codecopy\n  0x00\n  return\nstop\n\nsub_0: assembly {\n        /* \"source/Farm.sol\":28878:35803  contract Farm is ReentrancyGuard, Pausable, Ownable {... */\n      mstore(0x40, 0x80)\n      callvalue\n      dup1\n      iszero\n      tag_1\n      jumpi\n      0x00\n      dup1\n      revert\n    tag_1:\n      pop\n      jumpi(tag_2, lt(calldatasize, 0x04))\n      shr(0xe0, calldataload(0x00))\n      dup1\n      0x715018a6\n      gt\n      tag_26\n      jumpi\n      dup1\n      0xae04d45d\n      gt\n      tag_27\n      jumpi\n      dup1\n      0xf2fde38b\n      gt\n      tag_28\n      jumpi\n      dup1\n      0xf2fde38b\n      eq\n      tag_23\n      jumpi\n      dup1\n      0xf854a27f\n      eq\n      tag_24\n      jumpi\n      dup1\n      0xf995441b\n      eq\n      tag_25\n      jumpi\n      0x00\n      dup1\n      revert\n    tag_28:\n      dup1\n      0xae04d45d\n      eq\n      tag_20\n      jumpi\n      dup1\n      0xb5a5e509\n      eq\n      tag_21\n      jumpi\n      dup1\n      0xd1af0c7d\n      eq\n      tag_22\n      jumpi\n      0x00\n      dup1\n      revert\n    tag_27:\n      dup1\n      0x9168ae72\n      gt\n      tag_29\n      jumpi\n      dup1\n      0x9168ae72\n      eq\n      tag_17\n      jumpi\n      dup1\n      0x94067045\n      eq\n      tag_18\n      jumpi\n      dup1\n      0xa694fc3a\n      eq\n      tag_19\n      jumpi\n      0x00\n      dup1\n      revert\n    tag_29:\n      dup1\n      0x715018a6\n      eq\n      tag_14\n      jumpi\n      dup1\n      0x8da5cb5b\n      eq\n      tag_15\n      jumpi\n      dup1\n      0x8e7271fa\n      eq\n      tag_16\n      jumpi\n      0x00\n      dup1\n      revert\n    tag_26:\n      dup1\n      0x372500ab\n      gt\n      tag_30\n      jumpi\n      dup1\n      0x63c28db1\n      gt\n      tag_31\n      jumpi\n      dup1\n      0x63c28db1\n      eq\n      tag_11\n      jumpi\n      dup1\n      0x6588103b\n      eq\n      tag_12\n      jumpi\n      dup1\n      0x6aa4439f\n      eq\n      tag_13\n      jumpi\n      0x00\n      dup1\n      revert\n    tag_31:\n      dup1\n      0x372500ab\n      eq\n      tag_8\n      jumpi\n      dup1\n      0x54fd4d50\n      eq\n      tag_9\n      jumpi\n      dup1\n      0x5c975abb\n      eq\n      tag_10\n      jumpi\n      0x00\n      dup1\n      revert\n    tag_30:\n      dup1\n      0x114cd3c8\n      gt\n      tag_32\n      jumpi\n      dup1\n      0x114cd3c8\n      eq\n      tag_5\n      jumpi\n      dup1\n      0x2e1a7d4d\n      eq\n      tag_6\n      jumpi\n      dup1\n      0x3166b848\n      eq\n      tag_7\n      jumpi\n      0x00\n      dup1\n      revert\n    tag_32:\n      dup1\n      0x0c2517a8\n      eq\n      tag_3\n      jumpi\n      dup1\n      0x0d668087\n      eq\n      tag_4\n      jumpi\n    tag_2:\n      0x00\n      dup1\n      revert\n        /* \"source/Farm.sol\":34898:35581  function getStakedTokens_V3(address _user) public view returns (StakedToken[] memory) {... */\n    tag_3:\n      tag_33\n      tag_34\n      calldatasize\n      0x04\n      tag_35\n      jump\t// in\n    tag_34:\n      tag_36\n      jump\t// in\n    tag_33:\n      mload(0x40)\n      tag_37\n      swap2\n      swap1\n      tag_38\n      jump\t// in\n    tag_37:\n      mload(0x40)\n      dup1\n      swap2\n      sub\n      swap1\n      return\n        /* \"source/Farm.sol\":29743:29770  uint256 public lockTime = 0 */\n    tag_4:\n      tag_39\n      sload(0x08)\n      dup2\n      jump\n    tag_39:\n      mload(0x40)\n        /* \"#utility.yul\":1476:1501   */\n      swap1\n      dup2\n      mstore\n        /* \"#utility.yul\":1464:1466   */\n      0x20\n        /* \"#utility.yul\":1449:1467   */\n      add\n        /* \"source/Farm.sol\":29743:29770  uint256 public lockTime = 0 */\n      tag_37\n        /* \"#utility.yul\":1330:1507   */\n      jump\n        /* \"source/Farm.sol\":30027:30081  mapping(uint256 => uint256) public tokenStartStakeTime */\n    tag_5:\n      tag_39\n      tag_44\n      calldatasize\n      0x04\n      tag_45\n      jump\t// in\n    tag_44:\n      mstore(0x20, 0x0b)\n      0x00\n      swap1\n      dup2\n      mstore\n      0x40\n      swap1\n      keccak256\n      sload\n      dup2\n      jump\n        /* \"source/Farm.sol\":32230:33659  function withdraw(uint256 _tokenId) external nonReentrant {... */\n    tag_6:\n      tag_48\n      tag_49\n      calldatasize\n      0x04\n      tag_45\n      jump\t// in\n    tag_49:\n      tag_50\n      jump\t// in\n    tag_48:\n      stop\n        /* \"source/Farm.sol\":29694:29725  bool public lockEnabled = false */\n    tag_7:\n      sload(0x07)\n      tag_51\n      swap1\n      0xff\n      and\n      dup2\n      jump\n    tag_51:\n      mload(0x40)\n        /* \"#utility.yul\":1862:1876   */\n      swap1\n      iszero\n        /* \"#utility.yul\":1855:1877   */\n      iszero\n        /* \"#utility.yul\":1837:1878   */\n      dup2\n      mstore\n        /* \"#utility.yul\":1825:1827   */\n      0x20\n        /* \"#utility.yul\":1810:1828   */\n      add\n        /* \"source/Farm.sol\":29694:29725  bool public lockEnabled = false */\n      tag_37\n        /* \"#utility.yul\":1697:1884   */\n      jump\n        /* \"source/Farm.sol\":33975:34361  function claimRewards() external {... */\n    tag_8:\n      tag_48\n      tag_56\n      jump\t// in\n        /* \"source/Farm.sol\":29659:29685  uint256 public version = 3 */\n    tag_9:\n      tag_39\n      sload(0x06)\n      dup2\n      jump\n        /* \"source/Farm.sol\":15972:16058  function paused() public view virtual returns (bool) {... */\n    tag_10:\n        /* \"source/Farm.sol\":16043:16050  _paused */\n      and(0xff, sload(0x01))\n        /* \"source/Farm.sol\":15972:16058  function paused() public view virtual returns (bool) {... */\n      jump(tag_51)\n        /* \"source/Farm.sol\":34369:34892  function getStakedTokens(address _user) public view returns (StakedToken_V1[] memory) {... */\n    tag_11:\n      tag_63\n      tag_64\n      calldatasize\n      0x04\n      tag_35\n      jump\t// in\n    tag_64:\n      tag_65\n      jump\t// in\n    tag_63:\n      mload(0x40)\n      tag_37\n      swap2\n      swap1\n      tag_67\n      jump\t// in\n        /* \"source/Farm.sol\":29482:29510  IERC721 public nftCollection */\n    tag_12:\n      sload(0x03)\n      tag_68\n      swap1\n      0xffffffffffffffffffffffffffffffffffffffff\n      and\n      dup2\n      jump\n    tag_68:\n      mload(0x40)\n        /* \"#utility.yul\":2936:2978   */\n      0xffffffffffffffffffffffffffffffffffffffff\n        /* \"#utility.yul\":2924:2979   */\n      swap1\n      swap2\n      and\n        /* \"#utility.yul\":2906:2980   */\n      dup2\n      mstore\n        /* \"#utility.yul\":2894:2896   */\n      0x20\n        /* \"#utility.yul\":2879:2897   */\n      add\n        /* \"source/Farm.sol\":29482:29510  IERC721 public nftCollection */\n      tag_37\n        /* \"#utility.yul\":2745:2986   */\n      jump\n        /* \"source/Farm.sol\":30601:30708  function setLockEnabled(bool _lockEnabled) external onlyOwner {... */\n    tag_13:\n      tag_48\n      tag_73\n      calldatasize\n      0x04\n      tag_74\n      jump\t// in\n    tag_73:\n      tag_75\n      jump\t// in\n        /* \"source/Farm.sol\":28059:28162  function renounceOwnership() public virtual onlyOwner {... */\n    tag_14:\n      tag_48\n      tag_77\n      jump\t// in\n        /* \"source/Farm.sol\":27411:27498  function owner() public view virtual returns (address) {... */\n    tag_15:\n        /* \"source/Farm.sol\":27484:27490  _owner */\n      sload(0x01)\n      0x0100\n      swap1\n      div\n      0xffffffffffffffffffffffffffffffffffffffff\n      and\n        /* \"source/Farm.sol\":27411:27498  function owner() public view virtual returns (address) {... */\n      jump(tag_68)\n        /* \"source/Farm.sol\":29612:29650  uint256 public rewardsPerHour = 100000 */\n    tag_16:\n      tag_39\n      sload(0x05)\n      dup2\n      jump\n        /* \"source/Farm.sol\":29798:29839  mapping(address => Staker) public stakers */\n    tag_17:\n      tag_85\n      tag_86\n      calldatasize\n      0x04\n      tag_35\n      jump\t// in\n    tag_86:\n      mstore(0x20, 0x09)\n      0x00\n      swap1\n      dup2\n      mstore\n      0x40\n      swap1\n      keccak256\n      dup1\n      sload\n      0x02\n      dup3\n      add\n      sload\n      0x03\n      swap1\n      swap3\n      add\n      sload\n      swap1\n      swap2\n      swap1\n      dup4\n      jump\n    tag_85:\n      0x40\n      dup1\n      mload\n        /* \"#utility.yul\":3793:3818   */\n      swap4\n      dup5\n      mstore\n        /* \"#utility.yul\":3849:3851   */\n      0x20\n        /* \"#utility.yul\":3834:3852   */\n      dup5\n      add\n        /* \"#utility.yul\":3827:3861   */\n      swap3\n      swap1\n      swap3\n      mstore\n        /* \"#utility.yul\":3877:3895   */\n      swap1\n      dup3\n      add\n        /* \"#utility.yul\":3870:3904   */\n      mstore\n        /* \"#utility.yul\":3781:3783   */\n      0x60\n        /* \"#utility.yul\":3766:3784   */\n      add\n        /* \"source/Farm.sol\":29798:29839  mapping(address => Staker) public stakers */\n      tag_37\n        /* \"#utility.yul\":3591:3910   */\n      jump\n        /* \"source/Farm.sol\":29925:29973  mapping(uint256 => address) public stakerAddress */\n    tag_18:\n      tag_68\n      tag_91\n      calldatasize\n      0x04\n      tag_45\n      jump\t// in\n    tag_91:\n      mstore(0x20, 0x0a)\n      0x00\n      swap1\n      dup2\n      mstore\n      0x40\n      swap1\n      keccak256\n      sload\n      0xffffffffffffffffffffffffffffffffffffffff\n      and\n      dup2\n      jump\n        /* \"source/Farm.sol\":32106:32222  function stake(uint256 _tokenId) external nonReentrant whenNotPaused {... */\n    tag_19:\n      tag_48\n      tag_95\n      calldatasize\n      0x04\n      tag_45\n      jump\t// in\n    tag_95:\n      tag_96\n      jump\t// in\n        /* \"source/Farm.sol\":30725:30823  function setLockTime(uint256 _lockTime) external onlyOwner {... */\n    tag_20:\n      tag_48\n      tag_98\n      calldatasize\n      0x04\n      tag_45\n      jump\t// in\n    tag_98:\n      tag_99\n      jump\t// in\n        /* \"source/Farm.sol\":30829:30951  function setRewardsPerHour(uint256 _rewardsPerHour) external onlyOwner {... */\n    tag_21:\n      tag_48\n      tag_101\n      calldatasize\n      0x04\n      tag_45\n      jump\t// in\n    tag_101:\n      tag_102\n      jump\t// in\n        /* \"source/Farm.sol\":29449:29475  IERC20 public rewardsToken */\n    tag_22:\n      sload(0x02)\n      tag_68\n      swap1\n      0xffffffffffffffffffffffffffffffffffffffff\n      and\n      dup2\n      jump\n        /* \"source/Farm.sol\":28317:28518  function transferOwnership(address newOwner) public virtual onlyOwner {... */\n    tag_23:\n      tag_48\n      tag_108\n      calldatasize\n      0x04\n      tag_35\n      jump\t// in\n    tag_108:\n      tag_109\n      jump\t// in\n        /* \"source/Farm.sol\":35589:35798  function availableRewards(address _staker) public view returns (uint256) {... */\n    tag_24:\n      tag_39\n      tag_111\n      calldatasize\n      0x04\n      tag_35\n      jump\t// in\n    tag_111:\n      tag_112\n      jump\t// in\n        /* \"source/Farm.sol\":31903:32098  function adminWithdrawRewards() external onlyOwner whenPaused {... */\n    tag_25:\n      tag_48\n      tag_115\n      jump\t// in\n        /* \"source/Farm.sol\":34898:35581  function getStakedTokens_V3(address _user) public view returns (StakedToken[] memory) {... */\n    tag_36:\n        /* \"source/Farm.sol\":34999:35013  stakers[_user] */\n      0xffffffffffffffffffffffffffffffffffffffff\n      dup2\n      and\n        /* \"source/Farm.sol\":35029:35030  0 */\n      0x00\n        /* \"source/Farm.sol\":34999:35013  stakers[_user] */\n      swap1\n      dup2\n      mstore\n        /* \"source/Farm.sol\":34999:35006  stakers */\n      0x09\n        /* \"source/Farm.sol\":34999:35013  stakers[_user] */\n      0x20\n      mstore\n      0x40\n      swap1\n      keccak256\n        /* \"source/Farm.sol\":34999:35026  stakers[_user].amountStaked */\n      sload\n        /* \"source/Farm.sol\":34962:34982  StakedToken[] memory */\n      0x60\n      swap1\n        /* \"source/Farm.sol\":34999:35030  stakers[_user].amountStaked > 0 */\n      iszero\n        /* \"source/Farm.sol\":34995:35574  if (stakers[_user].amountStaked > 0) {... */\n      tag_117\n      jumpi\n        /* \"source/Farm.sol\":35102:35116  stakers[_user] */\n      0xffffffffffffffffffffffffffffffffffffffff\n      dup3\n      and\n        /* \"source/Farm.sol\":35047:35081  StakedToken[] memory _stakedTokens */\n      0x00\n        /* \"source/Farm.sol\":35102:35116  stakers[_user] */\n      swap1\n      dup2\n      mstore\n        /* \"source/Farm.sol\":35102:35109  stakers */\n      0x09\n        /* \"source/Farm.sol\":35102:35116  stakers[_user] */\n      0x20\n      mstore\n      0x40\n      dup2\n      keccak256\n        /* \"source/Farm.sol\":35102:35129  stakers[_user].amountStaked */\n      sload\n        /* \"source/Farm.sol\":35084:35130  new StakedToken[](stakers[_user].amountStaked) */\n      0xffffffffffffffff\n      dup2\n      gt\n      iszero\n      tag_119\n      jumpi\n      tag_119\n      tag_120\n      jump\t// in\n    tag_119:\n      mload(0x40)\n      swap1\n      dup1\n      dup3\n      mstore\n      dup1\n      0x20\n      mul\n      0x20\n      add\n      dup3\n      add\n      0x40\n      mstore\n      dup1\n      iszero\n      tag_121\n      jumpi\n      dup2\n      0x20\n      add\n    tag_122:\n      tag_123\n      mload(0x40)\n      dup1\n      0x60\n      add\n      0x40\n      mstore\n      dup1\n      and(0xffffffffffffffffffffffffffffffffffffffff, 0x00)\n      dup2\n      mstore\n      0x20\n      add\n      0x00\n      dup2\n      mstore\n      0x20\n      add\n      0x00\n      dup2\n      mstore\n      pop\n      swap1\n      jump\n    tag_123:\n      dup2\n      mstore\n      0x20\n      add\n      swap1\n      0x01\n      swap1\n      sub\n      swap1\n      dup2\n      tag_122\n      jumpi\n      swap1\n      pop\n    tag_121:\n      pop\n        /* \"source/Farm.sol\":35047:35130  StakedToken[] memory _stakedTokens = new StakedToken[](stakers[_user].amountStaked) */\n      swap1\n      pop\n        /* \"source/Farm.sol\":35145:35159  uint256 _index */\n      0x00\n        /* \"source/Farm.sol\":35185:35194  uint256 j */\n      dup1\n        /* \"source/Farm.sol\":35180:35466  for (uint256 j = 0; j < stakers[_user].stakedTokens.length; j++) {... */\n    tag_125:\n        /* \"source/Farm.sol\":35204:35218  stakers[_user] */\n      0xffffffffffffffffffffffffffffffffffffffff\n      dup6\n      and\n      0x00\n      swap1\n      dup2\n      mstore\n        /* \"source/Farm.sol\":35204:35211  stakers */\n      0x09\n        /* \"source/Farm.sol\":35204:35218  stakers[_user] */\n      0x20\n      mstore\n      0x40\n      swap1\n      keccak256\n        /* \"source/Farm.sol\":35204:35231  stakers[_user].stakedTokens */\n      0x01\n      add\n        /* \"source/Farm.sol\":35204:35238  stakers[_user].stakedTokens.length */\n      sload\n        /* \"source/Farm.sol\":35200:35238  j < stakers[_user].stakedTokens.length */\n      dup2\n      lt\n        /* \"source/Farm.sol\":35180:35466  for (uint256 j = 0; j < stakers[_user].stakedTokens.length; j++) {... */\n      iszero\n      tag_126\n      jumpi\n        /* \"source/Farm.sol\":35268:35321  stakers[_user].stakedTokens[j].staker != (address(0)) */\n      0xffffffffffffffffffffffffffffffffffffffff\n        /* \"source/Farm.sol\":35268:35282  stakers[_user] */\n      dup6\n      and\n        /* \"source/Farm.sol\":35318:35319  0 */\n      0x00\n        /* \"source/Farm.sol\":35268:35282  stakers[_user] */\n      swap1\n      dup2\n      mstore\n        /* \"source/Farm.sol\":35268:35275  stakers */\n      0x09\n        /* \"source/Farm.sol\":35268:35282  stakers[_user] */\n      0x20\n      mstore\n      0x40\n      dup2\n      keccak256\n        /* \"source/Farm.sol\":35268:35295  stakers[_user].stakedTokens */\n      0x01\n      add\n        /* \"source/Farm.sol\":35268:35298  stakers[_user].stakedTokens[j] */\n      dup1\n      sload\n        /* \"source/Farm.sol\":35296:35297  j */\n      dup4\n      swap1\n        /* \"source/Farm.sol\":35268:35298  stakers[_user].stakedTokens[j] */\n      dup2\n      lt\n      tag_129\n      jumpi\n      tag_129\n      tag_130\n      jump\t// in\n    tag_129:\n      0x00\n      swap2\n      dup3\n      mstore\n      0x20\n      swap1\n      swap2\n      keccak256\n      0x03\n      swap1\n      swap2\n      mul\n      add\n        /* \"source/Farm.sol\":35268:35305  stakers[_user].stakedTokens[j].staker */\n      sload\n      0xffffffffffffffffffffffffffffffffffffffff\n      and\n        /* \"source/Farm.sol\":35268:35321  stakers[_user].stakedTokens[j].staker != (address(0)) */\n      eq\n        /* \"source/Farm.sol\":35264:35451  if (stakers[_user].stakedTokens[j].staker != (address(0))) {... */\n      tag_132\n      jumpi\n        /* \"source/Farm.sol\":35370:35384  stakers[_user] */\n      0xffffffffffffffffffffffffffffffffffffffff\n      dup6\n      and\n      0x00\n      swap1\n      dup2\n      mstore\n        /* \"source/Farm.sol\":35370:35377  stakers */\n      0x09\n        /* \"source/Farm.sol\":35370:35384  stakers[_user] */\n      0x20\n      mstore\n      0x40\n      swap1\n      keccak256\n        /* \"source/Farm.sol\":35370:35397  stakers[_user].stakedTokens */\n      0x01\n      add\n        /* \"source/Farm.sol\":35370:35400  stakers[_user].stakedTokens[j] */\n      dup1\n      sload\n        /* \"source/Farm.sol\":35398:35399  j */\n      dup3\n      swap1\n        /* \"source/Farm.sol\":35370:35400  stakers[_user].stakedTokens[j] */\n      dup2\n      lt\n      tag_134\n      jumpi\n      tag_134\n      tag_130\n      jump\t// in\n    tag_134:\n      0x00\n      swap2\n      dup3\n      mstore\n      0x20\n      swap2\n      dup3\n      swap1\n      keccak256\n        /* \"source/Farm.sol\":35346:35400  _stakedTokens[_index] = stakers[_user].stakedTokens[j] */\n      0x40\n      dup1\n      mload\n      0x60\n      dup2\n      add\n      dup3\n      mstore\n        /* \"source/Farm.sol\":35370:35400  stakers[_user].stakedTokens[j] */\n      0x03\n      swap1\n      swap4\n      mul\n      swap1\n      swap2\n      add\n        /* \"source/Farm.sol\":35346:35400  _stakedTokens[_index] = stakers[_user].stakedTokens[j] */\n      dup1\n      sload\n      0xffffffffffffffffffffffffffffffffffffffff\n      and\n      dup4\n      mstore\n      0x01\n      dup2\n      add\n      sload\n      swap4\n      dup4\n      add\n      swap4\n      swap1\n      swap4\n      mstore\n      0x02\n      swap1\n      swap3\n      add\n      sload\n      swap2\n      dup2\n      add\n      swap2\n      swap1\n      swap2\n      mstore\n        /* \"source/Farm.sol\":35346:35367  _stakedTokens[_index] */\n      dup4\n      mload\n        /* \"source/Farm.sol\":35346:35359  _stakedTokens */\n      dup5\n      swap1\n        /* \"source/Farm.sol\":35360:35366  _index */\n      dup5\n      swap1\n        /* \"source/Farm.sol\":35346:35367  _stakedTokens[_index] */\n      dup2\n      lt\n      tag_137\n      jumpi\n      tag_137\n      tag_130\n      jump\t// in\n    tag_137:\n      0x20\n      mul\n      0x20\n      add\n      add\n        /* \"source/Farm.sol\":35346:35400  _stakedTokens[_index] = stakers[_user].stakedTokens[j] */\n      dup2\n      swap1\n      mstore\n      pop\n        /* \"source/Farm.sol\":35423:35431  _index++ */\n      dup2\n      dup1\n      tag_138\n      swap1\n      tag_139\n      jump\t// in\n    tag_138:\n      swap3\n      pop\n      pop\n        /* \"source/Farm.sol\":35264:35451  if (stakers[_user].stakedTokens[j].staker != (address(0))) {... */\n    tag_132:\n        /* \"source/Farm.sol\":35240:35243  j++ */\n      dup1\n      tag_140\n      dup2\n      tag_139\n      jump\t// in\n    tag_140:\n      swap2\n      pop\n      pop\n        /* \"source/Farm.sol\":35180:35466  for (uint256 j = 0; j < stakers[_user].stakedTokens.length; j++) {... */\n      jump(tag_125)\n    tag_126:\n      pop\n        /* \"source/Farm.sol\":35489:35502  _stakedTokens */\n      swap1\n      swap4\n        /* \"source/Farm.sol\":34898:35581  function getStakedTokens_V3(address _user) public view returns (StakedToken[] memory) {... */\n      swap3\n      pop\n      pop\n      pop\n      jump\t// out\n        /* \"source/Farm.sol\":34995:35574  if (stakers[_user].amountStaked > 0) {... */\n    tag_117:\n        /* \"source/Farm.sol\":35542:35562  new StakedToken[](0) */\n      0x40\n      dup1\n      mload\n        /* \"source/Farm.sol\":35560:35561  0 */\n      0x00\n        /* \"source/Farm.sol\":35542:35562  new StakedToken[](0) */\n      dup1\n      dup3\n      mstore\n      0x20\n      dup3\n      add\n      swap1\n      swap3\n      mstore\n      swap1\n      jump(tag_144)\n    tag_145:\n      tag_146\n      mload(0x40)\n      dup1\n      0x60\n      add\n      0x40\n      mstore\n      dup1\n      and(0xffffffffffffffffffffffffffffffffffffffff, 0x00)\n      dup2\n      mstore\n      0x20\n      add\n      0x00\n      dup2\n      mstore\n      0x20\n      add\n      0x00\n      dup2\n      mstore\n      pop\n      swap1\n      jump\n    tag_146:\n      dup2\n      mstore\n      0x20\n      add\n      swap1\n      0x01\n      swap1\n      sub\n      swap1\n      dup2\n      tag_145\n      jumpi\n      swap1\n      pop\n    tag_144:\n      pop\n        /* \"source/Farm.sol\":35535:35562  return new StakedToken[](0) */\n      swap3\n        /* \"source/Farm.sol\":34898:35581  function getStakedTokens_V3(address _user) public view returns (StakedToken[] memory) {... */\n      swap2\n      pop\n      pop\n      jump\t// out\n        /* \"source/Farm.sol\":32230:33659  function withdraw(uint256 _tokenId) external nonReentrant {... */\n    tag_50:\n        /* \"source/Farm.sol\":18356:18377  _nonReentrantBefore() */\n      tag_148\n        /* \"source/Farm.sol\":18356:18375  _nonReentrantBefore */\n      tag_149\n        /* \"source/Farm.sol\":18356:18377  _nonReentrantBefore() */\n      jump\t// in\n    tag_148:\n        /* \"source/Farm.sol\":32329:32339  msg.sender */\n      caller\n        /* \"source/Farm.sol\":32356:32357  0 */\n      0x00\n        /* \"source/Farm.sol\":32321:32340  stakers[msg.sender] */\n      swap1\n      dup2\n      mstore\n        /* \"source/Farm.sol\":32321:32328  stakers */\n      0x09\n        /* \"source/Farm.sol\":32321:32340  stakers[msg.sender] */\n      0x20\n      mstore\n      0x40\n      swap1\n      keccak256\n        /* \"source/Farm.sol\":32321:32353  stakers[msg.sender].amountStaked */\n      sload\n        /* \"source/Farm.sol\":32299:32410  require(... */\n      tag_151\n      jumpi\n      mload(0x40)\n      0x08c379a000000000000000000000000000000000000000000000000000000000\n      dup2\n      mstore\n        /* \"#utility.yul\":5129:5131   */\n      0x20\n        /* \"source/Farm.sol\":32299:32410  require(... */\n      0x04\n      dup3\n      add\n        /* \"#utility.yul\":5111:5132   */\n      mstore\n        /* \"#utility.yul\":5168:5170   */\n      0x19\n        /* \"#utility.yul\":5148:5166   */\n      0x24\n      dup3\n      add\n        /* \"#utility.yul\":5141:5171   */\n      mstore\n        /* \"#utility.yul\":5207:5234   */\n      0x596f752068617665206e6f20746f6b656e73207374616b656400000000000000\n        /* \"#utility.yul\":5187:5205   */\n      0x44\n      dup3\n      add\n        /* \"#utility.yul\":5180:5235   */\n      mstore\n        /* \"#utility.yul\":5252:5270   */\n      0x64\n      add\n        /* \"source/Farm.sol\":32299:32410  require(... */\n    tag_152:\n      mload(0x40)\n      dup1\n      swap2\n      sub\n      swap1\n      revert\n    tag_151:\n        /* \"source/Farm.sol\":32429:32452  stakerAddress[_tokenId] */\n      0x00\n      dup2\n      dup2\n      mstore\n        /* \"source/Farm.sol\":32429:32442  stakerAddress */\n      0x0a\n        /* \"source/Farm.sol\":32429:32452  stakerAddress[_tokenId] */\n      0x20\n      mstore\n      0x40\n      swap1\n      keccak256\n      sload\n        /* \"source/Farm.sol\":32429:32466  stakerAddress[_tokenId] == msg.sender */\n      0xffffffffffffffffffffffffffffffffffffffff\n        /* \"source/Farm.sol\":32429:32452  stakerAddress[_tokenId] */\n      and\n        /* \"source/Farm.sol\":32456:32466  msg.sender */\n      caller\n        /* \"source/Farm.sol\":32429:32466  stakerAddress[_tokenId] == msg.sender */\n      eq\n        /* \"source/Farm.sol\":32421:32496  require(stakerAddress[_tokenId] == msg.sender, \"You don't own this token!\") */\n      tag_154\n      jumpi\n      mload(0x40)\n      0x08c379a000000000000000000000000000000000000000000000000000000000\n      dup2\n      mstore\n        /* \"#utility.yul\":5483:5485   */\n      0x20\n        /* \"source/Farm.sol\":32421:32496  require(stakerAddress[_tokenId] == msg.sender, \"You don't own this token!\") */\n      0x04\n      dup3\n      add\n        /* \"#utility.yul\":5465:5486   */\n      mstore\n        /* \"#utility.yul\":5522:5524   */\n      0x19\n        /* \"#utility.yul\":5502:5520   */\n      0x24\n      dup3\n      add\n        /* \"#utility.yul\":5495:5525   */\n      mstore\n        /* \"#utility.yul\":5561:5588   */\n      0x596f7520646f6e2774206f776e207468697320746f6b656e2100000000000000\n        /* \"#utility.yul\":5541:5559   */\n      0x44\n      dup3\n      add\n        /* \"#utility.yul\":5534:5589   */\n      mstore\n        /* \"#utility.yul\":5606:5624   */\n      0x64\n      add\n        /* \"source/Farm.sol\":32421:32496  require(stakerAddress[_tokenId] == msg.sender, \"You don't own this token!\") */\n      tag_152\n        /* \"#utility.yul\":5281:5630   */\n      jump\n        /* \"source/Farm.sol\":32421:32496  require(stakerAddress[_tokenId] == msg.sender, \"You don't own this token!\") */\n    tag_154:\n        /* \"source/Farm.sol\":32532:32543  lockEnabled */\n      and(0xff, sload(0x07))\n        /* \"source/Farm.sol\":32532:32609  lockEnabled && ((tokenStartStakeTime[_tokenId] + lockTime) < block.timestamp) */\n      dup1\n      iszero\n      tag_157\n      jumpi\n      pop\n        /* \"source/Farm.sol\":32581:32589  lockTime */\n      sload(0x08)\n        /* \"source/Farm.sol\":32549:32578  tokenStartStakeTime[_tokenId] */\n      0x00\n      dup3\n      dup2\n      mstore\n        /* \"source/Farm.sol\":32549:32568  tokenStartStakeTime */\n      0x0b\n        /* \"source/Farm.sol\":32549:32578  tokenStartStakeTime[_tokenId] */\n      0x20\n      mstore\n      0x40\n      swap1\n      keccak256\n      sload\n        /* \"source/Farm.sol\":32593:32608  block.timestamp */\n      timestamp\n      swap2\n        /* \"source/Farm.sol\":32549:32589  tokenStartStakeTime[_tokenId] + lockTime */\n      tag_158\n      swap2\n      tag_159\n      jump\t// in\n    tag_158:\n        /* \"source/Farm.sol\":32548:32608  (tokenStartStakeTime[_tokenId] + lockTime) < block.timestamp */\n      lt\n        /* \"source/Farm.sol\":32532:32609  lockEnabled && ((tokenStartStakeTime[_tokenId] + lockTime) < block.timestamp) */\n    tag_157:\n        /* \"source/Farm.sol\":32531:32626  (lockEnabled && ((tokenStartStakeTime[_tokenId] + lockTime) < block.timestamp)) || !lockEnabled */\n      dup1\n      tag_160\n      jumpi\n      pop\n        /* \"source/Farm.sol\":32615:32626  lockEnabled */\n      and(0xff, sload(0x07))\n        /* \"source/Farm.sol\":32614:32626  !lockEnabled */\n      iszero\n        /* \"source/Farm.sol\":32531:32626  (lockEnabled && ((tokenStartStakeTime[_tokenId] + lockTime) < block.timestamp)) || !lockEnabled */\n    tag_160:\n        /* \"source/Farm.sol\":32509:32689  require(... */\n      tag_161\n      jumpi\n      mload(0x40)\n      0x08c379a000000000000000000000000000000000000000000000000000000000\n      dup2\n      mstore\n        /* \"#utility.yul\":5970:5972   */\n      0x20\n        /* \"source/Farm.sol\":32509:32689  require(... */\n      0x04\n      dup3\n      add\n        /* \"#utility.yul\":5952:5973   */\n      mstore\n        /* \"#utility.yul\":6009:6011   */\n      0x23\n        /* \"#utility.yul\":5989:6007   */\n      0x24\n      dup3\n      add\n        /* \"#utility.yul\":5982:6012   */\n      mstore\n        /* \"#utility.yul\":6048:6082   */\n      0x546f6b656e206c6f636b2074696d6520686173206e6f74207965742065787069\n        /* \"#utility.yul\":6028:6046   */\n      0x44\n      dup3\n      add\n        /* \"#utility.yul\":6021:6083   */\n      mstore\n        /* \"#utility.yul\":6119:6124   */\n      0x7265640000000000000000000000000000000000000000000000000000000000\n        /* \"#utility.yul\":6099:6117   */\n      0x64\n      dup3\n      add\n        /* \"#utility.yul\":6092:6125   */\n      mstore\n        /* \"#utility.yul\":6142:6161   */\n      0x84\n      add\n        /* \"source/Farm.sol\":32509:32689  require(... */\n      tag_152\n        /* \"#utility.yul\":5768:6167   */\n      jump\n        /* \"source/Farm.sol\":32509:32689  require(... */\n    tag_161:\n        /* \"source/Farm.sol\":32801:32816  uint256 rewards */\n      0x00\n        /* \"source/Farm.sol\":32819:32847  calculateRewards(msg.sender) */\n      tag_164\n        /* \"source/Farm.sol\":32836:32846  msg.sender */\n      caller\n        /* \"source/Farm.sol\":32819:32835  calculateRewards */\n      tag_165\n        /* \"source/Farm.sol\":32819:32847  calculateRewards(msg.sender) */\n      jump\t// in\n    tag_164:\n        /* \"source/Farm.sol\":32866:32876  msg.sender */\n      caller\n        /* \"source/Farm.sol\":32858:32877  stakers[msg.sender] */\n      0x00\n      swap1\n      dup2\n      mstore\n        /* \"source/Farm.sol\":32858:32865  stakers */\n      0x09\n        /* \"source/Farm.sol\":32858:32877  stakers[msg.sender] */\n      0x20\n      mstore\n      0x40\n      dup2\n      keccak256\n        /* \"source/Farm.sol\":32858:32894  stakers[msg.sender].unclaimedRewards */\n      0x03\n      add\n        /* \"source/Farm.sol\":32858:32905  stakers[msg.sender].unclaimedRewards += rewards */\n      dup1\n      sload\n        /* \"source/Farm.sol\":32801:32847  uint256 rewards = calculateRewards(msg.sender) */\n      swap3\n      swap4\n      pop\n      dup4\n      swap3\n        /* \"source/Farm.sol\":32858:32894  stakers[msg.sender].unclaimedRewards */\n      swap1\n      swap2\n        /* \"source/Farm.sol\":32858:32877  stakers[msg.sender] */\n      swap1\n        /* \"source/Farm.sol\":32858:32905  stakers[msg.sender].unclaimedRewards += rewards */\n      tag_166\n      swap1\n        /* \"source/Farm.sol\":32801:32847  uint256 rewards = calculateRewards(msg.sender) */\n      dup5\n      swap1\n        /* \"source/Farm.sol\":32858:32905  stakers[msg.sender].unclaimedRewards += rewards */\n      tag_159\n      jump\t// in\n    tag_166:\n      swap1\n      swap2\n      sstore\n      pop\n        /* \"source/Farm.sol\":32920:32933  uint256 index */\n      0x00\n      swap1\n      pop\n      dup1\n        /* \"source/Farm.sol\":32948:33301  for (uint256 i = 0; i < stakers[msg.sender].stakedTokens.length; i++) {... */\n    tag_167:\n        /* \"source/Farm.sol\":32980:32990  msg.sender */\n      caller\n        /* \"source/Farm.sol\":32972:32991  stakers[msg.sender] */\n      0x00\n      swap1\n      dup2\n      mstore\n        /* \"source/Farm.sol\":32972:32979  stakers */\n      0x09\n        /* \"source/Farm.sol\":32972:32991  stakers[msg.sender] */\n      0x20\n      mstore\n      0x40\n      swap1\n      keccak256\n        /* \"source/Farm.sol\":32972:33004  stakers[msg.sender].stakedTokens */\n      0x01\n      add\n        /* \"source/Farm.sol\":32972:33011  stakers[msg.sender].stakedTokens.length */\n      sload\n        /* \"source/Farm.sol\":32968:33011  i < stakers[msg.sender].stakedTokens.length */\n      dup2\n      lt\n        /* \"source/Farm.sol\":32948:33301  for (uint256 i = 0; i < stakers[msg.sender].stakedTokens.length; i++) {... */\n      iszero\n      tag_168\n      jumpi\n        /* \"source/Farm.sol\":33063:33073  msg.sender */\n      caller\n        /* \"source/Farm.sol\":33055:33074  stakers[msg.sender] */\n      0x00\n      swap1\n      dup2\n      mstore\n        /* \"source/Farm.sol\":33055:33062  stakers */\n      0x09\n        /* \"source/Farm.sol\":33055:33074  stakers[msg.sender] */\n      0x20\n      mstore\n      0x40\n      swap1\n      keccak256\n        /* \"source/Farm.sol\":33055:33087  stakers[msg.sender].stakedTokens */\n      0x01\n      add\n        /* \"source/Farm.sol\":33055:33090  stakers[msg.sender].stakedTokens[i] */\n      dup1\n      sload\n        /* \"source/Farm.sol\":33102:33110  _tokenId */\n      dup6\n      swap2\n        /* \"source/Farm.sol\":33055:33087  stakers[msg.sender].stakedTokens */\n      swap1\n        /* \"source/Farm.sol\":33088:33089  i */\n      dup4\n      swap1\n        /* \"source/Farm.sol\":33055:33090  stakers[msg.sender].stakedTokens[i] */\n      dup2\n      lt\n      tag_171\n      jumpi\n      tag_171\n      tag_130\n      jump\t// in\n    tag_171:\n      swap1\n      0x00\n      mstore\n      keccak256(0x00, 0x20)\n      swap1\n      0x03\n      mul\n      add\n        /* \"source/Farm.sol\":33055:33098  stakers[msg.sender].stakedTokens[i].tokenId */\n      0x01\n      add\n      sload\n        /* \"source/Farm.sol\":33055:33110  stakers[msg.sender].stakedTokens[i].tokenId == _tokenId */\n      eq\n        /* \"source/Farm.sol\":33055:33206  stakers[msg.sender].stakedTokens[i].tokenId == _tokenId ... */\n      dup1\n      iszero\n      tag_173\n      jumpi\n      pop\n        /* \"source/Farm.sol\":33158:33168  msg.sender */\n      caller\n        /* \"source/Farm.sol\":33204:33205  0 */\n      0x00\n        /* \"source/Farm.sol\":33150:33169  stakers[msg.sender] */\n      swap1\n      dup2\n      mstore\n        /* \"source/Farm.sol\":33150:33157  stakers */\n      0x09\n        /* \"source/Farm.sol\":33150:33169  stakers[msg.sender] */\n      0x20\n      mstore\n      0x40\n      dup2\n      keccak256\n        /* \"source/Farm.sol\":33150:33182  stakers[msg.sender].stakedTokens */\n      0x01\n      add\n        /* \"source/Farm.sol\":33150:33185  stakers[msg.sender].stakedTokens[i] */\n      dup1\n      sload\n        /* \"source/Farm.sol\":33183:33184  i */\n      dup4\n      swap1\n        /* \"source/Farm.sol\":33150:33185  stakers[msg.sender].stakedTokens[i] */\n      dup2\n      lt\n      tag_175\n      jumpi\n      tag_175\n      tag_130\n      jump\t// in\n    tag_175:\n      0x00\n      swap2\n      dup3\n      mstore\n      0x20\n      swap1\n      swap2\n      keccak256\n      0x03\n      swap1\n      swap2\n      mul\n      add\n        /* \"source/Farm.sol\":33150:33192  stakers[msg.sender].stakedTokens[i].staker */\n      sload\n      0xffffffffffffffffffffffffffffffffffffffff\n      and\n        /* \"source/Farm.sol\":33150:33206  stakers[msg.sender].stakedTokens[i].staker != address(0) */\n      eq\n      iszero\n        /* \"source/Farm.sol\":33055:33206  stakers[msg.sender].stakedTokens[i].tokenId == _tokenId ... */\n    tag_173:\n        /* \"source/Farm.sol\":33033:33290  if (... */\n      iszero\n      tag_177\n      jumpi\n        /* \"source/Farm.sol\":33249:33250  i */\n      dup1\n        /* \"source/Farm.sol\":33241:33250  index = i */\n      swap2\n      pop\n        /* \"source/Farm.sol\":33269:33274  break */\n      jump(tag_168)\n        /* \"source/Farm.sol\":33033:33290  if (... */\n    tag_177:\n        /* \"source/Farm.sol\":33013:33016  i++ */\n      dup1\n      tag_178\n      dup2\n      tag_139\n      jump\t// in\n    tag_178:\n      swap2\n      pop\n      pop\n        /* \"source/Farm.sol\":32948:33301  for (uint256 i = 0; i < stakers[msg.sender].stakedTokens.length; i++) {... */\n      jump(tag_167)\n    tag_168:\n      pop\n        /* \"source/Farm.sol\":33323:33333  msg.sender */\n      caller\n        /* \"source/Farm.sol\":33372:33373  0 */\n      0x00\n        /* \"source/Farm.sol\":33315:33334  stakers[msg.sender] */\n      swap1\n      dup2\n      mstore\n        /* \"source/Farm.sol\":33315:33322  stakers */\n      0x09\n        /* \"source/Farm.sol\":33315:33334  stakers[msg.sender] */\n      0x20\n      mstore\n      0x40\n      dup2\n      keccak256\n        /* \"source/Farm.sol\":33315:33347  stakers[msg.sender].stakedTokens */\n      0x01\n      add\n        /* \"source/Farm.sol\":33315:33354  stakers[msg.sender].stakedTokens[index] */\n      dup1\n      sload\n        /* \"source/Farm.sol\":33348:33353  index */\n      dup4\n      swap1\n        /* \"source/Farm.sol\":33315:33354  stakers[msg.sender].stakedTokens[index] */\n      dup2\n      lt\n      tag_180\n      jumpi\n      tag_180\n      tag_130\n      jump\t// in\n    tag_180:\n      0x00\n      swap2\n      dup3\n      mstore\n      0x20\n      dup1\n      dup4\n      keccak256\n      0x03\n      swap3\n      swap1\n      swap3\n      mul\n      swap1\n      swap2\n      add\n        /* \"source/Farm.sol\":33315:33374  stakers[msg.sender].stakedTokens[index].staker = address(0) */\n      dup1\n      sload\n      0xffffffffffffffffffffffff0000000000000000000000000000000000000000\n      and\n      0xffffffffffffffffffffffffffffffffffffffff\n      swap5\n      swap1\n      swap5\n      and\n      swap4\n      swap1\n      swap4\n      or\n      swap1\n      swap3\n      sstore\n        /* \"source/Farm.sol\":33393:33403  msg.sender */\n      caller\n        /* \"source/Farm.sol\":33385:33404  stakers[msg.sender] */\n      dup2\n      mstore\n        /* \"source/Farm.sol\":33385:33392  stakers */\n      0x09\n        /* \"source/Farm.sol\":33385:33404  stakers[msg.sender] */\n      swap1\n      swap2\n      mstore\n      0x40\n      dup2\n      keccak256\n        /* \"source/Farm.sol\":33385:33419  stakers[msg.sender].amountStaked-- */\n      dup1\n      sload\n      swap2\n      tag_182\n      dup4\n      tag_183\n      jump\t// in\n    tag_182:\n      swap1\n      swap2\n      sstore\n      pop\n      pop\n        /* \"source/Farm.sol\":33464:33465  0 */\n      0x00\n        /* \"source/Farm.sol\":33430:33453  stakerAddress[_tokenId] */\n      dup4\n      dup2\n      mstore\n        /* \"source/Farm.sol\":33430:33443  stakerAddress */\n      0x0a\n        /* \"source/Farm.sol\":33430:33453  stakerAddress[_tokenId] */\n      0x20\n      swap1\n      dup2\n      mstore\n      0x40\n      dup1\n      dup4\n      keccak256\n        /* \"source/Farm.sol\":33430:33466  stakerAddress[_tokenId] = address(0) */\n      dup1\n      sload\n      0xffffffffffffffffffffffff0000000000000000000000000000000000000000\n      and\n      swap1\n      sstore\n        /* \"source/Farm.sol\":33477:33496  tokenStartStakeTime */\n      0x0b\n        /* \"source/Farm.sol\":33477:33506  tokenStartStakeTime[_tokenId] */\n      swap1\n      swap2\n      mstore\n      dup1\n      dup3\n      keccak256\n        /* \"source/Farm.sol\":33477:33510  tokenStartStakeTime[_tokenId] = 0 */\n      swap2\n      swap1\n      swap2\n      sstore\n        /* \"source/Farm.sol\":33523:33536  nftCollection */\n      sload(0x03)\n        /* \"source/Farm.sol\":33523:33586  nftCollection.transferFrom(address(this), msg.sender, _tokenId) */\n      swap1\n      mload\n      0x23b872dd00000000000000000000000000000000000000000000000000000000\n      dup2\n      mstore\n        /* \"source/Farm.sol\":33558:33562  this */\n      address\n        /* \"source/Farm.sol\":33523:33586  nftCollection.transferFrom(address(this), msg.sender, _tokenId) */\n      0x04\n      dup3\n      add\n        /* \"#utility.yul\":6636:6670   */\n      mstore\n        /* \"source/Farm.sol\":33565:33575  msg.sender */\n      caller\n        /* \"#utility.yul\":6686:6704   */\n      0x24\n      dup3\n      add\n        /* \"#utility.yul\":6679:6722   */\n      mstore\n        /* \"#utility.yul\":6738:6756   */\n      0x44\n      dup2\n      add\n        /* \"#utility.yul\":6731:6765   */\n      dup6\n      swap1\n      mstore\n        /* \"source/Farm.sol\":33430:33466  stakerAddress[_tokenId] = address(0) */\n      0xffffffffffffffffffffffffffffffffffffffff\n        /* \"source/Farm.sol\":33523:33536  nftCollection */\n      swap1\n      swap2\n      and\n      swap1\n        /* \"source/Farm.sol\":33523:33549  nftCollection.transferFrom */\n      0x23b872dd\n      swap1\n        /* \"#utility.yul\":6548:6566   */\n      0x64\n      add\n        /* \"source/Farm.sol\":33523:33586  nftCollection.transferFrom(address(this), msg.sender, _tokenId) */\n      0x00\n      mload(0x40)\n      dup1\n      dup4\n      sub\n      dup2\n      0x00\n      dup8\n      dup1\n      extcodesize\n      iszero\n      dup1\n      iszero\n      tag_186\n      jumpi\n      0x00\n      dup1\n      revert\n    tag_186:\n      pop\n      gas\n      call\n      iszero\n      dup1\n      iszero\n      tag_188\n      jumpi\n      returndatasize\n      0x00\n      dup1\n      returndatacopy\n      revert(0x00, returndatasize)\n    tag_188:\n      pop\n      pop\n        /* \"source/Farm.sol\":33605:33615  msg.sender */\n      caller\n        /* \"source/Farm.sol\":33597:33616  stakers[msg.sender] */\n      0x00\n      swap1\n      dup2\n      mstore\n        /* \"source/Farm.sol\":33597:33604  stakers */\n      0x09\n        /* \"source/Farm.sol\":33597:33616  stakers[msg.sender] */\n      0x20\n      mstore\n      0x40\n      swap1\n      keccak256\n        /* \"source/Farm.sol\":33636:33651  block.timestamp */\n      timestamp\n        /* \"source/Farm.sol\":33597:33633  stakers[msg.sender].timeOfLastUpdate */\n      0x02\n      swap1\n      swap2\n      add\n        /* \"source/Farm.sol\":33597:33651  stakers[msg.sender].timeOfLastUpdate = block.timestamp */\n      sstore\n      pop\n        /* \"source/Farm.sol\":18400:18420  _nonReentrantAfter() */\n      tag_189\n      swap3\n      pop\n        /* \"source/Farm.sol\":18400:18418  _nonReentrantAfter */\n      tag_190\n      swap2\n      pop\n      pop\n        /* \"source/Farm.sol\":18400:18420  _nonReentrantAfter() */\n      jump\t// in\n    tag_189:\n        /* \"source/Farm.sol\":32230:33659  function withdraw(uint256 _tokenId) external nonReentrant {... */\n      pop\n      jump\t// out\n        /* \"source/Farm.sol\":33975:34361  function claimRewards() external {... */\n    tag_56:\n        /* \"source/Farm.sol\":34089:34099  msg.sender */\n      caller\n        /* \"source/Farm.sol\":34019:34034  uint256 rewards */\n      0x00\n        /* \"source/Farm.sol\":34081:34100  stakers[msg.sender] */\n      dup2\n      dup2\n      mstore\n        /* \"source/Farm.sol\":34081:34088  stakers */\n      0x09\n        /* \"source/Farm.sol\":34081:34100  stakers[msg.sender] */\n      0x20\n      mstore\n      0x40\n      dup2\n      keccak256\n        /* \"source/Farm.sol\":34081:34117  stakers[msg.sender].unclaimedRewards */\n      0x03\n      add\n      sload\n        /* \"source/Farm.sol\":34019:34034  uint256 rewards */\n      swap1\n      swap2\n        /* \"source/Farm.sol\":34037:34065  calculateRewards(msg.sender) */\n      tag_192\n      swap1\n        /* \"source/Farm.sol\":34037:34053  calculateRewards */\n      tag_165\n        /* \"source/Farm.sol\":34037:34065  calculateRewards(msg.sender) */\n      jump\t// in\n    tag_192:\n        /* \"source/Farm.sol\":34037:34117  calculateRewards(msg.sender) +... */\n      tag_193\n      swap2\n      swap1\n      tag_159\n      jump\t// in\n    tag_193:\n        /* \"source/Farm.sol\":34019:34117  uint256 rewards = calculateRewards(msg.sender) +... */\n      swap1\n      pop\n        /* \"source/Farm.sol\":34146:34147  0 */\n      0x00\n        /* \"source/Farm.sol\":34136:34143  rewards */\n      dup2\n        /* \"source/Farm.sol\":34136:34147  rewards > 0 */\n      gt\n        /* \"source/Farm.sol\":34128:34180  require(rewards > 0, \"You have no rewards to claim\") */\n      tag_194\n      jumpi\n      mload(0x40)\n      0x08c379a000000000000000000000000000000000000000000000000000000000\n      dup2\n      mstore\n        /* \"#utility.yul\":6978:6980   */\n      0x20\n        /* \"source/Farm.sol\":34128:34180  require(rewards > 0, \"You have no rewards to claim\") */\n      0x04\n      dup3\n      add\n        /* \"#utility.yul\":6960:6981   */\n      mstore\n        /* \"#utility.yul\":7017:7019   */\n      0x1c\n        /* \"#utility.yul\":6997:7015   */\n      0x24\n      dup3\n      add\n        /* \"#utility.yul\":6990:7020   */\n      mstore\n        /* \"#utility.yul\":7056:7086   */\n      0x596f752068617665206e6f207265776172647320746f20636c61696d00000000\n        /* \"#utility.yul\":7036:7054   */\n      0x44\n      dup3\n      add\n        /* \"#utility.yul\":7029:7087   */\n      mstore\n        /* \"#utility.yul\":7104:7122   */\n      0x64\n      add\n        /* \"source/Farm.sol\":34128:34180  require(rewards > 0, \"You have no rewards to claim\") */\n      tag_152\n        /* \"#utility.yul\":6776:7128   */\n      jump\n        /* \"source/Farm.sol\":34128:34180  require(rewards > 0, \"You have no rewards to claim\") */\n    tag_194:\n        /* \"source/Farm.sol\":34199:34209  msg.sender */\n      caller\n        /* \"source/Farm.sol\":34191:34210  stakers[msg.sender] */\n      0x00\n      dup2\n      dup2\n      mstore\n        /* \"source/Farm.sol\":34191:34198  stakers */\n      0x09\n        /* \"source/Farm.sol\":34191:34210  stakers[msg.sender] */\n      0x20\n      mstore\n      0x40\n      dup2\n      keccak256\n        /* \"source/Farm.sol\":34230:34245  block.timestamp */\n      timestamp\n        /* \"source/Farm.sol\":34191:34227  stakers[msg.sender].timeOfLastUpdate */\n      0x02\n      dup1\n      dup4\n      add\n        /* \"source/Farm.sol\":34191:34245  stakers[msg.sender].timeOfLastUpdate = block.timestamp */\n      swap2\n      swap1\n      swap2\n      sstore\n        /* \"source/Farm.sol\":34256:34292  stakers[msg.sender].unclaimedRewards */\n      0x03\n      swap1\n      swap2\n      add\n        /* \"source/Farm.sol\":34256:34296  stakers[msg.sender].unclaimedRewards = 0 */\n      swap2\n      swap1\n      swap2\n      sstore\n        /* \"source/Farm.sol\":34307:34319  rewardsToken */\n      sload\n        /* \"source/Farm.sol\":34307:34353  rewardsToken.safeTransfer(msg.sender, rewards) */\n      tag_189\n      swap2\n        /* \"source/Farm.sol\":34191:34210  stakers[msg.sender] */\n      0xffffffffffffffffffffffffffffffffffffffff\n        /* \"source/Farm.sol\":34307:34319  rewardsToken */\n      swap1\n      swap2\n      and\n      swap1\n        /* \"source/Farm.sol\":34345:34352  rewards */\n      dup4\n        /* \"source/Farm.sol\":34307:34332  rewardsToken.safeTransfer */\n      tag_198\n        /* \"source/Farm.sol\":34307:34353  rewardsToken.safeTransfer(msg.sender, rewards) */\n      jump\t// in\n        /* \"source/Farm.sol\":34369:34892  function getStakedTokens(address _user) public view returns (StakedToken_V1[] memory) {... */\n    tag_65:\n        /* \"source/Farm.sol\":34430:34453  StakedToken_V1[] memory */\n      0x60\n        /* \"source/Farm.sol\":34466:34500  StakedToken[] memory _stakedTokens */\n      0x00\n        /* \"source/Farm.sol\":34503:34528  getStakedTokens_V3(_user) */\n      tag_201\n        /* \"source/Farm.sol\":34522:34527  _user */\n      dup4\n        /* \"source/Farm.sol\":34503:34521  getStakedTokens_V3 */\n      tag_36\n        /* \"source/Farm.sol\":34503:34528  getStakedTokens_V3(_user) */\n      jump\t// in\n    tag_201:\n        /* \"source/Farm.sol\":34466:34528  StakedToken[] memory _stakedTokens = getStakedTokens_V3(_user) */\n      swap1\n      pop\n        /* \"source/Farm.sol\":34539:34580  StakedToken_V1[] memory _stakedTokesV1_V2 */\n      0x00\n        /* \"source/Farm.sol\":34604:34617  _stakedTokens */\n      dup2\n        /* \"source/Farm.sol\":34604:34624  _stakedTokens.length */\n      mload\n        /* \"source/Farm.sol\":34583:34625  new StakedToken_V1[](_stakedTokens.length) */\n      0xffffffffffffffff\n      dup2\n      gt\n      iszero\n      tag_203\n      jumpi\n      tag_203\n      tag_120\n      jump\t// in\n    tag_203:\n      mload(0x40)\n      swap1\n      dup1\n      dup3\n      mstore\n      dup1\n      0x20\n      mul\n      0x20\n      add\n      dup3\n      add\n      0x40\n      mstore\n      dup1\n      iszero\n      tag_204\n      jumpi\n      dup2\n      0x20\n      add\n    tag_205:\n      0x40\n      dup1\n      mload\n      dup1\n      dup3\n      add\n      swap1\n      swap2\n      mstore\n      0x00\n      dup1\n      dup3\n      mstore\n      0x20\n      dup3\n      add\n      mstore\n      dup2\n      mstore\n      0x20\n      add\n      swap1\n      0x01\n      swap1\n      sub\n      swap1\n      dup2\n      tag_205\n      jumpi\n      swap1\n      pop\n    tag_204:\n      pop\n        /* \"source/Farm.sol\":34539:34625  StakedToken_V1[] memory _stakedTokesV1_V2 = new StakedToken_V1[](_stakedTokens.length) */\n      swap1\n      pop\n        /* \"source/Farm.sol\":34640:34649  uint256 k */\n      0x00\n        /* \"source/Farm.sol\":34636:34850  for(uint256 k = 0; k > _stakedTokens.length; k++) {... */\n    tag_208:\n        /* \"source/Farm.sol\":34659:34672  _stakedTokens */\n      dup3\n        /* \"source/Farm.sol\":34659:34679  _stakedTokens.length */\n      mload\n        /* \"source/Farm.sol\":34655:34656  k */\n      dup2\n        /* \"source/Farm.sol\":34655:34679  k > _stakedTokens.length */\n      gt\n        /* \"source/Farm.sol\":34636:34850  for(uint256 k = 0; k > _stakedTokens.length; k++) {... */\n      iszero\n      tag_209\n      jumpi\n        /* \"source/Farm.sol\":34724:34838  StakedToken_V1(... */\n      mload(0x40)\n      dup1\n      0x40\n      add\n      0x40\n      mstore\n      dup1\n        /* \"source/Farm.sol\":34757:34770  _stakedTokens */\n      dup5\n        /* \"source/Farm.sol\":34771:34772  k */\n      dup4\n        /* \"source/Farm.sol\":34757:34773  _stakedTokens[k] */\n      dup2\n      mload\n      dup2\n      lt\n      tag_212\n      jumpi\n      tag_212\n      tag_130\n      jump\t// in\n    tag_212:\n      0x20\n      mul\n      0x20\n      add\n      add\n      mload\n        /* \"source/Farm.sol\":34757:34780  _stakedTokens[k].staker */\n      0x00\n      add\n      mload\n        /* \"source/Farm.sol\":34724:34838  StakedToken_V1(... */\n      0xffffffffffffffffffffffffffffffffffffffff\n      and\n      dup2\n      mstore\n      0x20\n      add\n        /* \"source/Farm.sol\":34799:34812  _stakedTokens */\n      dup5\n        /* \"source/Farm.sol\":34813:34814  k */\n      dup4\n        /* \"source/Farm.sol\":34799:34815  _stakedTokens[k] */\n      dup2\n      mload\n      dup2\n      lt\n      tag_214\n      jumpi\n      tag_214\n      tag_130\n      jump\t// in\n    tag_214:\n      0x20\n      mul\n      0x20\n      add\n      add\n      mload\n        /* \"source/Farm.sol\":34799:34823  _stakedTokens[k].tokenId */\n      0x20\n      add\n      mload\n        /* \"source/Farm.sol\":34724:34838  StakedToken_V1(... */\n      dup2\n      mstore\n      pop\n        /* \"source/Farm.sol\":34701:34718  _stakedTokesV1_V2 */\n      dup3\n        /* \"source/Farm.sol\":34719:34720  k */\n      dup3\n        /* \"source/Farm.sol\":34701:34721  _stakedTokesV1_V2[k] */\n      dup2\n      mload\n      dup2\n      lt\n      tag_216\n      jumpi\n      tag_216\n      tag_130\n      jump\t// in\n    tag_216:\n      0x20\n      mul\n      0x20\n      add\n      add\n        /* \"source/Farm.sol\":34701:34838  _stakedTokesV1_V2[k] = StakedToken_V1(... */\n      dup2\n      swap1\n      mstore\n      pop\n        /* \"source/Farm.sol\":34681:34684  k++ */\n      dup1\n      dup1\n      tag_217\n      swap1\n      tag_139\n      jump\t// in\n    tag_217:\n      swap2\n      pop\n      pop\n        /* \"source/Farm.sol\":34636:34850  for(uint256 k = 0; k > _stakedTokens.length; k++) {... */\n      jump(tag_208)\n    tag_209:\n      pop\n        /* \"source/Farm.sol\":34867:34884  _stakedTokesV1_V2 */\n      swap4\n        /* \"source/Farm.sol\":34369:34892  function getStakedTokens(address _user) public view returns (StakedToken_V1[] memory) {... */\n      swap3\n      pop\n      pop\n      pop\n      jump\t// out\n        /* \"source/Farm.sol\":30601:30708  function setLockEnabled(bool _lockEnabled) external onlyOwner {... */\n    tag_75:\n        /* \"source/Farm.sol\":27297:27310  _checkOwner() */\n      tag_219\n        /* \"source/Farm.sol\":27297:27308  _checkOwner */\n      tag_220\n        /* \"source/Farm.sol\":27297:27310  _checkOwner() */\n      jump\t// in\n    tag_219:\n        /* \"source/Farm.sol\":30674:30685  lockEnabled */\n      0x07\n        /* \"source/Farm.sol\":30674:30700  lockEnabled = _lockEnabled */\n      dup1\n      sload\n      0xffffffffffffffffffffffffffffffffffffffffffffffffffffffffffffff00\n      and\n      swap2\n      iszero\n      iszero\n      swap2\n      swap1\n      swap2\n      or\n      swap1\n      sstore\n        /* \"source/Farm.sol\":30601:30708  function setLockEnabled(bool _lockEnabled) external onlyOwner {... */\n      jump\t// out\n        /* \"source/Farm.sol\":28059:28162  function renounceOwnership() public virtual onlyOwner {... */\n    tag_77:\n        /* \"source/Farm.sol\":27297:27310  _checkOwner() */\n      tag_223\n        /* \"source/Farm.sol\":27297:27308  _checkOwner */\n      tag_220\n        /* \"source/Farm.sol\":27297:27310  _checkOwner() */\n      jump\t// in\n    tag_223:\n        /* \"source/Farm.sol\":28124:28154  _transferOwnership(address(0)) */\n      tag_225\n        /* \"source/Farm.sol\":28151:28152  0 */\n      0x00\n        /* \"source/Farm.sol\":28124:28142  _transferOwnership */\n      tag_226\n        /* \"source/Farm.sol\":28124:28154  _transferOwnership(address(0)) */\n      jump\t// in\n    tag_225:\n        /* \"source/Farm.sol\":28059:28162  function renounceOwnership() public virtual onlyOwner {... */\n      jump\t// out\n        /* \"source/Farm.sol\":32106:32222  function stake(uint256 _tokenId) external nonReentrant whenNotPaused {... */\n    tag_96:\n        /* \"source/Farm.sol\":18356:18377  _nonReentrantBefore() */\n      tag_229\n        /* \"source/Farm.sol\":18356:18375  _nonReentrantBefore */\n      tag_149\n        /* \"source/Farm.sol\":18356:18377  _nonReentrantBefore() */\n      jump\t// in\n    tag_229:\n        /* \"source/Farm.sol\":15577:15596  _requireNotPaused() */\n      tag_231\n        /* \"source/Farm.sol\":15577:15594  _requireNotPaused */\n      tag_232\n        /* \"source/Farm.sol\":15577:15596  _requireNotPaused() */\n      jump\t// in\n    tag_231:\n        /* \"source/Farm.sol\":32186:32214  _stake(msg.sender, _tokenId) */\n      tag_234\n        /* \"source/Farm.sol\":32193:32203  msg.sender */\n      caller\n        /* \"source/Farm.sol\":32205:32213  _tokenId */\n      dup3\n        /* \"source/Farm.sol\":32186:32192  _stake */\n      tag_235\n        /* \"source/Farm.sol\":32186:32214  _stake(msg.sender, _tokenId) */\n      jump\t// in\n    tag_234:\n        /* \"source/Farm.sol\":18400:18420  _nonReentrantAfter() */\n      tag_189\n        /* \"source/Farm.sol\":17794:17795  1 */\n      0x01\n        /* \"source/Farm.sol\":18916:18923  _status */\n      0x00\n        /* \"source/Farm.sol\":18916:18938  _status = _NOT_ENTERED */\n      sstore\n        /* \"source/Farm.sol\":18733:18946  function _nonReentrantAfter() private {... */\n      jump\n        /* \"source/Farm.sol\":30725:30823  function setLockTime(uint256 _lockTime) external onlyOwner {... */\n    tag_99:\n        /* \"source/Farm.sol\":27297:27310  _checkOwner() */\n      tag_238\n        /* \"source/Farm.sol\":27297:27308  _checkOwner */\n      tag_220\n        /* \"source/Farm.sol\":27297:27310  _checkOwner() */\n      jump\t// in\n    tag_238:\n        /* \"source/Farm.sol\":30795:30803  lockTime */\n      0x08\n        /* \"source/Farm.sol\":30795:30815  lockTime = _lockTime */\n      sstore\n        /* \"source/Farm.sol\":30725:30823  function setLockTime(uint256 _lockTime) external onlyOwner {... */\n      jump\t// out\n        /* \"source/Farm.sol\":30829:30951  function setRewardsPerHour(uint256 _rewardsPerHour) external onlyOwner {... */\n    tag_102:\n        /* \"source/Farm.sol\":27297:27310  _checkOwner() */\n      tag_241\n        /* \"source/Farm.sol\":27297:27308  _checkOwner */\n      tag_220\n        /* \"source/Farm.sol\":27297:27310  _checkOwner() */\n      jump\t// in\n    tag_241:\n        /* \"source/Farm.sol\":30911:30925  rewardsPerHour */\n      0x05\n        /* \"source/Farm.sol\":30911:30943  rewardsPerHour = _rewardsPerHour */\n      sstore\n        /* \"source/Farm.sol\":30829:30951  function setRewardsPerHour(uint256 _rewardsPerHour) external onlyOwner {... */\n      jump\t// out\n        /* \"source/Farm.sol\":28317:28518  function transferOwnership(address newOwner) public virtual onlyOwner {... */\n    tag_109:\n        /* \"source/Farm.sol\":27297:27310  _checkOwner() */\n      tag_244\n        /* \"source/Farm.sol\":27297:27308  _checkOwner */\n      tag_220\n        /* \"source/Farm.sol\":27297:27310  _checkOwner() */\n      jump\t// in\n    tag_244:\n        /* \"source/Farm.sol\":28406:28428  newOwner != address(0) */\n      0xffffffffffffffffffffffffffffffffffffffff\n      dup2\n      and\n        /* \"source/Farm.sol\":28398:28471  require(newOwner != address(0), \"Ownable: new owner is the zero address\") */\n      tag_246\n      jumpi\n      mload(0x40)\n      0x08c379a000000000000000000000000000000000000000000000000000000000\n      dup2\n      mstore\n        /* \"#utility.yul\":7335:7337   */\n      0x20\n        /* \"source/Farm.sol\":28398:28471  require(newOwner != address(0), \"Ownable: new owner is the zero address\") */\n      0x04\n      dup3\n      add\n        /* \"#utility.yul\":7317:7338   */\n      mstore\n        /* \"#utility.yul\":7374:7376   */\n      0x26\n        /* \"#utility.yul\":7354:7372   */\n      0x24\n      dup3\n      add\n        /* \"#utility.yul\":7347:7377   */\n      mstore\n        /* \"#utility.yul\":7413:7447   */\n      0x4f776e61626c653a206e6577206f776e657220697320746865207a65726f2061\n        /* \"#utility.yul\":7393:7411   */\n      0x44\n      dup3\n      add\n        /* \"#utility.yul\":7386:7448   */\n      mstore\n        /* \"#utility.yul\":7484:7492   */\n      0x6464726573730000000000000000000000000000000000000000000000000000\n        /* \"#utility.yul\":7464:7482   */\n      0x64\n      dup3\n      add\n        /* \"#utility.yul\":7457:7493   */\n      mstore\n        /* \"#utility.yul\":7510:7529   */\n      0x84\n      add\n        /* \"source/Farm.sol\":28398:28471  require(newOwner != address(0), \"Ownable: new owner is the zero address\") */\n      tag_152\n        /* \"#utility.yul\":7133:7535   */\n      jump\n        /* \"source/Farm.sol\":28398:28471  require(newOwner != address(0), \"Ownable: new owner is the zero address\") */\n    tag_246:\n        /* \"source/Farm.sol\":28482:28510  _transferOwnership(newOwner) */\n      tag_189\n        /* \"source/Farm.sol\":28501:28509  newOwner */\n      dup2\n        /* \"source/Farm.sol\":28482:28500  _transferOwnership */\n      tag_226\n        /* \"source/Farm.sol\":28482:28510  _transferOwnership(newOwner) */\n      jump\t// in\n        /* \"source/Farm.sol\":35589:35798  function availableRewards(address _staker) public view returns (uint256) {... */\n    tag_112:\n        /* \"source/Farm.sol\":35732:35748  stakers[_staker] */\n      0xffffffffffffffffffffffffffffffffffffffff\n      dup2\n      and\n        /* \"source/Farm.sol\":35653:35660  uint256 */\n      0x00\n        /* \"source/Farm.sol\":35732:35748  stakers[_staker] */\n      swap1\n      dup2\n      mstore\n        /* \"source/Farm.sol\":35732:35739  stakers */\n      0x09\n        /* \"source/Farm.sol\":35732:35748  stakers[_staker] */\n      0x20\n      mstore\n      0x40\n      dup2\n      keccak256\n        /* \"source/Farm.sol\":35732:35765  stakers[_staker].unclaimedRewards */\n      0x03\n      add\n      sload\n        /* \"source/Farm.sol\":35653:35660  uint256 */\n      dup2\n      swap1\n        /* \"source/Farm.sol\":35691:35716  calculateRewards(_staker) */\n      tag_251\n        /* \"source/Farm.sol\":35740:35747  _staker */\n      dup5\n        /* \"source/Farm.sol\":35691:35707  calculateRewards */\n      tag_165\n        /* \"source/Farm.sol\":35691:35716  calculateRewards(_staker) */\n      jump\t// in\n    tag_251:\n        /* \"source/Farm.sol\":35691:35765  calculateRewards(_staker) +... */\n      tag_252\n      swap2\n      swap1\n      tag_159\n      jump\t// in\n    tag_252:\n        /* \"source/Farm.sol\":35673:35765  uint256 rewards = calculateRewards(_staker) +... */\n      swap4\n        /* \"source/Farm.sol\":35589:35798  function availableRewards(address _staker) public view returns (uint256) {... */\n      swap3\n      pop\n      pop\n      pop\n      jump\t// out\n        /* \"source/Farm.sol\":31903:32098  function adminWithdrawRewards() external onlyOwner whenPaused {... */\n    tag_115:\n        /* \"source/Farm.sol\":27297:27310  _checkOwner() */\n      tag_254\n        /* \"source/Farm.sol\":27297:27308  _checkOwner */\n      tag_220\n        /* \"source/Farm.sol\":27297:27310  _checkOwner() */\n      jump\t// in\n    tag_254:\n        /* \"source/Farm.sol\":15836:15852  _requirePaused() */\n      tag_256\n        /* \"source/Farm.sol\":15836:15850  _requirePaused */\n      tag_257\n        /* \"source/Farm.sol\":15836:15852  _requirePaused() */\n      jump\t// in\n    tag_256:\n        /* \"source/Farm.sol\":31995:32007  rewardsToken */\n      sload(0x02)\n        /* \"source/Farm.sol\":31995:32032  rewardsToken.balanceOf(address(this)) */\n      mload(0x40)\n      0x70a0823100000000000000000000000000000000000000000000000000000000\n      dup2\n      mstore\n        /* \"source/Farm.sol\":32026:32030  this */\n      address\n        /* \"source/Farm.sol\":31995:32032  rewardsToken.balanceOf(address(this)) */\n      0x04\n      dup3\n      add\n        /* \"#utility.yul\":2906:2980   */\n      mstore\n        /* \"source/Farm.sol\":31976:31992  uint256 _balance */\n      0x00\n      swap2\n        /* \"source/Farm.sol\":31995:32007  rewardsToken */\n      0xffffffffffffffffffffffffffffffffffffffff\n      and\n      swap1\n        /* \"source/Farm.sol\":31995:32017  rewardsToken.balanceOf */\n      0x70a08231\n      swap1\n        /* \"#utility.yul\":2879:2897   */\n      0x24\n      add\n        /* \"source/Farm.sol\":31995:32032  rewardsToken.balanceOf(address(this)) */\n      0x20\n      mload(0x40)\n      dup1\n      dup4\n      sub\n      dup2\n      dup7\n      gas\n      staticcall\n      iszero\n      dup1\n      iszero\n      tag_261\n      jumpi\n      returndatasize\n      0x00\n      dup1\n      returndatacopy\n      revert(0x00, returndatasize)\n    tag_261:\n      pop\n      pop\n      pop\n      pop\n      mload(0x40)\n      returndatasize\n      not(0x1f)\n      0x1f\n      dup3\n      add\n      and\n      dup3\n      add\n      dup1\n      0x40\n      mstore\n      pop\n      dup2\n      add\n      swap1\n      tag_262\n      swap2\n      swap1\n      tag_263\n      jump\t// in\n    tag_262:\n        /* \"source/Farm.sol\":32043:32055  rewardsToken */\n      sload(0x02)\n        /* \"source/Farm.sol\":31976:32032  uint256 _balance = rewardsToken.balanceOf(address(this)) */\n      swap1\n      swap2\n      pop\n        /* \"source/Farm.sol\":32043:32090  rewardsToken.safeTransfer(msg.sender, _balance) */\n      tag_189\n      swap1\n        /* \"source/Farm.sol\":32043:32055  rewardsToken */\n      0xffffffffffffffffffffffffffffffffffffffff\n      and\n        /* \"source/Farm.sol\":32069:32079  msg.sender */\n      caller\n        /* \"source/Farm.sol\":31976:32032  uint256 _balance = rewardsToken.balanceOf(address(this)) */\n      dup4\n        /* \"source/Farm.sol\":32043:32068  rewardsToken.safeTransfer */\n      tag_198\n        /* \"source/Farm.sol\":32043:32090  rewardsToken.safeTransfer(msg.sender, _balance) */\n      jump\t// in\n        /* \"source/Farm.sol\":18436:18725  function _nonReentrantBefore() private {... */\n    tag_149:\n        /* \"source/Farm.sol\":17838:17839  2 */\n      0x02\n        /* \"source/Farm.sol\":18566:18573  _status */\n      sload(0x00)\n        /* \"source/Farm.sol\":18566:18585  _status != _ENTERED */\n      eq\n      iszero\n        /* \"source/Farm.sol\":18558:18621  require(_status != _ENTERED, \"ReentrancyGuard: reentrant call\") */\n      tag_266\n      jumpi\n      mload(0x40)\n      0x08c379a000000000000000000000000000000000000000000000000000000000\n      dup2\n      mstore\n        /* \"#utility.yul\":7931:7933   */\n      0x20\n        /* \"source/Farm.sol\":18558:18621  require(_status != _ENTERED, \"ReentrancyGuard: reentrant call\") */\n      0x04\n      dup3\n      add\n        /* \"#utility.yul\":7913:7934   */\n      mstore\n        /* \"#utility.yul\":7970:7972   */\n      0x1f\n        /* \"#utility.yul\":7950:7968   */\n      0x24\n      dup3\n      add\n        /* \"#utility.yul\":7943:7973   */\n      mstore\n        /* \"#utility.yul\":8009:8042   */\n      0x5265656e7472616e637947756172643a207265656e7472616e742063616c6c00\n        /* \"#utility.yul\":7989:8007   */\n      0x44\n      dup3\n      add\n        /* \"#utility.yul\":7982:8043   */\n      mstore\n        /* \"#utility.yul\":8060:8078   */\n      0x64\n      add\n        /* \"source/Farm.sol\":18558:18621  require(_status != _ENTERED, \"ReentrancyGuard: reentrant call\") */\n      tag_152\n        /* \"#utility.yul\":7729:8084   */\n      jump\n        /* \"source/Farm.sol\":18558:18621  require(_status != _ENTERED, \"ReentrancyGuard: reentrant call\") */\n    tag_266:\n        /* \"source/Farm.sol\":17838:17839  2 */\n      0x02\n        /* \"source/Farm.sol\":18699:18706  _status */\n      0x00\n        /* \"source/Farm.sol\":18699:18717  _status = _ENTERED */\n      sstore\n        /* \"source/Farm.sol\":18436:18725  function _nonReentrantBefore() private {... */\n      jump\t// out\n        /* \"source/Farm.sol\":33667:33967  function calculateRewards(address _staker)... */\n    tag_165:\n        /* \"source/Farm.sol\":33936:33950  rewardsPerHour */\n      sload(0x05)\n        /* \"source/Farm.sol\":33892:33908  stakers[_staker] */\n      0xffffffffffffffffffffffffffffffffffffffff\n      dup3\n      and\n        /* \"source/Farm.sol\":33760:33776  uint256 _rewards */\n      0x00\n        /* \"source/Farm.sol\":33892:33908  stakers[_staker] */\n      swap1\n      dup2\n      mstore\n        /* \"source/Farm.sol\":33892:33899  stakers */\n      0x09\n        /* \"source/Farm.sol\":33892:33908  stakers[_staker] */\n      0x20\n      mstore\n      0x40\n      dup2\n      keccak256\n        /* \"source/Farm.sol\":33892:33921  stakers[_staker].amountStaked */\n      dup1\n      sload\n        /* \"source/Farm.sol\":33838:33871  stakers[_staker].timeOfLastUpdate */\n      0x02\n      swap1\n      swap2\n      add\n      sload\n        /* \"source/Farm.sol\":33760:33776  uint256 _rewards */\n      swap2\n      swap3\n        /* \"source/Farm.sol\":33954:33958  3600 */\n      0x0e10\n      swap3\n        /* \"source/Farm.sol\":33936:33950  rewardsPerHour */\n      swap1\n      swap2\n        /* \"source/Farm.sol\":33892:33921  stakers[_staker].amountStaked */\n      swap1\n        /* \"source/Farm.sol\":33820:33871  block.timestamp - stakers[_staker].timeOfLastUpdate */\n      tag_270\n      swap1\n        /* \"source/Farm.sol\":33820:33835  block.timestamp */\n      timestamp\n        /* \"source/Farm.sol\":33820:33871  block.timestamp - stakers[_staker].timeOfLastUpdate */\n      tag_271\n      jump\t// in\n    tag_270:\n        /* \"source/Farm.sol\":33819:33921  (block.timestamp - stakers[_staker].timeOfLastUpdate) *... */\n      tag_272\n      swap2\n      swap1\n      tag_273\n      jump\t// in\n    tag_272:\n        /* \"source/Farm.sol\":33803:33950  (... */\n      tag_274\n      swap2\n      swap1\n      tag_273\n      jump\t// in\n    tag_274:\n        /* \"source/Farm.sol\":33802:33958  ((... */\n      tag_275\n      swap2\n      swap1\n      tag_276\n      jump\t// in\n    tag_275:\n        /* \"source/Farm.sol\":33794:33959  return (((... */\n      swap3\n        /* \"source/Farm.sol\":33667:33967  function calculateRewards(address _staker)... */\n      swap2\n      pop\n      pop\n      jump\t// out\n        /* \"source/Farm.sol\":18733:18946  function _nonReentrantAfter() private {... */\n    tag_190:\n        /* \"source/Farm.sol\":17794:17795  1 */\n      0x01\n        /* \"source/Farm.sol\":18916:18923  _status */\n      0x00\n        /* \"source/Farm.sol\":18916:18938  _status = _NOT_ENTERED */\n      sstore\n        /* \"source/Farm.sol\":18733:18946  function _nonReentrantAfter() private {... */\n      jump\t// out\n        /* \"source/Farm.sol\":23768:23945  function safeTransfer(IERC20 token, address to, uint256 value) internal {... */\n    tag_198:\n        /* \"source/Farm.sol\":23878:23936  abi.encodeWithSelector(token.transfer.selector, to, value) */\n      0x40\n      dup1\n      mload\n        /* \"#utility.yul\":8935:8977   */\n      0xffffffffffffffffffffffffffffffffffffffff\n        /* \"#utility.yul\":8923:8978   */\n      dup5\n      and\n        /* \"source/Farm.sol\":23878:23936  abi.encodeWithSelector(token.transfer.selector, to, value) */\n      0x24\n      dup3\n      add\n        /* \"#utility.yul\":8905:8979   */\n      mstore\n        /* \"#utility.yul\":8995:9013   */\n      0x44\n      dup1\n      dup3\n      add\n        /* \"#utility.yul\":8988:9022   */\n      dup5\n      swap1\n      mstore\n        /* \"source/Farm.sol\":23878:23936  abi.encodeWithSelector(token.transfer.selector, to, value) */\n      dup3\n      mload\n      dup1\n      dup4\n      sub\n      swap1\n      swap2\n      add\n      dup2\n      mstore\n        /* \"#utility.yul\":8878:8896   */\n      0x64\n      swap1\n      swap2\n      add\n        /* \"source/Farm.sol\":23878:23936  abi.encodeWithSelector(token.transfer.selector, to, value) */\n      swap1\n      swap2\n      mstore\n      0x20\n      dup2\n      add\n      dup1\n      mload\n      0xffffffffffffffffffffffffffffffffffffffffffffffffffffffff\n      and\n        /* \"source/Farm.sol\":23901:23924  token.transfer.selector */\n      0xa9059cbb00000000000000000000000000000000000000000000000000000000\n        /* \"source/Farm.sol\":23878:23936  abi.encodeWithSelector(token.transfer.selector, to, value) */\n      or\n      swap1\n      mstore\n        /* \"source/Farm.sol\":23851:23937  _callOptionalReturn(token, abi.encodeWithSelector(token.transfer.selector, to, value)) */\n      tag_279\n      swap1\n        /* \"source/Farm.sol\":23871:23876  token */\n      dup5\n      swap1\n        /* \"source/Farm.sol\":23851:23870  _callOptionalReturn */\n      tag_282\n        /* \"source/Farm.sol\":23851:23937  _callOptionalReturn(token, abi.encodeWithSelector(token.transfer.selector, to, value)) */\n      jump\t// in\n    tag_279:\n        /* \"source/Farm.sol\":23768:23945  function safeTransfer(IERC20 token, address to, uint256 value) internal {... */\n      pop\n      pop\n      pop\n      jump\t// out\n        /* \"source/Farm.sol\":27576:27708  function _checkOwner() internal view virtual {... */\n    tag_220:\n        /* \"source/Farm.sol\":27484:27490  _owner */\n      sload(0x01)\n        /* \"source/Farm.sol\":27640:27663  owner() == _msgSender() */\n      0xffffffffffffffffffffffffffffffffffffffff\n        /* \"source/Farm.sol\":27484:27490  _owner */\n      0x0100\n      swap1\n      swap2\n      div\n      and\n        /* \"source/Farm.sol\":14778:14788  msg.sender */\n      caller\n        /* \"source/Farm.sol\":27640:27663  owner() == _msgSender() */\n      eq\n        /* \"source/Farm.sol\":27632:27700  require(owner() == _msgSender(), \"Ownable: caller is not the owner\") */\n      tag_225\n      jumpi\n      mload(0x40)\n      0x08c379a000000000000000000000000000000000000000000000000000000000\n      dup2\n      mstore\n        /* \"#utility.yul\":9235:9237   */\n      0x20\n        /* \"source/Farm.sol\":27632:27700  require(owner() == _msgSender(), \"Ownable: caller is not the owner\") */\n      0x04\n      dup3\n      add\n        /* \"#utility.yul\":9217:9238   */\n      dup2\n      swap1\n      mstore\n        /* \"#utility.yul\":9254:9272   */\n      0x24\n      dup3\n      add\n        /* \"#utility.yul\":9247:9277   */\n      mstore\n        /* \"#utility.yul\":9313:9347   */\n      0x4f776e61626c653a2063616c6c6572206973206e6f7420746865206f776e6572\n        /* \"#utility.yul\":9293:9311   */\n      0x44\n      dup3\n      add\n        /* \"#utility.yul\":9286:9348   */\n      mstore\n        /* \"#utility.yul\":9365:9383   */\n      0x64\n      add\n        /* \"source/Farm.sol\":27632:27700  require(owner() == _msgSender(), \"Ownable: caller is not the owner\") */\n      tag_152\n        /* \"#utility.yul\":9033:9389   */\n      jump\n        /* \"source/Farm.sol\":28678:28869  function _transferOwnership(address newOwner) internal virtual {... */\n    tag_226:\n        /* \"source/Farm.sol\":28771:28777  _owner */\n      0x01\n      dup1\n      sload\n      0xffffffffffffffffffffffffffffffffffffffff\n        /* \"source/Farm.sol\":28788:28805  _owner = newOwner */\n      dup4\n      dup2\n      and\n        /* \"source/Farm.sol\":28771:28777  _owner */\n      0x0100\n        /* \"source/Farm.sol\":28788:28805  _owner = newOwner */\n      dup2\n      dup2\n      mul\n      0xffffffffffffffffffffff0000000000000000000000000000000000000000ff\n      dup6\n      and\n      or\n      swap1\n      swap5\n      sstore\n        /* \"source/Farm.sol\":28821:28861  OwnershipTransferred(oldOwner, newOwner) */\n      mload(0x40)\n        /* \"source/Farm.sol\":28771:28777  _owner */\n      swap4\n      swap1\n      swap3\n      div\n      and\n      swap2\n      dup3\n      swap1\n        /* \"source/Farm.sol\":28821:28861  OwnershipTransferred(oldOwner, newOwner) */\n      0x8be0079c531659141344cd1fd0a4f28419497f9722a3daafe3b4186f6b6457e0\n      swap1\n        /* \"source/Farm.sol\":28752:28768  address oldOwner */\n      0x00\n      swap1\n        /* \"source/Farm.sol\":28821:28861  OwnershipTransferred(oldOwner, newOwner) */\n      log3\n        /* \"source/Farm.sol\":28741:28869  {... */\n      pop\n        /* \"source/Farm.sol\":28678:28869  function _transferOwnership(address newOwner) internal virtual {... */\n      pop\n      jump\t// out\n        /* \"source/Farm.sol\":16131:16239  function _requireNotPaused() internal view virtual {... */\n    tag_232:\n        /* \"source/Farm.sol\":16043:16050  _paused */\n      and(0xff, sload(0x01))\n        /* \"source/Farm.sol\":16201:16210  !paused() */\n      iszero\n        /* \"source/Farm.sol\":16193:16231  require(!paused(), \"Pausable: paused\") */\n      tag_225\n      jumpi\n      mload(0x40)\n      0x08c379a000000000000000000000000000000000000000000000000000000000\n      dup2\n      mstore\n        /* \"#utility.yul\":9596:9598   */\n      0x20\n        /* \"source/Farm.sol\":16193:16231  require(!paused(), \"Pausable: paused\") */\n      0x04\n      dup3\n      add\n        /* \"#utility.yul\":9578:9599   */\n      mstore\n        /* \"#utility.yul\":9635:9637   */\n      0x10\n        /* \"#utility.yul\":9615:9633   */\n      0x24\n      dup3\n      add\n        /* \"#utility.yul\":9608:9638   */\n      mstore\n        /* \"#utility.yul\":9674:9692   */\n      0x5061757361626c653a2070617573656400000000000000000000000000000000\n        /* \"#utility.yul\":9654:9672   */\n      0x44\n      dup3\n      add\n        /* \"#utility.yul\":9647:9693   */\n      mstore\n        /* \"#utility.yul\":9710:9728   */\n      0x64\n      add\n        /* \"source/Farm.sol\":16193:16231  require(!paused(), \"Pausable: paused\") */\n      tag_152\n        /* \"#utility.yul\":9394:9734   */\n      jump\n        /* \"source/Farm.sol\":30959:31895  function _stake(address _staker, uint256 _tokenId) internal {... */\n    tag_235:\n        /* \"source/Farm.sol\":31052:31065  nftCollection */\n      sload(0x03)\n        /* \"source/Farm.sol\":31052:31083  nftCollection.ownerOf(_tokenId) */\n      mload(0x40)\n      0x6352211e00000000000000000000000000000000000000000000000000000000\n      dup2\n      mstore\n      0x04\n      dup2\n      add\n        /* \"#utility.yul\":1476:1501   */\n      dup4\n      swap1\n      mstore\n        /* \"source/Farm.sol\":31052:31094  nftCollection.ownerOf(_tokenId) == _staker */\n      0xffffffffffffffffffffffffffffffffffffffff\n      dup5\n      dup2\n      and\n      swap3\n        /* \"source/Farm.sol\":31052:31065  nftCollection */\n      and\n      swap1\n        /* \"source/Farm.sol\":31052:31073  nftCollection.ownerOf */\n      0x6352211e\n      swap1\n        /* \"#utility.yul\":1449:1467   */\n      0x24\n      add\n        /* \"source/Farm.sol\":31052:31083  nftCollection.ownerOf(_tokenId) */\n      0x20\n      mload(0x40)\n      dup1\n      dup4\n      sub\n      dup2\n      dup7\n      gas\n      staticcall\n      iszero\n      dup1\n      iszero\n      tag_299\n      jumpi\n      returndatasize\n      0x00\n      dup1\n      returndatacopy\n      revert(0x00, returndatasize)\n    tag_299:\n      pop\n      pop\n      pop\n      pop\n      mload(0x40)\n      returndatasize\n      not(0x1f)\n      0x1f\n      dup3\n      add\n      and\n      dup3\n      add\n      dup1\n      0x40\n      mstore\n      pop\n      dup2\n      add\n      swap1\n      tag_300\n      swap2\n      swap1\n      tag_301\n      jump\t// in\n    tag_300:\n        /* \"source/Farm.sol\":31052:31094  nftCollection.ownerOf(_tokenId) == _staker */\n      0xffffffffffffffffffffffffffffffffffffffff\n      and\n      eq\n        /* \"source/Farm.sol\":31030:31147  require(... */\n      tag_302\n      jumpi\n      mload(0x40)\n      0x08c379a000000000000000000000000000000000000000000000000000000000\n      dup2\n      mstore\n        /* \"#utility.yul\":5483:5485   */\n      0x20\n        /* \"source/Farm.sol\":31030:31147  require(... */\n      0x04\n      dup3\n      add\n        /* \"#utility.yul\":5465:5486   */\n      mstore\n        /* \"#utility.yul\":5522:5524   */\n      0x19\n        /* \"#utility.yul\":5502:5520   */\n      0x24\n      dup3\n      add\n        /* \"#utility.yul\":5495:5525   */\n      mstore\n        /* \"#utility.yul\":5561:5588   */\n      0x596f7520646f6e2774206f776e207468697320746f6b656e2100000000000000\n        /* \"#utility.yul\":5541:5559   */\n      0x44\n      dup3\n      add\n        /* \"#utility.yul\":5534:5589   */\n      mstore\n        /* \"#utility.yul\":5606:5624   */\n      0x64\n      add\n        /* \"source/Farm.sol\":31030:31147  require(... */\n      tag_152\n        /* \"#utility.yul\":5281:5630   */\n      jump\n        /* \"source/Farm.sol\":31030:31147  require(... */\n    tag_302:\n        /* \"source/Farm.sol\":31164:31180  stakers[_staker] */\n      0xffffffffffffffffffffffffffffffffffffffff\n      dup3\n      and\n        /* \"source/Farm.sol\":31196:31197  0 */\n      0x00\n        /* \"source/Farm.sol\":31164:31180  stakers[_staker] */\n      swap1\n      dup2\n      mstore\n        /* \"source/Farm.sol\":31164:31171  stakers */\n      0x09\n        /* \"source/Farm.sol\":31164:31180  stakers[_staker] */\n      0x20\n      mstore\n      0x40\n      swap1\n      keccak256\n        /* \"source/Farm.sol\":31164:31193  stakers[_staker].amountStaked */\n      sload\n        /* \"source/Farm.sol\":31164:31197  stakers[_staker].amountStaked > 0 */\n      iszero\n        /* \"source/Farm.sol\":31160:31328  if (stakers[_staker].amountStaked > 0) {... */\n      tag_304\n      jumpi\n        /* \"source/Farm.sol\":31214:31229  uint256 rewards */\n      0x00\n        /* \"source/Farm.sol\":31232:31257  calculateRewards(_staker) */\n      tag_305\n        /* \"source/Farm.sol\":31249:31256  _staker */\n      dup4\n        /* \"source/Farm.sol\":31232:31248  calculateRewards */\n      tag_165\n        /* \"source/Farm.sol\":31232:31257  calculateRewards(_staker) */\n      jump\t// in\n    tag_305:\n        /* \"source/Farm.sol\":31272:31288  stakers[_staker] */\n      0xffffffffffffffffffffffffffffffffffffffff\n      dup5\n      and\n      0x00\n      swap1\n      dup2\n      mstore\n        /* \"source/Farm.sol\":31272:31279  stakers */\n      0x09\n        /* \"source/Farm.sol\":31272:31288  stakers[_staker] */\n      0x20\n      mstore\n      0x40\n      dup2\n      keccak256\n        /* \"source/Farm.sol\":31272:31305  stakers[_staker].unclaimedRewards */\n      0x03\n      add\n        /* \"source/Farm.sol\":31272:31316  stakers[_staker].unclaimedRewards += rewards */\n      dup1\n      sload\n        /* \"source/Farm.sol\":31214:31257  uint256 rewards = calculateRewards(_staker) */\n      swap3\n      swap4\n      pop\n      dup4\n      swap3\n        /* \"source/Farm.sol\":31272:31305  stakers[_staker].unclaimedRewards */\n      swap1\n      swap2\n        /* \"source/Farm.sol\":31272:31288  stakers[_staker] */\n      swap1\n        /* \"source/Farm.sol\":31272:31316  stakers[_staker].unclaimedRewards += rewards */\n      tag_306\n      swap1\n        /* \"source/Farm.sol\":31214:31257  uint256 rewards = calculateRewards(_staker) */\n      dup5\n      swap1\n        /* \"source/Farm.sol\":31272:31316  stakers[_staker].unclaimedRewards += rewards */\n      tag_159\n      jump\t// in\n    tag_306:\n      swap1\n      swap2\n      sstore\n      pop\n      pop\n      pop\n        /* \"source/Farm.sol\":31160:31328  if (stakers[_staker].amountStaked > 0) {... */\n    tag_304:\n        /* \"source/Farm.sol\":31340:31353  nftCollection */\n      sload(0x03)\n        /* \"source/Farm.sol\":31340:31400  nftCollection.transferFrom(_staker, address(this), _tokenId) */\n      mload(0x40)\n      0x23b872dd00000000000000000000000000000000000000000000000000000000\n      dup2\n      mstore\n        /* \"source/Farm.sol\":31340:31353  nftCollection */\n      0xffffffffffffffffffffffffffffffffffffffff\n        /* \"#utility.yul\":6654:6669   */\n      dup5\n      dup2\n      and\n        /* \"source/Farm.sol\":31340:31400  nftCollection.transferFrom(_staker, address(this), _tokenId) */\n      0x04\n      dup4\n      add\n        /* \"#utility.yul\":6636:6670   */\n      mstore\n        /* \"source/Farm.sol\":31384:31388  this */\n      address\n        /* \"#utility.yul\":6686:6704   */\n      0x24\n      dup4\n      add\n        /* \"#utility.yul\":6679:6722   */\n      mstore\n        /* \"#utility.yul\":6738:6756   */\n      0x44\n      dup3\n      add\n        /* \"#utility.yul\":6731:6765   */\n      dup5\n      swap1\n      mstore\n        /* \"source/Farm.sol\":31340:31353  nftCollection */\n      swap1\n      swap2\n      and\n      swap1\n        /* \"source/Farm.sol\":31340:31366  nftCollection.transferFrom */\n      0x23b872dd\n      swap1\n        /* \"#utility.yul\":6548:6566   */\n      0x64\n      add\n        /* \"source/Farm.sol\":31340:31400  nftCollection.transferFrom(_staker, address(this), _tokenId) */\n      0x00\n      mload(0x40)\n      dup1\n      dup4\n      sub\n      dup2\n      0x00\n      dup8\n      dup1\n      extcodesize\n      iszero\n      dup1\n      iszero\n      tag_308\n      jumpi\n      0x00\n      dup1\n      revert\n    tag_308:\n      pop\n      gas\n      call\n      iszero\n      dup1\n      iszero\n      tag_310\n      jumpi\n      returndatasize\n      0x00\n      dup1\n      returndatacopy\n      revert(0x00, returndatasize)\n    tag_310:\n      pop\n      pop\n        /* \"source/Farm.sol\":31446:31610  StakedToken(... */\n      0x40\n      dup1\n      mload\n      0x60\n      dup2\n      add\n      dup3\n      mstore\n      0xffffffffffffffffffffffffffffffffffffffff\n      dup7\n      dup2\n      and\n      dup1\n      dup4\n      mstore\n      0x20\n      dup1\n      dup5\n      add\n      dup9\n      dup2\n      mstore\n        /* \"source/Farm.sol\":31577:31592  block.timestamp */\n      timestamp\n        /* \"source/Farm.sol\":31446:31610  StakedToken(... */\n      dup6\n      dup8\n      add\n      swap1\n      dup2\n      mstore\n      0x00\n        /* \"source/Farm.sol\":31621:31637  stakers[_staker] */\n      dup5\n      dup2\n      mstore\n        /* \"source/Farm.sol\":31621:31628  stakers */\n      0x09\n        /* \"source/Farm.sol\":31621:31637  stakers[_staker] */\n      dup5\n      mstore\n      swap7\n      dup8\n      keccak256\n        /* \"source/Farm.sol\":31621:31650  stakers[_staker].stakedTokens */\n      0x01\n      dup1\n      dup3\n      add\n        /* \"source/Farm.sol\":31621:31668  stakers[_staker].stakedTokens.push(stakedToken) */\n      dup1\n      sload\n      dup1\n      dup4\n      add\n      dup3\n      sstore\n      swap1\n      dup11\n      mstore\n      swap5\n      dup10\n      keccak256\n      dup9\n      mload\n      0x03\n      swap1\n      swap7\n      mul\n      add\n      dup1\n      sload\n      0xffffffffffffffffffffffff0000000000000000000000000000000000000000\n      and\n      swap6\n      swap1\n      swap8\n      and\n      swap5\n      swap1\n      swap5\n      or\n      dup7\n      sstore\n      swap2\n      mload\n      swap3\n      dup6\n      add\n      swap3\n      swap1\n      swap3\n      sstore\n      swap1\n      mload\n      0x02\n      swap1\n      swap4\n      add\n      swap3\n      swap1\n      swap3\n      sstore\n        /* \"source/Farm.sol\":31679:31695  stakers[_staker] */\n      dup4\n      mstore\n        /* \"source/Farm.sol\":31679:31710  stakers[_staker].amountStaked++ */\n      dup1\n      sload\n        /* \"source/Farm.sol\":31446:31610  StakedToken(... */\n      swap2\n      swap5\n      pop\n        /* \"source/Farm.sol\":31679:31710  stakers[_staker].amountStaked++ */\n      swap1\n      swap3\n      pop\n        /* \"source/Farm.sol\":31621:31637  stakers[_staker] */\n      swap1\n        /* \"source/Farm.sol\":31679:31710  stakers[_staker].amountStaked++ */\n      tag_312\n      dup4\n      tag_139\n      jump\t// in\n    tag_312:\n      swap1\n      swap2\n      sstore\n      pop\n      pop\n      pop\n        /* \"source/Farm.sol\":31721:31744  stakerAddress[_tokenId] */\n      0x00\n      swap1\n      dup2\n      mstore\n        /* \"source/Farm.sol\":31721:31734  stakerAddress */\n      0x0a\n        /* \"source/Farm.sol\":31721:31744  stakerAddress[_tokenId] */\n      0x20\n      swap1\n      dup2\n      mstore\n      0x40\n      dup1\n      dup4\n      keccak256\n        /* \"source/Farm.sol\":31721:31754  stakerAddress[_tokenId] = _staker */\n      dup1\n      sload\n      0xffffffffffffffffffffffffffffffffffffffff\n      swap1\n      swap6\n      and\n      0xffffffffffffffffffffffff0000000000000000000000000000000000000000\n      swap1\n      swap6\n      and\n      dup6\n      or\n      swap1\n      sstore\n        /* \"source/Farm.sol\":31765:31784  tokenStartStakeTime */\n      0x0b\n        /* \"source/Farm.sol\":31765:31794  tokenStartStakeTime[_tokenId] */\n      dup3\n      mstore\n      dup1\n      dup4\n      keccak256\n        /* \"source/Farm.sol\":31797:31812  block.timestamp */\n      timestamp\n        /* \"source/Farm.sol\":31765:31812  tokenStartStakeTime[_tokenId] = block.timestamp */\n      swap1\n      dup2\n      swap1\n      sstore\n        /* \"source/Farm.sol\":31836:31852  stakers[_staker] */\n      swap4\n      dup4\n      mstore\n        /* \"source/Farm.sol\":31836:31843  stakers */\n      0x09\n        /* \"source/Farm.sol\":31836:31852  stakers[_staker] */\n      swap1\n      swap2\n      mstore\n      swap1\n      keccak256\n        /* \"source/Farm.sol\":31836:31869  stakers[_staker].timeOfLastUpdate */\n      0x02\n      add\n        /* \"source/Farm.sol\":31836:31887  stakers[_staker].timeOfLastUpdate = block.timestamp */\n      sstore\n        /* \"source/Farm.sol\":30959:31895  function _stake(address _staker, uint256 _tokenId) internal {... */\n      jump\t// out\n        /* \"source/Farm.sol\":16316:16424  function _requirePaused() internal view virtual {... */\n    tag_257:\n        /* \"source/Farm.sol\":16043:16050  _paused */\n      and(0xff, sload(0x01))\n        /* \"source/Farm.sol\":16375:16416  require(paused(), \"Pausable: not paused\") */\n      tag_225\n      jumpi\n      mload(0x40)\n      0x08c379a000000000000000000000000000000000000000000000000000000000\n      dup2\n      mstore\n        /* \"#utility.yul\":10197:10199   */\n      0x20\n        /* \"source/Farm.sol\":16375:16416  require(paused(), \"Pausable: not paused\") */\n      0x04\n      dup3\n      add\n        /* \"#utility.yul\":10179:10200   */\n      mstore\n        /* \"#utility.yul\":10236:10238   */\n      0x14\n        /* \"#utility.yul\":10216:10234   */\n      0x24\n      dup3\n      add\n        /* \"#utility.yul\":10209:10239   */\n      mstore\n        /* \"#utility.yul\":10275:10297   */\n      0x5061757361626c653a206e6f7420706175736564000000000000000000000000\n        /* \"#utility.yul\":10255:10273   */\n      0x44\n      dup3\n      add\n        /* \"#utility.yul\":10248:10298   */\n      mstore\n        /* \"#utility.yul\":10315:10333   */\n      0x64\n      add\n        /* \"source/Farm.sol\":16375:16416  require(paused(), \"Pausable: not paused\") */\n      tag_152\n        /* \"#utility.yul\":9995:10339   */\n      jump\n        /* \"source/Farm.sol\":26073:26834  function _callOptionalReturn(IERC20 token, bytes memory data) private {... */\n    tag_282:\n        /* \"source/Farm.sol\":26497:26520  bytes memory returndata */\n      0x00\n        /* \"source/Farm.sol\":26523:26592  address(token).functionCall(data, \"SafeERC20: low-level call failed\") */\n      tag_319\n        /* \"source/Farm.sol\":26551:26555  data */\n      dup3\n        /* \"source/Farm.sol\":26523:26592  address(token).functionCall(data, \"SafeERC20: low-level call failed\") */\n      mload(0x40)\n      dup1\n      0x40\n      add\n      0x40\n      mstore\n      dup1\n      0x20\n      dup2\n      mstore\n      0x20\n      add\n      0x5361666545524332303a206c6f772d6c6576656c2063616c6c206661696c6564\n      dup2\n      mstore\n      pop\n        /* \"source/Farm.sol\":26531:26536  token */\n      dup6\n        /* \"source/Farm.sol\":26523:26550  address(token).functionCall */\n      0xffffffffffffffffffffffffffffffffffffffff\n      and\n      tag_320\n      swap1\n        /* \"source/Farm.sol\":26523:26592  address(token).functionCall(data, \"SafeERC20: low-level call failed\") */\n      swap3\n      swap2\n      swap1\n      0xffffffff\n      and\n      jump\t// in\n    tag_319:\n        /* \"source/Farm.sol\":26607:26624  returndata.length */\n      dup1\n      mload\n        /* \"source/Farm.sol\":26497:26592  bytes memory returndata = address(token).functionCall(data, \"SafeERC20: low-level call failed\") */\n      swap1\n      swap2\n      pop\n        /* \"source/Farm.sol\":26607:26628  returndata.length > 0 */\n      iszero\n        /* \"source/Farm.sol\":26603:26827  if (returndata.length > 0) { // Return data is optional... */\n      tag_279\n      jumpi\n        /* \"source/Farm.sol\":26749:26759  returndata */\n      dup1\n        /* \"source/Farm.sol\":26738:26768  abi.decode(returndata, (bool)) */\n      dup1\n      0x20\n      add\n      swap1\n      mload\n      dup2\n      add\n      swap1\n      tag_322\n      swap2\n      swap1\n      tag_323\n      jump\t// in\n    tag_322:\n        /* \"source/Farm.sol\":26730:26815  require(abi.decode(returndata, (bool)), \"SafeERC20: ERC20 operation did not succeed\") */\n      tag_279\n      jumpi\n      mload(0x40)\n      0x08c379a000000000000000000000000000000000000000000000000000000000\n      dup2\n      mstore\n        /* \"#utility.yul\":10796:10798   */\n      0x20\n        /* \"source/Farm.sol\":26730:26815  require(abi.decode(returndata, (bool)), \"SafeERC20: ERC20 operation did not succeed\") */\n      0x04\n      dup3\n      add\n        /* \"#utility.yul\":10778:10799   */\n      mstore\n        /* \"#utility.yul\":10835:10837   */\n      0x2a\n        /* \"#utility.yul\":10815:10833   */\n      0x24\n      dup3\n      add\n        /* \"#utility.yul\":10808:10838   */\n      mstore\n        /* \"#utility.yul\":10874:10908   */\n      0x5361666545524332303a204552433230206f7065726174696f6e20646964206e\n        /* \"#utility.yul\":10854:10872   */\n      0x44\n      dup3\n      add\n        /* \"#utility.yul\":10847:10909   */\n      mstore\n        /* \"#utility.yul\":10945:10957   */\n      0x6f74207375636365656400000000000000000000000000000000000000000000\n        /* \"#utility.yul\":10925:10943   */\n      0x64\n      dup3\n      add\n        /* \"#utility.yul\":10918:10958   */\n      mstore\n        /* \"#utility.yul\":10975:10994   */\n      0x84\n      add\n        /* \"source/Farm.sol\":26730:26815  require(abi.decode(returndata, (bool)), \"SafeERC20: ERC20 operation did not succeed\") */\n      tag_152\n        /* \"#utility.yul\":10594:11000   */\n      jump\n        /* \"source/Farm.sol\":8687:8882  function functionCall(address target, bytes memory data, string memory errorMessage) internal returns (bytes memory) {... */\n    tag_320:\n        /* \"source/Farm.sol\":8790:8802  bytes memory */\n      0x60\n        /* \"source/Farm.sol\":8822:8874  functionCallWithValue(target, data, 0, errorMessage) */\n      tag_329\n        /* \"source/Farm.sol\":8844:8850  target */\n      dup5\n        /* \"source/Farm.sol\":8852:8856  data */\n      dup5\n        /* \"source/Farm.sol\":8858:8859  0 */\n      0x00\n        /* \"source/Farm.sol\":8861:8873  errorMessage */\n      dup6\n        /* \"source/Farm.sol\":8822:8843  functionCallWithValue */\n      tag_330\n        /* \"source/Farm.sol\":8822:8874  functionCallWithValue(target, data, 0, errorMessage) */\n      jump\t// in\n    tag_329:\n        /* \"source/Farm.sol\":8815:8874  return functionCallWithValue(target, data, 0, errorMessage) */\n      swap5\n        /* \"source/Farm.sol\":8687:8882  function functionCall(address target, bytes memory data, string memory errorMessage) internal returns (bytes memory) {... */\n      swap4\n      pop\n      pop\n      pop\n      pop\n      jump\t// out\n        /* \"source/Farm.sol\":9739:10269  function functionCallWithValue(address target, bytes memory data, uint256 value, string memory errorMessage) internal returns (bytes memory) {... */\n    tag_330:\n        /* \"source/Farm.sol\":9866:9878  bytes memory */\n      0x60\n        /* \"source/Farm.sol\":9924:9929  value */\n      dup3\n        /* \"source/Farm.sol\":9899:9920  address(this).balance */\n      selfbalance\n        /* \"source/Farm.sol\":9899:9929  address(this).balance >= value */\n      lt\n      iszero\n        /* \"source/Farm.sol\":9891:9972  require(address(this).balance >= value, \"Address: insufficient balance for call\") */\n      tag_332\n      jumpi\n      mload(0x40)\n      0x08c379a000000000000000000000000000000000000000000000000000000000\n      dup2\n      mstore\n        /* \"#utility.yul\":11207:11209   */\n      0x20\n        /* \"source/Farm.sol\":9891:9972  require(address(this).balance >= value, \"Address: insufficient balance for call\") */\n      0x04\n      dup3\n      add\n        /* \"#utility.yul\":11189:11210   */\n      mstore\n        /* \"#utility.yul\":11246:11248   */\n      0x26\n        /* \"#utility.yul\":11226:11244   */\n      0x24\n      dup3\n      add\n        /* \"#utility.yul\":11219:11249   */\n      mstore\n        /* \"#utility.yul\":11285:11319   */\n      0x416464726573733a20696e73756666696369656e742062616c616e636520666f\n        /* \"#utility.yul\":11265:11283   */\n      0x44\n      dup3\n      add\n        /* \"#utility.yul\":11258:11320   */\n      mstore\n        /* \"#utility.yul\":11356:11364   */\n      0x722063616c6c0000000000000000000000000000000000000000000000000000\n        /* \"#utility.yul\":11336:11354   */\n      0x64\n      dup3\n      add\n        /* \"#utility.yul\":11329:11365   */\n      mstore\n        /* \"#utility.yul\":11382:11401   */\n      0x84\n      add\n        /* \"source/Farm.sol\":9891:9972  require(address(this).balance >= value, \"Address: insufficient balance for call\") */\n      tag_152\n        /* \"#utility.yul\":11005:11407   */\n      jump\n        /* \"source/Farm.sol\":9891:9972  require(address(this).balance >= value, \"Address: insufficient balance for call\") */\n    tag_332:\n        /* \"source/Farm.sol\":6136:6156  extcodesize(account) */\n      dup5\n      extcodesize\n        /* \"source/Farm.sol\":9983:10043  require(isContract(target), \"Address: call to non-contract\") */\n      tag_337\n      jumpi\n      mload(0x40)\n      0x08c379a000000000000000000000000000000000000000000000000000000000\n      dup2\n      mstore\n        /* \"#utility.yul\":11614:11616   */\n      0x20\n        /* \"source/Farm.sol\":9983:10043  require(isContract(target), \"Address: call to non-contract\") */\n      0x04\n      dup3\n      add\n        /* \"#utility.yul\":11596:11617   */\n      mstore\n        /* \"#utility.yul\":11653:11655   */\n      0x1d\n        /* \"#utility.yul\":11633:11651   */\n      0x24\n      dup3\n      add\n        /* \"#utility.yul\":11626:11656   */\n      mstore\n        /* \"#utility.yul\":11692:11723   */\n      0x416464726573733a2063616c6c20746f206e6f6e2d636f6e7472616374000000\n        /* \"#utility.yul\":11672:11690   */\n      0x44\n      dup3\n      add\n        /* \"#utility.yul\":11665:11724   */\n      mstore\n        /* \"#utility.yul\":11741:11759   */\n      0x64\n      add\n        /* \"source/Farm.sol\":9983:10043  require(isContract(target), \"Address: call to non-contract\") */\n      tag_152\n        /* \"#utility.yul\":11412:11765   */\n      jump\n        /* \"source/Farm.sol\":9983:10043  require(isContract(target), \"Address: call to non-contract\") */\n    tag_337:\n        /* \"source/Farm.sol\":10117:10129  bool success */\n      0x00\n        /* \"source/Farm.sol\":10131:10154  bytes memory returndata */\n      dup1\n        /* \"source/Farm.sol\":10158:10164  target */\n      dup7\n        /* \"source/Farm.sol\":10158:10169  target.call */\n      0xffffffffffffffffffffffffffffffffffffffff\n      and\n        /* \"source/Farm.sol\":10178:10183  value */\n      dup6\n        /* \"source/Farm.sol\":10186:10190  data */\n      dup8\n        /* \"source/Farm.sol\":10158:10191  target.call{ value: value }(data) */\n      mload(0x40)\n      tag_340\n      swap2\n      swap1\n      tag_341\n      jump\t// in\n    tag_340:\n      0x00\n      mload(0x40)\n      dup1\n      dup4\n      sub\n      dup2\n      dup6\n      dup8\n      gas\n      call\n      swap3\n      pop\n      pop\n      pop\n      returndatasize\n      dup1\n      0x00\n      dup2\n      eq\n      tag_344\n      jumpi\n      mload(0x40)\n      swap2\n      pop\n      and(add(returndatasize, 0x3f), not(0x1f))\n      dup3\n      add\n      0x40\n      mstore\n      returndatasize\n      dup3\n      mstore\n      returndatasize\n      0x00\n      0x20\n      dup5\n      add\n      returndatacopy\n      jump(tag_343)\n    tag_344:\n      0x60\n      swap2\n      pop\n    tag_343:\n      pop\n        /* \"source/Farm.sol\":10116:10191  (bool success, bytes memory returndata) = target.call{ value: value }(data) */\n      swap2\n      pop\n      swap2\n      pop\n        /* \"source/Farm.sol\":10209:10261  _verifyCallResult(success, returndata, errorMessage) */\n      tag_345\n        /* \"source/Farm.sol\":10227:10234  success */\n      dup3\n        /* \"source/Farm.sol\":10236:10246  returndata */\n      dup3\n        /* \"source/Farm.sol\":10248:10260  errorMessage */\n      dup7\n        /* \"source/Farm.sol\":10209:10226  _verifyCallResult */\n      tag_346\n        /* \"source/Farm.sol\":10209:10261  _verifyCallResult(success, returndata, errorMessage) */\n      jump\t// in\n    tag_345:\n        /* \"source/Farm.sol\":10202:10261  return _verifyCallResult(success, returndata, errorMessage) */\n      swap8\n        /* \"source/Farm.sol\":9739:10269  function functionCallWithValue(address target, bytes memory data, uint256 value, string memory errorMessage) internal returns (bytes memory) {... */\n      swap7\n      pop\n      pop\n      pop\n      pop\n      pop\n      pop\n      pop\n      jump\t// out\n        /* \"source/Farm.sol\":11275:12017  function _verifyCallResult(bool success, bytes memory returndata, string memory errorMessage) private pure returns(bytes memory) {... */\n    tag_346:\n        /* \"source/Farm.sol\":11390:11402  bytes memory */\n      0x60\n        /* \"source/Farm.sol\":11419:11426  success */\n      dup4\n        /* \"source/Farm.sol\":11415:12010  if (success) {... */\n      iszero\n      tag_349\n      jumpi\n      pop\n        /* \"source/Farm.sol\":11450:11460  returndata */\n      dup2\n        /* \"source/Farm.sol\":11443:11460  return returndata */\n      jump(tag_252)\n        /* \"source/Farm.sol\":11415:12010  if (success) {... */\n    tag_349:\n        /* \"source/Farm.sol\":11564:11581  returndata.length */\n      dup3\n      mload\n        /* \"source/Farm.sol\":11564:11585  returndata.length > 0 */\n      iszero\n        /* \"source/Farm.sol\":11560:11999  if (returndata.length > 0) {... */\n      tag_351\n      jumpi\n        /* \"source/Farm.sol\":11827:11837  returndata */\n      dup3\n        /* \"source/Farm.sol\":11821:11838  mload(returndata) */\n      mload\n        /* \"source/Farm.sol\":11888:11903  returndata_size */\n      dup1\n        /* \"source/Farm.sol\":11875:11885  returndata */\n      dup5\n        /* \"source/Farm.sol\":11871:11873  32 */\n      0x20\n        /* \"source/Farm.sol\":11867:11886  add(32, returndata) */\n      add\n        /* \"source/Farm.sol\":11860:11904  revert(add(32, returndata), returndata_size) */\n      revert\n        /* \"source/Farm.sol\":11560:11999  if (returndata.length > 0) {... */\n    tag_351:\n        /* \"source/Farm.sol\":11970:11982  errorMessage */\n      dup2\n        /* \"source/Farm.sol\":11963:11983  revert(errorMessage) */\n      mload(0x40)\n      0x08c379a000000000000000000000000000000000000000000000000000000000\n      dup2\n      mstore\n      0x04\n      add\n      tag_152\n      swap2\n      swap1\n      tag_354\n      jump\t// in\n        /* \"#utility.yul\":14:168   */\n    tag_355:\n        /* \"#utility.yul\":100:142   */\n      0xffffffffffffffffffffffffffffffffffffffff\n        /* \"#utility.yul\":93:98   */\n      dup2\n        /* \"#utility.yul\":89:143   */\n      and\n        /* \"#utility.yul\":82:87   */\n      dup2\n        /* \"#utility.yul\":79:144   */\n      eq\n        /* \"#utility.yul\":69:162   */\n      tag_189\n      jumpi\n        /* \"#utility.yul\":158:159   */\n      0x00\n        /* \"#utility.yul\":155:156   */\n      dup1\n        /* \"#utility.yul\":148:160   */\n      revert\n        /* \"#utility.yul\":173:420   */\n    tag_35:\n        /* \"#utility.yul\":232:238   */\n      0x00\n        /* \"#utility.yul\":285:287   */\n      0x20\n        /* \"#utility.yul\":273:282   */\n      dup3\n        /* \"#utility.yul\":264:271   */\n      dup5\n        /* \"#utility.yul\":260:283   */\n      sub\n        /* \"#utility.yul\":256:288   */\n      slt\n        /* \"#utility.yul\":253:305   */\n      iszero\n      tag_363\n      jumpi\n        /* \"#utility.yul\":301:302   */\n      0x00\n        /* \"#utility.yul\":298:299   */\n      dup1\n        /* \"#utility.yul\":291:303   */\n      revert\n        /* \"#utility.yul\":253:305   */\n    tag_363:\n        /* \"#utility.yul\":340:349   */\n      dup2\n        /* \"#utility.yul\":327:350   */\n      calldataload\n        /* \"#utility.yul\":359:390   */\n      tag_252\n        /* \"#utility.yul\":384:389   */\n      dup2\n        /* \"#utility.yul\":359:390   */\n      tag_355\n      jump\t// in\n        /* \"#utility.yul\":425:1325   */\n    tag_38:\n        /* \"#utility.yul\":654:656   */\n      0x20\n        /* \"#utility.yul\":706:727   */\n      dup1\n      dup3\n      mstore\n        /* \"#utility.yul\":776:789   */\n      dup3\n      mload\n        /* \"#utility.yul\":679:697   */\n      dup3\n      dup3\n      add\n        /* \"#utility.yul\":798:820   */\n      dup2\n      swap1\n      mstore\n        /* \"#utility.yul\":625:629   */\n      0x00\n      swap2\n        /* \"#utility.yul\":654:656   */\n      swap1\n        /* \"#utility.yul\":839:841   */\n      0x40\n      swap1\n        /* \"#utility.yul\":857:875   */\n      dup2\n      dup6\n      add\n      swap1\n        /* \"#utility.yul\":898:913   */\n      dup7\n      dup5\n      add\n        /* \"#utility.yul\":625:629   */\n      dup6\n        /* \"#utility.yul\":941:1299   */\n    tag_366:\n        /* \"#utility.yul\":955:961   */\n      dup3\n        /* \"#utility.yul\":952:953   */\n      dup2\n        /* \"#utility.yul\":949:962   */\n      lt\n        /* \"#utility.yul\":941:1299   */\n      iszero\n      tag_368\n      jumpi\n        /* \"#utility.yul\":1014:1027   */\n      dup2\n      mload\n        /* \"#utility.yul\":1056:1065   */\n      dup1\n      mload\n        /* \"#utility.yul\":1067:1109   */\n      0xffffffffffffffffffffffffffffffffffffffff\n        /* \"#utility.yul\":1052:1110   */\n      and\n        /* \"#utility.yul\":1040:1111   */\n      dup6\n      mstore\n        /* \"#utility.yul\":1151:1162   */\n      dup7\n      dup2\n      add\n        /* \"#utility.yul\":1145:1163   */\n      mload\n        /* \"#utility.yul\":1131:1143   */\n      dup8\n      dup7\n      add\n        /* \"#utility.yul\":1124:1164   */\n      mstore\n        /* \"#utility.yul\":1204:1215   */\n      dup6\n      add\n        /* \"#utility.yul\":1198:1216   */\n      mload\n        /* \"#utility.yul\":1184:1196   */\n      dup6\n      dup6\n      add\n        /* \"#utility.yul\":1177:1217   */\n      mstore\n        /* \"#utility.yul\":1246:1250   */\n      0x60\n        /* \"#utility.yul\":1237:1251   */\n      swap1\n      swap4\n      add\n      swap3\n        /* \"#utility.yul\":1274:1289   */\n      swap1\n      dup6\n      add\n      swap1\n        /* \"#utility.yul\":977:978   */\n      0x01\n        /* \"#utility.yul\":970:979   */\n      add\n        /* \"#utility.yul\":941:1299   */\n      jump(tag_366)\n    tag_368:\n      pop\n        /* \"#utility.yul\":1316:1319   */\n      swap2\n      swap8\n        /* \"#utility.yul\":425:1325   */\n      swap7\n      pop\n      pop\n      pop\n      pop\n      pop\n      pop\n      pop\n      jump\t// out\n        /* \"#utility.yul\":1512:1692   */\n    tag_45:\n        /* \"#utility.yul\":1571:1577   */\n      0x00\n        /* \"#utility.yul\":1624:1626   */\n      0x20\n        /* \"#utility.yul\":1612:1621   */\n      dup3\n        /* \"#utility.yul\":1603:1610   */\n      dup5\n        /* \"#utility.yul\":1599:1622   */\n      sub\n        /* \"#utility.yul\":1595:1627   */\n      slt\n        /* \"#utility.yul\":1592:1644   */\n      iszero\n      tag_371\n      jumpi\n        /* \"#utility.yul\":1640:1641   */\n      0x00\n        /* \"#utility.yul\":1637:1638   */\n      dup1\n        /* \"#utility.yul\":1630:1642   */\n      revert\n        /* \"#utility.yul\":1592:1644   */\n    tag_371:\n      pop\n        /* \"#utility.yul\":1663:1686   */\n      calldataload\n      swap2\n        /* \"#utility.yul\":1512:1692   */\n      swap1\n      pop\n      jump\t// out\n        /* \"#utility.yul\":1889:2740   */\n    tag_67:\n        /* \"#utility.yul\":2124:2126   */\n      0x20\n        /* \"#utility.yul\":2176:2197   */\n      dup1\n      dup3\n      mstore\n        /* \"#utility.yul\":2246:2259   */\n      dup3\n      mload\n        /* \"#utility.yul\":2149:2167   */\n      dup3\n      dup3\n      add\n        /* \"#utility.yul\":2268:2290   */\n      dup2\n      swap1\n      mstore\n        /* \"#utility.yul\":2095:2099   */\n      0x00\n      swap2\n        /* \"#utility.yul\":2124:2126   */\n      swap1\n        /* \"#utility.yul\":2309:2311   */\n      0x40\n      swap1\n        /* \"#utility.yul\":2327:2345   */\n      dup2\n      dup6\n      add\n      swap1\n        /* \"#utility.yul\":2368:2383   */\n      dup7\n      dup5\n      add\n        /* \"#utility.yul\":2095:2099   */\n      dup6\n        /* \"#utility.yul\":2411:2714   */\n    tag_374:\n        /* \"#utility.yul\":2425:2431   */\n      dup3\n        /* \"#utility.yul\":2422:2423   */\n      dup2\n        /* \"#utility.yul\":2419:2432   */\n      lt\n        /* \"#utility.yul\":2411:2714   */\n      iszero\n      tag_368\n      jumpi\n        /* \"#utility.yul\":2484:2497   */\n      dup2\n      mload\n        /* \"#utility.yul\":2526:2535   */\n      dup1\n      mload\n        /* \"#utility.yul\":2537:2579   */\n      0xffffffffffffffffffffffffffffffffffffffff\n        /* \"#utility.yul\":2522:2580   */\n      and\n        /* \"#utility.yul\":2510:2581   */\n      dup6\n      mstore\n        /* \"#utility.yul\":2621:2632   */\n      dup7\n      add\n        /* \"#utility.yul\":2615:2633   */\n      mload\n        /* \"#utility.yul\":2601:2613   */\n      dup7\n      dup6\n      add\n        /* \"#utility.yul\":2594:2634   */\n      mstore\n        /* \"#utility.yul\":2654:2666   */\n      swap3\n      dup5\n      add\n      swap3\n        /* \"#utility.yul\":2689:2704   */\n      swap1\n      dup6\n      add\n      swap1\n        /* \"#utility.yul\":2447:2448   */\n      0x01\n        /* \"#utility.yul\":2440:2449   */\n      add\n        /* \"#utility.yul\":2411:2714   */\n      jump(tag_374)\n        /* \"#utility.yul\":2991:3109   */\n    tag_356:\n        /* \"#utility.yul\":3077:3082   */\n      dup1\n        /* \"#utility.yul\":3070:3083   */\n      iszero\n        /* \"#utility.yul\":3063:3084   */\n      iszero\n        /* \"#utility.yul\":3056:3061   */\n      dup2\n        /* \"#utility.yul\":3053:3085   */\n      eq\n        /* \"#utility.yul\":3043:3103   */\n      tag_189\n      jumpi\n        /* \"#utility.yul\":3099:3100   */\n      0x00\n        /* \"#utility.yul\":3096:3097   */\n      dup1\n        /* \"#utility.yul\":3089:3101   */\n      revert\n        /* \"#utility.yul\":3114:3355   */\n    tag_74:\n        /* \"#utility.yul\":3170:3176   */\n      0x00\n        /* \"#utility.yul\":3223:3225   */\n      0x20\n        /* \"#utility.yul\":3211:3220   */\n      dup3\n        /* \"#utility.yul\":3202:3209   */\n      dup5\n        /* \"#utility.yul\":3198:3221   */\n      sub\n        /* \"#utility.yul\":3194:3226   */\n      slt\n        /* \"#utility.yul\":3191:3243   */\n      iszero\n      tag_381\n      jumpi\n        /* \"#utility.yul\":3239:3240   */\n      0x00\n        /* \"#utility.yul\":3236:3237   */\n      dup1\n        /* \"#utility.yul\":3229:3241   */\n      revert\n        /* \"#utility.yul\":3191:3243   */\n    tag_381:\n        /* \"#utility.yul\":3278:3287   */\n      dup2\n        /* \"#utility.yul\":3265:3288   */\n      calldataload\n        /* \"#utility.yul\":3297:3325   */\n      tag_252\n        /* \"#utility.yul\":3319:3324   */\n      dup2\n        /* \"#utility.yul\":3297:3325   */\n      tag_356\n      jump\t// in\n        /* \"#utility.yul\":4160:4344   */\n    tag_120:\n        /* \"#utility.yul\":4212:4289   */\n      0x4e487b7100000000000000000000000000000000000000000000000000000000\n        /* \"#utility.yul\":4209:4210   */\n      0x00\n        /* \"#utility.yul\":4202:4290   */\n      mstore\n        /* \"#utility.yul\":4309:4313   */\n      0x41\n        /* \"#utility.yul\":4306:4307   */\n      0x04\n        /* \"#utility.yul\":4299:4314   */\n      mstore\n        /* \"#utility.yul\":4333:4337   */\n      0x24\n        /* \"#utility.yul\":4330:4331   */\n      0x00\n        /* \"#utility.yul\":4323:4338   */\n      revert\n        /* \"#utility.yul\":4349:4533   */\n    tag_130:\n        /* \"#utility.yul\":4401:4478   */\n      0x4e487b7100000000000000000000000000000000000000000000000000000000\n        /* \"#utility.yul\":4398:4399   */\n      0x00\n        /* \"#utility.yul\":4391:4479   */\n      mstore\n        /* \"#utility.yul\":4498:4502   */\n      0x32\n        /* \"#utility.yul\":4495:4496   */\n      0x04\n        /* \"#utility.yul\":4488:4503   */\n      mstore\n        /* \"#utility.yul\":4522:4526   */\n      0x24\n        /* \"#utility.yul\":4519:4520   */\n      0x00\n        /* \"#utility.yul\":4512:4527   */\n      revert\n        /* \"#utility.yul\":4538:4722   */\n    tag_357:\n        /* \"#utility.yul\":4590:4667   */\n      0x4e487b7100000000000000000000000000000000000000000000000000000000\n        /* \"#utility.yul\":4587:4588   */\n      0x00\n        /* \"#utility.yul\":4580:4668   */\n      mstore\n        /* \"#utility.yul\":4687:4691   */\n      0x11\n        /* \"#utility.yul\":4684:4685   */\n      0x04\n        /* \"#utility.yul\":4677:4692   */\n      mstore\n        /* \"#utility.yul\":4711:4715   */\n      0x24\n        /* \"#utility.yul\":4708:4709   */\n      0x00\n        /* \"#utility.yul\":4701:4716   */\n      revert\n        /* \"#utility.yul\":4727:4922   */\n    tag_139:\n        /* \"#utility.yul\":4766:4769   */\n      0x00\n        /* \"#utility.yul\":4797:4863   */\n      0xffffffffffffffffffffffffffffffffffffffffffffffffffffffffffffffff\n        /* \"#utility.yul\":4790:4795   */\n      dup3\n        /* \"#utility.yul\":4787:4864   */\n      eq\n        /* \"#utility.yul\":4784:4887   */\n      iszero\n      tag_391\n      jumpi\n        /* \"#utility.yul\":4867:4885   */\n      tag_391\n      tag_357\n      jump\t// in\n    tag_391:\n      pop\n        /* \"#utility.yul\":4914:4915   */\n      0x01\n        /* \"#utility.yul\":4903:4916   */\n      add\n      swap1\n        /* \"#utility.yul\":4727:4922   */\n      jump\t// out\n        /* \"#utility.yul\":5635:5763   */\n    tag_159:\n        /* \"#utility.yul\":5675:5678   */\n      0x00\n        /* \"#utility.yul\":5706:5707   */\n      dup3\n        /* \"#utility.yul\":5702:5708   */\n      not\n        /* \"#utility.yul\":5699:5700   */\n      dup3\n        /* \"#utility.yul\":5696:5709   */\n      gt\n        /* \"#utility.yul\":5693:5732   */\n      iszero\n      tag_396\n      jumpi\n        /* \"#utility.yul\":5712:5730   */\n      tag_396\n      tag_357\n      jump\t// in\n    tag_396:\n      pop\n        /* \"#utility.yul\":5748:5757   */\n      add\n      swap1\n        /* \"#utility.yul\":5635:5763   */\n      jump\t// out\n        /* \"#utility.yul\":6172:6368   */\n    tag_183:\n        /* \"#utility.yul\":6211:6214   */\n      0x00\n        /* \"#utility.yul\":6239:6244   */\n      dup2\n        /* \"#utility.yul\":6229:6268   */\n      tag_400\n      jumpi\n        /* \"#utility.yul\":6248:6266   */\n      tag_400\n      tag_357\n      jump\t// in\n    tag_400:\n      pop\n        /* \"#utility.yul\":6295:6361   */\n      0xffffffffffffffffffffffffffffffffffffffffffffffffffffffffffffffff\n        /* \"#utility.yul\":6284:6362   */\n      add\n      swap1\n        /* \"#utility.yul\":6172:6368   */\n      jump\t// out\n        /* \"#utility.yul\":7540:7724   */\n    tag_263:\n        /* \"#utility.yul\":7610:7616   */\n      0x00\n        /* \"#utility.yul\":7663:7665   */\n      0x20\n        /* \"#utility.yul\":7651:7660   */\n      dup3\n        /* \"#utility.yul\":7642:7649   */\n      dup5\n        /* \"#utility.yul\":7638:7661   */\n      sub\n        /* \"#utility.yul\":7634:7666   */\n      slt\n        /* \"#utility.yul\":7631:7683   */\n      iszero\n      tag_405\n      jumpi\n        /* \"#utility.yul\":7679:7680   */\n      0x00\n        /* \"#utility.yul\":7676:7677   */\n      dup1\n        /* \"#utility.yul\":7669:7681   */\n      revert\n        /* \"#utility.yul\":7631:7683   */\n    tag_405:\n      pop\n        /* \"#utility.yul\":7702:7718   */\n      mload\n      swap2\n        /* \"#utility.yul\":7540:7724   */\n      swap1\n      pop\n      jump\t// out\n        /* \"#utility.yul\":8089:8214   */\n    tag_271:\n        /* \"#utility.yul\":8129:8133   */\n      0x00\n        /* \"#utility.yul\":8157:8158   */\n      dup3\n        /* \"#utility.yul\":8154:8155   */\n      dup3\n        /* \"#utility.yul\":8151:8159   */\n      lt\n        /* \"#utility.yul\":8148:8182   */\n      iszero\n      tag_409\n      jumpi\n        /* \"#utility.yul\":8162:8180   */\n      tag_409\n      tag_357\n      jump\t// in\n    tag_409:\n      pop\n        /* \"#utility.yul\":8199:8208   */\n      sub\n      swap1\n        /* \"#utility.yul\":8089:8214   */\n      jump\t// out\n        /* \"#utility.yul\":8219:8447   */\n    tag_273:\n        /* \"#utility.yul\":8259:8266   */\n      0x00\n        /* \"#utility.yul\":8385:8386   */\n      dup2\n        /* \"#utility.yul\":8317:8383   */\n      0xffffffffffffffffffffffffffffffffffffffffffffffffffffffffffffffff\n        /* \"#utility.yul\":8313:8387   */\n      div\n        /* \"#utility.yul\":8310:8311   */\n      dup4\n        /* \"#utility.yul\":8307:8388   */\n      gt\n        /* \"#utility.yul\":8302:8303   */\n      dup3\n        /* \"#utility.yul\":8295:8304   */\n      iszero\n        /* \"#utility.yul\":8288:8305   */\n      iszero\n        /* \"#utility.yul\":8284:8389   */\n      and\n        /* \"#utility.yul\":8281:8412   */\n      iszero\n      tag_412\n      jumpi\n        /* \"#utility.yul\":8392:8410   */\n      tag_412\n      tag_357\n      jump\t// in\n    tag_412:\n      pop\n        /* \"#utility.yul\":8432:8441   */\n      mul\n      swap1\n        /* \"#utility.yul\":8219:8447   */\n      jump\t// out\n        /* \"#utility.yul\":8452:8726   */\n    tag_276:\n        /* \"#utility.yul\":8492:8493   */\n      0x00\n        /* \"#utility.yul\":8518:8519   */\n      dup3\n        /* \"#utility.yul\":8508:8697   */\n      tag_414\n      jumpi\n        /* \"#utility.yul\":8553:8630   */\n      0x4e487b7100000000000000000000000000000000000000000000000000000000\n        /* \"#utility.yul\":8550:8551   */\n      0x00\n        /* \"#utility.yul\":8543:8631   */\n      mstore\n        /* \"#utility.yul\":8654:8658   */\n      0x12\n        /* \"#utility.yul\":8651:8652   */\n      0x04\n        /* \"#utility.yul\":8644:8659   */\n      mstore\n        /* \"#utility.yul\":8682:8686   */\n      0x24\n        /* \"#utility.yul\":8679:8680   */\n      0x00\n        /* \"#utility.yul\":8672:8687   */\n      revert\n        /* \"#utility.yul\":8508:8697   */\n    tag_414:\n      pop\n        /* \"#utility.yul\":8711:8720   */\n      div\n      swap1\n        /* \"#utility.yul\":8452:8726   */\n      jump\t// out\n        /* \"#utility.yul\":9739:9990   */\n    tag_301:\n        /* \"#utility.yul\":9809:9815   */\n      0x00\n        /* \"#utility.yul\":9862:9864   */\n      0x20\n        /* \"#utility.yul\":9850:9859   */\n      dup3\n        /* \"#utility.yul\":9841:9848   */\n      dup5\n        /* \"#utility.yul\":9837:9860   */\n      sub\n        /* \"#utility.yul\":9833:9865   */\n      slt\n        /* \"#utility.yul\":9830:9882   */\n      iszero\n      tag_419\n      jumpi\n        /* \"#utility.yul\":9878:9879   */\n      0x00\n        /* \"#utility.yul\":9875:9876   */\n      dup1\n        /* \"#utility.yul\":9868:9880   */\n      revert\n        /* \"#utility.yul\":9830:9882   */\n    tag_419:\n        /* \"#utility.yul\":9910:9919   */\n      dup2\n        /* \"#utility.yul\":9904:9920   */\n      mload\n        /* \"#utility.yul\":9929:9960   */\n      tag_252\n        /* \"#utility.yul\":9954:9959   */\n      dup2\n        /* \"#utility.yul\":9929:9960   */\n      tag_355\n      jump\t// in\n        /* \"#utility.yul\":10344:10589   */\n    tag_323:\n        /* \"#utility.yul\":10411:10417   */\n      0x00\n        /* \"#utility.yul\":10464:10466   */\n      0x20\n        /* \"#utility.yul\":10452:10461   */\n      dup3\n        /* \"#utility.yul\":10443:10450   */\n      dup5\n        /* \"#utility.yul\":10439:10462   */\n      sub\n        /* \"#utility.yul\":10435:10467   */\n      slt\n        /* \"#utility.yul\":10432:10484   */\n      iszero\n      tag_423\n      jumpi\n        /* \"#utility.yul\":10480:10481   */\n      0x00\n        /* \"#utility.yul\":10477:10478   */\n      dup1\n        /* \"#utility.yul\":10470:10482   */\n      revert\n        /* \"#utility.yul\":10432:10484   */\n    tag_423:\n        /* \"#utility.yul\":10512:10521   */\n      dup2\n        /* \"#utility.yul\":10506:10522   */\n      mload\n        /* \"#utility.yul\":10531:10559   */\n      tag_252\n        /* \"#utility.yul\":10553:10558   */\n      dup2\n        /* \"#utility.yul\":10531:10559   */\n      tag_356\n      jump\t// in\n        /* \"#utility.yul\":11770:12028   */\n    tag_358:\n        /* \"#utility.yul\":11842:11843   */\n      0x00\n        /* \"#utility.yul\":11852:11965   */\n    tag_429:\n        /* \"#utility.yul\":11866:11872   */\n      dup4\n        /* \"#utility.yul\":11863:11864   */\n      dup2\n        /* \"#utility.yul\":11860:11873   */\n      lt\n        /* \"#utility.yul\":11852:11965   */\n      iszero\n      tag_431\n      jumpi\n        /* \"#utility.yul\":11942:11953   */\n      dup2\n      dup2\n      add\n        /* \"#utility.yul\":11936:11954   */\n      mload\n        /* \"#utility.yul\":11923:11934   */\n      dup4\n      dup3\n      add\n        /* \"#utility.yul\":11916:11955   */\n      mstore\n        /* \"#utility.yul\":11888:11890   */\n      0x20\n        /* \"#utility.yul\":11881:11891   */\n      add\n        /* \"#utility.yul\":11852:11965   */\n      jump(tag_429)\n    tag_431:\n        /* \"#utility.yul\":11983:11989   */\n      dup4\n        /* \"#utility.yul\":11980:11981   */\n      dup2\n        /* \"#utility.yul\":11977:11990   */\n      gt\n        /* \"#utility.yul\":11974:12022   */\n      iszero\n      tag_432\n      jumpi\n        /* \"#utility.yul\":12018:12019   */\n      0x00\n        /* \"#utility.yul\":12009:12015   */\n      dup5\n        /* \"#utility.yul\":12004:12007   */\n      dup5\n        /* \"#utility.yul\":12000:12016   */\n      add\n        /* \"#utility.yul\":11993:12020   */\n      mstore\n        /* \"#utility.yul\":11974:12022   */\n    tag_432:\n      pop\n        /* \"#utility.yul\":11770:12028   */\n      pop\n      pop\n      pop\n      jump\t// out\n        /* \"#utility.yul\":12033:12307   */\n    tag_341:\n        /* \"#utility.yul\":12162:12165   */\n      0x00\n        /* \"#utility.yul\":12200:12206   */\n      dup3\n        /* \"#utility.yul\":12194:12207   */\n      mload\n        /* \"#utility.yul\":12216:12269   */\n      tag_434\n        /* \"#utility.yul\":12262:12268   */\n      dup2\n        /* \"#utility.yul\":12257:12260   */\n      dup5\n        /* \"#utility.yul\":12250:12254   */\n      0x20\n        /* \"#utility.yul\":12242:12248   */\n      dup8\n        /* \"#utility.yul\":12238:12255   */\n      add\n        /* \"#utility.yul\":12216:12269   */\n      tag_358\n      jump\t// in\n    tag_434:\n        /* \"#utility.yul\":12285:12301   */\n      swap2\n      swap1\n      swap2\n      add\n      swap3\n        /* \"#utility.yul\":12033:12307   */\n      swap2\n      pop\n      pop\n      jump\t// out\n        /* \"#utility.yul\":12312:12754   */\n    tag_354:\n        /* \"#utility.yul\":12461:12463   */\n      0x20\n        /* \"#utility.yul\":12450:12459   */\n      dup2\n        /* \"#utility.yul\":12443:12464   */\n      mstore\n        /* \"#utility.yul\":12424:12428   */\n      0x00\n        /* \"#utility.yul\":12493:12499   */\n      dup3\n        /* \"#utility.yul\":12487:12500   */\n      mload\n        /* \"#utility.yul\":12536:12542   */\n      dup1\n        /* \"#utility.yul\":12531:12533   */\n      0x20\n        /* \"#utility.yul\":12520:12529   */\n      dup5\n        /* \"#utility.yul\":12516:12534   */\n      add\n        /* \"#utility.yul\":12509:12543   */\n      mstore\n        /* \"#utility.yul\":12552:12618   */\n      tag_436\n        /* \"#utility.yul\":12611:12617   */\n      dup2\n        /* \"#utility.yul\":12606:12608   */\n      0x40\n        /* \"#utility.yul\":12595:12604   */\n      dup6\n        /* \"#utility.yul\":12591:12609   */\n      add\n        /* \"#utility.yul\":12586:12588   */\n      0x20\n        /* \"#utility.yul\":12578:12584   */\n      dup8\n        /* \"#utility.yul\":12574:12589   */\n      add\n        /* \"#utility.yul\":12552:12618   */\n      tag_358\n      jump\t// in\n    tag_436:\n        /* \"#utility.yul\":12670:12672   */\n      0x1f\n        /* \"#utility.yul\":12658:12673   */\n      add\n        /* \"#utility.yul\":12675:12741   */\n      0xffffffffffffffffffffffffffffffffffffffffffffffffffffffffffffffe0\n        /* \"#utility.yul\":12654:12742   */\n      and\n        /* \"#utility.yul\":12639:12743   */\n      swap2\n      swap1\n      swap2\n      add\n        /* \"#utility.yul\":12745:12747   */\n      0x40\n        /* \"#utility.yul\":12635:12748   */\n      add\n      swap3\n        /* \"#utility.yul\":12312:12754   */\n      swap2\n      pop\n      pop\n      jump\t// out\n\n    auxdata: 0xa2646970667358221220bdf3528e588d7bf97f87d9135be027f592d647bd5a070d70520dc4aa1ad36ded64736f6c634300080c0033\n}\n",
				"bytecode": {
					"linkReferences": {},
					"object": "6080604052620186a060055560036006556007805460ff1916905560006008553480156200002c57600080fd5b5060405162001ea138038062001ea18339810160408190526200004f9162000138565b60016000819055805460ff191690556200006933620000c5565b600380546001600160a01b039687166001600160a01b0319918216811790925560048054821690921790915560028054959096169416939093179093556005556008556007805491151560ff19909216919091179055620001a4565b600180546001600160a01b03838116610100818102610100600160a81b031985161790945560405193909204169182907f8be0079c531659141344cd1fd0a4f28419497f9722a3daafe3b4186f6b6457e090600090a35050565b6001600160a01b03811681146200013557600080fd5b50565b600080600080600060a086880312156200015157600080fd5b85516200015e816200011f565b602087015190955062000171816200011f565b60408701516060880151919550935080151581146200018f57600080fd5b80925050608086015190509295509295909350565b611ced80620001b46000396000f3fe608060405234801561001057600080fd5b506004361061018d5760003560e01c8063715018a6116100e3578063ae04d45d1161008c578063f2fde38b11610066578063f2fde38b146103c5578063f854a27f146103d8578063f995441b146103eb57600080fd5b8063ae04d45d1461037f578063b5a5e50914610392578063d1af0c7d146103a557600080fd5b80639168ae72116100bd5780639168ae72146102ec5780639406704514610336578063a694fc3a1461036c57600080fd5b8063715018a6146102b85780638da5cb5b146102c05780638e7271fa146102e357600080fd5b8063372500ab1161014557806363c28db11161011f57806363c28db1146102405780636588103b146102605780636aa4439f146102a557600080fd5b8063372500ab1461022457806354fd4d501461022c5780635c975abb1461023557600080fd5b8063114cd3c811610176578063114cd3c8146101d25780632e1a7d4d146101f25780633166b8481461020757600080fd5b80630c2517a8146101925780630d668087146101bb575b600080fd5b6101a56101a03660046118fd565b6103f3565b6040516101b2919061191a565b60405180910390f35b6101c460085481565b6040519081526020016101b2565b6101c46101e0366004611989565b600b6020526000908152604090205481565b610205610200366004611989565b6106a4565b005b6007546102149060ff1681565b60405190151581526020016101b2565b610205610b0e565b6101c460065481565b60015460ff16610214565b61025361024e3660046118fd565b610be8565b6040516101b291906119a2565b6003546102809073ffffffffffffffffffffffffffffffffffffffff1681565b60405173ffffffffffffffffffffffffffffffffffffffff90911681526020016101b2565b6102056102b3366004611a08565b610d04565b610205610d3d565b600154610100900473ffffffffffffffffffffffffffffffffffffffff16610280565b6101c460055481565b61031b6102fa3660046118fd565b60096020526000908152604090208054600282015460039092015490919083565b604080519384526020840192909252908201526060016101b2565b610280610344366004611989565b600a6020526000908152604090205473ffffffffffffffffffffffffffffffffffffffff1681565b61020561037a366004611989565b610d51565b61020561038d366004611989565b610d75565b6102056103a0366004611989565b610d82565b6002546102809073ffffffffffffffffffffffffffffffffffffffff1681565b6102056103d33660046118fd565b610d8f565b6101c46103e63660046118fd565b610e43565b610205610e88565b73ffffffffffffffffffffffffffffffffffffffff81166000908152600960205260409020546060901561063a5773ffffffffffffffffffffffffffffffffffffffff821660009081526009602052604081205467ffffffffffffffff81111561045f5761045f611a25565b6040519080825280602002602001820160405280156104ca57816020015b6104b76040518060600160405280600073ffffffffffffffffffffffffffffffffffffffff16815260200160008152602001600081525090565b81526020019060019003908161047d5790505b5090506000805b73ffffffffffffffffffffffffffffffffffffffff85166000908152600960205260409020600101548110156106315773ffffffffffffffffffffffffffffffffffffffff8516600090815260096020526040812060010180548390811061053b5761053b611a54565b600091825260209091206003909102015473ffffffffffffffffffffffffffffffffffffffff161461061f5773ffffffffffffffffffffffffffffffffffffffff851660009081526009602052604090206001018054829081106105a1576105a1611a54565b6000918252602091829020604080516060810182526003909302909101805473ffffffffffffffffffffffffffffffffffffffff16835260018101549383019390935260029092015491810191909152835184908490811061060557610605611a54565b6020026020010181905250818061061b90611ab2565b9250505b8061062981611ab2565b9150506104d1565b50909392505050565b604080516000808252602082019092529061069d565b61068a6040518060600160405280600073ffffffffffffffffffffffffffffffffffffffff16815260200160008152602001600081525090565b8152602001906001900390816106505790505b5092915050565b6106ac610f52565b33600090815260096020526040902054610727576040517f08c379a000000000000000000000000000000000000000000000000000000000815260206004820152601960248201527f596f752068617665206e6f20746f6b656e73207374616b65640000000000000060448201526064015b60405180910390fd5b6000818152600a602052604090205473ffffffffffffffffffffffffffffffffffffffff1633146107b4576040517f08c379a000000000000000000000000000000000000000000000000000000000815260206004820152601960248201527f596f7520646f6e2774206f776e207468697320746f6b656e2100000000000000604482015260640161071e565b60075460ff1680156107e057506008546000828152600b602052604090205442916107de91611aeb565b105b806107ee575060075460ff16155b61087a576040517f08c379a000000000000000000000000000000000000000000000000000000000815260206004820152602360248201527f546f6b656e206c6f636b2074696d6520686173206e6f7420796574206578706960448201527f7265640000000000000000000000000000000000000000000000000000000000606482015260840161071e565b600061088533610fc6565b336000908152600960205260408120600301805492935083929091906108ac908490611aeb565b9091555060009050805b3360009081526009602052604090206001015481101561097e573360009081526009602052604090206001018054859190839081106108f7576108f7611a54565b90600052602060002090600302016001015414801561095f575033600090815260096020526040812060010180548390811061093557610935611a54565b600091825260209091206003909102015473ffffffffffffffffffffffffffffffffffffffff1614155b1561096c5780915061097e565b8061097681611ab2565b9150506108b6565b503360009081526009602052604081206001018054839081106109a3576109a3611a54565b6000918252602080832060039290920290910180547fffffffffffffffffffffffff00000000000000000000000000000000000000001673ffffffffffffffffffffffffffffffffffffffff9490941693909317909255338152600990915260408120805491610a1283611b03565b90915550506000838152600a6020908152604080832080547fffffffffffffffffffffffff0000000000000000000000000000000000000000169055600b9091528082209190915560035490517f23b872dd0000000000000000000000000000000000000000000000000000000081523060048201523360248201526044810185905273ffffffffffffffffffffffffffffffffffffffff909116906323b872dd90606401600060405180830381600087803b158015610ad157600080fd5b505af1158015610ae5573d6000803e3d6000fd5b50503360009081526009602052604090204260029091015550610b0b925061102d915050565b50565b336000818152600960205260408120600301549091610b2c90610fc6565b610b369190611aeb565b905060008111610ba2576040517f08c379a000000000000000000000000000000000000000000000000000000000815260206004820152601c60248201527f596f752068617665206e6f207265776172647320746f20636c61696d00000000604482015260640161071e565b3360008181526009602052604081204260028083019190915560039091019190915554610b0b9173ffffffffffffffffffffffffffffffffffffffff9091169083611034565b60606000610bf5836103f3565b90506000815167ffffffffffffffff811115610c1357610c13611a25565b604051908082528060200260200182016040528015610c5857816020015b6040805180820190915260008082526020820152815260200190600190039081610c315790505b50905060005b8251811115610cfc576040518060400160405280848381518110610c8457610c84611a54565b60200260200101516000015173ffffffffffffffffffffffffffffffffffffffff168152602001848381518110610cbd57610cbd611a54565b602002602001015160200151815250828281518110610cde57610cde611a54565b60200260200101819052508080610cf490611ab2565b915050610c5e565b509392505050565b610d0c6110c6565b600780547fffffffffffffffffffffffffffffffffffffffffffffffffffffffffffffff0016911515919091179055565b610d456110c6565b610d4f600061114d565b565b610d59610f52565b610d616111cb565b610d6b3382611238565b610b0b6001600055565b610d7d6110c6565b600855565b610d8a6110c6565b600555565b610d976110c6565b73ffffffffffffffffffffffffffffffffffffffff8116610e3a576040517f08c379a000000000000000000000000000000000000000000000000000000000815260206004820152602660248201527f4f776e61626c653a206e6577206f776e657220697320746865207a65726f206160448201527f6464726573730000000000000000000000000000000000000000000000000000606482015260840161071e565b610b0b8161114d565b73ffffffffffffffffffffffffffffffffffffffff81166000908152600960205260408120600301548190610e7784610fc6565b610e819190611aeb565b9392505050565b610e906110c6565b610e98611579565b6002546040517f70a0823100000000000000000000000000000000000000000000000000000000815230600482015260009173ffffffffffffffffffffffffffffffffffffffff16906370a0823190602401602060405180830381865afa158015610f07573d6000803e3d6000fd5b505050506040513d601f19601f82011682018060405250810190610f2b9190611b38565b600254909150610b0b9073ffffffffffffffffffffffffffffffffffffffff163383611034565b60026000541415610fbf576040517f08c379a000000000000000000000000000000000000000000000000000000000815260206004820152601f60248201527f5265656e7472616e637947756172643a207265656e7472616e742063616c6c00604482015260640161071e565b6002600055565b60055473ffffffffffffffffffffffffffffffffffffffff8216600090815260096020526040812080546002909101549192610e10929091906110099042611b51565b6110139190611b68565b61101d9190611b68565b6110279190611ba5565b92915050565b6001600055565b6040805173ffffffffffffffffffffffffffffffffffffffff8416602482015260448082018490528251808303909101815260649091019091526020810180517bffffffffffffffffffffffffffffffffffffffffffffffffffffffff167fa9059cbb000000000000000000000000000000000000000000000000000000001790526110c19084906115e5565b505050565b60015473ffffffffffffffffffffffffffffffffffffffff610100909104163314610d4f576040517f08c379a000000000000000000000000000000000000000000000000000000000815260206004820181905260248201527f4f776e61626c653a2063616c6c6572206973206e6f7420746865206f776e6572604482015260640161071e565b6001805473ffffffffffffffffffffffffffffffffffffffff8381166101008181027fffffffffffffffffffffff0000000000000000000000000000000000000000ff85161790945560405193909204169182907f8be0079c531659141344cd1fd0a4f28419497f9722a3daafe3b4186f6b6457e090600090a35050565b60015460ff1615610d4f576040517f08c379a000000000000000000000000000000000000000000000000000000000815260206004820152601060248201527f5061757361626c653a2070617573656400000000000000000000000000000000604482015260640161071e565b6003546040517f6352211e0000000000000000000000000000000000000000000000000000000081526004810183905273ffffffffffffffffffffffffffffffffffffffff848116921690636352211e90602401602060405180830381865afa1580156112a9573d6000803e3d6000fd5b505050506040513d601f19601f820116820180604052508101906112cd9190611be0565b73ffffffffffffffffffffffffffffffffffffffff161461134a576040517f08c379a000000000000000000000000000000000000000000000000000000000815260206004820152601960248201527f596f7520646f6e2774206f776e207468697320746f6b656e2100000000000000604482015260640161071e565b73ffffffffffffffffffffffffffffffffffffffff8216600090815260096020526040902054156113c457600061138083610fc6565b73ffffffffffffffffffffffffffffffffffffffff84166000908152600960205260408120600301805492935083929091906113bd908490611aeb565b9091555050505b6003546040517f23b872dd00000000000000000000000000000000000000000000000000000000815273ffffffffffffffffffffffffffffffffffffffff848116600483015230602483015260448201849052909116906323b872dd90606401600060405180830381600087803b15801561143e57600080fd5b505af1158015611452573d6000803e3d6000fd5b50506040805160608101825273ffffffffffffffffffffffffffffffffffffffff868116808352602080840188815242858701908152600084815260098452968720600180820180548083018255908a52948920885160039096020180547fffffffffffffffffffffffff000000000000000000000000000000000000000016959097169490941786559151928501929092559051600290930192909255835280549194509092509061150483611ab2565b9091555050506000908152600a60209081526040808320805473ffffffffffffffffffffffffffffffffffffffff9095167fffffffffffffffffffffffff000000000000000000000000000000000000000090951685179055600b825280832042908190559383526009909152902060020155565b60015460ff16610d4f576040517f08c379a000000000000000000000000000000000000000000000000000000000815260206004820152601460248201527f5061757361626c653a206e6f7420706175736564000000000000000000000000604482015260640161071e565b6000611647826040518060400160405280602081526020017f5361666545524332303a206c6f772d6c6576656c2063616c6c206661696c65648152508573ffffffffffffffffffffffffffffffffffffffff166116f19092919063ffffffff16565b8051909150156110c157808060200190518101906116659190611bfd565b6110c1576040517f08c379a000000000000000000000000000000000000000000000000000000000815260206004820152602a60248201527f5361666545524332303a204552433230206f7065726174696f6e20646964206e60448201527f6f74207375636365656400000000000000000000000000000000000000000000606482015260840161071e565b60606117008484600085611708565b949350505050565b60608247101561179a576040517f08c379a000000000000000000000000000000000000000000000000000000000815260206004820152602660248201527f416464726573733a20696e73756666696369656e742062616c616e636520666f60448201527f722063616c6c0000000000000000000000000000000000000000000000000000606482015260840161071e565b843b611802576040517f08c379a000000000000000000000000000000000000000000000000000000000815260206004820152601d60248201527f416464726573733a2063616c6c20746f206e6f6e2d636f6e7472616374000000604482015260640161071e565b6000808673ffffffffffffffffffffffffffffffffffffffff16858760405161182b9190611c4a565b60006040518083038185875af1925050503d8060008114611868576040519150601f19603f3d011682016040523d82523d6000602084013e61186d565b606091505b509150915061187d828286611888565b979650505050505050565b60608315611897575081610e81565b8251156118a75782518084602001fd5b816040517f08c379a000000000000000000000000000000000000000000000000000000000815260040161071e9190611c66565b73ffffffffffffffffffffffffffffffffffffffff81168114610b0b57600080fd5b60006020828403121561190f57600080fd5b8135610e81816118db565b602080825282518282018190526000919060409081850190868401855b8281101561197c578151805173ffffffffffffffffffffffffffffffffffffffff16855286810151878601528501518585015260609093019290850190600101611937565b5091979650505050505050565b60006020828403121561199b57600080fd5b5035919050565b602080825282518282018190526000919060409081850190868401855b8281101561197c578151805173ffffffffffffffffffffffffffffffffffffffff1685528601518685015292840192908501906001016119bf565b8015158114610b0b57600080fd5b600060208284031215611a1a57600080fd5b8135610e81816119fa565b7f4e487b7100000000000000000000000000000000000000000000000000000000600052604160045260246000fd5b7f4e487b7100000000000000000000000000000000000000000000000000000000600052603260045260246000fd5b7f4e487b7100000000000000000000000000000000000000000000000000000000600052601160045260246000fd5b60007fffffffffffffffffffffffffffffffffffffffffffffffffffffffffffffffff821415611ae457611ae4611a83565b5060010190565b60008219821115611afe57611afe611a83565b500190565b600081611b1257611b12611a83565b507fffffffffffffffffffffffffffffffffffffffffffffffffffffffffffffffff0190565b600060208284031215611b4a57600080fd5b5051919050565b600082821015611b6357611b63611a83565b500390565b6000817fffffffffffffffffffffffffffffffffffffffffffffffffffffffffffffffff0483118215151615611ba057611ba0611a83565b500290565b600082611bdb577f4e487b7100000000000000000000000000000000000000000000000000000000600052601260045260246000fd5b500490565b600060208284031215611bf257600080fd5b8151610e81816118db565b600060208284031215611c0f57600080fd5b8151610e81816119fa565b60005b83811015611c35578181015183820152602001611c1d565b83811115611c44576000848401525b50505050565b60008251611c5c818460208701611c1a565b9190910192915050565b6020815260008251806020840152611c85816040850160208701611c1a565b601f017fffffffffffffffffffffffffffffffffffffffffffffffffffffffffffffffe016919091016040019291505056fea2646970667358221220bdf3528e588d7bf97f87d9135be027f592d647bd5a070d70520dc4aa1ad36ded64736f6c634300080c0033",
					"opcodes": "PUSH1 0x80 PUSH1 0x40 MSTORE PUSH3 0x186A0 PUSH1 0x5 SSTORE PUSH1 0x3 PUSH1 0x6 SSTORE PUSH1 0x7 DUP1 SLOAD PUSH1 0xFF NOT AND SWAP1 SSTORE PUSH1 0x0 PUSH1 0x8 SSTORE CALLVALUE DUP1 ISZERO PUSH3 0x2C JUMPI PUSH1 0x0 DUP1 REVERT JUMPDEST POP PUSH1 0x40 MLOAD PUSH3 0x1EA1 CODESIZE SUB DUP1 PUSH3 0x1EA1 DUP4 CODECOPY DUP2 ADD PUSH1 0x40 DUP2 SWAP1 MSTORE PUSH3 0x4F SWAP2 PUSH3 0x138 JUMP JUMPDEST PUSH1 0x1 PUSH1 0x0 DUP2 SWAP1 SSTORE DUP1 SLOAD PUSH1 0xFF NOT AND SWAP1 SSTORE PUSH3 0x69 CALLER PUSH3 0xC5 JUMP JUMPDEST PUSH1 0x3 DUP1 SLOAD PUSH1 0x1 PUSH1 0x1 PUSH1 0xA0 SHL SUB SWAP7 DUP8 AND PUSH1 0x1 PUSH1 0x1 PUSH1 0xA0 SHL SUB NOT SWAP2 DUP3 AND DUP2 OR SWAP1 SWAP3 SSTORE PUSH1 0x4 DUP1 SLOAD DUP3 AND SWAP1 SWAP3 OR SWAP1 SWAP2 SSTORE PUSH1 0x2 DUP1 SLOAD SWAP6 SWAP1 SWAP7 AND SWAP5 AND SWAP4 SWAP1 SWAP4 OR SWAP1 SWAP4 SSTORE PUSH1 0x5 SSTORE PUSH1 0x8 SSTORE PUSH1 0x7 DUP1 SLOAD SWAP2 ISZERO ISZERO PUSH1 0xFF NOT SWAP1 SWAP3 AND SWAP2 SWAP1 SWAP2 OR SWAP1 SSTORE PUSH3 0x1A4 JUMP JUMPDEST PUSH1 0x1 DUP1 SLOAD PUSH1 0x1 PUSH1 0x1 PUSH1 0xA0 SHL SUB DUP4 DUP2 AND PUSH2 0x100 DUP2 DUP2 MUL PUSH2 0x100 PUSH1 0x1 PUSH1 0xA8 SHL SUB NOT DUP6 AND OR SWAP1 SWAP5 SSTORE PUSH1 0x40 MLOAD SWAP4 SWAP1 SWAP3 DIV AND SWAP2 DUP3 SWAP1 PUSH32 0x8BE0079C531659141344CD1FD0A4F28419497F9722A3DAAFE3B4186F6B6457E0 SWAP1 PUSH1 0x0 SWAP1 LOG3 POP POP JUMP JUMPDEST PUSH1 0x1 PUSH1 0x1 PUSH1 0xA0 SHL SUB DUP2 AND DUP2 EQ PUSH3 0x135 JUMPI PUSH1 0x0 DUP1 REVERT JUMPDEST POP JUMP JUMPDEST PUSH1 0x0 DUP1 PUSH1 0x0 DUP1 PUSH1 0x0 PUSH1 0xA0 DUP7 DUP9 SUB SLT ISZERO PUSH3 0x151 JUMPI PUSH1 0x0 DUP1 REVERT JUMPDEST DUP6 MLOAD PUSH3 0x15E DUP2 PUSH3 0x11F JUMP JUMPDEST PUSH1 0x20 DUP8 ADD MLOAD SWAP1 SWAP6 POP PUSH3 0x171 DUP2 PUSH3 0x11F JUMP JUMPDEST PUSH1 0x40 DUP8 ADD MLOAD PUSH1 0x60 DUP9 ADD MLOAD SWAP2 SWAP6 POP SWAP4 POP DUP1 ISZERO ISZERO DUP2 EQ PUSH3 0x18F JUMPI PUSH1 0x0 DUP1 REVERT JUMPDEST DUP1 SWAP3 POP POP PUSH1 0x80 DUP7 ADD MLOAD SWAP1 POP SWAP3 SWAP6 POP SWAP3 SWAP6 SWAP1 SWAP4 POP JUMP JUMPDEST PUSH2 0x1CED DUP1 PUSH3 0x1B4 PUSH1 0x0 CODECOPY PUSH1 0x0 RETURN INVALID PUSH1 0x80 PUSH1 0x40 MSTORE CALLVALUE DUP1 ISZERO PUSH2 0x10 JUMPI PUSH1 0x0 DUP1 REVERT JUMPDEST POP PUSH1 0x4 CALLDATASIZE LT PUSH2 0x18D JUMPI PUSH1 0x0 CALLDATALOAD PUSH1 0xE0 SHR DUP1 PUSH4 0x715018A6 GT PUSH2 0xE3 JUMPI DUP1 PUSH4 0xAE04D45D GT PUSH2 0x8C JUMPI DUP1 PUSH4 0xF2FDE38B GT PUSH2 0x66 JUMPI DUP1 PUSH4 0xF2FDE38B EQ PUSH2 0x3C5 JUMPI DUP1 PUSH4 0xF854A27F EQ PUSH2 0x3D8 JUMPI DUP1 PUSH4 0xF995441B EQ PUSH2 0x3EB JUMPI PUSH1 0x0 DUP1 REVERT JUMPDEST DUP1 PUSH4 0xAE04D45D EQ PUSH2 0x37F JUMPI DUP1 PUSH4 0xB5A5E509 EQ PUSH2 0x392 JUMPI DUP1 PUSH4 0xD1AF0C7D EQ PUSH2 0x3A5 JUMPI PUSH1 0x0 DUP1 REVERT JUMPDEST DUP1 PUSH4 0x9168AE72 GT PUSH2 0xBD JUMPI DUP1 PUSH4 0x9168AE72 EQ PUSH2 0x2EC JUMPI DUP1 PUSH4 0x94067045 EQ PUSH2 0x336 JUMPI DUP1 PUSH4 0xA694FC3A EQ PUSH2 0x36C JUMPI PUSH1 0x0 DUP1 REVERT JUMPDEST DUP1 PUSH4 0x715018A6 EQ PUSH2 0x2B8 JUMPI DUP1 PUSH4 0x8DA5CB5B EQ PUSH2 0x2C0 JUMPI DUP1 PUSH4 0x8E7271FA EQ PUSH2 0x2E3 JUMPI PUSH1 0x0 DUP1 REVERT JUMPDEST DUP1 PUSH4 0x372500AB GT PUSH2 0x145 JUMPI DUP1 PUSH4 0x63C28DB1 GT PUSH2 0x11F JUMPI DUP1 PUSH4 0x63C28DB1 EQ PUSH2 0x240 JUMPI DUP1 PUSH4 0x6588103B EQ PUSH2 0x260 JUMPI DUP1 PUSH4 0x6AA4439F EQ PUSH2 0x2A5 JUMPI PUSH1 0x0 DUP1 REVERT JUMPDEST DUP1 PUSH4 0x372500AB EQ PUSH2 0x224 JUMPI DUP1 PUSH4 0x54FD4D50 EQ PUSH2 0x22C JUMPI DUP1 PUSH4 0x5C975ABB EQ PUSH2 0x235 JUMPI PUSH1 0x0 DUP1 REVERT JUMPDEST DUP1 PUSH4 0x114CD3C8 GT PUSH2 0x176 JUMPI DUP1 PUSH4 0x114CD3C8 EQ PUSH2 0x1D2 JUMPI DUP1 PUSH4 0x2E1A7D4D EQ PUSH2 0x1F2 JUMPI DUP1 PUSH4 0x3166B848 EQ PUSH2 0x207 JUMPI PUSH1 0x0 DUP1 REVERT JUMPDEST DUP1 PUSH4 0xC2517A8 EQ PUSH2 0x192 JUMPI DUP1 PUSH4 0xD668087 EQ PUSH2 0x1BB JUMPI JUMPDEST PUSH1 0x0 DUP1 REVERT JUMPDEST PUSH2 0x1A5 PUSH2 0x1A0 CALLDATASIZE PUSH1 0x4 PUSH2 0x18FD JUMP JUMPDEST PUSH2 0x3F3 JUMP JUMPDEST PUSH1 0x40 MLOAD PUSH2 0x1B2 SWAP2 SWAP1 PUSH2 0x191A JUMP JUMPDEST PUSH1 0x40 MLOAD DUP1 SWAP2 SUB SWAP1 RETURN JUMPDEST PUSH2 0x1C4 PUSH1 0x8 SLOAD DUP2 JUMP JUMPDEST PUSH1 0x40 MLOAD SWAP1 DUP2 MSTORE PUSH1 0x20 ADD PUSH2 0x1B2 JUMP JUMPDEST PUSH2 0x1C4 PUSH2 0x1E0 CALLDATASIZE PUSH1 0x4 PUSH2 0x1989 JUMP JUMPDEST PUSH1 0xB PUSH1 0x20 MSTORE PUSH1 0x0 SWAP1 DUP2 MSTORE PUSH1 0x40 SWAP1 KECCAK256 SLOAD DUP2 JUMP JUMPDEST PUSH2 0x205 PUSH2 0x200 CALLDATASIZE PUSH1 0x4 PUSH2 0x1989 JUMP JUMPDEST PUSH2 0x6A4 JUMP JUMPDEST STOP JUMPDEST PUSH1 0x7 SLOAD PUSH2 0x214 SWAP1 PUSH1 0xFF AND DUP2 JUMP JUMPDEST PUSH1 0x40 MLOAD SWAP1 ISZERO ISZERO DUP2 MSTORE PUSH1 0x20 ADD PUSH2 0x1B2 JUMP JUMPDEST PUSH2 0x205 PUSH2 0xB0E JUMP JUMPDEST PUSH2 0x1C4 PUSH1 0x6 SLOAD DUP2 JUMP JUMPDEST PUSH1 0x1 SLOAD PUSH1 0xFF AND PUSH2 0x214 JUMP JUMPDEST PUSH2 0x253 PUSH2 0x24E CALLDATASIZE PUSH1 0x4 PUSH2 0x18FD JUMP JUMPDEST PUSH2 0xBE8 JUMP JUMPDEST PUSH1 0x40 MLOAD PUSH2 0x1B2 SWAP2 SWAP1 PUSH2 0x19A2 JUMP JUMPDEST PUSH1 0x3 SLOAD PUSH2 0x280 SWAP1 PUSH20 0xFFFFFFFFFFFFFFFFFFFFFFFFFFFFFFFFFFFFFFFF AND DUP2 JUMP JUMPDEST PUSH1 0x40 MLOAD PUSH20 0xFFFFFFFFFFFFFFFFFFFFFFFFFFFFFFFFFFFFFFFF SWAP1 SWAP2 AND DUP2 MSTORE PUSH1 0x20 ADD PUSH2 0x1B2 JUMP JUMPDEST PUSH2 0x205 PUSH2 0x2B3 CALLDATASIZE PUSH1 0x4 PUSH2 0x1A08 JUMP JUMPDEST PUSH2 0xD04 JUMP JUMPDEST PUSH2 0x205 PUSH2 0xD3D JUMP JUMPDEST PUSH1 0x1 SLOAD PUSH2 0x100 SWAP1 DIV PUSH20 0xFFFFFFFFFFFFFFFFFFFFFFFFFFFFFFFFFFFFFFFF AND PUSH2 0x280 JUMP JUMPDEST PUSH2 0x1C4 PUSH1 0x5 SLOAD DUP2 JUMP JUMPDEST PUSH2 0x31B PUSH2 0x2FA CALLDATASIZE PUSH1 0x4 PUSH2 0x18FD JUMP JUMPDEST PUSH1 0x9 PUSH1 0x20 MSTORE PUSH1 0x0 SWAP1 DUP2 MSTORE PUSH1 0x40 SWAP1 KECCAK256 DUP1 SLOAD PUSH1 0x2 DUP3 ADD SLOAD PUSH1 0x3 SWAP1 SWAP3 ADD SLOAD SWAP1 SWAP2 SWAP1 DUP4 JUMP JUMPDEST PUSH1 0x40 DUP1 MLOAD SWAP4 DUP5 MSTORE PUSH1 0x20 DUP5 ADD SWAP3 SWAP1 SWAP3 MSTORE SWAP1 DUP3 ADD MSTORE PUSH1 0x60 ADD PUSH2 0x1B2 JUMP JUMPDEST PUSH2 0x280 PUSH2 0x344 CALLDATASIZE PUSH1 0x4 PUSH2 0x1989 JUMP JUMPDEST PUSH1 0xA PUSH1 0x20 MSTORE PUSH1 0x0 SWAP1 DUP2 MSTORE PUSH1 0x40 SWAP1 KECCAK256 SLOAD PUSH20 0xFFFFFFFFFFFFFFFFFFFFFFFFFFFFFFFFFFFFFFFF AND DUP2 JUMP JUMPDEST PUSH2 0x205 PUSH2 0x37A CALLDATASIZE PUSH1 0x4 PUSH2 0x1989 JUMP JUMPDEST PUSH2 0xD51 JUMP JUMPDEST PUSH2 0x205 PUSH2 0x38D CALLDATASIZE PUSH1 0x4 PUSH2 0x1989 JUMP JUMPDEST PUSH2 0xD75 JUMP JUMPDEST PUSH2 0x205 PUSH2 0x3A0 CALLDATASIZE PUSH1 0x4 PUSH2 0x1989 JUMP JUMPDEST PUSH2 0xD82 JUMP JUMPDEST PUSH1 0x2 SLOAD PUSH2 0x280 SWAP1 PUSH20 0xFFFFFFFFFFFFFFFFFFFFFFFFFFFFFFFFFFFFFFFF AND DUP2 JUMP JUMPDEST PUSH2 0x205 PUSH2 0x3D3 CALLDATASIZE PUSH1 0x4 PUSH2 0x18FD JUMP JUMPDEST PUSH2 0xD8F JUMP JUMPDEST PUSH2 0x1C4 PUSH2 0x3E6 CALLDATASIZE PUSH1 0x4 PUSH2 0x18FD JUMP JUMPDEST PUSH2 0xE43 JUMP JUMPDEST PUSH2 0x205 PUSH2 0xE88 JUMP JUMPDEST PUSH20 0xFFFFFFFFFFFFFFFFFFFFFFFFFFFFFFFFFFFFFFFF DUP2 AND PUSH1 0x0 SWAP1 DUP2 MSTORE PUSH1 0x9 PUSH1 0x20 MSTORE PUSH1 0x40 SWAP1 KECCAK256 SLOAD PUSH1 0x60 SWAP1 ISZERO PUSH2 0x63A JUMPI PUSH20 0xFFFFFFFFFFFFFFFFFFFFFFFFFFFFFFFFFFFFFFFF DUP3 AND PUSH1 0x0 SWAP1 DUP2 MSTORE PUSH1 0x9 PUSH1 0x20 MSTORE PUSH1 0x40 DUP2 KECCAK256 SLOAD PUSH8 0xFFFFFFFFFFFFFFFF DUP2 GT ISZERO PUSH2 0x45F JUMPI PUSH2 0x45F PUSH2 0x1A25 JUMP JUMPDEST PUSH1 0x40 MLOAD SWAP1 DUP1 DUP3 MSTORE DUP1 PUSH1 0x20 MUL PUSH1 0x20 ADD DUP3 ADD PUSH1 0x40 MSTORE DUP1 ISZERO PUSH2 0x4CA JUMPI DUP2 PUSH1 0x20 ADD JUMPDEST PUSH2 0x4B7 PUSH1 0x40 MLOAD DUP1 PUSH1 0x60 ADD PUSH1 0x40 MSTORE DUP1 PUSH1 0x0 PUSH20 0xFFFFFFFFFFFFFFFFFFFFFFFFFFFFFFFFFFFFFFFF AND DUP2 MSTORE PUSH1 0x20 ADD PUSH1 0x0 DUP2 MSTORE PUSH1 0x20 ADD PUSH1 0x0 DUP2 MSTORE POP SWAP1 JUMP JUMPDEST DUP2 MSTORE PUSH1 0x20 ADD SWAP1 PUSH1 0x1 SWAP1 SUB SWAP1 DUP2 PUSH2 0x47D JUMPI SWAP1 POP JUMPDEST POP SWAP1 POP PUSH1 0x0 DUP1 JUMPDEST PUSH20 0xFFFFFFFFFFFFFFFFFFFFFFFFFFFFFFFFFFFFFFFF DUP6 AND PUSH1 0x0 SWAP1 DUP2 MSTORE PUSH1 0x9 PUSH1 0x20 MSTORE PUSH1 0x40 SWAP1 KECCAK256 PUSH1 0x1 ADD SLOAD DUP2 LT ISZERO PUSH2 0x631 JUMPI PUSH20 0xFFFFFFFFFFFFFFFFFFFFFFFFFFFFFFFFFFFFFFFF DUP6 AND PUSH1 0x0 SWAP1 DUP2 MSTORE PUSH1 0x9 PUSH1 0x20 MSTORE PUSH1 0x40 DUP2 KECCAK256 PUSH1 0x1 ADD DUP1 SLOAD DUP4 SWAP1 DUP2 LT PUSH2 0x53B JUMPI PUSH2 0x53B PUSH2 0x1A54 JUMP JUMPDEST PUSH1 0x0 SWAP2 DUP3 MSTORE PUSH1 0x20 SWAP1 SWAP2 KECCAK256 PUSH1 0x3 SWAP1 SWAP2 MUL ADD SLOAD PUSH20 0xFFFFFFFFFFFFFFFFFFFFFFFFFFFFFFFFFFFFFFFF AND EQ PUSH2 0x61F JUMPI PUSH20 0xFFFFFFFFFFFFFFFFFFFFFFFFFFFFFFFFFFFFFFFF DUP6 AND PUSH1 0x0 SWAP1 DUP2 MSTORE PUSH1 0x9 PUSH1 0x20 MSTORE PUSH1 0x40 SWAP1 KECCAK256 PUSH1 0x1 ADD DUP1 SLOAD DUP3 SWAP1 DUP2 LT PUSH2 0x5A1 JUMPI PUSH2 0x5A1 PUSH2 0x1A54 JUMP JUMPDEST PUSH1 0x0 SWAP2 DUP3 MSTORE PUSH1 0x20 SWAP2 DUP3 SWAP1 KECCAK256 PUSH1 0x40 DUP1 MLOAD PUSH1 0x60 DUP2 ADD DUP3 MSTORE PUSH1 0x3 SWAP1 SWAP4 MUL SWAP1 SWAP2 ADD DUP1 SLOAD PUSH20 0xFFFFFFFFFFFFFFFFFFFFFFFFFFFFFFFFFFFFFFFF AND DUP4 MSTORE PUSH1 0x1 DUP2 ADD SLOAD SWAP4 DUP4 ADD SWAP4 SWAP1 SWAP4 MSTORE PUSH1 0x2 SWAP1 SWAP3 ADD SLOAD SWAP2 DUP2 ADD SWAP2 SWAP1 SWAP2 MSTORE DUP4 MLOAD DUP5 SWAP1 DUP5 SWAP1 DUP2 LT PUSH2 0x605 JUMPI PUSH2 0x605 PUSH2 0x1A54 JUMP JUMPDEST PUSH1 0x20 MUL PUSH1 0x20 ADD ADD DUP2 SWAP1 MSTORE POP DUP2 DUP1 PUSH2 0x61B SWAP1 PUSH2 0x1AB2 JUMP JUMPDEST SWAP3 POP POP JUMPDEST DUP1 PUSH2 0x629 DUP2 PUSH2 0x1AB2 JUMP JUMPDEST SWAP2 POP POP PUSH2 0x4D1 JUMP JUMPDEST POP SWAP1 SWAP4 SWAP3 POP POP POP JUMP JUMPDEST PUSH1 0x40 DUP1 MLOAD PUSH1 0x0 DUP1 DUP3 MSTORE PUSH1 0x20 DUP3 ADD SWAP1 SWAP3 MSTORE SWAP1 PUSH2 0x69D JUMP JUMPDEST PUSH2 0x68A PUSH1 0x40 MLOAD DUP1 PUSH1 0x60 ADD PUSH1 0x40 MSTORE DUP1 PUSH1 0x0 PUSH20 0xFFFFFFFFFFFFFFFFFFFFFFFFFFFFFFFFFFFFFFFF AND DUP2 MSTORE PUSH1 0x20 ADD PUSH1 0x0 DUP2 MSTORE PUSH1 0x20 ADD PUSH1 0x0 DUP2 MSTORE POP SWAP1 JUMP JUMPDEST DUP2 MSTORE PUSH1 0x20 ADD SWAP1 PUSH1 0x1 SWAP1 SUB SWAP1 DUP2 PUSH2 0x650 JUMPI SWAP1 POP JUMPDEST POP SWAP3 SWAP2 POP POP JUMP JUMPDEST PUSH2 0x6AC PUSH2 0xF52 JUMP JUMPDEST CALLER PUSH1 0x0 SWAP1 DUP2 MSTORE PUSH1 0x9 PUSH1 0x20 MSTORE PUSH1 0x40 SWAP1 KECCAK256 SLOAD PUSH2 0x727 JUMPI PUSH1 0x40 MLOAD PUSH32 0x8C379A000000000000000000000000000000000000000000000000000000000 DUP2 MSTORE PUSH1 0x20 PUSH1 0x4 DUP3 ADD MSTORE PUSH1 0x19 PUSH1 0x24 DUP3 ADD MSTORE PUSH32 0x596F752068617665206E6F20746F6B656E73207374616B656400000000000000 PUSH1 0x44 DUP3 ADD MSTORE PUSH1 0x64 ADD JUMPDEST PUSH1 0x40 MLOAD DUP1 SWAP2 SUB SWAP1 REVERT JUMPDEST PUSH1 0x0 DUP2 DUP2 MSTORE PUSH1 0xA PUSH1 0x20 MSTORE PUSH1 0x40 SWAP1 KECCAK256 SLOAD PUSH20 0xFFFFFFFFFFFFFFFFFFFFFFFFFFFFFFFFFFFFFFFF AND CALLER EQ PUSH2 0x7B4 JUMPI PUSH1 0x40 MLOAD PUSH32 0x8C379A000000000000000000000000000000000000000000000000000000000 DUP2 MSTORE PUSH1 0x20 PUSH1 0x4 DUP3 ADD MSTORE PUSH1 0x19 PUSH1 0x24 DUP3 ADD MSTORE PUSH32 0x596F7520646F6E2774206F776E207468697320746F6B656E2100000000000000 PUSH1 0x44 DUP3 ADD MSTORE PUSH1 0x64 ADD PUSH2 0x71E JUMP JUMPDEST PUSH1 0x7 SLOAD PUSH1 0xFF AND DUP1 ISZERO PUSH2 0x7E0 JUMPI POP PUSH1 0x8 SLOAD PUSH1 0x0 DUP3 DUP2 MSTORE PUSH1 0xB PUSH1 0x20 MSTORE PUSH1 0x40 SWAP1 KECCAK256 SLOAD TIMESTAMP SWAP2 PUSH2 0x7DE SWAP2 PUSH2 0x1AEB JUMP JUMPDEST LT JUMPDEST DUP1 PUSH2 0x7EE JUMPI POP PUSH1 0x7 SLOAD PUSH1 0xFF AND ISZERO JUMPDEST PUSH2 0x87A JUMPI PUSH1 0x40 MLOAD PUSH32 0x8C379A000000000000000000000000000000000000000000000000000000000 DUP2 MSTORE PUSH1 0x20 PUSH1 0x4 DUP3 ADD MSTORE PUSH1 0x23 PUSH1 0x24 DUP3 ADD MSTORE PUSH32 0x546F6B656E206C6F636B2074696D6520686173206E6F74207965742065787069 PUSH1 0x44 DUP3 ADD MSTORE PUSH32 0x7265640000000000000000000000000000000000000000000000000000000000 PUSH1 0x64 DUP3 ADD MSTORE PUSH1 0x84 ADD PUSH2 0x71E JUMP JUMPDEST PUSH1 0x0 PUSH2 0x885 CALLER PUSH2 0xFC6 JUMP JUMPDEST CALLER PUSH1 0x0 SWAP1 DUP2 MSTORE PUSH1 0x9 PUSH1 0x20 MSTORE PUSH1 0x40 DUP2 KECCAK256 PUSH1 0x3 ADD DUP1 SLOAD SWAP3 SWAP4 POP DUP4 SWAP3 SWAP1 SWAP2 SWAP1 PUSH2 0x8AC SWAP1 DUP5 SWAP1 PUSH2 0x1AEB JUMP JUMPDEST SWAP1 SWAP2 SSTORE POP PUSH1 0x0 SWAP1 POP DUP1 JUMPDEST CALLER PUSH1 0x0 SWAP1 DUP2 MSTORE PUSH1 0x9 PUSH1 0x20 MSTORE PUSH1 0x40 SWAP1 KECCAK256 PUSH1 0x1 ADD SLOAD DUP2 LT ISZERO PUSH2 0x97E JUMPI CALLER PUSH1 0x0 SWAP1 DUP2 MSTORE PUSH1 0x9 PUSH1 0x20 MSTORE PUSH1 0x40 SWAP1 KECCAK256 PUSH1 0x1 ADD DUP1 SLOAD DUP6 SWAP2 SWAP1 DUP4 SWAP1 DUP2 LT PUSH2 0x8F7 JUMPI PUSH2 0x8F7 PUSH2 0x1A54 JUMP JUMPDEST SWAP1 PUSH1 0x0 MSTORE PUSH1 0x20 PUSH1 0x0 KECCAK256 SWAP1 PUSH1 0x3 MUL ADD PUSH1 0x1 ADD SLOAD EQ DUP1 ISZERO PUSH2 0x95F JUMPI POP CALLER PUSH1 0x0 SWAP1 DUP2 MSTORE PUSH1 0x9 PUSH1 0x20 MSTORE PUSH1 0x40 DUP2 KECCAK256 PUSH1 0x1 ADD DUP1 SLOAD DUP4 SWAP1 DUP2 LT PUSH2 0x935 JUMPI PUSH2 0x935 PUSH2 0x1A54 JUMP JUMPDEST PUSH1 0x0 SWAP2 DUP3 MSTORE PUSH1 0x20 SWAP1 SWAP2 KECCAK256 PUSH1 0x3 SWAP1 SWAP2 MUL ADD SLOAD PUSH20 0xFFFFFFFFFFFFFFFFFFFFFFFFFFFFFFFFFFFFFFFF AND EQ ISZERO JUMPDEST ISZERO PUSH2 0x96C JUMPI DUP1 SWAP2 POP PUSH2 0x97E JUMP JUMPDEST DUP1 PUSH2 0x976 DUP2 PUSH2 0x1AB2 JUMP JUMPDEST SWAP2 POP POP PUSH2 0x8B6 JUMP JUMPDEST POP CALLER PUSH1 0x0 SWAP1 DUP2 MSTORE PUSH1 0x9 PUSH1 0x20 MSTORE PUSH1 0x40 DUP2 KECCAK256 PUSH1 0x1 ADD DUP1 SLOAD DUP4 SWAP1 DUP2 LT PUSH2 0x9A3 JUMPI PUSH2 0x9A3 PUSH2 0x1A54 JUMP JUMPDEST PUSH1 0x0 SWAP2 DUP3 MSTORE PUSH1 0x20 DUP1 DUP4 KECCAK256 PUSH1 0x3 SWAP3 SWAP1 SWAP3 MUL SWAP1 SWAP2 ADD DUP1 SLOAD PUSH32 0xFFFFFFFFFFFFFFFFFFFFFFFF0000000000000000000000000000000000000000 AND PUSH20 0xFFFFFFFFFFFFFFFFFFFFFFFFFFFFFFFFFFFFFFFF SWAP5 SWAP1 SWAP5 AND SWAP4 SWAP1 SWAP4 OR SWAP1 SWAP3 SSTORE CALLER DUP2 MSTORE PUSH1 0x9 SWAP1 SWAP2 MSTORE PUSH1 0x40 DUP2 KECCAK256 DUP1 SLOAD SWAP2 PUSH2 0xA12 DUP4 PUSH2 0x1B03 JUMP JUMPDEST SWAP1 SWAP2 SSTORE POP POP PUSH1 0x0 DUP4 DUP2 MSTORE PUSH1 0xA PUSH1 0x20 SWAP1 DUP2 MSTORE PUSH1 0x40 DUP1 DUP4 KECCAK256 DUP1 SLOAD PUSH32 0xFFFFFFFFFFFFFFFFFFFFFFFF0000000000000000000000000000000000000000 AND SWAP1 SSTORE PUSH1 0xB SWAP1 SWAP2 MSTORE DUP1 DUP3 KECCAK256 SWAP2 SWAP1 SWAP2 SSTORE PUSH1 0x3 SLOAD SWAP1 MLOAD PUSH32 0x23B872DD00000000000000000000000000000000000000000000000000000000 DUP2 MSTORE ADDRESS PUSH1 0x4 DUP3 ADD MSTORE CALLER PUSH1 0x24 DUP3 ADD MSTORE PUSH1 0x44 DUP2 ADD DUP6 SWAP1 MSTORE PUSH20 0xFFFFFFFFFFFFFFFFFFFFFFFFFFFFFFFFFFFFFFFF SWAP1 SWAP2 AND SWAP1 PUSH4 0x23B872DD SWAP1 PUSH1 0x64 ADD PUSH1 0x0 PUSH1 0x40 MLOAD DUP1 DUP4 SUB DUP2 PUSH1 0x0 DUP8 DUP1 EXTCODESIZE ISZERO DUP1 ISZERO PUSH2 0xAD1 JUMPI PUSH1 0x0 DUP1 REVERT JUMPDEST POP GAS CALL ISZERO DUP1 ISZERO PUSH2 0xAE5 JUMPI RETURNDATASIZE PUSH1 0x0 DUP1 RETURNDATACOPY RETURNDATASIZE PUSH1 0x0 REVERT JUMPDEST POP POP CALLER PUSH1 0x0 SWAP1 DUP2 MSTORE PUSH1 0x9 PUSH1 0x20 MSTORE PUSH1 0x40 SWAP1 KECCAK256 TIMESTAMP PUSH1 0x2 SWAP1 SWAP2 ADD SSTORE POP PUSH2 0xB0B SWAP3 POP PUSH2 0x102D SWAP2 POP POP JUMP JUMPDEST POP JUMP JUMPDEST CALLER PUSH1 0x0 DUP2 DUP2 MSTORE PUSH1 0x9 PUSH1 0x20 MSTORE PUSH1 0x40 DUP2 KECCAK256 PUSH1 0x3 ADD SLOAD SWAP1 SWAP2 PUSH2 0xB2C SWAP1 PUSH2 0xFC6 JUMP JUMPDEST PUSH2 0xB36 SWAP2 SWAP1 PUSH2 0x1AEB JUMP JUMPDEST SWAP1 POP PUSH1 0x0 DUP2 GT PUSH2 0xBA2 JUMPI PUSH1 0x40 MLOAD PUSH32 0x8C379A000000000000000000000000000000000000000000000000000000000 DUP2 MSTORE PUSH1 0x20 PUSH1 0x4 DUP3 ADD MSTORE PUSH1 0x1C PUSH1 0x24 DUP3 ADD MSTORE PUSH32 0x596F752068617665206E6F207265776172647320746F20636C61696D00000000 PUSH1 0x44 DUP3 ADD MSTORE PUSH1 0x64 ADD PUSH2 0x71E JUMP JUMPDEST CALLER PUSH1 0x0 DUP2 DUP2 MSTORE PUSH1 0x9 PUSH1 0x20 MSTORE PUSH1 0x40 DUP2 KECCAK256 TIMESTAMP PUSH1 0x2 DUP1 DUP4 ADD SWAP2 SWAP1 SWAP2 SSTORE PUSH1 0x3 SWAP1 SWAP2 ADD SWAP2 SWAP1 SWAP2 SSTORE SLOAD PUSH2 0xB0B SWAP2 PUSH20 0xFFFFFFFFFFFFFFFFFFFFFFFFFFFFFFFFFFFFFFFF SWAP1 SWAP2 AND SWAP1 DUP4 PUSH2 0x1034 JUMP JUMPDEST PUSH1 0x60 PUSH1 0x0 PUSH2 0xBF5 DUP4 PUSH2 0x3F3 JUMP JUMPDEST SWAP1 POP PUSH1 0x0 DUP2 MLOAD PUSH8 0xFFFFFFFFFFFFFFFF DUP2 GT ISZERO PUSH2 0xC13 JUMPI PUSH2 0xC13 PUSH2 0x1A25 JUMP JUMPDEST PUSH1 0x40 MLOAD SWAP1 DUP1 DUP3 MSTORE DUP1 PUSH1 0x20 MUL PUSH1 0x20 ADD DUP3 ADD PUSH1 0x40 MSTORE DUP1 ISZERO PUSH2 0xC58 JUMPI DUP2 PUSH1 0x20 ADD JUMPDEST PUSH1 0x40 DUP1 MLOAD DUP1 DUP3 ADD SWAP1 SWAP2 MSTORE PUSH1 0x0 DUP1 DUP3 MSTORE PUSH1 0x20 DUP3 ADD MSTORE DUP2 MSTORE PUSH1 0x20 ADD SWAP1 PUSH1 0x1 SWAP1 SUB SWAP1 DUP2 PUSH2 0xC31 JUMPI SWAP1 POP JUMPDEST POP SWAP1 POP PUSH1 0x0 JUMPDEST DUP3 MLOAD DUP2 GT ISZERO PUSH2 0xCFC JUMPI PUSH1 0x40 MLOAD DUP1 PUSH1 0x40 ADD PUSH1 0x40 MSTORE DUP1 DUP5 DUP4 DUP2 MLOAD DUP2 LT PUSH2 0xC84 JUMPI PUSH2 0xC84 PUSH2 0x1A54 JUMP JUMPDEST PUSH1 0x20 MUL PUSH1 0x20 ADD ADD MLOAD PUSH1 0x0 ADD MLOAD PUSH20 0xFFFFFFFFFFFFFFFFFFFFFFFFFFFFFFFFFFFFFFFF AND DUP2 MSTORE PUSH1 0x20 ADD DUP5 DUP4 DUP2 MLOAD DUP2 LT PUSH2 0xCBD JUMPI PUSH2 0xCBD PUSH2 0x1A54 JUMP JUMPDEST PUSH1 0x20 MUL PUSH1 0x20 ADD ADD MLOAD PUSH1 0x20 ADD MLOAD DUP2 MSTORE POP DUP3 DUP3 DUP2 MLOAD DUP2 LT PUSH2 0xCDE JUMPI PUSH2 0xCDE PUSH2 0x1A54 JUMP JUMPDEST PUSH1 0x20 MUL PUSH1 0x20 ADD ADD DUP2 SWAP1 MSTORE POP DUP1 DUP1 PUSH2 0xCF4 SWAP1 PUSH2 0x1AB2 JUMP JUMPDEST SWAP2 POP POP PUSH2 0xC5E JUMP JUMPDEST POP SWAP4 SWAP3 POP POP POP JUMP JUMPDEST PUSH2 0xD0C PUSH2 0x10C6 JUMP JUMPDEST PUSH1 0x7 DUP1 SLOAD PUSH32 0xFFFFFFFFFFFFFFFFFFFFFFFFFFFFFFFFFFFFFFFFFFFFFFFFFFFFFFFFFFFFFF00 AND SWAP2 ISZERO ISZERO SWAP2 SWAP1 SWAP2 OR SWAP1 SSTORE JUMP JUMPDEST PUSH2 0xD45 PUSH2 0x10C6 JUMP JUMPDEST PUSH2 0xD4F PUSH1 0x0 PUSH2 0x114D JUMP JUMPDEST JUMP JUMPDEST PUSH2 0xD59 PUSH2 0xF52 JUMP JUMPDEST PUSH2 0xD61 PUSH2 0x11CB JUMP JUMPDEST PUSH2 0xD6B CALLER DUP3 PUSH2 0x1238 JUMP JUMPDEST PUSH2 0xB0B PUSH1 0x1 PUSH1 0x0 SSTORE JUMP JUMPDEST PUSH2 0xD7D PUSH2 0x10C6 JUMP JUMPDEST PUSH1 0x8 SSTORE JUMP JUMPDEST PUSH2 0xD8A PUSH2 0x10C6 JUMP JUMPDEST PUSH1 0x5 SSTORE JUMP JUMPDEST PUSH2 0xD97 PUSH2 0x10C6 JUMP JUMPDEST PUSH20 0xFFFFFFFFFFFFFFFFFFFFFFFFFFFFFFFFFFFFFFFF DUP2 AND PUSH2 0xE3A JUMPI PUSH1 0x40 MLOAD PUSH32 0x8C379A000000000000000000000000000000000000000000000000000000000 DUP2 MSTORE PUSH1 0x20 PUSH1 0x4 DUP3 ADD MSTORE PUSH1 0x26 PUSH1 0x24 DUP3 ADD MSTORE PUSH32 0x4F776E61626C653A206E6577206F776E657220697320746865207A65726F2061 PUSH1 0x44 DUP3 ADD MSTORE PUSH32 0x6464726573730000000000000000000000000000000000000000000000000000 PUSH1 0x64 DUP3 ADD MSTORE PUSH1 0x84 ADD PUSH2 0x71E JUMP JUMPDEST PUSH2 0xB0B DUP2 PUSH2 0x114D JUMP JUMPDEST PUSH20 0xFFFFFFFFFFFFFFFFFFFFFFFFFFFFFFFFFFFFFFFF DUP2 AND PUSH1 0x0 SWAP1 DUP2 MSTORE PUSH1 0x9 PUSH1 0x20 MSTORE PUSH1 0x40 DUP2 KECCAK256 PUSH1 0x3 ADD SLOAD DUP2 SWAP1 PUSH2 0xE77 DUP5 PUSH2 0xFC6 JUMP JUMPDEST PUSH2 0xE81 SWAP2 SWAP1 PUSH2 0x1AEB JUMP JUMPDEST SWAP4 SWAP3 POP POP POP JUMP JUMPDEST PUSH2 0xE90 PUSH2 0x10C6 JUMP JUMPDEST PUSH2 0xE98 PUSH2 0x1579 JUMP JUMPDEST PUSH1 0x2 SLOAD PUSH1 0x40 MLOAD PUSH32 0x70A0823100000000000000000000000000000000000000000000000000000000 DUP2 MSTORE ADDRESS PUSH1 0x4 DUP3 ADD MSTORE PUSH1 0x0 SWAP2 PUSH20 0xFFFFFFFFFFFFFFFFFFFFFFFFFFFFFFFFFFFFFFFF AND SWAP1 PUSH4 0x70A08231 SWAP1 PUSH1 0x24 ADD PUSH1 0x20 PUSH1 0x40 MLOAD DUP1 DUP4 SUB DUP2 DUP7 GAS STATICCALL ISZERO DUP1 ISZERO PUSH2 0xF07 JUMPI RETURNDATASIZE PUSH1 0x0 DUP1 RETURNDATACOPY RETURNDATASIZE PUSH1 0x0 REVERT JUMPDEST POP POP POP POP PUSH1 0x40 MLOAD RETURNDATASIZE PUSH1 0x1F NOT PUSH1 0x1F DUP3 ADD AND DUP3 ADD DUP1 PUSH1 0x40 MSTORE POP DUP2 ADD SWAP1 PUSH2 0xF2B SWAP2 SWAP1 PUSH2 0x1B38 JUMP JUMPDEST PUSH1 0x2 SLOAD SWAP1 SWAP2 POP PUSH2 0xB0B SWAP1 PUSH20 0xFFFFFFFFFFFFFFFFFFFFFFFFFFFFFFFFFFFFFFFF AND CALLER DUP4 PUSH2 0x1034 JUMP JUMPDEST PUSH1 0x2 PUSH1 0x0 SLOAD EQ ISZERO PUSH2 0xFBF JUMPI PUSH1 0x40 MLOAD PUSH32 0x8C379A000000000000000000000000000000000000000000000000000000000 DUP2 MSTORE PUSH1 0x20 PUSH1 0x4 DUP3 ADD MSTORE PUSH1 0x1F PUSH1 0x24 DUP3 ADD MSTORE PUSH32 0x5265656E7472616E637947756172643A207265656E7472616E742063616C6C00 PUSH1 0x44 DUP3 ADD MSTORE PUSH1 0x64 ADD PUSH2 0x71E JUMP JUMPDEST PUSH1 0x2 PUSH1 0x0 SSTORE JUMP JUMPDEST PUSH1 0x5 SLOAD PUSH20 0xFFFFFFFFFFFFFFFFFFFFFFFFFFFFFFFFFFFFFFFF DUP3 AND PUSH1 0x0 SWAP1 DUP2 MSTORE PUSH1 0x9 PUSH1 0x20 MSTORE PUSH1 0x40 DUP2 KECCAK256 DUP1 SLOAD PUSH1 0x2 SWAP1 SWAP2 ADD SLOAD SWAP2 SWAP3 PUSH2 0xE10 SWAP3 SWAP1 SWAP2 SWAP1 PUSH2 0x1009 SWAP1 TIMESTAMP PUSH2 0x1B51 JUMP JUMPDEST PUSH2 0x1013 SWAP2 SWAP1 PUSH2 0x1B68 JUMP JUMPDEST PUSH2 0x101D SWAP2 SWAP1 PUSH2 0x1B68 JUMP JUMPDEST PUSH2 0x1027 SWAP2 SWAP1 PUSH2 0x1BA5 JUMP JUMPDEST SWAP3 SWAP2 POP POP JUMP JUMPDEST PUSH1 0x1 PUSH1 0x0 SSTORE JUMP JUMPDEST PUSH1 0x40 DUP1 MLOAD PUSH20 0xFFFFFFFFFFFFFFFFFFFFFFFFFFFFFFFFFFFFFFFF DUP5 AND PUSH1 0x24 DUP3 ADD MSTORE PUSH1 0x44 DUP1 DUP3 ADD DUP5 SWAP1 MSTORE DUP3 MLOAD DUP1 DUP4 SUB SWAP1 SWAP2 ADD DUP2 MSTORE PUSH1 0x64 SWAP1 SWAP2 ADD SWAP1 SWAP2 MSTORE PUSH1 0x20 DUP2 ADD DUP1 MLOAD PUSH28 0xFFFFFFFFFFFFFFFFFFFFFFFFFFFFFFFFFFFFFFFFFFFFFFFFFFFFFFFF AND PUSH32 0xA9059CBB00000000000000000000000000000000000000000000000000000000 OR SWAP1 MSTORE PUSH2 0x10C1 SWAP1 DUP5 SWAP1 PUSH2 0x15E5 JUMP JUMPDEST POP POP POP JUMP JUMPDEST PUSH1 0x1 SLOAD PUSH20 0xFFFFFFFFFFFFFFFFFFFFFFFFFFFFFFFFFFFFFFFF PUSH2 0x100 SWAP1 SWAP2 DIV AND CALLER EQ PUSH2 0xD4F JUMPI PUSH1 0x40 MLOAD PUSH32 0x8C379A000000000000000000000000000000000000000000000000000000000 DUP2 MSTORE PUSH1 0x20 PUSH1 0x4 DUP3 ADD DUP2 SWAP1 MSTORE PUSH1 0x24 DUP3 ADD MSTORE PUSH32 0x4F776E61626C653A2063616C6C6572206973206E6F7420746865206F776E6572 PUSH1 0x44 DUP3 ADD MSTORE PUSH1 0x64 ADD PUSH2 0x71E JUMP JUMPDEST PUSH1 0x1 DUP1 SLOAD PUSH20 0xFFFFFFFFFFFFFFFFFFFFFFFFFFFFFFFFFFFFFFFF DUP4 DUP2 AND PUSH2 0x100 DUP2 DUP2 MUL PUSH32 0xFFFFFFFFFFFFFFFFFFFFFF0000000000000000000000000000000000000000FF DUP6 AND OR SWAP1 SWAP5 SSTORE PUSH1 0x40 MLOAD SWAP4 SWAP1 SWAP3 DIV AND SWAP2 DUP3 SWAP1 PUSH32 0x8BE0079C531659141344CD1FD0A4F28419497F9722A3DAAFE3B4186F6B6457E0 SWAP1 PUSH1 0x0 SWAP1 LOG3 POP POP JUMP JUMPDEST PUSH1 0x1 SLOAD PUSH1 0xFF AND ISZERO PUSH2 0xD4F JUMPI PUSH1 0x40 MLOAD PUSH32 0x8C379A000000000000000000000000000000000000000000000000000000000 DUP2 MSTORE PUSH1 0x20 PUSH1 0x4 DUP3 ADD MSTORE PUSH1 0x10 PUSH1 0x24 DUP3 ADD MSTORE PUSH32 0x5061757361626C653A2070617573656400000000000000000000000000000000 PUSH1 0x44 DUP3 ADD MSTORE PUSH1 0x64 ADD PUSH2 0x71E JUMP JUMPDEST PUSH1 0x3 SLOAD PUSH1 0x40 MLOAD PUSH32 0x6352211E00000000000000000000000000000000000000000000000000000000 DUP2 MSTORE PUSH1 0x4 DUP2 ADD DUP4 SWAP1 MSTORE PUSH20 0xFFFFFFFFFFFFFFFFFFFFFFFFFFFFFFFFFFFFFFFF DUP5 DUP2 AND SWAP3 AND SWAP1 PUSH4 0x6352211E SWAP1 PUSH1 0x24 ADD PUSH1 0x20 PUSH1 0x40 MLOAD DUP1 DUP4 SUB DUP2 DUP7 GAS STATICCALL ISZERO DUP1 ISZERO PUSH2 0x12A9 JUMPI RETURNDATASIZE PUSH1 0x0 DUP1 RETURNDATACOPY RETURNDATASIZE PUSH1 0x0 REVERT JUMPDEST POP POP POP POP PUSH1 0x40 MLOAD RETURNDATASIZE PUSH1 0x1F NOT PUSH1 0x1F DUP3 ADD AND DUP3 ADD DUP1 PUSH1 0x40 MSTORE POP DUP2 ADD SWAP1 PUSH2 0x12CD SWAP2 SWAP1 PUSH2 0x1BE0 JUMP JUMPDEST PUSH20 0xFFFFFFFFFFFFFFFFFFFFFFFFFFFFFFFFFFFFFFFF AND EQ PUSH2 0x134A JUMPI PUSH1 0x40 MLOAD PUSH32 0x8C379A000000000000000000000000000000000000000000000000000000000 DUP2 MSTORE PUSH1 0x20 PUSH1 0x4 DUP3 ADD MSTORE PUSH1 0x19 PUSH1 0x24 DUP3 ADD MSTORE PUSH32 0x596F7520646F6E2774206F776E207468697320746F6B656E2100000000000000 PUSH1 0x44 DUP3 ADD MSTORE PUSH1 0x64 ADD PUSH2 0x71E JUMP JUMPDEST PUSH20 0xFFFFFFFFFFFFFFFFFFFFFFFFFFFFFFFFFFFFFFFF DUP3 AND PUSH1 0x0 SWAP1 DUP2 MSTORE PUSH1 0x9 PUSH1 0x20 MSTORE PUSH1 0x40 SWAP1 KECCAK256 SLOAD ISZERO PUSH2 0x13C4 JUMPI PUSH1 0x0 PUSH2 0x1380 DUP4 PUSH2 0xFC6 JUMP JUMPDEST PUSH20 0xFFFFFFFFFFFFFFFFFFFFFFFFFFFFFFFFFFFFFFFF DUP5 AND PUSH1 0x0 SWAP1 DUP2 MSTORE PUSH1 0x9 PUSH1 0x20 MSTORE PUSH1 0x40 DUP2 KECCAK256 PUSH1 0x3 ADD DUP1 SLOAD SWAP3 SWAP4 POP DUP4 SWAP3 SWAP1 SWAP2 SWAP1 PUSH2 0x13BD SWAP1 DUP5 SWAP1 PUSH2 0x1AEB JUMP JUMPDEST SWAP1 SWAP2 SSTORE POP POP POP JUMPDEST PUSH1 0x3 SLOAD PUSH1 0x40 MLOAD PUSH32 0x23B872DD00000000000000000000000000000000000000000000000000000000 DUP2 MSTORE PUSH20 0xFFFFFFFFFFFFFFFFFFFFFFFFFFFFFFFFFFFFFFFF DUP5 DUP2 AND PUSH1 0x4 DUP4 ADD MSTORE ADDRESS PUSH1 0x24 DUP4 ADD MSTORE PUSH1 0x44 DUP3 ADD DUP5 SWAP1 MSTORE SWAP1 SWAP2 AND SWAP1 PUSH4 0x23B872DD SWAP1 PUSH1 0x64 ADD PUSH1 0x0 PUSH1 0x40 MLOAD DUP1 DUP4 SUB DUP2 PUSH1 0x0 DUP8 DUP1 EXTCODESIZE ISZERO DUP1 ISZERO PUSH2 0x143E JUMPI PUSH1 0x0 DUP1 REVERT JUMPDEST POP GAS CALL ISZERO DUP1 ISZERO PUSH2 0x1452 JUMPI RETURNDATASIZE PUSH1 0x0 DUP1 RETURNDATACOPY RETURNDATASIZE PUSH1 0x0 REVERT JUMPDEST POP POP PUSH1 0x40 DUP1 MLOAD PUSH1 0x60 DUP2 ADD DUP3 MSTORE PUSH20 0xFFFFFFFFFFFFFFFFFFFFFFFFFFFFFFFFFFFFFFFF DUP7 DUP2 AND DUP1 DUP4 MSTORE PUSH1 0x20 DUP1 DUP5 ADD DUP9 DUP2 MSTORE TIMESTAMP DUP6 DUP8 ADD SWAP1 DUP2 MSTORE PUSH1 0x0 DUP5 DUP2 MSTORE PUSH1 0x9 DUP5 MSTORE SWAP7 DUP8 KECCAK256 PUSH1 0x1 DUP1 DUP3 ADD DUP1 SLOAD DUP1 DUP4 ADD DUP3 SSTORE SWAP1 DUP11 MSTORE SWAP5 DUP10 KECCAK256 DUP9 MLOAD PUSH1 0x3 SWAP1 SWAP7 MUL ADD DUP1 SLOAD PUSH32 0xFFFFFFFFFFFFFFFFFFFFFFFF0000000000000000000000000000000000000000 AND SWAP6 SWAP1 SWAP8 AND SWAP5 SWAP1 SWAP5 OR DUP7 SSTORE SWAP2 MLOAD SWAP3 DUP6 ADD SWAP3 SWAP1 SWAP3 SSTORE SWAP1 MLOAD PUSH1 0x2 SWAP1 SWAP4 ADD SWAP3 SWAP1 SWAP3 SSTORE DUP4 MSTORE DUP1 SLOAD SWAP2 SWAP5 POP SWAP1 SWAP3 POP SWAP1 PUSH2 0x1504 DUP4 PUSH2 0x1AB2 JUMP JUMPDEST SWAP1 SWAP2 SSTORE POP POP POP PUSH1 0x0 SWAP1 DUP2 MSTORE PUSH1 0xA PUSH1 0x20 SWAP1 DUP2 MSTORE PUSH1 0x40 DUP1 DUP4 KECCAK256 DUP1 SLOAD PUSH20 0xFFFFFFFFFFFFFFFFFFFFFFFFFFFFFFFFFFFFFFFF SWAP1 SWAP6 AND PUSH32 0xFFFFFFFFFFFFFFFFFFFFFFFF0000000000000000000000000000000000000000 SWAP1 SWAP6 AND DUP6 OR SWAP1 SSTORE PUSH1 0xB DUP3 MSTORE DUP1 DUP4 KECCAK256 TIMESTAMP SWAP1 DUP2 SWAP1 SSTORE SWAP4 DUP4 MSTORE PUSH1 0x9 SWAP1 SWAP2 MSTORE SWAP1 KECCAK256 PUSH1 0x2 ADD SSTORE JUMP JUMPDEST PUSH1 0x1 SLOAD PUSH1 0xFF AND PUSH2 0xD4F JUMPI PUSH1 0x40 MLOAD PUSH32 0x8C379A000000000000000000000000000000000000000000000000000000000 DUP2 MSTORE PUSH1 0x20 PUSH1 0x4 DUP3 ADD MSTORE PUSH1 0x14 PUSH1 0x24 DUP3 ADD MSTORE PUSH32 0x5061757361626C653A206E6F7420706175736564000000000000000000000000 PUSH1 0x44 DUP3 ADD MSTORE PUSH1 0x64 ADD PUSH2 0x71E JUMP JUMPDEST PUSH1 0x0 PUSH2 0x1647 DUP3 PUSH1 0x40 MLOAD DUP1 PUSH1 0x40 ADD PUSH1 0x40 MSTORE DUP1 PUSH1 0x20 DUP2 MSTORE PUSH1 0x20 ADD PUSH32 0x5361666545524332303A206C6F772D6C6576656C2063616C6C206661696C6564 DUP2 MSTORE POP DUP6 PUSH20 0xFFFFFFFFFFFFFFFFFFFFFFFFFFFFFFFFFFFFFFFF AND PUSH2 0x16F1 SWAP1 SWAP3 SWAP2 SWAP1 PUSH4 0xFFFFFFFF AND JUMP JUMPDEST DUP1 MLOAD SWAP1 SWAP2 POP ISZERO PUSH2 0x10C1 JUMPI DUP1 DUP1 PUSH1 0x20 ADD SWAP1 MLOAD DUP2 ADD SWAP1 PUSH2 0x1665 SWAP2 SWAP1 PUSH2 0x1BFD JUMP JUMPDEST PUSH2 0x10C1 JUMPI PUSH1 0x40 MLOAD PUSH32 0x8C379A000000000000000000000000000000000000000000000000000000000 DUP2 MSTORE PUSH1 0x20 PUSH1 0x4 DUP3 ADD MSTORE PUSH1 0x2A PUSH1 0x24 DUP3 ADD MSTORE PUSH32 0x5361666545524332303A204552433230206F7065726174696F6E20646964206E PUSH1 0x44 DUP3 ADD MSTORE PUSH32 0x6F74207375636365656400000000000000000000000000000000000000000000 PUSH1 0x64 DUP3 ADD MSTORE PUSH1 0x84 ADD PUSH2 0x71E JUMP JUMPDEST PUSH1 0x60 PUSH2 0x1700 DUP5 DUP5 PUSH1 0x0 DUP6 PUSH2 0x1708 JUMP JUMPDEST SWAP5 SWAP4 POP POP POP POP JUMP JUMPDEST PUSH1 0x60 DUP3 SELFBALANCE LT ISZERO PUSH2 0x179A JUMPI PUSH1 0x40 MLOAD PUSH32 0x8C379A000000000000000000000000000000000000000000000000000000000 DUP2 MSTORE PUSH1 0x20 PUSH1 0x4 DUP3 ADD MSTORE PUSH1 0x26 PUSH1 0x24 DUP3 ADD MSTORE PUSH32 0x416464726573733A20696E73756666696369656E742062616C616E636520666F PUSH1 0x44 DUP3 ADD MSTORE PUSH32 0x722063616C6C0000000000000000000000000000000000000000000000000000 PUSH1 0x64 DUP3 ADD MSTORE PUSH1 0x84 ADD PUSH2 0x71E JUMP JUMPDEST DUP5 EXTCODESIZE PUSH2 0x1802 JUMPI PUSH1 0x40 MLOAD PUSH32 0x8C379A000000000000000000000000000000000000000000000000000000000 DUP2 MSTORE PUSH1 0x20 PUSH1 0x4 DUP3 ADD MSTORE PUSH1 0x1D PUSH1 0x24 DUP3 ADD MSTORE PUSH32 0x416464726573733A2063616C6C20746F206E6F6E2D636F6E7472616374000000 PUSH1 0x44 DUP3 ADD MSTORE PUSH1 0x64 ADD PUSH2 0x71E JUMP JUMPDEST PUSH1 0x0 DUP1 DUP7 PUSH20 0xFFFFFFFFFFFFFFFFFFFFFFFFFFFFFFFFFFFFFFFF AND DUP6 DUP8 PUSH1 0x40 MLOAD PUSH2 0x182B SWAP2 SWAP1 PUSH2 0x1C4A JUMP JUMPDEST PUSH1 0x0 PUSH1 0x40 MLOAD DUP1 DUP4 SUB DUP2 DUP6 DUP8 GAS CALL SWAP3 POP POP POP RETURNDATASIZE DUP1 PUSH1 0x0 DUP2 EQ PUSH2 0x1868 JUMPI PUSH1 0x40 MLOAD SWAP2 POP PUSH1 0x1F NOT PUSH1 0x3F RETURNDATASIZE ADD AND DUP3 ADD PUSH1 0x40 MSTORE RETURNDATASIZE DUP3 MSTORE RETURNDATASIZE PUSH1 0x0 PUSH1 0x20 DUP5 ADD RETURNDATACOPY PUSH2 0x186D JUMP JUMPDEST PUSH1 0x60 SWAP2 POP JUMPDEST POP SWAP2 POP SWAP2 POP PUSH2 0x187D DUP3 DUP3 DUP7 PUSH2 0x1888 JUMP JUMPDEST SWAP8 SWAP7 POP POP POP POP POP POP POP JUMP JUMPDEST PUSH1 0x60 DUP4 ISZERO PUSH2 0x1897 JUMPI POP DUP2 PUSH2 0xE81 JUMP JUMPDEST DUP3 MLOAD ISZERO PUSH2 0x18A7 JUMPI DUP3 MLOAD DUP1 DUP5 PUSH1 0x20 ADD REVERT JUMPDEST DUP2 PUSH1 0x40 MLOAD PUSH32 0x8C379A000000000000000000000000000000000000000000000000000000000 DUP2 MSTORE PUSH1 0x4 ADD PUSH2 0x71E SWAP2 SWAP1 PUSH2 0x1C66 JUMP JUMPDEST PUSH20 0xFFFFFFFFFFFFFFFFFFFFFFFFFFFFFFFFFFFFFFFF DUP2 AND DUP2 EQ PUSH2 0xB0B JUMPI PUSH1 0x0 DUP1 REVERT JUMPDEST PUSH1 0x0 PUSH1 0x20 DUP3 DUP5 SUB SLT ISZERO PUSH2 0x190F JUMPI PUSH1 0x0 DUP1 REVERT JUMPDEST DUP2 CALLDATALOAD PUSH2 0xE81 DUP2 PUSH2 0x18DB JUMP JUMPDEST PUSH1 0x20 DUP1 DUP3 MSTORE DUP3 MLOAD DUP3 DUP3 ADD DUP2 SWAP1 MSTORE PUSH1 0x0 SWAP2 SWAP1 PUSH1 0x40 SWAP1 DUP2 DUP6 ADD SWAP1 DUP7 DUP5 ADD DUP6 JUMPDEST DUP3 DUP2 LT ISZERO PUSH2 0x197C JUMPI DUP2 MLOAD DUP1 MLOAD PUSH20 0xFFFFFFFFFFFFFFFFFFFFFFFFFFFFFFFFFFFFFFFF AND DUP6 MSTORE DUP7 DUP2 ADD MLOAD DUP8 DUP7 ADD MSTORE DUP6 ADD MLOAD DUP6 DUP6 ADD MSTORE PUSH1 0x60 SWAP1 SWAP4 ADD SWAP3 SWAP1 DUP6 ADD SWAP1 PUSH1 0x1 ADD PUSH2 0x1937 JUMP JUMPDEST POP SWAP2 SWAP8 SWAP7 POP POP POP POP POP POP POP JUMP JUMPDEST PUSH1 0x0 PUSH1 0x20 DUP3 DUP5 SUB SLT ISZERO PUSH2 0x199B JUMPI PUSH1 0x0 DUP1 REVERT JUMPDEST POP CALLDATALOAD SWAP2 SWAP1 POP JUMP JUMPDEST PUSH1 0x20 DUP1 DUP3 MSTORE DUP3 MLOAD DUP3 DUP3 ADD DUP2 SWAP1 MSTORE PUSH1 0x0 SWAP2 SWAP1 PUSH1 0x40 SWAP1 DUP2 DUP6 ADD SWAP1 DUP7 DUP5 ADD DUP6 JUMPDEST DUP3 DUP2 LT ISZERO PUSH2 0x197C JUMPI DUP2 MLOAD DUP1 MLOAD PUSH20 0xFFFFFFFFFFFFFFFFFFFFFFFFFFFFFFFFFFFFFFFF AND DUP6 MSTORE DUP7 ADD MLOAD DUP7 DUP6 ADD MSTORE SWAP3 DUP5 ADD SWAP3 SWAP1 DUP6 ADD SWAP1 PUSH1 0x1 ADD PUSH2 0x19BF JUMP JUMPDEST DUP1 ISZERO ISZERO DUP2 EQ PUSH2 0xB0B JUMPI PUSH1 0x0 DUP1 REVERT JUMPDEST PUSH1 0x0 PUSH1 0x20 DUP3 DUP5 SUB SLT ISZERO PUSH2 0x1A1A JUMPI PUSH1 0x0 DUP1 REVERT JUMPDEST DUP2 CALLDATALOAD PUSH2 0xE81 DUP2 PUSH2 0x19FA JUMP JUMPDEST PUSH32 0x4E487B7100000000000000000000000000000000000000000000000000000000 PUSH1 0x0 MSTORE PUSH1 0x41 PUSH1 0x4 MSTORE PUSH1 0x24 PUSH1 0x0 REVERT JUMPDEST PUSH32 0x4E487B7100000000000000000000000000000000000000000000000000000000 PUSH1 0x0 MSTORE PUSH1 0x32 PUSH1 0x4 MSTORE PUSH1 0x24 PUSH1 0x0 REVERT JUMPDEST PUSH32 0x4E487B7100000000000000000000000000000000000000000000000000000000 PUSH1 0x0 MSTORE PUSH1 0x11 PUSH1 0x4 MSTORE PUSH1 0x24 PUSH1 0x0 REVERT JUMPDEST PUSH1 0x0 PUSH32 0xFFFFFFFFFFFFFFFFFFFFFFFFFFFFFFFFFFFFFFFFFFFFFFFFFFFFFFFFFFFFFFFF DUP3 EQ ISZERO PUSH2 0x1AE4 JUMPI PUSH2 0x1AE4 PUSH2 0x1A83 JUMP JUMPDEST POP PUSH1 0x1 ADD SWAP1 JUMP JUMPDEST PUSH1 0x0 DUP3 NOT DUP3 GT ISZERO PUSH2 0x1AFE JUMPI PUSH2 0x1AFE PUSH2 0x1A83 JUMP JUMPDEST POP ADD SWAP1 JUMP JUMPDEST PUSH1 0x0 DUP2 PUSH2 0x1B12 JUMPI PUSH2 0x1B12 PUSH2 0x1A83 JUMP JUMPDEST POP PUSH32 0xFFFFFFFFFFFFFFFFFFFFFFFFFFFFFFFFFFFFFFFFFFFFFFFFFFFFFFFFFFFFFFFF ADD SWAP1 JUMP JUMPDEST PUSH1 0x0 PUSH1 0x20 DUP3 DUP5 SUB SLT ISZERO PUSH2 0x1B4A JUMPI PUSH1 0x0 DUP1 REVERT JUMPDEST POP MLOAD SWAP2 SWAP1 POP JUMP JUMPDEST PUSH1 0x0 DUP3 DUP3 LT ISZERO PUSH2 0x1B63 JUMPI PUSH2 0x1B63 PUSH2 0x1A83 JUMP JUMPDEST POP SUB SWAP1 JUMP JUMPDEST PUSH1 0x0 DUP2 PUSH32 0xFFFFFFFFFFFFFFFFFFFFFFFFFFFFFFFFFFFFFFFFFFFFFFFFFFFFFFFFFFFFFFFF DIV DUP4 GT DUP3 ISZERO ISZERO AND ISZERO PUSH2 0x1BA0 JUMPI PUSH2 0x1BA0 PUSH2 0x1A83 JUMP JUMPDEST POP MUL SWAP1 JUMP JUMPDEST PUSH1 0x0 DUP3 PUSH2 0x1BDB JUMPI PUSH32 0x4E487B7100000000000000000000000000000000000000000000000000000000 PUSH1 0x0 MSTORE PUSH1 0x12 PUSH1 0x4 MSTORE PUSH1 0x24 PUSH1 0x0 REVERT JUMPDEST POP DIV SWAP1 JUMP JUMPDEST PUSH1 0x0 PUSH1 0x20 DUP3 DUP5 SUB SLT ISZERO PUSH2 0x1BF2 JUMPI PUSH1 0x0 DUP1 REVERT JUMPDEST DUP2 MLOAD PUSH2 0xE81 DUP2 PUSH2 0x18DB JUMP JUMPDEST PUSH1 0x0 PUSH1 0x20 DUP3 DUP5 SUB SLT ISZERO PUSH2 0x1C0F JUMPI PUSH1 0x0 DUP1 REVERT JUMPDEST DUP2 MLOAD PUSH2 0xE81 DUP2 PUSH2 0x19FA JUMP JUMPDEST PUSH1 0x0 JUMPDEST DUP4 DUP2 LT ISZERO PUSH2 0x1C35 JUMPI DUP2 DUP2 ADD MLOAD DUP4 DUP3 ADD MSTORE PUSH1 0x20 ADD PUSH2 0x1C1D JUMP JUMPDEST DUP4 DUP2 GT ISZERO PUSH2 0x1C44 JUMPI PUSH1 0x0 DUP5 DUP5 ADD MSTORE JUMPDEST POP POP POP POP JUMP JUMPDEST PUSH1 0x0 DUP3 MLOAD PUSH2 0x1C5C DUP2 DUP5 PUSH1 0x20 DUP8 ADD PUSH2 0x1C1A JUMP JUMPDEST SWAP2 SWAP1 SWAP2 ADD SWAP3 SWAP2 POP POP JUMP JUMPDEST PUSH1 0x20 DUP2 MSTORE PUSH1 0x0 DUP3 MLOAD DUP1 PUSH1 0x20 DUP5 ADD MSTORE PUSH2 0x1C85 DUP2 PUSH1 0x40 DUP6 ADD PUSH1 0x20 DUP8 ADD PUSH2 0x1C1A JUMP JUMPDEST PUSH1 0x1F ADD PUSH32 0xFFFFFFFFFFFFFFFFFFFFFFFFFFFFFFFFFFFFFFFFFFFFFFFFFFFFFFFFFFFFFFE0 AND SWAP2 SWAP1 SWAP2 ADD PUSH1 0x40 ADD SWAP3 SWAP2 POP POP JUMP INVALID LOG2 PUSH5 0x6970667358 0x22 SLT KECCAK256 0xBD RETURN MSTORE DUP15 PC DUP14 PUSH28 0xF97F87D9135BE027F592D647BD5A070D70520DC4AA1AD36DED64736F PUSH13 0x634300080C0033000000000000 "
				},
				"gasEstimates": {
					"creation": {
						"codeDepositCost": "1481000",
						"executionCost": "infinite",
						"totalCost": "infinite"
					},
					"external": {
						"adminWithdrawRewards()": "infinite",
						"availableRewards(address)": "infinite",
						"claimRewards()": "infinite",
						"getStakedTokens(address)": "infinite",
						"getStakedTokens_V3(address)": "infinite",
						"lockEnabled()": "2400",
						"lockTime()": "2364",
						"nftCollection()": "2380",
						"owner()": "2386",
						"paused()": "2394",
						"renounceOwnership()": "infinite",
						"rewardsPerHour()": "2385",
						"rewardsToken()": "2402",
						"setLockEnabled(bool)": "26775",
						"setLockTime(uint256)": "24535",
						"setRewardsPerHour(uint256)": "24557",
						"stake(uint256)": "infinite",
						"stakerAddress(uint256)": "2520",
						"stakers(address)": "6821",
						"tokenStartStakeTime(uint256)": "2484",
						"transferOwnership(address)": "infinite",
						"version()": "2363",
						"withdraw(uint256)": "infinite"
					},
					"internal": {
						"_stake(address,uint256)": "infinite",
						"calculateRewards(address)": "infinite"
					}
				},
				"methodIdentifiers": {
					"adminWithdrawRewards()": "f995441b",
					"availableRewards(address)": "f854a27f",
					"claimRewards()": "372500ab",
					"getStakedTokens(address)": "63c28db1",
					"getStakedTokens_V3(address)": "0c2517a8",
					"lockEnabled()": "3166b848",
					"lockTime()": "0d668087",
					"nftCollection()": "6588103b",
					"owner()": "8da5cb5b",
					"paused()": "5c975abb",
					"renounceOwnership()": "715018a6",
					"rewardsPerHour()": "8e7271fa",
					"rewardsToken()": "d1af0c7d",
					"setLockEnabled(bool)": "6aa4439f",
					"setLockTime(uint256)": "ae04d45d",
					"setRewardsPerHour(uint256)": "b5a5e509",
					"stake(uint256)": "a694fc3a",
					"stakerAddress(uint256)": "94067045",
					"stakers(address)": "9168ae72",
					"tokenStartStakeTime(uint256)": "114cd3c8",
					"transferOwnership(address)": "f2fde38b",
					"version()": "54fd4d50",
					"withdraw(uint256)": "2e1a7d4d"
				}
			},
			"storageLayout": {
				"storage": [
					{
						"astId": 569,
						"contract": "source/Farm.sol:Farm",
						"label": "_status",
						"offset": 0,
						"slot": "0",
						"type": "t_uint256"
					},
					{
						"astId": 471,
						"contract": "source/Farm.sol:Farm",
						"label": "_paused",
						"offset": 0,
						"slot": "1",
						"type": "t_bool"
					},
					{
						"astId": 1022,
						"contract": "source/Farm.sol:Farm",
						"label": "_owner",
						"offset": 1,
						"slot": "1",
						"type": "t_address"
					},
					{
						"astId": 1166,
						"contract": "source/Farm.sol:Farm",
						"label": "rewardsToken",
						"offset": 0,
						"slot": "2",
						"type": "t_contract(IERC20)438"
					},
					{
						"astId": 1169,
						"contract": "source/Farm.sol:Farm",
						"label": "nftCollection",
						"offset": 0,
						"slot": "3",
						"type": "t_contract(IERC721)122"
					},
					{
						"astId": 1171,
						"contract": "source/Farm.sol:Farm",
						"label": "nftCollectionAddress",
						"offset": 0,
						"slot": "4",
						"type": "t_address"
					},
					{
						"astId": 1174,
						"contract": "source/Farm.sol:Farm",
						"label": "rewardsPerHour",
						"offset": 0,
						"slot": "5",
						"type": "t_uint256"
					},
					{
						"astId": 1177,
						"contract": "source/Farm.sol:Farm",
						"label": "version",
						"offset": 0,
						"slot": "6",
						"type": "t_uint256"
					},
					{
						"astId": 1180,
						"contract": "source/Farm.sol:Farm",
						"label": "lockEnabled",
						"offset": 0,
						"slot": "7",
						"type": "t_bool"
					},
					{
						"astId": 1183,
						"contract": "source/Farm.sol:Farm",
						"label": "lockTime",
						"offset": 0,
						"slot": "8",
						"type": "t_uint256"
					},
					{
						"astId": 1188,
						"contract": "source/Farm.sol:Farm",
						"label": "stakers",
						"offset": 0,
						"slot": "9",
						"type": "t_mapping(t_address,t_struct(Staker)1163_storage)"
					},
					{
						"astId": 1192,
						"contract": "source/Farm.sol:Farm",
						"label": "stakerAddress",
						"offset": 0,
						"slot": "10",
						"type": "t_mapping(t_uint256,t_address)"
					},
					{
						"astId": 1196,
						"contract": "source/Farm.sol:Farm",
						"label": "tokenStartStakeTime",
						"offset": 0,
						"slot": "11",
						"type": "t_mapping(t_uint256,t_uint256)"
					}
				],
				"types": {
					"t_address": {
						"encoding": "inplace",
						"label": "address",
						"numberOfBytes": "20"
					},
					"t_array(t_struct(StakedToken)1152_storage)dyn_storage": {
						"base": "t_struct(StakedToken)1152_storage",
						"encoding": "dynamic_array",
						"label": "struct Farm.StakedToken[]",
						"numberOfBytes": "32"
					},
					"t_bool": {
						"encoding": "inplace",
						"label": "bool",
						"numberOfBytes": "1"
					},
					"t_contract(IERC20)438": {
						"encoding": "inplace",
						"label": "contract IERC20",
						"numberOfBytes": "20"
					},
					"t_contract(IERC721)122": {
						"encoding": "inplace",
						"label": "contract IERC721",
						"numberOfBytes": "20"
					},
					"t_mapping(t_address,t_struct(Staker)1163_storage)": {
						"encoding": "mapping",
						"key": "t_address",
						"label": "mapping(address => struct Farm.Staker)",
						"numberOfBytes": "32",
						"value": "t_struct(Staker)1163_storage"
					},
					"t_mapping(t_uint256,t_address)": {
						"encoding": "mapping",
						"key": "t_uint256",
						"label": "mapping(uint256 => address)",
						"numberOfBytes": "32",
						"value": "t_address"
					},
					"t_mapping(t_uint256,t_uint256)": {
						"encoding": "mapping",
						"key": "t_uint256",
						"label": "mapping(uint256 => uint256)",
						"numberOfBytes": "32",
						"value": "t_uint256"
					},
					"t_struct(StakedToken)1152_storage": {
						"encoding": "inplace",
						"label": "struct Farm.StakedToken",
						"members": [
							{
								"astId": 1147,
								"contract": "source/Farm.sol:Farm",
								"label": "staker",
								"offset": 0,
								"slot": "0",
								"type": "t_address"
							},
							{
								"astId": 1149,
								"contract": "source/Farm.sol:Farm",
								"label": "tokenId",
								"offset": 0,
								"slot": "1",
								"type": "t_uint256"
							},
							{
								"astId": 1151,
								"contract": "source/Farm.sol:Farm",
								"label": "stackeUtx",
								"offset": 0,
								"slot": "2",
								"type": "t_uint256"
							}
						],
						"numberOfBytes": "96"
					},
					"t_struct(Staker)1163_storage": {
						"encoding": "inplace",
						"label": "struct Farm.Staker",
						"members": [
							{
								"astId": 1154,
								"contract": "source/Farm.sol:Farm",
								"label": "amountStaked",
								"offset": 0,
								"slot": "0",
								"type": "t_uint256"
							},
							{
								"astId": 1158,
								"contract": "source/Farm.sol:Farm",
								"label": "stakedTokens",
								"offset": 0,
								"slot": "1",
								"type": "t_array(t_struct(StakedToken)1152_storage)dyn_storage"
							},
							{
								"astId": 1160,
								"contract": "source/Farm.sol:Farm",
								"label": "timeOfLastUpdate",
								"offset": 0,
								"slot": "2",
								"type": "t_uint256"
							},
							{
								"astId": 1162,
								"contract": "source/Farm.sol:Farm",
								"label": "unclaimedRewards",
								"offset": 0,
								"slot": "3",
								"type": "t_uint256"
							}
						],
						"numberOfBytes": "128"
					},
					"t_uint256": {
						"encoding": "inplace",
						"label": "uint256",
						"numberOfBytes": "32"
					}
				}
			},
			"userdoc": {
				"kind": "user",
				"methods": {},
				"version": 1
			}
		}
	}
}