{
	"source/Farm.sol": {
		"Farm": {
			"abi": [
				{
					"inputs": [
						{
							"internalType": "address",
							"name": "_nftCollection",
							"type": "address"
						},
						{
							"internalType": "contract IERC20",
							"name": "_rewardsToken",
							"type": "address"
						},
						{
							"internalType": "uint256",
							"name": "_rewardsPerHour",
							"type": "uint256"
						},
						{
							"internalType": "bool",
							"name": "_lockEnabled",
							"type": "bool"
						},
						{
							"internalType": "uint256",
							"name": "_lockTime",
							"type": "uint256"
						}
					],
					"stateMutability": "nonpayable",
					"type": "constructor"
				},
				{
					"anonymous": false,
					"inputs": [
						{
							"indexed": true,
							"internalType": "address",
							"name": "previousOwner",
							"type": "address"
						},
						{
							"indexed": true,
							"internalType": "address",
							"name": "newOwner",
							"type": "address"
						}
					],
					"name": "OwnershipTransferred",
					"type": "event"
				},
				{
					"anonymous": false,
					"inputs": [
						{
							"indexed": false,
							"internalType": "address",
							"name": "account",
							"type": "address"
						}
					],
					"name": "Paused",
					"type": "event"
				},
				{
					"anonymous": false,
					"inputs": [
						{
							"indexed": false,
							"internalType": "address",
							"name": "account",
							"type": "address"
						}
					],
					"name": "Unpaused",
					"type": "event"
				},
				{
					"inputs": [],
					"name": "adminWithdrawRewards",
					"outputs": [],
					"stateMutability": "nonpayable",
					"type": "function"
				},
				{
					"inputs": [
						{
							"internalType": "address",
							"name": "_staker",
							"type": "address"
						}
					],
					"name": "availableRewards",
					"outputs": [
						{
							"internalType": "uint256",
							"name": "",
							"type": "uint256"
						}
					],
					"stateMutability": "view",
					"type": "function"
				},
				{
					"inputs": [],
					"name": "claimRewards",
					"outputs": [],
					"stateMutability": "nonpayable",
					"type": "function"
				},
				{
					"inputs": [
						{
							"internalType": "address",
							"name": "_user",
							"type": "address"
						}
					],
					"name": "getStakedTokens",
					"outputs": [
						{
							"components": [
								{
									"internalType": "address",
									"name": "staker",
									"type": "address"
								},
								{
									"internalType": "uint256",
									"name": "tokenId",
									"type": "uint256"
								},
								{
									"internalType": "uint256",
									"name": "stackeUtx",
									"type": "uint256"
								}
							],
							"internalType": "struct Farm.StakedToken[]",
							"name": "",
							"type": "tuple[]"
						}
					],
					"stateMutability": "view",
					"type": "function"
				},
				{
					"inputs": [],
					"name": "lockEnabled",
					"outputs": [
						{
							"internalType": "bool",
							"name": "",
							"type": "bool"
						}
					],
					"stateMutability": "view",
					"type": "function"
				},
				{
					"inputs": [],
					"name": "lockTime",
					"outputs": [
						{
							"internalType": "uint256",
							"name": "",
							"type": "uint256"
						}
					],
					"stateMutability": "view",
					"type": "function"
				},
				{
					"inputs": [],
					"name": "nftCollection",
					"outputs": [
						{
							"internalType": "contract IERC721",
							"name": "",
							"type": "address"
						}
					],
					"stateMutability": "view",
					"type": "function"
				},
				{
					"inputs": [],
					"name": "owner",
					"outputs": [
						{
							"internalType": "address",
							"name": "",
							"type": "address"
						}
					],
					"stateMutability": "view",
					"type": "function"
				},
				{
					"inputs": [],
					"name": "paused",
					"outputs": [
						{
							"internalType": "bool",
							"name": "",
							"type": "bool"
						}
					],
					"stateMutability": "view",
					"type": "function"
				},
				{
					"inputs": [],
					"name": "renounceOwnership",
					"outputs": [],
					"stateMutability": "nonpayable",
					"type": "function"
				},
				{
					"inputs": [],
					"name": "rewardsPerHour",
					"outputs": [
						{
							"internalType": "uint256",
							"name": "",
							"type": "uint256"
						}
					],
					"stateMutability": "view",
					"type": "function"
				},
				{
					"inputs": [],
					"name": "rewardsToken",
					"outputs": [
						{
							"internalType": "contract IERC20",
							"name": "",
							"type": "address"
						}
					],
					"stateMutability": "view",
					"type": "function"
				},
				{
					"inputs": [
						{
							"internalType": "bool",
							"name": "_lockEnabled",
							"type": "bool"
						}
					],
					"name": "setLockEnabled",
					"outputs": [],
					"stateMutability": "nonpayable",
					"type": "function"
				},
				{
					"inputs": [
						{
							"internalType": "uint256",
							"name": "_lockTime",
							"type": "uint256"
						}
					],
					"name": "setLockTime",
					"outputs": [],
					"stateMutability": "nonpayable",
					"type": "function"
				},
				{
					"inputs": [
						{
							"internalType": "uint256",
							"name": "_rewardsPerHour",
							"type": "uint256"
						}
					],
					"name": "setRewardsPerHour",
					"outputs": [],
					"stateMutability": "nonpayable",
					"type": "function"
				},
				{
					"inputs": [
						{
							"internalType": "uint256",
							"name": "_tokenId",
							"type": "uint256"
						}
					],
					"name": "stake",
					"outputs": [],
					"stateMutability": "nonpayable",
					"type": "function"
				},
				{
					"inputs": [
						{
							"internalType": "uint256",
							"name": "",
							"type": "uint256"
						}
					],
					"name": "stakerAddress",
					"outputs": [
						{
							"internalType": "address",
							"name": "",
							"type": "address"
						}
					],
					"stateMutability": "view",
					"type": "function"
				},
				{
					"inputs": [
						{
							"internalType": "address",
							"name": "",
							"type": "address"
						}
					],
					"name": "stakers",
					"outputs": [
						{
							"internalType": "uint256",
							"name": "amountStaked",
							"type": "uint256"
						},
						{
							"internalType": "uint256",
							"name": "timeOfLastUpdate",
							"type": "uint256"
						},
						{
							"internalType": "uint256",
							"name": "unclaimedRewards",
							"type": "uint256"
						}
					],
					"stateMutability": "view",
					"type": "function"
				},
				{
					"inputs": [
						{
							"internalType": "uint256",
							"name": "",
							"type": "uint256"
						}
					],
					"name": "tokenStartStakeTime",
					"outputs": [
						{
							"internalType": "uint256",
							"name": "",
							"type": "uint256"
						}
					],
					"stateMutability": "view",
					"type": "function"
				},
				{
					"inputs": [
						{
							"internalType": "address",
							"name": "newOwner",
							"type": "address"
						}
					],
					"name": "transferOwnership",
					"outputs": [],
					"stateMutability": "nonpayable",
					"type": "function"
				},
				{
					"inputs": [],
					"name": "version",
					"outputs": [
						{
							"internalType": "uint256",
							"name": "",
							"type": "uint256"
						}
					],
					"stateMutability": "view",
					"type": "function"
				},
				{
					"inputs": [
						{
							"internalType": "uint256",
							"name": "_tokenId",
							"type": "uint256"
						}
					],
					"name": "withdraw",
					"outputs": [],
					"stateMutability": "nonpayable",
					"type": "function"
				}
			],
			"devdoc": {
				"kind": "dev",
				"methods": {
					"owner()": {
						"details": "Returns the address of the current owner."
					},
					"paused()": {
						"details": "Returns true if the contract is paused, and false otherwise."
					},
					"renounceOwnership()": {
						"details": "Leaves the contract without owner. It will not be possible to call `onlyOwner` functions anymore. Can only be called by the current owner. NOTE: Renouncing ownership will leave the contract without an owner, thereby removing any functionality that is only available to the owner."
					},
					"transferOwnership(address)": {
						"details": "Transfers ownership of the contract to a new account (`newOwner`). Can only be called by the current owner."
					}
				},
				"version": 1
			},
			"evm": {
				"assembly": "    /* \"source/Farm.sol\":28878:35184  contract Farm is ReentrancyGuard, Pausable, Ownable {... */\n  mstore(0x40, 0x80)\n    /* \"source/Farm.sol\":29555:29561  100000 */\n  0x0186a0\n    /* \"source/Farm.sol\":29523:29561  uint256 public rewardsPerHour = 100000 */\n  0x05\n  sstore\n    /* \"source/Farm.sol\":29595:29596  3 */\n  0x03\n    /* \"source/Farm.sol\":29570:29596  uint256 public version = 3 */\n  0x06\n  sstore\n    /* \"source/Farm.sol\":29605:29636  bool public lockEnabled = false */\n  0x07\n  dup1\n  sload\n  not(0xff)\n  and\n  swap1\n  sstore\n  0x00\n    /* \"source/Farm.sol\":29654:29681  uint256 public lockTime = 0 */\n  0x08\n  sstore\n    /* \"source/Farm.sol\":30011:30495  constructor(... */\n  callvalue\n  dup1\n  iszero\n  tag_1\n  jumpi\n  0x00\n  dup1\n  revert\ntag_1:\n  pop\n  mload(0x40)\n  sub(codesize, bytecodeSize)\n  dup1\n  bytecodeSize\n  dup4\n  codecopy\n  dup2\n  add\n  0x40\n  dup2\n  swap1\n  mstore\n  tag_2\n  swap2\n  tag_3\n  jump\t// in\ntag_2:\n    /* \"source/Farm.sol\":17794:17795  1 */\n  0x01\n    /* \"source/Farm.sol\":17905:17912  _status */\n  0x00\n    /* \"source/Farm.sol\":17905:17927  _status = _NOT_ENTERED */\n  dup2\n  swap1\n  sstore\n    /* \"source/Farm.sol\":15323:15338  _paused = false */\n  dup1\n  sload\n  not(0xff)\n  and\n  swap1\n  sstore\n    /* \"source/Farm.sol\":27132:27164  _transferOwnership(_msgSender()) */\n  tag_11\n    /* \"source/Farm.sol\":14778:14788  msg.sender */\n  caller\n    /* \"source/Farm.sol\":27132:27150  _transferOwnership */\n  tag_14\n    /* \"source/Farm.sol\":27132:27164  _transferOwnership(_msgSender()) */\n  jump\t// in\ntag_11:\n    /* \"source/Farm.sol\":30224:30237  nftCollection */\n  0x03\n    /* \"source/Farm.sol\":30224:30263  nftCollection = IERC721(_nftCollection) */\n  dup1\n  sload\n  sub(shl(0xa0, 0x01), 0x01)\n  swap7\n  dup8\n  and\n  not(sub(shl(0xa0, 0x01), 0x01))\n  swap2\n  dup3\n  and\n  dup2\n  or\n  swap1\n  swap3\n  sstore\n    /* \"source/Farm.sol\":30274:30294  nftCollectionAddress */\n  0x04\n    /* \"source/Farm.sol\":30274:30311  nftCollectionAddress = _nftCollection */\n  dup1\n  sload\n  dup3\n  and\n  swap1\n  swap3\n  or\n  swap1\n  swap2\n  sstore\n    /* \"source/Farm.sol\":30322:30334  rewardsToken */\n  0x02\n    /* \"source/Farm.sol\":30322:30350  rewardsToken = _rewardsToken */\n  dup1\n  sload\n  swap6\n  swap1\n  swap7\n  and\n  swap5\n  and\n  swap4\n  swap1\n  swap4\n  or\n  swap1\n  swap4\n  sstore\n    /* \"source/Farm.sol\":30361:30375  rewardsPerHour */\n  0x05\n    /* \"source/Farm.sol\":30361:30393  rewardsPerHour = _rewardsPerHour */\n  sstore\n    /* \"source/Farm.sol\":30404:30412  lockTime */\n  0x08\n    /* \"source/Farm.sol\":30404:30424  lockTime = _lockTime */\n  sstore\n    /* \"source/Farm.sol\":30451:30462  lockEnabled */\n  0x07\n    /* \"source/Farm.sol\":30451:30477  lockEnabled = _lockEnabled */\n  dup1\n  sload\n  swap2\n  iszero\n  iszero\n  not(0xff)\n  swap1\n  swap3\n  and\n  swap2\n  swap1\n  swap2\n  or\n  swap1\n  sstore\n    /* \"source/Farm.sol\":28878:35184  contract Farm is ReentrancyGuard, Pausable, Ownable {... */\n  jump(tag_20)\n    /* \"source/Farm.sol\":28678:28869  function _transferOwnership(address newOwner) internal virtual {... */\ntag_14:\n    /* \"source/Farm.sol\":28771:28777  _owner */\n  0x01\n  dup1\n  sload\n  sub(shl(0xa0, 0x01), 0x01)\n    /* \"source/Farm.sol\":28788:28805  _owner = newOwner */\n  dup4\n  dup2\n  and\n    /* \"source/Farm.sol\":28771:28777  _owner */\n  0x0100\n    /* \"source/Farm.sol\":28788:28805  _owner = newOwner */\n  dup2\n  dup2\n  mul\n  not(sub(shl(0xa8, 0x01), 0x0100))\n  dup6\n  and\n  or\n  swap1\n  swap5\n  sstore\n    /* \"source/Farm.sol\":28821:28861  OwnershipTransferred(oldOwner, newOwner) */\n  mload(0x40)\n    /* \"source/Farm.sol\":28771:28777  _owner */\n  swap4\n  swap1\n  swap3\n  div\n  and\n  swap2\n  dup3\n  swap1\n    /* \"source/Farm.sol\":28821:28861  OwnershipTransferred(oldOwner, newOwner) */\n  0x8be0079c531659141344cd1fd0a4f28419497f9722a3daafe3b4186f6b6457e0\n  swap1\n    /* \"source/Farm.sol\":28752:28768  address oldOwner */\n  0x00\n  swap1\n    /* \"source/Farm.sol\":28821:28861  OwnershipTransferred(oldOwner, newOwner) */\n  log3\n    /* \"source/Farm.sol\":28741:28869  {... */\n  pop\n    /* \"source/Farm.sol\":28678:28869  function _transferOwnership(address newOwner) internal virtual {... */\n  pop\n  jump\t// out\n    /* \"#utility.yul\":14:145   */\ntag_19:\n  sub(shl(0xa0, 0x01), 0x01)\n    /* \"#utility.yul\":89:120   */\n  dup2\n  and\n    /* \"#utility.yul\":79:121   */\n  dup2\n  eq\n    /* \"#utility.yul\":69:139   */\n  tag_22\n  jumpi\n    /* \"#utility.yul\":135:136   */\n  0x00\n    /* \"#utility.yul\":132:133   */\n  dup1\n    /* \"#utility.yul\":125:137   */\n  revert\n    /* \"#utility.yul\":69:139   */\ntag_22:\n    /* \"#utility.yul\":14:145   */\n  pop\n  jump\t// out\n    /* \"#utility.yul\":150:835   */\ntag_3:\n    /* \"#utility.yul\":267:273   */\n  0x00\n    /* \"#utility.yul\":275:281   */\n  dup1\n    /* \"#utility.yul\":283:289   */\n  0x00\n    /* \"#utility.yul\":291:297   */\n  dup1\n    /* \"#utility.yul\":299:305   */\n  0x00\n    /* \"#utility.yul\":352:355   */\n  0xa0\n    /* \"#utility.yul\":340:349   */\n  dup7\n    /* \"#utility.yul\":331:338   */\n  dup9\n    /* \"#utility.yul\":327:350   */\n  sub\n    /* \"#utility.yul\":323:356   */\n  slt\n    /* \"#utility.yul\":320:373   */\n  iszero\n  tag_24\n  jumpi\n    /* \"#utility.yul\":369:370   */\n  0x00\n    /* \"#utility.yul\":366:367   */\n  dup1\n    /* \"#utility.yul\":359:371   */\n  revert\n    /* \"#utility.yul\":320:373   */\ntag_24:\n    /* \"#utility.yul\":401:410   */\n  dup6\n    /* \"#utility.yul\":395:411   */\n  mload\n    /* \"#utility.yul\":420:451   */\n  tag_25\n    /* \"#utility.yul\":445:450   */\n  dup2\n    /* \"#utility.yul\":420:451   */\n  tag_19\n  jump\t// in\ntag_25:\n    /* \"#utility.yul\":520:522   */\n  0x20\n    /* \"#utility.yul\":505:523   */\n  dup8\n  add\n    /* \"#utility.yul\":499:524   */\n  mload\n    /* \"#utility.yul\":470:475   */\n  swap1\n  swap6\n  pop\n    /* \"#utility.yul\":533:566   */\n  tag_26\n    /* \"#utility.yul\":499:524   */\n  dup2\n    /* \"#utility.yul\":533:566   */\n  tag_19\n  jump\t// in\ntag_26:\n    /* \"#utility.yul\":632:634   */\n  0x40\n    /* \"#utility.yul\":617:635   */\n  dup8\n  add\n    /* \"#utility.yul\":611:636   */\n  mload\n    /* \"#utility.yul\":681:683   */\n  0x60\n    /* \"#utility.yul\":666:684   */\n  dup9\n  add\n    /* \"#utility.yul\":660:685   */\n  mload\n    /* \"#utility.yul\":585:592   */\n  swap2\n  swap6\n  pop\n    /* \"#utility.yul\":611:636   */\n  swap4\n  pop\n    /* \"#utility.yul\":723:738   */\n  dup1\n  iszero\n    /* \"#utility.yul\":716:739   */\n  iszero\n    /* \"#utility.yul\":704:740   */\n  dup2\n  eq\n    /* \"#utility.yul\":694:758   */\n  tag_27\n  jumpi\n    /* \"#utility.yul\":754:755   */\n  0x00\n    /* \"#utility.yul\":751:752   */\n  dup1\n    /* \"#utility.yul\":744:756   */\n  revert\n    /* \"#utility.yul\":694:758   */\ntag_27:\n    /* \"#utility.yul\":777:784   */\n  dup1\n    /* \"#utility.yul\":767:784   */\n  swap3\n  pop\n  pop\n    /* \"#utility.yul\":824:827   */\n  0x80\n    /* \"#utility.yul\":813:822   */\n  dup7\n    /* \"#utility.yul\":809:828   */\n  add\n    /* \"#utility.yul\":803:829   */\n  mload\n    /* \"#utility.yul\":793:829   */\n  swap1\n  pop\n    /* \"#utility.yul\":150:835   */\n  swap3\n  swap6\n  pop\n  swap3\n  swap6\n  swap1\n  swap4\n  pop\n  jump\t// out\ntag_20:\n    /* \"source/Farm.sol\":28878:35184  contract Farm is ReentrancyGuard, Pausable, Ownable {... */\n  dataSize(sub_0)\n  dup1\n  dataOffset(sub_0)\n  0x00\n  codecopy\n  0x00\n  return\nstop\n\nsub_0: assembly {\n        /* \"source/Farm.sol\":28878:35184  contract Farm is ReentrancyGuard, Pausable, Ownable {... */\n      mstore(0x40, 0x80)\n      callvalue\n      dup1\n      iszero\n      tag_1\n      jumpi\n      0x00\n      dup1\n      revert\n    tag_1:\n      pop\n      jumpi(tag_2, lt(calldatasize, 0x04))\n      shr(0xe0, calldataload(0x00))\n      dup1\n      0x8da5cb5b\n      gt\n      tag_25\n      jumpi\n      dup1\n      0xae04d45d\n      gt\n      tag_26\n      jumpi\n      dup1\n      0xf2fde38b\n      gt\n      tag_27\n      jumpi\n      dup1\n      0xf2fde38b\n      eq\n      tag_22\n      jumpi\n      dup1\n      0xf854a27f\n      eq\n      tag_23\n      jumpi\n      dup1\n      0xf995441b\n      eq\n      tag_24\n      jumpi\n      0x00\n      dup1\n      revert\n    tag_27:\n      dup1\n      0xae04d45d\n      eq\n      tag_19\n      jumpi\n      dup1\n      0xb5a5e509\n      eq\n      tag_20\n      jumpi\n      dup1\n      0xd1af0c7d\n      eq\n      tag_21\n      jumpi\n      0x00\n      dup1\n      revert\n    tag_26:\n      dup1\n      0x9168ae72\n      gt\n      tag_28\n      jumpi\n      dup1\n      0x9168ae72\n      eq\n      tag_16\n      jumpi\n      dup1\n      0x94067045\n      eq\n      tag_17\n      jumpi\n      dup1\n      0xa694fc3a\n      eq\n      tag_18\n      jumpi\n      0x00\n      dup1\n      revert\n    tag_28:\n      dup1\n      0x8da5cb5b\n      eq\n      tag_14\n      jumpi\n      dup1\n      0x8e7271fa\n      eq\n      tag_15\n      jumpi\n      0x00\n      dup1\n      revert\n    tag_25:\n      dup1\n      0x54fd4d50\n      gt\n      tag_29\n      jumpi\n      dup1\n      0x6588103b\n      gt\n      tag_30\n      jumpi\n      dup1\n      0x6588103b\n      eq\n      tag_11\n      jumpi\n      dup1\n      0x6aa4439f\n      eq\n      tag_12\n      jumpi\n      dup1\n      0x715018a6\n      eq\n      tag_13\n      jumpi\n      0x00\n      dup1\n      revert\n    tag_30:\n      dup1\n      0x54fd4d50\n      eq\n      tag_8\n      jumpi\n      dup1\n      0x5c975abb\n      eq\n      tag_9\n      jumpi\n      dup1\n      0x63c28db1\n      eq\n      tag_10\n      jumpi\n      0x00\n      dup1\n      revert\n    tag_29:\n      dup1\n      0x2e1a7d4d\n      gt\n      tag_31\n      jumpi\n      dup1\n      0x2e1a7d4d\n      eq\n      tag_5\n      jumpi\n      dup1\n      0x3166b848\n      eq\n      tag_6\n      jumpi\n      dup1\n      0x372500ab\n      eq\n      tag_7\n      jumpi\n      0x00\n      dup1\n      revert\n    tag_31:\n      dup1\n      0x0d668087\n      eq\n      tag_3\n      jumpi\n      dup1\n      0x114cd3c8\n      eq\n      tag_4\n      jumpi\n    tag_2:\n      0x00\n      dup1\n      revert\n        /* \"source/Farm.sol\":29654:29681  uint256 public lockTime = 0 */\n    tag_3:\n      tag_32\n      sload(0x08)\n      dup2\n      jump\n    tag_32:\n      mload(0x40)\n        /* \"#utility.yul\":160:185   */\n      swap1\n      dup2\n      mstore\n        /* \"#utility.yul\":148:150   */\n      0x20\n        /* \"#utility.yul\":133:151   */\n      add\n        /* \"source/Farm.sol\":29654:29681  uint256 public lockTime = 0 */\n    tag_34:\n      mload(0x40)\n      dup1\n      swap2\n      sub\n      swap1\n      return\n        /* \"source/Farm.sol\":29938:29992  mapping(uint256 => uint256) public tokenStartStakeTime */\n    tag_4:\n      tag_32\n      tag_37\n      calldatasize\n      0x04\n      tag_38\n      jump\t// in\n    tag_37:\n      mstore(0x20, 0x0b)\n      0x00\n      swap1\n      dup2\n      mstore\n      0x40\n      swap1\n      keccak256\n      sload\n      dup2\n      jump\n        /* \"source/Farm.sol\":32143:33572  function withdraw(uint256 _tokenId) external nonReentrant {... */\n    tag_5:\n      tag_41\n      tag_42\n      calldatasize\n      0x04\n      tag_38\n      jump\t// in\n    tag_42:\n      tag_43\n      jump\t// in\n    tag_41:\n      stop\n        /* \"source/Farm.sol\":29605:29636  bool public lockEnabled = false */\n    tag_6:\n      sload(0x07)\n      tag_44\n      swap1\n      0xff\n      and\n      dup2\n      jump\n    tag_44:\n      mload(0x40)\n        /* \"#utility.yul\":546:560   */\n      swap1\n      iszero\n        /* \"#utility.yul\":539:561   */\n      iszero\n        /* \"#utility.yul\":521:562   */\n      dup2\n      mstore\n        /* \"#utility.yul\":509:511   */\n      0x20\n        /* \"#utility.yul\":494:512   */\n      add\n        /* \"source/Farm.sol\":29605:29636  bool public lockEnabled = false */\n      tag_34\n        /* \"#utility.yul\":381:568   */\n      jump\n        /* \"source/Farm.sol\":33888:34274  function claimRewards() external {... */\n    tag_7:\n      tag_41\n      tag_49\n      jump\t// in\n        /* \"source/Farm.sol\":29570:29596  uint256 public version = 3 */\n    tag_8:\n      tag_32\n      sload(0x06)\n      dup2\n      jump\n        /* \"source/Farm.sol\":15972:16058  function paused() public view virtual returns (bool) {... */\n    tag_9:\n        /* \"source/Farm.sol\":16043:16050  _paused */\n      and(0xff, sload(0x01))\n        /* \"source/Farm.sol\":15972:16058  function paused() public view virtual returns (bool) {... */\n      jump(tag_44)\n        /* \"source/Farm.sol\":34282:34962  function getStakedTokens(address _user) public view returns (StakedToken[] memory) {... */\n    tag_10:\n      tag_56\n      tag_57\n      calldatasize\n      0x04\n      tag_58\n      jump\t// in\n    tag_57:\n      tag_59\n      jump\t// in\n    tag_56:\n      mload(0x40)\n      tag_34\n      swap2\n      swap1\n      tag_61\n      jump\t// in\n        /* \"source/Farm.sol\":29393:29421  IERC721 public nftCollection */\n    tag_11:\n      sload(0x03)\n      tag_62\n      swap1\n      0xffffffffffffffffffffffffffffffffffffffff\n      and\n      dup2\n      jump\n    tag_62:\n      mload(0x40)\n        /* \"#utility.yul\":2080:2122   */\n      0xffffffffffffffffffffffffffffffffffffffff\n        /* \"#utility.yul\":2068:2123   */\n      swap1\n      swap2\n      and\n        /* \"#utility.yul\":2050:2124   */\n      dup2\n      mstore\n        /* \"#utility.yul\":2038:2040   */\n      0x20\n        /* \"#utility.yul\":2023:2041   */\n      add\n        /* \"source/Farm.sol\":29393:29421  IERC721 public nftCollection */\n      tag_34\n        /* \"#utility.yul\":1889:2130   */\n      jump\n        /* \"source/Farm.sol\":30514:30621  function setLockEnabled(bool _lockEnabled) external onlyOwner {... */\n    tag_12:\n      tag_41\n      tag_67\n      calldatasize\n      0x04\n      tag_68\n      jump\t// in\n    tag_67:\n      tag_69\n      jump\t// in\n        /* \"source/Farm.sol\":28059:28162  function renounceOwnership() public virtual onlyOwner {... */\n    tag_13:\n      tag_41\n      tag_71\n      jump\t// in\n        /* \"source/Farm.sol\":27411:27498  function owner() public view virtual returns (address) {... */\n    tag_14:\n        /* \"source/Farm.sol\":27484:27490  _owner */\n      sload(0x01)\n      0x0100\n      swap1\n      div\n      0xffffffffffffffffffffffffffffffffffffffff\n      and\n        /* \"source/Farm.sol\":27411:27498  function owner() public view virtual returns (address) {... */\n      jump(tag_62)\n        /* \"source/Farm.sol\":29523:29561  uint256 public rewardsPerHour = 100000 */\n    tag_15:\n      tag_32\n      sload(0x05)\n      dup2\n      jump\n        /* \"source/Farm.sol\":29709:29750  mapping(address => Staker) public stakers */\n    tag_16:\n      tag_79\n      tag_80\n      calldatasize\n      0x04\n      tag_58\n      jump\t// in\n    tag_80:\n      mstore(0x20, 0x09)\n      0x00\n      swap1\n      dup2\n      mstore\n      0x40\n      swap1\n      keccak256\n      dup1\n      sload\n      0x02\n      dup3\n      add\n      sload\n      0x03\n      swap1\n      swap3\n      add\n      sload\n      swap1\n      swap2\n      swap1\n      dup4\n      jump\n    tag_79:\n      0x40\n      dup1\n      mload\n        /* \"#utility.yul\":2937:2962   */\n      swap4\n      dup5\n      mstore\n        /* \"#utility.yul\":2993:2995   */\n      0x20\n        /* \"#utility.yul\":2978:2996   */\n      dup5\n      add\n        /* \"#utility.yul\":2971:3005   */\n      swap3\n      swap1\n      swap3\n      mstore\n        /* \"#utility.yul\":3021:3039   */\n      swap1\n      dup3\n      add\n        /* \"#utility.yul\":3014:3048   */\n      mstore\n        /* \"#utility.yul\":2925:2927   */\n      0x60\n        /* \"#utility.yul\":2910:2928   */\n      add\n        /* \"source/Farm.sol\":29709:29750  mapping(address => Staker) public stakers */\n      tag_34\n        /* \"#utility.yul\":2735:3054   */\n      jump\n        /* \"source/Farm.sol\":29836:29884  mapping(uint256 => address) public stakerAddress */\n    tag_17:\n      tag_62\n      tag_85\n      calldatasize\n      0x04\n      tag_38\n      jump\t// in\n    tag_85:\n      mstore(0x20, 0x0a)\n      0x00\n      swap1\n      dup2\n      mstore\n      0x40\n      swap1\n      keccak256\n      sload\n      0xffffffffffffffffffffffffffffffffffffffff\n      and\n      dup2\n      jump\n        /* \"source/Farm.sol\":32019:32135  function stake(uint256 _tokenId) external nonReentrant whenNotPaused {... */\n    tag_18:\n      tag_41\n      tag_89\n      calldatasize\n      0x04\n      tag_38\n      jump\t// in\n    tag_89:\n      tag_90\n      jump\t// in\n        /* \"source/Farm.sol\":30638:30736  function setLockTime(uint256 _lockTime) external onlyOwner {... */\n    tag_19:\n      tag_41\n      tag_92\n      calldatasize\n      0x04\n      tag_38\n      jump\t// in\n    tag_92:\n      tag_93\n      jump\t// in\n        /* \"source/Farm.sol\":30742:30864  function setRewardsPerHour(uint256 _rewardsPerHour) external onlyOwner {... */\n    tag_20:\n      tag_41\n      tag_95\n      calldatasize\n      0x04\n      tag_38\n      jump\t// in\n    tag_95:\n      tag_96\n      jump\t// in\n        /* \"source/Farm.sol\":29360:29386  IERC20 public rewardsToken */\n    tag_21:\n      sload(0x02)\n      tag_62\n      swap1\n      0xffffffffffffffffffffffffffffffffffffffff\n      and\n      dup2\n      jump\n        /* \"source/Farm.sol\":28317:28518  function transferOwnership(address newOwner) public virtual onlyOwner {... */\n    tag_22:\n      tag_41\n      tag_102\n      calldatasize\n      0x04\n      tag_58\n      jump\t// in\n    tag_102:\n      tag_103\n      jump\t// in\n        /* \"source/Farm.sol\":34970:35179  function availableRewards(address _staker) public view returns (uint256) {... */\n    tag_23:\n      tag_32\n      tag_105\n      calldatasize\n      0x04\n      tag_58\n      jump\t// in\n    tag_105:\n      tag_106\n      jump\t// in\n        /* \"source/Farm.sol\":31816:32011  function adminWithdrawRewards() external onlyOwner whenPaused {... */\n    tag_24:\n      tag_41\n      tag_109\n      jump\t// in\n        /* \"source/Farm.sol\":32143:33572  function withdraw(uint256 _tokenId) external nonReentrant {... */\n    tag_43:\n        /* \"source/Farm.sol\":18356:18377  _nonReentrantBefore() */\n      tag_111\n        /* \"source/Farm.sol\":18356:18375  _nonReentrantBefore */\n      tag_112\n        /* \"source/Farm.sol\":18356:18377  _nonReentrantBefore() */\n      jump\t// in\n    tag_111:\n        /* \"source/Farm.sol\":32242:32252  msg.sender */\n      caller\n        /* \"source/Farm.sol\":32269:32270  0 */\n      0x00\n        /* \"source/Farm.sol\":32234:32253  stakers[msg.sender] */\n      swap1\n      dup2\n      mstore\n        /* \"source/Farm.sol\":32234:32241  stakers */\n      0x09\n        /* \"source/Farm.sol\":32234:32253  stakers[msg.sender] */\n      0x20\n      mstore\n      0x40\n      swap1\n      keccak256\n        /* \"source/Farm.sol\":32234:32266  stakers[msg.sender].amountStaked */\n      sload\n        /* \"source/Farm.sol\":32212:32323  require(... */\n      tag_114\n      jumpi\n      mload(0x40)\n      0x08c379a000000000000000000000000000000000000000000000000000000000\n      dup2\n      mstore\n        /* \"#utility.yul\":3506:3508   */\n      0x20\n        /* \"source/Farm.sol\":32212:32323  require(... */\n      0x04\n      dup3\n      add\n        /* \"#utility.yul\":3488:3509   */\n      mstore\n        /* \"#utility.yul\":3545:3547   */\n      0x19\n        /* \"#utility.yul\":3525:3543   */\n      0x24\n      dup3\n      add\n        /* \"#utility.yul\":3518:3548   */\n      mstore\n        /* \"#utility.yul\":3584:3611   */\n      0x596f752068617665206e6f20746f6b656e73207374616b656400000000000000\n        /* \"#utility.yul\":3564:3582   */\n      0x44\n      dup3\n      add\n        /* \"#utility.yul\":3557:3612   */\n      mstore\n        /* \"#utility.yul\":3629:3647   */\n      0x64\n      add\n        /* \"source/Farm.sol\":32212:32323  require(... */\n    tag_115:\n      mload(0x40)\n      dup1\n      swap2\n      sub\n      swap1\n      revert\n    tag_114:\n        /* \"source/Farm.sol\":32342:32365  stakerAddress[_tokenId] */\n      0x00\n      dup2\n      dup2\n      mstore\n        /* \"source/Farm.sol\":32342:32355  stakerAddress */\n      0x0a\n        /* \"source/Farm.sol\":32342:32365  stakerAddress[_tokenId] */\n      0x20\n      mstore\n      0x40\n      swap1\n      keccak256\n      sload\n        /* \"source/Farm.sol\":32342:32379  stakerAddress[_tokenId] == msg.sender */\n      0xffffffffffffffffffffffffffffffffffffffff\n        /* \"source/Farm.sol\":32342:32365  stakerAddress[_tokenId] */\n      and\n        /* \"source/Farm.sol\":32369:32379  msg.sender */\n      caller\n        /* \"source/Farm.sol\":32342:32379  stakerAddress[_tokenId] == msg.sender */\n      eq\n        /* \"source/Farm.sol\":32334:32409  require(stakerAddress[_tokenId] == msg.sender, \"You don't own this token!\") */\n      tag_117\n      jumpi\n      mload(0x40)\n      0x08c379a000000000000000000000000000000000000000000000000000000000\n      dup2\n      mstore\n        /* \"#utility.yul\":3860:3862   */\n      0x20\n        /* \"source/Farm.sol\":32334:32409  require(stakerAddress[_tokenId] == msg.sender, \"You don't own this token!\") */\n      0x04\n      dup3\n      add\n        /* \"#utility.yul\":3842:3863   */\n      mstore\n        /* \"#utility.yul\":3899:3901   */\n      0x19\n        /* \"#utility.yul\":3879:3897   */\n      0x24\n      dup3\n      add\n        /* \"#utility.yul\":3872:3902   */\n      mstore\n        /* \"#utility.yul\":3938:3965   */\n      0x596f7520646f6e2774206f776e207468697320746f6b656e2100000000000000\n        /* \"#utility.yul\":3918:3936   */\n      0x44\n      dup3\n      add\n        /* \"#utility.yul\":3911:3966   */\n      mstore\n        /* \"#utility.yul\":3983:4001   */\n      0x64\n      add\n        /* \"source/Farm.sol\":32334:32409  require(stakerAddress[_tokenId] == msg.sender, \"You don't own this token!\") */\n      tag_115\n        /* \"#utility.yul\":3658:4007   */\n      jump\n        /* \"source/Farm.sol\":32334:32409  require(stakerAddress[_tokenId] == msg.sender, \"You don't own this token!\") */\n    tag_117:\n        /* \"source/Farm.sol\":32445:32456  lockEnabled */\n      and(0xff, sload(0x07))\n        /* \"source/Farm.sol\":32445:32522  lockEnabled && ((tokenStartStakeTime[_tokenId] + lockTime) < block.timestamp) */\n      dup1\n      iszero\n      tag_120\n      jumpi\n      pop\n        /* \"source/Farm.sol\":32494:32502  lockTime */\n      sload(0x08)\n        /* \"source/Farm.sol\":32462:32491  tokenStartStakeTime[_tokenId] */\n      0x00\n      dup3\n      dup2\n      mstore\n        /* \"source/Farm.sol\":32462:32481  tokenStartStakeTime */\n      0x0b\n        /* \"source/Farm.sol\":32462:32491  tokenStartStakeTime[_tokenId] */\n      0x20\n      mstore\n      0x40\n      swap1\n      keccak256\n      sload\n        /* \"source/Farm.sol\":32506:32521  block.timestamp */\n      timestamp\n      swap2\n        /* \"source/Farm.sol\":32462:32502  tokenStartStakeTime[_tokenId] + lockTime */\n      tag_121\n      swap2\n      tag_122\n      jump\t// in\n    tag_121:\n        /* \"source/Farm.sol\":32461:32521  (tokenStartStakeTime[_tokenId] + lockTime) < block.timestamp */\n      lt\n        /* \"source/Farm.sol\":32445:32522  lockEnabled && ((tokenStartStakeTime[_tokenId] + lockTime) < block.timestamp) */\n    tag_120:\n        /* \"source/Farm.sol\":32444:32539  (lockEnabled && ((tokenStartStakeTime[_tokenId] + lockTime) < block.timestamp)) || !lockEnabled */\n      dup1\n      tag_123\n      jumpi\n      pop\n        /* \"source/Farm.sol\":32528:32539  lockEnabled */\n      and(0xff, sload(0x07))\n        /* \"source/Farm.sol\":32527:32539  !lockEnabled */\n      iszero\n        /* \"source/Farm.sol\":32444:32539  (lockEnabled && ((tokenStartStakeTime[_tokenId] + lockTime) < block.timestamp)) || !lockEnabled */\n    tag_123:\n        /* \"source/Farm.sol\":32422:32602  require(... */\n      tag_124\n      jumpi\n      mload(0x40)\n      0x08c379a000000000000000000000000000000000000000000000000000000000\n      dup2\n      mstore\n        /* \"#utility.yul\":4536:4538   */\n      0x20\n        /* \"source/Farm.sol\":32422:32602  require(... */\n      0x04\n      dup3\n      add\n        /* \"#utility.yul\":4518:4539   */\n      mstore\n        /* \"#utility.yul\":4575:4577   */\n      0x23\n        /* \"#utility.yul\":4555:4573   */\n      0x24\n      dup3\n      add\n        /* \"#utility.yul\":4548:4578   */\n      mstore\n        /* \"#utility.yul\":4614:4648   */\n      0x546f6b656e206c6f636b2074696d6520686173206e6f74207965742065787069\n        /* \"#utility.yul\":4594:4612   */\n      0x44\n      dup3\n      add\n        /* \"#utility.yul\":4587:4649   */\n      mstore\n        /* \"#utility.yul\":4685:4690   */\n      0x7265640000000000000000000000000000000000000000000000000000000000\n        /* \"#utility.yul\":4665:4683   */\n      0x64\n      dup3\n      add\n        /* \"#utility.yul\":4658:4691   */\n      mstore\n        /* \"#utility.yul\":4708:4727   */\n      0x84\n      add\n        /* \"source/Farm.sol\":32422:32602  require(... */\n      tag_115\n        /* \"#utility.yul\":4334:4733   */\n      jump\n        /* \"source/Farm.sol\":32422:32602  require(... */\n    tag_124:\n        /* \"source/Farm.sol\":32714:32729  uint256 rewards */\n      0x00\n        /* \"source/Farm.sol\":32732:32760  calculateRewards(msg.sender) */\n      tag_127\n        /* \"source/Farm.sol\":32749:32759  msg.sender */\n      caller\n        /* \"source/Farm.sol\":32732:32748  calculateRewards */\n      tag_128\n        /* \"source/Farm.sol\":32732:32760  calculateRewards(msg.sender) */\n      jump\t// in\n    tag_127:\n        /* \"source/Farm.sol\":32779:32789  msg.sender */\n      caller\n        /* \"source/Farm.sol\":32771:32790  stakers[msg.sender] */\n      0x00\n      swap1\n      dup2\n      mstore\n        /* \"source/Farm.sol\":32771:32778  stakers */\n      0x09\n        /* \"source/Farm.sol\":32771:32790  stakers[msg.sender] */\n      0x20\n      mstore\n      0x40\n      dup2\n      keccak256\n        /* \"source/Farm.sol\":32771:32807  stakers[msg.sender].unclaimedRewards */\n      0x03\n      add\n        /* \"source/Farm.sol\":32771:32818  stakers[msg.sender].unclaimedRewards += rewards */\n      dup1\n      sload\n        /* \"source/Farm.sol\":32714:32760  uint256 rewards = calculateRewards(msg.sender) */\n      swap3\n      swap4\n      pop\n      dup4\n      swap3\n        /* \"source/Farm.sol\":32771:32807  stakers[msg.sender].unclaimedRewards */\n      swap1\n      swap2\n        /* \"source/Farm.sol\":32771:32790  stakers[msg.sender] */\n      swap1\n        /* \"source/Farm.sol\":32771:32818  stakers[msg.sender].unclaimedRewards += rewards */\n      tag_129\n      swap1\n        /* \"source/Farm.sol\":32714:32760  uint256 rewards = calculateRewards(msg.sender) */\n      dup5\n      swap1\n        /* \"source/Farm.sol\":32771:32818  stakers[msg.sender].unclaimedRewards += rewards */\n      tag_122\n      jump\t// in\n    tag_129:\n      swap1\n      swap2\n      sstore\n      pop\n        /* \"source/Farm.sol\":32833:32846  uint256 index */\n      0x00\n      swap1\n      pop\n      dup1\n        /* \"source/Farm.sol\":32861:33214  for (uint256 i = 0; i < stakers[msg.sender].stakedTokens.length; i++) {... */\n    tag_130:\n        /* \"source/Farm.sol\":32893:32903  msg.sender */\n      caller\n        /* \"source/Farm.sol\":32885:32904  stakers[msg.sender] */\n      0x00\n      swap1\n      dup2\n      mstore\n        /* \"source/Farm.sol\":32885:32892  stakers */\n      0x09\n        /* \"source/Farm.sol\":32885:32904  stakers[msg.sender] */\n      0x20\n      mstore\n      0x40\n      swap1\n      keccak256\n        /* \"source/Farm.sol\":32885:32917  stakers[msg.sender].stakedTokens */\n      0x01\n      add\n        /* \"source/Farm.sol\":32885:32924  stakers[msg.sender].stakedTokens.length */\n      sload\n        /* \"source/Farm.sol\":32881:32924  i < stakers[msg.sender].stakedTokens.length */\n      dup2\n      lt\n        /* \"source/Farm.sol\":32861:33214  for (uint256 i = 0; i < stakers[msg.sender].stakedTokens.length; i++) {... */\n      iszero\n      tag_131\n      jumpi\n        /* \"source/Farm.sol\":32976:32986  msg.sender */\n      caller\n        /* \"source/Farm.sol\":32968:32987  stakers[msg.sender] */\n      0x00\n      swap1\n      dup2\n      mstore\n        /* \"source/Farm.sol\":32968:32975  stakers */\n      0x09\n        /* \"source/Farm.sol\":32968:32987  stakers[msg.sender] */\n      0x20\n      mstore\n      0x40\n      swap1\n      keccak256\n        /* \"source/Farm.sol\":32968:33000  stakers[msg.sender].stakedTokens */\n      0x01\n      add\n        /* \"source/Farm.sol\":32968:33003  stakers[msg.sender].stakedTokens[i] */\n      dup1\n      sload\n        /* \"source/Farm.sol\":33015:33023  _tokenId */\n      dup6\n      swap2\n        /* \"source/Farm.sol\":32968:33000  stakers[msg.sender].stakedTokens */\n      swap1\n        /* \"source/Farm.sol\":33001:33002  i */\n      dup4\n      swap1\n        /* \"source/Farm.sol\":32968:33003  stakers[msg.sender].stakedTokens[i] */\n      dup2\n      lt\n      tag_134\n      jumpi\n      tag_134\n      tag_135\n      jump\t// in\n    tag_134:\n      swap1\n      0x00\n      mstore\n      keccak256(0x00, 0x20)\n      swap1\n      0x03\n      mul\n      add\n        /* \"source/Farm.sol\":32968:33011  stakers[msg.sender].stakedTokens[i].tokenId */\n      0x01\n      add\n      sload\n        /* \"source/Farm.sol\":32968:33023  stakers[msg.sender].stakedTokens[i].tokenId == _tokenId */\n      eq\n        /* \"source/Farm.sol\":32968:33119  stakers[msg.sender].stakedTokens[i].tokenId == _tokenId ... */\n      dup1\n      iszero\n      tag_137\n      jumpi\n      pop\n        /* \"source/Farm.sol\":33071:33081  msg.sender */\n      caller\n        /* \"source/Farm.sol\":33117:33118  0 */\n      0x00\n        /* \"source/Farm.sol\":33063:33082  stakers[msg.sender] */\n      swap1\n      dup2\n      mstore\n        /* \"source/Farm.sol\":33063:33070  stakers */\n      0x09\n        /* \"source/Farm.sol\":33063:33082  stakers[msg.sender] */\n      0x20\n      mstore\n      0x40\n      dup2\n      keccak256\n        /* \"source/Farm.sol\":33063:33095  stakers[msg.sender].stakedTokens */\n      0x01\n      add\n        /* \"source/Farm.sol\":33063:33098  stakers[msg.sender].stakedTokens[i] */\n      dup1\n      sload\n        /* \"source/Farm.sol\":33096:33097  i */\n      dup4\n      swap1\n        /* \"source/Farm.sol\":33063:33098  stakers[msg.sender].stakedTokens[i] */\n      dup2\n      lt\n      tag_139\n      jumpi\n      tag_139\n      tag_135\n      jump\t// in\n    tag_139:\n      0x00\n      swap2\n      dup3\n      mstore\n      0x20\n      swap1\n      swap2\n      keccak256\n      0x03\n      swap1\n      swap2\n      mul\n      add\n        /* \"source/Farm.sol\":33063:33105  stakers[msg.sender].stakedTokens[i].staker */\n      sload\n      0xffffffffffffffffffffffffffffffffffffffff\n      and\n        /* \"source/Farm.sol\":33063:33119  stakers[msg.sender].stakedTokens[i].staker != address(0) */\n      eq\n      iszero\n        /* \"source/Farm.sol\":32968:33119  stakers[msg.sender].stakedTokens[i].tokenId == _tokenId ... */\n    tag_137:\n        /* \"source/Farm.sol\":32946:33203  if (... */\n      iszero\n      tag_141\n      jumpi\n        /* \"source/Farm.sol\":33162:33163  i */\n      dup1\n        /* \"source/Farm.sol\":33154:33163  index = i */\n      swap2\n      pop\n        /* \"source/Farm.sol\":33182:33187  break */\n      jump(tag_131)\n        /* \"source/Farm.sol\":32946:33203  if (... */\n    tag_141:\n        /* \"source/Farm.sol\":32926:32929  i++ */\n      dup1\n      tag_142\n      dup2\n      tag_143\n      jump\t// in\n    tag_142:\n      swap2\n      pop\n      pop\n        /* \"source/Farm.sol\":32861:33214  for (uint256 i = 0; i < stakers[msg.sender].stakedTokens.length; i++) {... */\n      jump(tag_130)\n    tag_131:\n      pop\n        /* \"source/Farm.sol\":33236:33246  msg.sender */\n      caller\n        /* \"source/Farm.sol\":33285:33286  0 */\n      0x00\n        /* \"source/Farm.sol\":33228:33247  stakers[msg.sender] */\n      swap1\n      dup2\n      mstore\n        /* \"source/Farm.sol\":33228:33235  stakers */\n      0x09\n        /* \"source/Farm.sol\":33228:33247  stakers[msg.sender] */\n      0x20\n      mstore\n      0x40\n      dup2\n      keccak256\n        /* \"source/Farm.sol\":33228:33260  stakers[msg.sender].stakedTokens */\n      0x01\n      add\n        /* \"source/Farm.sol\":33228:33267  stakers[msg.sender].stakedTokens[index] */\n      dup1\n      sload\n        /* \"source/Farm.sol\":33261:33266  index */\n      dup4\n      swap1\n        /* \"source/Farm.sol\":33228:33267  stakers[msg.sender].stakedTokens[index] */\n      dup2\n      lt\n      tag_145\n      jumpi\n      tag_145\n      tag_135\n      jump\t// in\n    tag_145:\n      0x00\n      swap2\n      dup3\n      mstore\n      0x20\n      dup1\n      dup4\n      keccak256\n      0x03\n      swap3\n      swap1\n      swap3\n      mul\n      swap1\n      swap2\n      add\n        /* \"source/Farm.sol\":33228:33287  stakers[msg.sender].stakedTokens[index].staker = address(0) */\n      dup1\n      sload\n      0xffffffffffffffffffffffff0000000000000000000000000000000000000000\n      and\n      0xffffffffffffffffffffffffffffffffffffffff\n      swap5\n      swap1\n      swap5\n      and\n      swap4\n      swap1\n      swap4\n      or\n      swap1\n      swap3\n      sstore\n        /* \"source/Farm.sol\":33306:33316  msg.sender */\n      caller\n        /* \"source/Farm.sol\":33298:33317  stakers[msg.sender] */\n      dup2\n      mstore\n        /* \"source/Farm.sol\":33298:33305  stakers */\n      0x09\n        /* \"source/Farm.sol\":33298:33317  stakers[msg.sender] */\n      swap1\n      swap2\n      mstore\n      0x40\n      dup2\n      keccak256\n        /* \"source/Farm.sol\":33298:33332  stakers[msg.sender].amountStaked-- */\n      dup1\n      sload\n      swap2\n      tag_147\n      dup4\n      tag_148\n      jump\t// in\n    tag_147:\n      swap1\n      swap2\n      sstore\n      pop\n      pop\n        /* \"source/Farm.sol\":33377:33378  0 */\n      0x00\n        /* \"source/Farm.sol\":33343:33366  stakerAddress[_tokenId] */\n      dup4\n      dup2\n      mstore\n        /* \"source/Farm.sol\":33343:33356  stakerAddress */\n      0x0a\n        /* \"source/Farm.sol\":33343:33366  stakerAddress[_tokenId] */\n      0x20\n      swap1\n      dup2\n      mstore\n      0x40\n      dup1\n      dup4\n      keccak256\n        /* \"source/Farm.sol\":33343:33379  stakerAddress[_tokenId] = address(0) */\n      dup1\n      sload\n      0xffffffffffffffffffffffff0000000000000000000000000000000000000000\n      and\n      swap1\n      sstore\n        /* \"source/Farm.sol\":33390:33409  tokenStartStakeTime */\n      0x0b\n        /* \"source/Farm.sol\":33390:33419  tokenStartStakeTime[_tokenId] */\n      swap1\n      swap2\n      mstore\n      dup1\n      dup3\n      keccak256\n        /* \"source/Farm.sol\":33390:33423  tokenStartStakeTime[_tokenId] = 0 */\n      swap2\n      swap1\n      swap2\n      sstore\n        /* \"source/Farm.sol\":33436:33449  nftCollection */\n      sload(0x03)\n        /* \"source/Farm.sol\":33436:33499  nftCollection.transferFrom(address(this), msg.sender, _tokenId) */\n      swap1\n      mload\n      0x23b872dd00000000000000000000000000000000000000000000000000000000\n      dup2\n      mstore\n        /* \"source/Farm.sol\":33471:33475  this */\n      address\n        /* \"source/Farm.sol\":33436:33499  nftCollection.transferFrom(address(this), msg.sender, _tokenId) */\n      0x04\n      dup3\n      add\n        /* \"#utility.yul\":5591:5625   */\n      mstore\n        /* \"source/Farm.sol\":33478:33488  msg.sender */\n      caller\n        /* \"#utility.yul\":5641:5659   */\n      0x24\n      dup3\n      add\n        /* \"#utility.yul\":5634:5677   */\n      mstore\n        /* \"#utility.yul\":5693:5711   */\n      0x44\n      dup2\n      add\n        /* \"#utility.yul\":5686:5720   */\n      dup6\n      swap1\n      mstore\n        /* \"source/Farm.sol\":33343:33379  stakerAddress[_tokenId] = address(0) */\n      0xffffffffffffffffffffffffffffffffffffffff\n        /* \"source/Farm.sol\":33436:33449  nftCollection */\n      swap1\n      swap2\n      and\n      swap1\n        /* \"source/Farm.sol\":33436:33462  nftCollection.transferFrom */\n      0x23b872dd\n      swap1\n        /* \"#utility.yul\":5503:5521   */\n      0x64\n      add\n        /* \"source/Farm.sol\":33436:33499  nftCollection.transferFrom(address(this), msg.sender, _tokenId) */\n      0x00\n      mload(0x40)\n      dup1\n      dup4\n      sub\n      dup2\n      0x00\n      dup8\n      dup1\n      extcodesize\n      iszero\n      dup1\n      iszero\n      tag_151\n      jumpi\n      0x00\n      dup1\n      revert\n    tag_151:\n      pop\n      gas\n      call\n      iszero\n      dup1\n      iszero\n      tag_153\n      jumpi\n      returndatasize\n      0x00\n      dup1\n      returndatacopy\n      revert(0x00, returndatasize)\n    tag_153:\n      pop\n      pop\n        /* \"source/Farm.sol\":33518:33528  msg.sender */\n      caller\n        /* \"source/Farm.sol\":33510:33529  stakers[msg.sender] */\n      0x00\n      swap1\n      dup2\n      mstore\n        /* \"source/Farm.sol\":33510:33517  stakers */\n      0x09\n        /* \"source/Farm.sol\":33510:33529  stakers[msg.sender] */\n      0x20\n      mstore\n      0x40\n      swap1\n      keccak256\n        /* \"source/Farm.sol\":33549:33564  block.timestamp */\n      timestamp\n        /* \"source/Farm.sol\":33510:33546  stakers[msg.sender].timeOfLastUpdate */\n      0x02\n      swap1\n      swap2\n      add\n        /* \"source/Farm.sol\":33510:33564  stakers[msg.sender].timeOfLastUpdate = block.timestamp */\n      sstore\n      pop\n        /* \"source/Farm.sol\":18400:18420  _nonReentrantAfter() */\n      tag_154\n      swap3\n      pop\n        /* \"source/Farm.sol\":18400:18418  _nonReentrantAfter */\n      tag_155\n      swap2\n      pop\n      pop\n        /* \"source/Farm.sol\":18400:18420  _nonReentrantAfter() */\n      jump\t// in\n    tag_154:\n        /* \"source/Farm.sol\":32143:33572  function withdraw(uint256 _tokenId) external nonReentrant {... */\n      pop\n      jump\t// out\n        /* \"source/Farm.sol\":33888:34274  function claimRewards() external {... */\n    tag_49:\n        /* \"source/Farm.sol\":34002:34012  msg.sender */\n      caller\n        /* \"source/Farm.sol\":33932:33947  uint256 rewards */\n      0x00\n        /* \"source/Farm.sol\":33994:34013  stakers[msg.sender] */\n      dup2\n      dup2\n      mstore\n        /* \"source/Farm.sol\":33994:34001  stakers */\n      0x09\n        /* \"source/Farm.sol\":33994:34013  stakers[msg.sender] */\n      0x20\n      mstore\n      0x40\n      dup2\n      keccak256\n        /* \"source/Farm.sol\":33994:34030  stakers[msg.sender].unclaimedRewards */\n      0x03\n      add\n      sload\n        /* \"source/Farm.sol\":33932:33947  uint256 rewards */\n      swap1\n      swap2\n        /* \"source/Farm.sol\":33950:33978  calculateRewards(msg.sender) */\n      tag_157\n      swap1\n        /* \"source/Farm.sol\":33950:33966  calculateRewards */\n      tag_128\n        /* \"source/Farm.sol\":33950:33978  calculateRewards(msg.sender) */\n      jump\t// in\n    tag_157:\n        /* \"source/Farm.sol\":33950:34030  calculateRewards(msg.sender) +... */\n      tag_158\n      swap2\n      swap1\n      tag_122\n      jump\t// in\n    tag_158:\n        /* \"source/Farm.sol\":33932:34030  uint256 rewards = calculateRewards(msg.sender) +... */\n      swap1\n      pop\n        /* \"source/Farm.sol\":34059:34060  0 */\n      0x00\n        /* \"source/Farm.sol\":34049:34056  rewards */\n      dup2\n        /* \"source/Farm.sol\":34049:34060  rewards > 0 */\n      gt\n        /* \"source/Farm.sol\":34041:34093  require(rewards > 0, \"You have no rewards to claim\") */\n      tag_159\n      jumpi\n      mload(0x40)\n      0x08c379a000000000000000000000000000000000000000000000000000000000\n      dup2\n      mstore\n        /* \"#utility.yul\":5933:5935   */\n      0x20\n        /* \"source/Farm.sol\":34041:34093  require(rewards > 0, \"You have no rewards to claim\") */\n      0x04\n      dup3\n      add\n        /* \"#utility.yul\":5915:5936   */\n      mstore\n        /* \"#utility.yul\":5972:5974   */\n      0x1c\n        /* \"#utility.yul\":5952:5970   */\n      0x24\n      dup3\n      add\n        /* \"#utility.yul\":5945:5975   */\n      mstore\n        /* \"#utility.yul\":6011:6041   */\n      0x596f752068617665206e6f207265776172647320746f20636c61696d00000000\n        /* \"#utility.yul\":5991:6009   */\n      0x44\n      dup3\n      add\n        /* \"#utility.yul\":5984:6042   */\n      mstore\n        /* \"#utility.yul\":6059:6077   */\n      0x64\n      add\n        /* \"source/Farm.sol\":34041:34093  require(rewards > 0, \"You have no rewards to claim\") */\n      tag_115\n        /* \"#utility.yul\":5731:6083   */\n      jump\n        /* \"source/Farm.sol\":34041:34093  require(rewards > 0, \"You have no rewards to claim\") */\n    tag_159:\n        /* \"source/Farm.sol\":34112:34122  msg.sender */\n      caller\n        /* \"source/Farm.sol\":34104:34123  stakers[msg.sender] */\n      0x00\n      dup2\n      dup2\n      mstore\n        /* \"source/Farm.sol\":34104:34111  stakers */\n      0x09\n        /* \"source/Farm.sol\":34104:34123  stakers[msg.sender] */\n      0x20\n      mstore\n      0x40\n      dup2\n      keccak256\n        /* \"source/Farm.sol\":34143:34158  block.timestamp */\n      timestamp\n        /* \"source/Farm.sol\":34104:34140  stakers[msg.sender].timeOfLastUpdate */\n      0x02\n      dup1\n      dup4\n      add\n        /* \"source/Farm.sol\":34104:34158  stakers[msg.sender].timeOfLastUpdate = block.timestamp */\n      swap2\n      swap1\n      swap2\n      sstore\n        /* \"source/Farm.sol\":34169:34205  stakers[msg.sender].unclaimedRewards */\n      0x03\n      swap1\n      swap2\n      add\n        /* \"source/Farm.sol\":34169:34209  stakers[msg.sender].unclaimedRewards = 0 */\n      swap2\n      swap1\n      swap2\n      sstore\n        /* \"source/Farm.sol\":34220:34232  rewardsToken */\n      sload\n        /* \"source/Farm.sol\":34220:34266  rewardsToken.safeTransfer(msg.sender, rewards) */\n      tag_154\n      swap2\n        /* \"source/Farm.sol\":34104:34123  stakers[msg.sender] */\n      0xffffffffffffffffffffffffffffffffffffffff\n        /* \"source/Farm.sol\":34220:34232  rewardsToken */\n      swap1\n      swap2\n      and\n      swap1\n        /* \"source/Farm.sol\":34258:34265  rewards */\n      dup4\n        /* \"source/Farm.sol\":34220:34245  rewardsToken.safeTransfer */\n      tag_163\n        /* \"source/Farm.sol\":34220:34266  rewardsToken.safeTransfer(msg.sender, rewards) */\n      jump\t// in\n        /* \"source/Farm.sol\":34282:34962  function getStakedTokens(address _user) public view returns (StakedToken[] memory) {... */\n    tag_59:\n        /* \"source/Farm.sol\":34380:34394  stakers[_user] */\n      0xffffffffffffffffffffffffffffffffffffffff\n      dup2\n      and\n        /* \"source/Farm.sol\":34410:34411  0 */\n      0x00\n        /* \"source/Farm.sol\":34380:34394  stakers[_user] */\n      swap1\n      dup2\n      mstore\n        /* \"source/Farm.sol\":34380:34387  stakers */\n      0x09\n        /* \"source/Farm.sol\":34380:34394  stakers[_user] */\n      0x20\n      mstore\n      0x40\n      swap1\n      keccak256\n        /* \"source/Farm.sol\":34380:34407  stakers[_user].amountStaked */\n      sload\n        /* \"source/Farm.sol\":34343:34363  StakedToken[] memory */\n      0x60\n      swap1\n        /* \"source/Farm.sol\":34380:34411  stakers[_user].amountStaked > 0 */\n      iszero\n        /* \"source/Farm.sol\":34376:34955  if (stakers[_user].amountStaked > 0) {... */\n      tag_166\n      jumpi\n        /* \"source/Farm.sol\":34483:34497  stakers[_user] */\n      0xffffffffffffffffffffffffffffffffffffffff\n      dup3\n      and\n        /* \"source/Farm.sol\":34428:34462  StakedToken[] memory _stakedTokens */\n      0x00\n        /* \"source/Farm.sol\":34483:34497  stakers[_user] */\n      swap1\n      dup2\n      mstore\n        /* \"source/Farm.sol\":34483:34490  stakers */\n      0x09\n        /* \"source/Farm.sol\":34483:34497  stakers[_user] */\n      0x20\n      mstore\n      0x40\n      dup2\n      keccak256\n        /* \"source/Farm.sol\":34483:34510  stakers[_user].amountStaked */\n      sload\n        /* \"source/Farm.sol\":34465:34511  new StakedToken[](stakers[_user].amountStaked) */\n      0xffffffffffffffff\n      dup2\n      gt\n      iszero\n      tag_168\n      jumpi\n      tag_168\n      tag_169\n      jump\t// in\n    tag_168:\n      mload(0x40)\n      swap1\n      dup1\n      dup3\n      mstore\n      dup1\n      0x20\n      mul\n      0x20\n      add\n      dup3\n      add\n      0x40\n      mstore\n      dup1\n      iszero\n      tag_170\n      jumpi\n      dup2\n      0x20\n      add\n    tag_171:\n      tag_172\n      mload(0x40)\n      dup1\n      0x60\n      add\n      0x40\n      mstore\n      dup1\n      and(0xffffffffffffffffffffffffffffffffffffffff, 0x00)\n      dup2\n      mstore\n      0x20\n      add\n      0x00\n      dup2\n      mstore\n      0x20\n      add\n      0x00\n      dup2\n      mstore\n      pop\n      swap1\n      jump\n    tag_172:\n      dup2\n      mstore\n      0x20\n      add\n      swap1\n      0x01\n      swap1\n      sub\n      swap1\n      dup2\n      tag_171\n      jumpi\n      swap1\n      pop\n    tag_170:\n      pop\n        /* \"source/Farm.sol\":34428:34511  StakedToken[] memory _stakedTokens = new StakedToken[](stakers[_user].amountStaked) */\n      swap1\n      pop\n        /* \"source/Farm.sol\":34526:34540  uint256 _index */\n      0x00\n        /* \"source/Farm.sol\":34566:34575  uint256 j */\n      dup1\n        /* \"source/Farm.sol\":34561:34847  for (uint256 j = 0; j < stakers[_user].stakedTokens.length; j++) {... */\n    tag_174:\n        /* \"source/Farm.sol\":34585:34599  stakers[_user] */\n      0xffffffffffffffffffffffffffffffffffffffff\n      dup6\n      and\n      0x00\n      swap1\n      dup2\n      mstore\n        /* \"source/Farm.sol\":34585:34592  stakers */\n      0x09\n        /* \"source/Farm.sol\":34585:34599  stakers[_user] */\n      0x20\n      mstore\n      0x40\n      swap1\n      keccak256\n        /* \"source/Farm.sol\":34585:34612  stakers[_user].stakedTokens */\n      0x01\n      add\n        /* \"source/Farm.sol\":34585:34619  stakers[_user].stakedTokens.length */\n      sload\n        /* \"source/Farm.sol\":34581:34619  j < stakers[_user].stakedTokens.length */\n      dup2\n      lt\n        /* \"source/Farm.sol\":34561:34847  for (uint256 j = 0; j < stakers[_user].stakedTokens.length; j++) {... */\n      iszero\n      tag_175\n      jumpi\n        /* \"source/Farm.sol\":34649:34702  stakers[_user].stakedTokens[j].staker != (address(0)) */\n      0xffffffffffffffffffffffffffffffffffffffff\n        /* \"source/Farm.sol\":34649:34663  stakers[_user] */\n      dup6\n      and\n        /* \"source/Farm.sol\":34699:34700  0 */\n      0x00\n        /* \"source/Farm.sol\":34649:34663  stakers[_user] */\n      swap1\n      dup2\n      mstore\n        /* \"source/Farm.sol\":34649:34656  stakers */\n      0x09\n        /* \"source/Farm.sol\":34649:34663  stakers[_user] */\n      0x20\n      mstore\n      0x40\n      dup2\n      keccak256\n        /* \"source/Farm.sol\":34649:34676  stakers[_user].stakedTokens */\n      0x01\n      add\n        /* \"source/Farm.sol\":34649:34679  stakers[_user].stakedTokens[j] */\n      dup1\n      sload\n        /* \"source/Farm.sol\":34677:34678  j */\n      dup4\n      swap1\n        /* \"source/Farm.sol\":34649:34679  stakers[_user].stakedTokens[j] */\n      dup2\n      lt\n      tag_178\n      jumpi\n      tag_178\n      tag_135\n      jump\t// in\n    tag_178:\n      0x00\n      swap2\n      dup3\n      mstore\n      0x20\n      swap1\n      swap2\n      keccak256\n      0x03\n      swap1\n      swap2\n      mul\n      add\n        /* \"source/Farm.sol\":34649:34686  stakers[_user].stakedTokens[j].staker */\n      sload\n      0xffffffffffffffffffffffffffffffffffffffff\n      and\n        /* \"source/Farm.sol\":34649:34702  stakers[_user].stakedTokens[j].staker != (address(0)) */\n      eq\n        /* \"source/Farm.sol\":34645:34832  if (stakers[_user].stakedTokens[j].staker != (address(0))) {... */\n      tag_180\n      jumpi\n        /* \"source/Farm.sol\":34751:34765  stakers[_user] */\n      0xffffffffffffffffffffffffffffffffffffffff\n      dup6\n      and\n      0x00\n      swap1\n      dup2\n      mstore\n        /* \"source/Farm.sol\":34751:34758  stakers */\n      0x09\n        /* \"source/Farm.sol\":34751:34765  stakers[_user] */\n      0x20\n      mstore\n      0x40\n      swap1\n      keccak256\n        /* \"source/Farm.sol\":34751:34778  stakers[_user].stakedTokens */\n      0x01\n      add\n        /* \"source/Farm.sol\":34751:34781  stakers[_user].stakedTokens[j] */\n      dup1\n      sload\n        /* \"source/Farm.sol\":34779:34780  j */\n      dup3\n      swap1\n        /* \"source/Farm.sol\":34751:34781  stakers[_user].stakedTokens[j] */\n      dup2\n      lt\n      tag_182\n      jumpi\n      tag_182\n      tag_135\n      jump\t// in\n    tag_182:\n      0x00\n      swap2\n      dup3\n      mstore\n      0x20\n      swap2\n      dup3\n      swap1\n      keccak256\n        /* \"source/Farm.sol\":34727:34781  _stakedTokens[_index] = stakers[_user].stakedTokens[j] */\n      0x40\n      dup1\n      mload\n      0x60\n      dup2\n      add\n      dup3\n      mstore\n        /* \"source/Farm.sol\":34751:34781  stakers[_user].stakedTokens[j] */\n      0x03\n      swap1\n      swap4\n      mul\n      swap1\n      swap2\n      add\n        /* \"source/Farm.sol\":34727:34781  _stakedTokens[_index] = stakers[_user].stakedTokens[j] */\n      dup1\n      sload\n      0xffffffffffffffffffffffffffffffffffffffff\n      and\n      dup4\n      mstore\n      0x01\n      dup2\n      add\n      sload\n      swap4\n      dup4\n      add\n      swap4\n      swap1\n      swap4\n      mstore\n      0x02\n      swap1\n      swap3\n      add\n      sload\n      swap2\n      dup2\n      add\n      swap2\n      swap1\n      swap2\n      mstore\n        /* \"source/Farm.sol\":34727:34748  _stakedTokens[_index] */\n      dup4\n      mload\n        /* \"source/Farm.sol\":34727:34740  _stakedTokens */\n      dup5\n      swap1\n        /* \"source/Farm.sol\":34741:34747  _index */\n      dup5\n      swap1\n        /* \"source/Farm.sol\":34727:34748  _stakedTokens[_index] */\n      dup2\n      lt\n      tag_185\n      jumpi\n      tag_185\n      tag_135\n      jump\t// in\n    tag_185:\n      0x20\n      mul\n      0x20\n      add\n      add\n        /* \"source/Farm.sol\":34727:34781  _stakedTokens[_index] = stakers[_user].stakedTokens[j] */\n      dup2\n      swap1\n      mstore\n      pop\n        /* \"source/Farm.sol\":34804:34812  _index++ */\n      dup2\n      dup1\n      tag_186\n      swap1\n      tag_143\n      jump\t// in\n    tag_186:\n      swap3\n      pop\n      pop\n        /* \"source/Farm.sol\":34645:34832  if (stakers[_user].stakedTokens[j].staker != (address(0))) {... */\n    tag_180:\n        /* \"source/Farm.sol\":34621:34624  j++ */\n      dup1\n      tag_187\n      dup2\n      tag_143\n      jump\t// in\n    tag_187:\n      swap2\n      pop\n      pop\n        /* \"source/Farm.sol\":34561:34847  for (uint256 j = 0; j < stakers[_user].stakedTokens.length; j++) {... */\n      jump(tag_174)\n    tag_175:\n      pop\n        /* \"source/Farm.sol\":34870:34883  _stakedTokens */\n      swap1\n      swap4\n        /* \"source/Farm.sol\":34282:34962  function getStakedTokens(address _user) public view returns (StakedToken[] memory) {... */\n      swap3\n      pop\n      pop\n      pop\n      jump\t// out\n        /* \"source/Farm.sol\":34376:34955  if (stakers[_user].amountStaked > 0) {... */\n    tag_166:\n        /* \"source/Farm.sol\":34923:34943  new StakedToken[](0) */\n      0x40\n      dup1\n      mload\n        /* \"source/Farm.sol\":34941:34942  0 */\n      0x00\n        /* \"source/Farm.sol\":34923:34943  new StakedToken[](0) */\n      dup1\n      dup3\n      mstore\n      0x20\n      dup3\n      add\n      swap1\n      swap3\n      mstore\n      swap1\n      jump(tag_191)\n    tag_192:\n      tag_193\n      mload(0x40)\n      dup1\n      0x60\n      add\n      0x40\n      mstore\n      dup1\n      and(0xffffffffffffffffffffffffffffffffffffffff, 0x00)\n      dup2\n      mstore\n      0x20\n      add\n      0x00\n      dup2\n      mstore\n      0x20\n      add\n      0x00\n      dup2\n      mstore\n      pop\n      swap1\n      jump\n    tag_193:\n      dup2\n      mstore\n      0x20\n      add\n      swap1\n      0x01\n      swap1\n      sub\n      swap1\n      dup2\n      tag_192\n      jumpi\n      swap1\n      pop\n    tag_191:\n      pop\n        /* \"source/Farm.sol\":34916:34943  return new StakedToken[](0) */\n      swap3\n        /* \"source/Farm.sol\":34282:34962  function getStakedTokens(address _user) public view returns (StakedToken[] memory) {... */\n      swap2\n      pop\n      pop\n      jump\t// out\n        /* \"source/Farm.sol\":30514:30621  function setLockEnabled(bool _lockEnabled) external onlyOwner {... */\n    tag_69:\n        /* \"source/Farm.sol\":27297:27310  _checkOwner() */\n      tag_195\n        /* \"source/Farm.sol\":27297:27308  _checkOwner */\n      tag_196\n        /* \"source/Farm.sol\":27297:27310  _checkOwner() */\n      jump\t// in\n    tag_195:\n        /* \"source/Farm.sol\":30587:30598  lockEnabled */\n      0x07\n        /* \"source/Farm.sol\":30587:30613  lockEnabled = _lockEnabled */\n      dup1\n      sload\n      0xffffffffffffffffffffffffffffffffffffffffffffffffffffffffffffff00\n      and\n      swap2\n      iszero\n      iszero\n      swap2\n      swap1\n      swap2\n      or\n      swap1\n      sstore\n        /* \"source/Farm.sol\":30514:30621  function setLockEnabled(bool _lockEnabled) external onlyOwner {... */\n      jump\t// out\n        /* \"source/Farm.sol\":28059:28162  function renounceOwnership() public virtual onlyOwner {... */\n    tag_71:\n        /* \"source/Farm.sol\":27297:27310  _checkOwner() */\n      tag_199\n        /* \"source/Farm.sol\":27297:27308  _checkOwner */\n      tag_196\n        /* \"source/Farm.sol\":27297:27310  _checkOwner() */\n      jump\t// in\n    tag_199:\n        /* \"source/Farm.sol\":28124:28154  _transferOwnership(address(0)) */\n      tag_201\n        /* \"source/Farm.sol\":28151:28152  0 */\n      0x00\n        /* \"source/Farm.sol\":28124:28142  _transferOwnership */\n      tag_202\n        /* \"source/Farm.sol\":28124:28154  _transferOwnership(address(0)) */\n      jump\t// in\n    tag_201:\n        /* \"source/Farm.sol\":28059:28162  function renounceOwnership() public virtual onlyOwner {... */\n      jump\t// out\n        /* \"source/Farm.sol\":32019:32135  function stake(uint256 _tokenId) external nonReentrant whenNotPaused {... */\n    tag_90:\n        /* \"source/Farm.sol\":18356:18377  _nonReentrantBefore() */\n      tag_205\n        /* \"source/Farm.sol\":18356:18375  _nonReentrantBefore */\n      tag_112\n        /* \"source/Farm.sol\":18356:18377  _nonReentrantBefore() */\n      jump\t// in\n    tag_205:\n        /* \"source/Farm.sol\":15577:15596  _requireNotPaused() */\n      tag_207\n        /* \"source/Farm.sol\":15577:15594  _requireNotPaused */\n      tag_208\n        /* \"source/Farm.sol\":15577:15596  _requireNotPaused() */\n      jump\t// in\n    tag_207:\n        /* \"source/Farm.sol\":32099:32127  _stake(msg.sender, _tokenId) */\n      tag_210\n        /* \"source/Farm.sol\":32106:32116  msg.sender */\n      caller\n        /* \"source/Farm.sol\":32118:32126  _tokenId */\n      dup3\n        /* \"source/Farm.sol\":32099:32105  _stake */\n      tag_211\n        /* \"source/Farm.sol\":32099:32127  _stake(msg.sender, _tokenId) */\n      jump\t// in\n    tag_210:\n        /* \"source/Farm.sol\":18400:18420  _nonReentrantAfter() */\n      tag_154\n        /* \"source/Farm.sol\":17794:17795  1 */\n      0x01\n        /* \"source/Farm.sol\":18916:18923  _status */\n      0x00\n        /* \"source/Farm.sol\":18916:18938  _status = _NOT_ENTERED */\n      sstore\n        /* \"source/Farm.sol\":18733:18946  function _nonReentrantAfter() private {... */\n      jump\n        /* \"source/Farm.sol\":30638:30736  function setLockTime(uint256 _lockTime) external onlyOwner {... */\n    tag_93:\n        /* \"source/Farm.sol\":27297:27310  _checkOwner() */\n      tag_214\n        /* \"source/Farm.sol\":27297:27308  _checkOwner */\n      tag_196\n        /* \"source/Farm.sol\":27297:27310  _checkOwner() */\n      jump\t// in\n    tag_214:\n        /* \"source/Farm.sol\":30708:30716  lockTime */\n      0x08\n        /* \"source/Farm.sol\":30708:30728  lockTime = _lockTime */\n      sstore\n        /* \"source/Farm.sol\":30638:30736  function setLockTime(uint256 _lockTime) external onlyOwner {... */\n      jump\t// out\n        /* \"source/Farm.sol\":30742:30864  function setRewardsPerHour(uint256 _rewardsPerHour) external onlyOwner {... */\n    tag_96:\n        /* \"source/Farm.sol\":27297:27310  _checkOwner() */\n      tag_217\n        /* \"source/Farm.sol\":27297:27308  _checkOwner */\n      tag_196\n        /* \"source/Farm.sol\":27297:27310  _checkOwner() */\n      jump\t// in\n    tag_217:\n        /* \"source/Farm.sol\":30824:30838  rewardsPerHour */\n      0x05\n        /* \"source/Farm.sol\":30824:30856  rewardsPerHour = _rewardsPerHour */\n      sstore\n        /* \"source/Farm.sol\":30742:30864  function setRewardsPerHour(uint256 _rewardsPerHour) external onlyOwner {... */\n      jump\t// out\n        /* \"source/Farm.sol\":28317:28518  function transferOwnership(address newOwner) public virtual onlyOwner {... */\n    tag_103:\n        /* \"source/Farm.sol\":27297:27310  _checkOwner() */\n      tag_220\n        /* \"source/Farm.sol\":27297:27308  _checkOwner */\n      tag_196\n        /* \"source/Farm.sol\":27297:27310  _checkOwner() */\n      jump\t// in\n    tag_220:\n        /* \"source/Farm.sol\":28406:28428  newOwner != address(0) */\n      0xffffffffffffffffffffffffffffffffffffffff\n      dup2\n      and\n        /* \"source/Farm.sol\":28398:28471  require(newOwner != address(0), \"Ownable: new owner is the zero address\") */\n      tag_222\n      jumpi\n      mload(0x40)\n      0x08c379a000000000000000000000000000000000000000000000000000000000\n      dup2\n      mstore\n        /* \"#utility.yul\":6479:6481   */\n      0x20\n        /* \"source/Farm.sol\":28398:28471  require(newOwner != address(0), \"Ownable: new owner is the zero address\") */\n      0x04\n      dup3\n      add\n        /* \"#utility.yul\":6461:6482   */\n      mstore\n        /* \"#utility.yul\":6518:6520   */\n      0x26\n        /* \"#utility.yul\":6498:6516   */\n      0x24\n      dup3\n      add\n        /* \"#utility.yul\":6491:6521   */\n      mstore\n        /* \"#utility.yul\":6557:6591   */\n      0x4f776e61626c653a206e6577206f776e657220697320746865207a65726f2061\n        /* \"#utility.yul\":6537:6555   */\n      0x44\n      dup3\n      add\n        /* \"#utility.yul\":6530:6592   */\n      mstore\n        /* \"#utility.yul\":6628:6636   */\n      0x6464726573730000000000000000000000000000000000000000000000000000\n        /* \"#utility.yul\":6608:6626   */\n      0x64\n      dup3\n      add\n        /* \"#utility.yul\":6601:6637   */\n      mstore\n        /* \"#utility.yul\":6654:6673   */\n      0x84\n      add\n        /* \"source/Farm.sol\":28398:28471  require(newOwner != address(0), \"Ownable: new owner is the zero address\") */\n      tag_115\n        /* \"#utility.yul\":6277:6679   */\n      jump\n        /* \"source/Farm.sol\":28398:28471  require(newOwner != address(0), \"Ownable: new owner is the zero address\") */\n    tag_222:\n        /* \"source/Farm.sol\":28482:28510  _transferOwnership(newOwner) */\n      tag_154\n        /* \"source/Farm.sol\":28501:28509  newOwner */\n      dup2\n        /* \"source/Farm.sol\":28482:28500  _transferOwnership */\n      tag_202\n        /* \"source/Farm.sol\":28482:28510  _transferOwnership(newOwner) */\n      jump\t// in\n        /* \"source/Farm.sol\":34970:35179  function availableRewards(address _staker) public view returns (uint256) {... */\n    tag_106:\n        /* \"source/Farm.sol\":35113:35129  stakers[_staker] */\n      0xffffffffffffffffffffffffffffffffffffffff\n      dup2\n      and\n        /* \"source/Farm.sol\":35034:35041  uint256 */\n      0x00\n        /* \"source/Farm.sol\":35113:35129  stakers[_staker] */\n      swap1\n      dup2\n      mstore\n        /* \"source/Farm.sol\":35113:35120  stakers */\n      0x09\n        /* \"source/Farm.sol\":35113:35129  stakers[_staker] */\n      0x20\n      mstore\n      0x40\n      dup2\n      keccak256\n        /* \"source/Farm.sol\":35113:35146  stakers[_staker].unclaimedRewards */\n      0x03\n      add\n      sload\n        /* \"source/Farm.sol\":35034:35041  uint256 */\n      dup2\n      swap1\n        /* \"source/Farm.sol\":35072:35097  calculateRewards(_staker) */\n      tag_227\n        /* \"source/Farm.sol\":35121:35128  _staker */\n      dup5\n        /* \"source/Farm.sol\":35072:35088  calculateRewards */\n      tag_128\n        /* \"source/Farm.sol\":35072:35097  calculateRewards(_staker) */\n      jump\t// in\n    tag_227:\n        /* \"source/Farm.sol\":35072:35146  calculateRewards(_staker) +... */\n      tag_228\n      swap2\n      swap1\n      tag_122\n      jump\t// in\n    tag_228:\n        /* \"source/Farm.sol\":35054:35146  uint256 rewards = calculateRewards(_staker) +... */\n      swap4\n        /* \"source/Farm.sol\":34970:35179  function availableRewards(address _staker) public view returns (uint256) {... */\n      swap3\n      pop\n      pop\n      pop\n      jump\t// out\n        /* \"source/Farm.sol\":31816:32011  function adminWithdrawRewards() external onlyOwner whenPaused {... */\n    tag_109:\n        /* \"source/Farm.sol\":27297:27310  _checkOwner() */\n      tag_230\n        /* \"source/Farm.sol\":27297:27308  _checkOwner */\n      tag_196\n        /* \"source/Farm.sol\":27297:27310  _checkOwner() */\n      jump\t// in\n    tag_230:\n        /* \"source/Farm.sol\":15836:15852  _requirePaused() */\n      tag_232\n        /* \"source/Farm.sol\":15836:15850  _requirePaused */\n      tag_233\n        /* \"source/Farm.sol\":15836:15852  _requirePaused() */\n      jump\t// in\n    tag_232:\n        /* \"source/Farm.sol\":31908:31920  rewardsToken */\n      sload(0x02)\n        /* \"source/Farm.sol\":31908:31945  rewardsToken.balanceOf(address(this)) */\n      mload(0x40)\n      0x70a0823100000000000000000000000000000000000000000000000000000000\n      dup2\n      mstore\n        /* \"source/Farm.sol\":31939:31943  this */\n      address\n        /* \"source/Farm.sol\":31908:31945  rewardsToken.balanceOf(address(this)) */\n      0x04\n      dup3\n      add\n        /* \"#utility.yul\":2050:2124   */\n      mstore\n        /* \"source/Farm.sol\":31889:31905  uint256 _balance */\n      0x00\n      swap2\n        /* \"source/Farm.sol\":31908:31920  rewardsToken */\n      0xffffffffffffffffffffffffffffffffffffffff\n      and\n      swap1\n        /* \"source/Farm.sol\":31908:31930  rewardsToken.balanceOf */\n      0x70a08231\n      swap1\n        /* \"#utility.yul\":2023:2041   */\n      0x24\n      add\n        /* \"source/Farm.sol\":31908:31945  rewardsToken.balanceOf(address(this)) */\n      0x20\n      mload(0x40)\n      dup1\n      dup4\n      sub\n      dup2\n      dup7\n      gas\n      staticcall\n      iszero\n      dup1\n      iszero\n      tag_237\n      jumpi\n      returndatasize\n      0x00\n      dup1\n      returndatacopy\n      revert(0x00, returndatasize)\n    tag_237:\n      pop\n      pop\n      pop\n      pop\n      mload(0x40)\n      returndatasize\n      not(0x1f)\n      0x1f\n      dup3\n      add\n      and\n      dup3\n      add\n      dup1\n      0x40\n      mstore\n      pop\n      dup2\n      add\n      swap1\n      tag_238\n      swap2\n      swap1\n      tag_239\n      jump\t// in\n    tag_238:\n        /* \"source/Farm.sol\":31956:31968  rewardsToken */\n      sload(0x02)\n        /* \"source/Farm.sol\":31889:31945  uint256 _balance = rewardsToken.balanceOf(address(this)) */\n      swap1\n      swap2\n      pop\n        /* \"source/Farm.sol\":31956:32003  rewardsToken.safeTransfer(msg.sender, _balance) */\n      tag_154\n      swap1\n        /* \"source/Farm.sol\":31956:31968  rewardsToken */\n      0xffffffffffffffffffffffffffffffffffffffff\n      and\n        /* \"source/Farm.sol\":31982:31992  msg.sender */\n      caller\n        /* \"source/Farm.sol\":31889:31945  uint256 _balance = rewardsToken.balanceOf(address(this)) */\n      dup4\n        /* \"source/Farm.sol\":31956:31981  rewardsToken.safeTransfer */\n      tag_163\n        /* \"source/Farm.sol\":31956:32003  rewardsToken.safeTransfer(msg.sender, _balance) */\n      jump\t// in\n        /* \"source/Farm.sol\":18436:18725  function _nonReentrantBefore() private {... */\n    tag_112:\n        /* \"source/Farm.sol\":17838:17839  2 */\n      0x02\n        /* \"source/Farm.sol\":18566:18573  _status */\n      sload(0x00)\n        /* \"source/Farm.sol\":18566:18585  _status != _ENTERED */\n      eq\n      iszero\n        /* \"source/Farm.sol\":18558:18621  require(_status != _ENTERED, \"ReentrancyGuard: reentrant call\") */\n      tag_242\n      jumpi\n      mload(0x40)\n      0x08c379a000000000000000000000000000000000000000000000000000000000\n      dup2\n      mstore\n        /* \"#utility.yul\":7075:7077   */\n      0x20\n        /* \"source/Farm.sol\":18558:18621  require(_status != _ENTERED, \"ReentrancyGuard: reentrant call\") */\n      0x04\n      dup3\n      add\n        /* \"#utility.yul\":7057:7078   */\n      mstore\n        /* \"#utility.yul\":7114:7116   */\n      0x1f\n        /* \"#utility.yul\":7094:7112   */\n      0x24\n      dup3\n      add\n        /* \"#utility.yul\":7087:7117   */\n      mstore\n        /* \"#utility.yul\":7153:7186   */\n      0x5265656e7472616e637947756172643a207265656e7472616e742063616c6c00\n        /* \"#utility.yul\":7133:7151   */\n      0x44\n      dup3\n      add\n        /* \"#utility.yul\":7126:7187   */\n      mstore\n        /* \"#utility.yul\":7204:7222   */\n      0x64\n      add\n        /* \"source/Farm.sol\":18558:18621  require(_status != _ENTERED, \"ReentrancyGuard: reentrant call\") */\n      tag_115\n        /* \"#utility.yul\":6873:7228   */\n      jump\n        /* \"source/Farm.sol\":18558:18621  require(_status != _ENTERED, \"ReentrancyGuard: reentrant call\") */\n    tag_242:\n        /* \"source/Farm.sol\":17838:17839  2 */\n      0x02\n        /* \"source/Farm.sol\":18699:18706  _status */\n      0x00\n        /* \"source/Farm.sol\":18699:18717  _status = _ENTERED */\n      sstore\n        /* \"source/Farm.sol\":18436:18725  function _nonReentrantBefore() private {... */\n      jump\t// out\n        /* \"source/Farm.sol\":33580:33880  function calculateRewards(address _staker)... */\n    tag_128:\n        /* \"source/Farm.sol\":33849:33863  rewardsPerHour */\n      sload(0x05)\n        /* \"source/Farm.sol\":33805:33821  stakers[_staker] */\n      0xffffffffffffffffffffffffffffffffffffffff\n      dup3\n      and\n        /* \"source/Farm.sol\":33673:33689  uint256 _rewards */\n      0x00\n        /* \"source/Farm.sol\":33805:33821  stakers[_staker] */\n      swap1\n      dup2\n      mstore\n        /* \"source/Farm.sol\":33805:33812  stakers */\n      0x09\n        /* \"source/Farm.sol\":33805:33821  stakers[_staker] */\n      0x20\n      mstore\n      0x40\n      dup2\n      keccak256\n        /* \"source/Farm.sol\":33805:33834  stakers[_staker].amountStaked */\n      dup1\n      sload\n        /* \"source/Farm.sol\":33751:33784  stakers[_staker].timeOfLastUpdate */\n      0x02\n      swap1\n      swap2\n      add\n      sload\n        /* \"source/Farm.sol\":33673:33689  uint256 _rewards */\n      swap2\n      swap3\n        /* \"source/Farm.sol\":33867:33871  3600 */\n      0x0e10\n      swap3\n        /* \"source/Farm.sol\":33849:33863  rewardsPerHour */\n      swap1\n      swap2\n        /* \"source/Farm.sol\":33805:33834  stakers[_staker].amountStaked */\n      swap1\n        /* \"source/Farm.sol\":33733:33784  block.timestamp - stakers[_staker].timeOfLastUpdate */\n      tag_246\n      swap1\n        /* \"source/Farm.sol\":33733:33748  block.timestamp */\n      timestamp\n        /* \"source/Farm.sol\":33733:33784  block.timestamp - stakers[_staker].timeOfLastUpdate */\n      tag_247\n      jump\t// in\n    tag_246:\n        /* \"source/Farm.sol\":33732:33834  (block.timestamp - stakers[_staker].timeOfLastUpdate) *... */\n      tag_248\n      swap2\n      swap1\n      tag_249\n      jump\t// in\n    tag_248:\n        /* \"source/Farm.sol\":33716:33863  (... */\n      tag_250\n      swap2\n      swap1\n      tag_249\n      jump\t// in\n    tag_250:\n        /* \"source/Farm.sol\":33715:33871  ((... */\n      tag_251\n      swap2\n      swap1\n      tag_252\n      jump\t// in\n    tag_251:\n        /* \"source/Farm.sol\":33707:33872  return (((... */\n      swap3\n        /* \"source/Farm.sol\":33580:33880  function calculateRewards(address _staker)... */\n      swap2\n      pop\n      pop\n      jump\t// out\n        /* \"source/Farm.sol\":18733:18946  function _nonReentrantAfter() private {... */\n    tag_155:\n        /* \"source/Farm.sol\":17794:17795  1 */\n      0x01\n        /* \"source/Farm.sol\":18916:18923  _status */\n      0x00\n        /* \"source/Farm.sol\":18916:18938  _status = _NOT_ENTERED */\n      sstore\n        /* \"source/Farm.sol\":18733:18946  function _nonReentrantAfter() private {... */\n      jump\t// out\n        /* \"source/Farm.sol\":23768:23945  function safeTransfer(IERC20 token, address to, uint256 value) internal {... */\n    tag_163:\n        /* \"source/Farm.sol\":23878:23936  abi.encodeWithSelector(token.transfer.selector, to, value) */\n      0x40\n      dup1\n      mload\n        /* \"#utility.yul\":8079:8121   */\n      0xffffffffffffffffffffffffffffffffffffffff\n        /* \"#utility.yul\":8067:8122   */\n      dup5\n      and\n        /* \"source/Farm.sol\":23878:23936  abi.encodeWithSelector(token.transfer.selector, to, value) */\n      0x24\n      dup3\n      add\n        /* \"#utility.yul\":8049:8123   */\n      mstore\n        /* \"#utility.yul\":8139:8157   */\n      0x44\n      dup1\n      dup3\n      add\n        /* \"#utility.yul\":8132:8166   */\n      dup5\n      swap1\n      mstore\n        /* \"source/Farm.sol\":23878:23936  abi.encodeWithSelector(token.transfer.selector, to, value) */\n      dup3\n      mload\n      dup1\n      dup4\n      sub\n      swap1\n      swap2\n      add\n      dup2\n      mstore\n        /* \"#utility.yul\":8022:8040   */\n      0x64\n      swap1\n      swap2\n      add\n        /* \"source/Farm.sol\":23878:23936  abi.encodeWithSelector(token.transfer.selector, to, value) */\n      swap1\n      swap2\n      mstore\n      0x20\n      dup2\n      add\n      dup1\n      mload\n      0xffffffffffffffffffffffffffffffffffffffffffffffffffffffff\n      and\n        /* \"source/Farm.sol\":23901:23924  token.transfer.selector */\n      0xa9059cbb00000000000000000000000000000000000000000000000000000000\n        /* \"source/Farm.sol\":23878:23936  abi.encodeWithSelector(token.transfer.selector, to, value) */\n      or\n      swap1\n      mstore\n        /* \"source/Farm.sol\":23851:23937  _callOptionalReturn(token, abi.encodeWithSelector(token.transfer.selector, to, value)) */\n      tag_255\n      swap1\n        /* \"source/Farm.sol\":23871:23876  token */\n      dup5\n      swap1\n        /* \"source/Farm.sol\":23851:23870  _callOptionalReturn */\n      tag_258\n        /* \"source/Farm.sol\":23851:23937  _callOptionalReturn(token, abi.encodeWithSelector(token.transfer.selector, to, value)) */\n      jump\t// in\n    tag_255:\n        /* \"source/Farm.sol\":23768:23945  function safeTransfer(IERC20 token, address to, uint256 value) internal {... */\n      pop\n      pop\n      pop\n      jump\t// out\n        /* \"source/Farm.sol\":27576:27708  function _checkOwner() internal view virtual {... */\n    tag_196:\n        /* \"source/Farm.sol\":27484:27490  _owner */\n      sload(0x01)\n        /* \"source/Farm.sol\":27640:27663  owner() == _msgSender() */\n      0xffffffffffffffffffffffffffffffffffffffff\n        /* \"source/Farm.sol\":27484:27490  _owner */\n      0x0100\n      swap1\n      swap2\n      div\n      and\n        /* \"source/Farm.sol\":14778:14788  msg.sender */\n      caller\n        /* \"source/Farm.sol\":27640:27663  owner() == _msgSender() */\n      eq\n        /* \"source/Farm.sol\":27632:27700  require(owner() == _msgSender(), \"Ownable: caller is not the owner\") */\n      tag_201\n      jumpi\n      mload(0x40)\n      0x08c379a000000000000000000000000000000000000000000000000000000000\n      dup2\n      mstore\n        /* \"#utility.yul\":8379:8381   */\n      0x20\n        /* \"source/Farm.sol\":27632:27700  require(owner() == _msgSender(), \"Ownable: caller is not the owner\") */\n      0x04\n      dup3\n      add\n        /* \"#utility.yul\":8361:8382   */\n      dup2\n      swap1\n      mstore\n        /* \"#utility.yul\":8398:8416   */\n      0x24\n      dup3\n      add\n        /* \"#utility.yul\":8391:8421   */\n      mstore\n        /* \"#utility.yul\":8457:8491   */\n      0x4f776e61626c653a2063616c6c6572206973206e6f7420746865206f776e6572\n        /* \"#utility.yul\":8437:8455   */\n      0x44\n      dup3\n      add\n        /* \"#utility.yul\":8430:8492   */\n      mstore\n        /* \"#utility.yul\":8509:8527   */\n      0x64\n      add\n        /* \"source/Farm.sol\":27632:27700  require(owner() == _msgSender(), \"Ownable: caller is not the owner\") */\n      tag_115\n        /* \"#utility.yul\":8177:8533   */\n      jump\n        /* \"source/Farm.sol\":28678:28869  function _transferOwnership(address newOwner) internal virtual {... */\n    tag_202:\n        /* \"source/Farm.sol\":28771:28777  _owner */\n      0x01\n      dup1\n      sload\n      0xffffffffffffffffffffffffffffffffffffffff\n        /* \"source/Farm.sol\":28788:28805  _owner = newOwner */\n      dup4\n      dup2\n      and\n        /* \"source/Farm.sol\":28771:28777  _owner */\n      0x0100\n        /* \"source/Farm.sol\":28788:28805  _owner = newOwner */\n      dup2\n      dup2\n      mul\n      0xffffffffffffffffffffff0000000000000000000000000000000000000000ff\n      dup6\n      and\n      or\n      swap1\n      swap5\n      sstore\n        /* \"source/Farm.sol\":28821:28861  OwnershipTransferred(oldOwner, newOwner) */\n      mload(0x40)\n        /* \"source/Farm.sol\":28771:28777  _owner */\n      swap4\n      swap1\n      swap3\n      div\n      and\n      swap2\n      dup3\n      swap1\n        /* \"source/Farm.sol\":28821:28861  OwnershipTransferred(oldOwner, newOwner) */\n      0x8be0079c531659141344cd1fd0a4f28419497f9722a3daafe3b4186f6b6457e0\n      swap1\n        /* \"source/Farm.sol\":28752:28768  address oldOwner */\n      0x00\n      swap1\n        /* \"source/Farm.sol\":28821:28861  OwnershipTransferred(oldOwner, newOwner) */\n      log3\n        /* \"source/Farm.sol\":28741:28869  {... */\n      pop\n        /* \"source/Farm.sol\":28678:28869  function _transferOwnership(address newOwner) internal virtual {... */\n      pop\n      jump\t// out\n        /* \"source/Farm.sol\":16131:16239  function _requireNotPaused() internal view virtual {... */\n    tag_208:\n        /* \"source/Farm.sol\":16043:16050  _paused */\n      and(0xff, sload(0x01))\n        /* \"source/Farm.sol\":16201:16210  !paused() */\n      iszero\n        /* \"source/Farm.sol\":16193:16231  require(!paused(), \"Pausable: paused\") */\n      tag_201\n      jumpi\n      mload(0x40)\n      0x08c379a000000000000000000000000000000000000000000000000000000000\n      dup2\n      mstore\n        /* \"#utility.yul\":8740:8742   */\n      0x20\n        /* \"source/Farm.sol\":16193:16231  require(!paused(), \"Pausable: paused\") */\n      0x04\n      dup3\n      add\n        /* \"#utility.yul\":8722:8743   */\n      mstore\n        /* \"#utility.yul\":8779:8781   */\n      0x10\n        /* \"#utility.yul\":8759:8777   */\n      0x24\n      dup3\n      add\n        /* \"#utility.yul\":8752:8782   */\n      mstore\n        /* \"#utility.yul\":8818:8836   */\n      0x5061757361626c653a2070617573656400000000000000000000000000000000\n        /* \"#utility.yul\":8798:8816   */\n      0x44\n      dup3\n      add\n        /* \"#utility.yul\":8791:8837   */\n      mstore\n        /* \"#utility.yul\":8854:8872   */\n      0x64\n      add\n        /* \"source/Farm.sol\":16193:16231  require(!paused(), \"Pausable: paused\") */\n      tag_115\n        /* \"#utility.yul\":8538:8878   */\n      jump\n        /* \"source/Farm.sol\":30872:31808  function _stake(address _staker, uint256 _tokenId) internal {... */\n    tag_211:\n        /* \"source/Farm.sol\":30965:30978  nftCollection */\n      sload(0x03)\n        /* \"source/Farm.sol\":30965:30996  nftCollection.ownerOf(_tokenId) */\n      mload(0x40)\n      0x6352211e00000000000000000000000000000000000000000000000000000000\n      dup2\n      mstore\n      0x04\n      dup2\n      add\n        /* \"#utility.yul\":160:185   */\n      dup4\n      swap1\n      mstore\n        /* \"source/Farm.sol\":30965:31007  nftCollection.ownerOf(_tokenId) == _staker */\n      0xffffffffffffffffffffffffffffffffffffffff\n      dup5\n      dup2\n      and\n      swap3\n        /* \"source/Farm.sol\":30965:30978  nftCollection */\n      and\n      swap1\n        /* \"source/Farm.sol\":30965:30986  nftCollection.ownerOf */\n      0x6352211e\n      swap1\n        /* \"#utility.yul\":133:151   */\n      0x24\n      add\n        /* \"source/Farm.sol\":30965:30996  nftCollection.ownerOf(_tokenId) */\n      0x20\n      mload(0x40)\n      dup1\n      dup4\n      sub\n      dup2\n      dup7\n      gas\n      staticcall\n      iszero\n      dup1\n      iszero\n      tag_275\n      jumpi\n      returndatasize\n      0x00\n      dup1\n      returndatacopy\n      revert(0x00, returndatasize)\n    tag_275:\n      pop\n      pop\n      pop\n      pop\n      mload(0x40)\n      returndatasize\n      not(0x1f)\n      0x1f\n      dup3\n      add\n      and\n      dup3\n      add\n      dup1\n      0x40\n      mstore\n      pop\n      dup2\n      add\n      swap1\n      tag_276\n      swap2\n      swap1\n      tag_277\n      jump\t// in\n    tag_276:\n        /* \"source/Farm.sol\":30965:31007  nftCollection.ownerOf(_tokenId) == _staker */\n      0xffffffffffffffffffffffffffffffffffffffff\n      and\n      eq\n        /* \"source/Farm.sol\":30943:31060  require(... */\n      tag_278\n      jumpi\n      mload(0x40)\n      0x08c379a000000000000000000000000000000000000000000000000000000000\n      dup2\n      mstore\n        /* \"#utility.yul\":3860:3862   */\n      0x20\n        /* \"source/Farm.sol\":30943:31060  require(... */\n      0x04\n      dup3\n      add\n        /* \"#utility.yul\":3842:3863   */\n      mstore\n        /* \"#utility.yul\":3899:3901   */\n      0x19\n        /* \"#utility.yul\":3879:3897   */\n      0x24\n      dup3\n      add\n        /* \"#utility.yul\":3872:3902   */\n      mstore\n        /* \"#utility.yul\":3938:3965   */\n      0x596f7520646f6e2774206f776e207468697320746f6b656e2100000000000000\n        /* \"#utility.yul\":3918:3936   */\n      0x44\n      dup3\n      add\n        /* \"#utility.yul\":3911:3966   */\n      mstore\n        /* \"#utility.yul\":3983:4001   */\n      0x64\n      add\n        /* \"source/Farm.sol\":30943:31060  require(... */\n      tag_115\n        /* \"#utility.yul\":3658:4007   */\n      jump\n        /* \"source/Farm.sol\":30943:31060  require(... */\n    tag_278:\n        /* \"source/Farm.sol\":31077:31093  stakers[_staker] */\n      0xffffffffffffffffffffffffffffffffffffffff\n      dup3\n      and\n        /* \"source/Farm.sol\":31109:31110  0 */\n      0x00\n        /* \"source/Farm.sol\":31077:31093  stakers[_staker] */\n      swap1\n      dup2\n      mstore\n        /* \"source/Farm.sol\":31077:31084  stakers */\n      0x09\n        /* \"source/Farm.sol\":31077:31093  stakers[_staker] */\n      0x20\n      mstore\n      0x40\n      swap1\n      keccak256\n        /* \"source/Farm.sol\":31077:31106  stakers[_staker].amountStaked */\n      sload\n        /* \"source/Farm.sol\":31077:31110  stakers[_staker].amountStaked > 0 */\n      iszero\n        /* \"source/Farm.sol\":31073:31241  if (stakers[_staker].amountStaked > 0) {... */\n      tag_280\n      jumpi\n        /* \"source/Farm.sol\":31127:31142  uint256 rewards */\n      0x00\n        /* \"source/Farm.sol\":31145:31170  calculateRewards(_staker) */\n      tag_281\n        /* \"source/Farm.sol\":31162:31169  _staker */\n      dup4\n        /* \"source/Farm.sol\":31145:31161  calculateRewards */\n      tag_128\n        /* \"source/Farm.sol\":31145:31170  calculateRewards(_staker) */\n      jump\t// in\n    tag_281:\n        /* \"source/Farm.sol\":31185:31201  stakers[_staker] */\n      0xffffffffffffffffffffffffffffffffffffffff\n      dup5\n      and\n      0x00\n      swap1\n      dup2\n      mstore\n        /* \"source/Farm.sol\":31185:31192  stakers */\n      0x09\n        /* \"source/Farm.sol\":31185:31201  stakers[_staker] */\n      0x20\n      mstore\n      0x40\n      dup2\n      keccak256\n        /* \"source/Farm.sol\":31185:31218  stakers[_staker].unclaimedRewards */\n      0x03\n      add\n        /* \"source/Farm.sol\":31185:31229  stakers[_staker].unclaimedRewards += rewards */\n      dup1\n      sload\n        /* \"source/Farm.sol\":31127:31170  uint256 rewards = calculateRewards(_staker) */\n      swap3\n      swap4\n      pop\n      dup4\n      swap3\n        /* \"source/Farm.sol\":31185:31218  stakers[_staker].unclaimedRewards */\n      swap1\n      swap2\n        /* \"source/Farm.sol\":31185:31201  stakers[_staker] */\n      swap1\n        /* \"source/Farm.sol\":31185:31229  stakers[_staker].unclaimedRewards += rewards */\n      tag_282\n      swap1\n        /* \"source/Farm.sol\":31127:31170  uint256 rewards = calculateRewards(_staker) */\n      dup5\n      swap1\n        /* \"source/Farm.sol\":31185:31229  stakers[_staker].unclaimedRewards += rewards */\n      tag_122\n      jump\t// in\n    tag_282:\n      swap1\n      swap2\n      sstore\n      pop\n      pop\n      pop\n        /* \"source/Farm.sol\":31073:31241  if (stakers[_staker].amountStaked > 0) {... */\n    tag_280:\n        /* \"source/Farm.sol\":31253:31266  nftCollection */\n      sload(0x03)\n        /* \"source/Farm.sol\":31253:31313  nftCollection.transferFrom(_staker, address(this), _tokenId) */\n      mload(0x40)\n      0x23b872dd00000000000000000000000000000000000000000000000000000000\n      dup2\n      mstore\n        /* \"source/Farm.sol\":31253:31266  nftCollection */\n      0xffffffffffffffffffffffffffffffffffffffff\n        /* \"#utility.yul\":5609:5624   */\n      dup5\n      dup2\n      and\n        /* \"source/Farm.sol\":31253:31313  nftCollection.transferFrom(_staker, address(this), _tokenId) */\n      0x04\n      dup4\n      add\n        /* \"#utility.yul\":5591:5625   */\n      mstore\n        /* \"source/Farm.sol\":31297:31301  this */\n      address\n        /* \"#utility.yul\":5641:5659   */\n      0x24\n      dup4\n      add\n        /* \"#utility.yul\":5634:5677   */\n      mstore\n        /* \"#utility.yul\":5693:5711   */\n      0x44\n      dup3\n      add\n        /* \"#utility.yul\":5686:5720   */\n      dup5\n      swap1\n      mstore\n        /* \"source/Farm.sol\":31253:31266  nftCollection */\n      swap1\n      swap2\n      and\n      swap1\n        /* \"source/Farm.sol\":31253:31279  nftCollection.transferFrom */\n      0x23b872dd\n      swap1\n        /* \"#utility.yul\":5503:5521   */\n      0x64\n      add\n        /* \"source/Farm.sol\":31253:31313  nftCollection.transferFrom(_staker, address(this), _tokenId) */\n      0x00\n      mload(0x40)\n      dup1\n      dup4\n      sub\n      dup2\n      0x00\n      dup8\n      dup1\n      extcodesize\n      iszero\n      dup1\n      iszero\n      tag_284\n      jumpi\n      0x00\n      dup1\n      revert\n    tag_284:\n      pop\n      gas\n      call\n      iszero\n      dup1\n      iszero\n      tag_286\n      jumpi\n      returndatasize\n      0x00\n      dup1\n      returndatacopy\n      revert(0x00, returndatasize)\n    tag_286:\n      pop\n      pop\n        /* \"source/Farm.sol\":31359:31523  StakedToken(... */\n      0x40\n      dup1\n      mload\n      0x60\n      dup2\n      add\n      dup3\n      mstore\n      0xffffffffffffffffffffffffffffffffffffffff\n      dup7\n      dup2\n      and\n      dup1\n      dup4\n      mstore\n      0x20\n      dup1\n      dup5\n      add\n      dup9\n      dup2\n      mstore\n        /* \"source/Farm.sol\":31490:31505  block.timestamp */\n      timestamp\n        /* \"source/Farm.sol\":31359:31523  StakedToken(... */\n      dup6\n      dup8\n      add\n      swap1\n      dup2\n      mstore\n      0x00\n        /* \"source/Farm.sol\":31534:31550  stakers[_staker] */\n      dup5\n      dup2\n      mstore\n        /* \"source/Farm.sol\":31534:31541  stakers */\n      0x09\n        /* \"source/Farm.sol\":31534:31550  stakers[_staker] */\n      dup5\n      mstore\n      swap7\n      dup8\n      keccak256\n        /* \"source/Farm.sol\":31534:31563  stakers[_staker].stakedTokens */\n      0x01\n      dup1\n      dup3\n      add\n        /* \"source/Farm.sol\":31534:31581  stakers[_staker].stakedTokens.push(stakedToken) */\n      dup1\n      sload\n      dup1\n      dup4\n      add\n      dup3\n      sstore\n      swap1\n      dup11\n      mstore\n      swap5\n      dup10\n      keccak256\n      dup9\n      mload\n      0x03\n      swap1\n      swap7\n      mul\n      add\n      dup1\n      sload\n      0xffffffffffffffffffffffff0000000000000000000000000000000000000000\n      and\n      swap6\n      swap1\n      swap8\n      and\n      swap5\n      swap1\n      swap5\n      or\n      dup7\n      sstore\n      swap2\n      mload\n      swap3\n      dup6\n      add\n      swap3\n      swap1\n      swap3\n      sstore\n      swap1\n      mload\n      0x02\n      swap1\n      swap4\n      add\n      swap3\n      swap1\n      swap3\n      sstore\n        /* \"source/Farm.sol\":31592:31608  stakers[_staker] */\n      dup4\n      mstore\n        /* \"source/Farm.sol\":31592:31623  stakers[_staker].amountStaked++ */\n      dup1\n      sload\n        /* \"source/Farm.sol\":31359:31523  StakedToken(... */\n      swap2\n      swap5\n      pop\n        /* \"source/Farm.sol\":31592:31623  stakers[_staker].amountStaked++ */\n      swap1\n      swap3\n      pop\n        /* \"source/Farm.sol\":31534:31550  stakers[_staker] */\n      swap1\n        /* \"source/Farm.sol\":31592:31623  stakers[_staker].amountStaked++ */\n      tag_288\n      dup4\n      tag_143\n      jump\t// in\n    tag_288:\n      swap1\n      swap2\n      sstore\n      pop\n      pop\n      pop\n        /* \"source/Farm.sol\":31634:31657  stakerAddress[_tokenId] */\n      0x00\n      swap1\n      dup2\n      mstore\n        /* \"source/Farm.sol\":31634:31647  stakerAddress */\n      0x0a\n        /* \"source/Farm.sol\":31634:31657  stakerAddress[_tokenId] */\n      0x20\n      swap1\n      dup2\n      mstore\n      0x40\n      dup1\n      dup4\n      keccak256\n        /* \"source/Farm.sol\":31634:31667  stakerAddress[_tokenId] = _staker */\n      dup1\n      sload\n      0xffffffffffffffffffffffffffffffffffffffff\n      swap1\n      swap6\n      and\n      0xffffffffffffffffffffffff0000000000000000000000000000000000000000\n      swap1\n      swap6\n      and\n      dup6\n      or\n      swap1\n      sstore\n        /* \"source/Farm.sol\":31678:31697  tokenStartStakeTime */\n      0x0b\n        /* \"source/Farm.sol\":31678:31707  tokenStartStakeTime[_tokenId] */\n      dup3\n      mstore\n      dup1\n      dup4\n      keccak256\n        /* \"source/Farm.sol\":31710:31725  block.timestamp */\n      timestamp\n        /* \"source/Farm.sol\":31678:31725  tokenStartStakeTime[_tokenId] = block.timestamp */\n      swap1\n      dup2\n      swap1\n      sstore\n        /* \"source/Farm.sol\":31749:31765  stakers[_staker] */\n      swap4\n      dup4\n      mstore\n        /* \"source/Farm.sol\":31749:31756  stakers */\n      0x09\n        /* \"source/Farm.sol\":31749:31765  stakers[_staker] */\n      swap1\n      swap2\n      mstore\n      swap1\n      keccak256\n        /* \"source/Farm.sol\":31749:31782  stakers[_staker].timeOfLastUpdate */\n      0x02\n      add\n        /* \"source/Farm.sol\":31749:31800  stakers[_staker].timeOfLastUpdate = block.timestamp */\n      sstore\n        /* \"source/Farm.sol\":30872:31808  function _stake(address _staker, uint256 _tokenId) internal {... */\n      jump\t// out\n        /* \"source/Farm.sol\":16316:16424  function _requirePaused() internal view virtual {... */\n    tag_233:\n        /* \"source/Farm.sol\":16043:16050  _paused */\n      and(0xff, sload(0x01))\n        /* \"source/Farm.sol\":16375:16416  require(paused(), \"Pausable: not paused\") */\n      tag_201\n      jumpi\n      mload(0x40)\n      0x08c379a000000000000000000000000000000000000000000000000000000000\n      dup2\n      mstore\n        /* \"#utility.yul\":9341:9343   */\n      0x20\n        /* \"source/Farm.sol\":16375:16416  require(paused(), \"Pausable: not paused\") */\n      0x04\n      dup3\n      add\n        /* \"#utility.yul\":9323:9344   */\n      mstore\n        /* \"#utility.yul\":9380:9382   */\n      0x14\n        /* \"#utility.yul\":9360:9378   */\n      0x24\n      dup3\n      add\n        /* \"#utility.yul\":9353:9383   */\n      mstore\n        /* \"#utility.yul\":9419:9441   */\n      0x5061757361626c653a206e6f7420706175736564000000000000000000000000\n        /* \"#utility.yul\":9399:9417   */\n      0x44\n      dup3\n      add\n        /* \"#utility.yul\":9392:9442   */\n      mstore\n        /* \"#utility.yul\":9459:9477   */\n      0x64\n      add\n        /* \"source/Farm.sol\":16375:16416  require(paused(), \"Pausable: not paused\") */\n      tag_115\n        /* \"#utility.yul\":9139:9483   */\n      jump\n        /* \"source/Farm.sol\":26073:26834  function _callOptionalReturn(IERC20 token, bytes memory data) private {... */\n    tag_258:\n        /* \"source/Farm.sol\":26497:26520  bytes memory returndata */\n      0x00\n        /* \"source/Farm.sol\":26523:26592  address(token).functionCall(data, \"SafeERC20: low-level call failed\") */\n      tag_295\n        /* \"source/Farm.sol\":26551:26555  data */\n      dup3\n        /* \"source/Farm.sol\":26523:26592  address(token).functionCall(data, \"SafeERC20: low-level call failed\") */\n      mload(0x40)\n      dup1\n      0x40\n      add\n      0x40\n      mstore\n      dup1\n      0x20\n      dup2\n      mstore\n      0x20\n      add\n      0x5361666545524332303a206c6f772d6c6576656c2063616c6c206661696c6564\n      dup2\n      mstore\n      pop\n        /* \"source/Farm.sol\":26531:26536  token */\n      dup6\n        /* \"source/Farm.sol\":26523:26550  address(token).functionCall */\n      0xffffffffffffffffffffffffffffffffffffffff\n      and\n      tag_296\n      swap1\n        /* \"source/Farm.sol\":26523:26592  address(token).functionCall(data, \"SafeERC20: low-level call failed\") */\n      swap3\n      swap2\n      swap1\n      0xffffffff\n      and\n      jump\t// in\n    tag_295:\n        /* \"source/Farm.sol\":26607:26624  returndata.length */\n      dup1\n      mload\n        /* \"source/Farm.sol\":26497:26592  bytes memory returndata = address(token).functionCall(data, \"SafeERC20: low-level call failed\") */\n      swap1\n      swap2\n      pop\n        /* \"source/Farm.sol\":26607:26628  returndata.length > 0 */\n      iszero\n        /* \"source/Farm.sol\":26603:26827  if (returndata.length > 0) { // Return data is optional... */\n      tag_255\n      jumpi\n        /* \"source/Farm.sol\":26749:26759  returndata */\n      dup1\n        /* \"source/Farm.sol\":26738:26768  abi.decode(returndata, (bool)) */\n      dup1\n      0x20\n      add\n      swap1\n      mload\n      dup2\n      add\n      swap1\n      tag_298\n      swap2\n      swap1\n      tag_299\n      jump\t// in\n    tag_298:\n        /* \"source/Farm.sol\":26730:26815  require(abi.decode(returndata, (bool)), \"SafeERC20: ERC20 operation did not succeed\") */\n      tag_255\n      jumpi\n      mload(0x40)\n      0x08c379a000000000000000000000000000000000000000000000000000000000\n      dup2\n      mstore\n        /* \"#utility.yul\":9940:9942   */\n      0x20\n        /* \"source/Farm.sol\":26730:26815  require(abi.decode(returndata, (bool)), \"SafeERC20: ERC20 operation did not succeed\") */\n      0x04\n      dup3\n      add\n        /* \"#utility.yul\":9922:9943   */\n      mstore\n        /* \"#utility.yul\":9979:9981   */\n      0x2a\n        /* \"#utility.yul\":9959:9977   */\n      0x24\n      dup3\n      add\n        /* \"#utility.yul\":9952:9982   */\n      mstore\n        /* \"#utility.yul\":10018:10052   */\n      0x5361666545524332303a204552433230206f7065726174696f6e20646964206e\n        /* \"#utility.yul\":9998:10016   */\n      0x44\n      dup3\n      add\n        /* \"#utility.yul\":9991:10053   */\n      mstore\n        /* \"#utility.yul\":10089:10101   */\n      0x6f74207375636365656400000000000000000000000000000000000000000000\n        /* \"#utility.yul\":10069:10087   */\n      0x64\n      dup3\n      add\n        /* \"#utility.yul\":10062:10102   */\n      mstore\n        /* \"#utility.yul\":10119:10138   */\n      0x84\n      add\n        /* \"source/Farm.sol\":26730:26815  require(abi.decode(returndata, (bool)), \"SafeERC20: ERC20 operation did not succeed\") */\n      tag_115\n        /* \"#utility.yul\":9738:10144   */\n      jump\n        /* \"source/Farm.sol\":8687:8882  function functionCall(address target, bytes memory data, string memory errorMessage) internal returns (bytes memory) {... */\n    tag_296:\n        /* \"source/Farm.sol\":8790:8802  bytes memory */\n      0x60\n        /* \"source/Farm.sol\":8822:8874  functionCallWithValue(target, data, 0, errorMessage) */\n      tag_305\n        /* \"source/Farm.sol\":8844:8850  target */\n      dup5\n        /* \"source/Farm.sol\":8852:8856  data */\n      dup5\n        /* \"source/Farm.sol\":8858:8859  0 */\n      0x00\n        /* \"source/Farm.sol\":8861:8873  errorMessage */\n      dup6\n        /* \"source/Farm.sol\":8822:8843  functionCallWithValue */\n      tag_306\n        /* \"source/Farm.sol\":8822:8874  functionCallWithValue(target, data, 0, errorMessage) */\n      jump\t// in\n    tag_305:\n        /* \"source/Farm.sol\":8815:8874  return functionCallWithValue(target, data, 0, errorMessage) */\n      swap5\n        /* \"source/Farm.sol\":8687:8882  function functionCall(address target, bytes memory data, string memory errorMessage) internal returns (bytes memory) {... */\n      swap4\n      pop\n      pop\n      pop\n      pop\n      jump\t// out\n        /* \"source/Farm.sol\":9739:10269  function functionCallWithValue(address target, bytes memory data, uint256 value, string memory errorMessage) internal returns (bytes memory) {... */\n    tag_306:\n        /* \"source/Farm.sol\":9866:9878  bytes memory */\n      0x60\n        /* \"source/Farm.sol\":9924:9929  value */\n      dup3\n        /* \"source/Farm.sol\":9899:9920  address(this).balance */\n      selfbalance\n        /* \"source/Farm.sol\":9899:9929  address(this).balance >= value */\n      lt\n      iszero\n        /* \"source/Farm.sol\":9891:9972  require(address(this).balance >= value, \"Address: insufficient balance for call\") */\n      tag_308\n      jumpi\n      mload(0x40)\n      0x08c379a000000000000000000000000000000000000000000000000000000000\n      dup2\n      mstore\n        /* \"#utility.yul\":10351:10353   */\n      0x20\n        /* \"source/Farm.sol\":9891:9972  require(address(this).balance >= value, \"Address: insufficient balance for call\") */\n      0x04\n      dup3\n      add\n        /* \"#utility.yul\":10333:10354   */\n      mstore\n        /* \"#utility.yul\":10390:10392   */\n      0x26\n        /* \"#utility.yul\":10370:10388   */\n      0x24\n      dup3\n      add\n        /* \"#utility.yul\":10363:10393   */\n      mstore\n        /* \"#utility.yul\":10429:10463   */\n      0x416464726573733a20696e73756666696369656e742062616c616e636520666f\n        /* \"#utility.yul\":10409:10427   */\n      0x44\n      dup3\n      add\n        /* \"#utility.yul\":10402:10464   */\n      mstore\n        /* \"#utility.yul\":10500:10508   */\n      0x722063616c6c0000000000000000000000000000000000000000000000000000\n        /* \"#utility.yul\":10480:10498   */\n      0x64\n      dup3\n      add\n        /* \"#utility.yul\":10473:10509   */\n      mstore\n        /* \"#utility.yul\":10526:10545   */\n      0x84\n      add\n        /* \"source/Farm.sol\":9891:9972  require(address(this).balance >= value, \"Address: insufficient balance for call\") */\n      tag_115\n        /* \"#utility.yul\":10149:10551   */\n      jump\n        /* \"source/Farm.sol\":9891:9972  require(address(this).balance >= value, \"Address: insufficient balance for call\") */\n    tag_308:\n        /* \"source/Farm.sol\":6136:6156  extcodesize(account) */\n      dup5\n      extcodesize\n        /* \"source/Farm.sol\":9983:10043  require(isContract(target), \"Address: call to non-contract\") */\n      tag_313\n      jumpi\n      mload(0x40)\n      0x08c379a000000000000000000000000000000000000000000000000000000000\n      dup2\n      mstore\n        /* \"#utility.yul\":10758:10760   */\n      0x20\n        /* \"source/Farm.sol\":9983:10043  require(isContract(target), \"Address: call to non-contract\") */\n      0x04\n      dup3\n      add\n        /* \"#utility.yul\":10740:10761   */\n      mstore\n        /* \"#utility.yul\":10797:10799   */\n      0x1d\n        /* \"#utility.yul\":10777:10795   */\n      0x24\n      dup3\n      add\n        /* \"#utility.yul\":10770:10800   */\n      mstore\n        /* \"#utility.yul\":10836:10867   */\n      0x416464726573733a2063616c6c20746f206e6f6e2d636f6e7472616374000000\n        /* \"#utility.yul\":10816:10834   */\n      0x44\n      dup3\n      add\n        /* \"#utility.yul\":10809:10868   */\n      mstore\n        /* \"#utility.yul\":10885:10903   */\n      0x64\n      add\n        /* \"source/Farm.sol\":9983:10043  require(isContract(target), \"Address: call to non-contract\") */\n      tag_115\n        /* \"#utility.yul\":10556:10909   */\n      jump\n        /* \"source/Farm.sol\":9983:10043  require(isContract(target), \"Address: call to non-contract\") */\n    tag_313:\n        /* \"source/Farm.sol\":10117:10129  bool success */\n      0x00\n        /* \"source/Farm.sol\":10131:10154  bytes memory returndata */\n      dup1\n        /* \"source/Farm.sol\":10158:10164  target */\n      dup7\n        /* \"source/Farm.sol\":10158:10169  target.call */\n      0xffffffffffffffffffffffffffffffffffffffff\n      and\n        /* \"source/Farm.sol\":10178:10183  value */\n      dup6\n        /* \"source/Farm.sol\":10186:10190  data */\n      dup8\n        /* \"source/Farm.sol\":10158:10191  target.call{ value: value }(data) */\n      mload(0x40)\n      tag_316\n      swap2\n      swap1\n      tag_317\n      jump\t// in\n    tag_316:\n      0x00\n      mload(0x40)\n      dup1\n      dup4\n      sub\n      dup2\n      dup6\n      dup8\n      gas\n      call\n      swap3\n      pop\n      pop\n      pop\n      returndatasize\n      dup1\n      0x00\n      dup2\n      eq\n      tag_320\n      jumpi\n      mload(0x40)\n      swap2\n      pop\n      and(add(returndatasize, 0x3f), not(0x1f))\n      dup3\n      add\n      0x40\n      mstore\n      returndatasize\n      dup3\n      mstore\n      returndatasize\n      0x00\n      0x20\n      dup5\n      add\n      returndatacopy\n      jump(tag_319)\n    tag_320:\n      0x60\n      swap2\n      pop\n    tag_319:\n      pop\n        /* \"source/Farm.sol\":10116:10191  (bool success, bytes memory returndata) = target.call{ value: value }(data) */\n      swap2\n      pop\n      swap2\n      pop\n        /* \"source/Farm.sol\":10209:10261  _verifyCallResult(success, returndata, errorMessage) */\n      tag_321\n        /* \"source/Farm.sol\":10227:10234  success */\n      dup3\n        /* \"source/Farm.sol\":10236:10246  returndata */\n      dup3\n        /* \"source/Farm.sol\":10248:10260  errorMessage */\n      dup7\n        /* \"source/Farm.sol\":10209:10226  _verifyCallResult */\n      tag_322\n        /* \"source/Farm.sol\":10209:10261  _verifyCallResult(success, returndata, errorMessage) */\n      jump\t// in\n    tag_321:\n        /* \"source/Farm.sol\":10202:10261  return _verifyCallResult(success, returndata, errorMessage) */\n      swap8\n        /* \"source/Farm.sol\":9739:10269  function functionCallWithValue(address target, bytes memory data, uint256 value, string memory errorMessage) internal returns (bytes memory) {... */\n      swap7\n      pop\n      pop\n      pop\n      pop\n      pop\n      pop\n      pop\n      jump\t// out\n        /* \"source/Farm.sol\":11275:12017  function _verifyCallResult(bool success, bytes memory returndata, string memory errorMessage) private pure returns(bytes memory) {... */\n    tag_322:\n        /* \"source/Farm.sol\":11390:11402  bytes memory */\n      0x60\n        /* \"source/Farm.sol\":11419:11426  success */\n      dup4\n        /* \"source/Farm.sol\":11415:12010  if (success) {... */\n      iszero\n      tag_325\n      jumpi\n      pop\n        /* \"source/Farm.sol\":11450:11460  returndata */\n      dup2\n        /* \"source/Farm.sol\":11443:11460  return returndata */\n      jump(tag_228)\n        /* \"source/Farm.sol\":11415:12010  if (success) {... */\n    tag_325:\n        /* \"source/Farm.sol\":11564:11581  returndata.length */\n      dup3\n      mload\n        /* \"source/Farm.sol\":11564:11585  returndata.length > 0 */\n      iszero\n        /* \"source/Farm.sol\":11560:11999  if (returndata.length > 0) {... */\n      tag_327\n      jumpi\n        /* \"source/Farm.sol\":11827:11837  returndata */\n      dup3\n        /* \"source/Farm.sol\":11821:11838  mload(returndata) */\n      mload\n        /* \"source/Farm.sol\":11888:11903  returndata_size */\n      dup1\n        /* \"source/Farm.sol\":11875:11885  returndata */\n      dup5\n        /* \"source/Farm.sol\":11871:11873  32 */\n      0x20\n        /* \"source/Farm.sol\":11867:11886  add(32, returndata) */\n      add\n        /* \"source/Farm.sol\":11860:11904  revert(add(32, returndata), returndata_size) */\n      revert\n        /* \"source/Farm.sol\":11560:11999  if (returndata.length > 0) {... */\n    tag_327:\n        /* \"source/Farm.sol\":11970:11982  errorMessage */\n      dup2\n        /* \"source/Farm.sol\":11963:11983  revert(errorMessage) */\n      mload(0x40)\n      0x08c379a000000000000000000000000000000000000000000000000000000000\n      dup2\n      mstore\n      0x04\n      add\n      tag_115\n      swap2\n      swap1\n      tag_330\n      jump\t// in\n        /* \"#utility.yul\":196:376   */\n    tag_38:\n        /* \"#utility.yul\":255:261   */\n      0x00\n        /* \"#utility.yul\":308:310   */\n      0x20\n        /* \"#utility.yul\":296:305   */\n      dup3\n        /* \"#utility.yul\":287:294   */\n      dup5\n        /* \"#utility.yul\":283:306   */\n      sub\n        /* \"#utility.yul\":279:311   */\n      slt\n        /* \"#utility.yul\":276:328   */\n      iszero\n      tag_338\n      jumpi\n        /* \"#utility.yul\":324:325   */\n      0x00\n        /* \"#utility.yul\":321:322   */\n      dup1\n        /* \"#utility.yul\":314:326   */\n      revert\n        /* \"#utility.yul\":276:328   */\n    tag_338:\n      pop\n        /* \"#utility.yul\":347:370   */\n      calldataload\n      swap2\n        /* \"#utility.yul\":196:376   */\n      swap1\n      pop\n      jump\t// out\n        /* \"#utility.yul\":573:727   */\n    tag_331:\n        /* \"#utility.yul\":659:701   */\n      0xffffffffffffffffffffffffffffffffffffffff\n        /* \"#utility.yul\":652:657   */\n      dup2\n        /* \"#utility.yul\":648:702   */\n      and\n        /* \"#utility.yul\":641:646   */\n      dup2\n        /* \"#utility.yul\":638:703   */\n      eq\n        /* \"#utility.yul\":628:721   */\n      tag_154\n      jumpi\n        /* \"#utility.yul\":717:718   */\n      0x00\n        /* \"#utility.yul\":714:715   */\n      dup1\n        /* \"#utility.yul\":707:719   */\n      revert\n        /* \"#utility.yul\":732:979   */\n    tag_58:\n        /* \"#utility.yul\":791:797   */\n      0x00\n        /* \"#utility.yul\":844:846   */\n      0x20\n        /* \"#utility.yul\":832:841   */\n      dup3\n        /* \"#utility.yul\":823:830   */\n      dup5\n        /* \"#utility.yul\":819:842   */\n      sub\n        /* \"#utility.yul\":815:847   */\n      slt\n        /* \"#utility.yul\":812:864   */\n      iszero\n      tag_343\n      jumpi\n        /* \"#utility.yul\":860:861   */\n      0x00\n        /* \"#utility.yul\":857:858   */\n      dup1\n        /* \"#utility.yul\":850:862   */\n      revert\n        /* \"#utility.yul\":812:864   */\n    tag_343:\n        /* \"#utility.yul\":899:908   */\n      dup2\n        /* \"#utility.yul\":886:909   */\n      calldataload\n        /* \"#utility.yul\":918:949   */\n      tag_228\n        /* \"#utility.yul\":943:948   */\n      dup2\n        /* \"#utility.yul\":918:949   */\n      tag_331\n      jump\t// in\n        /* \"#utility.yul\":984:1884   */\n    tag_61:\n        /* \"#utility.yul\":1213:1215   */\n      0x20\n        /* \"#utility.yul\":1265:1286   */\n      dup1\n      dup3\n      mstore\n        /* \"#utility.yul\":1335:1348   */\n      dup3\n      mload\n        /* \"#utility.yul\":1238:1256   */\n      dup3\n      dup3\n      add\n        /* \"#utility.yul\":1357:1379   */\n      dup2\n      swap1\n      mstore\n        /* \"#utility.yul\":1184:1188   */\n      0x00\n      swap2\n        /* \"#utility.yul\":1213:1215   */\n      swap1\n        /* \"#utility.yul\":1398:1400   */\n      0x40\n      swap1\n        /* \"#utility.yul\":1416:1434   */\n      dup2\n      dup6\n      add\n      swap1\n        /* \"#utility.yul\":1457:1472   */\n      dup7\n      dup5\n      add\n        /* \"#utility.yul\":1184:1188   */\n      dup6\n        /* \"#utility.yul\":1500:1858   */\n    tag_346:\n        /* \"#utility.yul\":1514:1520   */\n      dup3\n        /* \"#utility.yul\":1511:1512   */\n      dup2\n        /* \"#utility.yul\":1508:1521   */\n      lt\n        /* \"#utility.yul\":1500:1858   */\n      iszero\n      tag_348\n      jumpi\n        /* \"#utility.yul\":1573:1586   */\n      dup2\n      mload\n        /* \"#utility.yul\":1615:1624   */\n      dup1\n      mload\n        /* \"#utility.yul\":1626:1668   */\n      0xffffffffffffffffffffffffffffffffffffffff\n        /* \"#utility.yul\":1611:1669   */\n      and\n        /* \"#utility.yul\":1599:1670   */\n      dup6\n      mstore\n        /* \"#utility.yul\":1710:1721   */\n      dup7\n      dup2\n      add\n        /* \"#utility.yul\":1704:1722   */\n      mload\n        /* \"#utility.yul\":1690:1702   */\n      dup8\n      dup7\n      add\n        /* \"#utility.yul\":1683:1723   */\n      mstore\n        /* \"#utility.yul\":1763:1774   */\n      dup6\n      add\n        /* \"#utility.yul\":1757:1775   */\n      mload\n        /* \"#utility.yul\":1743:1755   */\n      dup6\n      dup6\n      add\n        /* \"#utility.yul\":1736:1776   */\n      mstore\n        /* \"#utility.yul\":1805:1809   */\n      0x60\n        /* \"#utility.yul\":1796:1810   */\n      swap1\n      swap4\n      add\n      swap3\n        /* \"#utility.yul\":1833:1848   */\n      swap1\n      dup6\n      add\n      swap1\n        /* \"#utility.yul\":1536:1537   */\n      0x01\n        /* \"#utility.yul\":1529:1538   */\n      add\n        /* \"#utility.yul\":1500:1858   */\n      jump(tag_346)\n    tag_348:\n      pop\n        /* \"#utility.yul\":1875:1878   */\n      swap2\n      swap8\n        /* \"#utility.yul\":984:1884   */\n      swap7\n      pop\n      pop\n      pop\n      pop\n      pop\n      pop\n      pop\n      jump\t// out\n        /* \"#utility.yul\":2135:2253   */\n    tag_332:\n        /* \"#utility.yul\":2221:2226   */\n      dup1\n        /* \"#utility.yul\":2214:2227   */\n      iszero\n        /* \"#utility.yul\":2207:2228   */\n      iszero\n        /* \"#utility.yul\":2200:2205   */\n      dup2\n        /* \"#utility.yul\":2197:2229   */\n      eq\n        /* \"#utility.yul\":2187:2247   */\n      tag_154\n      jumpi\n        /* \"#utility.yul\":2243:2244   */\n      0x00\n        /* \"#utility.yul\":2240:2241   */\n      dup1\n        /* \"#utility.yul\":2233:2245   */\n      revert\n        /* \"#utility.yul\":2258:2499   */\n    tag_68:\n        /* \"#utility.yul\":2314:2320   */\n      0x00\n        /* \"#utility.yul\":2367:2369   */\n      0x20\n        /* \"#utility.yul\":2355:2364   */\n      dup3\n        /* \"#utility.yul\":2346:2353   */\n      dup5\n        /* \"#utility.yul\":2342:2365   */\n      sub\n        /* \"#utility.yul\":2338:2370   */\n      slt\n        /* \"#utility.yul\":2335:2387   */\n      iszero\n      tag_353\n      jumpi\n        /* \"#utility.yul\":2383:2384   */\n      0x00\n        /* \"#utility.yul\":2380:2381   */\n      dup1\n        /* \"#utility.yul\":2373:2385   */\n      revert\n        /* \"#utility.yul\":2335:2387   */\n    tag_353:\n        /* \"#utility.yul\":2422:2431   */\n      dup2\n        /* \"#utility.yul\":2409:2432   */\n      calldataload\n        /* \"#utility.yul\":2441:2469   */\n      tag_228\n        /* \"#utility.yul\":2463:2468   */\n      dup2\n        /* \"#utility.yul\":2441:2469   */\n      tag_332\n      jump\t// in\n        /* \"#utility.yul\":4012:4196   */\n    tag_333:\n        /* \"#utility.yul\":4064:4141   */\n      0x4e487b7100000000000000000000000000000000000000000000000000000000\n        /* \"#utility.yul\":4061:4062   */\n      0x00\n        /* \"#utility.yul\":4054:4142   */\n      mstore\n        /* \"#utility.yul\":4161:4165   */\n      0x11\n        /* \"#utility.yul\":4158:4159   */\n      0x04\n        /* \"#utility.yul\":4151:4166   */\n      mstore\n        /* \"#utility.yul\":4185:4189   */\n      0x24\n        /* \"#utility.yul\":4182:4183   */\n      0x00\n        /* \"#utility.yul\":4175:4190   */\n      revert\n        /* \"#utility.yul\":4201:4329   */\n    tag_122:\n        /* \"#utility.yul\":4241:4244   */\n      0x00\n        /* \"#utility.yul\":4272:4273   */\n      dup3\n        /* \"#utility.yul\":4268:4274   */\n      not\n        /* \"#utility.yul\":4265:4266   */\n      dup3\n        /* \"#utility.yul\":4262:4275   */\n      gt\n        /* \"#utility.yul\":4259:4298   */\n      iszero\n      tag_363\n      jumpi\n        /* \"#utility.yul\":4278:4296   */\n      tag_363\n      tag_333\n      jump\t// in\n    tag_363:\n      pop\n        /* \"#utility.yul\":4314:4323   */\n      add\n      swap1\n        /* \"#utility.yul\":4201:4329   */\n      jump\t// out\n        /* \"#utility.yul\":4738:4922   */\n    tag_135:\n        /* \"#utility.yul\":4790:4867   */\n      0x4e487b7100000000000000000000000000000000000000000000000000000000\n        /* \"#utility.yul\":4787:4788   */\n      0x00\n        /* \"#utility.yul\":4780:4868   */\n      mstore\n        /* \"#utility.yul\":4887:4891   */\n      0x32\n        /* \"#utility.yul\":4884:4885   */\n      0x04\n        /* \"#utility.yul\":4877:4892   */\n      mstore\n        /* \"#utility.yul\":4911:4915   */\n      0x24\n        /* \"#utility.yul\":4908:4909   */\n      0x00\n        /* \"#utility.yul\":4901:4916   */\n      revert\n        /* \"#utility.yul\":4927:5122   */\n    tag_143:\n        /* \"#utility.yul\":4966:4969   */\n      0x00\n        /* \"#utility.yul\":4997:5063   */\n      0xffffffffffffffffffffffffffffffffffffffffffffffffffffffffffffffff\n        /* \"#utility.yul\":4990:4995   */\n      dup3\n        /* \"#utility.yul\":4987:5064   */\n      eq\n        /* \"#utility.yul\":4984:5087   */\n      iszero\n      tag_368\n      jumpi\n        /* \"#utility.yul\":5067:5085   */\n      tag_368\n      tag_333\n      jump\t// in\n    tag_368:\n      pop\n        /* \"#utility.yul\":5114:5115   */\n      0x01\n        /* \"#utility.yul\":5103:5116   */\n      add\n      swap1\n        /* \"#utility.yul\":4927:5122   */\n      jump\t// out\n        /* \"#utility.yul\":5127:5323   */\n    tag_148:\n        /* \"#utility.yul\":5166:5169   */\n      0x00\n        /* \"#utility.yul\":5194:5199   */\n      dup2\n        /* \"#utility.yul\":5184:5223   */\n      tag_371\n      jumpi\n        /* \"#utility.yul\":5203:5221   */\n      tag_371\n      tag_333\n      jump\t// in\n    tag_371:\n      pop\n        /* \"#utility.yul\":5250:5316   */\n      0xffffffffffffffffffffffffffffffffffffffffffffffffffffffffffffffff\n        /* \"#utility.yul\":5239:5317   */\n      add\n      swap1\n        /* \"#utility.yul\":5127:5323   */\n      jump\t// out\n        /* \"#utility.yul\":6088:6272   */\n    tag_169:\n        /* \"#utility.yul\":6140:6217   */\n      0x4e487b7100000000000000000000000000000000000000000000000000000000\n        /* \"#utility.yul\":6137:6138   */\n      0x00\n        /* \"#utility.yul\":6130:6218   */\n      mstore\n        /* \"#utility.yul\":6237:6241   */\n      0x41\n        /* \"#utility.yul\":6234:6235   */\n      0x04\n        /* \"#utility.yul\":6227:6242   */\n      mstore\n        /* \"#utility.yul\":6261:6265   */\n      0x24\n        /* \"#utility.yul\":6258:6259   */\n      0x00\n        /* \"#utility.yul\":6251:6266   */\n      revert\n        /* \"#utility.yul\":6684:6868   */\n    tag_239:\n        /* \"#utility.yul\":6754:6760   */\n      0x00\n        /* \"#utility.yul\":6807:6809   */\n      0x20\n        /* \"#utility.yul\":6795:6804   */\n      dup3\n        /* \"#utility.yul\":6786:6793   */\n      dup5\n        /* \"#utility.yul\":6782:6805   */\n      sub\n        /* \"#utility.yul\":6778:6810   */\n      slt\n        /* \"#utility.yul\":6775:6827   */\n      iszero\n      tag_377\n      jumpi\n        /* \"#utility.yul\":6823:6824   */\n      0x00\n        /* \"#utility.yul\":6820:6821   */\n      dup1\n        /* \"#utility.yul\":6813:6825   */\n      revert\n        /* \"#utility.yul\":6775:6827   */\n    tag_377:\n      pop\n        /* \"#utility.yul\":6846:6862   */\n      mload\n      swap2\n        /* \"#utility.yul\":6684:6868   */\n      swap1\n      pop\n      jump\t// out\n        /* \"#utility.yul\":7233:7358   */\n    tag_247:\n        /* \"#utility.yul\":7273:7277   */\n      0x00\n        /* \"#utility.yul\":7301:7302   */\n      dup3\n        /* \"#utility.yul\":7298:7299   */\n      dup3\n        /* \"#utility.yul\":7295:7303   */\n      lt\n        /* \"#utility.yul\":7292:7326   */\n      iszero\n      tag_381\n      jumpi\n        /* \"#utility.yul\":7306:7324   */\n      tag_381\n      tag_333\n      jump\t// in\n    tag_381:\n      pop\n        /* \"#utility.yul\":7343:7352   */\n      sub\n      swap1\n        /* \"#utility.yul\":7233:7358   */\n      jump\t// out\n        /* \"#utility.yul\":7363:7591   */\n    tag_249:\n        /* \"#utility.yul\":7403:7410   */\n      0x00\n        /* \"#utility.yul\":7529:7530   */\n      dup2\n        /* \"#utility.yul\":7461:7527   */\n      0xffffffffffffffffffffffffffffffffffffffffffffffffffffffffffffffff\n        /* \"#utility.yul\":7457:7531   */\n      div\n        /* \"#utility.yul\":7454:7455   */\n      dup4\n        /* \"#utility.yul\":7451:7532   */\n      gt\n        /* \"#utility.yul\":7446:7447   */\n      dup3\n        /* \"#utility.yul\":7439:7448   */\n      iszero\n        /* \"#utility.yul\":7432:7449   */\n      iszero\n        /* \"#utility.yul\":7428:7533   */\n      and\n        /* \"#utility.yul\":7425:7556   */\n      iszero\n      tag_384\n      jumpi\n        /* \"#utility.yul\":7536:7554   */\n      tag_384\n      tag_333\n      jump\t// in\n    tag_384:\n      pop\n        /* \"#utility.yul\":7576:7585   */\n      mul\n      swap1\n        /* \"#utility.yul\":7363:7591   */\n      jump\t// out\n        /* \"#utility.yul\":7596:7870   */\n    tag_252:\n        /* \"#utility.yul\":7636:7637   */\n      0x00\n        /* \"#utility.yul\":7662:7663   */\n      dup3\n        /* \"#utility.yul\":7652:7841   */\n      tag_386\n      jumpi\n        /* \"#utility.yul\":7697:7774   */\n      0x4e487b7100000000000000000000000000000000000000000000000000000000\n        /* \"#utility.yul\":7694:7695   */\n      0x00\n        /* \"#utility.yul\":7687:7775   */\n      mstore\n        /* \"#utility.yul\":7798:7802   */\n      0x12\n        /* \"#utility.yul\":7795:7796   */\n      0x04\n        /* \"#utility.yul\":7788:7803   */\n      mstore\n        /* \"#utility.yul\":7826:7830   */\n      0x24\n        /* \"#utility.yul\":7823:7824   */\n      0x00\n        /* \"#utility.yul\":7816:7831   */\n      revert\n        /* \"#utility.yul\":7652:7841   */\n    tag_386:\n      pop\n        /* \"#utility.yul\":7855:7864   */\n      div\n      swap1\n        /* \"#utility.yul\":7596:7870   */\n      jump\t// out\n        /* \"#utility.yul\":8883:9134   */\n    tag_277:\n        /* \"#utility.yul\":8953:8959   */\n      0x00\n        /* \"#utility.yul\":9006:9008   */\n      0x20\n        /* \"#utility.yul\":8994:9003   */\n      dup3\n        /* \"#utility.yul\":8985:8992   */\n      dup5\n        /* \"#utility.yul\":8981:9004   */\n      sub\n        /* \"#utility.yul\":8977:9009   */\n      slt\n        /* \"#utility.yul\":8974:9026   */\n      iszero\n      tag_391\n      jumpi\n        /* \"#utility.yul\":9022:9023   */\n      0x00\n        /* \"#utility.yul\":9019:9020   */\n      dup1\n        /* \"#utility.yul\":9012:9024   */\n      revert\n        /* \"#utility.yul\":8974:9026   */\n    tag_391:\n        /* \"#utility.yul\":9054:9063   */\n      dup2\n        /* \"#utility.yul\":9048:9064   */\n      mload\n        /* \"#utility.yul\":9073:9104   */\n      tag_228\n        /* \"#utility.yul\":9098:9103   */\n      dup2\n        /* \"#utility.yul\":9073:9104   */\n      tag_331\n      jump\t// in\n        /* \"#utility.yul\":9488:9733   */\n    tag_299:\n        /* \"#utility.yul\":9555:9561   */\n      0x00\n        /* \"#utility.yul\":9608:9610   */\n      0x20\n        /* \"#utility.yul\":9596:9605   */\n      dup3\n        /* \"#utility.yul\":9587:9594   */\n      dup5\n        /* \"#utility.yul\":9583:9606   */\n      sub\n        /* \"#utility.yul\":9579:9611   */\n      slt\n        /* \"#utility.yul\":9576:9628   */\n      iszero\n      tag_395\n      jumpi\n        /* \"#utility.yul\":9624:9625   */\n      0x00\n        /* \"#utility.yul\":9621:9622   */\n      dup1\n        /* \"#utility.yul\":9614:9626   */\n      revert\n        /* \"#utility.yul\":9576:9628   */\n    tag_395:\n        /* \"#utility.yul\":9656:9665   */\n      dup2\n        /* \"#utility.yul\":9650:9666   */\n      mload\n        /* \"#utility.yul\":9675:9703   */\n      tag_228\n        /* \"#utility.yul\":9697:9702   */\n      dup2\n        /* \"#utility.yul\":9675:9703   */\n      tag_332\n      jump\t// in\n        /* \"#utility.yul\":10914:11172   */\n    tag_334:\n        /* \"#utility.yul\":10986:10987   */\n      0x00\n        /* \"#utility.yul\":10996:11109   */\n    tag_401:\n        /* \"#utility.yul\":11010:11016   */\n      dup4\n        /* \"#utility.yul\":11007:11008   */\n      dup2\n        /* \"#utility.yul\":11004:11017   */\n      lt\n        /* \"#utility.yul\":10996:11109   */\n      iszero\n      tag_403\n      jumpi\n        /* \"#utility.yul\":11086:11097   */\n      dup2\n      dup2\n      add\n        /* \"#utility.yul\":11080:11098   */\n      mload\n        /* \"#utility.yul\":11067:11078   */\n      dup4\n      dup3\n      add\n        /* \"#utility.yul\":11060:11099   */\n      mstore\n        /* \"#utility.yul\":11032:11034   */\n      0x20\n        /* \"#utility.yul\":11025:11035   */\n      add\n        /* \"#utility.yul\":10996:11109   */\n      jump(tag_401)\n    tag_403:\n        /* \"#utility.yul\":11127:11133   */\n      dup4\n        /* \"#utility.yul\":11124:11125   */\n      dup2\n        /* \"#utility.yul\":11121:11134   */\n      gt\n        /* \"#utility.yul\":11118:11166   */\n      iszero\n      tag_404\n      jumpi\n        /* \"#utility.yul\":11162:11163   */\n      0x00\n        /* \"#utility.yul\":11153:11159   */\n      dup5\n        /* \"#utility.yul\":11148:11151   */\n      dup5\n        /* \"#utility.yul\":11144:11160   */\n      add\n        /* \"#utility.yul\":11137:11164   */\n      mstore\n        /* \"#utility.yul\":11118:11166   */\n    tag_404:\n      pop\n        /* \"#utility.yul\":10914:11172   */\n      pop\n      pop\n      pop\n      jump\t// out\n        /* \"#utility.yul\":11177:11451   */\n    tag_317:\n        /* \"#utility.yul\":11306:11309   */\n      0x00\n        /* \"#utility.yul\":11344:11350   */\n      dup3\n        /* \"#utility.yul\":11338:11351   */\n      mload\n        /* \"#utility.yul\":11360:11413   */\n      tag_406\n        /* \"#utility.yul\":11406:11412   */\n      dup2\n        /* \"#utility.yul\":11401:11404   */\n      dup5\n        /* \"#utility.yul\":11394:11398   */\n      0x20\n        /* \"#utility.yul\":11386:11392   */\n      dup8\n        /* \"#utility.yul\":11382:11399   */\n      add\n        /* \"#utility.yul\":11360:11413   */\n      tag_334\n      jump\t// in\n    tag_406:\n        /* \"#utility.yul\":11429:11445   */\n      swap2\n      swap1\n      swap2\n      add\n      swap3\n        /* \"#utility.yul\":11177:11451   */\n      swap2\n      pop\n      pop\n      jump\t// out\n        /* \"#utility.yul\":11456:11898   */\n    tag_330:\n        /* \"#utility.yul\":11605:11607   */\n      0x20\n        /* \"#utility.yul\":11594:11603   */\n      dup2\n        /* \"#utility.yul\":11587:11608   */\n      mstore\n        /* \"#utility.yul\":11568:11572   */\n      0x00\n        /* \"#utility.yul\":11637:11643   */\n      dup3\n        /* \"#utility.yul\":11631:11644   */\n      mload\n        /* \"#utility.yul\":11680:11686   */\n      dup1\n        /* \"#utility.yul\":11675:11677   */\n      0x20\n        /* \"#utility.yul\":11664:11673   */\n      dup5\n        /* \"#utility.yul\":11660:11678   */\n      add\n        /* \"#utility.yul\":11653:11687   */\n      mstore\n        /* \"#utility.yul\":11696:11762   */\n      tag_408\n        /* \"#utility.yul\":11755:11761   */\n      dup2\n        /* \"#utility.yul\":11750:11752   */\n      0x40\n        /* \"#utility.yul\":11739:11748   */\n      dup6\n        /* \"#utility.yul\":11735:11753   */\n      add\n        /* \"#utility.yul\":11730:11732   */\n      0x20\n        /* \"#utility.yul\":11722:11728   */\n      dup8\n        /* \"#utility.yul\":11718:11733   */\n      add\n        /* \"#utility.yul\":11696:11762   */\n      tag_334\n      jump\t// in\n    tag_408:\n        /* \"#utility.yul\":11814:11816   */\n      0x1f\n        /* \"#utility.yul\":11802:11817   */\n      add\n        /* \"#utility.yul\":11819:11885   */\n      0xffffffffffffffffffffffffffffffffffffffffffffffffffffffffffffffe0\n        /* \"#utility.yul\":11798:11886   */\n      and\n        /* \"#utility.yul\":11783:11887   */\n      swap2\n      swap1\n      swap2\n      add\n        /* \"#utility.yul\":11889:11891   */\n      0x40\n        /* \"#utility.yul\":11779:11892   */\n      add\n      swap3\n        /* \"#utility.yul\":11456:11898   */\n      swap2\n      pop\n      pop\n      jump\t// out\n\n    auxdata: 0xa26469706673582212205aa298f2b8ba8a740ed41003ccefd694b3493a802bbc6af21b46a4a8ceafcdbb64736f6c634300080c0033\n}\n",
				"bytecode": {
					"linkReferences": {},
					"object": "6080604052620186a060055560036006556007805460ff1916905560006008553480156200002c57600080fd5b5060405162001cfe38038062001cfe8339810160408190526200004f9162000138565b60016000819055805460ff191690556200006933620000c5565b600380546001600160a01b039687166001600160a01b0319918216811790925560048054821690921790915560028054959096169416939093179093556005556008556007805491151560ff19909216919091179055620001a4565b600180546001600160a01b03838116610100818102610100600160a81b031985161790945560405193909204169182907f8be0079c531659141344cd1fd0a4f28419497f9722a3daafe3b4186f6b6457e090600090a35050565b6001600160a01b03811681146200013557600080fd5b50565b600080600080600060a086880312156200015157600080fd5b85516200015e816200011f565b602087015190955062000171816200011f565b60408701516060880151919550935080151581146200018f57600080fd5b80925050608086015190509295509295909350565b611b4a80620001b46000396000f3fe608060405234801561001057600080fd5b50600436106101825760003560e01c80638da5cb5b116100d8578063ae04d45d1161008c578063f2fde38b11610066578063f2fde38b14610396578063f854a27f146103a9578063f995441b146103bc57600080fd5b8063ae04d45d14610350578063b5a5e50914610363578063d1af0c7d1461037657600080fd5b80639168ae72116100bd5780639168ae72146102bd5780639406704514610307578063a694fc3a1461033d57600080fd5b80638da5cb5b146102915780638e7271fa146102b457600080fd5b806354fd4d501161013a5780636588103b116101145780636588103b146102315780636aa4439f14610276578063715018a61461028957600080fd5b806354fd4d50146101fd5780635c975abb1461020657806363c28db11461021157600080fd5b80632e1a7d4d1161016b5780632e1a7d4d146101c35780633166b848146101d8578063372500ab146101f557600080fd5b80630d66808714610187578063114cd3c8146101a3575b600080fd5b61019060085481565b6040519081526020015b60405180910390f35b6101906101b1366004611790565b600b6020526000908152604090205481565b6101d66101d1366004611790565b6103c4565b005b6007546101e59060ff1681565b604051901515815260200161019a565b6101d661082e565b61019060065481565b60015460ff166101e5565b61022461021f3660046117cb565b610908565b60405161019a91906117e8565b6003546102519073ffffffffffffffffffffffffffffffffffffffff1681565b60405173ffffffffffffffffffffffffffffffffffffffff909116815260200161019a565b6101d6610284366004611865565b610bb9565b6101d6610bf2565b600154610100900473ffffffffffffffffffffffffffffffffffffffff16610251565b61019060055481565b6102ec6102cb3660046117cb565b60096020526000908152604090208054600282015460039092015490919083565b6040805193845260208401929092529082015260600161019a565b610251610315366004611790565b600a6020526000908152604090205473ffffffffffffffffffffffffffffffffffffffff1681565b6101d661034b366004611790565b610c06565b6101d661035e366004611790565b610c2a565b6101d6610371366004611790565b610c37565b6002546102519073ffffffffffffffffffffffffffffffffffffffff1681565b6101d66103a43660046117cb565b610c44565b6101906103b73660046117cb565b610cf8565b6101d6610d3d565b6103cc610e07565b33600090815260096020526040902054610447576040517f08c379a000000000000000000000000000000000000000000000000000000000815260206004820152601960248201527f596f752068617665206e6f20746f6b656e73207374616b65640000000000000060448201526064015b60405180910390fd5b6000818152600a602052604090205473ffffffffffffffffffffffffffffffffffffffff1633146104d4576040517f08c379a000000000000000000000000000000000000000000000000000000000815260206004820152601960248201527f596f7520646f6e2774206f776e207468697320746f6b656e2100000000000000604482015260640161043e565b60075460ff16801561050057506008546000828152600b602052604090205442916104fe916118b1565b105b8061050e575060075460ff16155b61059a576040517f08c379a000000000000000000000000000000000000000000000000000000000815260206004820152602360248201527f546f6b656e206c6f636b2074696d6520686173206e6f7420796574206578706960448201527f7265640000000000000000000000000000000000000000000000000000000000606482015260840161043e565b60006105a533610e7b565b336000908152600960205260408120600301805492935083929091906105cc9084906118b1565b9091555060009050805b3360009081526009602052604090206001015481101561069e57336000908152600960205260409020600101805485919083908110610617576106176118c9565b90600052602060002090600302016001015414801561067f5750336000908152600960205260408120600101805483908110610655576106556118c9565b600091825260209091206003909102015473ffffffffffffffffffffffffffffffffffffffff1614155b1561068c5780915061069e565b80610696816118f8565b9150506105d6565b503360009081526009602052604081206001018054839081106106c3576106c36118c9565b6000918252602080832060039290920290910180547fffffffffffffffffffffffff00000000000000000000000000000000000000001673ffffffffffffffffffffffffffffffffffffffff949094169390931790925533815260099091526040812080549161073283611931565b90915550506000838152600a6020908152604080832080547fffffffffffffffffffffffff0000000000000000000000000000000000000000169055600b9091528082209190915560035490517f23b872dd0000000000000000000000000000000000000000000000000000000081523060048201523360248201526044810185905273ffffffffffffffffffffffffffffffffffffffff909116906323b872dd90606401600060405180830381600087803b1580156107f157600080fd5b505af1158015610805573d6000803e3d6000fd5b5050336000908152600960205260409020426002909101555061082b9250610ee2915050565b50565b33600081815260096020526040812060030154909161084c90610e7b565b61085691906118b1565b9050600081116108c2576040517f08c379a000000000000000000000000000000000000000000000000000000000815260206004820152601c60248201527f596f752068617665206e6f207265776172647320746f20636c61696d00000000604482015260640161043e565b336000818152600960205260408120426002808301919091556003909101919091555461082b9173ffffffffffffffffffffffffffffffffffffffff9091169083610ee9565b73ffffffffffffffffffffffffffffffffffffffff811660009081526009602052604090205460609015610b4f5773ffffffffffffffffffffffffffffffffffffffff821660009081526009602052604081205467ffffffffffffffff81111561097457610974611966565b6040519080825280602002602001820160405280156109df57816020015b6109cc6040518060600160405280600073ffffffffffffffffffffffffffffffffffffffff16815260200160008152602001600081525090565b8152602001906001900390816109925790505b5090506000805b73ffffffffffffffffffffffffffffffffffffffff8516600090815260096020526040902060010154811015610b465773ffffffffffffffffffffffffffffffffffffffff85166000908152600960205260408120600101805483908110610a5057610a506118c9565b600091825260209091206003909102015473ffffffffffffffffffffffffffffffffffffffff1614610b345773ffffffffffffffffffffffffffffffffffffffff85166000908152600960205260409020600101805482908110610ab657610ab66118c9565b6000918252602091829020604080516060810182526003909302909101805473ffffffffffffffffffffffffffffffffffffffff168352600181015493830193909352600290920154918101919091528351849084908110610b1a57610b1a6118c9565b60200260200101819052508180610b30906118f8565b9250505b80610b3e816118f8565b9150506109e6565b50909392505050565b6040805160008082526020820190925290610bb2565b610b9f6040518060600160405280600073ffffffffffffffffffffffffffffffffffffffff16815260200160008152602001600081525090565b815260200190600190039081610b655790505b5092915050565b610bc1610f7b565b600780547fffffffffffffffffffffffffffffffffffffffffffffffffffffffffffffff0016911515919091179055565b610bfa610f7b565b610c046000611002565b565b610c0e610e07565b610c16611080565b610c2033826110ed565b61082b6001600055565b610c32610f7b565b600855565b610c3f610f7b565b600555565b610c4c610f7b565b73ffffffffffffffffffffffffffffffffffffffff8116610cef576040517f08c379a000000000000000000000000000000000000000000000000000000000815260206004820152602660248201527f4f776e61626c653a206e6577206f776e657220697320746865207a65726f206160448201527f6464726573730000000000000000000000000000000000000000000000000000606482015260840161043e565b61082b81611002565b73ffffffffffffffffffffffffffffffffffffffff81166000908152600960205260408120600301548190610d2c84610e7b565b610d3691906118b1565b9392505050565b610d45610f7b565b610d4d61142e565b6002546040517f70a0823100000000000000000000000000000000000000000000000000000000815230600482015260009173ffffffffffffffffffffffffffffffffffffffff16906370a0823190602401602060405180830381865afa158015610dbc573d6000803e3d6000fd5b505050506040513d601f19601f82011682018060405250810190610de09190611995565b60025490915061082b9073ffffffffffffffffffffffffffffffffffffffff163383610ee9565b60026000541415610e74576040517f08c379a000000000000000000000000000000000000000000000000000000000815260206004820152601f60248201527f5265656e7472616e637947756172643a207265656e7472616e742063616c6c00604482015260640161043e565b6002600055565b60055473ffffffffffffffffffffffffffffffffffffffff8216600090815260096020526040812080546002909101549192610e1092909190610ebe90426119ae565b610ec891906119c5565b610ed291906119c5565b610edc9190611a02565b92915050565b6001600055565b6040805173ffffffffffffffffffffffffffffffffffffffff8416602482015260448082018490528251808303909101815260649091019091526020810180517bffffffffffffffffffffffffffffffffffffffffffffffffffffffff167fa9059cbb00000000000000000000000000000000000000000000000000000000179052610f7690849061149a565b505050565b60015473ffffffffffffffffffffffffffffffffffffffff610100909104163314610c04576040517f08c379a000000000000000000000000000000000000000000000000000000000815260206004820181905260248201527f4f776e61626c653a2063616c6c6572206973206e6f7420746865206f776e6572604482015260640161043e565b6001805473ffffffffffffffffffffffffffffffffffffffff8381166101008181027fffffffffffffffffffffff0000000000000000000000000000000000000000ff85161790945560405193909204169182907f8be0079c531659141344cd1fd0a4f28419497f9722a3daafe3b4186f6b6457e090600090a35050565b60015460ff1615610c04576040517f08c379a000000000000000000000000000000000000000000000000000000000815260206004820152601060248201527f5061757361626c653a2070617573656400000000000000000000000000000000604482015260640161043e565b6003546040517f6352211e0000000000000000000000000000000000000000000000000000000081526004810183905273ffffffffffffffffffffffffffffffffffffffff848116921690636352211e90602401602060405180830381865afa15801561115e573d6000803e3d6000fd5b505050506040513d601f19601f820116820180604052508101906111829190611a3d565b73ffffffffffffffffffffffffffffffffffffffff16146111ff576040517f08c379a000000000000000000000000000000000000000000000000000000000815260206004820152601960248201527f596f7520646f6e2774206f776e207468697320746f6b656e2100000000000000604482015260640161043e565b73ffffffffffffffffffffffffffffffffffffffff82166000908152600960205260409020541561127957600061123583610e7b565b73ffffffffffffffffffffffffffffffffffffffff84166000908152600960205260408120600301805492935083929091906112729084906118b1565b9091555050505b6003546040517f23b872dd00000000000000000000000000000000000000000000000000000000815273ffffffffffffffffffffffffffffffffffffffff848116600483015230602483015260448201849052909116906323b872dd90606401600060405180830381600087803b1580156112f357600080fd5b505af1158015611307573d6000803e3d6000fd5b50506040805160608101825273ffffffffffffffffffffffffffffffffffffffff868116808352602080840188815242858701908152600084815260098452968720600180820180548083018255908a52948920885160039096020180547fffffffffffffffffffffffff00000000000000000000000000000000000000001695909716949094178655915192850192909255905160029093019290925583528054919450909250906113b9836118f8565b9091555050506000908152600a60209081526040808320805473ffffffffffffffffffffffffffffffffffffffff9095167fffffffffffffffffffffffff000000000000000000000000000000000000000090951685179055600b825280832042908190559383526009909152902060020155565b60015460ff16610c04576040517f08c379a000000000000000000000000000000000000000000000000000000000815260206004820152601460248201527f5061757361626c653a206e6f7420706175736564000000000000000000000000604482015260640161043e565b60006114fc826040518060400160405280602081526020017f5361666545524332303a206c6f772d6c6576656c2063616c6c206661696c65648152508573ffffffffffffffffffffffffffffffffffffffff166115a69092919063ffffffff16565b805190915015610f76578080602001905181019061151a9190611a5a565b610f76576040517f08c379a000000000000000000000000000000000000000000000000000000000815260206004820152602a60248201527f5361666545524332303a204552433230206f7065726174696f6e20646964206e60448201527f6f74207375636365656400000000000000000000000000000000000000000000606482015260840161043e565b60606115b584846000856115bd565b949350505050565b60608247101561164f576040517f08c379a000000000000000000000000000000000000000000000000000000000815260206004820152602660248201527f416464726573733a20696e73756666696369656e742062616c616e636520666f60448201527f722063616c6c0000000000000000000000000000000000000000000000000000606482015260840161043e565b843b6116b7576040517f08c379a000000000000000000000000000000000000000000000000000000000815260206004820152601d60248201527f416464726573733a2063616c6c20746f206e6f6e2d636f6e7472616374000000604482015260640161043e565b6000808673ffffffffffffffffffffffffffffffffffffffff1685876040516116e09190611aa7565b60006040518083038185875af1925050503d806000811461171d576040519150601f19603f3d011682016040523d82523d6000602084013e611722565b606091505b509150915061173282828661173d565b979650505050505050565b6060831561174c575081610d36565b82511561175c5782518084602001fd5b816040517f08c379a000000000000000000000000000000000000000000000000000000000815260040161043e9190611ac3565b6000602082840312156117a257600080fd5b5035919050565b73ffffffffffffffffffffffffffffffffffffffff8116811461082b57600080fd5b6000602082840312156117dd57600080fd5b8135610d36816117a9565b602080825282518282018190526000919060409081850190868401855b8281101561184a578151805173ffffffffffffffffffffffffffffffffffffffff16855286810151878601528501518585015260609093019290850190600101611805565b5091979650505050505050565b801515811461082b57600080fd5b60006020828403121561187757600080fd5b8135610d3681611857565b7f4e487b7100000000000000000000000000000000000000000000000000000000600052601160045260246000fd5b600082198211156118c4576118c4611882565b500190565b7f4e487b7100000000000000000000000000000000000000000000000000000000600052603260045260246000fd5b60007fffffffffffffffffffffffffffffffffffffffffffffffffffffffffffffffff82141561192a5761192a611882565b5060010190565b60008161194057611940611882565b507fffffffffffffffffffffffffffffffffffffffffffffffffffffffffffffffff0190565b7f4e487b7100000000000000000000000000000000000000000000000000000000600052604160045260246000fd5b6000602082840312156119a757600080fd5b5051919050565b6000828210156119c0576119c0611882565b500390565b6000817fffffffffffffffffffffffffffffffffffffffffffffffffffffffffffffffff04831182151516156119fd576119fd611882565b500290565b600082611a38577f4e487b7100000000000000000000000000000000000000000000000000000000600052601260045260246000fd5b500490565b600060208284031215611a4f57600080fd5b8151610d36816117a9565b600060208284031215611a6c57600080fd5b8151610d3681611857565b60005b83811015611a92578181015183820152602001611a7a565b83811115611aa1576000848401525b50505050565b60008251611ab9818460208701611a77565b9190910192915050565b6020815260008251806020840152611ae2816040850160208701611a77565b601f017fffffffffffffffffffffffffffffffffffffffffffffffffffffffffffffffe016919091016040019291505056fea26469706673582212205aa298f2b8ba8a740ed41003ccefd694b3493a802bbc6af21b46a4a8ceafcdbb64736f6c634300080c0033",
					"opcodes": "PUSH1 0x80 PUSH1 0x40 MSTORE PUSH3 0x186A0 PUSH1 0x5 SSTORE PUSH1 0x3 PUSH1 0x6 SSTORE PUSH1 0x7 DUP1 SLOAD PUSH1 0xFF NOT AND SWAP1 SSTORE PUSH1 0x0 PUSH1 0x8 SSTORE CALLVALUE DUP1 ISZERO PUSH3 0x2C JUMPI PUSH1 0x0 DUP1 REVERT JUMPDEST POP PUSH1 0x40 MLOAD PUSH3 0x1CFE CODESIZE SUB DUP1 PUSH3 0x1CFE DUP4 CODECOPY DUP2 ADD PUSH1 0x40 DUP2 SWAP1 MSTORE PUSH3 0x4F SWAP2 PUSH3 0x138 JUMP JUMPDEST PUSH1 0x1 PUSH1 0x0 DUP2 SWAP1 SSTORE DUP1 SLOAD PUSH1 0xFF NOT AND SWAP1 SSTORE PUSH3 0x69 CALLER PUSH3 0xC5 JUMP JUMPDEST PUSH1 0x3 DUP1 SLOAD PUSH1 0x1 PUSH1 0x1 PUSH1 0xA0 SHL SUB SWAP7 DUP8 AND PUSH1 0x1 PUSH1 0x1 PUSH1 0xA0 SHL SUB NOT SWAP2 DUP3 AND DUP2 OR SWAP1 SWAP3 SSTORE PUSH1 0x4 DUP1 SLOAD DUP3 AND SWAP1 SWAP3 OR SWAP1 SWAP2 SSTORE PUSH1 0x2 DUP1 SLOAD SWAP6 SWAP1 SWAP7 AND SWAP5 AND SWAP4 SWAP1 SWAP4 OR SWAP1 SWAP4 SSTORE PUSH1 0x5 SSTORE PUSH1 0x8 SSTORE PUSH1 0x7 DUP1 SLOAD SWAP2 ISZERO ISZERO PUSH1 0xFF NOT SWAP1 SWAP3 AND SWAP2 SWAP1 SWAP2 OR SWAP1 SSTORE PUSH3 0x1A4 JUMP JUMPDEST PUSH1 0x1 DUP1 SLOAD PUSH1 0x1 PUSH1 0x1 PUSH1 0xA0 SHL SUB DUP4 DUP2 AND PUSH2 0x100 DUP2 DUP2 MUL PUSH2 0x100 PUSH1 0x1 PUSH1 0xA8 SHL SUB NOT DUP6 AND OR SWAP1 SWAP5 SSTORE PUSH1 0x40 MLOAD SWAP4 SWAP1 SWAP3 DIV AND SWAP2 DUP3 SWAP1 PUSH32 0x8BE0079C531659141344CD1FD0A4F28419497F9722A3DAAFE3B4186F6B6457E0 SWAP1 PUSH1 0x0 SWAP1 LOG3 POP POP JUMP JUMPDEST PUSH1 0x1 PUSH1 0x1 PUSH1 0xA0 SHL SUB DUP2 AND DUP2 EQ PUSH3 0x135 JUMPI PUSH1 0x0 DUP1 REVERT JUMPDEST POP JUMP JUMPDEST PUSH1 0x0 DUP1 PUSH1 0x0 DUP1 PUSH1 0x0 PUSH1 0xA0 DUP7 DUP9 SUB SLT ISZERO PUSH3 0x151 JUMPI PUSH1 0x0 DUP1 REVERT JUMPDEST DUP6 MLOAD PUSH3 0x15E DUP2 PUSH3 0x11F JUMP JUMPDEST PUSH1 0x20 DUP8 ADD MLOAD SWAP1 SWAP6 POP PUSH3 0x171 DUP2 PUSH3 0x11F JUMP JUMPDEST PUSH1 0x40 DUP8 ADD MLOAD PUSH1 0x60 DUP9 ADD MLOAD SWAP2 SWAP6 POP SWAP4 POP DUP1 ISZERO ISZERO DUP2 EQ PUSH3 0x18F JUMPI PUSH1 0x0 DUP1 REVERT JUMPDEST DUP1 SWAP3 POP POP PUSH1 0x80 DUP7 ADD MLOAD SWAP1 POP SWAP3 SWAP6 POP SWAP3 SWAP6 SWAP1 SWAP4 POP JUMP JUMPDEST PUSH2 0x1B4A DUP1 PUSH3 0x1B4 PUSH1 0x0 CODECOPY PUSH1 0x0 RETURN INVALID PUSH1 0x80 PUSH1 0x40 MSTORE CALLVALUE DUP1 ISZERO PUSH2 0x10 JUMPI PUSH1 0x0 DUP1 REVERT JUMPDEST POP PUSH1 0x4 CALLDATASIZE LT PUSH2 0x182 JUMPI PUSH1 0x0 CALLDATALOAD PUSH1 0xE0 SHR DUP1 PUSH4 0x8DA5CB5B GT PUSH2 0xD8 JUMPI DUP1 PUSH4 0xAE04D45D GT PUSH2 0x8C JUMPI DUP1 PUSH4 0xF2FDE38B GT PUSH2 0x66 JUMPI DUP1 PUSH4 0xF2FDE38B EQ PUSH2 0x396 JUMPI DUP1 PUSH4 0xF854A27F EQ PUSH2 0x3A9 JUMPI DUP1 PUSH4 0xF995441B EQ PUSH2 0x3BC JUMPI PUSH1 0x0 DUP1 REVERT JUMPDEST DUP1 PUSH4 0xAE04D45D EQ PUSH2 0x350 JUMPI DUP1 PUSH4 0xB5A5E509 EQ PUSH2 0x363 JUMPI DUP1 PUSH4 0xD1AF0C7D EQ PUSH2 0x376 JUMPI PUSH1 0x0 DUP1 REVERT JUMPDEST DUP1 PUSH4 0x9168AE72 GT PUSH2 0xBD JUMPI DUP1 PUSH4 0x9168AE72 EQ PUSH2 0x2BD JUMPI DUP1 PUSH4 0x94067045 EQ PUSH2 0x307 JUMPI DUP1 PUSH4 0xA694FC3A EQ PUSH2 0x33D JUMPI PUSH1 0x0 DUP1 REVERT JUMPDEST DUP1 PUSH4 0x8DA5CB5B EQ PUSH2 0x291 JUMPI DUP1 PUSH4 0x8E7271FA EQ PUSH2 0x2B4 JUMPI PUSH1 0x0 DUP1 REVERT JUMPDEST DUP1 PUSH4 0x54FD4D50 GT PUSH2 0x13A JUMPI DUP1 PUSH4 0x6588103B GT PUSH2 0x114 JUMPI DUP1 PUSH4 0x6588103B EQ PUSH2 0x231 JUMPI DUP1 PUSH4 0x6AA4439F EQ PUSH2 0x276 JUMPI DUP1 PUSH4 0x715018A6 EQ PUSH2 0x289 JUMPI PUSH1 0x0 DUP1 REVERT JUMPDEST DUP1 PUSH4 0x54FD4D50 EQ PUSH2 0x1FD JUMPI DUP1 PUSH4 0x5C975ABB EQ PUSH2 0x206 JUMPI DUP1 PUSH4 0x63C28DB1 EQ PUSH2 0x211 JUMPI PUSH1 0x0 DUP1 REVERT JUMPDEST DUP1 PUSH4 0x2E1A7D4D GT PUSH2 0x16B JUMPI DUP1 PUSH4 0x2E1A7D4D EQ PUSH2 0x1C3 JUMPI DUP1 PUSH4 0x3166B848 EQ PUSH2 0x1D8 JUMPI DUP1 PUSH4 0x372500AB EQ PUSH2 0x1F5 JUMPI PUSH1 0x0 DUP1 REVERT JUMPDEST DUP1 PUSH4 0xD668087 EQ PUSH2 0x187 JUMPI DUP1 PUSH4 0x114CD3C8 EQ PUSH2 0x1A3 JUMPI JUMPDEST PUSH1 0x0 DUP1 REVERT JUMPDEST PUSH2 0x190 PUSH1 0x8 SLOAD DUP2 JUMP JUMPDEST PUSH1 0x40 MLOAD SWAP1 DUP2 MSTORE PUSH1 0x20 ADD JUMPDEST PUSH1 0x40 MLOAD DUP1 SWAP2 SUB SWAP1 RETURN JUMPDEST PUSH2 0x190 PUSH2 0x1B1 CALLDATASIZE PUSH1 0x4 PUSH2 0x1790 JUMP JUMPDEST PUSH1 0xB PUSH1 0x20 MSTORE PUSH1 0x0 SWAP1 DUP2 MSTORE PUSH1 0x40 SWAP1 KECCAK256 SLOAD DUP2 JUMP JUMPDEST PUSH2 0x1D6 PUSH2 0x1D1 CALLDATASIZE PUSH1 0x4 PUSH2 0x1790 JUMP JUMPDEST PUSH2 0x3C4 JUMP JUMPDEST STOP JUMPDEST PUSH1 0x7 SLOAD PUSH2 0x1E5 SWAP1 PUSH1 0xFF AND DUP2 JUMP JUMPDEST PUSH1 0x40 MLOAD SWAP1 ISZERO ISZERO DUP2 MSTORE PUSH1 0x20 ADD PUSH2 0x19A JUMP JUMPDEST PUSH2 0x1D6 PUSH2 0x82E JUMP JUMPDEST PUSH2 0x190 PUSH1 0x6 SLOAD DUP2 JUMP JUMPDEST PUSH1 0x1 SLOAD PUSH1 0xFF AND PUSH2 0x1E5 JUMP JUMPDEST PUSH2 0x224 PUSH2 0x21F CALLDATASIZE PUSH1 0x4 PUSH2 0x17CB JUMP JUMPDEST PUSH2 0x908 JUMP JUMPDEST PUSH1 0x40 MLOAD PUSH2 0x19A SWAP2 SWAP1 PUSH2 0x17E8 JUMP JUMPDEST PUSH1 0x3 SLOAD PUSH2 0x251 SWAP1 PUSH20 0xFFFFFFFFFFFFFFFFFFFFFFFFFFFFFFFFFFFFFFFF AND DUP2 JUMP JUMPDEST PUSH1 0x40 MLOAD PUSH20 0xFFFFFFFFFFFFFFFFFFFFFFFFFFFFFFFFFFFFFFFF SWAP1 SWAP2 AND DUP2 MSTORE PUSH1 0x20 ADD PUSH2 0x19A JUMP JUMPDEST PUSH2 0x1D6 PUSH2 0x284 CALLDATASIZE PUSH1 0x4 PUSH2 0x1865 JUMP JUMPDEST PUSH2 0xBB9 JUMP JUMPDEST PUSH2 0x1D6 PUSH2 0xBF2 JUMP JUMPDEST PUSH1 0x1 SLOAD PUSH2 0x100 SWAP1 DIV PUSH20 0xFFFFFFFFFFFFFFFFFFFFFFFFFFFFFFFFFFFFFFFF AND PUSH2 0x251 JUMP JUMPDEST PUSH2 0x190 PUSH1 0x5 SLOAD DUP2 JUMP JUMPDEST PUSH2 0x2EC PUSH2 0x2CB CALLDATASIZE PUSH1 0x4 PUSH2 0x17CB JUMP JUMPDEST PUSH1 0x9 PUSH1 0x20 MSTORE PUSH1 0x0 SWAP1 DUP2 MSTORE PUSH1 0x40 SWAP1 KECCAK256 DUP1 SLOAD PUSH1 0x2 DUP3 ADD SLOAD PUSH1 0x3 SWAP1 SWAP3 ADD SLOAD SWAP1 SWAP2 SWAP1 DUP4 JUMP JUMPDEST PUSH1 0x40 DUP1 MLOAD SWAP4 DUP5 MSTORE PUSH1 0x20 DUP5 ADD SWAP3 SWAP1 SWAP3 MSTORE SWAP1 DUP3 ADD MSTORE PUSH1 0x60 ADD PUSH2 0x19A JUMP JUMPDEST PUSH2 0x251 PUSH2 0x315 CALLDATASIZE PUSH1 0x4 PUSH2 0x1790 JUMP JUMPDEST PUSH1 0xA PUSH1 0x20 MSTORE PUSH1 0x0 SWAP1 DUP2 MSTORE PUSH1 0x40 SWAP1 KECCAK256 SLOAD PUSH20 0xFFFFFFFFFFFFFFFFFFFFFFFFFFFFFFFFFFFFFFFF AND DUP2 JUMP JUMPDEST PUSH2 0x1D6 PUSH2 0x34B CALLDATASIZE PUSH1 0x4 PUSH2 0x1790 JUMP JUMPDEST PUSH2 0xC06 JUMP JUMPDEST PUSH2 0x1D6 PUSH2 0x35E CALLDATASIZE PUSH1 0x4 PUSH2 0x1790 JUMP JUMPDEST PUSH2 0xC2A JUMP JUMPDEST PUSH2 0x1D6 PUSH2 0x371 CALLDATASIZE PUSH1 0x4 PUSH2 0x1790 JUMP JUMPDEST PUSH2 0xC37 JUMP JUMPDEST PUSH1 0x2 SLOAD PUSH2 0x251 SWAP1 PUSH20 0xFFFFFFFFFFFFFFFFFFFFFFFFFFFFFFFFFFFFFFFF AND DUP2 JUMP JUMPDEST PUSH2 0x1D6 PUSH2 0x3A4 CALLDATASIZE PUSH1 0x4 PUSH2 0x17CB JUMP JUMPDEST PUSH2 0xC44 JUMP JUMPDEST PUSH2 0x190 PUSH2 0x3B7 CALLDATASIZE PUSH1 0x4 PUSH2 0x17CB JUMP JUMPDEST PUSH2 0xCF8 JUMP JUMPDEST PUSH2 0x1D6 PUSH2 0xD3D JUMP JUMPDEST PUSH2 0x3CC PUSH2 0xE07 JUMP JUMPDEST CALLER PUSH1 0x0 SWAP1 DUP2 MSTORE PUSH1 0x9 PUSH1 0x20 MSTORE PUSH1 0x40 SWAP1 KECCAK256 SLOAD PUSH2 0x447 JUMPI PUSH1 0x40 MLOAD PUSH32 0x8C379A000000000000000000000000000000000000000000000000000000000 DUP2 MSTORE PUSH1 0x20 PUSH1 0x4 DUP3 ADD MSTORE PUSH1 0x19 PUSH1 0x24 DUP3 ADD MSTORE PUSH32 0x596F752068617665206E6F20746F6B656E73207374616B656400000000000000 PUSH1 0x44 DUP3 ADD MSTORE PUSH1 0x64 ADD JUMPDEST PUSH1 0x40 MLOAD DUP1 SWAP2 SUB SWAP1 REVERT JUMPDEST PUSH1 0x0 DUP2 DUP2 MSTORE PUSH1 0xA PUSH1 0x20 MSTORE PUSH1 0x40 SWAP1 KECCAK256 SLOAD PUSH20 0xFFFFFFFFFFFFFFFFFFFFFFFFFFFFFFFFFFFFFFFF AND CALLER EQ PUSH2 0x4D4 JUMPI PUSH1 0x40 MLOAD PUSH32 0x8C379A000000000000000000000000000000000000000000000000000000000 DUP2 MSTORE PUSH1 0x20 PUSH1 0x4 DUP3 ADD MSTORE PUSH1 0x19 PUSH1 0x24 DUP3 ADD MSTORE PUSH32 0x596F7520646F6E2774206F776E207468697320746F6B656E2100000000000000 PUSH1 0x44 DUP3 ADD MSTORE PUSH1 0x64 ADD PUSH2 0x43E JUMP JUMPDEST PUSH1 0x7 SLOAD PUSH1 0xFF AND DUP1 ISZERO PUSH2 0x500 JUMPI POP PUSH1 0x8 SLOAD PUSH1 0x0 DUP3 DUP2 MSTORE PUSH1 0xB PUSH1 0x20 MSTORE PUSH1 0x40 SWAP1 KECCAK256 SLOAD TIMESTAMP SWAP2 PUSH2 0x4FE SWAP2 PUSH2 0x18B1 JUMP JUMPDEST LT JUMPDEST DUP1 PUSH2 0x50E JUMPI POP PUSH1 0x7 SLOAD PUSH1 0xFF AND ISZERO JUMPDEST PUSH2 0x59A JUMPI PUSH1 0x40 MLOAD PUSH32 0x8C379A000000000000000000000000000000000000000000000000000000000 DUP2 MSTORE PUSH1 0x20 PUSH1 0x4 DUP3 ADD MSTORE PUSH1 0x23 PUSH1 0x24 DUP3 ADD MSTORE PUSH32 0x546F6B656E206C6F636B2074696D6520686173206E6F74207965742065787069 PUSH1 0x44 DUP3 ADD MSTORE PUSH32 0x7265640000000000000000000000000000000000000000000000000000000000 PUSH1 0x64 DUP3 ADD MSTORE PUSH1 0x84 ADD PUSH2 0x43E JUMP JUMPDEST PUSH1 0x0 PUSH2 0x5A5 CALLER PUSH2 0xE7B JUMP JUMPDEST CALLER PUSH1 0x0 SWAP1 DUP2 MSTORE PUSH1 0x9 PUSH1 0x20 MSTORE PUSH1 0x40 DUP2 KECCAK256 PUSH1 0x3 ADD DUP1 SLOAD SWAP3 SWAP4 POP DUP4 SWAP3 SWAP1 SWAP2 SWAP1 PUSH2 0x5CC SWAP1 DUP5 SWAP1 PUSH2 0x18B1 JUMP JUMPDEST SWAP1 SWAP2 SSTORE POP PUSH1 0x0 SWAP1 POP DUP1 JUMPDEST CALLER PUSH1 0x0 SWAP1 DUP2 MSTORE PUSH1 0x9 PUSH1 0x20 MSTORE PUSH1 0x40 SWAP1 KECCAK256 PUSH1 0x1 ADD SLOAD DUP2 LT ISZERO PUSH2 0x69E JUMPI CALLER PUSH1 0x0 SWAP1 DUP2 MSTORE PUSH1 0x9 PUSH1 0x20 MSTORE PUSH1 0x40 SWAP1 KECCAK256 PUSH1 0x1 ADD DUP1 SLOAD DUP6 SWAP2 SWAP1 DUP4 SWAP1 DUP2 LT PUSH2 0x617 JUMPI PUSH2 0x617 PUSH2 0x18C9 JUMP JUMPDEST SWAP1 PUSH1 0x0 MSTORE PUSH1 0x20 PUSH1 0x0 KECCAK256 SWAP1 PUSH1 0x3 MUL ADD PUSH1 0x1 ADD SLOAD EQ DUP1 ISZERO PUSH2 0x67F JUMPI POP CALLER PUSH1 0x0 SWAP1 DUP2 MSTORE PUSH1 0x9 PUSH1 0x20 MSTORE PUSH1 0x40 DUP2 KECCAK256 PUSH1 0x1 ADD DUP1 SLOAD DUP4 SWAP1 DUP2 LT PUSH2 0x655 JUMPI PUSH2 0x655 PUSH2 0x18C9 JUMP JUMPDEST PUSH1 0x0 SWAP2 DUP3 MSTORE PUSH1 0x20 SWAP1 SWAP2 KECCAK256 PUSH1 0x3 SWAP1 SWAP2 MUL ADD SLOAD PUSH20 0xFFFFFFFFFFFFFFFFFFFFFFFFFFFFFFFFFFFFFFFF AND EQ ISZERO JUMPDEST ISZERO PUSH2 0x68C JUMPI DUP1 SWAP2 POP PUSH2 0x69E JUMP JUMPDEST DUP1 PUSH2 0x696 DUP2 PUSH2 0x18F8 JUMP JUMPDEST SWAP2 POP POP PUSH2 0x5D6 JUMP JUMPDEST POP CALLER PUSH1 0x0 SWAP1 DUP2 MSTORE PUSH1 0x9 PUSH1 0x20 MSTORE PUSH1 0x40 DUP2 KECCAK256 PUSH1 0x1 ADD DUP1 SLOAD DUP4 SWAP1 DUP2 LT PUSH2 0x6C3 JUMPI PUSH2 0x6C3 PUSH2 0x18C9 JUMP JUMPDEST PUSH1 0x0 SWAP2 DUP3 MSTORE PUSH1 0x20 DUP1 DUP4 KECCAK256 PUSH1 0x3 SWAP3 SWAP1 SWAP3 MUL SWAP1 SWAP2 ADD DUP1 SLOAD PUSH32 0xFFFFFFFFFFFFFFFFFFFFFFFF0000000000000000000000000000000000000000 AND PUSH20 0xFFFFFFFFFFFFFFFFFFFFFFFFFFFFFFFFFFFFFFFF SWAP5 SWAP1 SWAP5 AND SWAP4 SWAP1 SWAP4 OR SWAP1 SWAP3 SSTORE CALLER DUP2 MSTORE PUSH1 0x9 SWAP1 SWAP2 MSTORE PUSH1 0x40 DUP2 KECCAK256 DUP1 SLOAD SWAP2 PUSH2 0x732 DUP4 PUSH2 0x1931 JUMP JUMPDEST SWAP1 SWAP2 SSTORE POP POP PUSH1 0x0 DUP4 DUP2 MSTORE PUSH1 0xA PUSH1 0x20 SWAP1 DUP2 MSTORE PUSH1 0x40 DUP1 DUP4 KECCAK256 DUP1 SLOAD PUSH32 0xFFFFFFFFFFFFFFFFFFFFFFFF0000000000000000000000000000000000000000 AND SWAP1 SSTORE PUSH1 0xB SWAP1 SWAP2 MSTORE DUP1 DUP3 KECCAK256 SWAP2 SWAP1 SWAP2 SSTORE PUSH1 0x3 SLOAD SWAP1 MLOAD PUSH32 0x23B872DD00000000000000000000000000000000000000000000000000000000 DUP2 MSTORE ADDRESS PUSH1 0x4 DUP3 ADD MSTORE CALLER PUSH1 0x24 DUP3 ADD MSTORE PUSH1 0x44 DUP2 ADD DUP6 SWAP1 MSTORE PUSH20 0xFFFFFFFFFFFFFFFFFFFFFFFFFFFFFFFFFFFFFFFF SWAP1 SWAP2 AND SWAP1 PUSH4 0x23B872DD SWAP1 PUSH1 0x64 ADD PUSH1 0x0 PUSH1 0x40 MLOAD DUP1 DUP4 SUB DUP2 PUSH1 0x0 DUP8 DUP1 EXTCODESIZE ISZERO DUP1 ISZERO PUSH2 0x7F1 JUMPI PUSH1 0x0 DUP1 REVERT JUMPDEST POP GAS CALL ISZERO DUP1 ISZERO PUSH2 0x805 JUMPI RETURNDATASIZE PUSH1 0x0 DUP1 RETURNDATACOPY RETURNDATASIZE PUSH1 0x0 REVERT JUMPDEST POP POP CALLER PUSH1 0x0 SWAP1 DUP2 MSTORE PUSH1 0x9 PUSH1 0x20 MSTORE PUSH1 0x40 SWAP1 KECCAK256 TIMESTAMP PUSH1 0x2 SWAP1 SWAP2 ADD SSTORE POP PUSH2 0x82B SWAP3 POP PUSH2 0xEE2 SWAP2 POP POP JUMP JUMPDEST POP JUMP JUMPDEST CALLER PUSH1 0x0 DUP2 DUP2 MSTORE PUSH1 0x9 PUSH1 0x20 MSTORE PUSH1 0x40 DUP2 KECCAK256 PUSH1 0x3 ADD SLOAD SWAP1 SWAP2 PUSH2 0x84C SWAP1 PUSH2 0xE7B JUMP JUMPDEST PUSH2 0x856 SWAP2 SWAP1 PUSH2 0x18B1 JUMP JUMPDEST SWAP1 POP PUSH1 0x0 DUP2 GT PUSH2 0x8C2 JUMPI PUSH1 0x40 MLOAD PUSH32 0x8C379A000000000000000000000000000000000000000000000000000000000 DUP2 MSTORE PUSH1 0x20 PUSH1 0x4 DUP3 ADD MSTORE PUSH1 0x1C PUSH1 0x24 DUP3 ADD MSTORE PUSH32 0x596F752068617665206E6F207265776172647320746F20636C61696D00000000 PUSH1 0x44 DUP3 ADD MSTORE PUSH1 0x64 ADD PUSH2 0x43E JUMP JUMPDEST CALLER PUSH1 0x0 DUP2 DUP2 MSTORE PUSH1 0x9 PUSH1 0x20 MSTORE PUSH1 0x40 DUP2 KECCAK256 TIMESTAMP PUSH1 0x2 DUP1 DUP4 ADD SWAP2 SWAP1 SWAP2 SSTORE PUSH1 0x3 SWAP1 SWAP2 ADD SWAP2 SWAP1 SWAP2 SSTORE SLOAD PUSH2 0x82B SWAP2 PUSH20 0xFFFFFFFFFFFFFFFFFFFFFFFFFFFFFFFFFFFFFFFF SWAP1 SWAP2 AND SWAP1 DUP4 PUSH2 0xEE9 JUMP JUMPDEST PUSH20 0xFFFFFFFFFFFFFFFFFFFFFFFFFFFFFFFFFFFFFFFF DUP2 AND PUSH1 0x0 SWAP1 DUP2 MSTORE PUSH1 0x9 PUSH1 0x20 MSTORE PUSH1 0x40 SWAP1 KECCAK256 SLOAD PUSH1 0x60 SWAP1 ISZERO PUSH2 0xB4F JUMPI PUSH20 0xFFFFFFFFFFFFFFFFFFFFFFFFFFFFFFFFFFFFFFFF DUP3 AND PUSH1 0x0 SWAP1 DUP2 MSTORE PUSH1 0x9 PUSH1 0x20 MSTORE PUSH1 0x40 DUP2 KECCAK256 SLOAD PUSH8 0xFFFFFFFFFFFFFFFF DUP2 GT ISZERO PUSH2 0x974 JUMPI PUSH2 0x974 PUSH2 0x1966 JUMP JUMPDEST PUSH1 0x40 MLOAD SWAP1 DUP1 DUP3 MSTORE DUP1 PUSH1 0x20 MUL PUSH1 0x20 ADD DUP3 ADD PUSH1 0x40 MSTORE DUP1 ISZERO PUSH2 0x9DF JUMPI DUP2 PUSH1 0x20 ADD JUMPDEST PUSH2 0x9CC PUSH1 0x40 MLOAD DUP1 PUSH1 0x60 ADD PUSH1 0x40 MSTORE DUP1 PUSH1 0x0 PUSH20 0xFFFFFFFFFFFFFFFFFFFFFFFFFFFFFFFFFFFFFFFF AND DUP2 MSTORE PUSH1 0x20 ADD PUSH1 0x0 DUP2 MSTORE PUSH1 0x20 ADD PUSH1 0x0 DUP2 MSTORE POP SWAP1 JUMP JUMPDEST DUP2 MSTORE PUSH1 0x20 ADD SWAP1 PUSH1 0x1 SWAP1 SUB SWAP1 DUP2 PUSH2 0x992 JUMPI SWAP1 POP JUMPDEST POP SWAP1 POP PUSH1 0x0 DUP1 JUMPDEST PUSH20 0xFFFFFFFFFFFFFFFFFFFFFFFFFFFFFFFFFFFFFFFF DUP6 AND PUSH1 0x0 SWAP1 DUP2 MSTORE PUSH1 0x9 PUSH1 0x20 MSTORE PUSH1 0x40 SWAP1 KECCAK256 PUSH1 0x1 ADD SLOAD DUP2 LT ISZERO PUSH2 0xB46 JUMPI PUSH20 0xFFFFFFFFFFFFFFFFFFFFFFFFFFFFFFFFFFFFFFFF DUP6 AND PUSH1 0x0 SWAP1 DUP2 MSTORE PUSH1 0x9 PUSH1 0x20 MSTORE PUSH1 0x40 DUP2 KECCAK256 PUSH1 0x1 ADD DUP1 SLOAD DUP4 SWAP1 DUP2 LT PUSH2 0xA50 JUMPI PUSH2 0xA50 PUSH2 0x18C9 JUMP JUMPDEST PUSH1 0x0 SWAP2 DUP3 MSTORE PUSH1 0x20 SWAP1 SWAP2 KECCAK256 PUSH1 0x3 SWAP1 SWAP2 MUL ADD SLOAD PUSH20 0xFFFFFFFFFFFFFFFFFFFFFFFFFFFFFFFFFFFFFFFF AND EQ PUSH2 0xB34 JUMPI PUSH20 0xFFFFFFFFFFFFFFFFFFFFFFFFFFFFFFFFFFFFFFFF DUP6 AND PUSH1 0x0 SWAP1 DUP2 MSTORE PUSH1 0x9 PUSH1 0x20 MSTORE PUSH1 0x40 SWAP1 KECCAK256 PUSH1 0x1 ADD DUP1 SLOAD DUP3 SWAP1 DUP2 LT PUSH2 0xAB6 JUMPI PUSH2 0xAB6 PUSH2 0x18C9 JUMP JUMPDEST PUSH1 0x0 SWAP2 DUP3 MSTORE PUSH1 0x20 SWAP2 DUP3 SWAP1 KECCAK256 PUSH1 0x40 DUP1 MLOAD PUSH1 0x60 DUP2 ADD DUP3 MSTORE PUSH1 0x3 SWAP1 SWAP4 MUL SWAP1 SWAP2 ADD DUP1 SLOAD PUSH20 0xFFFFFFFFFFFFFFFFFFFFFFFFFFFFFFFFFFFFFFFF AND DUP4 MSTORE PUSH1 0x1 DUP2 ADD SLOAD SWAP4 DUP4 ADD SWAP4 SWAP1 SWAP4 MSTORE PUSH1 0x2 SWAP1 SWAP3 ADD SLOAD SWAP2 DUP2 ADD SWAP2 SWAP1 SWAP2 MSTORE DUP4 MLOAD DUP5 SWAP1 DUP5 SWAP1 DUP2 LT PUSH2 0xB1A JUMPI PUSH2 0xB1A PUSH2 0x18C9 JUMP JUMPDEST PUSH1 0x20 MUL PUSH1 0x20 ADD ADD DUP2 SWAP1 MSTORE POP DUP2 DUP1 PUSH2 0xB30 SWAP1 PUSH2 0x18F8 JUMP JUMPDEST SWAP3 POP POP JUMPDEST DUP1 PUSH2 0xB3E DUP2 PUSH2 0x18F8 JUMP JUMPDEST SWAP2 POP POP PUSH2 0x9E6 JUMP JUMPDEST POP SWAP1 SWAP4 SWAP3 POP POP POP JUMP JUMPDEST PUSH1 0x40 DUP1 MLOAD PUSH1 0x0 DUP1 DUP3 MSTORE PUSH1 0x20 DUP3 ADD SWAP1 SWAP3 MSTORE SWAP1 PUSH2 0xBB2 JUMP JUMPDEST PUSH2 0xB9F PUSH1 0x40 MLOAD DUP1 PUSH1 0x60 ADD PUSH1 0x40 MSTORE DUP1 PUSH1 0x0 PUSH20 0xFFFFFFFFFFFFFFFFFFFFFFFFFFFFFFFFFFFFFFFF AND DUP2 MSTORE PUSH1 0x20 ADD PUSH1 0x0 DUP2 MSTORE PUSH1 0x20 ADD PUSH1 0x0 DUP2 MSTORE POP SWAP1 JUMP JUMPDEST DUP2 MSTORE PUSH1 0x20 ADD SWAP1 PUSH1 0x1 SWAP1 SUB SWAP1 DUP2 PUSH2 0xB65 JUMPI SWAP1 POP JUMPDEST POP SWAP3 SWAP2 POP POP JUMP JUMPDEST PUSH2 0xBC1 PUSH2 0xF7B JUMP JUMPDEST PUSH1 0x7 DUP1 SLOAD PUSH32 0xFFFFFFFFFFFFFFFFFFFFFFFFFFFFFFFFFFFFFFFFFFFFFFFFFFFFFFFFFFFFFF00 AND SWAP2 ISZERO ISZERO SWAP2 SWAP1 SWAP2 OR SWAP1 SSTORE JUMP JUMPDEST PUSH2 0xBFA PUSH2 0xF7B JUMP JUMPDEST PUSH2 0xC04 PUSH1 0x0 PUSH2 0x1002 JUMP JUMPDEST JUMP JUMPDEST PUSH2 0xC0E PUSH2 0xE07 JUMP JUMPDEST PUSH2 0xC16 PUSH2 0x1080 JUMP JUMPDEST PUSH2 0xC20 CALLER DUP3 PUSH2 0x10ED JUMP JUMPDEST PUSH2 0x82B PUSH1 0x1 PUSH1 0x0 SSTORE JUMP JUMPDEST PUSH2 0xC32 PUSH2 0xF7B JUMP JUMPDEST PUSH1 0x8 SSTORE JUMP JUMPDEST PUSH2 0xC3F PUSH2 0xF7B JUMP JUMPDEST PUSH1 0x5 SSTORE JUMP JUMPDEST PUSH2 0xC4C PUSH2 0xF7B JUMP JUMPDEST PUSH20 0xFFFFFFFFFFFFFFFFFFFFFFFFFFFFFFFFFFFFFFFF DUP2 AND PUSH2 0xCEF JUMPI PUSH1 0x40 MLOAD PUSH32 0x8C379A000000000000000000000000000000000000000000000000000000000 DUP2 MSTORE PUSH1 0x20 PUSH1 0x4 DUP3 ADD MSTORE PUSH1 0x26 PUSH1 0x24 DUP3 ADD MSTORE PUSH32 0x4F776E61626C653A206E6577206F776E657220697320746865207A65726F2061 PUSH1 0x44 DUP3 ADD MSTORE PUSH32 0x6464726573730000000000000000000000000000000000000000000000000000 PUSH1 0x64 DUP3 ADD MSTORE PUSH1 0x84 ADD PUSH2 0x43E JUMP JUMPDEST PUSH2 0x82B DUP2 PUSH2 0x1002 JUMP JUMPDEST PUSH20 0xFFFFFFFFFFFFFFFFFFFFFFFFFFFFFFFFFFFFFFFF DUP2 AND PUSH1 0x0 SWAP1 DUP2 MSTORE PUSH1 0x9 PUSH1 0x20 MSTORE PUSH1 0x40 DUP2 KECCAK256 PUSH1 0x3 ADD SLOAD DUP2 SWAP1 PUSH2 0xD2C DUP5 PUSH2 0xE7B JUMP JUMPDEST PUSH2 0xD36 SWAP2 SWAP1 PUSH2 0x18B1 JUMP JUMPDEST SWAP4 SWAP3 POP POP POP JUMP JUMPDEST PUSH2 0xD45 PUSH2 0xF7B JUMP JUMPDEST PUSH2 0xD4D PUSH2 0x142E JUMP JUMPDEST PUSH1 0x2 SLOAD PUSH1 0x40 MLOAD PUSH32 0x70A0823100000000000000000000000000000000000000000000000000000000 DUP2 MSTORE ADDRESS PUSH1 0x4 DUP3 ADD MSTORE PUSH1 0x0 SWAP2 PUSH20 0xFFFFFFFFFFFFFFFFFFFFFFFFFFFFFFFFFFFFFFFF AND SWAP1 PUSH4 0x70A08231 SWAP1 PUSH1 0x24 ADD PUSH1 0x20 PUSH1 0x40 MLOAD DUP1 DUP4 SUB DUP2 DUP7 GAS STATICCALL ISZERO DUP1 ISZERO PUSH2 0xDBC JUMPI RETURNDATASIZE PUSH1 0x0 DUP1 RETURNDATACOPY RETURNDATASIZE PUSH1 0x0 REVERT JUMPDEST POP POP POP POP PUSH1 0x40 MLOAD RETURNDATASIZE PUSH1 0x1F NOT PUSH1 0x1F DUP3 ADD AND DUP3 ADD DUP1 PUSH1 0x40 MSTORE POP DUP2 ADD SWAP1 PUSH2 0xDE0 SWAP2 SWAP1 PUSH2 0x1995 JUMP JUMPDEST PUSH1 0x2 SLOAD SWAP1 SWAP2 POP PUSH2 0x82B SWAP1 PUSH20 0xFFFFFFFFFFFFFFFFFFFFFFFFFFFFFFFFFFFFFFFF AND CALLER DUP4 PUSH2 0xEE9 JUMP JUMPDEST PUSH1 0x2 PUSH1 0x0 SLOAD EQ ISZERO PUSH2 0xE74 JUMPI PUSH1 0x40 MLOAD PUSH32 0x8C379A000000000000000000000000000000000000000000000000000000000 DUP2 MSTORE PUSH1 0x20 PUSH1 0x4 DUP3 ADD MSTORE PUSH1 0x1F PUSH1 0x24 DUP3 ADD MSTORE PUSH32 0x5265656E7472616E637947756172643A207265656E7472616E742063616C6C00 PUSH1 0x44 DUP3 ADD MSTORE PUSH1 0x64 ADD PUSH2 0x43E JUMP JUMPDEST PUSH1 0x2 PUSH1 0x0 SSTORE JUMP JUMPDEST PUSH1 0x5 SLOAD PUSH20 0xFFFFFFFFFFFFFFFFFFFFFFFFFFFFFFFFFFFFFFFF DUP3 AND PUSH1 0x0 SWAP1 DUP2 MSTORE PUSH1 0x9 PUSH1 0x20 MSTORE PUSH1 0x40 DUP2 KECCAK256 DUP1 SLOAD PUSH1 0x2 SWAP1 SWAP2 ADD SLOAD SWAP2 SWAP3 PUSH2 0xE10 SWAP3 SWAP1 SWAP2 SWAP1 PUSH2 0xEBE SWAP1 TIMESTAMP PUSH2 0x19AE JUMP JUMPDEST PUSH2 0xEC8 SWAP2 SWAP1 PUSH2 0x19C5 JUMP JUMPDEST PUSH2 0xED2 SWAP2 SWAP1 PUSH2 0x19C5 JUMP JUMPDEST PUSH2 0xEDC SWAP2 SWAP1 PUSH2 0x1A02 JUMP JUMPDEST SWAP3 SWAP2 POP POP JUMP JUMPDEST PUSH1 0x1 PUSH1 0x0 SSTORE JUMP JUMPDEST PUSH1 0x40 DUP1 MLOAD PUSH20 0xFFFFFFFFFFFFFFFFFFFFFFFFFFFFFFFFFFFFFFFF DUP5 AND PUSH1 0x24 DUP3 ADD MSTORE PUSH1 0x44 DUP1 DUP3 ADD DUP5 SWAP1 MSTORE DUP3 MLOAD DUP1 DUP4 SUB SWAP1 SWAP2 ADD DUP2 MSTORE PUSH1 0x64 SWAP1 SWAP2 ADD SWAP1 SWAP2 MSTORE PUSH1 0x20 DUP2 ADD DUP1 MLOAD PUSH28 0xFFFFFFFFFFFFFFFFFFFFFFFFFFFFFFFFFFFFFFFFFFFFFFFFFFFFFFFF AND PUSH32 0xA9059CBB00000000000000000000000000000000000000000000000000000000 OR SWAP1 MSTORE PUSH2 0xF76 SWAP1 DUP5 SWAP1 PUSH2 0x149A JUMP JUMPDEST POP POP POP JUMP JUMPDEST PUSH1 0x1 SLOAD PUSH20 0xFFFFFFFFFFFFFFFFFFFFFFFFFFFFFFFFFFFFFFFF PUSH2 0x100 SWAP1 SWAP2 DIV AND CALLER EQ PUSH2 0xC04 JUMPI PUSH1 0x40 MLOAD PUSH32 0x8C379A000000000000000000000000000000000000000000000000000000000 DUP2 MSTORE PUSH1 0x20 PUSH1 0x4 DUP3 ADD DUP2 SWAP1 MSTORE PUSH1 0x24 DUP3 ADD MSTORE PUSH32 0x4F776E61626C653A2063616C6C6572206973206E6F7420746865206F776E6572 PUSH1 0x44 DUP3 ADD MSTORE PUSH1 0x64 ADD PUSH2 0x43E JUMP JUMPDEST PUSH1 0x1 DUP1 SLOAD PUSH20 0xFFFFFFFFFFFFFFFFFFFFFFFFFFFFFFFFFFFFFFFF DUP4 DUP2 AND PUSH2 0x100 DUP2 DUP2 MUL PUSH32 0xFFFFFFFFFFFFFFFFFFFFFF0000000000000000000000000000000000000000FF DUP6 AND OR SWAP1 SWAP5 SSTORE PUSH1 0x40 MLOAD SWAP4 SWAP1 SWAP3 DIV AND SWAP2 DUP3 SWAP1 PUSH32 0x8BE0079C531659141344CD1FD0A4F28419497F9722A3DAAFE3B4186F6B6457E0 SWAP1 PUSH1 0x0 SWAP1 LOG3 POP POP JUMP JUMPDEST PUSH1 0x1 SLOAD PUSH1 0xFF AND ISZERO PUSH2 0xC04 JUMPI PUSH1 0x40 MLOAD PUSH32 0x8C379A000000000000000000000000000000000000000000000000000000000 DUP2 MSTORE PUSH1 0x20 PUSH1 0x4 DUP3 ADD MSTORE PUSH1 0x10 PUSH1 0x24 DUP3 ADD MSTORE PUSH32 0x5061757361626C653A2070617573656400000000000000000000000000000000 PUSH1 0x44 DUP3 ADD MSTORE PUSH1 0x64 ADD PUSH2 0x43E JUMP JUMPDEST PUSH1 0x3 SLOAD PUSH1 0x40 MLOAD PUSH32 0x6352211E00000000000000000000000000000000000000000000000000000000 DUP2 MSTORE PUSH1 0x4 DUP2 ADD DUP4 SWAP1 MSTORE PUSH20 0xFFFFFFFFFFFFFFFFFFFFFFFFFFFFFFFFFFFFFFFF DUP5 DUP2 AND SWAP3 AND SWAP1 PUSH4 0x6352211E SWAP1 PUSH1 0x24 ADD PUSH1 0x20 PUSH1 0x40 MLOAD DUP1 DUP4 SUB DUP2 DUP7 GAS STATICCALL ISZERO DUP1 ISZERO PUSH2 0x115E JUMPI RETURNDATASIZE PUSH1 0x0 DUP1 RETURNDATACOPY RETURNDATASIZE PUSH1 0x0 REVERT JUMPDEST POP POP POP POP PUSH1 0x40 MLOAD RETURNDATASIZE PUSH1 0x1F NOT PUSH1 0x1F DUP3 ADD AND DUP3 ADD DUP1 PUSH1 0x40 MSTORE POP DUP2 ADD SWAP1 PUSH2 0x1182 SWAP2 SWAP1 PUSH2 0x1A3D JUMP JUMPDEST PUSH20 0xFFFFFFFFFFFFFFFFFFFFFFFFFFFFFFFFFFFFFFFF AND EQ PUSH2 0x11FF JUMPI PUSH1 0x40 MLOAD PUSH32 0x8C379A000000000000000000000000000000000000000000000000000000000 DUP2 MSTORE PUSH1 0x20 PUSH1 0x4 DUP3 ADD MSTORE PUSH1 0x19 PUSH1 0x24 DUP3 ADD MSTORE PUSH32 0x596F7520646F6E2774206F776E207468697320746F6B656E2100000000000000 PUSH1 0x44 DUP3 ADD MSTORE PUSH1 0x64 ADD PUSH2 0x43E JUMP JUMPDEST PUSH20 0xFFFFFFFFFFFFFFFFFFFFFFFFFFFFFFFFFFFFFFFF DUP3 AND PUSH1 0x0 SWAP1 DUP2 MSTORE PUSH1 0x9 PUSH1 0x20 MSTORE PUSH1 0x40 SWAP1 KECCAK256 SLOAD ISZERO PUSH2 0x1279 JUMPI PUSH1 0x0 PUSH2 0x1235 DUP4 PUSH2 0xE7B JUMP JUMPDEST PUSH20 0xFFFFFFFFFFFFFFFFFFFFFFFFFFFFFFFFFFFFFFFF DUP5 AND PUSH1 0x0 SWAP1 DUP2 MSTORE PUSH1 0x9 PUSH1 0x20 MSTORE PUSH1 0x40 DUP2 KECCAK256 PUSH1 0x3 ADD DUP1 SLOAD SWAP3 SWAP4 POP DUP4 SWAP3 SWAP1 SWAP2 SWAP1 PUSH2 0x1272 SWAP1 DUP5 SWAP1 PUSH2 0x18B1 JUMP JUMPDEST SWAP1 SWAP2 SSTORE POP POP POP JUMPDEST PUSH1 0x3 SLOAD PUSH1 0x40 MLOAD PUSH32 0x23B872DD00000000000000000000000000000000000000000000000000000000 DUP2 MSTORE PUSH20 0xFFFFFFFFFFFFFFFFFFFFFFFFFFFFFFFFFFFFFFFF DUP5 DUP2 AND PUSH1 0x4 DUP4 ADD MSTORE ADDRESS PUSH1 0x24 DUP4 ADD MSTORE PUSH1 0x44 DUP3 ADD DUP5 SWAP1 MSTORE SWAP1 SWAP2 AND SWAP1 PUSH4 0x23B872DD SWAP1 PUSH1 0x64 ADD PUSH1 0x0 PUSH1 0x40 MLOAD DUP1 DUP4 SUB DUP2 PUSH1 0x0 DUP8 DUP1 EXTCODESIZE ISZERO DUP1 ISZERO PUSH2 0x12F3 JUMPI PUSH1 0x0 DUP1 REVERT JUMPDEST POP GAS CALL ISZERO DUP1 ISZERO PUSH2 0x1307 JUMPI RETURNDATASIZE PUSH1 0x0 DUP1 RETURNDATACOPY RETURNDATASIZE PUSH1 0x0 REVERT JUMPDEST POP POP PUSH1 0x40 DUP1 MLOAD PUSH1 0x60 DUP2 ADD DUP3 MSTORE PUSH20 0xFFFFFFFFFFFFFFFFFFFFFFFFFFFFFFFFFFFFFFFF DUP7 DUP2 AND DUP1 DUP4 MSTORE PUSH1 0x20 DUP1 DUP5 ADD DUP9 DUP2 MSTORE TIMESTAMP DUP6 DUP8 ADD SWAP1 DUP2 MSTORE PUSH1 0x0 DUP5 DUP2 MSTORE PUSH1 0x9 DUP5 MSTORE SWAP7 DUP8 KECCAK256 PUSH1 0x1 DUP1 DUP3 ADD DUP1 SLOAD DUP1 DUP4 ADD DUP3 SSTORE SWAP1 DUP11 MSTORE SWAP5 DUP10 KECCAK256 DUP9 MLOAD PUSH1 0x3 SWAP1 SWAP7 MUL ADD DUP1 SLOAD PUSH32 0xFFFFFFFFFFFFFFFFFFFFFFFF0000000000000000000000000000000000000000 AND SWAP6 SWAP1 SWAP8 AND SWAP5 SWAP1 SWAP5 OR DUP7 SSTORE SWAP2 MLOAD SWAP3 DUP6 ADD SWAP3 SWAP1 SWAP3 SSTORE SWAP1 MLOAD PUSH1 0x2 SWAP1 SWAP4 ADD SWAP3 SWAP1 SWAP3 SSTORE DUP4 MSTORE DUP1 SLOAD SWAP2 SWAP5 POP SWAP1 SWAP3 POP SWAP1 PUSH2 0x13B9 DUP4 PUSH2 0x18F8 JUMP JUMPDEST SWAP1 SWAP2 SSTORE POP POP POP PUSH1 0x0 SWAP1 DUP2 MSTORE PUSH1 0xA PUSH1 0x20 SWAP1 DUP2 MSTORE PUSH1 0x40 DUP1 DUP4 KECCAK256 DUP1 SLOAD PUSH20 0xFFFFFFFFFFFFFFFFFFFFFFFFFFFFFFFFFFFFFFFF SWAP1 SWAP6 AND PUSH32 0xFFFFFFFFFFFFFFFFFFFFFFFF0000000000000000000000000000000000000000 SWAP1 SWAP6 AND DUP6 OR SWAP1 SSTORE PUSH1 0xB DUP3 MSTORE DUP1 DUP4 KECCAK256 TIMESTAMP SWAP1 DUP2 SWAP1 SSTORE SWAP4 DUP4 MSTORE PUSH1 0x9 SWAP1 SWAP2 MSTORE SWAP1 KECCAK256 PUSH1 0x2 ADD SSTORE JUMP JUMPDEST PUSH1 0x1 SLOAD PUSH1 0xFF AND PUSH2 0xC04 JUMPI PUSH1 0x40 MLOAD PUSH32 0x8C379A000000000000000000000000000000000000000000000000000000000 DUP2 MSTORE PUSH1 0x20 PUSH1 0x4 DUP3 ADD MSTORE PUSH1 0x14 PUSH1 0x24 DUP3 ADD MSTORE PUSH32 0x5061757361626C653A206E6F7420706175736564000000000000000000000000 PUSH1 0x44 DUP3 ADD MSTORE PUSH1 0x64 ADD PUSH2 0x43E JUMP JUMPDEST PUSH1 0x0 PUSH2 0x14FC DUP3 PUSH1 0x40 MLOAD DUP1 PUSH1 0x40 ADD PUSH1 0x40 MSTORE DUP1 PUSH1 0x20 DUP2 MSTORE PUSH1 0x20 ADD PUSH32 0x5361666545524332303A206C6F772D6C6576656C2063616C6C206661696C6564 DUP2 MSTORE POP DUP6 PUSH20 0xFFFFFFFFFFFFFFFFFFFFFFFFFFFFFFFFFFFFFFFF AND PUSH2 0x15A6 SWAP1 SWAP3 SWAP2 SWAP1 PUSH4 0xFFFFFFFF AND JUMP JUMPDEST DUP1 MLOAD SWAP1 SWAP2 POP ISZERO PUSH2 0xF76 JUMPI DUP1 DUP1 PUSH1 0x20 ADD SWAP1 MLOAD DUP2 ADD SWAP1 PUSH2 0x151A SWAP2 SWAP1 PUSH2 0x1A5A JUMP JUMPDEST PUSH2 0xF76 JUMPI PUSH1 0x40 MLOAD PUSH32 0x8C379A000000000000000000000000000000000000000000000000000000000 DUP2 MSTORE PUSH1 0x20 PUSH1 0x4 DUP3 ADD MSTORE PUSH1 0x2A PUSH1 0x24 DUP3 ADD MSTORE PUSH32 0x5361666545524332303A204552433230206F7065726174696F6E20646964206E PUSH1 0x44 DUP3 ADD MSTORE PUSH32 0x6F74207375636365656400000000000000000000000000000000000000000000 PUSH1 0x64 DUP3 ADD MSTORE PUSH1 0x84 ADD PUSH2 0x43E JUMP JUMPDEST PUSH1 0x60 PUSH2 0x15B5 DUP5 DUP5 PUSH1 0x0 DUP6 PUSH2 0x15BD JUMP JUMPDEST SWAP5 SWAP4 POP POP POP POP JUMP JUMPDEST PUSH1 0x60 DUP3 SELFBALANCE LT ISZERO PUSH2 0x164F JUMPI PUSH1 0x40 MLOAD PUSH32 0x8C379A000000000000000000000000000000000000000000000000000000000 DUP2 MSTORE PUSH1 0x20 PUSH1 0x4 DUP3 ADD MSTORE PUSH1 0x26 PUSH1 0x24 DUP3 ADD MSTORE PUSH32 0x416464726573733A20696E73756666696369656E742062616C616E636520666F PUSH1 0x44 DUP3 ADD MSTORE PUSH32 0x722063616C6C0000000000000000000000000000000000000000000000000000 PUSH1 0x64 DUP3 ADD MSTORE PUSH1 0x84 ADD PUSH2 0x43E JUMP JUMPDEST DUP5 EXTCODESIZE PUSH2 0x16B7 JUMPI PUSH1 0x40 MLOAD PUSH32 0x8C379A000000000000000000000000000000000000000000000000000000000 DUP2 MSTORE PUSH1 0x20 PUSH1 0x4 DUP3 ADD MSTORE PUSH1 0x1D PUSH1 0x24 DUP3 ADD MSTORE PUSH32 0x416464726573733A2063616C6C20746F206E6F6E2D636F6E7472616374000000 PUSH1 0x44 DUP3 ADD MSTORE PUSH1 0x64 ADD PUSH2 0x43E JUMP JUMPDEST PUSH1 0x0 DUP1 DUP7 PUSH20 0xFFFFFFFFFFFFFFFFFFFFFFFFFFFFFFFFFFFFFFFF AND DUP6 DUP8 PUSH1 0x40 MLOAD PUSH2 0x16E0 SWAP2 SWAP1 PUSH2 0x1AA7 JUMP JUMPDEST PUSH1 0x0 PUSH1 0x40 MLOAD DUP1 DUP4 SUB DUP2 DUP6 DUP8 GAS CALL SWAP3 POP POP POP RETURNDATASIZE DUP1 PUSH1 0x0 DUP2 EQ PUSH2 0x171D JUMPI PUSH1 0x40 MLOAD SWAP2 POP PUSH1 0x1F NOT PUSH1 0x3F RETURNDATASIZE ADD AND DUP3 ADD PUSH1 0x40 MSTORE RETURNDATASIZE DUP3 MSTORE RETURNDATASIZE PUSH1 0x0 PUSH1 0x20 DUP5 ADD RETURNDATACOPY PUSH2 0x1722 JUMP JUMPDEST PUSH1 0x60 SWAP2 POP JUMPDEST POP SWAP2 POP SWAP2 POP PUSH2 0x1732 DUP3 DUP3 DUP7 PUSH2 0x173D JUMP JUMPDEST SWAP8 SWAP7 POP POP POP POP POP POP POP JUMP JUMPDEST PUSH1 0x60 DUP4 ISZERO PUSH2 0x174C JUMPI POP DUP2 PUSH2 0xD36 JUMP JUMPDEST DUP3 MLOAD ISZERO PUSH2 0x175C JUMPI DUP3 MLOAD DUP1 DUP5 PUSH1 0x20 ADD REVERT JUMPDEST DUP2 PUSH1 0x40 MLOAD PUSH32 0x8C379A000000000000000000000000000000000000000000000000000000000 DUP2 MSTORE PUSH1 0x4 ADD PUSH2 0x43E SWAP2 SWAP1 PUSH2 0x1AC3 JUMP JUMPDEST PUSH1 0x0 PUSH1 0x20 DUP3 DUP5 SUB SLT ISZERO PUSH2 0x17A2 JUMPI PUSH1 0x0 DUP1 REVERT JUMPDEST POP CALLDATALOAD SWAP2 SWAP1 POP JUMP JUMPDEST PUSH20 0xFFFFFFFFFFFFFFFFFFFFFFFFFFFFFFFFFFFFFFFF DUP2 AND DUP2 EQ PUSH2 0x82B JUMPI PUSH1 0x0 DUP1 REVERT JUMPDEST PUSH1 0x0 PUSH1 0x20 DUP3 DUP5 SUB SLT ISZERO PUSH2 0x17DD JUMPI PUSH1 0x0 DUP1 REVERT JUMPDEST DUP2 CALLDATALOAD PUSH2 0xD36 DUP2 PUSH2 0x17A9 JUMP JUMPDEST PUSH1 0x20 DUP1 DUP3 MSTORE DUP3 MLOAD DUP3 DUP3 ADD DUP2 SWAP1 MSTORE PUSH1 0x0 SWAP2 SWAP1 PUSH1 0x40 SWAP1 DUP2 DUP6 ADD SWAP1 DUP7 DUP5 ADD DUP6 JUMPDEST DUP3 DUP2 LT ISZERO PUSH2 0x184A JUMPI DUP2 MLOAD DUP1 MLOAD PUSH20 0xFFFFFFFFFFFFFFFFFFFFFFFFFFFFFFFFFFFFFFFF AND DUP6 MSTORE DUP7 DUP2 ADD MLOAD DUP8 DUP7 ADD MSTORE DUP6 ADD MLOAD DUP6 DUP6 ADD MSTORE PUSH1 0x60 SWAP1 SWAP4 ADD SWAP3 SWAP1 DUP6 ADD SWAP1 PUSH1 0x1 ADD PUSH2 0x1805 JUMP JUMPDEST POP SWAP2 SWAP8 SWAP7 POP POP POP POP POP POP POP JUMP JUMPDEST DUP1 ISZERO ISZERO DUP2 EQ PUSH2 0x82B JUMPI PUSH1 0x0 DUP1 REVERT JUMPDEST PUSH1 0x0 PUSH1 0x20 DUP3 DUP5 SUB SLT ISZERO PUSH2 0x1877 JUMPI PUSH1 0x0 DUP1 REVERT JUMPDEST DUP2 CALLDATALOAD PUSH2 0xD36 DUP2 PUSH2 0x1857 JUMP JUMPDEST PUSH32 0x4E487B7100000000000000000000000000000000000000000000000000000000 PUSH1 0x0 MSTORE PUSH1 0x11 PUSH1 0x4 MSTORE PUSH1 0x24 PUSH1 0x0 REVERT JUMPDEST PUSH1 0x0 DUP3 NOT DUP3 GT ISZERO PUSH2 0x18C4 JUMPI PUSH2 0x18C4 PUSH2 0x1882 JUMP JUMPDEST POP ADD SWAP1 JUMP JUMPDEST PUSH32 0x4E487B7100000000000000000000000000000000000000000000000000000000 PUSH1 0x0 MSTORE PUSH1 0x32 PUSH1 0x4 MSTORE PUSH1 0x24 PUSH1 0x0 REVERT JUMPDEST PUSH1 0x0 PUSH32 0xFFFFFFFFFFFFFFFFFFFFFFFFFFFFFFFFFFFFFFFFFFFFFFFFFFFFFFFFFFFFFFFF DUP3 EQ ISZERO PUSH2 0x192A JUMPI PUSH2 0x192A PUSH2 0x1882 JUMP JUMPDEST POP PUSH1 0x1 ADD SWAP1 JUMP JUMPDEST PUSH1 0x0 DUP2 PUSH2 0x1940 JUMPI PUSH2 0x1940 PUSH2 0x1882 JUMP JUMPDEST POP PUSH32 0xFFFFFFFFFFFFFFFFFFFFFFFFFFFFFFFFFFFFFFFFFFFFFFFFFFFFFFFFFFFFFFFF ADD SWAP1 JUMP JUMPDEST PUSH32 0x4E487B7100000000000000000000000000000000000000000000000000000000 PUSH1 0x0 MSTORE PUSH1 0x41 PUSH1 0x4 MSTORE PUSH1 0x24 PUSH1 0x0 REVERT JUMPDEST PUSH1 0x0 PUSH1 0x20 DUP3 DUP5 SUB SLT ISZERO PUSH2 0x19A7 JUMPI PUSH1 0x0 DUP1 REVERT JUMPDEST POP MLOAD SWAP2 SWAP1 POP JUMP JUMPDEST PUSH1 0x0 DUP3 DUP3 LT ISZERO PUSH2 0x19C0 JUMPI PUSH2 0x19C0 PUSH2 0x1882 JUMP JUMPDEST POP SUB SWAP1 JUMP JUMPDEST PUSH1 0x0 DUP2 PUSH32 0xFFFFFFFFFFFFFFFFFFFFFFFFFFFFFFFFFFFFFFFFFFFFFFFFFFFFFFFFFFFFFFFF DIV DUP4 GT DUP3 ISZERO ISZERO AND ISZERO PUSH2 0x19FD JUMPI PUSH2 0x19FD PUSH2 0x1882 JUMP JUMPDEST POP MUL SWAP1 JUMP JUMPDEST PUSH1 0x0 DUP3 PUSH2 0x1A38 JUMPI PUSH32 0x4E487B7100000000000000000000000000000000000000000000000000000000 PUSH1 0x0 MSTORE PUSH1 0x12 PUSH1 0x4 MSTORE PUSH1 0x24 PUSH1 0x0 REVERT JUMPDEST POP DIV SWAP1 JUMP JUMPDEST PUSH1 0x0 PUSH1 0x20 DUP3 DUP5 SUB SLT ISZERO PUSH2 0x1A4F JUMPI PUSH1 0x0 DUP1 REVERT JUMPDEST DUP2 MLOAD PUSH2 0xD36 DUP2 PUSH2 0x17A9 JUMP JUMPDEST PUSH1 0x0 PUSH1 0x20 DUP3 DUP5 SUB SLT ISZERO PUSH2 0x1A6C JUMPI PUSH1 0x0 DUP1 REVERT JUMPDEST DUP2 MLOAD PUSH2 0xD36 DUP2 PUSH2 0x1857 JUMP JUMPDEST PUSH1 0x0 JUMPDEST DUP4 DUP2 LT ISZERO PUSH2 0x1A92 JUMPI DUP2 DUP2 ADD MLOAD DUP4 DUP3 ADD MSTORE PUSH1 0x20 ADD PUSH2 0x1A7A JUMP JUMPDEST DUP4 DUP2 GT ISZERO PUSH2 0x1AA1 JUMPI PUSH1 0x0 DUP5 DUP5 ADD MSTORE JUMPDEST POP POP POP POP JUMP JUMPDEST PUSH1 0x0 DUP3 MLOAD PUSH2 0x1AB9 DUP2 DUP5 PUSH1 0x20 DUP8 ADD PUSH2 0x1A77 JUMP JUMPDEST SWAP2 SWAP1 SWAP2 ADD SWAP3 SWAP2 POP POP JUMP JUMPDEST PUSH1 0x20 DUP2 MSTORE PUSH1 0x0 DUP3 MLOAD DUP1 PUSH1 0x20 DUP5 ADD MSTORE PUSH2 0x1AE2 DUP2 PUSH1 0x40 DUP6 ADD PUSH1 0x20 DUP8 ADD PUSH2 0x1A77 JUMP JUMPDEST PUSH1 0x1F ADD PUSH32 0xFFFFFFFFFFFFFFFFFFFFFFFFFFFFFFFFFFFFFFFFFFFFFFFFFFFFFFFFFFFFFFE0 AND SWAP2 SWAP1 SWAP2 ADD PUSH1 0x40 ADD SWAP3 SWAP2 POP POP JUMP INVALID LOG2 PUSH5 0x6970667358 0x22 SLT KECCAK256 GAS LOG2 SWAP9 CALLCODE 0xB8 0xBA DUP11 PUSH21 0xED41003CCEFD694B3493A802BBC6AF21B46A4A8CE 0xAF 0xCD 0xBB PUSH5 0x736F6C6343 STOP ADDMOD 0xC STOP CALLER "
				},
				"gasEstimates": {
					"creation": {
						"codeDepositCost": "1397200",
						"executionCost": "infinite",
						"totalCost": "infinite"
					},
					"external": {
						"adminWithdrawRewards()": "infinite",
						"availableRewards(address)": "infinite",
						"claimRewards()": "infinite",
						"getStakedTokens(address)": "infinite",
						"lockEnabled()": "2378",
						"lockTime()": "2331",
						"nftCollection()": "2358",
						"owner()": "2364",
						"paused()": "2372",
						"renounceOwnership()": "infinite",
						"rewardsPerHour()": "2352",
						"rewardsToken()": "2402",
						"setLockEnabled(bool)": "26753",
						"setLockTime(uint256)": "24535",
						"setRewardsPerHour(uint256)": "24557",
						"stake(uint256)": "infinite",
						"stakerAddress(uint256)": "2520",
						"stakers(address)": "6821",
						"tokenStartStakeTime(uint256)": "2496",
						"transferOwnership(address)": "infinite",
						"version()": "2330",
						"withdraw(uint256)": "infinite"
					},
					"internal": {
						"_stake(address,uint256)": "infinite",
						"calculateRewards(address)": "infinite"
					}
				},
				"methodIdentifiers": {
					"adminWithdrawRewards()": "f995441b",
					"availableRewards(address)": "f854a27f",
					"claimRewards()": "372500ab",
					"getStakedTokens(address)": "63c28db1",
					"lockEnabled()": "3166b848",
					"lockTime()": "0d668087",
					"nftCollection()": "6588103b",
					"owner()": "8da5cb5b",
					"paused()": "5c975abb",
					"renounceOwnership()": "715018a6",
					"rewardsPerHour()": "8e7271fa",
					"rewardsToken()": "d1af0c7d",
					"setLockEnabled(bool)": "6aa4439f",
					"setLockTime(uint256)": "ae04d45d",
					"setRewardsPerHour(uint256)": "b5a5e509",
					"stake(uint256)": "a694fc3a",
					"stakerAddress(uint256)": "94067045",
					"stakers(address)": "9168ae72",
					"tokenStartStakeTime(uint256)": "114cd3c8",
					"transferOwnership(address)": "f2fde38b",
					"version()": "54fd4d50",
					"withdraw(uint256)": "2e1a7d4d"
				}
			},
			"storageLayout": {
				"storage": [
					{
						"astId": 569,
						"contract": "source/Farm.sol:Farm",
						"label": "_status",
						"offset": 0,
						"slot": "0",
						"type": "t_uint256"
					},
					{
						"astId": 471,
						"contract": "source/Farm.sol:Farm",
						"label": "_paused",
						"offset": 0,
						"slot": "1",
						"type": "t_bool"
					},
					{
						"astId": 1022,
						"contract": "source/Farm.sol:Farm",
						"label": "_owner",
						"offset": 1,
						"slot": "1",
						"type": "t_address"
					},
					{
						"astId": 1161,
						"contract": "source/Farm.sol:Farm",
						"label": "rewardsToken",
						"offset": 0,
						"slot": "2",
						"type": "t_contract(IERC20)438"
					},
					{
						"astId": 1164,
						"contract": "source/Farm.sol:Farm",
						"label": "nftCollection",
						"offset": 0,
						"slot": "3",
						"type": "t_contract(IERC721)122"
					},
					{
						"astId": 1166,
						"contract": "source/Farm.sol:Farm",
						"label": "nftCollectionAddress",
						"offset": 0,
						"slot": "4",
						"type": "t_address"
					},
					{
						"astId": 1169,
						"contract": "source/Farm.sol:Farm",
						"label": "rewardsPerHour",
						"offset": 0,
						"slot": "5",
						"type": "t_uint256"
					},
					{
						"astId": 1172,
						"contract": "source/Farm.sol:Farm",
						"label": "version",
						"offset": 0,
						"slot": "6",
						"type": "t_uint256"
					},
					{
						"astId": 1175,
						"contract": "source/Farm.sol:Farm",
						"label": "lockEnabled",
						"offset": 0,
						"slot": "7",
						"type": "t_bool"
					},
					{
						"astId": 1178,
						"contract": "source/Farm.sol:Farm",
						"label": "lockTime",
						"offset": 0,
						"slot": "8",
						"type": "t_uint256"
					},
					{
						"astId": 1183,
						"contract": "source/Farm.sol:Farm",
						"label": "stakers",
						"offset": 0,
						"slot": "9",
						"type": "t_mapping(t_address,t_struct(Staker)1158_storage)"
					},
					{
						"astId": 1187,
						"contract": "source/Farm.sol:Farm",
						"label": "stakerAddress",
						"offset": 0,
						"slot": "10",
						"type": "t_mapping(t_uint256,t_address)"
					},
					{
						"astId": 1191,
						"contract": "source/Farm.sol:Farm",
						"label": "tokenStartStakeTime",
						"offset": 0,
						"slot": "11",
						"type": "t_mapping(t_uint256,t_uint256)"
					}
				],
				"types": {
					"t_address": {
						"encoding": "inplace",
						"label": "address",
						"numberOfBytes": "20"
					},
					"t_array(t_struct(StakedToken)1147_storage)dyn_storage": {
						"base": "t_struct(StakedToken)1147_storage",
						"encoding": "dynamic_array",
						"label": "struct Farm.StakedToken[]",
						"numberOfBytes": "32"
					},
					"t_bool": {
						"encoding": "inplace",
						"label": "bool",
						"numberOfBytes": "1"
					},
					"t_contract(IERC20)438": {
						"encoding": "inplace",
						"label": "contract IERC20",
						"numberOfBytes": "20"
					},
					"t_contract(IERC721)122": {
						"encoding": "inplace",
						"label": "contract IERC721",
						"numberOfBytes": "20"
					},
					"t_mapping(t_address,t_struct(Staker)1158_storage)": {
						"encoding": "mapping",
						"key": "t_address",
						"label": "mapping(address => struct Farm.Staker)",
						"numberOfBytes": "32",
						"value": "t_struct(Staker)1158_storage"
					},
					"t_mapping(t_uint256,t_address)": {
						"encoding": "mapping",
						"key": "t_uint256",
						"label": "mapping(uint256 => address)",
						"numberOfBytes": "32",
						"value": "t_address"
					},
					"t_mapping(t_uint256,t_uint256)": {
						"encoding": "mapping",
						"key": "t_uint256",
						"label": "mapping(uint256 => uint256)",
						"numberOfBytes": "32",
						"value": "t_uint256"
					},
					"t_struct(StakedToken)1147_storage": {
						"encoding": "inplace",
						"label": "struct Farm.StakedToken",
						"members": [
							{
								"astId": 1142,
								"contract": "source/Farm.sol:Farm",
								"label": "staker",
								"offset": 0,
								"slot": "0",
								"type": "t_address"
							},
							{
								"astId": 1144,
								"contract": "source/Farm.sol:Farm",
								"label": "tokenId",
								"offset": 0,
								"slot": "1",
								"type": "t_uint256"
							},
							{
								"astId": 1146,
								"contract": "source/Farm.sol:Farm",
								"label": "stackeUtx",
								"offset": 0,
								"slot": "2",
								"type": "t_uint256"
							}
						],
						"numberOfBytes": "96"
					},
					"t_struct(Staker)1158_storage": {
						"encoding": "inplace",
						"label": "struct Farm.Staker",
						"members": [
							{
								"astId": 1149,
								"contract": "source/Farm.sol:Farm",
								"label": "amountStaked",
								"offset": 0,
								"slot": "0",
								"type": "t_uint256"
							},
							{
								"astId": 1153,
								"contract": "source/Farm.sol:Farm",
								"label": "stakedTokens",
								"offset": 0,
								"slot": "1",
								"type": "t_array(t_struct(StakedToken)1147_storage)dyn_storage"
							},
							{
								"astId": 1155,
								"contract": "source/Farm.sol:Farm",
								"label": "timeOfLastUpdate",
								"offset": 0,
								"slot": "2",
								"type": "t_uint256"
							},
							{
								"astId": 1157,
								"contract": "source/Farm.sol:Farm",
								"label": "unclaimedRewards",
								"offset": 0,
								"slot": "3",
								"type": "t_uint256"
							}
						],
						"numberOfBytes": "128"
					},
					"t_uint256": {
						"encoding": "inplace",
						"label": "uint256",
						"numberOfBytes": "32"
					}
				}
			},
			"userdoc": {
				"kind": "user",
				"methods": {},
				"version": 1
			}
		}
	}
}