{
	"source/Farm.sol": {
		"Farm": {
			"abi": [
				{
					"inputs": [
						{
							"internalType": "address",
							"name": "_nftCollection",
							"type": "address"
						},
						{
							"internalType": "contract IERC20",
							"name": "_rewardsToken",
							"type": "address"
						},
						{
							"internalType": "uint256",
							"name": "_rewardsPerHour",
							"type": "uint256"
						},
						{
							"internalType": "bool",
							"name": "_lockEnabled",
							"type": "bool"
						},
						{
							"internalType": "uint256",
							"name": "_lockTime",
							"type": "uint256"
						}
					],
					"stateMutability": "nonpayable",
					"type": "constructor"
				},
				{
					"anonymous": false,
					"inputs": [
						{
							"indexed": true,
							"internalType": "address",
							"name": "previousOwner",
							"type": "address"
						},
						{
							"indexed": true,
							"internalType": "address",
							"name": "newOwner",
							"type": "address"
						}
					],
					"name": "OwnershipTransferred",
					"type": "event"
				},
				{
					"anonymous": false,
					"inputs": [
						{
							"indexed": false,
							"internalType": "address",
							"name": "account",
							"type": "address"
						}
					],
					"name": "Paused",
					"type": "event"
				},
				{
					"anonymous": false,
					"inputs": [
						{
							"indexed": false,
							"internalType": "address",
							"name": "account",
							"type": "address"
						}
					],
					"name": "Unpaused",
					"type": "event"
				},
				{
					"inputs": [],
					"name": "adminWithdrawRewards",
					"outputs": [],
					"stateMutability": "nonpayable",
					"type": "function"
				},
				{
					"inputs": [
						{
							"internalType": "address",
							"name": "_staker",
							"type": "address"
						}
					],
					"name": "availableRewards",
					"outputs": [
						{
							"internalType": "uint256",
							"name": "",
							"type": "uint256"
						}
					],
					"stateMutability": "view",
					"type": "function"
				},
				{
					"inputs": [],
					"name": "claimRewards",
					"outputs": [],
					"stateMutability": "nonpayable",
					"type": "function"
				},
				{
					"inputs": [
						{
							"internalType": "address",
							"name": "_user",
							"type": "address"
						}
					],
					"name": "getStakedTokens",
					"outputs": [
						{
							"components": [
								{
									"internalType": "address",
									"name": "staker",
									"type": "address"
								},
								{
									"internalType": "uint256",
									"name": "tokenId",
									"type": "uint256"
								}
							],
							"internalType": "struct Farm.StakedToken_V1[]",
							"name": "",
							"type": "tuple[]"
						}
					],
					"stateMutability": "view",
					"type": "function"
				},
				{
					"inputs": [
						{
							"internalType": "address",
							"name": "_user",
							"type": "address"
						}
					],
					"name": "getStakedTokens_V3",
					"outputs": [
						{
							"components": [
								{
									"internalType": "address",
									"name": "staker",
									"type": "address"
								},
								{
									"internalType": "uint256",
									"name": "tokenId",
									"type": "uint256"
								},
								{
									"internalType": "uint256",
									"name": "stackeUtx",
									"type": "uint256"
								}
							],
							"internalType": "struct Farm.StakedToken[]",
							"name": "",
							"type": "tuple[]"
						}
					],
					"stateMutability": "view",
					"type": "function"
				},
				{
					"inputs": [],
					"name": "lockEnabled",
					"outputs": [
						{
							"internalType": "bool",
							"name": "",
							"type": "bool"
						}
					],
					"stateMutability": "view",
					"type": "function"
				},
				{
					"inputs": [],
					"name": "lockTime",
					"outputs": [
						{
							"internalType": "uint256",
							"name": "",
							"type": "uint256"
						}
					],
					"stateMutability": "view",
					"type": "function"
				},
				{
					"inputs": [],
					"name": "nftCollection",
					"outputs": [
						{
							"internalType": "contract IERC721",
							"name": "",
							"type": "address"
						}
					],
					"stateMutability": "view",
					"type": "function"
				},
				{
					"inputs": [],
					"name": "owner",
					"outputs": [
						{
							"internalType": "address",
							"name": "",
							"type": "address"
						}
					],
					"stateMutability": "view",
					"type": "function"
				},
				{
					"inputs": [],
					"name": "paused",
					"outputs": [
						{
							"internalType": "bool",
							"name": "",
							"type": "bool"
						}
					],
					"stateMutability": "view",
					"type": "function"
				},
				{
					"inputs": [],
					"name": "renounceOwnership",
					"outputs": [],
					"stateMutability": "nonpayable",
					"type": "function"
				},
				{
					"inputs": [],
					"name": "rewardsPerHour",
					"outputs": [
						{
							"internalType": "uint256",
							"name": "",
							"type": "uint256"
						}
					],
					"stateMutability": "view",
					"type": "function"
				},
				{
					"inputs": [],
					"name": "rewardsToken",
					"outputs": [
						{
							"internalType": "contract IERC20",
							"name": "",
							"type": "address"
						}
					],
					"stateMutability": "view",
					"type": "function"
				},
				{
					"inputs": [
						{
							"internalType": "bool",
							"name": "_lockEnabled",
							"type": "bool"
						}
					],
					"name": "setLockEnabled",
					"outputs": [],
					"stateMutability": "nonpayable",
					"type": "function"
				},
				{
					"inputs": [
						{
							"internalType": "uint256",
							"name": "_lockTime",
							"type": "uint256"
						}
					],
					"name": "setLockTime",
					"outputs": [],
					"stateMutability": "nonpayable",
					"type": "function"
				},
				{
					"inputs": [
						{
							"internalType": "uint256",
							"name": "_rewardsPerHour",
							"type": "uint256"
						}
					],
					"name": "setRewardsPerHour",
					"outputs": [],
					"stateMutability": "nonpayable",
					"type": "function"
				},
				{
					"inputs": [
						{
							"internalType": "uint256",
							"name": "_tokenId",
							"type": "uint256"
						}
					],
					"name": "stake",
					"outputs": [],
					"stateMutability": "nonpayable",
					"type": "function"
				},
				{
					"inputs": [
						{
							"internalType": "uint256",
							"name": "",
							"type": "uint256"
						}
					],
					"name": "stakerAddress",
					"outputs": [
						{
							"internalType": "address",
							"name": "",
							"type": "address"
						}
					],
					"stateMutability": "view",
					"type": "function"
				},
				{
					"inputs": [
						{
							"internalType": "address",
							"name": "",
							"type": "address"
						}
					],
					"name": "stakers",
					"outputs": [
						{
							"internalType": "uint256",
							"name": "amountStaked",
							"type": "uint256"
						},
						{
							"internalType": "uint256",
							"name": "timeOfLastUpdate",
							"type": "uint256"
						},
						{
							"internalType": "uint256",
							"name": "unclaimedRewards",
							"type": "uint256"
						}
					],
					"stateMutability": "view",
					"type": "function"
				},
				{
					"inputs": [
						{
							"internalType": "uint256",
							"name": "",
							"type": "uint256"
						}
					],
					"name": "tokenStartStakeTime",
					"outputs": [
						{
							"internalType": "uint256",
							"name": "",
							"type": "uint256"
						}
					],
					"stateMutability": "view",
					"type": "function"
				},
				{
					"inputs": [
						{
							"internalType": "address",
							"name": "newOwner",
							"type": "address"
						}
					],
					"name": "transferOwnership",
					"outputs": [],
					"stateMutability": "nonpayable",
					"type": "function"
				},
				{
					"inputs": [],
					"name": "version",
					"outputs": [
						{
							"internalType": "uint256",
							"name": "",
							"type": "uint256"
						}
					],
					"stateMutability": "view",
					"type": "function"
				},
				{
					"inputs": [
						{
							"internalType": "uint256",
							"name": "_tokenId",
							"type": "uint256"
						}
					],
					"name": "withdraw",
					"outputs": [],
					"stateMutability": "nonpayable",
					"type": "function"
				}
			],
			"devdoc": {
				"events": {
					"Paused(address)": {
						"details": "Emitted when the pause is triggered by `account`."
					},
					"Unpaused(address)": {
						"details": "Emitted when the pause is lifted by `account`."
					}
				},
				"kind": "dev",
				"methods": {
					"owner()": {
						"details": "Returns the address of the current owner."
					},
					"paused()": {
						"details": "Returns true if the contract is paused, and false otherwise."
					},
					"renounceOwnership()": {
						"details": "Leaves the contract without owner. It will not be possible to call `onlyOwner` functions anymore. Can only be called by the current owner. NOTE: Renouncing ownership will leave the contract without an owner, thereby removing any functionality that is only available to the owner."
					},
					"transferOwnership(address)": {
						"details": "Transfers ownership of the contract to a new account (`newOwner`). Can only be called by the current owner."
					}
				},
				"version": 1
			},
			"evm": {
				"assembly": "    /* \"source/Farm.sol\":28878:35803  contract Farm is ReentrancyGuard, Pausable, Ownable {... */\n  mstore(0x40, 0x80)\n    /* \"source/Farm.sol\":29644:29650  100000 */\n  0x0186a0\n    /* \"source/Farm.sol\":29612:29650  uint256 public rewardsPerHour = 100000 */\n  0x05\n  sstore\n    /* \"source/Farm.sol\":29684:29685  3 */\n  0x03\n    /* \"source/Farm.sol\":29659:29685  uint256 public version = 3 */\n  0x06\n  sstore\n    /* \"source/Farm.sol\":29694:29725  bool public lockEnabled = false */\n  0x07\n  dup1\n  sload\n  not(0xff)\n  and\n  swap1\n  sstore\n  0x00\n    /* \"source/Farm.sol\":29743:29770  uint256 public lockTime = 0 */\n  0x08\n  sstore\n    /* \"source/Farm.sol\":30100:30584  constructor(... */\n  callvalue\n  dup1\n  iszero\n  tag_1\n  jumpi\n  0x00\n  dup1\n  revert\ntag_1:\n  pop\n  mload(0x40)\n  sub(codesize, bytecodeSize)\n  dup1\n  bytecodeSize\n  dup4\n  codecopy\n  dup2\n  add\n  0x40\n  dup2\n  swap1\n  mstore\n  tag_2\n  swap2\n  tag_3\n  jump\t// in\ntag_2:\n    /* \"source/Farm.sol\":17794:17795  1 */\n  0x01\n    /* \"source/Farm.sol\":17905:17912  _status */\n  0x00\n    /* \"source/Farm.sol\":17905:17927  _status = _NOT_ENTERED */\n  dup2\n  swap1\n  sstore\n    /* \"source/Farm.sol\":15323:15338  _paused = false */\n  dup1\n  sload\n  not(0xff)\n  and\n  swap1\n  sstore\n    /* \"source/Farm.sol\":27132:27164  _transferOwnership(_msgSender()) */\n  tag_11\n    /* \"source/Farm.sol\":14778:14788  msg.sender */\n  caller\n    /* \"source/Farm.sol\":27132:27150  _transferOwnership */\n  tag_14\n    /* \"source/Farm.sol\":27132:27164  _transferOwnership(_msgSender()) */\n  jump\t// in\ntag_11:\n    /* \"source/Farm.sol\":30313:30326  nftCollection */\n  0x03\n    /* \"source/Farm.sol\":30313:30352  nftCollection = IERC721(_nftCollection) */\n  dup1\n  sload\n  sub(shl(0xa0, 0x01), 0x01)\n  swap7\n  dup8\n  and\n  not(sub(shl(0xa0, 0x01), 0x01))\n  swap2\n  dup3\n  and\n  dup2\n  or\n  swap1\n  swap3\n  sstore\n    /* \"source/Farm.sol\":30363:30383  nftCollectionAddress */\n  0x04\n    /* \"source/Farm.sol\":30363:30400  nftCollectionAddress = _nftCollection */\n  dup1\n  sload\n  dup3\n  and\n  swap1\n  swap3\n  or\n  swap1\n  swap2\n  sstore\n    /* \"source/Farm.sol\":30411:30423  rewardsToken */\n  0x02\n    /* \"source/Farm.sol\":30411:30439  rewardsToken = _rewardsToken */\n  dup1\n  sload\n  swap6\n  swap1\n  swap7\n  and\n  swap5\n  and\n  swap4\n  swap1\n  swap4\n  or\n  swap1\n  swap4\n  sstore\n    /* \"source/Farm.sol\":30450:30464  rewardsPerHour */\n  0x05\n    /* \"source/Farm.sol\":30450:30482  rewardsPerHour = _rewardsPerHour */\n  sstore\n    /* \"source/Farm.sol\":30493:30501  lockTime */\n  0x08\n    /* \"source/Farm.sol\":30493:30513  lockTime = _lockTime */\n  sstore\n    /* \"source/Farm.sol\":30540:30551  lockEnabled */\n  0x07\n    /* \"source/Farm.sol\":30540:30566  lockEnabled = _lockEnabled */\n  dup1\n  sload\n  swap2\n  iszero\n  iszero\n  not(0xff)\n  swap1\n  swap3\n  and\n  swap2\n  swap1\n  swap2\n  or\n  swap1\n  sstore\n    /* \"source/Farm.sol\":28878:35803  contract Farm is ReentrancyGuard, Pausable, Ownable {... */\n  jump(tag_20)\n    /* \"source/Farm.sol\":28678:28869  function _transferOwnership(address newOwner) internal virtual {... */\ntag_14:\n    /* \"source/Farm.sol\":28771:28777  _owner */\n  0x01\n  dup1\n  sload\n  sub(shl(0xa0, 0x01), 0x01)\n    /* \"source/Farm.sol\":28788:28805  _owner = newOwner */\n  dup4\n  dup2\n  and\n    /* \"source/Farm.sol\":28771:28777  _owner */\n  0x0100\n    /* \"source/Farm.sol\":28788:28805  _owner = newOwner */\n  dup2\n  dup2\n  mul\n  not(sub(shl(0xa8, 0x01), 0x0100))\n  dup6\n  and\n  or\n  swap1\n  swap5\n  sstore\n    /* \"source/Farm.sol\":28821:28861  OwnershipTransferred(oldOwner, newOwner) */\n  mload(0x40)\n    /* \"source/Farm.sol\":28771:28777  _owner */\n  swap4\n  swap1\n  swap3\n  div\n  and\n  swap2\n  dup3\n  swap1\n    /* \"source/Farm.sol\":28821:28861  OwnershipTransferred(oldOwner, newOwner) */\n  0x8be0079c531659141344cd1fd0a4f28419497f9722a3daafe3b4186f6b6457e0\n  swap1\n    /* \"source/Farm.sol\":28752:28768  address oldOwner */\n  0x00\n  swap1\n    /* \"source/Farm.sol\":28821:28861  OwnershipTransferred(oldOwner, newOwner) */\n  log3\n    /* \"source/Farm.sol\":28741:28869  {... */\n  pop\n    /* \"source/Farm.sol\":28678:28869  function _transferOwnership(address newOwner) internal virtual {... */\n  pop\n  jump\t// out\n    /* \"#utility.yul\":14:145   */\ntag_19:\n  sub(shl(0xa0, 0x01), 0x01)\n    /* \"#utility.yul\":89:120   */\n  dup2\n  and\n    /* \"#utility.yul\":79:121   */\n  dup2\n  eq\n    /* \"#utility.yul\":69:139   */\n  tag_22\n  jumpi\n    /* \"#utility.yul\":135:136   */\n  0x00\n    /* \"#utility.yul\":132:133   */\n  dup1\n    /* \"#utility.yul\":125:137   */\n  revert\n    /* \"#utility.yul\":69:139   */\ntag_22:\n    /* \"#utility.yul\":14:145   */\n  pop\n  jump\t// out\n    /* \"#utility.yul\":150:835   */\ntag_3:\n    /* \"#utility.yul\":267:273   */\n  0x00\n    /* \"#utility.yul\":275:281   */\n  dup1\n    /* \"#utility.yul\":283:289   */\n  0x00\n    /* \"#utility.yul\":291:297   */\n  dup1\n    /* \"#utility.yul\":299:305   */\n  0x00\n    /* \"#utility.yul\":352:355   */\n  0xa0\n    /* \"#utility.yul\":340:349   */\n  dup7\n    /* \"#utility.yul\":331:338   */\n  dup9\n    /* \"#utility.yul\":327:350   */\n  sub\n    /* \"#utility.yul\":323:356   */\n  slt\n    /* \"#utility.yul\":320:373   */\n  iszero\n  tag_24\n  jumpi\n    /* \"#utility.yul\":369:370   */\n  0x00\n    /* \"#utility.yul\":366:367   */\n  dup1\n    /* \"#utility.yul\":359:371   */\n  revert\n    /* \"#utility.yul\":320:373   */\ntag_24:\n    /* \"#utility.yul\":401:410   */\n  dup6\n    /* \"#utility.yul\":395:411   */\n  mload\n    /* \"#utility.yul\":420:451   */\n  tag_25\n    /* \"#utility.yul\":445:450   */\n  dup2\n    /* \"#utility.yul\":420:451   */\n  tag_19\n  jump\t// in\ntag_25:\n    /* \"#utility.yul\":520:522   */\n  0x20\n    /* \"#utility.yul\":505:523   */\n  dup8\n  add\n    /* \"#utility.yul\":499:524   */\n  mload\n    /* \"#utility.yul\":470:475   */\n  swap1\n  swap6\n  pop\n    /* \"#utility.yul\":533:566   */\n  tag_26\n    /* \"#utility.yul\":499:524   */\n  dup2\n    /* \"#utility.yul\":533:566   */\n  tag_19\n  jump\t// in\ntag_26:\n    /* \"#utility.yul\":632:634   */\n  0x40\n    /* \"#utility.yul\":617:635   */\n  dup8\n  add\n    /* \"#utility.yul\":611:636   */\n  mload\n    /* \"#utility.yul\":681:683   */\n  0x60\n    /* \"#utility.yul\":666:684   */\n  dup9\n  add\n    /* \"#utility.yul\":660:685   */\n  mload\n    /* \"#utility.yul\":585:592   */\n  swap2\n  swap6\n  pop\n    /* \"#utility.yul\":611:636   */\n  swap4\n  pop\n    /* \"#utility.yul\":723:738   */\n  dup1\n  iszero\n    /* \"#utility.yul\":716:739   */\n  iszero\n    /* \"#utility.yul\":704:740   */\n  dup2\n  eq\n    /* \"#utility.yul\":694:758   */\n  tag_27\n  jumpi\n    /* \"#utility.yul\":754:755   */\n  0x00\n    /* \"#utility.yul\":751:752   */\n  dup1\n    /* \"#utility.yul\":744:756   */\n  revert\n    /* \"#utility.yul\":694:758   */\ntag_27:\n    /* \"#utility.yul\":777:784   */\n  dup1\n    /* \"#utility.yul\":767:784   */\n  swap3\n  pop\n  pop\n    /* \"#utility.yul\":824:827   */\n  0x80\n    /* \"#utility.yul\":813:822   */\n  dup7\n    /* \"#utility.yul\":809:828   */\n  add\n    /* \"#utility.yul\":803:829   */\n  mload\n    /* \"#utility.yul\":793:829   */\n  swap1\n  pop\n    /* \"#utility.yul\":150:835   */\n  swap3\n  swap6\n  pop\n  swap3\n  swap6\n  swap1\n  swap4\n  pop\n  jump\t// out\ntag_20:\n    /* \"source/Farm.sol\":28878:35803  contract Farm is ReentrancyGuard, Pausable, Ownable {... */\n  dataSize(sub_0)\n  dup1\n  dataOffset(sub_0)\n  0x00\n  codecopy\n  0x00\n  return\nstop\n\nsub_0: assembly {\n        /* \"source/Farm.sol\":28878:35803  contract Farm is ReentrancyGuard, Pausable, Ownable {... */\n      mstore(0x40, 0x80)\n      callvalue\n      dup1\n      iszero\n      tag_1\n      jumpi\n      0x00\n      dup1\n      revert\n    tag_1:\n      pop\n      jumpi(tag_2, lt(calldatasize, 0x04))\n      shr(0xe0, calldataload(0x00))\n      dup1\n      0x715018a6\n      gt\n      tag_26\n      jumpi\n      dup1\n      0xae04d45d\n      gt\n      tag_27\n      jumpi\n      dup1\n      0xae04d45d\n      eq\n      tag_20\n      jumpi\n      dup1\n      0xb5a5e509\n      eq\n      tag_21\n      jumpi\n      dup1\n      0xd1af0c7d\n      eq\n      tag_22\n      jumpi\n      dup1\n      0xf2fde38b\n      eq\n      tag_23\n      jumpi\n      dup1\n      0xf854a27f\n      eq\n      tag_24\n      jumpi\n      dup1\n      0xf995441b\n      eq\n      tag_25\n      jumpi\n      0x00\n      dup1\n      revert\n    tag_27:\n      dup1\n      0x715018a6\n      eq\n      tag_14\n      jumpi\n      dup1\n      0x8da5cb5b\n      eq\n      tag_15\n      jumpi\n      dup1\n      0x8e7271fa\n      eq\n      tag_16\n      jumpi\n      dup1\n      0x9168ae72\n      eq\n      tag_17\n      jumpi\n      dup1\n      0x94067045\n      eq\n      tag_18\n      jumpi\n      dup1\n      0xa694fc3a\n      eq\n      tag_19\n      jumpi\n      0x00\n      dup1\n      revert\n    tag_26:\n      dup1\n      0x372500ab\n      gt\n      tag_28\n      jumpi\n      dup1\n      0x372500ab\n      eq\n      tag_8\n      jumpi\n      dup1\n      0x54fd4d50\n      eq\n      tag_9\n      jumpi\n      dup1\n      0x5c975abb\n      eq\n      tag_10\n      jumpi\n      dup1\n      0x63c28db1\n      eq\n      tag_11\n      jumpi\n      dup1\n      0x6588103b\n      eq\n      tag_12\n      jumpi\n      dup1\n      0x6aa4439f\n      eq\n      tag_13\n      jumpi\n      0x00\n      dup1\n      revert\n    tag_28:\n      dup1\n      0x0c2517a8\n      eq\n      tag_3\n      jumpi\n      dup1\n      0x0d668087\n      eq\n      tag_4\n      jumpi\n      dup1\n      0x114cd3c8\n      eq\n      tag_5\n      jumpi\n      dup1\n      0x2e1a7d4d\n      eq\n      tag_6\n      jumpi\n      dup1\n      0x3166b848\n      eq\n      tag_7\n      jumpi\n    tag_2:\n      0x00\n      dup1\n      revert\n        /* \"source/Farm.sol\":34898:35581  function getStakedTokens_V3(address _user) public view returns (StakedToken[] memory) {... */\n    tag_3:\n      tag_29\n      tag_30\n      calldatasize\n      0x04\n      tag_31\n      jump\t// in\n    tag_30:\n      tag_32\n      jump\t// in\n    tag_29:\n      mload(0x40)\n      tag_33\n      swap2\n      swap1\n      tag_34\n      jump\t// in\n    tag_33:\n      mload(0x40)\n      dup1\n      swap2\n      sub\n      swap1\n      return\n        /* \"source/Farm.sol\":29743:29770  uint256 public lockTime = 0 */\n    tag_4:\n      tag_35\n      sload(0x08)\n      dup2\n      jump\n    tag_35:\n      mload(0x40)\n        /* \"#utility.yul\":1430:1455   */\n      swap1\n      dup2\n      mstore\n        /* \"#utility.yul\":1418:1420   */\n      0x20\n        /* \"#utility.yul\":1403:1421   */\n      add\n        /* \"source/Farm.sol\":29743:29770  uint256 public lockTime = 0 */\n      tag_33\n        /* \"#utility.yul\":1284:1461   */\n      jump\n        /* \"source/Farm.sol\":30027:30081  mapping(uint256 => uint256) public tokenStartStakeTime */\n    tag_5:\n      tag_35\n      tag_40\n      calldatasize\n      0x04\n      tag_41\n      jump\t// in\n    tag_40:\n      mstore(0x20, 0x0b)\n      0x00\n      swap1\n      dup2\n      mstore\n      0x40\n      swap1\n      keccak256\n      sload\n      dup2\n      jump\n        /* \"source/Farm.sol\":32230:33659  function withdraw(uint256 _tokenId) external nonReentrant {... */\n    tag_6:\n      tag_44\n      tag_45\n      calldatasize\n      0x04\n      tag_41\n      jump\t// in\n    tag_45:\n      tag_46\n      jump\t// in\n    tag_44:\n      stop\n        /* \"source/Farm.sol\":29694:29725  bool public lockEnabled = false */\n    tag_7:\n      sload(0x07)\n      tag_47\n      swap1\n      0xff\n      and\n      dup2\n      jump\n    tag_47:\n      mload(0x40)\n        /* \"#utility.yul\":1816:1830   */\n      swap1\n      iszero\n        /* \"#utility.yul\":1809:1831   */\n      iszero\n        /* \"#utility.yul\":1791:1832   */\n      dup2\n      mstore\n        /* \"#utility.yul\":1779:1781   */\n      0x20\n        /* \"#utility.yul\":1764:1782   */\n      add\n        /* \"source/Farm.sol\":29694:29725  bool public lockEnabled = false */\n      tag_33\n        /* \"#utility.yul\":1651:1838   */\n      jump\n        /* \"source/Farm.sol\":33975:34361  function claimRewards() external {... */\n    tag_8:\n      tag_44\n      tag_52\n      jump\t// in\n        /* \"source/Farm.sol\":29659:29685  uint256 public version = 3 */\n    tag_9:\n      tag_35\n      sload(0x06)\n      dup2\n      jump\n        /* \"source/Farm.sol\":15972:16058  function paused() public view virtual returns (bool) {... */\n    tag_10:\n        /* \"source/Farm.sol\":16043:16050  _paused */\n      and(0xff, sload(0x01))\n        /* \"source/Farm.sol\":15972:16058  function paused() public view virtual returns (bool) {... */\n      jump(tag_47)\n        /* \"source/Farm.sol\":34369:34892  function getStakedTokens(address _user) public view returns (StakedToken_V1[] memory) {... */\n    tag_11:\n      tag_59\n      tag_60\n      calldatasize\n      0x04\n      tag_31\n      jump\t// in\n    tag_60:\n      tag_61\n      jump\t// in\n    tag_59:\n      mload(0x40)\n      tag_33\n      swap2\n      swap1\n      tag_63\n      jump\t// in\n        /* \"source/Farm.sol\":29482:29510  IERC721 public nftCollection */\n    tag_12:\n      sload(0x03)\n      tag_64\n      swap1\n      sub(shl(0xa0, 0x01), 0x01)\n      and\n      dup2\n      jump\n    tag_64:\n      mload(0x40)\n      sub(shl(0xa0, 0x01), 0x01)\n        /* \"#utility.yul\":2855:2887   */\n      swap1\n      swap2\n      and\n        /* \"#utility.yul\":2837:2888   */\n      dup2\n      mstore\n        /* \"#utility.yul\":2825:2827   */\n      0x20\n        /* \"#utility.yul\":2810:2828   */\n      add\n        /* \"source/Farm.sol\":29482:29510  IERC721 public nftCollection */\n      tag_33\n        /* \"#utility.yul\":2676:2894   */\n      jump\n        /* \"source/Farm.sol\":30601:30708  function setLockEnabled(bool _lockEnabled) external onlyOwner {... */\n    tag_13:\n      tag_44\n      tag_69\n      calldatasize\n      0x04\n      tag_70\n      jump\t// in\n    tag_69:\n      tag_71\n      jump\t// in\n        /* \"source/Farm.sol\":28059:28162  function renounceOwnership() public virtual onlyOwner {... */\n    tag_14:\n      tag_44\n      tag_73\n      jump\t// in\n        /* \"source/Farm.sol\":27411:27498  function owner() public view virtual returns (address) {... */\n    tag_15:\n        /* \"source/Farm.sol\":27484:27490  _owner */\n      sload(0x01)\n      0x0100\n      swap1\n      div\n      sub(shl(0xa0, 0x01), 0x01)\n      and\n        /* \"source/Farm.sol\":27411:27498  function owner() public view virtual returns (address) {... */\n      jump(tag_64)\n        /* \"source/Farm.sol\":29612:29650  uint256 public rewardsPerHour = 100000 */\n    tag_16:\n      tag_35\n      sload(0x05)\n      dup2\n      jump\n        /* \"source/Farm.sol\":29798:29839  mapping(address => Staker) public stakers */\n    tag_17:\n      tag_81\n      tag_82\n      calldatasize\n      0x04\n      tag_31\n      jump\t// in\n    tag_82:\n      mstore(0x20, 0x09)\n      0x00\n      swap1\n      dup2\n      mstore\n      0x40\n      swap1\n      keccak256\n      dup1\n      sload\n      0x02\n      dup3\n      add\n      sload\n      0x03\n      swap1\n      swap3\n      add\n      sload\n      swap1\n      swap2\n      swap1\n      dup4\n      jump\n    tag_81:\n      0x40\n      dup1\n      mload\n        /* \"#utility.yul\":3678:3703   */\n      swap4\n      dup5\n      mstore\n        /* \"#utility.yul\":3734:3736   */\n      0x20\n        /* \"#utility.yul\":3719:3737   */\n      dup5\n      add\n        /* \"#utility.yul\":3712:3746   */\n      swap3\n      swap1\n      swap3\n      mstore\n        /* \"#utility.yul\":3762:3780   */\n      swap1\n      dup3\n      add\n        /* \"#utility.yul\":3755:3789   */\n      mstore\n        /* \"#utility.yul\":3666:3668   */\n      0x60\n        /* \"#utility.yul\":3651:3669   */\n      add\n        /* \"source/Farm.sol\":29798:29839  mapping(address => Staker) public stakers */\n      tag_33\n        /* \"#utility.yul\":3476:3795   */\n      jump\n        /* \"source/Farm.sol\":29925:29973  mapping(uint256 => address) public stakerAddress */\n    tag_18:\n      tag_64\n      tag_87\n      calldatasize\n      0x04\n      tag_41\n      jump\t// in\n    tag_87:\n      mstore(0x20, 0x0a)\n      0x00\n      swap1\n      dup2\n      mstore\n      0x40\n      swap1\n      keccak256\n      sload\n      sub(shl(0xa0, 0x01), 0x01)\n      and\n      dup2\n      jump\n        /* \"source/Farm.sol\":32106:32222  function stake(uint256 _tokenId) external nonReentrant whenNotPaused {... */\n    tag_19:\n      tag_44\n      tag_91\n      calldatasize\n      0x04\n      tag_41\n      jump\t// in\n    tag_91:\n      tag_92\n      jump\t// in\n        /* \"source/Farm.sol\":30725:30823  function setLockTime(uint256 _lockTime) external onlyOwner {... */\n    tag_20:\n      tag_44\n      tag_94\n      calldatasize\n      0x04\n      tag_41\n      jump\t// in\n    tag_94:\n      tag_95\n      jump\t// in\n        /* \"source/Farm.sol\":30829:30951  function setRewardsPerHour(uint256 _rewardsPerHour) external onlyOwner {... */\n    tag_21:\n      tag_44\n      tag_97\n      calldatasize\n      0x04\n      tag_41\n      jump\t// in\n    tag_97:\n      tag_98\n      jump\t// in\n        /* \"source/Farm.sol\":29449:29475  IERC20 public rewardsToken */\n    tag_22:\n      sload(0x02)\n      tag_64\n      swap1\n      sub(shl(0xa0, 0x01), 0x01)\n      and\n      dup2\n      jump\n        /* \"source/Farm.sol\":28317:28518  function transferOwnership(address newOwner) public virtual onlyOwner {... */\n    tag_23:\n      tag_44\n      tag_104\n      calldatasize\n      0x04\n      tag_31\n      jump\t// in\n    tag_104:\n      tag_105\n      jump\t// in\n        /* \"source/Farm.sol\":35589:35798  function availableRewards(address _staker) public view returns (uint256) {... */\n    tag_24:\n      tag_35\n      tag_107\n      calldatasize\n      0x04\n      tag_31\n      jump\t// in\n    tag_107:\n      tag_108\n      jump\t// in\n        /* \"source/Farm.sol\":31903:32098  function adminWithdrawRewards() external onlyOwner whenPaused {... */\n    tag_25:\n      tag_44\n      tag_111\n      jump\t// in\n        /* \"source/Farm.sol\":34898:35581  function getStakedTokens_V3(address _user) public view returns (StakedToken[] memory) {... */\n    tag_32:\n      sub(shl(0xa0, 0x01), 0x01)\n        /* \"source/Farm.sol\":34999:35013  stakers[_user] */\n      dup2\n      and\n        /* \"source/Farm.sol\":35029:35030  0 */\n      0x00\n        /* \"source/Farm.sol\":34999:35013  stakers[_user] */\n      swap1\n      dup2\n      mstore\n        /* \"source/Farm.sol\":34999:35006  stakers */\n      0x09\n        /* \"source/Farm.sol\":34999:35013  stakers[_user] */\n      0x20\n      mstore\n      0x40\n      swap1\n      keccak256\n        /* \"source/Farm.sol\":34999:35026  stakers[_user].amountStaked */\n      sload\n        /* \"source/Farm.sol\":34962:34982  StakedToken[] memory */\n      0x60\n      swap1\n        /* \"source/Farm.sol\":34999:35030  stakers[_user].amountStaked > 0 */\n      iszero\n        /* \"source/Farm.sol\":34995:35574  if (stakers[_user].amountStaked > 0) {... */\n      tag_113\n      jumpi\n      sub(shl(0xa0, 0x01), 0x01)\n        /* \"source/Farm.sol\":35102:35116  stakers[_user] */\n      dup3\n      and\n        /* \"source/Farm.sol\":35047:35081  StakedToken[] memory _stakedTokens */\n      0x00\n        /* \"source/Farm.sol\":35102:35116  stakers[_user] */\n      swap1\n      dup2\n      mstore\n        /* \"source/Farm.sol\":35102:35109  stakers */\n      0x09\n        /* \"source/Farm.sol\":35102:35116  stakers[_user] */\n      0x20\n      mstore\n      0x40\n      dup2\n      keccak256\n        /* \"source/Farm.sol\":35102:35129  stakers[_user].amountStaked */\n      sload\n        /* \"source/Farm.sol\":35084:35130  new StakedToken[](stakers[_user].amountStaked) */\n      0xffffffffffffffff\n      dup2\n      gt\n      iszero\n      tag_115\n      jumpi\n      tag_115\n      tag_116\n      jump\t// in\n    tag_115:\n      mload(0x40)\n      swap1\n      dup1\n      dup3\n      mstore\n      dup1\n      0x20\n      mul\n      0x20\n      add\n      dup3\n      add\n      0x40\n      mstore\n      dup1\n      iszero\n      tag_117\n      jumpi\n      dup2\n      0x20\n      add\n    tag_118:\n      tag_119\n      mload(0x40)\n      dup1\n      0x60\n      add\n      0x40\n      mstore\n      dup1\n      and(sub(shl(0xa0, 0x01), 0x01), 0x00)\n      dup2\n      mstore\n      0x20\n      add\n      0x00\n      dup2\n      mstore\n      0x20\n      add\n      0x00\n      dup2\n      mstore\n      pop\n      swap1\n      jump\n    tag_119:\n      dup2\n      mstore\n      0x20\n      add\n      swap1\n      0x01\n      swap1\n      sub\n      swap1\n      dup2\n      tag_118\n      jumpi\n      swap1\n      pop\n    tag_117:\n      pop\n        /* \"source/Farm.sol\":35047:35130  StakedToken[] memory _stakedTokens = new StakedToken[](stakers[_user].amountStaked) */\n      swap1\n      pop\n        /* \"source/Farm.sol\":35145:35159  uint256 _index */\n      0x00\n        /* \"source/Farm.sol\":35185:35194  uint256 j */\n      dup1\n        /* \"source/Farm.sol\":35180:35466  for (uint256 j = 0; j < stakers[_user].stakedTokens.length; j++) {... */\n    tag_121:\n      sub(shl(0xa0, 0x01), 0x01)\n        /* \"source/Farm.sol\":35204:35218  stakers[_user] */\n      dup6\n      and\n      0x00\n      swap1\n      dup2\n      mstore\n        /* \"source/Farm.sol\":35204:35211  stakers */\n      0x09\n        /* \"source/Farm.sol\":35204:35218  stakers[_user] */\n      0x20\n      mstore\n      0x40\n      swap1\n      keccak256\n        /* \"source/Farm.sol\":35204:35231  stakers[_user].stakedTokens */\n      0x01\n      add\n        /* \"source/Farm.sol\":35204:35238  stakers[_user].stakedTokens.length */\n      sload\n        /* \"source/Farm.sol\":35200:35238  j < stakers[_user].stakedTokens.length */\n      dup2\n      lt\n        /* \"source/Farm.sol\":35180:35466  for (uint256 j = 0; j < stakers[_user].stakedTokens.length; j++) {... */\n      iszero\n      tag_122\n      jumpi\n      sub(shl(0xa0, 0x01), 0x01)\n        /* \"source/Farm.sol\":35268:35282  stakers[_user] */\n      dup6\n      and\n        /* \"source/Farm.sol\":35318:35319  0 */\n      0x00\n        /* \"source/Farm.sol\":35268:35282  stakers[_user] */\n      swap1\n      dup2\n      mstore\n        /* \"source/Farm.sol\":35268:35275  stakers */\n      0x09\n        /* \"source/Farm.sol\":35268:35282  stakers[_user] */\n      0x20\n      mstore\n      0x40\n      dup2\n      keccak256\n        /* \"source/Farm.sol\":35268:35295  stakers[_user].stakedTokens */\n      0x01\n      add\n        /* \"source/Farm.sol\":35268:35298  stakers[_user].stakedTokens[j] */\n      dup1\n      sload\n        /* \"source/Farm.sol\":35296:35297  j */\n      dup4\n      swap1\n        /* \"source/Farm.sol\":35268:35298  stakers[_user].stakedTokens[j] */\n      dup2\n      lt\n      tag_125\n      jumpi\n      tag_125\n      tag_126\n      jump\t// in\n    tag_125:\n      0x00\n      swap2\n      dup3\n      mstore\n      0x20\n      swap1\n      swap2\n      keccak256\n      0x03\n      swap1\n      swap2\n      mul\n      add\n        /* \"source/Farm.sol\":35268:35305  stakers[_user].stakedTokens[j].staker */\n      sload\n      sub(shl(0xa0, 0x01), 0x01)\n      and\n        /* \"source/Farm.sol\":35268:35321  stakers[_user].stakedTokens[j].staker != (address(0)) */\n      eq\n        /* \"source/Farm.sol\":35264:35451  if (stakers[_user].stakedTokens[j].staker != (address(0))) {... */\n      tag_128\n      jumpi\n      sub(shl(0xa0, 0x01), 0x01)\n        /* \"source/Farm.sol\":35370:35384  stakers[_user] */\n      dup6\n      and\n      0x00\n      swap1\n      dup2\n      mstore\n        /* \"source/Farm.sol\":35370:35377  stakers */\n      0x09\n        /* \"source/Farm.sol\":35370:35384  stakers[_user] */\n      0x20\n      mstore\n      0x40\n      swap1\n      keccak256\n        /* \"source/Farm.sol\":35370:35397  stakers[_user].stakedTokens */\n      0x01\n      add\n        /* \"source/Farm.sol\":35370:35400  stakers[_user].stakedTokens[j] */\n      dup1\n      sload\n        /* \"source/Farm.sol\":35398:35399  j */\n      dup3\n      swap1\n        /* \"source/Farm.sol\":35370:35400  stakers[_user].stakedTokens[j] */\n      dup2\n      lt\n      tag_130\n      jumpi\n      tag_130\n      tag_126\n      jump\t// in\n    tag_130:\n      0x00\n      swap2\n      dup3\n      mstore\n      0x20\n      swap2\n      dup3\n      swap1\n      keccak256\n        /* \"source/Farm.sol\":35346:35400  _stakedTokens[_index] = stakers[_user].stakedTokens[j] */\n      0x40\n      dup1\n      mload\n      0x60\n      dup2\n      add\n      dup3\n      mstore\n        /* \"source/Farm.sol\":35370:35400  stakers[_user].stakedTokens[j] */\n      0x03\n      swap1\n      swap4\n      mul\n      swap1\n      swap2\n      add\n        /* \"source/Farm.sol\":35346:35400  _stakedTokens[_index] = stakers[_user].stakedTokens[j] */\n      dup1\n      sload\n      sub(shl(0xa0, 0x01), 0x01)\n      and\n      dup4\n      mstore\n      0x01\n      dup2\n      add\n      sload\n      swap4\n      dup4\n      add\n      swap4\n      swap1\n      swap4\n      mstore\n      0x02\n      swap1\n      swap3\n      add\n      sload\n      swap2\n      dup2\n      add\n      swap2\n      swap1\n      swap2\n      mstore\n        /* \"source/Farm.sol\":35346:35367  _stakedTokens[_index] */\n      dup4\n      mload\n        /* \"source/Farm.sol\":35346:35359  _stakedTokens */\n      dup5\n      swap1\n        /* \"source/Farm.sol\":35360:35366  _index */\n      dup5\n      swap1\n        /* \"source/Farm.sol\":35346:35367  _stakedTokens[_index] */\n      dup2\n      lt\n      tag_133\n      jumpi\n      tag_133\n      tag_126\n      jump\t// in\n    tag_133:\n      0x20\n      mul\n      0x20\n      add\n      add\n        /* \"source/Farm.sol\":35346:35400  _stakedTokens[_index] = stakers[_user].stakedTokens[j] */\n      dup2\n      swap1\n      mstore\n      pop\n        /* \"source/Farm.sol\":35423:35431  _index++ */\n      dup2\n      dup1\n      tag_134\n      swap1\n      tag_135\n      jump\t// in\n    tag_134:\n      swap3\n      pop\n      pop\n        /* \"source/Farm.sol\":35264:35451  if (stakers[_user].stakedTokens[j].staker != (address(0))) {... */\n    tag_128:\n        /* \"source/Farm.sol\":35240:35243  j++ */\n      dup1\n      tag_136\n      dup2\n      tag_135\n      jump\t// in\n    tag_136:\n      swap2\n      pop\n      pop\n        /* \"source/Farm.sol\":35180:35466  for (uint256 j = 0; j < stakers[_user].stakedTokens.length; j++) {... */\n      jump(tag_121)\n    tag_122:\n      pop\n        /* \"source/Farm.sol\":35489:35502  _stakedTokens */\n      swap1\n      swap4\n        /* \"source/Farm.sol\":34898:35581  function getStakedTokens_V3(address _user) public view returns (StakedToken[] memory) {... */\n      swap3\n      pop\n      pop\n      pop\n      jump\t// out\n        /* \"source/Farm.sol\":34995:35574  if (stakers[_user].amountStaked > 0) {... */\n    tag_113:\n        /* \"source/Farm.sol\":35542:35562  new StakedToken[](0) */\n      0x40\n      dup1\n      mload\n        /* \"source/Farm.sol\":35560:35561  0 */\n      0x00\n        /* \"source/Farm.sol\":35542:35562  new StakedToken[](0) */\n      dup1\n      dup3\n      mstore\n      0x20\n      dup3\n      add\n      swap1\n      swap3\n      mstore\n      swap1\n      jump(tag_140)\n    tag_141:\n      tag_142\n      mload(0x40)\n      dup1\n      0x60\n      add\n      0x40\n      mstore\n      dup1\n      and(sub(shl(0xa0, 0x01), 0x01), 0x00)\n      dup2\n      mstore\n      0x20\n      add\n      0x00\n      dup2\n      mstore\n      0x20\n      add\n      0x00\n      dup2\n      mstore\n      pop\n      swap1\n      jump\n    tag_142:\n      dup2\n      mstore\n      0x20\n      add\n      swap1\n      0x01\n      swap1\n      sub\n      swap1\n      dup2\n      tag_141\n      jumpi\n      swap1\n      pop\n    tag_140:\n      pop\n        /* \"source/Farm.sol\":35535:35562  return new StakedToken[](0) */\n      swap3\n        /* \"source/Farm.sol\":34898:35581  function getStakedTokens_V3(address _user) public view returns (StakedToken[] memory) {... */\n      swap2\n      pop\n      pop\n      jump\t// out\n        /* \"source/Farm.sol\":32230:33659  function withdraw(uint256 _tokenId) external nonReentrant {... */\n    tag_46:\n        /* \"source/Farm.sol\":18356:18377  _nonReentrantBefore() */\n      tag_144\n        /* \"source/Farm.sol\":18356:18375  _nonReentrantBefore */\n      tag_145\n        /* \"source/Farm.sol\":18356:18377  _nonReentrantBefore() */\n      jump\t// in\n    tag_144:\n        /* \"source/Farm.sol\":32329:32339  msg.sender */\n      caller\n        /* \"source/Farm.sol\":32356:32357  0 */\n      0x00\n        /* \"source/Farm.sol\":32321:32340  stakers[msg.sender] */\n      swap1\n      dup2\n      mstore\n        /* \"source/Farm.sol\":32321:32328  stakers */\n      0x09\n        /* \"source/Farm.sol\":32321:32340  stakers[msg.sender] */\n      0x20\n      mstore\n      0x40\n      swap1\n      keccak256\n        /* \"source/Farm.sol\":32321:32353  stakers[msg.sender].amountStaked */\n      sload\n        /* \"source/Farm.sol\":32299:32410  require(... */\n      tag_147\n      jumpi\n      mload(0x40)\n      shl(0xe5, 0x461bcd)\n      dup2\n      mstore\n        /* \"#utility.yul\":4760:4762   */\n      0x20\n        /* \"source/Farm.sol\":32299:32410  require(... */\n      0x04\n      dup3\n      add\n        /* \"#utility.yul\":4742:4763   */\n      mstore\n        /* \"#utility.yul\":4799:4801   */\n      0x19\n        /* \"#utility.yul\":4779:4797   */\n      0x24\n      dup3\n      add\n        /* \"#utility.yul\":4772:4802   */\n      mstore\n        /* \"#utility.yul\":4838:4865   */\n      0x596f752068617665206e6f20746f6b656e73207374616b656400000000000000\n        /* \"#utility.yul\":4818:4836   */\n      0x44\n      dup3\n      add\n        /* \"#utility.yul\":4811:4866   */\n      mstore\n        /* \"#utility.yul\":4883:4901   */\n      0x64\n      add\n        /* \"source/Farm.sol\":32299:32410  require(... */\n    tag_148:\n      mload(0x40)\n      dup1\n      swap2\n      sub\n      swap1\n      revert\n    tag_147:\n        /* \"source/Farm.sol\":32429:32452  stakerAddress[_tokenId] */\n      0x00\n      dup2\n      dup2\n      mstore\n        /* \"source/Farm.sol\":32429:32442  stakerAddress */\n      0x0a\n        /* \"source/Farm.sol\":32429:32452  stakerAddress[_tokenId] */\n      0x20\n      mstore\n      0x40\n      swap1\n      keccak256\n      sload\n      sub(shl(0xa0, 0x01), 0x01)\n      and\n        /* \"source/Farm.sol\":32456:32466  msg.sender */\n      caller\n        /* \"source/Farm.sol\":32429:32466  stakerAddress[_tokenId] == msg.sender */\n      eq\n        /* \"source/Farm.sol\":32421:32496  require(stakerAddress[_tokenId] == msg.sender, \"You don't own this token!\") */\n      tag_150\n      jumpi\n      mload(0x40)\n      shl(0xe5, 0x461bcd)\n      dup2\n      mstore\n        /* \"#utility.yul\":5114:5116   */\n      0x20\n        /* \"source/Farm.sol\":32421:32496  require(stakerAddress[_tokenId] == msg.sender, \"You don't own this token!\") */\n      0x04\n      dup3\n      add\n        /* \"#utility.yul\":5096:5117   */\n      mstore\n        /* \"#utility.yul\":5153:5155   */\n      0x19\n        /* \"#utility.yul\":5133:5151   */\n      0x24\n      dup3\n      add\n        /* \"#utility.yul\":5126:5156   */\n      mstore\n      shl(0x38, 0x596f7520646f6e2774206f776e207468697320746f6b656e21)\n        /* \"#utility.yul\":5172:5190   */\n      0x44\n      dup3\n      add\n        /* \"#utility.yul\":5165:5220   */\n      mstore\n        /* \"#utility.yul\":5237:5255   */\n      0x64\n      add\n        /* \"source/Farm.sol\":32421:32496  require(stakerAddress[_tokenId] == msg.sender, \"You don't own this token!\") */\n      tag_148\n        /* \"#utility.yul\":4912:5261   */\n      jump\n        /* \"source/Farm.sol\":32421:32496  require(stakerAddress[_tokenId] == msg.sender, \"You don't own this token!\") */\n    tag_150:\n        /* \"source/Farm.sol\":32532:32543  lockEnabled */\n      and(0xff, sload(0x07))\n        /* \"source/Farm.sol\":32532:32609  lockEnabled && ((tokenStartStakeTime[_tokenId] + lockTime) < block.timestamp) */\n      dup1\n      iszero\n      tag_153\n      jumpi\n      pop\n        /* \"source/Farm.sol\":32581:32589  lockTime */\n      sload(0x08)\n        /* \"source/Farm.sol\":32549:32578  tokenStartStakeTime[_tokenId] */\n      0x00\n      dup3\n      dup2\n      mstore\n        /* \"source/Farm.sol\":32549:32568  tokenStartStakeTime */\n      0x0b\n        /* \"source/Farm.sol\":32549:32578  tokenStartStakeTime[_tokenId] */\n      0x20\n      mstore\n      0x40\n      swap1\n      keccak256\n      sload\n        /* \"source/Farm.sol\":32593:32608  block.timestamp */\n      timestamp\n      swap2\n        /* \"source/Farm.sol\":32549:32589  tokenStartStakeTime[_tokenId] + lockTime */\n      tag_154\n      swap2\n      tag_155\n      jump\t// in\n    tag_154:\n        /* \"source/Farm.sol\":32548:32608  (tokenStartStakeTime[_tokenId] + lockTime) < block.timestamp */\n      lt\n        /* \"source/Farm.sol\":32532:32609  lockEnabled && ((tokenStartStakeTime[_tokenId] + lockTime) < block.timestamp) */\n    tag_153:\n        /* \"source/Farm.sol\":32531:32626  (lockEnabled && ((tokenStartStakeTime[_tokenId] + lockTime) < block.timestamp)) || !lockEnabled */\n      dup1\n      tag_156\n      jumpi\n      pop\n        /* \"source/Farm.sol\":32615:32626  lockEnabled */\n      and(0xff, sload(0x07))\n        /* \"source/Farm.sol\":32614:32626  !lockEnabled */\n      iszero\n        /* \"source/Farm.sol\":32531:32626  (lockEnabled && ((tokenStartStakeTime[_tokenId] + lockTime) < block.timestamp)) || !lockEnabled */\n    tag_156:\n        /* \"source/Farm.sol\":32509:32689  require(... */\n      tag_157\n      jumpi\n      mload(0x40)\n      shl(0xe5, 0x461bcd)\n      dup2\n      mstore\n        /* \"#utility.yul\":5598:5600   */\n      0x20\n        /* \"source/Farm.sol\":32509:32689  require(... */\n      0x04\n      dup3\n      add\n        /* \"#utility.yul\":5580:5601   */\n      mstore\n        /* \"#utility.yul\":5637:5639   */\n      0x23\n        /* \"#utility.yul\":5617:5635   */\n      0x24\n      dup3\n      add\n        /* \"#utility.yul\":5610:5640   */\n      mstore\n        /* \"#utility.yul\":5676:5710   */\n      0x546f6b656e206c6f636b2074696d6520686173206e6f74207965742065787069\n        /* \"#utility.yul\":5656:5674   */\n      0x44\n      dup3\n      add\n        /* \"#utility.yul\":5649:5711   */\n      mstore\n      shl(0xea, 0x1c9959)\n        /* \"#utility.yul\":5727:5745   */\n      0x64\n      dup3\n      add\n        /* \"#utility.yul\":5720:5753   */\n      mstore\n        /* \"#utility.yul\":5770:5789   */\n      0x84\n      add\n        /* \"source/Farm.sol\":32509:32689  require(... */\n      tag_148\n        /* \"#utility.yul\":5396:5795   */\n      jump\n        /* \"source/Farm.sol\":32509:32689  require(... */\n    tag_157:\n        /* \"source/Farm.sol\":32801:32816  uint256 rewards */\n      0x00\n        /* \"source/Farm.sol\":32819:32847  calculateRewards(msg.sender) */\n      tag_160\n        /* \"source/Farm.sol\":32836:32846  msg.sender */\n      caller\n        /* \"source/Farm.sol\":32819:32835  calculateRewards */\n      tag_161\n        /* \"source/Farm.sol\":32819:32847  calculateRewards(msg.sender) */\n      jump\t// in\n    tag_160:\n        /* \"source/Farm.sol\":32866:32876  msg.sender */\n      caller\n        /* \"source/Farm.sol\":32858:32877  stakers[msg.sender] */\n      0x00\n      swap1\n      dup2\n      mstore\n        /* \"source/Farm.sol\":32858:32865  stakers */\n      0x09\n        /* \"source/Farm.sol\":32858:32877  stakers[msg.sender] */\n      0x20\n      mstore\n      0x40\n      dup2\n      keccak256\n        /* \"source/Farm.sol\":32858:32894  stakers[msg.sender].unclaimedRewards */\n      0x03\n      add\n        /* \"source/Farm.sol\":32858:32905  stakers[msg.sender].unclaimedRewards += rewards */\n      dup1\n      sload\n        /* \"source/Farm.sol\":32801:32847  uint256 rewards = calculateRewards(msg.sender) */\n      swap3\n      swap4\n      pop\n      dup4\n      swap3\n        /* \"source/Farm.sol\":32858:32894  stakers[msg.sender].unclaimedRewards */\n      swap1\n      swap2\n        /* \"source/Farm.sol\":32858:32877  stakers[msg.sender] */\n      swap1\n        /* \"source/Farm.sol\":32858:32905  stakers[msg.sender].unclaimedRewards += rewards */\n      tag_162\n      swap1\n        /* \"source/Farm.sol\":32801:32847  uint256 rewards = calculateRewards(msg.sender) */\n      dup5\n      swap1\n        /* \"source/Farm.sol\":32858:32905  stakers[msg.sender].unclaimedRewards += rewards */\n      tag_155\n      jump\t// in\n    tag_162:\n      swap1\n      swap2\n      sstore\n      pop\n        /* \"source/Farm.sol\":32920:32933  uint256 index */\n      0x00\n      swap1\n      pop\n      dup1\n        /* \"source/Farm.sol\":32948:33301  for (uint256 i = 0; i < stakers[msg.sender].stakedTokens.length; i++) {... */\n    tag_163:\n        /* \"source/Farm.sol\":32980:32990  msg.sender */\n      caller\n        /* \"source/Farm.sol\":32972:32991  stakers[msg.sender] */\n      0x00\n      swap1\n      dup2\n      mstore\n        /* \"source/Farm.sol\":32972:32979  stakers */\n      0x09\n        /* \"source/Farm.sol\":32972:32991  stakers[msg.sender] */\n      0x20\n      mstore\n      0x40\n      swap1\n      keccak256\n        /* \"source/Farm.sol\":32972:33004  stakers[msg.sender].stakedTokens */\n      0x01\n      add\n        /* \"source/Farm.sol\":32972:33011  stakers[msg.sender].stakedTokens.length */\n      sload\n        /* \"source/Farm.sol\":32968:33011  i < stakers[msg.sender].stakedTokens.length */\n      dup2\n      lt\n        /* \"source/Farm.sol\":32948:33301  for (uint256 i = 0; i < stakers[msg.sender].stakedTokens.length; i++) {... */\n      iszero\n      tag_164\n      jumpi\n        /* \"source/Farm.sol\":33063:33073  msg.sender */\n      caller\n        /* \"source/Farm.sol\":33055:33074  stakers[msg.sender] */\n      0x00\n      swap1\n      dup2\n      mstore\n        /* \"source/Farm.sol\":33055:33062  stakers */\n      0x09\n        /* \"source/Farm.sol\":33055:33074  stakers[msg.sender] */\n      0x20\n      mstore\n      0x40\n      swap1\n      keccak256\n        /* \"source/Farm.sol\":33055:33087  stakers[msg.sender].stakedTokens */\n      0x01\n      add\n        /* \"source/Farm.sol\":33055:33090  stakers[msg.sender].stakedTokens[i] */\n      dup1\n      sload\n        /* \"source/Farm.sol\":33102:33110  _tokenId */\n      dup6\n      swap2\n        /* \"source/Farm.sol\":33055:33087  stakers[msg.sender].stakedTokens */\n      swap1\n        /* \"source/Farm.sol\":33088:33089  i */\n      dup4\n      swap1\n        /* \"source/Farm.sol\":33055:33090  stakers[msg.sender].stakedTokens[i] */\n      dup2\n      lt\n      tag_167\n      jumpi\n      tag_167\n      tag_126\n      jump\t// in\n    tag_167:\n      swap1\n      0x00\n      mstore\n      keccak256(0x00, 0x20)\n      swap1\n      0x03\n      mul\n      add\n        /* \"source/Farm.sol\":33055:33098  stakers[msg.sender].stakedTokens[i].tokenId */\n      0x01\n      add\n      sload\n        /* \"source/Farm.sol\":33055:33110  stakers[msg.sender].stakedTokens[i].tokenId == _tokenId */\n      eq\n        /* \"source/Farm.sol\":33055:33206  stakers[msg.sender].stakedTokens[i].tokenId == _tokenId ... */\n      dup1\n      iszero\n      tag_169\n      jumpi\n      pop\n        /* \"source/Farm.sol\":33158:33168  msg.sender */\n      caller\n        /* \"source/Farm.sol\":33204:33205  0 */\n      0x00\n        /* \"source/Farm.sol\":33150:33169  stakers[msg.sender] */\n      swap1\n      dup2\n      mstore\n        /* \"source/Farm.sol\":33150:33157  stakers */\n      0x09\n        /* \"source/Farm.sol\":33150:33169  stakers[msg.sender] */\n      0x20\n      mstore\n      0x40\n      dup2\n      keccak256\n        /* \"source/Farm.sol\":33150:33182  stakers[msg.sender].stakedTokens */\n      0x01\n      add\n        /* \"source/Farm.sol\":33150:33185  stakers[msg.sender].stakedTokens[i] */\n      dup1\n      sload\n        /* \"source/Farm.sol\":33183:33184  i */\n      dup4\n      swap1\n        /* \"source/Farm.sol\":33150:33185  stakers[msg.sender].stakedTokens[i] */\n      dup2\n      lt\n      tag_171\n      jumpi\n      tag_171\n      tag_126\n      jump\t// in\n    tag_171:\n      0x00\n      swap2\n      dup3\n      mstore\n      0x20\n      swap1\n      swap2\n      keccak256\n      0x03\n      swap1\n      swap2\n      mul\n      add\n        /* \"source/Farm.sol\":33150:33192  stakers[msg.sender].stakedTokens[i].staker */\n      sload\n      sub(shl(0xa0, 0x01), 0x01)\n      and\n        /* \"source/Farm.sol\":33150:33206  stakers[msg.sender].stakedTokens[i].staker != address(0) */\n      eq\n      iszero\n        /* \"source/Farm.sol\":33055:33206  stakers[msg.sender].stakedTokens[i].tokenId == _tokenId ... */\n    tag_169:\n        /* \"source/Farm.sol\":33033:33290  if (... */\n      iszero\n      tag_173\n      jumpi\n        /* \"source/Farm.sol\":33249:33250  i */\n      dup1\n        /* \"source/Farm.sol\":33241:33250  index = i */\n      swap2\n      pop\n        /* \"source/Farm.sol\":33269:33274  break */\n      jump(tag_164)\n        /* \"source/Farm.sol\":33033:33290  if (... */\n    tag_173:\n        /* \"source/Farm.sol\":33013:33016  i++ */\n      dup1\n      tag_174\n      dup2\n      tag_135\n      jump\t// in\n    tag_174:\n      swap2\n      pop\n      pop\n        /* \"source/Farm.sol\":32948:33301  for (uint256 i = 0; i < stakers[msg.sender].stakedTokens.length; i++) {... */\n      jump(tag_163)\n    tag_164:\n      pop\n        /* \"source/Farm.sol\":33323:33333  msg.sender */\n      caller\n        /* \"source/Farm.sol\":33372:33373  0 */\n      0x00\n        /* \"source/Farm.sol\":33315:33334  stakers[msg.sender] */\n      swap1\n      dup2\n      mstore\n        /* \"source/Farm.sol\":33315:33322  stakers */\n      0x09\n        /* \"source/Farm.sol\":33315:33334  stakers[msg.sender] */\n      0x20\n      mstore\n      0x40\n      dup2\n      keccak256\n        /* \"source/Farm.sol\":33315:33347  stakers[msg.sender].stakedTokens */\n      0x01\n      add\n        /* \"source/Farm.sol\":33315:33354  stakers[msg.sender].stakedTokens[index] */\n      dup1\n      sload\n        /* \"source/Farm.sol\":33348:33353  index */\n      dup4\n      swap1\n        /* \"source/Farm.sol\":33315:33354  stakers[msg.sender].stakedTokens[index] */\n      dup2\n      lt\n      tag_176\n      jumpi\n      tag_176\n      tag_126\n      jump\t// in\n    tag_176:\n      0x00\n      swap2\n      dup3\n      mstore\n      0x20\n      dup1\n      dup4\n      keccak256\n      0x03\n      swap3\n      swap1\n      swap3\n      mul\n      swap1\n      swap2\n      add\n        /* \"source/Farm.sol\":33315:33374  stakers[msg.sender].stakedTokens[index].staker = address(0) */\n      dup1\n      sload\n      not(sub(shl(0xa0, 0x01), 0x01))\n      and\n      sub(shl(0xa0, 0x01), 0x01)\n      swap5\n      swap1\n      swap5\n      and\n      swap4\n      swap1\n      swap4\n      or\n      swap1\n      swap3\n      sstore\n        /* \"source/Farm.sol\":33393:33403  msg.sender */\n      caller\n        /* \"source/Farm.sol\":33385:33404  stakers[msg.sender] */\n      dup2\n      mstore\n        /* \"source/Farm.sol\":33385:33392  stakers */\n      0x09\n        /* \"source/Farm.sol\":33385:33404  stakers[msg.sender] */\n      swap1\n      swap2\n      mstore\n      0x40\n      dup2\n      keccak256\n        /* \"source/Farm.sol\":33385:33419  stakers[msg.sender].amountStaked-- */\n      dup1\n      sload\n      swap2\n      tag_178\n      dup4\n      tag_179\n      jump\t// in\n    tag_178:\n      swap1\n      swap2\n      sstore\n      pop\n      pop\n        /* \"source/Farm.sol\":33464:33465  0 */\n      0x00\n        /* \"source/Farm.sol\":33430:33453  stakerAddress[_tokenId] */\n      dup4\n      dup2\n      mstore\n        /* \"source/Farm.sol\":33430:33443  stakerAddress */\n      0x0a\n        /* \"source/Farm.sol\":33430:33453  stakerAddress[_tokenId] */\n      0x20\n      swap1\n      dup2\n      mstore\n      0x40\n      dup1\n      dup4\n      keccak256\n        /* \"source/Farm.sol\":33430:33466  stakerAddress[_tokenId] = address(0) */\n      dup1\n      sload\n      not(sub(shl(0xa0, 0x01), 0x01))\n      and\n      swap1\n      sstore\n        /* \"source/Farm.sol\":33477:33496  tokenStartStakeTime */\n      0x0b\n        /* \"source/Farm.sol\":33477:33506  tokenStartStakeTime[_tokenId] */\n      swap1\n      swap2\n      mstore\n      dup1\n      dup3\n      keccak256\n        /* \"source/Farm.sol\":33477:33510  tokenStartStakeTime[_tokenId] = 0 */\n      swap2\n      swap1\n      swap2\n      sstore\n        /* \"source/Farm.sol\":33523:33536  nftCollection */\n      sload(0x03)\n        /* \"source/Farm.sol\":33523:33586  nftCollection.transferFrom(address(this), msg.sender, _tokenId) */\n      swap1\n      mload\n      shl(0xe0, 0x23b872dd)\n      dup2\n      mstore\n        /* \"source/Farm.sol\":33558:33562  this */\n      address\n        /* \"source/Farm.sol\":33523:33586  nftCollection.transferFrom(address(this), msg.sender, _tokenId) */\n      0x04\n      dup3\n      add\n        /* \"#utility.yul\":6181:6215   */\n      mstore\n        /* \"source/Farm.sol\":33565:33575  msg.sender */\n      caller\n        /* \"#utility.yul\":6231:6249   */\n      0x24\n      dup3\n      add\n        /* \"#utility.yul\":6224:6267   */\n      mstore\n        /* \"#utility.yul\":6283:6301   */\n      0x44\n      dup2\n      add\n        /* \"#utility.yul\":6276:6310   */\n      dup6\n      swap1\n      mstore\n      sub(shl(0xa0, 0x01), 0x01)\n        /* \"source/Farm.sol\":33523:33536  nftCollection */\n      swap1\n      swap2\n      and\n      swap1\n        /* \"source/Farm.sol\":33523:33549  nftCollection.transferFrom */\n      0x23b872dd\n      swap1\n        /* \"#utility.yul\":6116:6134   */\n      0x64\n      add\n        /* \"source/Farm.sol\":33523:33586  nftCollection.transferFrom(address(this), msg.sender, _tokenId) */\n      0x00\n      mload(0x40)\n      dup1\n      dup4\n      sub\n      dup2\n      0x00\n      dup8\n      dup1\n      extcodesize\n      iszero\n      dup1\n      iszero\n      tag_182\n      jumpi\n      0x00\n      dup1\n      revert\n    tag_182:\n      pop\n      gas\n      call\n      iszero\n      dup1\n      iszero\n      tag_184\n      jumpi\n      returndatasize\n      0x00\n      dup1\n      returndatacopy\n      revert(0x00, returndatasize)\n    tag_184:\n      pop\n      pop\n        /* \"source/Farm.sol\":33605:33615  msg.sender */\n      caller\n        /* \"source/Farm.sol\":33597:33616  stakers[msg.sender] */\n      0x00\n      swap1\n      dup2\n      mstore\n        /* \"source/Farm.sol\":33597:33604  stakers */\n      0x09\n        /* \"source/Farm.sol\":33597:33616  stakers[msg.sender] */\n      0x20\n      mstore\n      0x40\n      swap1\n      keccak256\n        /* \"source/Farm.sol\":33636:33651  block.timestamp */\n      timestamp\n        /* \"source/Farm.sol\":33597:33633  stakers[msg.sender].timeOfLastUpdate */\n      0x02\n      swap1\n      swap2\n      add\n        /* \"source/Farm.sol\":33597:33651  stakers[msg.sender].timeOfLastUpdate = block.timestamp */\n      sstore\n      pop\n        /* \"source/Farm.sol\":18400:18420  _nonReentrantAfter() */\n      tag_185\n      swap3\n      pop\n        /* \"source/Farm.sol\":18400:18418  _nonReentrantAfter */\n      tag_186\n      swap2\n      pop\n      pop\n        /* \"source/Farm.sol\":18400:18420  _nonReentrantAfter() */\n      jump\t// in\n    tag_185:\n        /* \"source/Farm.sol\":32230:33659  function withdraw(uint256 _tokenId) external nonReentrant {... */\n      pop\n      jump\t// out\n        /* \"source/Farm.sol\":33975:34361  function claimRewards() external {... */\n    tag_52:\n        /* \"source/Farm.sol\":34089:34099  msg.sender */\n      caller\n        /* \"source/Farm.sol\":34019:34034  uint256 rewards */\n      0x00\n        /* \"source/Farm.sol\":34081:34100  stakers[msg.sender] */\n      dup2\n      dup2\n      mstore\n        /* \"source/Farm.sol\":34081:34088  stakers */\n      0x09\n        /* \"source/Farm.sol\":34081:34100  stakers[msg.sender] */\n      0x20\n      mstore\n      0x40\n      dup2\n      keccak256\n        /* \"source/Farm.sol\":34081:34117  stakers[msg.sender].unclaimedRewards */\n      0x03\n      add\n      sload\n        /* \"source/Farm.sol\":34019:34034  uint256 rewards */\n      swap1\n      swap2\n        /* \"source/Farm.sol\":34037:34065  calculateRewards(msg.sender) */\n      tag_188\n      swap1\n        /* \"source/Farm.sol\":34037:34053  calculateRewards */\n      tag_161\n        /* \"source/Farm.sol\":34037:34065  calculateRewards(msg.sender) */\n      jump\t// in\n    tag_188:\n        /* \"source/Farm.sol\":34037:34117  calculateRewards(msg.sender) +... */\n      tag_189\n      swap2\n      swap1\n      tag_155\n      jump\t// in\n    tag_189:\n        /* \"source/Farm.sol\":34019:34117  uint256 rewards = calculateRewards(msg.sender) +... */\n      swap1\n      pop\n        /* \"source/Farm.sol\":34146:34147  0 */\n      0x00\n        /* \"source/Farm.sol\":34136:34143  rewards */\n      dup2\n        /* \"source/Farm.sol\":34136:34147  rewards > 0 */\n      gt\n        /* \"source/Farm.sol\":34128:34180  require(rewards > 0, \"You have no rewards to claim\") */\n      tag_190\n      jumpi\n      mload(0x40)\n      shl(0xe5, 0x461bcd)\n      dup2\n      mstore\n        /* \"#utility.yul\":6523:6525   */\n      0x20\n        /* \"source/Farm.sol\":34128:34180  require(rewards > 0, \"You have no rewards to claim\") */\n      0x04\n      dup3\n      add\n        /* \"#utility.yul\":6505:6526   */\n      mstore\n        /* \"#utility.yul\":6562:6564   */\n      0x1c\n        /* \"#utility.yul\":6542:6560   */\n      0x24\n      dup3\n      add\n        /* \"#utility.yul\":6535:6565   */\n      mstore\n        /* \"#utility.yul\":6601:6631   */\n      0x596f752068617665206e6f207265776172647320746f20636c61696d00000000\n        /* \"#utility.yul\":6581:6599   */\n      0x44\n      dup3\n      add\n        /* \"#utility.yul\":6574:6632   */\n      mstore\n        /* \"#utility.yul\":6649:6667   */\n      0x64\n      add\n        /* \"source/Farm.sol\":34128:34180  require(rewards > 0, \"You have no rewards to claim\") */\n      tag_148\n        /* \"#utility.yul\":6321:6673   */\n      jump\n        /* \"source/Farm.sol\":34128:34180  require(rewards > 0, \"You have no rewards to claim\") */\n    tag_190:\n        /* \"source/Farm.sol\":34199:34209  msg.sender */\n      caller\n        /* \"source/Farm.sol\":34191:34210  stakers[msg.sender] */\n      0x00\n      dup2\n      dup2\n      mstore\n        /* \"source/Farm.sol\":34191:34198  stakers */\n      0x09\n        /* \"source/Farm.sol\":34191:34210  stakers[msg.sender] */\n      0x20\n      mstore\n      0x40\n      dup2\n      keccak256\n        /* \"source/Farm.sol\":34230:34245  block.timestamp */\n      timestamp\n        /* \"source/Farm.sol\":34191:34227  stakers[msg.sender].timeOfLastUpdate */\n      0x02\n      dup1\n      dup4\n      add\n        /* \"source/Farm.sol\":34191:34245  stakers[msg.sender].timeOfLastUpdate = block.timestamp */\n      swap2\n      swap1\n      swap2\n      sstore\n        /* \"source/Farm.sol\":34256:34292  stakers[msg.sender].unclaimedRewards */\n      0x03\n      swap1\n      swap2\n      add\n        /* \"source/Farm.sol\":34256:34296  stakers[msg.sender].unclaimedRewards = 0 */\n      swap2\n      swap1\n      swap2\n      sstore\n        /* \"source/Farm.sol\":34307:34319  rewardsToken */\n      sload\n        /* \"source/Farm.sol\":34307:34353  rewardsToken.safeTransfer(msg.sender, rewards) */\n      tag_185\n      swap2\n      sub(shl(0xa0, 0x01), 0x01)\n        /* \"source/Farm.sol\":34307:34319  rewardsToken */\n      swap1\n      swap2\n      and\n      swap1\n        /* \"source/Farm.sol\":34345:34352  rewards */\n      dup4\n        /* \"source/Farm.sol\":34307:34332  rewardsToken.safeTransfer */\n      tag_194\n        /* \"source/Farm.sol\":34307:34353  rewardsToken.safeTransfer(msg.sender, rewards) */\n      jump\t// in\n        /* \"source/Farm.sol\":34369:34892  function getStakedTokens(address _user) public view returns (StakedToken_V1[] memory) {... */\n    tag_61:\n        /* \"source/Farm.sol\":34430:34453  StakedToken_V1[] memory */\n      0x60\n        /* \"source/Farm.sol\":34466:34500  StakedToken[] memory _stakedTokens */\n      0x00\n        /* \"source/Farm.sol\":34503:34528  getStakedTokens_V3(_user) */\n      tag_197\n        /* \"source/Farm.sol\":34522:34527  _user */\n      dup4\n        /* \"source/Farm.sol\":34503:34521  getStakedTokens_V3 */\n      tag_32\n        /* \"source/Farm.sol\":34503:34528  getStakedTokens_V3(_user) */\n      jump\t// in\n    tag_197:\n        /* \"source/Farm.sol\":34466:34528  StakedToken[] memory _stakedTokens = getStakedTokens_V3(_user) */\n      swap1\n      pop\n        /* \"source/Farm.sol\":34539:34580  StakedToken_V1[] memory _stakedTokesV1_V2 */\n      0x00\n        /* \"source/Farm.sol\":34604:34617  _stakedTokens */\n      dup2\n        /* \"source/Farm.sol\":34604:34624  _stakedTokens.length */\n      mload\n        /* \"source/Farm.sol\":34583:34625  new StakedToken_V1[](_stakedTokens.length) */\n      0xffffffffffffffff\n      dup2\n      gt\n      iszero\n      tag_199\n      jumpi\n      tag_199\n      tag_116\n      jump\t// in\n    tag_199:\n      mload(0x40)\n      swap1\n      dup1\n      dup3\n      mstore\n      dup1\n      0x20\n      mul\n      0x20\n      add\n      dup3\n      add\n      0x40\n      mstore\n      dup1\n      iszero\n      tag_200\n      jumpi\n      dup2\n      0x20\n      add\n    tag_201:\n      0x40\n      dup1\n      mload\n      dup1\n      dup3\n      add\n      swap1\n      swap2\n      mstore\n      0x00\n      dup1\n      dup3\n      mstore\n      0x20\n      dup3\n      add\n      mstore\n      dup2\n      mstore\n      0x20\n      add\n      swap1\n      0x01\n      swap1\n      sub\n      swap1\n      dup2\n      tag_201\n      jumpi\n      swap1\n      pop\n    tag_200:\n      pop\n        /* \"source/Farm.sol\":34539:34625  StakedToken_V1[] memory _stakedTokesV1_V2 = new StakedToken_V1[](_stakedTokens.length) */\n      swap1\n      pop\n        /* \"source/Farm.sol\":34640:34649  uint256 k */\n      0x00\n        /* \"source/Farm.sol\":34636:34850  for(uint256 k = 0; k > _stakedTokens.length; k++) {... */\n    tag_204:\n        /* \"source/Farm.sol\":34659:34672  _stakedTokens */\n      dup3\n        /* \"source/Farm.sol\":34659:34679  _stakedTokens.length */\n      mload\n        /* \"source/Farm.sol\":34655:34656  k */\n      dup2\n        /* \"source/Farm.sol\":34655:34679  k > _stakedTokens.length */\n      gt\n        /* \"source/Farm.sol\":34636:34850  for(uint256 k = 0; k > _stakedTokens.length; k++) {... */\n      iszero\n      tag_205\n      jumpi\n        /* \"source/Farm.sol\":34724:34838  StakedToken_V1(... */\n      mload(0x40)\n      dup1\n      0x40\n      add\n      0x40\n      mstore\n      dup1\n        /* \"source/Farm.sol\":34757:34770  _stakedTokens */\n      dup5\n        /* \"source/Farm.sol\":34771:34772  k */\n      dup4\n        /* \"source/Farm.sol\":34757:34773  _stakedTokens[k] */\n      dup2\n      mload\n      dup2\n      lt\n      tag_208\n      jumpi\n      tag_208\n      tag_126\n      jump\t// in\n    tag_208:\n      0x20\n      mul\n      0x20\n      add\n      add\n      mload\n        /* \"source/Farm.sol\":34757:34780  _stakedTokens[k].staker */\n      0x00\n      add\n      mload\n      sub(shl(0xa0, 0x01), 0x01)\n        /* \"source/Farm.sol\":34724:34838  StakedToken_V1(... */\n      and\n      dup2\n      mstore\n      0x20\n      add\n        /* \"source/Farm.sol\":34799:34812  _stakedTokens */\n      dup5\n        /* \"source/Farm.sol\":34813:34814  k */\n      dup4\n        /* \"source/Farm.sol\":34799:34815  _stakedTokens[k] */\n      dup2\n      mload\n      dup2\n      lt\n      tag_210\n      jumpi\n      tag_210\n      tag_126\n      jump\t// in\n    tag_210:\n      0x20\n      mul\n      0x20\n      add\n      add\n      mload\n        /* \"source/Farm.sol\":34799:34823  _stakedTokens[k].tokenId */\n      0x20\n      add\n      mload\n        /* \"source/Farm.sol\":34724:34838  StakedToken_V1(... */\n      dup2\n      mstore\n      pop\n        /* \"source/Farm.sol\":34701:34718  _stakedTokesV1_V2 */\n      dup3\n        /* \"source/Farm.sol\":34719:34720  k */\n      dup3\n        /* \"source/Farm.sol\":34701:34721  _stakedTokesV1_V2[k] */\n      dup2\n      mload\n      dup2\n      lt\n      tag_212\n      jumpi\n      tag_212\n      tag_126\n      jump\t// in\n    tag_212:\n      0x20\n      mul\n      0x20\n      add\n      add\n        /* \"source/Farm.sol\":34701:34838  _stakedTokesV1_V2[k] = StakedToken_V1(... */\n      dup2\n      swap1\n      mstore\n      pop\n        /* \"source/Farm.sol\":34681:34684  k++ */\n      dup1\n      dup1\n      tag_213\n      swap1\n      tag_135\n      jump\t// in\n    tag_213:\n      swap2\n      pop\n      pop\n        /* \"source/Farm.sol\":34636:34850  for(uint256 k = 0; k > _stakedTokens.length; k++) {... */\n      jump(tag_204)\n    tag_205:\n      pop\n        /* \"source/Farm.sol\":34867:34884  _stakedTokesV1_V2 */\n      swap4\n        /* \"source/Farm.sol\":34369:34892  function getStakedTokens(address _user) public view returns (StakedToken_V1[] memory) {... */\n      swap3\n      pop\n      pop\n      pop\n      jump\t// out\n        /* \"source/Farm.sol\":30601:30708  function setLockEnabled(bool _lockEnabled) external onlyOwner {... */\n    tag_71:\n        /* \"source/Farm.sol\":27297:27310  _checkOwner() */\n      tag_215\n        /* \"source/Farm.sol\":27297:27308  _checkOwner */\n      tag_216\n        /* \"source/Farm.sol\":27297:27310  _checkOwner() */\n      jump\t// in\n    tag_215:\n        /* \"source/Farm.sol\":30674:30685  lockEnabled */\n      0x07\n        /* \"source/Farm.sol\":30674:30700  lockEnabled = _lockEnabled */\n      dup1\n      sload\n      not(0xff)\n      and\n      swap2\n      iszero\n      iszero\n      swap2\n      swap1\n      swap2\n      or\n      swap1\n      sstore\n        /* \"source/Farm.sol\":30601:30708  function setLockEnabled(bool _lockEnabled) external onlyOwner {... */\n      jump\t// out\n        /* \"source/Farm.sol\":28059:28162  function renounceOwnership() public virtual onlyOwner {... */\n    tag_73:\n        /* \"source/Farm.sol\":27297:27310  _checkOwner() */\n      tag_219\n        /* \"source/Farm.sol\":27297:27308  _checkOwner */\n      tag_216\n        /* \"source/Farm.sol\":27297:27310  _checkOwner() */\n      jump\t// in\n    tag_219:\n        /* \"source/Farm.sol\":28124:28154  _transferOwnership(address(0)) */\n      tag_221\n        /* \"source/Farm.sol\":28151:28152  0 */\n      0x00\n        /* \"source/Farm.sol\":28124:28142  _transferOwnership */\n      tag_222\n        /* \"source/Farm.sol\":28124:28154  _transferOwnership(address(0)) */\n      jump\t// in\n    tag_221:\n        /* \"source/Farm.sol\":28059:28162  function renounceOwnership() public virtual onlyOwner {... */\n      jump\t// out\n        /* \"source/Farm.sol\":32106:32222  function stake(uint256 _tokenId) external nonReentrant whenNotPaused {... */\n    tag_92:\n        /* \"source/Farm.sol\":18356:18377  _nonReentrantBefore() */\n      tag_225\n        /* \"source/Farm.sol\":18356:18375  _nonReentrantBefore */\n      tag_145\n        /* \"source/Farm.sol\":18356:18377  _nonReentrantBefore() */\n      jump\t// in\n    tag_225:\n        /* \"source/Farm.sol\":15577:15596  _requireNotPaused() */\n      tag_227\n        /* \"source/Farm.sol\":15577:15594  _requireNotPaused */\n      tag_228\n        /* \"source/Farm.sol\":15577:15596  _requireNotPaused() */\n      jump\t// in\n    tag_227:\n        /* \"source/Farm.sol\":32186:32214  _stake(msg.sender, _tokenId) */\n      tag_230\n        /* \"source/Farm.sol\":32193:32203  msg.sender */\n      caller\n        /* \"source/Farm.sol\":32205:32213  _tokenId */\n      dup3\n        /* \"source/Farm.sol\":32186:32192  _stake */\n      tag_231\n        /* \"source/Farm.sol\":32186:32214  _stake(msg.sender, _tokenId) */\n      jump\t// in\n    tag_230:\n        /* \"source/Farm.sol\":18400:18420  _nonReentrantAfter() */\n      tag_185\n        /* \"source/Farm.sol\":17794:17795  1 */\n      0x01\n        /* \"source/Farm.sol\":18916:18923  _status */\n      0x00\n        /* \"source/Farm.sol\":18916:18938  _status = _NOT_ENTERED */\n      sstore\n        /* \"source/Farm.sol\":18733:18946  function _nonReentrantAfter() private {... */\n      jump\n        /* \"source/Farm.sol\":30725:30823  function setLockTime(uint256 _lockTime) external onlyOwner {... */\n    tag_95:\n        /* \"source/Farm.sol\":27297:27310  _checkOwner() */\n      tag_234\n        /* \"source/Farm.sol\":27297:27308  _checkOwner */\n      tag_216\n        /* \"source/Farm.sol\":27297:27310  _checkOwner() */\n      jump\t// in\n    tag_234:\n        /* \"source/Farm.sol\":30795:30803  lockTime */\n      0x08\n        /* \"source/Farm.sol\":30795:30815  lockTime = _lockTime */\n      sstore\n        /* \"source/Farm.sol\":30725:30823  function setLockTime(uint256 _lockTime) external onlyOwner {... */\n      jump\t// out\n        /* \"source/Farm.sol\":30829:30951  function setRewardsPerHour(uint256 _rewardsPerHour) external onlyOwner {... */\n    tag_98:\n        /* \"source/Farm.sol\":27297:27310  _checkOwner() */\n      tag_237\n        /* \"source/Farm.sol\":27297:27308  _checkOwner */\n      tag_216\n        /* \"source/Farm.sol\":27297:27310  _checkOwner() */\n      jump\t// in\n    tag_237:\n        /* \"source/Farm.sol\":30911:30925  rewardsPerHour */\n      0x05\n        /* \"source/Farm.sol\":30911:30943  rewardsPerHour = _rewardsPerHour */\n      sstore\n        /* \"source/Farm.sol\":30829:30951  function setRewardsPerHour(uint256 _rewardsPerHour) external onlyOwner {... */\n      jump\t// out\n        /* \"source/Farm.sol\":28317:28518  function transferOwnership(address newOwner) public virtual onlyOwner {... */\n    tag_105:\n        /* \"source/Farm.sol\":27297:27310  _checkOwner() */\n      tag_240\n        /* \"source/Farm.sol\":27297:27308  _checkOwner */\n      tag_216\n        /* \"source/Farm.sol\":27297:27310  _checkOwner() */\n      jump\t// in\n    tag_240:\n      sub(shl(0xa0, 0x01), 0x01)\n        /* \"source/Farm.sol\":28406:28428  newOwner != address(0) */\n      dup2\n      and\n        /* \"source/Farm.sol\":28398:28471  require(newOwner != address(0), \"Ownable: new owner is the zero address\") */\n      tag_242\n      jumpi\n      mload(0x40)\n      shl(0xe5, 0x461bcd)\n      dup2\n      mstore\n        /* \"#utility.yul\":6880:6882   */\n      0x20\n        /* \"source/Farm.sol\":28398:28471  require(newOwner != address(0), \"Ownable: new owner is the zero address\") */\n      0x04\n      dup3\n      add\n        /* \"#utility.yul\":6862:6883   */\n      mstore\n        /* \"#utility.yul\":6919:6921   */\n      0x26\n        /* \"#utility.yul\":6899:6917   */\n      0x24\n      dup3\n      add\n        /* \"#utility.yul\":6892:6922   */\n      mstore\n        /* \"#utility.yul\":6958:6992   */\n      0x4f776e61626c653a206e6577206f776e657220697320746865207a65726f2061\n        /* \"#utility.yul\":6938:6956   */\n      0x44\n      dup3\n      add\n        /* \"#utility.yul\":6931:6993   */\n      mstore\n      shl(0xd0, 0x646472657373)\n        /* \"#utility.yul\":7009:7027   */\n      0x64\n      dup3\n      add\n        /* \"#utility.yul\":7002:7038   */\n      mstore\n        /* \"#utility.yul\":7055:7074   */\n      0x84\n      add\n        /* \"source/Farm.sol\":28398:28471  require(newOwner != address(0), \"Ownable: new owner is the zero address\") */\n      tag_148\n        /* \"#utility.yul\":6678:7080   */\n      jump\n        /* \"source/Farm.sol\":28398:28471  require(newOwner != address(0), \"Ownable: new owner is the zero address\") */\n    tag_242:\n        /* \"source/Farm.sol\":28482:28510  _transferOwnership(newOwner) */\n      tag_185\n        /* \"source/Farm.sol\":28501:28509  newOwner */\n      dup2\n        /* \"source/Farm.sol\":28482:28500  _transferOwnership */\n      tag_222\n        /* \"source/Farm.sol\":28482:28510  _transferOwnership(newOwner) */\n      jump\t// in\n        /* \"source/Farm.sol\":35589:35798  function availableRewards(address _staker) public view returns (uint256) {... */\n    tag_108:\n      sub(shl(0xa0, 0x01), 0x01)\n        /* \"source/Farm.sol\":35732:35748  stakers[_staker] */\n      dup2\n      and\n        /* \"source/Farm.sol\":35653:35660  uint256 */\n      0x00\n        /* \"source/Farm.sol\":35732:35748  stakers[_staker] */\n      swap1\n      dup2\n      mstore\n        /* \"source/Farm.sol\":35732:35739  stakers */\n      0x09\n        /* \"source/Farm.sol\":35732:35748  stakers[_staker] */\n      0x20\n      mstore\n      0x40\n      dup2\n      keccak256\n        /* \"source/Farm.sol\":35732:35765  stakers[_staker].unclaimedRewards */\n      0x03\n      add\n      sload\n        /* \"source/Farm.sol\":35653:35660  uint256 */\n      dup2\n      swap1\n        /* \"source/Farm.sol\":35691:35716  calculateRewards(_staker) */\n      tag_247\n        /* \"source/Farm.sol\":35740:35747  _staker */\n      dup5\n        /* \"source/Farm.sol\":35691:35707  calculateRewards */\n      tag_161\n        /* \"source/Farm.sol\":35691:35716  calculateRewards(_staker) */\n      jump\t// in\n    tag_247:\n        /* \"source/Farm.sol\":35691:35765  calculateRewards(_staker) +... */\n      tag_248\n      swap2\n      swap1\n      tag_155\n      jump\t// in\n    tag_248:\n        /* \"source/Farm.sol\":35673:35765  uint256 rewards = calculateRewards(_staker) +... */\n      swap4\n        /* \"source/Farm.sol\":35589:35798  function availableRewards(address _staker) public view returns (uint256) {... */\n      swap3\n      pop\n      pop\n      pop\n      jump\t// out\n        /* \"source/Farm.sol\":31903:32098  function adminWithdrawRewards() external onlyOwner whenPaused {... */\n    tag_111:\n        /* \"source/Farm.sol\":27297:27310  _checkOwner() */\n      tag_250\n        /* \"source/Farm.sol\":27297:27308  _checkOwner */\n      tag_216\n        /* \"source/Farm.sol\":27297:27310  _checkOwner() */\n      jump\t// in\n    tag_250:\n        /* \"source/Farm.sol\":15836:15852  _requirePaused() */\n      tag_252\n        /* \"source/Farm.sol\":15836:15850  _requirePaused */\n      tag_253\n        /* \"source/Farm.sol\":15836:15852  _requirePaused() */\n      jump\t// in\n    tag_252:\n        /* \"source/Farm.sol\":31995:32007  rewardsToken */\n      sload(0x02)\n        /* \"source/Farm.sol\":31995:32032  rewardsToken.balanceOf(address(this)) */\n      mload(0x40)\n      shl(0xe0, 0x70a08231)\n      dup2\n      mstore\n        /* \"source/Farm.sol\":32026:32030  this */\n      address\n        /* \"source/Farm.sol\":31995:32032  rewardsToken.balanceOf(address(this)) */\n      0x04\n      dup3\n      add\n        /* \"#utility.yul\":2837:2888   */\n      mstore\n        /* \"source/Farm.sol\":31976:31992  uint256 _balance */\n      0x00\n      swap2\n      sub(shl(0xa0, 0x01), 0x01)\n        /* \"source/Farm.sol\":31995:32007  rewardsToken */\n      and\n      swap1\n        /* \"source/Farm.sol\":31995:32017  rewardsToken.balanceOf */\n      0x70a08231\n      swap1\n        /* \"#utility.yul\":2810:2828   */\n      0x24\n      add\n        /* \"source/Farm.sol\":31995:32032  rewardsToken.balanceOf(address(this)) */\n      0x20\n      mload(0x40)\n      dup1\n      dup4\n      sub\n      dup2\n      dup7\n      gas\n      staticcall\n      iszero\n      dup1\n      iszero\n      tag_257\n      jumpi\n      returndatasize\n      0x00\n      dup1\n      returndatacopy\n      revert(0x00, returndatasize)\n    tag_257:\n      pop\n      pop\n      pop\n      pop\n      mload(0x40)\n      returndatasize\n      not(0x1f)\n      0x1f\n      dup3\n      add\n      and\n      dup3\n      add\n      dup1\n      0x40\n      mstore\n      pop\n      dup2\n      add\n      swap1\n      tag_258\n      swap2\n      swap1\n      tag_259\n      jump\t// in\n    tag_258:\n        /* \"source/Farm.sol\":32043:32055  rewardsToken */\n      sload(0x02)\n        /* \"source/Farm.sol\":31976:32032  uint256 _balance = rewardsToken.balanceOf(address(this)) */\n      swap1\n      swap2\n      pop\n        /* \"source/Farm.sol\":32043:32090  rewardsToken.safeTransfer(msg.sender, _balance) */\n      tag_185\n      swap1\n      sub(shl(0xa0, 0x01), 0x01)\n        /* \"source/Farm.sol\":32043:32055  rewardsToken */\n      and\n        /* \"source/Farm.sol\":32069:32079  msg.sender */\n      caller\n        /* \"source/Farm.sol\":31976:32032  uint256 _balance = rewardsToken.balanceOf(address(this)) */\n      dup4\n        /* \"source/Farm.sol\":32043:32068  rewardsToken.safeTransfer */\n      tag_194\n        /* \"source/Farm.sol\":32043:32090  rewardsToken.safeTransfer(msg.sender, _balance) */\n      jump\t// in\n        /* \"source/Farm.sol\":18436:18725  function _nonReentrantBefore() private {... */\n    tag_145:\n        /* \"source/Farm.sol\":17838:17839  2 */\n      0x02\n        /* \"source/Farm.sol\":18566:18573  _status */\n      sload(0x00)\n        /* \"source/Farm.sol\":18566:18585  _status != _ENTERED */\n      sub\n        /* \"source/Farm.sol\":18558:18621  require(_status != _ENTERED, \"ReentrancyGuard: reentrant call\") */\n      tag_262\n      jumpi\n      mload(0x40)\n      shl(0xe5, 0x461bcd)\n      dup2\n      mstore\n        /* \"#utility.yul\":7476:7478   */\n      0x20\n        /* \"source/Farm.sol\":18558:18621  require(_status != _ENTERED, \"ReentrancyGuard: reentrant call\") */\n      0x04\n      dup3\n      add\n        /* \"#utility.yul\":7458:7479   */\n      mstore\n        /* \"#utility.yul\":7515:7517   */\n      0x1f\n        /* \"#utility.yul\":7495:7513   */\n      0x24\n      dup3\n      add\n        /* \"#utility.yul\":7488:7518   */\n      mstore\n        /* \"#utility.yul\":7554:7587   */\n      0x5265656e7472616e637947756172643a207265656e7472616e742063616c6c00\n        /* \"#utility.yul\":7534:7552   */\n      0x44\n      dup3\n      add\n        /* \"#utility.yul\":7527:7588   */\n      mstore\n        /* \"#utility.yul\":7605:7623   */\n      0x64\n      add\n        /* \"source/Farm.sol\":18558:18621  require(_status != _ENTERED, \"ReentrancyGuard: reentrant call\") */\n      tag_148\n        /* \"#utility.yul\":7274:7629   */\n      jump\n        /* \"source/Farm.sol\":18558:18621  require(_status != _ENTERED, \"ReentrancyGuard: reentrant call\") */\n    tag_262:\n        /* \"source/Farm.sol\":17838:17839  2 */\n      0x02\n        /* \"source/Farm.sol\":18699:18706  _status */\n      0x00\n        /* \"source/Farm.sol\":18699:18717  _status = _ENTERED */\n      sstore\n        /* \"source/Farm.sol\":18436:18725  function _nonReentrantBefore() private {... */\n      jump\t// out\n        /* \"source/Farm.sol\":33667:33967  function calculateRewards(address _staker)... */\n    tag_161:\n        /* \"source/Farm.sol\":33936:33950  rewardsPerHour */\n      sload(0x05)\n      sub(shl(0xa0, 0x01), 0x01)\n        /* \"source/Farm.sol\":33892:33908  stakers[_staker] */\n      dup3\n      and\n        /* \"source/Farm.sol\":33760:33776  uint256 _rewards */\n      0x00\n        /* \"source/Farm.sol\":33892:33908  stakers[_staker] */\n      swap1\n      dup2\n      mstore\n        /* \"source/Farm.sol\":33892:33899  stakers */\n      0x09\n        /* \"source/Farm.sol\":33892:33908  stakers[_staker] */\n      0x20\n      mstore\n      0x40\n      dup2\n      keccak256\n        /* \"source/Farm.sol\":33892:33921  stakers[_staker].amountStaked */\n      dup1\n      sload\n        /* \"source/Farm.sol\":33838:33871  stakers[_staker].timeOfLastUpdate */\n      0x02\n      swap1\n      swap2\n      add\n      sload\n        /* \"source/Farm.sol\":33760:33776  uint256 _rewards */\n      swap2\n      swap3\n        /* \"source/Farm.sol\":33954:33958  3600 */\n      0x0e10\n      swap3\n        /* \"source/Farm.sol\":33936:33950  rewardsPerHour */\n      swap1\n      swap2\n        /* \"source/Farm.sol\":33892:33921  stakers[_staker].amountStaked */\n      swap1\n        /* \"source/Farm.sol\":33820:33871  block.timestamp - stakers[_staker].timeOfLastUpdate */\n      tag_266\n      swap1\n        /* \"source/Farm.sol\":33820:33835  block.timestamp */\n      timestamp\n        /* \"source/Farm.sol\":33820:33871  block.timestamp - stakers[_staker].timeOfLastUpdate */\n      tag_267\n      jump\t// in\n    tag_266:\n        /* \"source/Farm.sol\":33819:33921  (block.timestamp - stakers[_staker].timeOfLastUpdate) *... */\n      tag_268\n      swap2\n      swap1\n      tag_269\n      jump\t// in\n    tag_268:\n        /* \"source/Farm.sol\":33803:33950  (... */\n      tag_270\n      swap2\n      swap1\n      tag_269\n      jump\t// in\n    tag_270:\n        /* \"source/Farm.sol\":33802:33958  ((... */\n      tag_271\n      swap2\n      swap1\n      tag_272\n      jump\t// in\n    tag_271:\n        /* \"source/Farm.sol\":33794:33959  return (((... */\n      swap3\n        /* \"source/Farm.sol\":33667:33967  function calculateRewards(address _staker)... */\n      swap2\n      pop\n      pop\n      jump\t// out\n        /* \"source/Farm.sol\":18733:18946  function _nonReentrantAfter() private {... */\n    tag_186:\n        /* \"source/Farm.sol\":17794:17795  1 */\n      0x01\n        /* \"source/Farm.sol\":18916:18923  _status */\n      0x00\n        /* \"source/Farm.sol\":18916:18938  _status = _NOT_ENTERED */\n      sstore\n        /* \"source/Farm.sol\":18733:18946  function _nonReentrantAfter() private {... */\n      jump\t// out\n        /* \"source/Farm.sol\":23768:23945  function safeTransfer(IERC20 token, address to, uint256 value) internal {... */\n    tag_194:\n        /* \"source/Farm.sol\":23878:23936  abi.encodeWithSelector(token.transfer.selector, to, value) */\n      0x40\n      dup1\n      mload\n      sub(shl(0xa0, 0x01), 0x01)\n        /* \"#utility.yul\":8354:8386   */\n      dup5\n      and\n        /* \"source/Farm.sol\":23878:23936  abi.encodeWithSelector(token.transfer.selector, to, value) */\n      0x24\n      dup3\n      add\n        /* \"#utility.yul\":8336:8387   */\n      mstore\n        /* \"#utility.yul\":8403:8421   */\n      0x44\n      dup1\n      dup3\n      add\n        /* \"#utility.yul\":8396:8430   */\n      dup5\n      swap1\n      mstore\n        /* \"source/Farm.sol\":23878:23936  abi.encodeWithSelector(token.transfer.selector, to, value) */\n      dup3\n      mload\n      dup1\n      dup4\n      sub\n      swap1\n      swap2\n      add\n      dup2\n      mstore\n        /* \"#utility.yul\":8309:8327   */\n      0x64\n      swap1\n      swap2\n      add\n        /* \"source/Farm.sol\":23878:23936  abi.encodeWithSelector(token.transfer.selector, to, value) */\n      swap1\n      swap2\n      mstore\n      0x20\n      dup2\n      add\n      dup1\n      mload\n      sub(shl(0xe0, 0x01), 0x01)\n      and\n      shl(0xe0, 0xa9059cbb)\n      or\n      swap1\n      mstore\n        /* \"source/Farm.sol\":23851:23937  _callOptionalReturn(token, abi.encodeWithSelector(token.transfer.selector, to, value)) */\n      tag_275\n      swap1\n        /* \"source/Farm.sol\":23871:23876  token */\n      dup5\n      swap1\n        /* \"source/Farm.sol\":23851:23870  _callOptionalReturn */\n      tag_278\n        /* \"source/Farm.sol\":23851:23937  _callOptionalReturn(token, abi.encodeWithSelector(token.transfer.selector, to, value)) */\n      jump\t// in\n    tag_275:\n        /* \"source/Farm.sol\":23768:23945  function safeTransfer(IERC20 token, address to, uint256 value) internal {... */\n      pop\n      pop\n      pop\n      jump\t// out\n        /* \"source/Farm.sol\":27576:27708  function _checkOwner() internal view virtual {... */\n    tag_216:\n        /* \"source/Farm.sol\":27484:27490  _owner */\n      sload(0x01)\n      sub(shl(0xa0, 0x01), 0x01)\n      0x0100\n      swap1\n      swap2\n      div\n      and\n        /* \"source/Farm.sol\":14778:14788  msg.sender */\n      caller\n        /* \"source/Farm.sol\":27640:27663  owner() == _msgSender() */\n      eq\n        /* \"source/Farm.sol\":27632:27700  require(owner() == _msgSender(), \"Ownable: caller is not the owner\") */\n      tag_221\n      jumpi\n      mload(0x40)\n      shl(0xe5, 0x461bcd)\n      dup2\n      mstore\n        /* \"#utility.yul\":8643:8645   */\n      0x20\n        /* \"source/Farm.sol\":27632:27700  require(owner() == _msgSender(), \"Ownable: caller is not the owner\") */\n      0x04\n      dup3\n      add\n        /* \"#utility.yul\":8625:8646   */\n      dup2\n      swap1\n      mstore\n        /* \"#utility.yul\":8662:8680   */\n      0x24\n      dup3\n      add\n        /* \"#utility.yul\":8655:8685   */\n      mstore\n        /* \"#utility.yul\":8721:8755   */\n      0x4f776e61626c653a2063616c6c6572206973206e6f7420746865206f776e6572\n        /* \"#utility.yul\":8701:8719   */\n      0x44\n      dup3\n      add\n        /* \"#utility.yul\":8694:8756   */\n      mstore\n        /* \"#utility.yul\":8773:8791   */\n      0x64\n      add\n        /* \"source/Farm.sol\":27632:27700  require(owner() == _msgSender(), \"Ownable: caller is not the owner\") */\n      tag_148\n        /* \"#utility.yul\":8441:8797   */\n      jump\n        /* \"source/Farm.sol\":28678:28869  function _transferOwnership(address newOwner) internal virtual {... */\n    tag_222:\n        /* \"source/Farm.sol\":28771:28777  _owner */\n      0x01\n      dup1\n      sload\n      sub(shl(0xa0, 0x01), 0x01)\n        /* \"source/Farm.sol\":28788:28805  _owner = newOwner */\n      dup4\n      dup2\n      and\n        /* \"source/Farm.sol\":28771:28777  _owner */\n      0x0100\n        /* \"source/Farm.sol\":28788:28805  _owner = newOwner */\n      dup2\n      dup2\n      mul\n      not(sub(shl(0xa8, 0x01), 0x0100))\n      dup6\n      and\n      or\n      swap1\n      swap5\n      sstore\n        /* \"source/Farm.sol\":28821:28861  OwnershipTransferred(oldOwner, newOwner) */\n      mload(0x40)\n        /* \"source/Farm.sol\":28771:28777  _owner */\n      swap4\n      swap1\n      swap3\n      div\n      and\n      swap2\n      dup3\n      swap1\n        /* \"source/Farm.sol\":28821:28861  OwnershipTransferred(oldOwner, newOwner) */\n      0x8be0079c531659141344cd1fd0a4f28419497f9722a3daafe3b4186f6b6457e0\n      swap1\n        /* \"source/Farm.sol\":28752:28768  address oldOwner */\n      0x00\n      swap1\n        /* \"source/Farm.sol\":28821:28861  OwnershipTransferred(oldOwner, newOwner) */\n      log3\n        /* \"source/Farm.sol\":28741:28869  {... */\n      pop\n        /* \"source/Farm.sol\":28678:28869  function _transferOwnership(address newOwner) internal virtual {... */\n      pop\n      jump\t// out\n        /* \"source/Farm.sol\":16131:16239  function _requireNotPaused() internal view virtual {... */\n    tag_228:\n        /* \"source/Farm.sol\":16043:16050  _paused */\n      and(0xff, sload(0x01))\n        /* \"source/Farm.sol\":16201:16210  !paused() */\n      iszero\n        /* \"source/Farm.sol\":16193:16231  require(!paused(), \"Pausable: paused\") */\n      tag_221\n      jumpi\n      mload(0x40)\n      shl(0xe5, 0x461bcd)\n      dup2\n      mstore\n        /* \"#utility.yul\":9004:9006   */\n      0x20\n        /* \"source/Farm.sol\":16193:16231  require(!paused(), \"Pausable: paused\") */\n      0x04\n      dup3\n      add\n        /* \"#utility.yul\":8986:9007   */\n      mstore\n        /* \"#utility.yul\":9043:9045   */\n      0x10\n        /* \"#utility.yul\":9023:9041   */\n      0x24\n      dup3\n      add\n        /* \"#utility.yul\":9016:9046   */\n      mstore\n      shl(0x82, 0x14185d5cd8589b194e881c185d5cd959)\n        /* \"#utility.yul\":9062:9080   */\n      0x44\n      dup3\n      add\n        /* \"#utility.yul\":9055:9101   */\n      mstore\n        /* \"#utility.yul\":9118:9136   */\n      0x64\n      add\n        /* \"source/Farm.sol\":16193:16231  require(!paused(), \"Pausable: paused\") */\n      tag_148\n        /* \"#utility.yul\":8802:9142   */\n      jump\n        /* \"source/Farm.sol\":30959:31895  function _stake(address _staker, uint256 _tokenId) internal {... */\n    tag_231:\n        /* \"source/Farm.sol\":31052:31065  nftCollection */\n      sload(0x03)\n        /* \"source/Farm.sol\":31052:31083  nftCollection.ownerOf(_tokenId) */\n      mload(0x40)\n      shl(0xe1, 0x31a9108f)\n      dup2\n      mstore\n      0x04\n      dup2\n      add\n        /* \"#utility.yul\":1430:1455   */\n      dup4\n      swap1\n      mstore\n      sub(shl(0xa0, 0x01), 0x01)\n        /* \"source/Farm.sol\":31052:31094  nftCollection.ownerOf(_tokenId) == _staker */\n      dup5\n      dup2\n      and\n      swap3\n        /* \"source/Farm.sol\":31052:31065  nftCollection */\n      and\n      swap1\n        /* \"source/Farm.sol\":31052:31073  nftCollection.ownerOf */\n      0x6352211e\n      swap1\n        /* \"#utility.yul\":1403:1421   */\n      0x24\n      add\n        /* \"source/Farm.sol\":31052:31083  nftCollection.ownerOf(_tokenId) */\n      0x20\n      mload(0x40)\n      dup1\n      dup4\n      sub\n      dup2\n      dup7\n      gas\n      staticcall\n      iszero\n      dup1\n      iszero\n      tag_295\n      jumpi\n      returndatasize\n      0x00\n      dup1\n      returndatacopy\n      revert(0x00, returndatasize)\n    tag_295:\n      pop\n      pop\n      pop\n      pop\n      mload(0x40)\n      returndatasize\n      not(0x1f)\n      0x1f\n      dup3\n      add\n      and\n      dup3\n      add\n      dup1\n      0x40\n      mstore\n      pop\n      dup2\n      add\n      swap1\n      tag_296\n      swap2\n      swap1\n      tag_297\n      jump\t// in\n    tag_296:\n      sub(shl(0xa0, 0x01), 0x01)\n        /* \"source/Farm.sol\":31052:31094  nftCollection.ownerOf(_tokenId) == _staker */\n      and\n      eq\n        /* \"source/Farm.sol\":31030:31147  require(... */\n      tag_298\n      jumpi\n      mload(0x40)\n      shl(0xe5, 0x461bcd)\n      dup2\n      mstore\n        /* \"#utility.yul\":5114:5116   */\n      0x20\n        /* \"source/Farm.sol\":31030:31147  require(... */\n      0x04\n      dup3\n      add\n        /* \"#utility.yul\":5096:5117   */\n      mstore\n        /* \"#utility.yul\":5153:5155   */\n      0x19\n        /* \"#utility.yul\":5133:5151   */\n      0x24\n      dup3\n      add\n        /* \"#utility.yul\":5126:5156   */\n      mstore\n      shl(0x38, 0x596f7520646f6e2774206f776e207468697320746f6b656e21)\n        /* \"#utility.yul\":5172:5190   */\n      0x44\n      dup3\n      add\n        /* \"#utility.yul\":5165:5220   */\n      mstore\n        /* \"#utility.yul\":5237:5255   */\n      0x64\n      add\n        /* \"source/Farm.sol\":31030:31147  require(... */\n      tag_148\n        /* \"#utility.yul\":4912:5261   */\n      jump\n        /* \"source/Farm.sol\":31030:31147  require(... */\n    tag_298:\n      sub(shl(0xa0, 0x01), 0x01)\n        /* \"source/Farm.sol\":31164:31180  stakers[_staker] */\n      dup3\n      and\n        /* \"source/Farm.sol\":31196:31197  0 */\n      0x00\n        /* \"source/Farm.sol\":31164:31180  stakers[_staker] */\n      swap1\n      dup2\n      mstore\n        /* \"source/Farm.sol\":31164:31171  stakers */\n      0x09\n        /* \"source/Farm.sol\":31164:31180  stakers[_staker] */\n      0x20\n      mstore\n      0x40\n      swap1\n      keccak256\n        /* \"source/Farm.sol\":31164:31193  stakers[_staker].amountStaked */\n      sload\n        /* \"source/Farm.sol\":31164:31197  stakers[_staker].amountStaked > 0 */\n      iszero\n        /* \"source/Farm.sol\":31160:31328  if (stakers[_staker].amountStaked > 0) {... */\n      tag_300\n      jumpi\n        /* \"source/Farm.sol\":31214:31229  uint256 rewards */\n      0x00\n        /* \"source/Farm.sol\":31232:31257  calculateRewards(_staker) */\n      tag_301\n        /* \"source/Farm.sol\":31249:31256  _staker */\n      dup4\n        /* \"source/Farm.sol\":31232:31248  calculateRewards */\n      tag_161\n        /* \"source/Farm.sol\":31232:31257  calculateRewards(_staker) */\n      jump\t// in\n    tag_301:\n      sub(shl(0xa0, 0x01), 0x01)\n        /* \"source/Farm.sol\":31272:31288  stakers[_staker] */\n      dup5\n      and\n      0x00\n      swap1\n      dup2\n      mstore\n        /* \"source/Farm.sol\":31272:31279  stakers */\n      0x09\n        /* \"source/Farm.sol\":31272:31288  stakers[_staker] */\n      0x20\n      mstore\n      0x40\n      dup2\n      keccak256\n        /* \"source/Farm.sol\":31272:31305  stakers[_staker].unclaimedRewards */\n      0x03\n      add\n        /* \"source/Farm.sol\":31272:31316  stakers[_staker].unclaimedRewards += rewards */\n      dup1\n      sload\n        /* \"source/Farm.sol\":31214:31257  uint256 rewards = calculateRewards(_staker) */\n      swap3\n      swap4\n      pop\n      dup4\n      swap3\n        /* \"source/Farm.sol\":31272:31305  stakers[_staker].unclaimedRewards */\n      swap1\n      swap2\n        /* \"source/Farm.sol\":31272:31288  stakers[_staker] */\n      swap1\n        /* \"source/Farm.sol\":31272:31316  stakers[_staker].unclaimedRewards += rewards */\n      tag_302\n      swap1\n        /* \"source/Farm.sol\":31214:31257  uint256 rewards = calculateRewards(_staker) */\n      dup5\n      swap1\n        /* \"source/Farm.sol\":31272:31316  stakers[_staker].unclaimedRewards += rewards */\n      tag_155\n      jump\t// in\n    tag_302:\n      swap1\n      swap2\n      sstore\n      pop\n      pop\n      pop\n        /* \"source/Farm.sol\":31160:31328  if (stakers[_staker].amountStaked > 0) {... */\n    tag_300:\n        /* \"source/Farm.sol\":31340:31353  nftCollection */\n      sload(0x03)\n        /* \"source/Farm.sol\":31340:31400  nftCollection.transferFrom(_staker, address(this), _tokenId) */\n      mload(0x40)\n      shl(0xe0, 0x23b872dd)\n      dup2\n      mstore\n      sub(shl(0xa0, 0x01), 0x01)\n        /* \"#utility.yul\":6199:6214   */\n      dup5\n      dup2\n      and\n        /* \"source/Farm.sol\":31340:31400  nftCollection.transferFrom(_staker, address(this), _tokenId) */\n      0x04\n      dup4\n      add\n        /* \"#utility.yul\":6181:6215   */\n      mstore\n        /* \"source/Farm.sol\":31384:31388  this */\n      address\n        /* \"#utility.yul\":6231:6249   */\n      0x24\n      dup4\n      add\n        /* \"#utility.yul\":6224:6267   */\n      mstore\n        /* \"#utility.yul\":6283:6301   */\n      0x44\n      dup3\n      add\n        /* \"#utility.yul\":6276:6310   */\n      dup5\n      swap1\n      mstore\n        /* \"source/Farm.sol\":31340:31353  nftCollection */\n      swap1\n      swap2\n      and\n      swap1\n        /* \"source/Farm.sol\":31340:31366  nftCollection.transferFrom */\n      0x23b872dd\n      swap1\n        /* \"#utility.yul\":6116:6134   */\n      0x64\n      add\n        /* \"source/Farm.sol\":31340:31400  nftCollection.transferFrom(_staker, address(this), _tokenId) */\n      0x00\n      mload(0x40)\n      dup1\n      dup4\n      sub\n      dup2\n      0x00\n      dup8\n      dup1\n      extcodesize\n      iszero\n      dup1\n      iszero\n      tag_304\n      jumpi\n      0x00\n      dup1\n      revert\n    tag_304:\n      pop\n      gas\n      call\n      iszero\n      dup1\n      iszero\n      tag_306\n      jumpi\n      returndatasize\n      0x00\n      dup1\n      returndatacopy\n      revert(0x00, returndatasize)\n    tag_306:\n      pop\n      pop\n        /* \"source/Farm.sol\":31446:31610  StakedToken(... */\n      0x40\n      dup1\n      mload\n      0x60\n      dup2\n      add\n      dup3\n      mstore\n      sub(shl(0xa0, 0x01), 0x01)\n      dup7\n      dup2\n      and\n      dup1\n      dup4\n      mstore\n      0x20\n      dup1\n      dup5\n      add\n      dup9\n      dup2\n      mstore\n        /* \"source/Farm.sol\":31577:31592  block.timestamp */\n      timestamp\n        /* \"source/Farm.sol\":31446:31610  StakedToken(... */\n      dup6\n      dup8\n      add\n      swap1\n      dup2\n      mstore\n      0x00\n        /* \"source/Farm.sol\":31621:31637  stakers[_staker] */\n      dup5\n      dup2\n      mstore\n        /* \"source/Farm.sol\":31621:31628  stakers */\n      0x09\n        /* \"source/Farm.sol\":31621:31637  stakers[_staker] */\n      dup5\n      mstore\n      swap7\n      dup8\n      keccak256\n        /* \"source/Farm.sol\":31621:31650  stakers[_staker].stakedTokens */\n      0x01\n      dup1\n      dup3\n      add\n        /* \"source/Farm.sol\":31621:31668  stakers[_staker].stakedTokens.push(stakedToken) */\n      dup1\n      sload\n      dup1\n      dup4\n      add\n      dup3\n      sstore\n      swap1\n      dup11\n      mstore\n      swap5\n      dup10\n      keccak256\n      dup9\n      mload\n      0x03\n      swap1\n      swap7\n      mul\n      add\n      dup1\n      sload\n      not(sub(shl(0xa0, 0x01), 0x01))\n      and\n      swap6\n      swap1\n      swap8\n      and\n      swap5\n      swap1\n      swap5\n      or\n      dup7\n      sstore\n      swap2\n      mload\n      swap3\n      dup6\n      add\n      swap3\n      swap1\n      swap3\n      sstore\n      swap1\n      mload\n      0x02\n      swap1\n      swap4\n      add\n      swap3\n      swap1\n      swap3\n      sstore\n        /* \"source/Farm.sol\":31679:31695  stakers[_staker] */\n      dup4\n      mstore\n        /* \"source/Farm.sol\":31679:31710  stakers[_staker].amountStaked++ */\n      dup1\n      sload\n        /* \"source/Farm.sol\":31446:31610  StakedToken(... */\n      swap2\n      swap5\n      pop\n        /* \"source/Farm.sol\":31679:31710  stakers[_staker].amountStaked++ */\n      swap1\n      swap3\n      pop\n        /* \"source/Farm.sol\":31621:31637  stakers[_staker] */\n      swap1\n        /* \"source/Farm.sol\":31679:31710  stakers[_staker].amountStaked++ */\n      tag_308\n      dup4\n      tag_135\n      jump\t// in\n    tag_308:\n      swap1\n      swap2\n      sstore\n      pop\n      pop\n      pop\n        /* \"source/Farm.sol\":31721:31744  stakerAddress[_tokenId] */\n      0x00\n      swap1\n      dup2\n      mstore\n        /* \"source/Farm.sol\":31721:31734  stakerAddress */\n      0x0a\n        /* \"source/Farm.sol\":31721:31744  stakerAddress[_tokenId] */\n      0x20\n      swap1\n      dup2\n      mstore\n      0x40\n      dup1\n      dup4\n      keccak256\n        /* \"source/Farm.sol\":31721:31754  stakerAddress[_tokenId] = _staker */\n      dup1\n      sload\n      sub(shl(0xa0, 0x01), 0x01)\n      swap1\n      swap6\n      and\n      not(sub(shl(0xa0, 0x01), 0x01))\n      swap1\n      swap6\n      and\n      dup6\n      or\n      swap1\n      sstore\n        /* \"source/Farm.sol\":31765:31784  tokenStartStakeTime */\n      0x0b\n        /* \"source/Farm.sol\":31765:31794  tokenStartStakeTime[_tokenId] */\n      dup3\n      mstore\n      dup1\n      dup4\n      keccak256\n        /* \"source/Farm.sol\":31797:31812  block.timestamp */\n      timestamp\n        /* \"source/Farm.sol\":31765:31812  tokenStartStakeTime[_tokenId] = block.timestamp */\n      swap1\n      dup2\n      swap1\n      sstore\n        /* \"source/Farm.sol\":31836:31852  stakers[_staker] */\n      swap4\n      dup4\n      mstore\n        /* \"source/Farm.sol\":31836:31843  stakers */\n      0x09\n        /* \"source/Farm.sol\":31836:31852  stakers[_staker] */\n      swap1\n      swap2\n      mstore\n      swap1\n      keccak256\n        /* \"source/Farm.sol\":31836:31869  stakers[_staker].timeOfLastUpdate */\n      0x02\n      add\n        /* \"source/Farm.sol\":31836:31887  stakers[_staker].timeOfLastUpdate = block.timestamp */\n      sstore\n        /* \"source/Farm.sol\":30959:31895  function _stake(address _staker, uint256 _tokenId) internal {... */\n      jump\t// out\n        /* \"source/Farm.sol\":16316:16424  function _requirePaused() internal view virtual {... */\n    tag_253:\n        /* \"source/Farm.sol\":16043:16050  _paused */\n      and(0xff, sload(0x01))\n        /* \"source/Farm.sol\":16375:16416  require(paused(), \"Pausable: not paused\") */\n      tag_221\n      jumpi\n      mload(0x40)\n      shl(0xe5, 0x461bcd)\n      dup2\n      mstore\n        /* \"#utility.yul\":9605:9607   */\n      0x20\n        /* \"source/Farm.sol\":16375:16416  require(paused(), \"Pausable: not paused\") */\n      0x04\n      dup3\n      add\n        /* \"#utility.yul\":9587:9608   */\n      mstore\n        /* \"#utility.yul\":9644:9646   */\n      0x14\n        /* \"#utility.yul\":9624:9642   */\n      0x24\n      dup3\n      add\n        /* \"#utility.yul\":9617:9647   */\n      mstore\n      shl(0x62, 0x14185d5cd8589b194e881b9bdd081c185d5cd959)\n        /* \"#utility.yul\":9663:9681   */\n      0x44\n      dup3\n      add\n        /* \"#utility.yul\":9656:9706   */\n      mstore\n        /* \"#utility.yul\":9723:9741   */\n      0x64\n      add\n        /* \"source/Farm.sol\":16375:16416  require(paused(), \"Pausable: not paused\") */\n      tag_148\n        /* \"#utility.yul\":9403:9747   */\n      jump\n        /* \"source/Farm.sol\":26073:26834  function _callOptionalReturn(IERC20 token, bytes memory data) private {... */\n    tag_278:\n        /* \"source/Farm.sol\":26497:26520  bytes memory returndata */\n      0x00\n        /* \"source/Farm.sol\":26523:26592  address(token).functionCall(data, \"SafeERC20: low-level call failed\") */\n      tag_315\n        /* \"source/Farm.sol\":26551:26555  data */\n      dup3\n        /* \"source/Farm.sol\":26523:26592  address(token).functionCall(data, \"SafeERC20: low-level call failed\") */\n      mload(0x40)\n      dup1\n      0x40\n      add\n      0x40\n      mstore\n      dup1\n      0x20\n      dup2\n      mstore\n      0x20\n      add\n      0x5361666545524332303a206c6f772d6c6576656c2063616c6c206661696c6564\n      dup2\n      mstore\n      pop\n        /* \"source/Farm.sol\":26531:26536  token */\n      dup6\n      sub(shl(0xa0, 0x01), 0x01)\n        /* \"source/Farm.sol\":26523:26550  address(token).functionCall */\n      and\n      tag_316\n      swap1\n        /* \"source/Farm.sol\":26523:26592  address(token).functionCall(data, \"SafeERC20: low-level call failed\") */\n      swap3\n      swap2\n      swap1\n      0xffffffff\n      and\n      jump\t// in\n    tag_315:\n        /* \"source/Farm.sol\":26607:26624  returndata.length */\n      dup1\n      mload\n        /* \"source/Farm.sol\":26497:26592  bytes memory returndata = address(token).functionCall(data, \"SafeERC20: low-level call failed\") */\n      swap1\n      swap2\n      pop\n        /* \"source/Farm.sol\":26607:26628  returndata.length > 0 */\n      iszero\n        /* \"source/Farm.sol\":26603:26827  if (returndata.length > 0) { // Return data is optional... */\n      tag_275\n      jumpi\n        /* \"source/Farm.sol\":26749:26759  returndata */\n      dup1\n        /* \"source/Farm.sol\":26738:26768  abi.decode(returndata, (bool)) */\n      dup1\n      0x20\n      add\n      swap1\n      mload\n      dup2\n      add\n      swap1\n      tag_318\n      swap2\n      swap1\n      tag_319\n      jump\t// in\n    tag_318:\n        /* \"source/Farm.sol\":26730:26815  require(abi.decode(returndata, (bool)), \"SafeERC20: ERC20 operation did not succeed\") */\n      tag_275\n      jumpi\n      mload(0x40)\n      shl(0xe5, 0x461bcd)\n      dup2\n      mstore\n        /* \"#utility.yul\":10204:10206   */\n      0x20\n        /* \"source/Farm.sol\":26730:26815  require(abi.decode(returndata, (bool)), \"SafeERC20: ERC20 operation did not succeed\") */\n      0x04\n      dup3\n      add\n        /* \"#utility.yul\":10186:10207   */\n      mstore\n        /* \"#utility.yul\":10243:10245   */\n      0x2a\n        /* \"#utility.yul\":10223:10241   */\n      0x24\n      dup3\n      add\n        /* \"#utility.yul\":10216:10246   */\n      mstore\n        /* \"#utility.yul\":10282:10316   */\n      0x5361666545524332303a204552433230206f7065726174696f6e20646964206e\n        /* \"#utility.yul\":10262:10280   */\n      0x44\n      dup3\n      add\n        /* \"#utility.yul\":10255:10317   */\n      mstore\n      shl(0xb2, 0x1bdd081cdd58d8d95959)\n        /* \"#utility.yul\":10333:10351   */\n      0x64\n      dup3\n      add\n        /* \"#utility.yul\":10326:10366   */\n      mstore\n        /* \"#utility.yul\":10383:10402   */\n      0x84\n      add\n        /* \"source/Farm.sol\":26730:26815  require(abi.decode(returndata, (bool)), \"SafeERC20: ERC20 operation did not succeed\") */\n      tag_148\n        /* \"#utility.yul\":10002:10408   */\n      jump\n        /* \"source/Farm.sol\":8687:8882  function functionCall(address target, bytes memory data, string memory errorMessage) internal returns (bytes memory) {... */\n    tag_316:\n        /* \"source/Farm.sol\":8790:8802  bytes memory */\n      0x60\n        /* \"source/Farm.sol\":8822:8874  functionCallWithValue(target, data, 0, errorMessage) */\n      tag_325\n        /* \"source/Farm.sol\":8844:8850  target */\n      dup5\n        /* \"source/Farm.sol\":8852:8856  data */\n      dup5\n        /* \"source/Farm.sol\":8858:8859  0 */\n      0x00\n        /* \"source/Farm.sol\":8861:8873  errorMessage */\n      dup6\n        /* \"source/Farm.sol\":8822:8843  functionCallWithValue */\n      tag_326\n        /* \"source/Farm.sol\":8822:8874  functionCallWithValue(target, data, 0, errorMessage) */\n      jump\t// in\n    tag_325:\n        /* \"source/Farm.sol\":8815:8874  return functionCallWithValue(target, data, 0, errorMessage) */\n      swap5\n        /* \"source/Farm.sol\":8687:8882  function functionCall(address target, bytes memory data, string memory errorMessage) internal returns (bytes memory) {... */\n      swap4\n      pop\n      pop\n      pop\n      pop\n      jump\t// out\n        /* \"source/Farm.sol\":9739:10269  function functionCallWithValue(address target, bytes memory data, uint256 value, string memory errorMessage) internal returns (bytes memory) {... */\n    tag_326:\n        /* \"source/Farm.sol\":9866:9878  bytes memory */\n      0x60\n        /* \"source/Farm.sol\":9924:9929  value */\n      dup3\n        /* \"source/Farm.sol\":9899:9920  address(this).balance */\n      selfbalance\n        /* \"source/Farm.sol\":9899:9929  address(this).balance >= value */\n      lt\n      iszero\n        /* \"source/Farm.sol\":9891:9972  require(address(this).balance >= value, \"Address: insufficient balance for call\") */\n      tag_328\n      jumpi\n      mload(0x40)\n      shl(0xe5, 0x461bcd)\n      dup2\n      mstore\n        /* \"#utility.yul\":10615:10617   */\n      0x20\n        /* \"source/Farm.sol\":9891:9972  require(address(this).balance >= value, \"Address: insufficient balance for call\") */\n      0x04\n      dup3\n      add\n        /* \"#utility.yul\":10597:10618   */\n      mstore\n        /* \"#utility.yul\":10654:10656   */\n      0x26\n        /* \"#utility.yul\":10634:10652   */\n      0x24\n      dup3\n      add\n        /* \"#utility.yul\":10627:10657   */\n      mstore\n        /* \"#utility.yul\":10693:10727   */\n      0x416464726573733a20696e73756666696369656e742062616c616e636520666f\n        /* \"#utility.yul\":10673:10691   */\n      0x44\n      dup3\n      add\n        /* \"#utility.yul\":10666:10728   */\n      mstore\n      shl(0xd2, 0x1c8818d85b1b)\n        /* \"#utility.yul\":10744:10762   */\n      0x64\n      dup3\n      add\n        /* \"#utility.yul\":10737:10773   */\n      mstore\n        /* \"#utility.yul\":10790:10809   */\n      0x84\n      add\n        /* \"source/Farm.sol\":9891:9972  require(address(this).balance >= value, \"Address: insufficient balance for call\") */\n      tag_148\n        /* \"#utility.yul\":10413:10815   */\n      jump\n        /* \"source/Farm.sol\":9891:9972  require(address(this).balance >= value, \"Address: insufficient balance for call\") */\n    tag_328:\n        /* \"source/Farm.sol\":6136:6156  extcodesize(account) */\n      dup5\n      extcodesize\n        /* \"source/Farm.sol\":9983:10043  require(isContract(target), \"Address: call to non-contract\") */\n      tag_333\n      jumpi\n      mload(0x40)\n      shl(0xe5, 0x461bcd)\n      dup2\n      mstore\n        /* \"#utility.yul\":11022:11024   */\n      0x20\n        /* \"source/Farm.sol\":9983:10043  require(isContract(target), \"Address: call to non-contract\") */\n      0x04\n      dup3\n      add\n        /* \"#utility.yul\":11004:11025   */\n      mstore\n        /* \"#utility.yul\":11061:11063   */\n      0x1d\n        /* \"#utility.yul\":11041:11059   */\n      0x24\n      dup3\n      add\n        /* \"#utility.yul\":11034:11064   */\n      mstore\n        /* \"#utility.yul\":11100:11131   */\n      0x416464726573733a2063616c6c20746f206e6f6e2d636f6e7472616374000000\n        /* \"#utility.yul\":11080:11098   */\n      0x44\n      dup3\n      add\n        /* \"#utility.yul\":11073:11132   */\n      mstore\n        /* \"#utility.yul\":11149:11167   */\n      0x64\n      add\n        /* \"source/Farm.sol\":9983:10043  require(isContract(target), \"Address: call to non-contract\") */\n      tag_148\n        /* \"#utility.yul\":10820:11173   */\n      jump\n        /* \"source/Farm.sol\":9983:10043  require(isContract(target), \"Address: call to non-contract\") */\n    tag_333:\n        /* \"source/Farm.sol\":10117:10129  bool success */\n      0x00\n        /* \"source/Farm.sol\":10131:10154  bytes memory returndata */\n      dup1\n        /* \"source/Farm.sol\":10158:10164  target */\n      dup7\n      sub(shl(0xa0, 0x01), 0x01)\n        /* \"source/Farm.sol\":10158:10169  target.call */\n      and\n        /* \"source/Farm.sol\":10178:10183  value */\n      dup6\n        /* \"source/Farm.sol\":10186:10190  data */\n      dup8\n        /* \"source/Farm.sol\":10158:10191  target.call{ value: value }(data) */\n      mload(0x40)\n      tag_336\n      swap2\n      swap1\n      tag_337\n      jump\t// in\n    tag_336:\n      0x00\n      mload(0x40)\n      dup1\n      dup4\n      sub\n      dup2\n      dup6\n      dup8\n      gas\n      call\n      swap3\n      pop\n      pop\n      pop\n      returndatasize\n      dup1\n      0x00\n      dup2\n      eq\n      tag_340\n      jumpi\n      mload(0x40)\n      swap2\n      pop\n      and(add(returndatasize, 0x3f), not(0x1f))\n      dup3\n      add\n      0x40\n      mstore\n      returndatasize\n      dup3\n      mstore\n      returndatasize\n      0x00\n      0x20\n      dup5\n      add\n      returndatacopy\n      jump(tag_339)\n    tag_340:\n      0x60\n      swap2\n      pop\n    tag_339:\n      pop\n        /* \"source/Farm.sol\":10116:10191  (bool success, bytes memory returndata) = target.call{ value: value }(data) */\n      swap2\n      pop\n      swap2\n      pop\n        /* \"source/Farm.sol\":10209:10261  _verifyCallResult(success, returndata, errorMessage) */\n      tag_341\n        /* \"source/Farm.sol\":10227:10234  success */\n      dup3\n        /* \"source/Farm.sol\":10236:10246  returndata */\n      dup3\n        /* \"source/Farm.sol\":10248:10260  errorMessage */\n      dup7\n        /* \"source/Farm.sol\":10209:10226  _verifyCallResult */\n      tag_342\n        /* \"source/Farm.sol\":10209:10261  _verifyCallResult(success, returndata, errorMessage) */\n      jump\t// in\n    tag_341:\n        /* \"source/Farm.sol\":10202:10261  return _verifyCallResult(success, returndata, errorMessage) */\n      swap8\n        /* \"source/Farm.sol\":9739:10269  function functionCallWithValue(address target, bytes memory data, uint256 value, string memory errorMessage) internal returns (bytes memory) {... */\n      swap7\n      pop\n      pop\n      pop\n      pop\n      pop\n      pop\n      pop\n      jump\t// out\n        /* \"source/Farm.sol\":11275:12017  function _verifyCallResult(bool success, bytes memory returndata, string memory errorMessage) private pure returns(bytes memory) {... */\n    tag_342:\n        /* \"source/Farm.sol\":11390:11402  bytes memory */\n      0x60\n        /* \"source/Farm.sol\":11419:11426  success */\n      dup4\n        /* \"source/Farm.sol\":11415:12010  if (success) {... */\n      iszero\n      tag_345\n      jumpi\n      pop\n        /* \"source/Farm.sol\":11450:11460  returndata */\n      dup2\n        /* \"source/Farm.sol\":11443:11460  return returndata */\n      jump(tag_248)\n        /* \"source/Farm.sol\":11415:12010  if (success) {... */\n    tag_345:\n        /* \"source/Farm.sol\":11564:11581  returndata.length */\n      dup3\n      mload\n        /* \"source/Farm.sol\":11564:11585  returndata.length > 0 */\n      iszero\n        /* \"source/Farm.sol\":11560:11999  if (returndata.length > 0) {... */\n      tag_347\n      jumpi\n        /* \"source/Farm.sol\":11827:11837  returndata */\n      dup3\n        /* \"source/Farm.sol\":11821:11838  mload(returndata) */\n      mload\n        /* \"source/Farm.sol\":11888:11903  returndata_size */\n      dup1\n        /* \"source/Farm.sol\":11875:11885  returndata */\n      dup5\n        /* \"source/Farm.sol\":11871:11873  32 */\n      0x20\n        /* \"source/Farm.sol\":11867:11886  add(32, returndata) */\n      add\n        /* \"source/Farm.sol\":11860:11904  revert(add(32, returndata), returndata_size) */\n      revert\n        /* \"source/Farm.sol\":11560:11999  if (returndata.length > 0) {... */\n    tag_347:\n        /* \"source/Farm.sol\":11970:11982  errorMessage */\n      dup2\n        /* \"source/Farm.sol\":11963:11983  revert(errorMessage) */\n      mload(0x40)\n      shl(0xe5, 0x461bcd)\n      dup2\n      mstore\n      0x04\n      add\n      tag_148\n      swap2\n      swap1\n      tag_350\n      jump\t// in\n        /* \"#utility.yul\":14:145   */\n    tag_351:\n      sub(shl(0xa0, 0x01), 0x01)\n        /* \"#utility.yul\":89:120   */\n      dup2\n      and\n        /* \"#utility.yul\":79:121   */\n      dup2\n      eq\n        /* \"#utility.yul\":69:139   */\n      tag_185\n      jumpi\n        /* \"#utility.yul\":135:136   */\n      0x00\n        /* \"#utility.yul\":132:133   */\n      dup1\n        /* \"#utility.yul\":125:137   */\n      revert\n        /* \"#utility.yul\":150:397   */\n    tag_31:\n        /* \"#utility.yul\":209:215   */\n      0x00\n        /* \"#utility.yul\":262:264   */\n      0x20\n        /* \"#utility.yul\":250:259   */\n      dup3\n        /* \"#utility.yul\":241:248   */\n      dup5\n        /* \"#utility.yul\":237:260   */\n      sub\n        /* \"#utility.yul\":233:265   */\n      slt\n        /* \"#utility.yul\":230:282   */\n      iszero\n      tag_359\n      jumpi\n        /* \"#utility.yul\":278:279   */\n      0x00\n        /* \"#utility.yul\":275:276   */\n      dup1\n        /* \"#utility.yul\":268:280   */\n      revert\n        /* \"#utility.yul\":230:282   */\n    tag_359:\n        /* \"#utility.yul\":317:326   */\n      dup2\n        /* \"#utility.yul\":304:327   */\n      calldataload\n        /* \"#utility.yul\":336:367   */\n      tag_248\n        /* \"#utility.yul\":361:366   */\n      dup2\n        /* \"#utility.yul\":336:367   */\n      tag_351\n      jump\t// in\n        /* \"#utility.yul\":402:1279   */\n    tag_34:\n        /* \"#utility.yul\":631:633   */\n      0x20\n        /* \"#utility.yul\":683:704   */\n      dup1\n      dup3\n      mstore\n        /* \"#utility.yul\":753:766   */\n      dup3\n      mload\n        /* \"#utility.yul\":656:674   */\n      dup3\n      dup3\n      add\n        /* \"#utility.yul\":775:797   */\n      dup2\n      swap1\n      mstore\n        /* \"#utility.yul\":602:606   */\n      0x00\n      swap2\n        /* \"#utility.yul\":631:633   */\n      swap1\n        /* \"#utility.yul\":816:818   */\n      0x40\n      swap1\n        /* \"#utility.yul\":834:852   */\n      dup2\n      dup6\n      add\n      swap1\n        /* \"#utility.yul\":875:890   */\n      dup7\n      dup5\n      add\n        /* \"#utility.yul\":602:606   */\n      dup6\n        /* \"#utility.yul\":918:1253   */\n    tag_362:\n        /* \"#utility.yul\":932:938   */\n      dup3\n        /* \"#utility.yul\":929:930   */\n      dup2\n        /* \"#utility.yul\":926:939   */\n      lt\n        /* \"#utility.yul\":918:1253   */\n      iszero\n      tag_364\n      jumpi\n        /* \"#utility.yul\":991:1004   */\n      dup2\n      mload\n        /* \"#utility.yul\":1033:1042   */\n      dup1\n      mload\n      sub(shl(0xa0, 0x01), 0x01)\n        /* \"#utility.yul\":1029:1064   */\n      and\n        /* \"#utility.yul\":1017:1065   */\n      dup6\n      mstore\n        /* \"#utility.yul\":1105:1116   */\n      dup7\n      dup2\n      add\n        /* \"#utility.yul\":1099:1117   */\n      mload\n        /* \"#utility.yul\":1085:1097   */\n      dup8\n      dup7\n      add\n        /* \"#utility.yul\":1078:1118   */\n      mstore\n        /* \"#utility.yul\":1158:1169   */\n      dup6\n      add\n        /* \"#utility.yul\":1152:1170   */\n      mload\n        /* \"#utility.yul\":1138:1150   */\n      dup6\n      dup6\n      add\n        /* \"#utility.yul\":1131:1171   */\n      mstore\n        /* \"#utility.yul\":1200:1204   */\n      0x60\n        /* \"#utility.yul\":1191:1205   */\n      swap1\n      swap4\n      add\n      swap3\n        /* \"#utility.yul\":1228:1243   */\n      swap1\n      dup6\n      add\n      swap1\n        /* \"#utility.yul\":1061:1062   */\n      0x01\n        /* \"#utility.yul\":947:956   */\n      add\n        /* \"#utility.yul\":918:1253   */\n      jump(tag_362)\n    tag_364:\n      pop\n        /* \"#utility.yul\":1270:1273   */\n      swap2\n      swap8\n        /* \"#utility.yul\":402:1279   */\n      swap7\n      pop\n      pop\n      pop\n      pop\n      pop\n      pop\n      pop\n      jump\t// out\n        /* \"#utility.yul\":1466:1646   */\n    tag_41:\n        /* \"#utility.yul\":1525:1531   */\n      0x00\n        /* \"#utility.yul\":1578:1580   */\n      0x20\n        /* \"#utility.yul\":1566:1575   */\n      dup3\n        /* \"#utility.yul\":1557:1564   */\n      dup5\n        /* \"#utility.yul\":1553:1576   */\n      sub\n        /* \"#utility.yul\":1549:1581   */\n      slt\n        /* \"#utility.yul\":1546:1598   */\n      iszero\n      tag_367\n      jumpi\n        /* \"#utility.yul\":1594:1595   */\n      0x00\n        /* \"#utility.yul\":1591:1592   */\n      dup1\n        /* \"#utility.yul\":1584:1596   */\n      revert\n        /* \"#utility.yul\":1546:1598   */\n    tag_367:\n      pop\n        /* \"#utility.yul\":1617:1640   */\n      calldataload\n      swap2\n        /* \"#utility.yul\":1466:1646   */\n      swap1\n      pop\n      jump\t// out\n        /* \"#utility.yul\":1843:2671   */\n    tag_63:\n        /* \"#utility.yul\":2078:2080   */\n      0x20\n        /* \"#utility.yul\":2130:2151   */\n      dup1\n      dup3\n      mstore\n        /* \"#utility.yul\":2200:2213   */\n      dup3\n      mload\n        /* \"#utility.yul\":2103:2121   */\n      dup3\n      dup3\n      add\n        /* \"#utility.yul\":2222:2244   */\n      dup2\n      swap1\n      mstore\n        /* \"#utility.yul\":2049:2053   */\n      0x00\n      swap2\n        /* \"#utility.yul\":2078:2080   */\n      swap1\n        /* \"#utility.yul\":2263:2265   */\n      0x40\n      swap1\n        /* \"#utility.yul\":2281:2299   */\n      dup2\n      dup6\n      add\n      swap1\n        /* \"#utility.yul\":2322:2337   */\n      dup7\n      dup5\n      add\n        /* \"#utility.yul\":2049:2053   */\n      dup6\n        /* \"#utility.yul\":2365:2645   */\n    tag_370:\n        /* \"#utility.yul\":2379:2385   */\n      dup3\n        /* \"#utility.yul\":2376:2377   */\n      dup2\n        /* \"#utility.yul\":2373:2386   */\n      lt\n        /* \"#utility.yul\":2365:2645   */\n      iszero\n      tag_364\n      jumpi\n        /* \"#utility.yul\":2438:2451   */\n      dup2\n      mload\n        /* \"#utility.yul\":2480:2489   */\n      dup1\n      mload\n      sub(shl(0xa0, 0x01), 0x01)\n        /* \"#utility.yul\":2476:2511   */\n      and\n        /* \"#utility.yul\":2464:2512   */\n      dup6\n      mstore\n        /* \"#utility.yul\":2552:2563   */\n      dup7\n      add\n        /* \"#utility.yul\":2546:2564   */\n      mload\n        /* \"#utility.yul\":2532:2544   */\n      dup7\n      dup6\n      add\n        /* \"#utility.yul\":2525:2565   */\n      mstore\n        /* \"#utility.yul\":2585:2597   */\n      swap3\n      dup5\n      add\n      swap3\n        /* \"#utility.yul\":2620:2635   */\n      swap1\n      dup6\n      add\n      swap1\n        /* \"#utility.yul\":2508:2509   */\n      0x01\n        /* \"#utility.yul\":2394:2403   */\n      add\n        /* \"#utility.yul\":2365:2645   */\n      jump(tag_370)\n        /* \"#utility.yul\":2899:3017   */\n    tag_352:\n        /* \"#utility.yul\":2985:2990   */\n      dup1\n        /* \"#utility.yul\":2978:2991   */\n      iszero\n        /* \"#utility.yul\":2971:2992   */\n      iszero\n        /* \"#utility.yul\":2964:2969   */\n      dup2\n        /* \"#utility.yul\":2961:2993   */\n      eq\n        /* \"#utility.yul\":2951:3011   */\n      tag_185\n      jumpi\n        /* \"#utility.yul\":3007:3008   */\n      0x00\n        /* \"#utility.yul\":3004:3005   */\n      dup1\n        /* \"#utility.yul\":2997:3009   */\n      revert\n        /* \"#utility.yul\":3022:3263   */\n    tag_70:\n        /* \"#utility.yul\":3078:3084   */\n      0x00\n        /* \"#utility.yul\":3131:3133   */\n      0x20\n        /* \"#utility.yul\":3119:3128   */\n      dup3\n        /* \"#utility.yul\":3110:3117   */\n      dup5\n        /* \"#utility.yul\":3106:3129   */\n      sub\n        /* \"#utility.yul\":3102:3134   */\n      slt\n        /* \"#utility.yul\":3099:3151   */\n      iszero\n      tag_377\n      jumpi\n        /* \"#utility.yul\":3147:3148   */\n      0x00\n        /* \"#utility.yul\":3144:3145   */\n      dup1\n        /* \"#utility.yul\":3137:3149   */\n      revert\n        /* \"#utility.yul\":3099:3151   */\n    tag_377:\n        /* \"#utility.yul\":3186:3195   */\n      dup2\n        /* \"#utility.yul\":3173:3196   */\n      calldataload\n        /* \"#utility.yul\":3205:3233   */\n      tag_248\n        /* \"#utility.yul\":3227:3232   */\n      dup2\n        /* \"#utility.yul\":3205:3233   */\n      tag_352\n      jump\t// in\n        /* \"#utility.yul\":4022:4149   */\n    tag_116:\n        /* \"#utility.yul\":4083:4093   */\n      0x4e487b71\n        /* \"#utility.yul\":4078:4081   */\n      0xe0\n        /* \"#utility.yul\":4074:4094   */\n      shl\n        /* \"#utility.yul\":4071:4072   */\n      0x00\n        /* \"#utility.yul\":4064:4095   */\n      mstore\n        /* \"#utility.yul\":4114:4118   */\n      0x41\n        /* \"#utility.yul\":4111:4112   */\n      0x04\n        /* \"#utility.yul\":4104:4119   */\n      mstore\n        /* \"#utility.yul\":4138:4142   */\n      0x24\n        /* \"#utility.yul\":4135:4136   */\n      0x00\n        /* \"#utility.yul\":4128:4143   */\n      revert\n        /* \"#utility.yul\":4154:4281   */\n    tag_126:\n        /* \"#utility.yul\":4215:4225   */\n      0x4e487b71\n        /* \"#utility.yul\":4210:4213   */\n      0xe0\n        /* \"#utility.yul\":4206:4226   */\n      shl\n        /* \"#utility.yul\":4203:4204   */\n      0x00\n        /* \"#utility.yul\":4196:4227   */\n      mstore\n        /* \"#utility.yul\":4246:4250   */\n      0x32\n        /* \"#utility.yul\":4243:4244   */\n      0x04\n        /* \"#utility.yul\":4236:4251   */\n      mstore\n        /* \"#utility.yul\":4270:4274   */\n      0x24\n        /* \"#utility.yul\":4267:4268   */\n      0x00\n        /* \"#utility.yul\":4260:4275   */\n      revert\n        /* \"#utility.yul\":4286:4413   */\n    tag_353:\n        /* \"#utility.yul\":4347:4357   */\n      0x4e487b71\n        /* \"#utility.yul\":4342:4345   */\n      0xe0\n        /* \"#utility.yul\":4338:4358   */\n      shl\n        /* \"#utility.yul\":4335:4336   */\n      0x00\n        /* \"#utility.yul\":4328:4359   */\n      mstore\n        /* \"#utility.yul\":4378:4382   */\n      0x11\n        /* \"#utility.yul\":4375:4376   */\n      0x04\n        /* \"#utility.yul\":4368:4383   */\n      mstore\n        /* \"#utility.yul\":4402:4406   */\n      0x24\n        /* \"#utility.yul\":4399:4400   */\n      0x00\n        /* \"#utility.yul\":4392:4407   */\n      revert\n        /* \"#utility.yul\":4418:4553   */\n    tag_135:\n        /* \"#utility.yul\":4457:4460   */\n      0x00\n        /* \"#utility.yul\":4478:4495   */\n      0x01\n      dup3\n      add\n        /* \"#utility.yul\":4475:4518   */\n      tag_387\n      jumpi\n        /* \"#utility.yul\":4498:4516   */\n      tag_387\n      tag_353\n      jump\t// in\n    tag_387:\n      pop\n        /* \"#utility.yul\":4545:4546   */\n      0x01\n        /* \"#utility.yul\":4534:4547   */\n      add\n      swap1\n        /* \"#utility.yul\":4418:4553   */\n      jump\t// out\n        /* \"#utility.yul\":5266:5391   */\n    tag_155:\n        /* \"#utility.yul\":5331:5340   */\n      dup1\n      dup3\n      add\n        /* \"#utility.yul\":5352:5362   */\n      dup1\n      dup3\n      gt\n        /* \"#utility.yul\":5349:5385   */\n      iszero\n      tag_271\n      jumpi\n        /* \"#utility.yul\":5365:5383   */\n      tag_271\n      tag_353\n      jump\t// in\n        /* \"#utility.yul\":5800:5936   */\n    tag_179:\n        /* \"#utility.yul\":5839:5842   */\n      0x00\n        /* \"#utility.yul\":5867:5872   */\n      dup2\n        /* \"#utility.yul\":5857:5896   */\n      tag_396\n      jumpi\n        /* \"#utility.yul\":5876:5894   */\n      tag_396\n      tag_353\n      jump\t// in\n    tag_396:\n      pop\n      not(0x00)\n        /* \"#utility.yul\":5912:5930   */\n      add\n      swap1\n        /* \"#utility.yul\":5800:5936   */\n      jump\t// out\n        /* \"#utility.yul\":7085:7269   */\n    tag_259:\n        /* \"#utility.yul\":7155:7161   */\n      0x00\n        /* \"#utility.yul\":7208:7210   */\n      0x20\n        /* \"#utility.yul\":7196:7205   */\n      dup3\n        /* \"#utility.yul\":7187:7194   */\n      dup5\n        /* \"#utility.yul\":7183:7206   */\n      sub\n        /* \"#utility.yul\":7179:7211   */\n      slt\n        /* \"#utility.yul\":7176:7228   */\n      iszero\n      tag_401\n      jumpi\n        /* \"#utility.yul\":7224:7225   */\n      0x00\n        /* \"#utility.yul\":7221:7222   */\n      dup1\n        /* \"#utility.yul\":7214:7226   */\n      revert\n        /* \"#utility.yul\":7176:7228   */\n    tag_401:\n      pop\n        /* \"#utility.yul\":7247:7263   */\n      mload\n      swap2\n        /* \"#utility.yul\":7085:7269   */\n      swap1\n      pop\n      jump\t// out\n        /* \"#utility.yul\":7634:7762   */\n    tag_267:\n        /* \"#utility.yul\":7701:7710   */\n      dup2\n      dup2\n      sub\n        /* \"#utility.yul\":7722:7733   */\n      dup2\n      dup2\n      gt\n        /* \"#utility.yul\":7719:7756   */\n      iszero\n      tag_271\n      jumpi\n        /* \"#utility.yul\":7736:7754   */\n      tag_271\n      tag_353\n      jump\t// in\n        /* \"#utility.yul\":7767:7935   */\n    tag_269:\n        /* \"#utility.yul\":7840:7849   */\n      dup1\n      dup3\n      mul\n        /* \"#utility.yul\":7871:7880   */\n      dup2\n      iszero\n        /* \"#utility.yul\":7888:7903   */\n      dup3\n      dup3\n      div\n        /* \"#utility.yul\":7882:7904   */\n      dup5\n      eq\n        /* \"#utility.yul\":7868:7905   */\n      or\n        /* \"#utility.yul\":7858:7929   */\n      tag_271\n      jumpi\n        /* \"#utility.yul\":7909:7927   */\n      tag_271\n      tag_353\n      jump\t// in\n        /* \"#utility.yul\":7940:8157   */\n    tag_272:\n        /* \"#utility.yul\":7980:7981   */\n      0x00\n        /* \"#utility.yul\":8006:8007   */\n      dup3\n        /* \"#utility.yul\":7996:8128   */\n      tag_410\n      jumpi\n        /* \"#utility.yul\":8050:8060   */\n      0x4e487b71\n        /* \"#utility.yul\":8045:8048   */\n      0xe0\n        /* \"#utility.yul\":8041:8061   */\n      shl\n        /* \"#utility.yul\":8038:8039   */\n      0x00\n        /* \"#utility.yul\":8031:8062   */\n      mstore\n        /* \"#utility.yul\":8085:8089   */\n      0x12\n        /* \"#utility.yul\":8082:8083   */\n      0x04\n        /* \"#utility.yul\":8075:8090   */\n      mstore\n        /* \"#utility.yul\":8113:8117   */\n      0x24\n        /* \"#utility.yul\":8110:8111   */\n      0x00\n        /* \"#utility.yul\":8103:8118   */\n      revert\n        /* \"#utility.yul\":7996:8128   */\n    tag_410:\n      pop\n        /* \"#utility.yul\":8142:8151   */\n      div\n      swap1\n        /* \"#utility.yul\":7940:8157   */\n      jump\t// out\n        /* \"#utility.yul\":9147:9398   */\n    tag_297:\n        /* \"#utility.yul\":9217:9223   */\n      0x00\n        /* \"#utility.yul\":9270:9272   */\n      0x20\n        /* \"#utility.yul\":9258:9267   */\n      dup3\n        /* \"#utility.yul\":9249:9256   */\n      dup5\n        /* \"#utility.yul\":9245:9268   */\n      sub\n        /* \"#utility.yul\":9241:9273   */\n      slt\n        /* \"#utility.yul\":9238:9290   */\n      iszero\n      tag_415\n      jumpi\n        /* \"#utility.yul\":9286:9287   */\n      0x00\n        /* \"#utility.yul\":9283:9284   */\n      dup1\n        /* \"#utility.yul\":9276:9288   */\n      revert\n        /* \"#utility.yul\":9238:9290   */\n    tag_415:\n        /* \"#utility.yul\":9318:9327   */\n      dup2\n        /* \"#utility.yul\":9312:9328   */\n      mload\n        /* \"#utility.yul\":9337:9368   */\n      tag_248\n        /* \"#utility.yul\":9362:9367   */\n      dup2\n        /* \"#utility.yul\":9337:9368   */\n      tag_351\n      jump\t// in\n        /* \"#utility.yul\":9752:9997   */\n    tag_319:\n        /* \"#utility.yul\":9819:9825   */\n      0x00\n        /* \"#utility.yul\":9872:9874   */\n      0x20\n        /* \"#utility.yul\":9860:9869   */\n      dup3\n        /* \"#utility.yul\":9851:9858   */\n      dup5\n        /* \"#utility.yul\":9847:9870   */\n      sub\n        /* \"#utility.yul\":9843:9875   */\n      slt\n        /* \"#utility.yul\":9840:9892   */\n      iszero\n      tag_419\n      jumpi\n        /* \"#utility.yul\":9888:9889   */\n      0x00\n        /* \"#utility.yul\":9885:9886   */\n      dup1\n        /* \"#utility.yul\":9878:9890   */\n      revert\n        /* \"#utility.yul\":9840:9892   */\n    tag_419:\n        /* \"#utility.yul\":9920:9929   */\n      dup2\n        /* \"#utility.yul\":9914:9930   */\n      mload\n        /* \"#utility.yul\":9939:9967   */\n      tag_248\n        /* \"#utility.yul\":9961:9966   */\n      dup2\n        /* \"#utility.yul\":9939:9967   */\n      tag_352\n      jump\t// in\n        /* \"#utility.yul\":11178:11428   */\n    tag_354:\n        /* \"#utility.yul\":11263:11264   */\n      0x00\n        /* \"#utility.yul\":11273:11386   */\n    tag_425:\n        /* \"#utility.yul\":11287:11293   */\n      dup4\n        /* \"#utility.yul\":11284:11285   */\n      dup2\n        /* \"#utility.yul\":11281:11294   */\n      lt\n        /* \"#utility.yul\":11273:11386   */\n      iszero\n      tag_427\n      jumpi\n        /* \"#utility.yul\":11363:11374   */\n      dup2\n      dup2\n      add\n        /* \"#utility.yul\":11357:11375   */\n      mload\n        /* \"#utility.yul\":11344:11355   */\n      dup4\n      dup3\n      add\n        /* \"#utility.yul\":11337:11376   */\n      mstore\n        /* \"#utility.yul\":11309:11311   */\n      0x20\n        /* \"#utility.yul\":11302:11312   */\n      add\n        /* \"#utility.yul\":11273:11386   */\n      jump(tag_425)\n    tag_427:\n      pop\n      pop\n        /* \"#utility.yul\":11420:11421   */\n      0x00\n        /* \"#utility.yul\":11402:11418   */\n      swap2\n      add\n        /* \"#utility.yul\":11395:11422   */\n      mstore\n        /* \"#utility.yul\":11178:11428   */\n      jump\t// out\n        /* \"#utility.yul\":11433:11720   */\n    tag_337:\n        /* \"#utility.yul\":11562:11565   */\n      0x00\n        /* \"#utility.yul\":11600:11606   */\n      dup3\n        /* \"#utility.yul\":11594:11607   */\n      mload\n        /* \"#utility.yul\":11616:11682   */\n      tag_429\n        /* \"#utility.yul\":11675:11681   */\n      dup2\n        /* \"#utility.yul\":11670:11673   */\n      dup5\n        /* \"#utility.yul\":11663:11667   */\n      0x20\n        /* \"#utility.yul\":11655:11661   */\n      dup8\n        /* \"#utility.yul\":11651:11668   */\n      add\n        /* \"#utility.yul\":11616:11682   */\n      tag_354\n      jump\t// in\n    tag_429:\n        /* \"#utility.yul\":11698:11714   */\n      swap2\n      swap1\n      swap2\n      add\n      swap3\n        /* \"#utility.yul\":11433:11720   */\n      swap2\n      pop\n      pop\n      jump\t// out\n        /* \"#utility.yul\":11725:12121   */\n    tag_350:\n        /* \"#utility.yul\":11874:11876   */\n      0x20\n        /* \"#utility.yul\":11863:11872   */\n      dup2\n        /* \"#utility.yul\":11856:11877   */\n      mstore\n        /* \"#utility.yul\":11837:11841   */\n      0x00\n        /* \"#utility.yul\":11906:11912   */\n      dup3\n        /* \"#utility.yul\":11900:11913   */\n      mload\n        /* \"#utility.yul\":11949:11955   */\n      dup1\n        /* \"#utility.yul\":11944:11946   */\n      0x20\n        /* \"#utility.yul\":11933:11942   */\n      dup5\n        /* \"#utility.yul\":11929:11947   */\n      add\n        /* \"#utility.yul\":11922:11956   */\n      mstore\n        /* \"#utility.yul\":11965:12044   */\n      tag_431\n        /* \"#utility.yul\":12037:12043   */\n      dup2\n        /* \"#utility.yul\":12032:12034   */\n      0x40\n        /* \"#utility.yul\":12021:12030   */\n      dup6\n        /* \"#utility.yul\":12017:12035   */\n      add\n        /* \"#utility.yul\":12012:12014   */\n      0x20\n        /* \"#utility.yul\":12004:12010   */\n      dup8\n        /* \"#utility.yul\":12000:12015   */\n      add\n        /* \"#utility.yul\":11965:12044   */\n      tag_354\n      jump\t// in\n    tag_431:\n        /* \"#utility.yul\":12105:12107   */\n      0x1f\n        /* \"#utility.yul\":12084:12099   */\n      add\n      not(0x1f)\n        /* \"#utility.yul\":12080:12109   */\n      and\n        /* \"#utility.yul\":12065:12110   */\n      swap2\n      swap1\n      swap2\n      add\n        /* \"#utility.yul\":12112:12114   */\n      0x40\n        /* \"#utility.yul\":12061:12115   */\n      add\n      swap3\n        /* \"#utility.yul\":11725:12121   */\n      swap2\n      pop\n      pop\n      jump\t// out\n\n    auxdata: 0xa264697066735822122031a6ba8384db8430167747d143d3222bb10865f21fe12da799b4e1ecd6d816ba64736f6c63430008120033\n}\n",
				"bytecode": {
					"linkReferences": {},
					"object": "6080604052620186a060055560036006556007805460ff1916905560006008553480156200002c57600080fd5b5060405162001851380380620018518339810160408190526200004f9162000138565b60016000819055805460ff191690556200006933620000c5565b600380546001600160a01b039687166001600160a01b0319918216811790925560048054821690921790915560028054959096169416939093179093556005556008556007805491151560ff19909216919091179055620001a4565b600180546001600160a01b03838116610100818102610100600160a81b031985161790945560405193909204169182907f8be0079c531659141344cd1fd0a4f28419497f9722a3daafe3b4186f6b6457e090600090a35050565b6001600160a01b03811681146200013557600080fd5b50565b600080600080600060a086880312156200015157600080fd5b85516200015e816200011f565b602087015190955062000171816200011f565b60408701516060880151919550935080151581146200018f57600080fd5b80925050608086015190509295509295909350565b61169d80620001b46000396000f3fe608060405234801561001057600080fd5b506004361061014d5760003560e01c8063715018a6116100c3578063ae04d45d1161007c578063ae04d45d1461030b578063b5a5e5091461031e578063d1af0c7d14610331578063f2fde38b14610344578063f854a27f14610357578063f995441b1461036a57600080fd5b8063715018a61461025e5780638da5cb5b146102665780638e7271fa1461027c5780639168ae721461028557806394067045146102cf578063a694fc3a146102f857600080fd5b8063372500ab11610115578063372500ab146101e457806354fd4d50146101ec5780635c975abb146101f557806363c28db1146102005780636588103b146102205780636aa4439f1461024b57600080fd5b80630c2517a8146101525780630d6680871461017b578063114cd3c8146101925780632e1a7d4d146101b25780633166b848146101c7575b600080fd5b6101656101603660046113c2565b610372565b60405161017291906113df565b60405180910390f35b61018460085481565b604051908152602001610172565b6101846101a0366004611441565b600b6020526000908152604090205481565b6101c56101c0366004611441565b6105ae565b005b6007546101d49060ff1681565b6040519015158152602001610172565b6101c561092f565b61018460065481565b60015460ff166101d4565b61021361020e3660046113c2565b6109e2565b604051610172919061145a565b600354610233906001600160a01b031681565b6040516001600160a01b039091168152602001610172565b6101c56102593660046114b3565b610af1565b6101c5610b0c565b60015461010090046001600160a01b0316610233565b61018460055481565b6102b46102933660046113c2565b60096020526000908152604090208054600282015460039092015490919083565b60408051938452602084019290925290820152606001610172565b6102336102dd366004611441565b600a602052600090815260409020546001600160a01b031681565b6101c5610306366004611441565b610b20565b6101c5610319366004611441565b610b44565b6101c561032c366004611441565b610b51565b600254610233906001600160a01b031681565b6101c56103523660046113c2565b610b5e565b6101846103653660046113c2565b610bd4565b6101c5610c0c565b6001600160a01b03811660009081526009602052604090205460609015610551576001600160a01b03821660009081526009602052604081205467ffffffffffffffff8111156103c4576103c46114d0565b60405190808252806020026020018201604052801561042257816020015b61040f604051806060016040528060006001600160a01b0316815260200160008152602001600081525090565b8152602001906001900390816103e25790505b5090506000805b6001600160a01b038516600090815260096020526040902060010154811015610548576001600160a01b0385166000908152600960205260408120600101805483908110610479576104796114e6565b60009182526020909120600390910201546001600160a01b031614610536576001600160a01b03851660009081526009602052604090206001018054829081106104c5576104c56114e6565b600091825260209182902060408051606081018252600390930290910180546001600160a01b0316835260018101549383019390935260029092015491810191909152835184908490811061051c5761051c6114e6565b6020026020010181905250818061053290611512565b9250505b8061054081611512565b915050610429565b50909392505050565b60408051600080825260208201909252906105a7565b610594604051806060016040528060006001600160a01b0316815260200160008152602001600081525090565b8152602001906001900390816105675790505b5092915050565b6105b6610ca3565b336000908152600960205260409020546106175760405162461bcd60e51b815260206004820152601960248201527f596f752068617665206e6f20746f6b656e73207374616b65640000000000000060448201526064015b60405180910390fd5b6000818152600a60205260409020546001600160a01b031633146106795760405162461bcd60e51b8152602060048201526019602482015278596f7520646f6e2774206f776e207468697320746f6b656e2160381b604482015260640161060e565b60075460ff1680156106a557506008546000828152600b602052604090205442916106a39161152b565b105b806106b3575060075460ff16155b61070b5760405162461bcd60e51b815260206004820152602360248201527f546f6b656e206c6f636b2074696d6520686173206e6f742079657420657870696044820152621c995960ea1b606482015260840161060e565b600061071633610cfc565b3360009081526009602052604081206003018054929350839290919061073d90849061152b565b9091555060009050805b3360009081526009602052604090206001015481101561080257336000908152600960205260409020600101805485919083908110610788576107886114e6565b9060005260206000209060030201600101541480156107e357503360009081526009602052604081206001018054839081106107c6576107c66114e6565b60009182526020909120600390910201546001600160a01b031614155b156107f057809150610802565b806107fa81611512565b915050610747565b50336000908152600960205260408120600101805483908110610827576108276114e6565b6000918252602080832060039290920290910180546001600160a01b0319166001600160a01b0394909416939093179092553381526009909152604081208054916108718361153e565b90915550506000838152600a6020908152604080832080546001600160a01b0319169055600b9091528082209190915560035490516323b872dd60e01b8152306004820152336024820152604481018590526001600160a01b03909116906323b872dd90606401600060405180830381600087803b1580156108f257600080fd5b505af1158015610906573d6000803e3d6000fd5b5050336000908152600960205260409020426002909101555061092c9250610d56915050565b50565b33600081815260096020526040812060030154909161094d90610cfc565b610957919061152b565b9050600081116109a95760405162461bcd60e51b815260206004820152601c60248201527f596f752068617665206e6f207265776172647320746f20636c61696d00000000604482015260640161060e565b336000818152600960205260408120426002808301919091556003909101919091555461092c916001600160a01b039091169083610d5d565b606060006109ef83610372565b90506000815167ffffffffffffffff811115610a0d57610a0d6114d0565b604051908082528060200260200182016040528015610a5257816020015b6040805180820190915260008082526020820152815260200190600190039081610a2b5790505b50905060005b8251811115610ae9576040518060400160405280848381518110610a7e57610a7e6114e6565b6020026020010151600001516001600160a01b03168152602001848381518110610aaa57610aaa6114e6565b602002602001015160200151815250828281518110610acb57610acb6114e6565b60200260200101819052508080610ae190611512565b915050610a58565b509392505050565b610af9610db4565b6007805460ff1916911515919091179055565b610b14610db4565b610b1e6000610e14565b565b610b28610ca3565b610b30610e6e565b610b3a3382610eb4565b61092c6001600055565b610b4c610db4565b600855565b610b59610db4565b600555565b610b66610db4565b6001600160a01b038116610bcb5760405162461bcd60e51b815260206004820152602660248201527f4f776e61626c653a206e6577206f776e657220697320746865207a65726f206160448201526564647265737360d01b606482015260840161060e565b61092c81610e14565b6001600160a01b0381166000908152600960205260408120600301548190610bfb84610cfc565b610c05919061152b565b9392505050565b610c14610db4565b610c1c61111a565b6002546040516370a0823160e01b81523060048201526000916001600160a01b0316906370a0823190602401602060405180830381865afa158015610c65573d6000803e3d6000fd5b505050506040513d601f19601f82011682018060405250810190610c899190611555565b60025490915061092c906001600160a01b03163383610d5d565b600260005403610cf55760405162461bcd60e51b815260206004820152601f60248201527f5265656e7472616e637947756172643a207265656e7472616e742063616c6c00604482015260640161060e565b6002600055565b6005546001600160a01b038216600090815260096020526040812080546002909101549192610e1092909190610d32904261156e565b610d3c9190611581565b610d469190611581565b610d509190611598565b92915050565b6001600055565b604080516001600160a01b038416602482015260448082018490528251808303909101815260649091019091526020810180516001600160e01b031663a9059cbb60e01b179052610daf908490611163565b505050565b6001546001600160a01b03610100909104163314610b1e5760405162461bcd60e51b815260206004820181905260248201527f4f776e61626c653a2063616c6c6572206973206e6f7420746865206f776e6572604482015260640161060e565b600180546001600160a01b03838116610100818102610100600160a81b031985161790945560405193909204169182907f8be0079c531659141344cd1fd0a4f28419497f9722a3daafe3b4186f6b6457e090600090a35050565b60015460ff1615610b1e5760405162461bcd60e51b815260206004820152601060248201526f14185d5cd8589b194e881c185d5cd95960821b604482015260640161060e565b6003546040516331a9108f60e11b8152600481018390526001600160a01b03848116921690636352211e90602401602060405180830381865afa158015610eff573d6000803e3d6000fd5b505050506040513d601f19601f82011682018060405250810190610f2391906115ba565b6001600160a01b031614610f755760405162461bcd60e51b8152602060048201526019602482015278596f7520646f6e2774206f776e207468697320746f6b656e2160381b604482015260640161060e565b6001600160a01b03821660009081526009602052604090205415610fd5576000610f9e83610cfc565b6001600160a01b038416600090815260096020526040812060030180549293508392909190610fce90849061152b565b9091555050505b6003546040516323b872dd60e01b81526001600160a01b03848116600483015230602483015260448201849052909116906323b872dd90606401600060405180830381600087803b15801561102957600080fd5b505af115801561103d573d6000803e3d6000fd5b5050604080516060810182526001600160a01b03868116808352602080840188815242858701908152600084815260098452968720600180820180548083018255908a52948920885160039096020180546001600160a01b03191695909716949094178655915192850192909255905160029093019290925583528054919450909250906110ca83611512565b9091555050506000908152600a6020908152604080832080546001600160a01b039095166001600160a01b031990951685179055600b825280832042908190559383526009909152902060020155565b60015460ff16610b1e5760405162461bcd60e51b815260206004820152601460248201527314185d5cd8589b194e881b9bdd081c185d5cd95960621b604482015260640161060e565b60006111b8826040518060400160405280602081526020017f5361666545524332303a206c6f772d6c6576656c2063616c6c206661696c6564815250856001600160a01b03166112359092919063ffffffff16565b805190915015610daf57808060200190518101906111d691906115d7565b610daf5760405162461bcd60e51b815260206004820152602a60248201527f5361666545524332303a204552433230206f7065726174696f6e20646964206e6044820152691bdd081cdd58d8d9595960b21b606482015260840161060e565b6060611244848460008561124c565b949350505050565b6060824710156112ad5760405162461bcd60e51b815260206004820152602660248201527f416464726573733a20696e73756666696369656e742062616c616e636520666f6044820152651c8818d85b1b60d21b606482015260840161060e565b843b6112fb5760405162461bcd60e51b815260206004820152601d60248201527f416464726573733a2063616c6c20746f206e6f6e2d636f6e7472616374000000604482015260640161060e565b600080866001600160a01b031685876040516113179190611618565b60006040518083038185875af1925050503d8060008114611354576040519150601f19603f3d011682016040523d82523d6000602084013e611359565b606091505b5091509150611369828286611374565b979650505050505050565b60608315611383575081610c05565b8251156113935782518084602001fd5b8160405162461bcd60e51b815260040161060e9190611634565b6001600160a01b038116811461092c57600080fd5b6000602082840312156113d457600080fd5b8135610c05816113ad565b602080825282518282018190526000919060409081850190868401855b8281101561143457815180516001600160a01b03168552868101518786015285015185850152606090930192908501906001016113fc565b5091979650505050505050565b60006020828403121561145357600080fd5b5035919050565b602080825282518282018190526000919060409081850190868401855b8281101561143457815180516001600160a01b03168552860151868501529284019290850190600101611477565b801515811461092c57600080fd5b6000602082840312156114c557600080fd5b8135610c05816114a5565b634e487b7160e01b600052604160045260246000fd5b634e487b7160e01b600052603260045260246000fd5b634e487b7160e01b600052601160045260246000fd5b600060018201611524576115246114fc565b5060010190565b80820180821115610d5057610d506114fc565b60008161154d5761154d6114fc565b506000190190565b60006020828403121561156757600080fd5b5051919050565b81810381811115610d5057610d506114fc565b8082028115828204841417610d5057610d506114fc565b6000826115b557634e487b7160e01b600052601260045260246000fd5b500490565b6000602082840312156115cc57600080fd5b8151610c05816113ad565b6000602082840312156115e957600080fd5b8151610c05816114a5565b60005b8381101561160f5781810151838201526020016115f7565b50506000910152565b6000825161162a8184602087016115f4565b9190910192915050565b60208152600082518060208401526116538160408501602087016115f4565b601f01601f1916919091016040019291505056fea264697066735822122031a6ba8384db8430167747d143d3222bb10865f21fe12da799b4e1ecd6d816ba64736f6c63430008120033",
					"opcodes": "PUSH1 0x80 PUSH1 0x40 MSTORE PUSH3 0x186A0 PUSH1 0x5 SSTORE PUSH1 0x3 PUSH1 0x6 SSTORE PUSH1 0x7 DUP1 SLOAD PUSH1 0xFF NOT AND SWAP1 SSTORE PUSH1 0x0 PUSH1 0x8 SSTORE CALLVALUE DUP1 ISZERO PUSH3 0x2C JUMPI PUSH1 0x0 DUP1 REVERT JUMPDEST POP PUSH1 0x40 MLOAD PUSH3 0x1851 CODESIZE SUB DUP1 PUSH3 0x1851 DUP4 CODECOPY DUP2 ADD PUSH1 0x40 DUP2 SWAP1 MSTORE PUSH3 0x4F SWAP2 PUSH3 0x138 JUMP JUMPDEST PUSH1 0x1 PUSH1 0x0 DUP2 SWAP1 SSTORE DUP1 SLOAD PUSH1 0xFF NOT AND SWAP1 SSTORE PUSH3 0x69 CALLER PUSH3 0xC5 JUMP JUMPDEST PUSH1 0x3 DUP1 SLOAD PUSH1 0x1 PUSH1 0x1 PUSH1 0xA0 SHL SUB SWAP7 DUP8 AND PUSH1 0x1 PUSH1 0x1 PUSH1 0xA0 SHL SUB NOT SWAP2 DUP3 AND DUP2 OR SWAP1 SWAP3 SSTORE PUSH1 0x4 DUP1 SLOAD DUP3 AND SWAP1 SWAP3 OR SWAP1 SWAP2 SSTORE PUSH1 0x2 DUP1 SLOAD SWAP6 SWAP1 SWAP7 AND SWAP5 AND SWAP4 SWAP1 SWAP4 OR SWAP1 SWAP4 SSTORE PUSH1 0x5 SSTORE PUSH1 0x8 SSTORE PUSH1 0x7 DUP1 SLOAD SWAP2 ISZERO ISZERO PUSH1 0xFF NOT SWAP1 SWAP3 AND SWAP2 SWAP1 SWAP2 OR SWAP1 SSTORE PUSH3 0x1A4 JUMP JUMPDEST PUSH1 0x1 DUP1 SLOAD PUSH1 0x1 PUSH1 0x1 PUSH1 0xA0 SHL SUB DUP4 DUP2 AND PUSH2 0x100 DUP2 DUP2 MUL PUSH2 0x100 PUSH1 0x1 PUSH1 0xA8 SHL SUB NOT DUP6 AND OR SWAP1 SWAP5 SSTORE PUSH1 0x40 MLOAD SWAP4 SWAP1 SWAP3 DIV AND SWAP2 DUP3 SWAP1 PUSH32 0x8BE0079C531659141344CD1FD0A4F28419497F9722A3DAAFE3B4186F6B6457E0 SWAP1 PUSH1 0x0 SWAP1 LOG3 POP POP JUMP JUMPDEST PUSH1 0x1 PUSH1 0x1 PUSH1 0xA0 SHL SUB DUP2 AND DUP2 EQ PUSH3 0x135 JUMPI PUSH1 0x0 DUP1 REVERT JUMPDEST POP JUMP JUMPDEST PUSH1 0x0 DUP1 PUSH1 0x0 DUP1 PUSH1 0x0 PUSH1 0xA0 DUP7 DUP9 SUB SLT ISZERO PUSH3 0x151 JUMPI PUSH1 0x0 DUP1 REVERT JUMPDEST DUP6 MLOAD PUSH3 0x15E DUP2 PUSH3 0x11F JUMP JUMPDEST PUSH1 0x20 DUP8 ADD MLOAD SWAP1 SWAP6 POP PUSH3 0x171 DUP2 PUSH3 0x11F JUMP JUMPDEST PUSH1 0x40 DUP8 ADD MLOAD PUSH1 0x60 DUP9 ADD MLOAD SWAP2 SWAP6 POP SWAP4 POP DUP1 ISZERO ISZERO DUP2 EQ PUSH3 0x18F JUMPI PUSH1 0x0 DUP1 REVERT JUMPDEST DUP1 SWAP3 POP POP PUSH1 0x80 DUP7 ADD MLOAD SWAP1 POP SWAP3 SWAP6 POP SWAP3 SWAP6 SWAP1 SWAP4 POP JUMP JUMPDEST PUSH2 0x169D DUP1 PUSH3 0x1B4 PUSH1 0x0 CODECOPY PUSH1 0x0 RETURN INVALID PUSH1 0x80 PUSH1 0x40 MSTORE CALLVALUE DUP1 ISZERO PUSH2 0x10 JUMPI PUSH1 0x0 DUP1 REVERT JUMPDEST POP PUSH1 0x4 CALLDATASIZE LT PUSH2 0x14D JUMPI PUSH1 0x0 CALLDATALOAD PUSH1 0xE0 SHR DUP1 PUSH4 0x715018A6 GT PUSH2 0xC3 JUMPI DUP1 PUSH4 0xAE04D45D GT PUSH2 0x7C JUMPI DUP1 PUSH4 0xAE04D45D EQ PUSH2 0x30B JUMPI DUP1 PUSH4 0xB5A5E509 EQ PUSH2 0x31E JUMPI DUP1 PUSH4 0xD1AF0C7D EQ PUSH2 0x331 JUMPI DUP1 PUSH4 0xF2FDE38B EQ PUSH2 0x344 JUMPI DUP1 PUSH4 0xF854A27F EQ PUSH2 0x357 JUMPI DUP1 PUSH4 0xF995441B EQ PUSH2 0x36A JUMPI PUSH1 0x0 DUP1 REVERT JUMPDEST DUP1 PUSH4 0x715018A6 EQ PUSH2 0x25E JUMPI DUP1 PUSH4 0x8DA5CB5B EQ PUSH2 0x266 JUMPI DUP1 PUSH4 0x8E7271FA EQ PUSH2 0x27C JUMPI DUP1 PUSH4 0x9168AE72 EQ PUSH2 0x285 JUMPI DUP1 PUSH4 0x94067045 EQ PUSH2 0x2CF JUMPI DUP1 PUSH4 0xA694FC3A EQ PUSH2 0x2F8 JUMPI PUSH1 0x0 DUP1 REVERT JUMPDEST DUP1 PUSH4 0x372500AB GT PUSH2 0x115 JUMPI DUP1 PUSH4 0x372500AB EQ PUSH2 0x1E4 JUMPI DUP1 PUSH4 0x54FD4D50 EQ PUSH2 0x1EC JUMPI DUP1 PUSH4 0x5C975ABB EQ PUSH2 0x1F5 JUMPI DUP1 PUSH4 0x63C28DB1 EQ PUSH2 0x200 JUMPI DUP1 PUSH4 0x6588103B EQ PUSH2 0x220 JUMPI DUP1 PUSH4 0x6AA4439F EQ PUSH2 0x24B JUMPI PUSH1 0x0 DUP1 REVERT JUMPDEST DUP1 PUSH4 0xC2517A8 EQ PUSH2 0x152 JUMPI DUP1 PUSH4 0xD668087 EQ PUSH2 0x17B JUMPI DUP1 PUSH4 0x114CD3C8 EQ PUSH2 0x192 JUMPI DUP1 PUSH4 0x2E1A7D4D EQ PUSH2 0x1B2 JUMPI DUP1 PUSH4 0x3166B848 EQ PUSH2 0x1C7 JUMPI JUMPDEST PUSH1 0x0 DUP1 REVERT JUMPDEST PUSH2 0x165 PUSH2 0x160 CALLDATASIZE PUSH1 0x4 PUSH2 0x13C2 JUMP JUMPDEST PUSH2 0x372 JUMP JUMPDEST PUSH1 0x40 MLOAD PUSH2 0x172 SWAP2 SWAP1 PUSH2 0x13DF JUMP JUMPDEST PUSH1 0x40 MLOAD DUP1 SWAP2 SUB SWAP1 RETURN JUMPDEST PUSH2 0x184 PUSH1 0x8 SLOAD DUP2 JUMP JUMPDEST PUSH1 0x40 MLOAD SWAP1 DUP2 MSTORE PUSH1 0x20 ADD PUSH2 0x172 JUMP JUMPDEST PUSH2 0x184 PUSH2 0x1A0 CALLDATASIZE PUSH1 0x4 PUSH2 0x1441 JUMP JUMPDEST PUSH1 0xB PUSH1 0x20 MSTORE PUSH1 0x0 SWAP1 DUP2 MSTORE PUSH1 0x40 SWAP1 KECCAK256 SLOAD DUP2 JUMP JUMPDEST PUSH2 0x1C5 PUSH2 0x1C0 CALLDATASIZE PUSH1 0x4 PUSH2 0x1441 JUMP JUMPDEST PUSH2 0x5AE JUMP JUMPDEST STOP JUMPDEST PUSH1 0x7 SLOAD PUSH2 0x1D4 SWAP1 PUSH1 0xFF AND DUP2 JUMP JUMPDEST PUSH1 0x40 MLOAD SWAP1 ISZERO ISZERO DUP2 MSTORE PUSH1 0x20 ADD PUSH2 0x172 JUMP JUMPDEST PUSH2 0x1C5 PUSH2 0x92F JUMP JUMPDEST PUSH2 0x184 PUSH1 0x6 SLOAD DUP2 JUMP JUMPDEST PUSH1 0x1 SLOAD PUSH1 0xFF AND PUSH2 0x1D4 JUMP JUMPDEST PUSH2 0x213 PUSH2 0x20E CALLDATASIZE PUSH1 0x4 PUSH2 0x13C2 JUMP JUMPDEST PUSH2 0x9E2 JUMP JUMPDEST PUSH1 0x40 MLOAD PUSH2 0x172 SWAP2 SWAP1 PUSH2 0x145A JUMP JUMPDEST PUSH1 0x3 SLOAD PUSH2 0x233 SWAP1 PUSH1 0x1 PUSH1 0x1 PUSH1 0xA0 SHL SUB AND DUP2 JUMP JUMPDEST PUSH1 0x40 MLOAD PUSH1 0x1 PUSH1 0x1 PUSH1 0xA0 SHL SUB SWAP1 SWAP2 AND DUP2 MSTORE PUSH1 0x20 ADD PUSH2 0x172 JUMP JUMPDEST PUSH2 0x1C5 PUSH2 0x259 CALLDATASIZE PUSH1 0x4 PUSH2 0x14B3 JUMP JUMPDEST PUSH2 0xAF1 JUMP JUMPDEST PUSH2 0x1C5 PUSH2 0xB0C JUMP JUMPDEST PUSH1 0x1 SLOAD PUSH2 0x100 SWAP1 DIV PUSH1 0x1 PUSH1 0x1 PUSH1 0xA0 SHL SUB AND PUSH2 0x233 JUMP JUMPDEST PUSH2 0x184 PUSH1 0x5 SLOAD DUP2 JUMP JUMPDEST PUSH2 0x2B4 PUSH2 0x293 CALLDATASIZE PUSH1 0x4 PUSH2 0x13C2 JUMP JUMPDEST PUSH1 0x9 PUSH1 0x20 MSTORE PUSH1 0x0 SWAP1 DUP2 MSTORE PUSH1 0x40 SWAP1 KECCAK256 DUP1 SLOAD PUSH1 0x2 DUP3 ADD SLOAD PUSH1 0x3 SWAP1 SWAP3 ADD SLOAD SWAP1 SWAP2 SWAP1 DUP4 JUMP JUMPDEST PUSH1 0x40 DUP1 MLOAD SWAP4 DUP5 MSTORE PUSH1 0x20 DUP5 ADD SWAP3 SWAP1 SWAP3 MSTORE SWAP1 DUP3 ADD MSTORE PUSH1 0x60 ADD PUSH2 0x172 JUMP JUMPDEST PUSH2 0x233 PUSH2 0x2DD CALLDATASIZE PUSH1 0x4 PUSH2 0x1441 JUMP JUMPDEST PUSH1 0xA PUSH1 0x20 MSTORE PUSH1 0x0 SWAP1 DUP2 MSTORE PUSH1 0x40 SWAP1 KECCAK256 SLOAD PUSH1 0x1 PUSH1 0x1 PUSH1 0xA0 SHL SUB AND DUP2 JUMP JUMPDEST PUSH2 0x1C5 PUSH2 0x306 CALLDATASIZE PUSH1 0x4 PUSH2 0x1441 JUMP JUMPDEST PUSH2 0xB20 JUMP JUMPDEST PUSH2 0x1C5 PUSH2 0x319 CALLDATASIZE PUSH1 0x4 PUSH2 0x1441 JUMP JUMPDEST PUSH2 0xB44 JUMP JUMPDEST PUSH2 0x1C5 PUSH2 0x32C CALLDATASIZE PUSH1 0x4 PUSH2 0x1441 JUMP JUMPDEST PUSH2 0xB51 JUMP JUMPDEST PUSH1 0x2 SLOAD PUSH2 0x233 SWAP1 PUSH1 0x1 PUSH1 0x1 PUSH1 0xA0 SHL SUB AND DUP2 JUMP JUMPDEST PUSH2 0x1C5 PUSH2 0x352 CALLDATASIZE PUSH1 0x4 PUSH2 0x13C2 JUMP JUMPDEST PUSH2 0xB5E JUMP JUMPDEST PUSH2 0x184 PUSH2 0x365 CALLDATASIZE PUSH1 0x4 PUSH2 0x13C2 JUMP JUMPDEST PUSH2 0xBD4 JUMP JUMPDEST PUSH2 0x1C5 PUSH2 0xC0C JUMP JUMPDEST PUSH1 0x1 PUSH1 0x1 PUSH1 0xA0 SHL SUB DUP2 AND PUSH1 0x0 SWAP1 DUP2 MSTORE PUSH1 0x9 PUSH1 0x20 MSTORE PUSH1 0x40 SWAP1 KECCAK256 SLOAD PUSH1 0x60 SWAP1 ISZERO PUSH2 0x551 JUMPI PUSH1 0x1 PUSH1 0x1 PUSH1 0xA0 SHL SUB DUP3 AND PUSH1 0x0 SWAP1 DUP2 MSTORE PUSH1 0x9 PUSH1 0x20 MSTORE PUSH1 0x40 DUP2 KECCAK256 SLOAD PUSH8 0xFFFFFFFFFFFFFFFF DUP2 GT ISZERO PUSH2 0x3C4 JUMPI PUSH2 0x3C4 PUSH2 0x14D0 JUMP JUMPDEST PUSH1 0x40 MLOAD SWAP1 DUP1 DUP3 MSTORE DUP1 PUSH1 0x20 MUL PUSH1 0x20 ADD DUP3 ADD PUSH1 0x40 MSTORE DUP1 ISZERO PUSH2 0x422 JUMPI DUP2 PUSH1 0x20 ADD JUMPDEST PUSH2 0x40F PUSH1 0x40 MLOAD DUP1 PUSH1 0x60 ADD PUSH1 0x40 MSTORE DUP1 PUSH1 0x0 PUSH1 0x1 PUSH1 0x1 PUSH1 0xA0 SHL SUB AND DUP2 MSTORE PUSH1 0x20 ADD PUSH1 0x0 DUP2 MSTORE PUSH1 0x20 ADD PUSH1 0x0 DUP2 MSTORE POP SWAP1 JUMP JUMPDEST DUP2 MSTORE PUSH1 0x20 ADD SWAP1 PUSH1 0x1 SWAP1 SUB SWAP1 DUP2 PUSH2 0x3E2 JUMPI SWAP1 POP JUMPDEST POP SWAP1 POP PUSH1 0x0 DUP1 JUMPDEST PUSH1 0x1 PUSH1 0x1 PUSH1 0xA0 SHL SUB DUP6 AND PUSH1 0x0 SWAP1 DUP2 MSTORE PUSH1 0x9 PUSH1 0x20 MSTORE PUSH1 0x40 SWAP1 KECCAK256 PUSH1 0x1 ADD SLOAD DUP2 LT ISZERO PUSH2 0x548 JUMPI PUSH1 0x1 PUSH1 0x1 PUSH1 0xA0 SHL SUB DUP6 AND PUSH1 0x0 SWAP1 DUP2 MSTORE PUSH1 0x9 PUSH1 0x20 MSTORE PUSH1 0x40 DUP2 KECCAK256 PUSH1 0x1 ADD DUP1 SLOAD DUP4 SWAP1 DUP2 LT PUSH2 0x479 JUMPI PUSH2 0x479 PUSH2 0x14E6 JUMP JUMPDEST PUSH1 0x0 SWAP2 DUP3 MSTORE PUSH1 0x20 SWAP1 SWAP2 KECCAK256 PUSH1 0x3 SWAP1 SWAP2 MUL ADD SLOAD PUSH1 0x1 PUSH1 0x1 PUSH1 0xA0 SHL SUB AND EQ PUSH2 0x536 JUMPI PUSH1 0x1 PUSH1 0x1 PUSH1 0xA0 SHL SUB DUP6 AND PUSH1 0x0 SWAP1 DUP2 MSTORE PUSH1 0x9 PUSH1 0x20 MSTORE PUSH1 0x40 SWAP1 KECCAK256 PUSH1 0x1 ADD DUP1 SLOAD DUP3 SWAP1 DUP2 LT PUSH2 0x4C5 JUMPI PUSH2 0x4C5 PUSH2 0x14E6 JUMP JUMPDEST PUSH1 0x0 SWAP2 DUP3 MSTORE PUSH1 0x20 SWAP2 DUP3 SWAP1 KECCAK256 PUSH1 0x40 DUP1 MLOAD PUSH1 0x60 DUP2 ADD DUP3 MSTORE PUSH1 0x3 SWAP1 SWAP4 MUL SWAP1 SWAP2 ADD DUP1 SLOAD PUSH1 0x1 PUSH1 0x1 PUSH1 0xA0 SHL SUB AND DUP4 MSTORE PUSH1 0x1 DUP2 ADD SLOAD SWAP4 DUP4 ADD SWAP4 SWAP1 SWAP4 MSTORE PUSH1 0x2 SWAP1 SWAP3 ADD SLOAD SWAP2 DUP2 ADD SWAP2 SWAP1 SWAP2 MSTORE DUP4 MLOAD DUP5 SWAP1 DUP5 SWAP1 DUP2 LT PUSH2 0x51C JUMPI PUSH2 0x51C PUSH2 0x14E6 JUMP JUMPDEST PUSH1 0x20 MUL PUSH1 0x20 ADD ADD DUP2 SWAP1 MSTORE POP DUP2 DUP1 PUSH2 0x532 SWAP1 PUSH2 0x1512 JUMP JUMPDEST SWAP3 POP POP JUMPDEST DUP1 PUSH2 0x540 DUP2 PUSH2 0x1512 JUMP JUMPDEST SWAP2 POP POP PUSH2 0x429 JUMP JUMPDEST POP SWAP1 SWAP4 SWAP3 POP POP POP JUMP JUMPDEST PUSH1 0x40 DUP1 MLOAD PUSH1 0x0 DUP1 DUP3 MSTORE PUSH1 0x20 DUP3 ADD SWAP1 SWAP3 MSTORE SWAP1 PUSH2 0x5A7 JUMP JUMPDEST PUSH2 0x594 PUSH1 0x40 MLOAD DUP1 PUSH1 0x60 ADD PUSH1 0x40 MSTORE DUP1 PUSH1 0x0 PUSH1 0x1 PUSH1 0x1 PUSH1 0xA0 SHL SUB AND DUP2 MSTORE PUSH1 0x20 ADD PUSH1 0x0 DUP2 MSTORE PUSH1 0x20 ADD PUSH1 0x0 DUP2 MSTORE POP SWAP1 JUMP JUMPDEST DUP2 MSTORE PUSH1 0x20 ADD SWAP1 PUSH1 0x1 SWAP1 SUB SWAP1 DUP2 PUSH2 0x567 JUMPI SWAP1 POP JUMPDEST POP SWAP3 SWAP2 POP POP JUMP JUMPDEST PUSH2 0x5B6 PUSH2 0xCA3 JUMP JUMPDEST CALLER PUSH1 0x0 SWAP1 DUP2 MSTORE PUSH1 0x9 PUSH1 0x20 MSTORE PUSH1 0x40 SWAP1 KECCAK256 SLOAD PUSH2 0x617 JUMPI PUSH1 0x40 MLOAD PUSH3 0x461BCD PUSH1 0xE5 SHL DUP2 MSTORE PUSH1 0x20 PUSH1 0x4 DUP3 ADD MSTORE PUSH1 0x19 PUSH1 0x24 DUP3 ADD MSTORE PUSH32 0x596F752068617665206E6F20746F6B656E73207374616B656400000000000000 PUSH1 0x44 DUP3 ADD MSTORE PUSH1 0x64 ADD JUMPDEST PUSH1 0x40 MLOAD DUP1 SWAP2 SUB SWAP1 REVERT JUMPDEST PUSH1 0x0 DUP2 DUP2 MSTORE PUSH1 0xA PUSH1 0x20 MSTORE PUSH1 0x40 SWAP1 KECCAK256 SLOAD PUSH1 0x1 PUSH1 0x1 PUSH1 0xA0 SHL SUB AND CALLER EQ PUSH2 0x679 JUMPI PUSH1 0x40 MLOAD PUSH3 0x461BCD PUSH1 0xE5 SHL DUP2 MSTORE PUSH1 0x20 PUSH1 0x4 DUP3 ADD MSTORE PUSH1 0x19 PUSH1 0x24 DUP3 ADD MSTORE PUSH25 0x596F7520646F6E2774206F776E207468697320746F6B656E21 PUSH1 0x38 SHL PUSH1 0x44 DUP3 ADD MSTORE PUSH1 0x64 ADD PUSH2 0x60E JUMP JUMPDEST PUSH1 0x7 SLOAD PUSH1 0xFF AND DUP1 ISZERO PUSH2 0x6A5 JUMPI POP PUSH1 0x8 SLOAD PUSH1 0x0 DUP3 DUP2 MSTORE PUSH1 0xB PUSH1 0x20 MSTORE PUSH1 0x40 SWAP1 KECCAK256 SLOAD TIMESTAMP SWAP2 PUSH2 0x6A3 SWAP2 PUSH2 0x152B JUMP JUMPDEST LT JUMPDEST DUP1 PUSH2 0x6B3 JUMPI POP PUSH1 0x7 SLOAD PUSH1 0xFF AND ISZERO JUMPDEST PUSH2 0x70B JUMPI PUSH1 0x40 MLOAD PUSH3 0x461BCD PUSH1 0xE5 SHL DUP2 MSTORE PUSH1 0x20 PUSH1 0x4 DUP3 ADD MSTORE PUSH1 0x23 PUSH1 0x24 DUP3 ADD MSTORE PUSH32 0x546F6B656E206C6F636B2074696D6520686173206E6F74207965742065787069 PUSH1 0x44 DUP3 ADD MSTORE PUSH3 0x1C9959 PUSH1 0xEA SHL PUSH1 0x64 DUP3 ADD MSTORE PUSH1 0x84 ADD PUSH2 0x60E JUMP JUMPDEST PUSH1 0x0 PUSH2 0x716 CALLER PUSH2 0xCFC JUMP JUMPDEST CALLER PUSH1 0x0 SWAP1 DUP2 MSTORE PUSH1 0x9 PUSH1 0x20 MSTORE PUSH1 0x40 DUP2 KECCAK256 PUSH1 0x3 ADD DUP1 SLOAD SWAP3 SWAP4 POP DUP4 SWAP3 SWAP1 SWAP2 SWAP1 PUSH2 0x73D SWAP1 DUP5 SWAP1 PUSH2 0x152B JUMP JUMPDEST SWAP1 SWAP2 SSTORE POP PUSH1 0x0 SWAP1 POP DUP1 JUMPDEST CALLER PUSH1 0x0 SWAP1 DUP2 MSTORE PUSH1 0x9 PUSH1 0x20 MSTORE PUSH1 0x40 SWAP1 KECCAK256 PUSH1 0x1 ADD SLOAD DUP2 LT ISZERO PUSH2 0x802 JUMPI CALLER PUSH1 0x0 SWAP1 DUP2 MSTORE PUSH1 0x9 PUSH1 0x20 MSTORE PUSH1 0x40 SWAP1 KECCAK256 PUSH1 0x1 ADD DUP1 SLOAD DUP6 SWAP2 SWAP1 DUP4 SWAP1 DUP2 LT PUSH2 0x788 JUMPI PUSH2 0x788 PUSH2 0x14E6 JUMP JUMPDEST SWAP1 PUSH1 0x0 MSTORE PUSH1 0x20 PUSH1 0x0 KECCAK256 SWAP1 PUSH1 0x3 MUL ADD PUSH1 0x1 ADD SLOAD EQ DUP1 ISZERO PUSH2 0x7E3 JUMPI POP CALLER PUSH1 0x0 SWAP1 DUP2 MSTORE PUSH1 0x9 PUSH1 0x20 MSTORE PUSH1 0x40 DUP2 KECCAK256 PUSH1 0x1 ADD DUP1 SLOAD DUP4 SWAP1 DUP2 LT PUSH2 0x7C6 JUMPI PUSH2 0x7C6 PUSH2 0x14E6 JUMP JUMPDEST PUSH1 0x0 SWAP2 DUP3 MSTORE PUSH1 0x20 SWAP1 SWAP2 KECCAK256 PUSH1 0x3 SWAP1 SWAP2 MUL ADD SLOAD PUSH1 0x1 PUSH1 0x1 PUSH1 0xA0 SHL SUB AND EQ ISZERO JUMPDEST ISZERO PUSH2 0x7F0 JUMPI DUP1 SWAP2 POP PUSH2 0x802 JUMP JUMPDEST DUP1 PUSH2 0x7FA DUP2 PUSH2 0x1512 JUMP JUMPDEST SWAP2 POP POP PUSH2 0x747 JUMP JUMPDEST POP CALLER PUSH1 0x0 SWAP1 DUP2 MSTORE PUSH1 0x9 PUSH1 0x20 MSTORE PUSH1 0x40 DUP2 KECCAK256 PUSH1 0x1 ADD DUP1 SLOAD DUP4 SWAP1 DUP2 LT PUSH2 0x827 JUMPI PUSH2 0x827 PUSH2 0x14E6 JUMP JUMPDEST PUSH1 0x0 SWAP2 DUP3 MSTORE PUSH1 0x20 DUP1 DUP4 KECCAK256 PUSH1 0x3 SWAP3 SWAP1 SWAP3 MUL SWAP1 SWAP2 ADD DUP1 SLOAD PUSH1 0x1 PUSH1 0x1 PUSH1 0xA0 SHL SUB NOT AND PUSH1 0x1 PUSH1 0x1 PUSH1 0xA0 SHL SUB SWAP5 SWAP1 SWAP5 AND SWAP4 SWAP1 SWAP4 OR SWAP1 SWAP3 SSTORE CALLER DUP2 MSTORE PUSH1 0x9 SWAP1 SWAP2 MSTORE PUSH1 0x40 DUP2 KECCAK256 DUP1 SLOAD SWAP2 PUSH2 0x871 DUP4 PUSH2 0x153E JUMP JUMPDEST SWAP1 SWAP2 SSTORE POP POP PUSH1 0x0 DUP4 DUP2 MSTORE PUSH1 0xA PUSH1 0x20 SWAP1 DUP2 MSTORE PUSH1 0x40 DUP1 DUP4 KECCAK256 DUP1 SLOAD PUSH1 0x1 PUSH1 0x1 PUSH1 0xA0 SHL SUB NOT AND SWAP1 SSTORE PUSH1 0xB SWAP1 SWAP2 MSTORE DUP1 DUP3 KECCAK256 SWAP2 SWAP1 SWAP2 SSTORE PUSH1 0x3 SLOAD SWAP1 MLOAD PUSH4 0x23B872DD PUSH1 0xE0 SHL DUP2 MSTORE ADDRESS PUSH1 0x4 DUP3 ADD MSTORE CALLER PUSH1 0x24 DUP3 ADD MSTORE PUSH1 0x44 DUP2 ADD DUP6 SWAP1 MSTORE PUSH1 0x1 PUSH1 0x1 PUSH1 0xA0 SHL SUB SWAP1 SWAP2 AND SWAP1 PUSH4 0x23B872DD SWAP1 PUSH1 0x64 ADD PUSH1 0x0 PUSH1 0x40 MLOAD DUP1 DUP4 SUB DUP2 PUSH1 0x0 DUP8 DUP1 EXTCODESIZE ISZERO DUP1 ISZERO PUSH2 0x8F2 JUMPI PUSH1 0x0 DUP1 REVERT JUMPDEST POP GAS CALL ISZERO DUP1 ISZERO PUSH2 0x906 JUMPI RETURNDATASIZE PUSH1 0x0 DUP1 RETURNDATACOPY RETURNDATASIZE PUSH1 0x0 REVERT JUMPDEST POP POP CALLER PUSH1 0x0 SWAP1 DUP2 MSTORE PUSH1 0x9 PUSH1 0x20 MSTORE PUSH1 0x40 SWAP1 KECCAK256 TIMESTAMP PUSH1 0x2 SWAP1 SWAP2 ADD SSTORE POP PUSH2 0x92C SWAP3 POP PUSH2 0xD56 SWAP2 POP POP JUMP JUMPDEST POP JUMP JUMPDEST CALLER PUSH1 0x0 DUP2 DUP2 MSTORE PUSH1 0x9 PUSH1 0x20 MSTORE PUSH1 0x40 DUP2 KECCAK256 PUSH1 0x3 ADD SLOAD SWAP1 SWAP2 PUSH2 0x94D SWAP1 PUSH2 0xCFC JUMP JUMPDEST PUSH2 0x957 SWAP2 SWAP1 PUSH2 0x152B JUMP JUMPDEST SWAP1 POP PUSH1 0x0 DUP2 GT PUSH2 0x9A9 JUMPI PUSH1 0x40 MLOAD PUSH3 0x461BCD PUSH1 0xE5 SHL DUP2 MSTORE PUSH1 0x20 PUSH1 0x4 DUP3 ADD MSTORE PUSH1 0x1C PUSH1 0x24 DUP3 ADD MSTORE PUSH32 0x596F752068617665206E6F207265776172647320746F20636C61696D00000000 PUSH1 0x44 DUP3 ADD MSTORE PUSH1 0x64 ADD PUSH2 0x60E JUMP JUMPDEST CALLER PUSH1 0x0 DUP2 DUP2 MSTORE PUSH1 0x9 PUSH1 0x20 MSTORE PUSH1 0x40 DUP2 KECCAK256 TIMESTAMP PUSH1 0x2 DUP1 DUP4 ADD SWAP2 SWAP1 SWAP2 SSTORE PUSH1 0x3 SWAP1 SWAP2 ADD SWAP2 SWAP1 SWAP2 SSTORE SLOAD PUSH2 0x92C SWAP2 PUSH1 0x1 PUSH1 0x1 PUSH1 0xA0 SHL SUB SWAP1 SWAP2 AND SWAP1 DUP4 PUSH2 0xD5D JUMP JUMPDEST PUSH1 0x60 PUSH1 0x0 PUSH2 0x9EF DUP4 PUSH2 0x372 JUMP JUMPDEST SWAP1 POP PUSH1 0x0 DUP2 MLOAD PUSH8 0xFFFFFFFFFFFFFFFF DUP2 GT ISZERO PUSH2 0xA0D JUMPI PUSH2 0xA0D PUSH2 0x14D0 JUMP JUMPDEST PUSH1 0x40 MLOAD SWAP1 DUP1 DUP3 MSTORE DUP1 PUSH1 0x20 MUL PUSH1 0x20 ADD DUP3 ADD PUSH1 0x40 MSTORE DUP1 ISZERO PUSH2 0xA52 JUMPI DUP2 PUSH1 0x20 ADD JUMPDEST PUSH1 0x40 DUP1 MLOAD DUP1 DUP3 ADD SWAP1 SWAP2 MSTORE PUSH1 0x0 DUP1 DUP3 MSTORE PUSH1 0x20 DUP3 ADD MSTORE DUP2 MSTORE PUSH1 0x20 ADD SWAP1 PUSH1 0x1 SWAP1 SUB SWAP1 DUP2 PUSH2 0xA2B JUMPI SWAP1 POP JUMPDEST POP SWAP1 POP PUSH1 0x0 JUMPDEST DUP3 MLOAD DUP2 GT ISZERO PUSH2 0xAE9 JUMPI PUSH1 0x40 MLOAD DUP1 PUSH1 0x40 ADD PUSH1 0x40 MSTORE DUP1 DUP5 DUP4 DUP2 MLOAD DUP2 LT PUSH2 0xA7E JUMPI PUSH2 0xA7E PUSH2 0x14E6 JUMP JUMPDEST PUSH1 0x20 MUL PUSH1 0x20 ADD ADD MLOAD PUSH1 0x0 ADD MLOAD PUSH1 0x1 PUSH1 0x1 PUSH1 0xA0 SHL SUB AND DUP2 MSTORE PUSH1 0x20 ADD DUP5 DUP4 DUP2 MLOAD DUP2 LT PUSH2 0xAAA JUMPI PUSH2 0xAAA PUSH2 0x14E6 JUMP JUMPDEST PUSH1 0x20 MUL PUSH1 0x20 ADD ADD MLOAD PUSH1 0x20 ADD MLOAD DUP2 MSTORE POP DUP3 DUP3 DUP2 MLOAD DUP2 LT PUSH2 0xACB JUMPI PUSH2 0xACB PUSH2 0x14E6 JUMP JUMPDEST PUSH1 0x20 MUL PUSH1 0x20 ADD ADD DUP2 SWAP1 MSTORE POP DUP1 DUP1 PUSH2 0xAE1 SWAP1 PUSH2 0x1512 JUMP JUMPDEST SWAP2 POP POP PUSH2 0xA58 JUMP JUMPDEST POP SWAP4 SWAP3 POP POP POP JUMP JUMPDEST PUSH2 0xAF9 PUSH2 0xDB4 JUMP JUMPDEST PUSH1 0x7 DUP1 SLOAD PUSH1 0xFF NOT AND SWAP2 ISZERO ISZERO SWAP2 SWAP1 SWAP2 OR SWAP1 SSTORE JUMP JUMPDEST PUSH2 0xB14 PUSH2 0xDB4 JUMP JUMPDEST PUSH2 0xB1E PUSH1 0x0 PUSH2 0xE14 JUMP JUMPDEST JUMP JUMPDEST PUSH2 0xB28 PUSH2 0xCA3 JUMP JUMPDEST PUSH2 0xB30 PUSH2 0xE6E JUMP JUMPDEST PUSH2 0xB3A CALLER DUP3 PUSH2 0xEB4 JUMP JUMPDEST PUSH2 0x92C PUSH1 0x1 PUSH1 0x0 SSTORE JUMP JUMPDEST PUSH2 0xB4C PUSH2 0xDB4 JUMP JUMPDEST PUSH1 0x8 SSTORE JUMP JUMPDEST PUSH2 0xB59 PUSH2 0xDB4 JUMP JUMPDEST PUSH1 0x5 SSTORE JUMP JUMPDEST PUSH2 0xB66 PUSH2 0xDB4 JUMP JUMPDEST PUSH1 0x1 PUSH1 0x1 PUSH1 0xA0 SHL SUB DUP2 AND PUSH2 0xBCB JUMPI PUSH1 0x40 MLOAD PUSH3 0x461BCD PUSH1 0xE5 SHL DUP2 MSTORE PUSH1 0x20 PUSH1 0x4 DUP3 ADD MSTORE PUSH1 0x26 PUSH1 0x24 DUP3 ADD MSTORE PUSH32 0x4F776E61626C653A206E6577206F776E657220697320746865207A65726F2061 PUSH1 0x44 DUP3 ADD MSTORE PUSH6 0x646472657373 PUSH1 0xD0 SHL PUSH1 0x64 DUP3 ADD MSTORE PUSH1 0x84 ADD PUSH2 0x60E JUMP JUMPDEST PUSH2 0x92C DUP2 PUSH2 0xE14 JUMP JUMPDEST PUSH1 0x1 PUSH1 0x1 PUSH1 0xA0 SHL SUB DUP2 AND PUSH1 0x0 SWAP1 DUP2 MSTORE PUSH1 0x9 PUSH1 0x20 MSTORE PUSH1 0x40 DUP2 KECCAK256 PUSH1 0x3 ADD SLOAD DUP2 SWAP1 PUSH2 0xBFB DUP5 PUSH2 0xCFC JUMP JUMPDEST PUSH2 0xC05 SWAP2 SWAP1 PUSH2 0x152B JUMP JUMPDEST SWAP4 SWAP3 POP POP POP JUMP JUMPDEST PUSH2 0xC14 PUSH2 0xDB4 JUMP JUMPDEST PUSH2 0xC1C PUSH2 0x111A JUMP JUMPDEST PUSH1 0x2 SLOAD PUSH1 0x40 MLOAD PUSH4 0x70A08231 PUSH1 0xE0 SHL DUP2 MSTORE ADDRESS PUSH1 0x4 DUP3 ADD MSTORE PUSH1 0x0 SWAP2 PUSH1 0x1 PUSH1 0x1 PUSH1 0xA0 SHL SUB AND SWAP1 PUSH4 0x70A08231 SWAP1 PUSH1 0x24 ADD PUSH1 0x20 PUSH1 0x40 MLOAD DUP1 DUP4 SUB DUP2 DUP7 GAS STATICCALL ISZERO DUP1 ISZERO PUSH2 0xC65 JUMPI RETURNDATASIZE PUSH1 0x0 DUP1 RETURNDATACOPY RETURNDATASIZE PUSH1 0x0 REVERT JUMPDEST POP POP POP POP PUSH1 0x40 MLOAD RETURNDATASIZE PUSH1 0x1F NOT PUSH1 0x1F DUP3 ADD AND DUP3 ADD DUP1 PUSH1 0x40 MSTORE POP DUP2 ADD SWAP1 PUSH2 0xC89 SWAP2 SWAP1 PUSH2 0x1555 JUMP JUMPDEST PUSH1 0x2 SLOAD SWAP1 SWAP2 POP PUSH2 0x92C SWAP1 PUSH1 0x1 PUSH1 0x1 PUSH1 0xA0 SHL SUB AND CALLER DUP4 PUSH2 0xD5D JUMP JUMPDEST PUSH1 0x2 PUSH1 0x0 SLOAD SUB PUSH2 0xCF5 JUMPI PUSH1 0x40 MLOAD PUSH3 0x461BCD PUSH1 0xE5 SHL DUP2 MSTORE PUSH1 0x20 PUSH1 0x4 DUP3 ADD MSTORE PUSH1 0x1F PUSH1 0x24 DUP3 ADD MSTORE PUSH32 0x5265656E7472616E637947756172643A207265656E7472616E742063616C6C00 PUSH1 0x44 DUP3 ADD MSTORE PUSH1 0x64 ADD PUSH2 0x60E JUMP JUMPDEST PUSH1 0x2 PUSH1 0x0 SSTORE JUMP JUMPDEST PUSH1 0x5 SLOAD PUSH1 0x1 PUSH1 0x1 PUSH1 0xA0 SHL SUB DUP3 AND PUSH1 0x0 SWAP1 DUP2 MSTORE PUSH1 0x9 PUSH1 0x20 MSTORE PUSH1 0x40 DUP2 KECCAK256 DUP1 SLOAD PUSH1 0x2 SWAP1 SWAP2 ADD SLOAD SWAP2 SWAP3 PUSH2 0xE10 SWAP3 SWAP1 SWAP2 SWAP1 PUSH2 0xD32 SWAP1 TIMESTAMP PUSH2 0x156E JUMP JUMPDEST PUSH2 0xD3C SWAP2 SWAP1 PUSH2 0x1581 JUMP JUMPDEST PUSH2 0xD46 SWAP2 SWAP1 PUSH2 0x1581 JUMP JUMPDEST PUSH2 0xD50 SWAP2 SWAP1 PUSH2 0x1598 JUMP JUMPDEST SWAP3 SWAP2 POP POP JUMP JUMPDEST PUSH1 0x1 PUSH1 0x0 SSTORE JUMP JUMPDEST PUSH1 0x40 DUP1 MLOAD PUSH1 0x1 PUSH1 0x1 PUSH1 0xA0 SHL SUB DUP5 AND PUSH1 0x24 DUP3 ADD MSTORE PUSH1 0x44 DUP1 DUP3 ADD DUP5 SWAP1 MSTORE DUP3 MLOAD DUP1 DUP4 SUB SWAP1 SWAP2 ADD DUP2 MSTORE PUSH1 0x64 SWAP1 SWAP2 ADD SWAP1 SWAP2 MSTORE PUSH1 0x20 DUP2 ADD DUP1 MLOAD PUSH1 0x1 PUSH1 0x1 PUSH1 0xE0 SHL SUB AND PUSH4 0xA9059CBB PUSH1 0xE0 SHL OR SWAP1 MSTORE PUSH2 0xDAF SWAP1 DUP5 SWAP1 PUSH2 0x1163 JUMP JUMPDEST POP POP POP JUMP JUMPDEST PUSH1 0x1 SLOAD PUSH1 0x1 PUSH1 0x1 PUSH1 0xA0 SHL SUB PUSH2 0x100 SWAP1 SWAP2 DIV AND CALLER EQ PUSH2 0xB1E JUMPI PUSH1 0x40 MLOAD PUSH3 0x461BCD PUSH1 0xE5 SHL DUP2 MSTORE PUSH1 0x20 PUSH1 0x4 DUP3 ADD DUP2 SWAP1 MSTORE PUSH1 0x24 DUP3 ADD MSTORE PUSH32 0x4F776E61626C653A2063616C6C6572206973206E6F7420746865206F776E6572 PUSH1 0x44 DUP3 ADD MSTORE PUSH1 0x64 ADD PUSH2 0x60E JUMP JUMPDEST PUSH1 0x1 DUP1 SLOAD PUSH1 0x1 PUSH1 0x1 PUSH1 0xA0 SHL SUB DUP4 DUP2 AND PUSH2 0x100 DUP2 DUP2 MUL PUSH2 0x100 PUSH1 0x1 PUSH1 0xA8 SHL SUB NOT DUP6 AND OR SWAP1 SWAP5 SSTORE PUSH1 0x40 MLOAD SWAP4 SWAP1 SWAP3 DIV AND SWAP2 DUP3 SWAP1 PUSH32 0x8BE0079C531659141344CD1FD0A4F28419497F9722A3DAAFE3B4186F6B6457E0 SWAP1 PUSH1 0x0 SWAP1 LOG3 POP POP JUMP JUMPDEST PUSH1 0x1 SLOAD PUSH1 0xFF AND ISZERO PUSH2 0xB1E JUMPI PUSH1 0x40 MLOAD PUSH3 0x461BCD PUSH1 0xE5 SHL DUP2 MSTORE PUSH1 0x20 PUSH1 0x4 DUP3 ADD MSTORE PUSH1 0x10 PUSH1 0x24 DUP3 ADD MSTORE PUSH16 0x14185D5CD8589B194E881C185D5CD959 PUSH1 0x82 SHL PUSH1 0x44 DUP3 ADD MSTORE PUSH1 0x64 ADD PUSH2 0x60E JUMP JUMPDEST PUSH1 0x3 SLOAD PUSH1 0x40 MLOAD PUSH4 0x31A9108F PUSH1 0xE1 SHL DUP2 MSTORE PUSH1 0x4 DUP2 ADD DUP4 SWAP1 MSTORE PUSH1 0x1 PUSH1 0x1 PUSH1 0xA0 SHL SUB DUP5 DUP2 AND SWAP3 AND SWAP1 PUSH4 0x6352211E SWAP1 PUSH1 0x24 ADD PUSH1 0x20 PUSH1 0x40 MLOAD DUP1 DUP4 SUB DUP2 DUP7 GAS STATICCALL ISZERO DUP1 ISZERO PUSH2 0xEFF JUMPI RETURNDATASIZE PUSH1 0x0 DUP1 RETURNDATACOPY RETURNDATASIZE PUSH1 0x0 REVERT JUMPDEST POP POP POP POP PUSH1 0x40 MLOAD RETURNDATASIZE PUSH1 0x1F NOT PUSH1 0x1F DUP3 ADD AND DUP3 ADD DUP1 PUSH1 0x40 MSTORE POP DUP2 ADD SWAP1 PUSH2 0xF23 SWAP2 SWAP1 PUSH2 0x15BA JUMP JUMPDEST PUSH1 0x1 PUSH1 0x1 PUSH1 0xA0 SHL SUB AND EQ PUSH2 0xF75 JUMPI PUSH1 0x40 MLOAD PUSH3 0x461BCD PUSH1 0xE5 SHL DUP2 MSTORE PUSH1 0x20 PUSH1 0x4 DUP3 ADD MSTORE PUSH1 0x19 PUSH1 0x24 DUP3 ADD MSTORE PUSH25 0x596F7520646F6E2774206F776E207468697320746F6B656E21 PUSH1 0x38 SHL PUSH1 0x44 DUP3 ADD MSTORE PUSH1 0x64 ADD PUSH2 0x60E JUMP JUMPDEST PUSH1 0x1 PUSH1 0x1 PUSH1 0xA0 SHL SUB DUP3 AND PUSH1 0x0 SWAP1 DUP2 MSTORE PUSH1 0x9 PUSH1 0x20 MSTORE PUSH1 0x40 SWAP1 KECCAK256 SLOAD ISZERO PUSH2 0xFD5 JUMPI PUSH1 0x0 PUSH2 0xF9E DUP4 PUSH2 0xCFC JUMP JUMPDEST PUSH1 0x1 PUSH1 0x1 PUSH1 0xA0 SHL SUB DUP5 AND PUSH1 0x0 SWAP1 DUP2 MSTORE PUSH1 0x9 PUSH1 0x20 MSTORE PUSH1 0x40 DUP2 KECCAK256 PUSH1 0x3 ADD DUP1 SLOAD SWAP3 SWAP4 POP DUP4 SWAP3 SWAP1 SWAP2 SWAP1 PUSH2 0xFCE SWAP1 DUP5 SWAP1 PUSH2 0x152B JUMP JUMPDEST SWAP1 SWAP2 SSTORE POP POP POP JUMPDEST PUSH1 0x3 SLOAD PUSH1 0x40 MLOAD PUSH4 0x23B872DD PUSH1 0xE0 SHL DUP2 MSTORE PUSH1 0x1 PUSH1 0x1 PUSH1 0xA0 SHL SUB DUP5 DUP2 AND PUSH1 0x4 DUP4 ADD MSTORE ADDRESS PUSH1 0x24 DUP4 ADD MSTORE PUSH1 0x44 DUP3 ADD DUP5 SWAP1 MSTORE SWAP1 SWAP2 AND SWAP1 PUSH4 0x23B872DD SWAP1 PUSH1 0x64 ADD PUSH1 0x0 PUSH1 0x40 MLOAD DUP1 DUP4 SUB DUP2 PUSH1 0x0 DUP8 DUP1 EXTCODESIZE ISZERO DUP1 ISZERO PUSH2 0x1029 JUMPI PUSH1 0x0 DUP1 REVERT JUMPDEST POP GAS CALL ISZERO DUP1 ISZERO PUSH2 0x103D JUMPI RETURNDATASIZE PUSH1 0x0 DUP1 RETURNDATACOPY RETURNDATASIZE PUSH1 0x0 REVERT JUMPDEST POP POP PUSH1 0x40 DUP1 MLOAD PUSH1 0x60 DUP2 ADD DUP3 MSTORE PUSH1 0x1 PUSH1 0x1 PUSH1 0xA0 SHL SUB DUP7 DUP2 AND DUP1 DUP4 MSTORE PUSH1 0x20 DUP1 DUP5 ADD DUP9 DUP2 MSTORE TIMESTAMP DUP6 DUP8 ADD SWAP1 DUP2 MSTORE PUSH1 0x0 DUP5 DUP2 MSTORE PUSH1 0x9 DUP5 MSTORE SWAP7 DUP8 KECCAK256 PUSH1 0x1 DUP1 DUP3 ADD DUP1 SLOAD DUP1 DUP4 ADD DUP3 SSTORE SWAP1 DUP11 MSTORE SWAP5 DUP10 KECCAK256 DUP9 MLOAD PUSH1 0x3 SWAP1 SWAP7 MUL ADD DUP1 SLOAD PUSH1 0x1 PUSH1 0x1 PUSH1 0xA0 SHL SUB NOT AND SWAP6 SWAP1 SWAP8 AND SWAP5 SWAP1 SWAP5 OR DUP7 SSTORE SWAP2 MLOAD SWAP3 DUP6 ADD SWAP3 SWAP1 SWAP3 SSTORE SWAP1 MLOAD PUSH1 0x2 SWAP1 SWAP4 ADD SWAP3 SWAP1 SWAP3 SSTORE DUP4 MSTORE DUP1 SLOAD SWAP2 SWAP5 POP SWAP1 SWAP3 POP SWAP1 PUSH2 0x10CA DUP4 PUSH2 0x1512 JUMP JUMPDEST SWAP1 SWAP2 SSTORE POP POP POP PUSH1 0x0 SWAP1 DUP2 MSTORE PUSH1 0xA PUSH1 0x20 SWAP1 DUP2 MSTORE PUSH1 0x40 DUP1 DUP4 KECCAK256 DUP1 SLOAD PUSH1 0x1 PUSH1 0x1 PUSH1 0xA0 SHL SUB SWAP1 SWAP6 AND PUSH1 0x1 PUSH1 0x1 PUSH1 0xA0 SHL SUB NOT SWAP1 SWAP6 AND DUP6 OR SWAP1 SSTORE PUSH1 0xB DUP3 MSTORE DUP1 DUP4 KECCAK256 TIMESTAMP SWAP1 DUP2 SWAP1 SSTORE SWAP4 DUP4 MSTORE PUSH1 0x9 SWAP1 SWAP2 MSTORE SWAP1 KECCAK256 PUSH1 0x2 ADD SSTORE JUMP JUMPDEST PUSH1 0x1 SLOAD PUSH1 0xFF AND PUSH2 0xB1E JUMPI PUSH1 0x40 MLOAD PUSH3 0x461BCD PUSH1 0xE5 SHL DUP2 MSTORE PUSH1 0x20 PUSH1 0x4 DUP3 ADD MSTORE PUSH1 0x14 PUSH1 0x24 DUP3 ADD MSTORE PUSH20 0x14185D5CD8589B194E881B9BDD081C185D5CD959 PUSH1 0x62 SHL PUSH1 0x44 DUP3 ADD MSTORE PUSH1 0x64 ADD PUSH2 0x60E JUMP JUMPDEST PUSH1 0x0 PUSH2 0x11B8 DUP3 PUSH1 0x40 MLOAD DUP1 PUSH1 0x40 ADD PUSH1 0x40 MSTORE DUP1 PUSH1 0x20 DUP2 MSTORE PUSH1 0x20 ADD PUSH32 0x5361666545524332303A206C6F772D6C6576656C2063616C6C206661696C6564 DUP2 MSTORE POP DUP6 PUSH1 0x1 PUSH1 0x1 PUSH1 0xA0 SHL SUB AND PUSH2 0x1235 SWAP1 SWAP3 SWAP2 SWAP1 PUSH4 0xFFFFFFFF AND JUMP JUMPDEST DUP1 MLOAD SWAP1 SWAP2 POP ISZERO PUSH2 0xDAF JUMPI DUP1 DUP1 PUSH1 0x20 ADD SWAP1 MLOAD DUP2 ADD SWAP1 PUSH2 0x11D6 SWAP2 SWAP1 PUSH2 0x15D7 JUMP JUMPDEST PUSH2 0xDAF JUMPI PUSH1 0x40 MLOAD PUSH3 0x461BCD PUSH1 0xE5 SHL DUP2 MSTORE PUSH1 0x20 PUSH1 0x4 DUP3 ADD MSTORE PUSH1 0x2A PUSH1 0x24 DUP3 ADD MSTORE PUSH32 0x5361666545524332303A204552433230206F7065726174696F6E20646964206E PUSH1 0x44 DUP3 ADD MSTORE PUSH10 0x1BDD081CDD58D8D95959 PUSH1 0xB2 SHL PUSH1 0x64 DUP3 ADD MSTORE PUSH1 0x84 ADD PUSH2 0x60E JUMP JUMPDEST PUSH1 0x60 PUSH2 0x1244 DUP5 DUP5 PUSH1 0x0 DUP6 PUSH2 0x124C JUMP JUMPDEST SWAP5 SWAP4 POP POP POP POP JUMP JUMPDEST PUSH1 0x60 DUP3 SELFBALANCE LT ISZERO PUSH2 0x12AD JUMPI PUSH1 0x40 MLOAD PUSH3 0x461BCD PUSH1 0xE5 SHL DUP2 MSTORE PUSH1 0x20 PUSH1 0x4 DUP3 ADD MSTORE PUSH1 0x26 PUSH1 0x24 DUP3 ADD MSTORE PUSH32 0x416464726573733A20696E73756666696369656E742062616C616E636520666F PUSH1 0x44 DUP3 ADD MSTORE PUSH6 0x1C8818D85B1B PUSH1 0xD2 SHL PUSH1 0x64 DUP3 ADD MSTORE PUSH1 0x84 ADD PUSH2 0x60E JUMP JUMPDEST DUP5 EXTCODESIZE PUSH2 0x12FB JUMPI PUSH1 0x40 MLOAD PUSH3 0x461BCD PUSH1 0xE5 SHL DUP2 MSTORE PUSH1 0x20 PUSH1 0x4 DUP3 ADD MSTORE PUSH1 0x1D PUSH1 0x24 DUP3 ADD MSTORE PUSH32 0x416464726573733A2063616C6C20746F206E6F6E2D636F6E7472616374000000 PUSH1 0x44 DUP3 ADD MSTORE PUSH1 0x64 ADD PUSH2 0x60E JUMP JUMPDEST PUSH1 0x0 DUP1 DUP7 PUSH1 0x1 PUSH1 0x1 PUSH1 0xA0 SHL SUB AND DUP6 DUP8 PUSH1 0x40 MLOAD PUSH2 0x1317 SWAP2 SWAP1 PUSH2 0x1618 JUMP JUMPDEST PUSH1 0x0 PUSH1 0x40 MLOAD DUP1 DUP4 SUB DUP2 DUP6 DUP8 GAS CALL SWAP3 POP POP POP RETURNDATASIZE DUP1 PUSH1 0x0 DUP2 EQ PUSH2 0x1354 JUMPI PUSH1 0x40 MLOAD SWAP2 POP PUSH1 0x1F NOT PUSH1 0x3F RETURNDATASIZE ADD AND DUP3 ADD PUSH1 0x40 MSTORE RETURNDATASIZE DUP3 MSTORE RETURNDATASIZE PUSH1 0x0 PUSH1 0x20 DUP5 ADD RETURNDATACOPY PUSH2 0x1359 JUMP JUMPDEST PUSH1 0x60 SWAP2 POP JUMPDEST POP SWAP2 POP SWAP2 POP PUSH2 0x1369 DUP3 DUP3 DUP7 PUSH2 0x1374 JUMP JUMPDEST SWAP8 SWAP7 POP POP POP POP POP POP POP JUMP JUMPDEST PUSH1 0x60 DUP4 ISZERO PUSH2 0x1383 JUMPI POP DUP2 PUSH2 0xC05 JUMP JUMPDEST DUP3 MLOAD ISZERO PUSH2 0x1393 JUMPI DUP3 MLOAD DUP1 DUP5 PUSH1 0x20 ADD REVERT JUMPDEST DUP2 PUSH1 0x40 MLOAD PUSH3 0x461BCD PUSH1 0xE5 SHL DUP2 MSTORE PUSH1 0x4 ADD PUSH2 0x60E SWAP2 SWAP1 PUSH2 0x1634 JUMP JUMPDEST PUSH1 0x1 PUSH1 0x1 PUSH1 0xA0 SHL SUB DUP2 AND DUP2 EQ PUSH2 0x92C JUMPI PUSH1 0x0 DUP1 REVERT JUMPDEST PUSH1 0x0 PUSH1 0x20 DUP3 DUP5 SUB SLT ISZERO PUSH2 0x13D4 JUMPI PUSH1 0x0 DUP1 REVERT JUMPDEST DUP2 CALLDATALOAD PUSH2 0xC05 DUP2 PUSH2 0x13AD JUMP JUMPDEST PUSH1 0x20 DUP1 DUP3 MSTORE DUP3 MLOAD DUP3 DUP3 ADD DUP2 SWAP1 MSTORE PUSH1 0x0 SWAP2 SWAP1 PUSH1 0x40 SWAP1 DUP2 DUP6 ADD SWAP1 DUP7 DUP5 ADD DUP6 JUMPDEST DUP3 DUP2 LT ISZERO PUSH2 0x1434 JUMPI DUP2 MLOAD DUP1 MLOAD PUSH1 0x1 PUSH1 0x1 PUSH1 0xA0 SHL SUB AND DUP6 MSTORE DUP7 DUP2 ADD MLOAD DUP8 DUP7 ADD MSTORE DUP6 ADD MLOAD DUP6 DUP6 ADD MSTORE PUSH1 0x60 SWAP1 SWAP4 ADD SWAP3 SWAP1 DUP6 ADD SWAP1 PUSH1 0x1 ADD PUSH2 0x13FC JUMP JUMPDEST POP SWAP2 SWAP8 SWAP7 POP POP POP POP POP POP POP JUMP JUMPDEST PUSH1 0x0 PUSH1 0x20 DUP3 DUP5 SUB SLT ISZERO PUSH2 0x1453 JUMPI PUSH1 0x0 DUP1 REVERT JUMPDEST POP CALLDATALOAD SWAP2 SWAP1 POP JUMP JUMPDEST PUSH1 0x20 DUP1 DUP3 MSTORE DUP3 MLOAD DUP3 DUP3 ADD DUP2 SWAP1 MSTORE PUSH1 0x0 SWAP2 SWAP1 PUSH1 0x40 SWAP1 DUP2 DUP6 ADD SWAP1 DUP7 DUP5 ADD DUP6 JUMPDEST DUP3 DUP2 LT ISZERO PUSH2 0x1434 JUMPI DUP2 MLOAD DUP1 MLOAD PUSH1 0x1 PUSH1 0x1 PUSH1 0xA0 SHL SUB AND DUP6 MSTORE DUP7 ADD MLOAD DUP7 DUP6 ADD MSTORE SWAP3 DUP5 ADD SWAP3 SWAP1 DUP6 ADD SWAP1 PUSH1 0x1 ADD PUSH2 0x1477 JUMP JUMPDEST DUP1 ISZERO ISZERO DUP2 EQ PUSH2 0x92C JUMPI PUSH1 0x0 DUP1 REVERT JUMPDEST PUSH1 0x0 PUSH1 0x20 DUP3 DUP5 SUB SLT ISZERO PUSH2 0x14C5 JUMPI PUSH1 0x0 DUP1 REVERT JUMPDEST DUP2 CALLDATALOAD PUSH2 0xC05 DUP2 PUSH2 0x14A5 JUMP JUMPDEST PUSH4 0x4E487B71 PUSH1 0xE0 SHL PUSH1 0x0 MSTORE PUSH1 0x41 PUSH1 0x4 MSTORE PUSH1 0x24 PUSH1 0x0 REVERT JUMPDEST PUSH4 0x4E487B71 PUSH1 0xE0 SHL PUSH1 0x0 MSTORE PUSH1 0x32 PUSH1 0x4 MSTORE PUSH1 0x24 PUSH1 0x0 REVERT JUMPDEST PUSH4 0x4E487B71 PUSH1 0xE0 SHL PUSH1 0x0 MSTORE PUSH1 0x11 PUSH1 0x4 MSTORE PUSH1 0x24 PUSH1 0x0 REVERT JUMPDEST PUSH1 0x0 PUSH1 0x1 DUP3 ADD PUSH2 0x1524 JUMPI PUSH2 0x1524 PUSH2 0x14FC JUMP JUMPDEST POP PUSH1 0x1 ADD SWAP1 JUMP JUMPDEST DUP1 DUP3 ADD DUP1 DUP3 GT ISZERO PUSH2 0xD50 JUMPI PUSH2 0xD50 PUSH2 0x14FC JUMP JUMPDEST PUSH1 0x0 DUP2 PUSH2 0x154D JUMPI PUSH2 0x154D PUSH2 0x14FC JUMP JUMPDEST POP PUSH1 0x0 NOT ADD SWAP1 JUMP JUMPDEST PUSH1 0x0 PUSH1 0x20 DUP3 DUP5 SUB SLT ISZERO PUSH2 0x1567 JUMPI PUSH1 0x0 DUP1 REVERT JUMPDEST POP MLOAD SWAP2 SWAP1 POP JUMP JUMPDEST DUP2 DUP2 SUB DUP2 DUP2 GT ISZERO PUSH2 0xD50 JUMPI PUSH2 0xD50 PUSH2 0x14FC JUMP JUMPDEST DUP1 DUP3 MUL DUP2 ISZERO DUP3 DUP3 DIV DUP5 EQ OR PUSH2 0xD50 JUMPI PUSH2 0xD50 PUSH2 0x14FC JUMP JUMPDEST PUSH1 0x0 DUP3 PUSH2 0x15B5 JUMPI PUSH4 0x4E487B71 PUSH1 0xE0 SHL PUSH1 0x0 MSTORE PUSH1 0x12 PUSH1 0x4 MSTORE PUSH1 0x24 PUSH1 0x0 REVERT JUMPDEST POP DIV SWAP1 JUMP JUMPDEST PUSH1 0x0 PUSH1 0x20 DUP3 DUP5 SUB SLT ISZERO PUSH2 0x15CC JUMPI PUSH1 0x0 DUP1 REVERT JUMPDEST DUP2 MLOAD PUSH2 0xC05 DUP2 PUSH2 0x13AD JUMP JUMPDEST PUSH1 0x0 PUSH1 0x20 DUP3 DUP5 SUB SLT ISZERO PUSH2 0x15E9 JUMPI PUSH1 0x0 DUP1 REVERT JUMPDEST DUP2 MLOAD PUSH2 0xC05 DUP2 PUSH2 0x14A5 JUMP JUMPDEST PUSH1 0x0 JUMPDEST DUP4 DUP2 LT ISZERO PUSH2 0x160F JUMPI DUP2 DUP2 ADD MLOAD DUP4 DUP3 ADD MSTORE PUSH1 0x20 ADD PUSH2 0x15F7 JUMP JUMPDEST POP POP PUSH1 0x0 SWAP2 ADD MSTORE JUMP JUMPDEST PUSH1 0x0 DUP3 MLOAD PUSH2 0x162A DUP2 DUP5 PUSH1 0x20 DUP8 ADD PUSH2 0x15F4 JUMP JUMPDEST SWAP2 SWAP1 SWAP2 ADD SWAP3 SWAP2 POP POP JUMP JUMPDEST PUSH1 0x20 DUP2 MSTORE PUSH1 0x0 DUP3 MLOAD DUP1 PUSH1 0x20 DUP5 ADD MSTORE PUSH2 0x1653 DUP2 PUSH1 0x40 DUP6 ADD PUSH1 0x20 DUP8 ADD PUSH2 0x15F4 JUMP JUMPDEST PUSH1 0x1F ADD PUSH1 0x1F NOT AND SWAP2 SWAP1 SWAP2 ADD PUSH1 0x40 ADD SWAP3 SWAP2 POP POP JUMP INVALID LOG2 PUSH5 0x6970667358 0x22 SLT KECCAK256 BALANCE 0xA6 0xBA DUP4 DUP5 0xDB DUP5 ADDRESS AND PUSH24 0x47D143D3222BB10865F21FE12DA799B4E1ECD6D816BA6473 PUSH16 0x6C634300081200330000000000000000 "
				},
				"gasEstimates": {
					"creation": {
						"codeDepositCost": "1157800",
						"executionCost": "infinite",
						"totalCost": "infinite"
					},
					"external": {
						"adminWithdrawRewards()": "infinite",
						"availableRewards(address)": "infinite",
						"claimRewards()": "infinite",
						"getStakedTokens(address)": "infinite",
						"getStakedTokens_V3(address)": "infinite",
						"lockEnabled()": "2422",
						"lockTime()": "2341",
						"nftCollection()": "2448",
						"owner()": "2387",
						"paused()": "2371",
						"renounceOwnership()": "infinite",
						"rewardsPerHour()": "2362",
						"rewardsToken()": "2403",
						"setLockEnabled(bool)": "26834",
						"setLockTime(uint256)": "24524",
						"setRewardsPerHour(uint256)": "24546",
						"stake(uint256)": "infinite",
						"stakerAddress(uint256)": "2588",
						"stakers(address)": "6877",
						"tokenStartStakeTime(uint256)": "2506",
						"transferOwnership(address)": "infinite",
						"version()": "2340",
						"withdraw(uint256)": "infinite"
					},
					"internal": {
						"_stake(address,uint256)": "infinite",
						"calculateRewards(address)": "infinite"
					}
				},
				"methodIdentifiers": {
					"adminWithdrawRewards()": "f995441b",
					"availableRewards(address)": "f854a27f",
					"claimRewards()": "372500ab",
					"getStakedTokens(address)": "63c28db1",
					"getStakedTokens_V3(address)": "0c2517a8",
					"lockEnabled()": "3166b848",
					"lockTime()": "0d668087",
					"nftCollection()": "6588103b",
					"owner()": "8da5cb5b",
					"paused()": "5c975abb",
					"renounceOwnership()": "715018a6",
					"rewardsPerHour()": "8e7271fa",
					"rewardsToken()": "d1af0c7d",
					"setLockEnabled(bool)": "6aa4439f",
					"setLockTime(uint256)": "ae04d45d",
					"setRewardsPerHour(uint256)": "b5a5e509",
					"stake(uint256)": "a694fc3a",
					"stakerAddress(uint256)": "94067045",
					"stakers(address)": "9168ae72",
					"tokenStartStakeTime(uint256)": "114cd3c8",
					"transferOwnership(address)": "f2fde38b",
					"version()": "54fd4d50",
					"withdraw(uint256)": "2e1a7d4d"
				}
			},
			"storageLayout": {
				"storage": [
					{
						"astId": 569,
						"contract": "source/Farm.sol:Farm",
						"label": "_status",
						"offset": 0,
						"slot": "0",
						"type": "t_uint256"
					},
					{
						"astId": 471,
						"contract": "source/Farm.sol:Farm",
						"label": "_paused",
						"offset": 0,
						"slot": "1",
						"type": "t_bool"
					},
					{
						"astId": 1022,
						"contract": "source/Farm.sol:Farm",
						"label": "_owner",
						"offset": 1,
						"slot": "1",
						"type": "t_address"
					},
					{
						"astId": 1166,
						"contract": "source/Farm.sol:Farm",
						"label": "rewardsToken",
						"offset": 0,
						"slot": "2",
						"type": "t_contract(IERC20)438"
					},
					{
						"astId": 1169,
						"contract": "source/Farm.sol:Farm",
						"label": "nftCollection",
						"offset": 0,
						"slot": "3",
						"type": "t_contract(IERC721)122"
					},
					{
						"astId": 1171,
						"contract": "source/Farm.sol:Farm",
						"label": "nftCollectionAddress",
						"offset": 0,
						"slot": "4",
						"type": "t_address"
					},
					{
						"astId": 1174,
						"contract": "source/Farm.sol:Farm",
						"label": "rewardsPerHour",
						"offset": 0,
						"slot": "5",
						"type": "t_uint256"
					},
					{
						"astId": 1177,
						"contract": "source/Farm.sol:Farm",
						"label": "version",
						"offset": 0,
						"slot": "6",
						"type": "t_uint256"
					},
					{
						"astId": 1180,
						"contract": "source/Farm.sol:Farm",
						"label": "lockEnabled",
						"offset": 0,
						"slot": "7",
						"type": "t_bool"
					},
					{
						"astId": 1183,
						"contract": "source/Farm.sol:Farm",
						"label": "lockTime",
						"offset": 0,
						"slot": "8",
						"type": "t_uint256"
					},
					{
						"astId": 1188,
						"contract": "source/Farm.sol:Farm",
						"label": "stakers",
						"offset": 0,
						"slot": "9",
						"type": "t_mapping(t_address,t_struct(Staker)1163_storage)"
					},
					{
						"astId": 1192,
						"contract": "source/Farm.sol:Farm",
						"label": "stakerAddress",
						"offset": 0,
						"slot": "10",
						"type": "t_mapping(t_uint256,t_address)"
					},
					{
						"astId": 1196,
						"contract": "source/Farm.sol:Farm",
						"label": "tokenStartStakeTime",
						"offset": 0,
						"slot": "11",
						"type": "t_mapping(t_uint256,t_uint256)"
					}
				],
				"types": {
					"t_address": {
						"encoding": "inplace",
						"label": "address",
						"numberOfBytes": "20"
					},
					"t_array(t_struct(StakedToken)1152_storage)dyn_storage": {
						"base": "t_struct(StakedToken)1152_storage",
						"encoding": "dynamic_array",
						"label": "struct Farm.StakedToken[]",
						"numberOfBytes": "32"
					},
					"t_bool": {
						"encoding": "inplace",
						"label": "bool",
						"numberOfBytes": "1"
					},
					"t_contract(IERC20)438": {
						"encoding": "inplace",
						"label": "contract IERC20",
						"numberOfBytes": "20"
					},
					"t_contract(IERC721)122": {
						"encoding": "inplace",
						"label": "contract IERC721",
						"numberOfBytes": "20"
					},
					"t_mapping(t_address,t_struct(Staker)1163_storage)": {
						"encoding": "mapping",
						"key": "t_address",
						"label": "mapping(address => struct Farm.Staker)",
						"numberOfBytes": "32",
						"value": "t_struct(Staker)1163_storage"
					},
					"t_mapping(t_uint256,t_address)": {
						"encoding": "mapping",
						"key": "t_uint256",
						"label": "mapping(uint256 => address)",
						"numberOfBytes": "32",
						"value": "t_address"
					},
					"t_mapping(t_uint256,t_uint256)": {
						"encoding": "mapping",
						"key": "t_uint256",
						"label": "mapping(uint256 => uint256)",
						"numberOfBytes": "32",
						"value": "t_uint256"
					},
					"t_struct(StakedToken)1152_storage": {
						"encoding": "inplace",
						"label": "struct Farm.StakedToken",
						"members": [
							{
								"astId": 1147,
								"contract": "source/Farm.sol:Farm",
								"label": "staker",
								"offset": 0,
								"slot": "0",
								"type": "t_address"
							},
							{
								"astId": 1149,
								"contract": "source/Farm.sol:Farm",
								"label": "tokenId",
								"offset": 0,
								"slot": "1",
								"type": "t_uint256"
							},
							{
								"astId": 1151,
								"contract": "source/Farm.sol:Farm",
								"label": "stackeUtx",
								"offset": 0,
								"slot": "2",
								"type": "t_uint256"
							}
						],
						"numberOfBytes": "96"
					},
					"t_struct(Staker)1163_storage": {
						"encoding": "inplace",
						"label": "struct Farm.Staker",
						"members": [
							{
								"astId": 1154,
								"contract": "source/Farm.sol:Farm",
								"label": "amountStaked",
								"offset": 0,
								"slot": "0",
								"type": "t_uint256"
							},
							{
								"astId": 1158,
								"contract": "source/Farm.sol:Farm",
								"label": "stakedTokens",
								"offset": 0,
								"slot": "1",
								"type": "t_array(t_struct(StakedToken)1152_storage)dyn_storage"
							},
							{
								"astId": 1160,
								"contract": "source/Farm.sol:Farm",
								"label": "timeOfLastUpdate",
								"offset": 0,
								"slot": "2",
								"type": "t_uint256"
							},
							{
								"astId": 1162,
								"contract": "source/Farm.sol:Farm",
								"label": "unclaimedRewards",
								"offset": 0,
								"slot": "3",
								"type": "t_uint256"
							}
						],
						"numberOfBytes": "128"
					},
					"t_uint256": {
						"encoding": "inplace",
						"label": "uint256",
						"numberOfBytes": "32"
					}
				}
			},
			"userdoc": {
				"kind": "user",
				"methods": {},
				"version": 1
			}
		}
	}
}