{
	"source/Storage.sol": {
		"Storage": {
			"abi": [
				{
					"inputs": [],
					"name": "allKeys",
					"outputs": [
						{
							"internalType": "string[]",
							"name": "",
							"type": "string[]"
						}
					],
					"stateMutability": "view",
					"type": "function"
				},
				{
					"inputs": [],
					"name": "allKeysData",
					"outputs": [
						{
							"components": [
								{
									"internalType": "address",
									"name": "owner",
									"type": "address"
								},
								{
									"internalType": "string",
									"name": "info",
									"type": "string"
								}
							],
							"internalType": "struct IStorage.Data[]",
							"name": "",
							"type": "tuple[]"
						}
					],
					"stateMutability": "view",
					"type": "function"
				},
				{
					"inputs": [
						{
							"internalType": "string",
							"name": "_key",
							"type": "string"
						}
					],
					"name": "clearKeyData",
					"outputs": [],
					"stateMutability": "nonpayable",
					"type": "function"
				},
				{
					"inputs": [
						{
							"internalType": "string[]",
							"name": "_keys",
							"type": "string[]"
						}
					],
					"name": "clearKeysData",
					"outputs": [],
					"stateMutability": "nonpayable",
					"type": "function"
				},
				{
					"inputs": [
						{
							"internalType": "string",
							"name": "_key",
							"type": "string"
						}
					],
					"name": "getData",
					"outputs": [
						{
							"components": [
								{
									"internalType": "address",
									"name": "owner",
									"type": "address"
								},
								{
									"internalType": "string",
									"name": "info",
									"type": "string"
								}
							],
							"internalType": "struct IStorage.Data",
							"name": "",
							"type": "tuple"
						}
					],
					"stateMutability": "view",
					"type": "function"
				},
				{
					"inputs": [
						{
							"internalType": "string",
							"name": "_key",
							"type": "string"
						},
						{
							"components": [
								{
									"internalType": "address",
									"name": "owner",
									"type": "address"
								},
								{
									"internalType": "string",
									"name": "info",
									"type": "string"
								}
							],
							"internalType": "struct IStorage.Data",
							"name": "_data",
							"type": "tuple"
						}
					],
					"name": "setKeyData",
					"outputs": [],
					"stateMutability": "nonpayable",
					"type": "function"
				},
				{
					"inputs": [
						{
							"components": [
								{
									"internalType": "string",
									"name": "key",
									"type": "string"
								},
								{
									"components": [
										{
											"internalType": "address",
											"name": "owner",
											"type": "address"
										},
										{
											"internalType": "string",
											"name": "info",
											"type": "string"
										}
									],
									"internalType": "struct IStorage.Data",
									"name": "data",
									"type": "tuple"
								}
							],
							"internalType": "struct IStorage.KeyData[]",
							"name": "_keysData",
							"type": "tuple[]"
						}
					],
					"name": "setKeysData",
					"outputs": [],
					"stateMutability": "nonpayable",
					"type": "function"
				}
			],
			"devdoc": {
				"kind": "dev",
				"methods": {},
				"version": 1
			},
			"evm": {
				"assembly": "    /* \"source/Storage.sol\":698:3726  contract Storage is IStorage {... */\n  mstore(0x40, 0x80)\n  callvalue\n  dup1\n  iszero\n  tag_1\n  jumpi\n  0x00\n  dup1\n  revert\ntag_1:\n  pop\n  dataSize(sub_0)\n  dup1\n  dataOffset(sub_0)\n  0x00\n  codecopy\n  0x00\n  return\nstop\n\nsub_0: assembly {\n        /* \"source/Storage.sol\":698:3726  contract Storage is IStorage {... */\n      mstore(0x40, 0x80)\n      callvalue\n      dup1\n      iszero\n      tag_1\n      jumpi\n      0x00\n      dup1\n      revert\n    tag_1:\n      pop\n      jumpi(tag_2, lt(calldatasize, 0x04))\n      shr(0xe0, calldataload(0x00))\n      dup1\n      0xae55c888\n      gt\n      tag_10\n      jumpi\n      dup1\n      0xae55c888\n      eq\n      tag_6\n      jumpi\n      dup1\n      0xbe05133c\n      eq\n      tag_7\n      jumpi\n      dup1\n      0xcb965ae9\n      eq\n      tag_8\n      jumpi\n      dup1\n      0xf14805c3\n      eq\n      tag_9\n      jumpi\n      jump(tag_2)\n    tag_10:\n      dup1\n      0x11d881b1\n      eq\n      tag_3\n      jumpi\n      dup1\n      0x28ce8638\n      eq\n      tag_4\n      jumpi\n      dup1\n      0xac193f1a\n      eq\n      tag_5\n      jumpi\n    tag_2:\n      0x00\n      dup1\n      revert\n        /* \"source/Storage.sol\":1416:1692  function allKeysData() external override view returns(Data[] memory) {... */\n    tag_3:\n      tag_11\n      tag_12\n      jump\t// in\n    tag_11:\n      mload(0x40)\n      tag_13\n      swap2\n      swap1\n      tag_14\n      jump\t// in\n    tag_13:\n      mload(0x40)\n      dup1\n      swap2\n      sub\n      swap1\n      return\n        /* \"source/Storage.sol\":2086:2184  function clearKeyData(string memory _key) external override {... */\n    tag_4:\n      tag_15\n      0x04\n      dup1\n      calldatasize\n      sub\n      dup2\n      add\n      swap1\n      tag_16\n      swap2\n      swap1\n      tag_17\n      jump\t// in\n    tag_16:\n      tag_18\n      jump\t// in\n    tag_15:\n      stop\n        /* \"source/Storage.sol\":2192:2406  function clearKeysData(string[] memory _keys) external override {... */\n    tag_5:\n      tag_19\n      0x04\n      dup1\n      calldatasize\n      sub\n      dup2\n      add\n      swap1\n      tag_20\n      swap2\n      swap1\n      tag_21\n      jump\t// in\n    tag_20:\n      tag_22\n      jump\t// in\n    tag_19:\n      stop\n        /* \"source/Storage.sol\":1182:1303  function getData(string memory _key) external override view returns(Data memory) {... */\n    tag_6:\n      tag_23\n      0x04\n      dup1\n      calldatasize\n      sub\n      dup2\n      add\n      swap1\n      tag_24\n      swap2\n      swap1\n      tag_17\n      jump\t// in\n    tag_24:\n      tag_25\n      jump\t// in\n    tag_23:\n      mload(0x40)\n      tag_26\n      swap2\n      swap1\n      tag_27\n      jump\t// in\n    tag_26:\n      mload(0x40)\n      dup1\n      swap2\n      sub\n      swap1\n      return\n        /* \"source/Storage.sol\":1828:2078  function setKeysData(KeyData[] memory _keysData) external override {... */\n    tag_7:\n      tag_28\n      0x04\n      dup1\n      calldatasize\n      sub\n      dup2\n      add\n      swap1\n      tag_29\n      swap2\n      swap1\n      tag_30\n      jump\t// in\n    tag_29:\n      tag_31\n      jump\t// in\n    tag_28:\n      stop\n        /* \"source/Storage.sol\":1311:1408  function allKeys() external override view returns(string[] memory) {... */\n    tag_8:\n      tag_32\n      tag_33\n      jump\t// in\n    tag_32:\n      mload(0x40)\n      tag_34\n      swap2\n      swap1\n      tag_35\n      jump\t// in\n    tag_34:\n      mload(0x40)\n      dup1\n      swap2\n      sub\n      swap1\n      return\n        /* \"source/Storage.sol\":1700:1820  function setKeyData(string memory _key, Data memory _data) external override {... */\n    tag_9:\n      tag_36\n      0x04\n      dup1\n      calldatasize\n      sub\n      dup2\n      add\n      swap1\n      tag_37\n      swap2\n      swap1\n      tag_38\n      jump\t// in\n    tag_37:\n      tag_39\n      jump\t// in\n    tag_36:\n      stop\n        /* \"source/Storage.sol\":1416:1692  function allKeysData() external override view returns(Data[] memory) {... */\n    tag_12:\n        /* \"source/Storage.sol\":1470:1483  Data[] memory */\n      0x60\n        /* \"source/Storage.sol\":1496:1522  Data[] memory _allKeysData */\n      0x00\n        /* \"source/Storage.sol\":1536:1540  keys */\n      0x01\n        /* \"source/Storage.sol\":1536:1547  keys.length */\n      dup1\n      sload\n      swap1\n      pop\n        /* \"source/Storage.sol\":1525:1548  new Data[](keys.length) */\n      0xffffffffffffffff\n      dup2\n      gt\n      iszero\n      tag_41\n      jumpi\n      tag_42\n      tag_43\n      jump\t// in\n    tag_42:\n    tag_41:\n      mload(0x40)\n      swap1\n      dup1\n      dup3\n      mstore\n      dup1\n      0x20\n      mul\n      0x20\n      add\n      dup3\n      add\n      0x40\n      mstore\n      dup1\n      iszero\n      tag_44\n      jumpi\n      dup2\n      0x20\n      add\n    tag_45:\n      tag_46\n      tag_47\n      jump\t// in\n    tag_46:\n      dup2\n      mstore\n      0x20\n      add\n      swap1\n      0x01\n      swap1\n      sub\n      swap1\n      dup2\n      tag_45\n      jumpi\n      swap1\n      pop\n    tag_44:\n      pop\n        /* \"source/Storage.sol\":1496:1548  Data[] memory _allKeysData = new Data[](keys.length) */\n      swap1\n      pop\n        /* \"source/Storage.sol\":1563:1569  uint x */\n      0x00\n        /* \"source/Storage.sol\":1559:1655  for(uint x; x < keys.length; x++) {... */\n    tag_48:\n        /* \"source/Storage.sol\":1575:1579  keys */\n      0x01\n        /* \"source/Storage.sol\":1575:1586  keys.length */\n      dup1\n      sload\n      swap1\n      pop\n        /* \"source/Storage.sol\":1571:1572  x */\n      dup2\n        /* \"source/Storage.sol\":1571:1586  x < keys.length */\n      lt\n        /* \"source/Storage.sol\":1559:1655  for(uint x; x < keys.length; x++) {... */\n      iszero\n      tag_49\n      jumpi\n        /* \"source/Storage.sol\":1626:1643  _keyData(keys[x]) */\n      tag_51\n        /* \"source/Storage.sol\":1635:1639  keys */\n      0x01\n        /* \"source/Storage.sol\":1640:1641  x */\n      dup3\n        /* \"source/Storage.sol\":1635:1642  keys[x] */\n      dup2\n      sload\n      dup2\n      lt\n      tag_52\n      jumpi\n      tag_53\n      tag_54\n      jump\t// in\n    tag_53:\n    tag_52:\n      swap1\n      0x00\n      mstore\n      keccak256(0x00, 0x20)\n      add\n        /* \"source/Storage.sol\":1626:1643  _keyData(keys[x]) */\n      dup1\n      sload\n      tag_56\n      swap1\n      tag_57\n      jump\t// in\n    tag_56:\n      dup1\n      0x1f\n      add\n      0x20\n      dup1\n      swap2\n      div\n      mul\n      0x20\n      add\n      mload(0x40)\n      swap1\n      dup2\n      add\n      0x40\n      mstore\n      dup1\n      swap3\n      swap2\n      swap1\n      dup2\n      dup2\n      mstore\n      0x20\n      add\n      dup3\n      dup1\n      sload\n      tag_58\n      swap1\n      tag_57\n      jump\t// in\n    tag_58:\n      dup1\n      iszero\n      tag_59\n      jumpi\n      dup1\n      0x1f\n      lt\n      tag_60\n      jumpi\n      0x0100\n      dup1\n      dup4\n      sload\n      div\n      mul\n      dup4\n      mstore\n      swap2\n      0x20\n      add\n      swap2\n      jump(tag_59)\n    tag_60:\n      dup3\n      add\n      swap2\n      swap1\n      0x00\n      mstore\n      keccak256(0x00, 0x20)\n      swap1\n    tag_61:\n      dup2\n      sload\n      dup2\n      mstore\n      swap1\n      0x01\n      add\n      swap1\n      0x20\n      add\n      dup1\n      dup4\n      gt\n      tag_61\n      jumpi\n      dup3\n      swap1\n      sub\n      0x1f\n      and\n      dup3\n      add\n      swap2\n    tag_59:\n      pop\n      pop\n      pop\n      pop\n      pop\n        /* \"source/Storage.sol\":1626:1634  _keyData */\n      tag_62\n        /* \"source/Storage.sol\":1626:1643  _keyData(keys[x]) */\n      jump\t// in\n    tag_51:\n        /* \"source/Storage.sol\":1608:1620  _allKeysData */\n      dup3\n        /* \"source/Storage.sol\":1621:1622  x */\n      dup3\n        /* \"source/Storage.sol\":1608:1623  _allKeysData[x] */\n      dup2\n      mload\n      dup2\n      lt\n      tag_63\n      jumpi\n      tag_64\n      tag_54\n      jump\t// in\n    tag_64:\n    tag_63:\n      0x20\n      mul\n      0x20\n      add\n      add\n        /* \"source/Storage.sol\":1608:1643  _allKeysData[x] = _keyData(keys[x]) */\n      dup2\n      swap1\n      mstore\n      pop\n        /* \"source/Storage.sol\":1588:1591  x++ */\n      dup1\n      dup1\n      tag_65\n      swap1\n      tag_66\n      jump\t// in\n    tag_65:\n      swap2\n      pop\n      pop\n        /* \"source/Storage.sol\":1559:1655  for(uint x; x < keys.length; x++) {... */\n      jump(tag_48)\n    tag_49:\n      pop\n        /* \"source/Storage.sol\":1672:1684  _allKeysData */\n      dup1\n        /* \"source/Storage.sol\":1665:1684  return _allKeysData */\n      swap2\n      pop\n      pop\n        /* \"source/Storage.sol\":1416:1692  function allKeysData() external override view returns(Data[] memory) {... */\n      swap1\n      jump\t// out\n        /* \"source/Storage.sol\":2086:2184  function clearKeyData(string memory _key) external override {... */\n    tag_18:\n        /* \"source/Storage.sol\":2157:2176  _clearKeyData(_key) */\n      tag_68\n        /* \"source/Storage.sol\":2171:2175  _key */\n      dup2\n        /* \"source/Storage.sol\":2157:2170  _clearKeyData */\n      tag_69\n        /* \"source/Storage.sol\":2157:2176  _clearKeyData(_key) */\n      jump\t// in\n    tag_68:\n        /* \"source/Storage.sol\":2086:2184  function clearKeyData(string memory _key) external override {... */\n      pop\n      jump\t// out\n        /* \"source/Storage.sol\":2192:2406  function clearKeysData(string[] memory _keys) external override {... */\n    tag_22:\n        /* \"source/Storage.sol\":2290:2291  0 */\n      0x00\n        /* \"source/Storage.sol\":2275:2280  _keys */\n      dup2\n        /* \"source/Storage.sol\":2275:2287  _keys.length */\n      mload\n        /* \"source/Storage.sol\":2275:2291  _keys.length > 0 */\n      gt\n        /* \"source/Storage.sol\":2267:2303  require(_keys.length > 0, 'NO_KEYS') */\n      tag_71\n      jumpi\n      mload(0x40)\n      0x08c379a000000000000000000000000000000000000000000000000000000000\n      dup2\n      mstore\n      0x04\n      add\n      tag_72\n      swap1\n      tag_73\n      jump\t// in\n    tag_72:\n      mload(0x40)\n      dup1\n      swap2\n      sub\n      swap1\n      revert\n    tag_71:\n        /* \"source/Storage.sol\":2318:2324  uint x */\n      0x00\n        /* \"source/Storage.sol\":2314:2399  for(uint x; x < _keys.length; x++) {... */\n    tag_74:\n        /* \"source/Storage.sol\":2330:2335  _keys */\n      dup2\n        /* \"source/Storage.sol\":2330:2342  _keys.length */\n      mload\n        /* \"source/Storage.sol\":2326:2327  x */\n      dup2\n        /* \"source/Storage.sol\":2326:2342  x < _keys.length */\n      lt\n        /* \"source/Storage.sol\":2314:2399  for(uint x; x < _keys.length; x++) {... */\n      iszero\n      tag_75\n      jumpi\n        /* \"source/Storage.sol\":2364:2387  _clearKeyData(_keys[x]) */\n      tag_77\n        /* \"source/Storage.sol\":2378:2383  _keys */\n      dup3\n        /* \"source/Storage.sol\":2384:2385  x */\n      dup3\n        /* \"source/Storage.sol\":2378:2386  _keys[x] */\n      dup2\n      mload\n      dup2\n      lt\n      tag_78\n      jumpi\n      tag_79\n      tag_54\n      jump\t// in\n    tag_79:\n    tag_78:\n      0x20\n      mul\n      0x20\n      add\n      add\n      mload\n        /* \"source/Storage.sol\":2364:2377  _clearKeyData */\n      tag_69\n        /* \"source/Storage.sol\":2364:2387  _clearKeyData(_keys[x]) */\n      jump\t// in\n    tag_77:\n        /* \"source/Storage.sol\":2344:2347  x++ */\n      dup1\n      dup1\n      tag_80\n      swap1\n      tag_66\n      jump\t// in\n    tag_80:\n      swap2\n      pop\n      pop\n        /* \"source/Storage.sol\":2314:2399  for(uint x; x < _keys.length; x++) {... */\n      jump(tag_74)\n    tag_75:\n      pop\n        /* \"source/Storage.sol\":2192:2406  function clearKeysData(string[] memory _keys) external override {... */\n      pop\n      jump\t// out\n        /* \"source/Storage.sol\":1182:1303  function getData(string memory _key) external override view returns(Data memory) {... */\n    tag_25:\n        /* \"source/Storage.sol\":1250:1261  Data memory */\n      tag_81\n      tag_47\n      jump\t// in\n    tag_81:\n        /* \"source/Storage.sol\":1281:1295  _keyData(_key) */\n      tag_83\n        /* \"source/Storage.sol\":1290:1294  _key */\n      dup3\n        /* \"source/Storage.sol\":1281:1289  _keyData */\n      tag_62\n        /* \"source/Storage.sol\":1281:1295  _keyData(_key) */\n      jump\t// in\n    tag_83:\n        /* \"source/Storage.sol\":1274:1295  return _keyData(_key) */\n      swap1\n      pop\n        /* \"source/Storage.sol\":1182:1303  function getData(string memory _key) external override view returns(Data memory) {... */\n      swap2\n      swap1\n      pop\n      jump\t// out\n        /* \"source/Storage.sol\":1828:2078  function setKeysData(KeyData[] memory _keysData) external override {... */\n    tag_31:\n        /* \"source/Storage.sol\":1933:1934  0 */\n      0x00\n        /* \"source/Storage.sol\":1914:1923  _keysData */\n      dup2\n        /* \"source/Storage.sol\":1914:1930  _keysData.length */\n      mload\n        /* \"source/Storage.sol\":1914:1934  _keysData.length > 0 */\n      gt\n        /* \"source/Storage.sol\":1906:1946  require(_keysData.length > 0, 'NO_DATA') */\n      tag_85\n      jumpi\n      mload(0x40)\n      0x08c379a000000000000000000000000000000000000000000000000000000000\n      dup2\n      mstore\n      0x04\n      add\n      tag_86\n      swap1\n      tag_87\n      jump\t// in\n    tag_86:\n      mload(0x40)\n      dup1\n      swap2\n      sub\n      swap1\n      revert\n    tag_85:\n        /* \"source/Storage.sol\":1961:1967  uint x */\n      0x00\n        /* \"source/Storage.sol\":1957:2071  for(uint x; x < _keysData.length; x++) {... */\n    tag_88:\n        /* \"source/Storage.sol\":1973:1982  _keysData */\n      dup2\n        /* \"source/Storage.sol\":1973:1989  _keysData.length */\n      mload\n        /* \"source/Storage.sol\":1969:1970  x */\n      dup2\n        /* \"source/Storage.sol\":1969:1989  x < _keysData.length */\n      lt\n        /* \"source/Storage.sol\":1957:2071  for(uint x; x < _keysData.length; x++) {... */\n      iszero\n      tag_89\n      jumpi\n        /* \"source/Storage.sol\":2011:2059  _setKeyData(_keysData[x].key, _keysData[x].data) */\n      tag_91\n        /* \"source/Storage.sol\":2023:2032  _keysData */\n      dup3\n        /* \"source/Storage.sol\":2033:2034  x */\n      dup3\n        /* \"source/Storage.sol\":2023:2035  _keysData[x] */\n      dup2\n      mload\n      dup2\n      lt\n      tag_92\n      jumpi\n      tag_93\n      tag_54\n      jump\t// in\n    tag_93:\n    tag_92:\n      0x20\n      mul\n      0x20\n      add\n      add\n      mload\n        /* \"source/Storage.sol\":2023:2039  _keysData[x].key */\n      0x00\n      add\n      mload\n        /* \"source/Storage.sol\":2041:2050  _keysData */\n      dup4\n        /* \"source/Storage.sol\":2051:2052  x */\n      dup4\n        /* \"source/Storage.sol\":2041:2053  _keysData[x] */\n      dup2\n      mload\n      dup2\n      lt\n      tag_94\n      jumpi\n      tag_95\n      tag_54\n      jump\t// in\n    tag_95:\n    tag_94:\n      0x20\n      mul\n      0x20\n      add\n      add\n      mload\n        /* \"source/Storage.sol\":2041:2058  _keysData[x].data */\n      0x20\n      add\n      mload\n        /* \"source/Storage.sol\":2011:2022  _setKeyData */\n      tag_96\n        /* \"source/Storage.sol\":2011:2059  _setKeyData(_keysData[x].key, _keysData[x].data) */\n      jump\t// in\n    tag_91:\n        /* \"source/Storage.sol\":1991:1994  x++ */\n      dup1\n      dup1\n      tag_97\n      swap1\n      tag_66\n      jump\t// in\n    tag_97:\n      swap2\n      pop\n      pop\n        /* \"source/Storage.sol\":1957:2071  for(uint x; x < _keysData.length; x++) {... */\n      jump(tag_88)\n    tag_89:\n      pop\n        /* \"source/Storage.sol\":1828:2078  function setKeysData(KeyData[] memory _keysData) external override {... */\n      pop\n      jump\t// out\n        /* \"source/Storage.sol\":1311:1408  function allKeys() external override view returns(string[] memory) {... */\n    tag_33:\n        /* \"source/Storage.sol\":1361:1376  string[] memory */\n      0x60\n        /* \"source/Storage.sol\":1396:1400  keys */\n      0x01\n        /* \"source/Storage.sol\":1389:1400  return keys */\n      dup1\n      sload\n      dup1\n      0x20\n      mul\n      0x20\n      add\n      mload(0x40)\n      swap1\n      dup2\n      add\n      0x40\n      mstore\n      dup1\n      swap3\n      swap2\n      swap1\n      dup2\n      dup2\n      mstore\n      0x20\n      add\n      0x00\n      swap1\n    tag_99:\n      dup3\n      dup3\n      lt\n      iszero\n      tag_100\n      jumpi\n      dup4\n      dup3\n      swap1\n      0x00\n      mstore\n      keccak256(0x00, 0x20)\n      add\n      dup1\n      sload\n      tag_102\n      swap1\n      tag_57\n      jump\t// in\n    tag_102:\n      dup1\n      0x1f\n      add\n      0x20\n      dup1\n      swap2\n      div\n      mul\n      0x20\n      add\n      mload(0x40)\n      swap1\n      dup2\n      add\n      0x40\n      mstore\n      dup1\n      swap3\n      swap2\n      swap1\n      dup2\n      dup2\n      mstore\n      0x20\n      add\n      dup3\n      dup1\n      sload\n      tag_103\n      swap1\n      tag_57\n      jump\t// in\n    tag_103:\n      dup1\n      iszero\n      tag_104\n      jumpi\n      dup1\n      0x1f\n      lt\n      tag_105\n      jumpi\n      0x0100\n      dup1\n      dup4\n      sload\n      div\n      mul\n      dup4\n      mstore\n      swap2\n      0x20\n      add\n      swap2\n      jump(tag_104)\n    tag_105:\n      dup3\n      add\n      swap2\n      swap1\n      0x00\n      mstore\n      keccak256(0x00, 0x20)\n      swap1\n    tag_106:\n      dup2\n      sload\n      dup2\n      mstore\n      swap1\n      0x01\n      add\n      swap1\n      0x20\n      add\n      dup1\n      dup4\n      gt\n      tag_106\n      jumpi\n      dup3\n      swap1\n      sub\n      0x1f\n      and\n      dup3\n      add\n      swap2\n    tag_104:\n      pop\n      pop\n      pop\n      pop\n      pop\n      dup2\n      mstore\n      0x20\n      add\n      swap1\n      0x01\n      add\n      swap1\n      jump(tag_99)\n    tag_100:\n      pop\n      pop\n      pop\n      pop\n      swap1\n      pop\n        /* \"source/Storage.sol\":1311:1408  function allKeys() external override view returns(string[] memory) {... */\n      swap1\n      jump\t// out\n        /* \"source/Storage.sol\":1700:1820  function setKeyData(string memory _key, Data memory _data) external override {... */\n    tag_39:\n        /* \"source/Storage.sol\":1788:1812  _setKeyData(_key, _data) */\n      tag_108\n        /* \"source/Storage.sol\":1800:1804  _key */\n      dup3\n        /* \"source/Storage.sol\":1806:1811  _data */\n      dup3\n        /* \"source/Storage.sol\":1788:1799  _setKeyData */\n      tag_96\n        /* \"source/Storage.sol\":1788:1812  _setKeyData(_key, _data) */\n      jump\t// in\n    tag_108:\n        /* \"source/Storage.sol\":1700:1820  function setKeyData(string memory _key, Data memory _data) external override {... */\n      pop\n      pop\n      jump\t// out\n        /* \"source/Storage.sol\":2414:2631  function _keyData(string memory _key) private view notEmpty(_key) returns(Data memory _data) {... */\n    tag_62:\n        /* \"source/Storage.sol\":2488:2505  Data memory _data */\n      tag_109\n      tag_47\n      jump\t// in\n    tag_109:\n        /* \"source/Storage.sol\":2474:2478  _key */\n      dup2\n        /* \"source/Storage.sol\":1063:1085  bytes memory byteValue */\n      0x00\n        /* \"source/Storage.sol\":1094:1100  _value */\n      dup2\n        /* \"source/Storage.sol\":1063:1101  bytes memory byteValue = bytes(_value) */\n      swap1\n      pop\n        /* \"source/Storage.sol\":1140:1141  0 */\n      0x00\n        /* \"source/Storage.sol\":1120:1129  byteValue */\n      dup2\n        /* \"source/Storage.sol\":1120:1136  byteValue.length */\n      mload\n        /* \"source/Storage.sol\":1120:1141  byteValue.length != 0 */\n      sub\n        /* \"source/Storage.sol\":1112:1154  require(byteValue.length != 0, 'NO_VALUE') */\n      tag_111\n      jumpi\n      mload(0x40)\n      0x08c379a000000000000000000000000000000000000000000000000000000000\n      dup2\n      mstore\n      0x04\n      add\n      tag_112\n      swap1\n      tag_113\n      jump\t// in\n    tag_112:\n      mload(0x40)\n      dup1\n      swap2\n      sub\n      swap1\n      revert\n    tag_111:\n        /* \"source/Storage.sol\":2526:2623  Data({... */\n      mload(0x40)\n      dup1\n      0x40\n      add\n      0x40\n      mstore\n      dup1\n        /* \"source/Storage.sol\":2553:2560  allData */\n      0x00\n        /* \"source/Storage.sol\":2561:2565  _key */\n      dup7\n        /* \"source/Storage.sol\":2553:2566  allData[_key] */\n      mload(0x40)\n      tag_115\n      swap2\n      swap1\n      tag_116\n      jump\t// in\n    tag_115:\n      swap1\n      dup2\n      mstore\n      0x20\n      add\n      mload(0x40)\n      dup1\n      swap2\n      sub\n      swap1\n      keccak256\n        /* \"source/Storage.sol\":2553:2572  allData[_key].owner */\n      0x00\n      add\n      0x00\n      swap1\n      sload\n      swap1\n      0x0100\n      exp\n      swap1\n      div\n      0xffffffffffffffffffffffffffffffffffffffff\n      and\n        /* \"source/Storage.sol\":2526:2623  Data({... */\n      0xffffffffffffffffffffffffffffffffffffffff\n      and\n      dup2\n      mstore\n      0x20\n      add\n        /* \"source/Storage.sol\":2593:2600  allData */\n      0x00\n        /* \"source/Storage.sol\":2601:2605  _key */\n      dup7\n        /* \"source/Storage.sol\":2593:2606  allData[_key] */\n      mload(0x40)\n      tag_117\n      swap2\n      swap1\n      tag_116\n      jump\t// in\n    tag_117:\n      swap1\n      dup2\n      mstore\n      0x20\n      add\n      mload(0x40)\n      dup1\n      swap2\n      sub\n      swap1\n      keccak256\n        /* \"source/Storage.sol\":2593:2611  allData[_key].info */\n      0x01\n      add\n        /* \"source/Storage.sol\":2526:2623  Data({... */\n      dup1\n      sload\n      tag_118\n      swap1\n      tag_57\n      jump\t// in\n    tag_118:\n      dup1\n      0x1f\n      add\n      0x20\n      dup1\n      swap2\n      div\n      mul\n      0x20\n      add\n      mload(0x40)\n      swap1\n      dup2\n      add\n      0x40\n      mstore\n      dup1\n      swap3\n      swap2\n      swap1\n      dup2\n      dup2\n      mstore\n      0x20\n      add\n      dup3\n      dup1\n      sload\n      tag_119\n      swap1\n      tag_57\n      jump\t// in\n    tag_119:\n      dup1\n      iszero\n      tag_120\n      jumpi\n      dup1\n      0x1f\n      lt\n      tag_121\n      jumpi\n      0x0100\n      dup1\n      dup4\n      sload\n      div\n      mul\n      dup4\n      mstore\n      swap2\n      0x20\n      add\n      swap2\n      jump(tag_120)\n    tag_121:\n      dup3\n      add\n      swap2\n      swap1\n      0x00\n      mstore\n      keccak256(0x00, 0x20)\n      swap1\n    tag_122:\n      dup2\n      sload\n      dup2\n      mstore\n      swap1\n      0x01\n      add\n      swap1\n      0x20\n      add\n      dup1\n      dup4\n      gt\n      tag_122\n      jumpi\n      dup3\n      swap1\n      sub\n      0x1f\n      and\n      dup3\n      add\n      swap2\n    tag_120:\n      pop\n      pop\n      pop\n      pop\n      pop\n      dup2\n      mstore\n      pop\n        /* \"source/Storage.sol\":2518:2623  _data = Data({... */\n      swap3\n      pop\n        /* \"source/Storage.sol\":1052:1174  {... */\n      pop\n        /* \"source/Storage.sol\":2414:2631  function _keyData(string memory _key) private view notEmpty(_key) returns(Data memory _data) {... */\n      pop\n      swap2\n      swap1\n      pop\n      jump\t// out\n        /* \"source/Storage.sol\":3003:3723  function _clearKeyData(string memory _key) private notEmpty(_key) onlyDataOwner(_key) {... */\n    tag_69:\n        /* \"source/Storage.sol\":3063:3067  _key */\n      dup1\n        /* \"source/Storage.sol\":1063:1085  bytes memory byteValue */\n      0x00\n        /* \"source/Storage.sol\":1094:1100  _value */\n      dup2\n        /* \"source/Storage.sol\":1063:1101  bytes memory byteValue = bytes(_value) */\n      swap1\n      pop\n        /* \"source/Storage.sol\":1140:1141  0 */\n      0x00\n        /* \"source/Storage.sol\":1120:1129  byteValue */\n      dup2\n        /* \"source/Storage.sol\":1120:1136  byteValue.length */\n      mload\n        /* \"source/Storage.sol\":1120:1141  byteValue.length != 0 */\n      sub\n        /* \"source/Storage.sol\":1112:1154  require(byteValue.length != 0, 'NO_VALUE') */\n      tag_124\n      jumpi\n      mload(0x40)\n      0x08c379a000000000000000000000000000000000000000000000000000000000\n      dup2\n      mstore\n      0x04\n      add\n      tag_125\n      swap1\n      tag_113\n      jump\t// in\n    tag_125:\n      mload(0x40)\n      dup1\n      swap2\n      sub\n      swap1\n      revert\n    tag_124:\n        /* \"source/Storage.sol\":3083:3087  _key */\n      dup3\n        /* \"source/Storage.sol\":903:904  0 */\n      0x00\n        /* \"source/Storage.sol\":872:905  allData[_key].owner != address(0) */\n      0xffffffffffffffffffffffffffffffffffffffff\n      and\n        /* \"source/Storage.sol\":872:879  allData */\n      0x00\n        /* \"source/Storage.sol\":880:884  _key */\n      dup3\n        /* \"source/Storage.sol\":872:885  allData[_key] */\n      mload(0x40)\n      tag_127\n      swap2\n      swap1\n      tag_116\n      jump\t// in\n    tag_127:\n      swap1\n      dup2\n      mstore\n      0x20\n      add\n      mload(0x40)\n      dup1\n      swap2\n      sub\n      swap1\n      keccak256\n        /* \"source/Storage.sol\":872:891  allData[_key].owner */\n      0x00\n      add\n      0x00\n      swap1\n      sload\n      swap1\n      0x0100\n      exp\n      swap1\n      div\n      0xffffffffffffffffffffffffffffffffffffffff\n      and\n        /* \"source/Storage.sol\":872:905  allData[_key].owner != address(0) */\n      0xffffffffffffffffffffffffffffffffffffffff\n      and\n      sub\n        /* \"source/Storage.sol\":864:918  require(allData[_key].owner != address(0), 'NO_OWNER') */\n      tag_128\n      jumpi\n      mload(0x40)\n      0x08c379a000000000000000000000000000000000000000000000000000000000\n      dup2\n      mstore\n      0x04\n      add\n      tag_129\n      swap1\n      tag_130\n      jump\t// in\n    tag_129:\n      mload(0x40)\n      dup1\n      swap2\n      sub\n      swap1\n      revert\n    tag_128:\n        /* \"source/Storage.sol\":951:958  allData */\n      0x00\n        /* \"source/Storage.sol\":959:963  _key */\n      dup2\n        /* \"source/Storage.sol\":951:964  allData[_key] */\n      mload(0x40)\n      tag_131\n      swap2\n      swap1\n      tag_116\n      jump\t// in\n    tag_131:\n      swap1\n      dup2\n      mstore\n      0x20\n      add\n      mload(0x40)\n      dup1\n      swap2\n      sub\n      swap1\n      keccak256\n        /* \"source/Storage.sol\":951:970  allData[_key].owner */\n      0x00\n      add\n      0x00\n      swap1\n      sload\n      swap1\n      0x0100\n      exp\n      swap1\n      div\n      0xffffffffffffffffffffffffffffffffffffffff\n      and\n        /* \"source/Storage.sol\":937:970  msg.sender == allData[_key].owner */\n      0xffffffffffffffffffffffffffffffffffffffff\n      and\n        /* \"source/Storage.sol\":937:947  msg.sender */\n      caller\n        /* \"source/Storage.sol\":937:970  msg.sender == allData[_key].owner */\n      0xffffffffffffffffffffffffffffffffffffffff\n      and\n      eq\n        /* \"source/Storage.sol\":929:984  require(msg.sender == allData[_key].owner, 'FORBIDDEN') */\n      tag_132\n      jumpi\n      mload(0x40)\n      0x08c379a000000000000000000000000000000000000000000000000000000000\n      dup2\n      mstore\n      0x04\n      add\n      tag_133\n      swap1\n      tag_134\n      jump\t// in\n    tag_133:\n      mload(0x40)\n      dup1\n      swap2\n      sub\n      swap1\n      revert\n    tag_132:\n        /* \"source/Storage.sol\":3107:3114  allData */\n      0x00\n        /* \"source/Storage.sol\":3115:3119  _key */\n      dup5\n        /* \"source/Storage.sol\":3107:3120  allData[_key] */\n      mload(0x40)\n      tag_136\n      swap2\n      swap1\n      tag_116\n      jump\t// in\n    tag_136:\n      swap1\n      dup2\n      mstore\n      0x20\n      add\n      mload(0x40)\n      dup1\n      swap2\n      sub\n      swap1\n      keccak256\n      0x00\n        /* \"source/Storage.sol\":3100:3120  delete allData[_key] */\n      dup1\n      dup3\n      add\n      exp(0x0100, 0x00)\n      dup2\n      sload\n      swap1\n      0xffffffffffffffffffffffffffffffffffffffff\n      mul\n      not\n      and\n      swap1\n      sstore\n      0x01\n      dup3\n      add\n      0x00\n      tag_137\n      swap2\n      swap1\n      tag_138\n      jump\t// in\n    tag_137:\n      pop\n      pop\n        /* \"source/Storage.sol\":3150:3151  0 */\n      0x00\n        /* \"source/Storage.sol\":3135:3139  keys */\n      0x01\n        /* \"source/Storage.sol\":3135:3146  keys.length */\n      dup1\n      sload\n      swap1\n      pop\n        /* \"source/Storage.sol\":3135:3151  keys.length == 0 */\n      sub\n        /* \"source/Storage.sol\":3131:3160  if (keys.length == 0) return; */\n      iszero\n        /* \"source/Storage.sol\":3153:3160  return; */\n      tag_135\n        /* \"source/Storage.sol\":3131:3160  if (keys.length == 0) return; */\n      jumpi\n        /* \"source/Storage.sol\":3189:3190  1 */\n      0x01\n        /* \"source/Storage.sol\":3174:3178  keys */\n      dup1\n        /* \"source/Storage.sol\":3174:3185  keys.length */\n      dup1\n      sload\n      swap1\n      pop\n        /* \"source/Storage.sol\":3174:3190  keys.length == 1 */\n      sub\n        /* \"source/Storage.sol\":3170:3716  if (keys.length == 1) {... */\n      tag_140\n      jumpi\n        /* \"source/Storage.sol\":3278:3282  _key */\n      dup4\n        /* \"source/Storage.sol\":3261:3283  abi.encodePacked(_key) */\n      add(0x20, mload(0x40))\n      tag_141\n      swap2\n      swap1\n      tag_116\n      jump\t// in\n    tag_141:\n      mload(0x40)\n      0x20\n      dup2\n      dup4\n      sub\n      sub\n      dup2\n      mstore\n      swap1\n      0x40\n      mstore\n        /* \"source/Storage.sol\":3251:3284  keccak256(abi.encodePacked(_key)) */\n      dup1\n      mload\n      swap1\n      0x20\n      add\n      keccak256\n        /* \"source/Storage.sol\":3238:3242  keys */\n      0x01\n        /* \"source/Storage.sol\":3243:3244  0 */\n      0x00\n        /* \"source/Storage.sol\":3238:3245  keys[0] */\n      dup2\n      sload\n      dup2\n      lt\n      tag_142\n      jumpi\n      tag_143\n      tag_54\n      jump\t// in\n    tag_143:\n    tag_142:\n      swap1\n      0x00\n      mstore\n      keccak256(0x00, 0x20)\n      add\n        /* \"source/Storage.sol\":3221:3246  abi.encodePacked(keys[0]) */\n      add(0x20, mload(0x40))\n      tag_145\n      swap2\n      swap1\n      tag_146\n      jump\t// in\n    tag_145:\n      mload(0x40)\n      0x20\n      dup2\n      dup4\n      sub\n      sub\n      dup2\n      mstore\n      swap1\n      0x40\n      mstore\n        /* \"source/Storage.sol\":3211:3247  keccak256(abi.encodePacked(keys[0])) */\n      dup1\n      mload\n      swap1\n      0x20\n      add\n      keccak256\n        /* \"source/Storage.sol\":3211:3284  keccak256(abi.encodePacked(keys[0])) == keccak256(abi.encodePacked(_key)) */\n      sub\n        /* \"source/Storage.sol\":3207:3331  if (keccak256(abi.encodePacked(keys[0])) == keccak256(abi.encodePacked(_key))) {... */\n      tag_147\n      jumpi\n        /* \"source/Storage.sol\":3305:3309  keys */\n      0x01\n        /* \"source/Storage.sol\":3305:3315  keys.pop() */\n      dup1\n      sload\n      dup1\n      tag_148\n      jumpi\n      tag_149\n      tag_150\n      jump\t// in\n    tag_149:\n    tag_148:\n      0x01\n      swap1\n      sub\n      dup2\n      dup2\n      swap1\n      0x00\n      mstore\n      keccak256(0x00, 0x20)\n      add\n      0x00\n      tag_152\n      swap2\n      swap1\n      tag_138\n      jump\t// in\n    tag_152:\n      swap1\n      sstore\n        /* \"source/Storage.sol\":3207:3331  if (keccak256(abi.encodePacked(keys[0])) == keccak256(abi.encodePacked(_key))) {... */\n    tag_147:\n        /* \"source/Storage.sol\":3170:3716  if (keys.length == 1) {... */\n      jump(tag_153)\n    tag_140:\n        /* \"source/Storage.sol\":3363:3379  bool arrayOffset */\n      0x00\n        /* \"source/Storage.sol\":3398:3404  uint x */\n      dup1\n        /* \"source/Storage.sol\":3394:3663  for(uint x; x < keys.length - 1; x++) {... */\n    tag_154:\n        /* \"source/Storage.sol\":3424:3425  1 */\n      0x01\n        /* \"source/Storage.sol\":3410:3414  keys */\n      dup1\n        /* \"source/Storage.sol\":3410:3421  keys.length */\n      dup1\n      sload\n      swap1\n      pop\n        /* \"source/Storage.sol\":3410:3425  keys.length - 1 */\n      tag_157\n      swap2\n      swap1\n      tag_158\n      jump\t// in\n    tag_157:\n        /* \"source/Storage.sol\":3406:3407  x */\n      dup2\n        /* \"source/Storage.sol\":3406:3425  x < keys.length - 1 */\n      lt\n        /* \"source/Storage.sol\":3394:3663  for(uint x; x < keys.length - 1; x++) {... */\n      iszero\n      tag_155\n      jumpi\n        /* \"source/Storage.sol\":3522:3526  _key */\n      dup6\n        /* \"source/Storage.sol\":3505:3527  abi.encodePacked(_key) */\n      add(0x20, mload(0x40))\n      tag_159\n      swap2\n      swap1\n      tag_116\n      jump\t// in\n    tag_159:\n      mload(0x40)\n      0x20\n      dup2\n      dup4\n      sub\n      sub\n      dup2\n      mstore\n      swap1\n      0x40\n      mstore\n        /* \"source/Storage.sol\":3495:3528  keccak256(abi.encodePacked(_key)) */\n      dup1\n      mload\n      swap1\n      0x20\n      add\n      keccak256\n        /* \"source/Storage.sol\":3482:3486  keys */\n      0x01\n        /* \"source/Storage.sol\":3487:3488  x */\n      dup3\n        /* \"source/Storage.sol\":3482:3489  keys[x] */\n      dup2\n      sload\n      dup2\n      lt\n      tag_160\n      jumpi\n      tag_161\n      tag_54\n      jump\t// in\n    tag_161:\n    tag_160:\n      swap1\n      0x00\n      mstore\n      keccak256(0x00, 0x20)\n      add\n        /* \"source/Storage.sol\":3465:3490  abi.encodePacked(keys[x]) */\n      add(0x20, mload(0x40))\n      tag_163\n      swap2\n      swap1\n      tag_146\n      jump\t// in\n    tag_163:\n      mload(0x40)\n      0x20\n      dup2\n      dup4\n      sub\n      sub\n      dup2\n      mstore\n      swap1\n      0x40\n      mstore\n        /* \"source/Storage.sol\":3455:3491  keccak256(abi.encodePacked(keys[x])) */\n      dup1\n      mload\n      swap1\n      0x20\n      add\n      keccak256\n        /* \"source/Storage.sol\":3455:3528  keccak256(abi.encodePacked(keys[x])) == keccak256(abi.encodePacked(_key)) */\n      sub\n        /* \"source/Storage.sol\":3451:3591  if (keccak256(abi.encodePacked(keys[x])) == keccak256(abi.encodePacked(_key))) {... */\n      tag_164\n      jumpi\n        /* \"source/Storage.sol\":3567:3571  true */\n      0x01\n        /* \"source/Storage.sol\":3553:3571  arrayOffset = true */\n      swap2\n      pop\n        /* \"source/Storage.sol\":3451:3591  if (keccak256(abi.encodePacked(keys[x])) == keccak256(abi.encodePacked(_key))) {... */\n    tag_164:\n        /* \"source/Storage.sol\":3613:3624  arrayOffset */\n      dup2\n        /* \"source/Storage.sol\":3609:3647  if (arrayOffset) keys[x] = keys[x + 1] */\n      iszero\n      tag_165\n      jumpi\n        /* \"source/Storage.sol\":3636:3640  keys */\n      0x01\n        /* \"source/Storage.sol\":3645:3646  1 */\n      dup1\n        /* \"source/Storage.sol\":3641:3642  x */\n      dup3\n        /* \"source/Storage.sol\":3641:3646  x + 1 */\n      tag_166\n      swap2\n      swap1\n      tag_167\n      jump\t// in\n    tag_166:\n        /* \"source/Storage.sol\":3636:3647  keys[x + 1] */\n      dup2\n      sload\n      dup2\n      lt\n      tag_168\n      jumpi\n      tag_169\n      tag_54\n      jump\t// in\n    tag_169:\n    tag_168:\n      swap1\n      0x00\n      mstore\n      keccak256(0x00, 0x20)\n      add\n        /* \"source/Storage.sol\":3626:3630  keys */\n      0x01\n        /* \"source/Storage.sol\":3631:3632  x */\n      dup3\n        /* \"source/Storage.sol\":3626:3633  keys[x] */\n      dup2\n      sload\n      dup2\n      lt\n      tag_171\n      jumpi\n      tag_172\n      tag_54\n      jump\t// in\n    tag_172:\n    tag_171:\n      swap1\n      0x00\n      mstore\n      keccak256(0x00, 0x20)\n      add\n        /* \"source/Storage.sol\":3626:3647  keys[x] = keys[x + 1] */\n      swap1\n      dup2\n      tag_174\n      swap2\n      swap1\n      tag_175\n      jump\t// in\n    tag_174:\n      pop\n        /* \"source/Storage.sol\":3609:3647  if (arrayOffset) keys[x] = keys[x + 1] */\n    tag_165:\n        /* \"source/Storage.sol\":3427:3430  x++ */\n      dup1\n      dup1\n      tag_176\n      swap1\n      tag_66\n      jump\t// in\n    tag_176:\n      swap2\n      pop\n      pop\n        /* \"source/Storage.sol\":3394:3663  for(uint x; x < keys.length - 1; x++) {... */\n      jump(tag_154)\n    tag_155:\n      pop\n        /* \"source/Storage.sol\":3681:3692  arrayOffset */\n      dup1\n        /* \"source/Storage.sol\":3677:3704  if (arrayOffset) keys.pop() */\n      iszero\n      tag_177\n      jumpi\n        /* \"source/Storage.sol\":3694:3698  keys */\n      0x01\n        /* \"source/Storage.sol\":3694:3704  keys.pop() */\n      dup1\n      sload\n      dup1\n      tag_178\n      jumpi\n      tag_179\n      tag_150\n      jump\t// in\n    tag_179:\n    tag_178:\n      0x01\n      swap1\n      sub\n      dup2\n      dup2\n      swap1\n      0x00\n      mstore\n      keccak256(0x00, 0x20)\n      add\n      0x00\n      tag_181\n      swap2\n      swap1\n      tag_138\n      jump\t// in\n    tag_181:\n      swap1\n      sstore\n        /* \"source/Storage.sol\":3677:3704  if (arrayOffset) keys.pop() */\n    tag_177:\n        /* \"source/Storage.sol\":3348:3716  {... */\n      pop\n        /* \"source/Storage.sol\":3170:3716  if (keys.length == 1) {... */\n    tag_153:\n        /* \"source/Storage.sol\":995:996  _ */\n    tag_135:\n        /* \"source/Storage.sol\":1165:1166  _ */\n      pop\n        /* \"source/Storage.sol\":1052:1174  {... */\n      pop\n        /* \"source/Storage.sol\":3003:3723  function _clearKeyData(string memory _key) private notEmpty(_key) onlyDataOwner(_key) {... */\n      pop\n      pop\n      jump\t// out\n        /* \"source/Storage.sol\":2639:2995  function _setKeyData(string memory _key, Data memory _data) private notEmpty(_key) {... */\n    tag_96:\n        /* \"source/Storage.sol\":2716:2720  _key */\n      dup2\n        /* \"source/Storage.sol\":1063:1085  bytes memory byteValue */\n      0x00\n        /* \"source/Storage.sol\":1094:1100  _value */\n      dup2\n        /* \"source/Storage.sol\":1063:1101  bytes memory byteValue = bytes(_value) */\n      swap1\n      pop\n        /* \"source/Storage.sol\":1140:1141  0 */\n      0x00\n        /* \"source/Storage.sol\":1120:1129  byteValue */\n      dup2\n        /* \"source/Storage.sol\":1120:1136  byteValue.length */\n      mload\n        /* \"source/Storage.sol\":1120:1141  byteValue.length != 0 */\n      sub\n        /* \"source/Storage.sol\":1112:1154  require(byteValue.length != 0, 'NO_VALUE') */\n      tag_183\n      jumpi\n      mload(0x40)\n      0x08c379a000000000000000000000000000000000000000000000000000000000\n      dup2\n      mstore\n      0x04\n      add\n      tag_184\n      swap1\n      tag_113\n      jump\t// in\n    tag_184:\n      mload(0x40)\n      dup1\n      swap2\n      sub\n      swap1\n      revert\n    tag_183:\n        /* \"source/Storage.sol\":2768:2769  0 */\n      0x00\n        /* \"source/Storage.sol\":2737:2770  allData[_key].owner != address(0) */\n      0xffffffffffffffffffffffffffffffffffffffff\n      and\n        /* \"source/Storage.sol\":2737:2744  allData */\n      0x00\n        /* \"source/Storage.sol\":2745:2749  _key */\n      dup6\n        /* \"source/Storage.sol\":2737:2750  allData[_key] */\n      mload(0x40)\n      tag_186\n      swap2\n      swap1\n      tag_116\n      jump\t// in\n    tag_186:\n      swap1\n      dup2\n      mstore\n      0x20\n      add\n      mload(0x40)\n      dup1\n      swap2\n      sub\n      swap1\n      keccak256\n        /* \"source/Storage.sol\":2737:2756  allData[_key].owner */\n      0x00\n      add\n      0x00\n      swap1\n      sload\n      swap1\n      0x0100\n      exp\n      swap1\n      div\n      0xffffffffffffffffffffffffffffffffffffffff\n      and\n        /* \"source/Storage.sol\":2737:2770  allData[_key].owner != address(0) */\n      0xffffffffffffffffffffffffffffffffffffffff\n      and\n      eq\n        /* \"source/Storage.sol\":2733:2902  if (allData[_key].owner != address(0)) {... */\n      tag_187\n      jumpi\n        /* \"source/Storage.sol\":2809:2816  allData */\n      0x00\n        /* \"source/Storage.sol\":2817:2821  _key */\n      dup5\n        /* \"source/Storage.sol\":2809:2822  allData[_key] */\n      mload(0x40)\n      tag_188\n      swap2\n      swap1\n      tag_116\n      jump\t// in\n    tag_188:\n      swap1\n      dup2\n      mstore\n      0x20\n      add\n      mload(0x40)\n      dup1\n      swap2\n      sub\n      swap1\n      keccak256\n        /* \"source/Storage.sol\":2809:2828  allData[_key].owner */\n      0x00\n      add\n      0x00\n      swap1\n      sload\n      swap1\n      0x0100\n      exp\n      swap1\n      div\n      0xffffffffffffffffffffffffffffffffffffffff\n      and\n        /* \"source/Storage.sol\":2795:2828  msg.sender == allData[_key].owner */\n      0xffffffffffffffffffffffffffffffffffffffff\n      and\n        /* \"source/Storage.sol\":2795:2805  msg.sender */\n      caller\n        /* \"source/Storage.sol\":2795:2828  msg.sender == allData[_key].owner */\n      0xffffffffffffffffffffffffffffffffffffffff\n      and\n      eq\n        /* \"source/Storage.sol\":2787:2842  require(msg.sender == allData[_key].owner, 'FORBIDDEN') */\n      tag_189\n      jumpi\n      mload(0x40)\n      0x08c379a000000000000000000000000000000000000000000000000000000000\n      dup2\n      mstore\n      0x04\n      add\n      tag_190\n      swap1\n      tag_134\n      jump\t// in\n    tag_190:\n      mload(0x40)\n      dup1\n      swap2\n      sub\n      swap1\n      revert\n    tag_189:\n        /* \"source/Storage.sol\":2733:2902  if (allData[_key].owner != address(0)) {... */\n      jump(tag_191)\n    tag_187:\n        /* \"source/Storage.sol\":2875:2879  keys */\n      0x01\n        /* \"source/Storage.sol\":2885:2889  _key */\n      dup5\n        /* \"source/Storage.sol\":2875:2890  keys.push(_key) */\n      swap1\n      dup1\n      0x01\n      dup2\n      sload\n      add\n      dup1\n      dup3\n      sstore\n      dup1\n      swap2\n      pop\n      pop\n      0x01\n      swap1\n      sub\n      swap1\n      0x00\n      mstore\n      keccak256(0x00, 0x20)\n      add\n      0x00\n      swap1\n      swap2\n      swap1\n      swap2\n      swap1\n      swap2\n      pop\n      swap1\n      dup2\n      tag_193\n      swap2\n      swap1\n      tag_194\n      jump\t// in\n    tag_193:\n      pop\n        /* \"source/Storage.sol\":2733:2902  if (allData[_key].owner != address(0)) {... */\n    tag_191:\n        /* \"source/Storage.sol\":2934:2939  _data */\n      dup3\n        /* \"source/Storage.sol\":2934:2945  _data.owner */\n      0x00\n      add\n      mload\n        /* \"source/Storage.sol\":2912:2919  allData */\n      0x00\n        /* \"source/Storage.sol\":2920:2924  _key */\n      dup6\n        /* \"source/Storage.sol\":2912:2925  allData[_key] */\n      mload(0x40)\n      tag_195\n      swap2\n      swap1\n      tag_116\n      jump\t// in\n    tag_195:\n      swap1\n      dup2\n      mstore\n      0x20\n      add\n      mload(0x40)\n      dup1\n      swap2\n      sub\n      swap1\n      keccak256\n        /* \"source/Storage.sol\":2912:2931  allData[_key].owner */\n      0x00\n      add\n      0x00\n        /* \"source/Storage.sol\":2912:2945  allData[_key].owner = _data.owner */\n      0x0100\n      exp\n      dup2\n      sload\n      dup2\n      0xffffffffffffffffffffffffffffffffffffffff\n      mul\n      not\n      and\n      swap1\n      dup4\n      0xffffffffffffffffffffffffffffffffffffffff\n      and\n      mul\n      or\n      swap1\n      sstore\n      pop\n        /* \"source/Storage.sol\":2977:2982  _data */\n      dup3\n        /* \"source/Storage.sol\":2977:2987  _data.info */\n      0x20\n      add\n      mload\n        /* \"source/Storage.sol\":2956:2963  allData */\n      0x00\n        /* \"source/Storage.sol\":2964:2968  _key */\n      dup6\n        /* \"source/Storage.sol\":2956:2969  allData[_key] */\n      mload(0x40)\n      tag_196\n      swap2\n      swap1\n      tag_116\n      jump\t// in\n    tag_196:\n      swap1\n      dup2\n      mstore\n      0x20\n      add\n      mload(0x40)\n      dup1\n      swap2\n      sub\n      swap1\n      keccak256\n        /* \"source/Storage.sol\":2956:2974  allData[_key].info */\n      0x01\n      add\n        /* \"source/Storage.sol\":2956:2987  allData[_key].info = _data.info */\n      swap1\n      dup2\n      tag_197\n      swap2\n      swap1\n      tag_194\n      jump\t// in\n    tag_197:\n      pop\n        /* \"source/Storage.sol\":1052:1174  {... */\n      pop\n        /* \"source/Storage.sol\":2639:2995  function _setKeyData(string memory _key, Data memory _data) private notEmpty(_key) {... */\n      pop\n      pop\n      pop\n      jump\t// out\n    tag_47:\n      mload(0x40)\n      dup1\n      0x40\n      add\n      0x40\n      mstore\n      dup1\n      and(0xffffffffffffffffffffffffffffffffffffffff, 0x00)\n      dup2\n      mstore\n      0x20\n      add\n      0x60\n      dup2\n      mstore\n      pop\n      swap1\n      jump\t// out\n    tag_138:\n      pop\n      dup1\n      sload\n      tag_198\n      swap1\n      tag_57\n      jump\t// in\n    tag_198:\n      0x00\n      dup3\n      sstore\n      dup1\n      0x1f\n      lt\n      tag_200\n      jumpi\n      pop\n      jump(tag_199)\n    tag_200:\n      0x1f\n      add\n      0x20\n      swap1\n      div\n      swap1\n      0x00\n      mstore\n      keccak256(0x00, 0x20)\n      swap1\n      dup2\n      add\n      swap1\n      tag_201\n      swap2\n      swap1\n      tag_202\n      jump\t// in\n    tag_201:\n    tag_199:\n      pop\n      jump\t// out\n    tag_202:\n    tag_203:\n      dup1\n      dup3\n      gt\n      iszero\n      tag_204\n      jumpi\n      0x00\n      dup2\n      0x00\n      swap1\n      sstore\n      pop\n      0x01\n      add\n      jump(tag_203)\n    tag_204:\n      pop\n      swap1\n      jump\t// out\n        /* \"#utility.yul\":7:140   */\n    tag_205:\n        /* \"#utility.yul\":93:99   */\n      0x00\n        /* \"#utility.yul\":127:132   */\n      dup2\n        /* \"#utility.yul\":121:133   */\n      mload\n        /* \"#utility.yul\":111:133   */\n      swap1\n      pop\n        /* \"#utility.yul\":7:140   */\n      swap2\n      swap1\n      pop\n      jump\t// out\n        /* \"#utility.yul\":146:349   */\n    tag_206:\n        /* \"#utility.yul\":264:275   */\n      0x00\n        /* \"#utility.yul\":298:304   */\n      dup3\n        /* \"#utility.yul\":293:296   */\n      dup3\n        /* \"#utility.yul\":286:305   */\n      mstore\n        /* \"#utility.yul\":338:342   */\n      0x20\n        /* \"#utility.yul\":333:336   */\n      dup3\n        /* \"#utility.yul\":329:343   */\n      add\n        /* \"#utility.yul\":314:343   */\n      swap1\n      pop\n        /* \"#utility.yul\":146:349   */\n      swap3\n      swap2\n      pop\n      pop\n      jump\t// out\n        /* \"#utility.yul\":355:506   */\n    tag_207:\n        /* \"#utility.yul\":441:445   */\n      0x00\n        /* \"#utility.yul\":464:467   */\n      dup2\n        /* \"#utility.yul\":456:467   */\n      swap1\n      pop\n        /* \"#utility.yul\":494:498   */\n      0x20\n        /* \"#utility.yul\":489:492   */\n      dup3\n        /* \"#utility.yul\":485:499   */\n      add\n        /* \"#utility.yul\":477:499   */\n      swap1\n      pop\n        /* \"#utility.yul\":355:506   */\n      swap2\n      swap1\n      pop\n      jump\t// out\n        /* \"#utility.yul\":512:638   */\n    tag_208:\n        /* \"#utility.yul\":549:556   */\n      0x00\n        /* \"#utility.yul\":589:631   */\n      0xffffffffffffffffffffffffffffffffffffffff\n        /* \"#utility.yul\":582:587   */\n      dup3\n        /* \"#utility.yul\":578:632   */\n      and\n        /* \"#utility.yul\":567:632   */\n      swap1\n      pop\n        /* \"#utility.yul\":512:638   */\n      swap2\n      swap1\n      pop\n      jump\t// out\n        /* \"#utility.yul\":644:740   */\n    tag_209:\n        /* \"#utility.yul\":681:688   */\n      0x00\n        /* \"#utility.yul\":710:734   */\n      tag_291\n        /* \"#utility.yul\":728:733   */\n      dup3\n        /* \"#utility.yul\":710:734   */\n      tag_208\n      jump\t// in\n    tag_291:\n        /* \"#utility.yul\":699:734   */\n      swap1\n      pop\n        /* \"#utility.yul\":644:740   */\n      swap2\n      swap1\n      pop\n      jump\t// out\n        /* \"#utility.yul\":746:854   */\n    tag_210:\n        /* \"#utility.yul\":823:847   */\n      tag_293\n        /* \"#utility.yul\":841:846   */\n      dup2\n        /* \"#utility.yul\":823:847   */\n      tag_209\n      jump\t// in\n    tag_293:\n        /* \"#utility.yul\":818:821   */\n      dup3\n        /* \"#utility.yul\":811:848   */\n      mstore\n        /* \"#utility.yul\":746:854   */\n      pop\n      pop\n      jump\t// out\n        /* \"#utility.yul\":860:959   */\n    tag_211:\n        /* \"#utility.yul\":912:918   */\n      0x00\n        /* \"#utility.yul\":946:951   */\n      dup2\n        /* \"#utility.yul\":940:952   */\n      mload\n        /* \"#utility.yul\":930:952   */\n      swap1\n      pop\n        /* \"#utility.yul\":860:959   */\n      swap2\n      swap1\n      pop\n      jump\t// out\n        /* \"#utility.yul\":965:1124   */\n    tag_212:\n        /* \"#utility.yul\":1039:1050   */\n      0x00\n        /* \"#utility.yul\":1073:1079   */\n      dup3\n        /* \"#utility.yul\":1068:1071   */\n      dup3\n        /* \"#utility.yul\":1061:1080   */\n      mstore\n        /* \"#utility.yul\":1113:1117   */\n      0x20\n        /* \"#utility.yul\":1108:1111   */\n      dup3\n        /* \"#utility.yul\":1104:1118   */\n      add\n        /* \"#utility.yul\":1089:1118   */\n      swap1\n      pop\n        /* \"#utility.yul\":965:1124   */\n      swap3\n      swap2\n      pop\n      pop\n      jump\t// out\n        /* \"#utility.yul\":1130:1376   */\n    tag_213:\n        /* \"#utility.yul\":1211:1212   */\n      0x00\n        /* \"#utility.yul\":1221:1334   */\n    tag_297:\n        /* \"#utility.yul\":1235:1241   */\n      dup4\n        /* \"#utility.yul\":1232:1233   */\n      dup2\n        /* \"#utility.yul\":1229:1242   */\n      lt\n        /* \"#utility.yul\":1221:1334   */\n      iszero\n      tag_299\n      jumpi\n        /* \"#utility.yul\":1320:1321   */\n      dup1\n        /* \"#utility.yul\":1315:1318   */\n      dup3\n        /* \"#utility.yul\":1311:1322   */\n      add\n        /* \"#utility.yul\":1305:1323   */\n      mload\n        /* \"#utility.yul\":1301:1302   */\n      dup2\n        /* \"#utility.yul\":1296:1299   */\n      dup5\n        /* \"#utility.yul\":1292:1303   */\n      add\n        /* \"#utility.yul\":1285:1324   */\n      mstore\n        /* \"#utility.yul\":1257:1259   */\n      0x20\n        /* \"#utility.yul\":1254:1255   */\n      dup2\n        /* \"#utility.yul\":1250:1260   */\n      add\n        /* \"#utility.yul\":1245:1260   */\n      swap1\n      pop\n        /* \"#utility.yul\":1221:1334   */\n      jump(tag_297)\n    tag_299:\n        /* \"#utility.yul\":1368:1369   */\n      0x00\n        /* \"#utility.yul\":1359:1365   */\n      dup5\n        /* \"#utility.yul\":1354:1357   */\n      dup5\n        /* \"#utility.yul\":1350:1366   */\n      add\n        /* \"#utility.yul\":1343:1370   */\n      mstore\n        /* \"#utility.yul\":1192:1376   */\n      pop\n        /* \"#utility.yul\":1130:1376   */\n      pop\n      pop\n      pop\n      jump\t// out\n        /* \"#utility.yul\":1382:1484   */\n    tag_214:\n        /* \"#utility.yul\":1423:1429   */\n      0x00\n        /* \"#utility.yul\":1474:1476   */\n      0x1f\n        /* \"#utility.yul\":1470:1477   */\n      not\n        /* \"#utility.yul\":1465:1467   */\n      0x1f\n        /* \"#utility.yul\":1458:1463   */\n      dup4\n        /* \"#utility.yul\":1454:1468   */\n      add\n        /* \"#utility.yul\":1450:1478   */\n      and\n        /* \"#utility.yul\":1440:1478   */\n      swap1\n      pop\n        /* \"#utility.yul\":1382:1484   */\n      swap2\n      swap1\n      pop\n      jump\t// out\n        /* \"#utility.yul\":1490:1847   */\n    tag_215:\n        /* \"#utility.yul\":1568:1571   */\n      0x00\n        /* \"#utility.yul\":1596:1635   */\n      tag_302\n        /* \"#utility.yul\":1629:1634   */\n      dup3\n        /* \"#utility.yul\":1596:1635   */\n      tag_211\n      jump\t// in\n    tag_302:\n        /* \"#utility.yul\":1651:1712   */\n      tag_303\n        /* \"#utility.yul\":1705:1711   */\n      dup2\n        /* \"#utility.yul\":1700:1703   */\n      dup6\n        /* \"#utility.yul\":1651:1712   */\n      tag_212\n      jump\t// in\n    tag_303:\n        /* \"#utility.yul\":1644:1712   */\n      swap4\n      pop\n        /* \"#utility.yul\":1721:1786   */\n      tag_304\n        /* \"#utility.yul\":1779:1785   */\n      dup2\n        /* \"#utility.yul\":1774:1777   */\n      dup6\n        /* \"#utility.yul\":1767:1771   */\n      0x20\n        /* \"#utility.yul\":1760:1765   */\n      dup7\n        /* \"#utility.yul\":1756:1772   */\n      add\n        /* \"#utility.yul\":1721:1786   */\n      tag_213\n      jump\t// in\n    tag_304:\n        /* \"#utility.yul\":1811:1840   */\n      tag_305\n        /* \"#utility.yul\":1833:1839   */\n      dup2\n        /* \"#utility.yul\":1811:1840   */\n      tag_214\n      jump\t// in\n    tag_305:\n        /* \"#utility.yul\":1806:1809   */\n      dup5\n        /* \"#utility.yul\":1802:1841   */\n      add\n        /* \"#utility.yul\":1795:1841   */\n      swap2\n      pop\n        /* \"#utility.yul\":1572:1847   */\n      pop\n        /* \"#utility.yul\":1490:1847   */\n      swap3\n      swap2\n      pop\n      pop\n      jump\t// out\n        /* \"#utility.yul\":1905:2490   */\n    tag_216:\n        /* \"#utility.yul\":2002:2005   */\n      0x00\n        /* \"#utility.yul\":2038:2042   */\n      0x40\n        /* \"#utility.yul\":2033:2036   */\n      dup4\n        /* \"#utility.yul\":2029:2043   */\n      add\n        /* \"#utility.yul\":2126:2130   */\n      0x00\n        /* \"#utility.yul\":2119:2124   */\n      dup4\n        /* \"#utility.yul\":2115:2131   */\n      add\n        /* \"#utility.yul\":2109:2132   */\n      mload\n        /* \"#utility.yul\":2145:2208   */\n      tag_307\n        /* \"#utility.yul\":2202:2206   */\n      0x00\n        /* \"#utility.yul\":2197:2200   */\n      dup7\n        /* \"#utility.yul\":2193:2207   */\n      add\n        /* \"#utility.yul\":2179:2191   */\n      dup3\n        /* \"#utility.yul\":2145:2208   */\n      tag_210\n      jump\t// in\n    tag_307:\n        /* \"#utility.yul\":2053:2218   */\n      pop\n        /* \"#utility.yul\":2300:2304   */\n      0x20\n        /* \"#utility.yul\":2293:2298   */\n      dup4\n        /* \"#utility.yul\":2289:2305   */\n      add\n        /* \"#utility.yul\":2283:2306   */\n      mload\n        /* \"#utility.yul\":2353:2356   */\n      dup5\n        /* \"#utility.yul\":2347:2351   */\n      dup3\n        /* \"#utility.yul\":2343:2357   */\n      sub\n        /* \"#utility.yul\":2336:2340   */\n      0x20\n        /* \"#utility.yul\":2331:2334   */\n      dup7\n        /* \"#utility.yul\":2327:2341   */\n      add\n        /* \"#utility.yul\":2320:2358   */\n      mstore\n        /* \"#utility.yul\":2379:2452   */\n      tag_308\n        /* \"#utility.yul\":2447:2451   */\n      dup3\n        /* \"#utility.yul\":2433:2445   */\n      dup3\n        /* \"#utility.yul\":2379:2452   */\n      tag_215\n      jump\t// in\n    tag_308:\n        /* \"#utility.yul\":2371:2452   */\n      swap2\n      pop\n        /* \"#utility.yul\":2228:2463   */\n      pop\n        /* \"#utility.yul\":2480:2484   */\n      dup1\n        /* \"#utility.yul\":2473:2484   */\n      swap2\n      pop\n        /* \"#utility.yul\":2007:2490   */\n      pop\n        /* \"#utility.yul\":1905:2490   */\n      swap3\n      swap2\n      pop\n      pop\n      jump\t// out\n        /* \"#utility.yul\":2496:2728   */\n    tag_217:\n        /* \"#utility.yul\":2603:2613   */\n      0x00\n        /* \"#utility.yul\":2638:2722   */\n      tag_310\n        /* \"#utility.yul\":2718:2721   */\n      dup4\n        /* \"#utility.yul\":2710:2716   */\n      dup4\n        /* \"#utility.yul\":2638:2722   */\n      tag_216\n      jump\t// in\n    tag_310:\n        /* \"#utility.yul\":2624:2722   */\n      swap1\n      pop\n        /* \"#utility.yul\":2496:2728   */\n      swap3\n      swap2\n      pop\n      pop\n      jump\t// out\n        /* \"#utility.yul\":2734:2866   */\n    tag_218:\n        /* \"#utility.yul\":2823:2827   */\n      0x00\n        /* \"#utility.yul\":2855:2859   */\n      0x20\n        /* \"#utility.yul\":2850:2853   */\n      dup3\n        /* \"#utility.yul\":2846:2860   */\n      add\n        /* \"#utility.yul\":2838:2860   */\n      swap1\n      pop\n        /* \"#utility.yul\":2734:2866   */\n      swap2\n      swap1\n      pop\n      jump\t// out\n        /* \"#utility.yul\":2928:3991   */\n    tag_219:\n        /* \"#utility.yul\":3085:3088   */\n      0x00\n        /* \"#utility.yul\":3114:3187   */\n      tag_313\n        /* \"#utility.yul\":3181:3186   */\n      dup3\n        /* \"#utility.yul\":3114:3187   */\n      tag_205\n      jump\t// in\n    tag_313:\n        /* \"#utility.yul\":3203:3308   */\n      tag_314\n        /* \"#utility.yul\":3301:3307   */\n      dup2\n        /* \"#utility.yul\":3296:3299   */\n      dup6\n        /* \"#utility.yul\":3203:3308   */\n      tag_206\n      jump\t// in\n    tag_314:\n        /* \"#utility.yul\":3196:3308   */\n      swap4\n      pop\n        /* \"#utility.yul\":3334:3337   */\n      dup4\n        /* \"#utility.yul\":3379:3383   */\n      0x20\n        /* \"#utility.yul\":3371:3377   */\n      dup3\n        /* \"#utility.yul\":3367:3384   */\n      mul\n        /* \"#utility.yul\":3362:3365   */\n      dup6\n        /* \"#utility.yul\":3358:3385   */\n      add\n        /* \"#utility.yul\":3409:3484   */\n      tag_315\n        /* \"#utility.yul\":3478:3483   */\n      dup6\n        /* \"#utility.yul\":3409:3484   */\n      tag_207\n      jump\t// in\n    tag_315:\n        /* \"#utility.yul\":3507:3514   */\n      dup1\n        /* \"#utility.yul\":3538:3539   */\n      0x00\n        /* \"#utility.yul\":3523:3946   */\n    tag_316:\n        /* \"#utility.yul\":3548:3554   */\n      dup6\n        /* \"#utility.yul\":3545:3546   */\n      dup2\n        /* \"#utility.yul\":3542:3555   */\n      lt\n        /* \"#utility.yul\":3523:3946   */\n      iszero\n      tag_318\n      jumpi\n        /* \"#utility.yul\":3619:3628   */\n      dup5\n        /* \"#utility.yul\":3613:3617   */\n      dup5\n        /* \"#utility.yul\":3609:3629   */\n      sub\n        /* \"#utility.yul\":3604:3607   */\n      dup10\n        /* \"#utility.yul\":3597:3630   */\n      mstore\n        /* \"#utility.yul\":3670:3676   */\n      dup2\n        /* \"#utility.yul\":3664:3677   */\n      mload\n        /* \"#utility.yul\":3698:3800   */\n      tag_319\n        /* \"#utility.yul\":3795:3799   */\n      dup6\n        /* \"#utility.yul\":3780:3793   */\n      dup3\n        /* \"#utility.yul\":3698:3800   */\n      tag_217\n      jump\t// in\n    tag_319:\n        /* \"#utility.yul\":3690:3800   */\n      swap5\n      pop\n        /* \"#utility.yul\":3823:3902   */\n      tag_320\n        /* \"#utility.yul\":3895:3901   */\n      dup4\n        /* \"#utility.yul\":3823:3902   */\n      tag_218\n      jump\t// in\n    tag_320:\n        /* \"#utility.yul\":3813:3902   */\n      swap3\n      pop\n        /* \"#utility.yul\":3931:3935   */\n      0x20\n        /* \"#utility.yul\":3926:3929   */\n      dup11\n        /* \"#utility.yul\":3922:3936   */\n      add\n        /* \"#utility.yul\":3915:3936   */\n      swap10\n      pop\n        /* \"#utility.yul\":3583:3946   */\n      pop\n        /* \"#utility.yul\":3570:3571   */\n      0x01\n        /* \"#utility.yul\":3567:3568   */\n      dup2\n        /* \"#utility.yul\":3563:3572   */\n      add\n        /* \"#utility.yul\":3558:3572   */\n      swap1\n      pop\n        /* \"#utility.yul\":3523:3946   */\n      jump(tag_316)\n    tag_318:\n        /* \"#utility.yul\":3527:3541   */\n      pop\n        /* \"#utility.yul\":3962:3966   */\n      dup3\n        /* \"#utility.yul\":3955:3966   */\n      swap8\n      pop\n        /* \"#utility.yul\":3982:3985   */\n      dup8\n        /* \"#utility.yul\":3975:3985   */\n      swap6\n      pop\n        /* \"#utility.yul\":3090:3991   */\n      pop\n      pop\n      pop\n      pop\n      pop\n        /* \"#utility.yul\":2928:3991   */\n      swap3\n      swap2\n      pop\n      pop\n      jump\t// out\n        /* \"#utility.yul\":3997:4446   */\n    tag_14:\n        /* \"#utility.yul\":4178:4182   */\n      0x00\n        /* \"#utility.yul\":4216:4218   */\n      0x20\n        /* \"#utility.yul\":4205:4214   */\n      dup3\n        /* \"#utility.yul\":4201:4219   */\n      add\n        /* \"#utility.yul\":4193:4219   */\n      swap1\n      pop\n        /* \"#utility.yul\":4265:4274   */\n      dup2\n        /* \"#utility.yul\":4259:4263   */\n      dup2\n        /* \"#utility.yul\":4255:4275   */\n      sub\n        /* \"#utility.yul\":4251:4252   */\n      0x00\n        /* \"#utility.yul\":4240:4249   */\n      dup4\n        /* \"#utility.yul\":4236:4253   */\n      add\n        /* \"#utility.yul\":4229:4276   */\n      mstore\n        /* \"#utility.yul\":4293:4439   */\n      tag_322\n        /* \"#utility.yul\":4434:4438   */\n      dup2\n        /* \"#utility.yul\":4425:4431   */\n      dup5\n        /* \"#utility.yul\":4293:4439   */\n      tag_219\n      jump\t// in\n    tag_322:\n        /* \"#utility.yul\":4285:4439   */\n      swap1\n      pop\n        /* \"#utility.yul\":3997:4446   */\n      swap3\n      swap2\n      pop\n      pop\n      jump\t// out\n        /* \"#utility.yul\":4452:4527   */\n    tag_220:\n        /* \"#utility.yul\":4485:4491   */\n      0x00\n        /* \"#utility.yul\":4518:4520   */\n      0x40\n        /* \"#utility.yul\":4512:4521   */\n      mload\n        /* \"#utility.yul\":4502:4521   */\n      swap1\n      pop\n        /* \"#utility.yul\":4452:4527   */\n      swap1\n      jump\t// out\n        /* \"#utility.yul\":4533:4650   */\n    tag_221:\n        /* \"#utility.yul\":4642:4643   */\n      0x00\n        /* \"#utility.yul\":4639:4640   */\n      dup1\n        /* \"#utility.yul\":4632:4644   */\n      revert\n        /* \"#utility.yul\":4656:4773   */\n    tag_222:\n        /* \"#utility.yul\":4765:4766   */\n      0x00\n        /* \"#utility.yul\":4762:4763   */\n      dup1\n        /* \"#utility.yul\":4755:4767   */\n      revert\n        /* \"#utility.yul\":4779:4896   */\n    tag_223:\n        /* \"#utility.yul\":4888:4889   */\n      0x00\n        /* \"#utility.yul\":4885:4886   */\n      dup1\n        /* \"#utility.yul\":4878:4890   */\n      revert\n        /* \"#utility.yul\":4902:5019   */\n    tag_224:\n        /* \"#utility.yul\":5011:5012   */\n      0x00\n        /* \"#utility.yul\":5008:5009   */\n      dup1\n        /* \"#utility.yul\":5001:5013   */\n      revert\n        /* \"#utility.yul\":5025:5205   */\n    tag_43:\n        /* \"#utility.yul\":5073:5150   */\n      0x4e487b7100000000000000000000000000000000000000000000000000000000\n        /* \"#utility.yul\":5070:5071   */\n      0x00\n        /* \"#utility.yul\":5063:5151   */\n      mstore\n        /* \"#utility.yul\":5170:5174   */\n      0x41\n        /* \"#utility.yul\":5167:5168   */\n      0x04\n        /* \"#utility.yul\":5160:5175   */\n      mstore\n        /* \"#utility.yul\":5194:5198   */\n      0x24\n        /* \"#utility.yul\":5191:5192   */\n      0x00\n        /* \"#utility.yul\":5184:5199   */\n      revert\n        /* \"#utility.yul\":5211:5492   */\n    tag_225:\n        /* \"#utility.yul\":5294:5321   */\n      tag_330\n        /* \"#utility.yul\":5316:5320   */\n      dup3\n        /* \"#utility.yul\":5294:5321   */\n      tag_214\n      jump\t// in\n    tag_330:\n        /* \"#utility.yul\":5286:5292   */\n      dup2\n        /* \"#utility.yul\":5282:5322   */\n      add\n        /* \"#utility.yul\":5424:5430   */\n      dup2\n        /* \"#utility.yul\":5412:5422   */\n      dup2\n        /* \"#utility.yul\":5409:5431   */\n      lt\n        /* \"#utility.yul\":5388:5406   */\n      0xffffffffffffffff\n        /* \"#utility.yul\":5376:5386   */\n      dup3\n        /* \"#utility.yul\":5373:5407   */\n      gt\n        /* \"#utility.yul\":5370:5432   */\n      or\n        /* \"#utility.yul\":5367:5455   */\n      iszero\n      tag_331\n      jumpi\n        /* \"#utility.yul\":5435:5453   */\n      tag_332\n      tag_43\n      jump\t// in\n    tag_332:\n        /* \"#utility.yul\":5367:5455   */\n    tag_331:\n        /* \"#utility.yul\":5475:5485   */\n      dup1\n        /* \"#utility.yul\":5471:5473   */\n      0x40\n        /* \"#utility.yul\":5464:5486   */\n      mstore\n        /* \"#utility.yul\":5254:5492   */\n      pop\n        /* \"#utility.yul\":5211:5492   */\n      pop\n      pop\n      jump\t// out\n        /* \"#utility.yul\":5498:5627   */\n    tag_226:\n        /* \"#utility.yul\":5532:5538   */\n      0x00\n        /* \"#utility.yul\":5559:5579   */\n      tag_334\n      tag_220\n      jump\t// in\n    tag_334:\n        /* \"#utility.yul\":5549:5579   */\n      swap1\n      pop\n        /* \"#utility.yul\":5588:5621   */\n      tag_335\n        /* \"#utility.yul\":5616:5620   */\n      dup3\n        /* \"#utility.yul\":5608:5614   */\n      dup3\n        /* \"#utility.yul\":5588:5621   */\n      tag_225\n      jump\t// in\n    tag_335:\n        /* \"#utility.yul\":5498:5627   */\n      swap2\n      swap1\n      pop\n      jump\t// out\n        /* \"#utility.yul\":5633:5941   */\n    tag_227:\n        /* \"#utility.yul\":5695:5699   */\n      0x00\n        /* \"#utility.yul\":5785:5803   */\n      0xffffffffffffffff\n        /* \"#utility.yul\":5777:5783   */\n      dup3\n        /* \"#utility.yul\":5774:5804   */\n      gt\n        /* \"#utility.yul\":5771:5827   */\n      iszero\n      tag_337\n      jumpi\n        /* \"#utility.yul\":5807:5825   */\n      tag_338\n      tag_43\n      jump\t// in\n    tag_338:\n        /* \"#utility.yul\":5771:5827   */\n    tag_337:\n        /* \"#utility.yul\":5845:5874   */\n      tag_339\n        /* \"#utility.yul\":5867:5873   */\n      dup3\n        /* \"#utility.yul\":5845:5874   */\n      tag_214\n      jump\t// in\n    tag_339:\n        /* \"#utility.yul\":5837:5874   */\n      swap1\n      pop\n        /* \"#utility.yul\":5929:5933   */\n      0x20\n        /* \"#utility.yul\":5923:5927   */\n      dup2\n        /* \"#utility.yul\":5919:5934   */\n      add\n        /* \"#utility.yul\":5911:5934   */\n      swap1\n      pop\n        /* \"#utility.yul\":5633:5941   */\n      swap2\n      swap1\n      pop\n      jump\t// out\n        /* \"#utility.yul\":5947:6093   */\n    tag_228:\n        /* \"#utility.yul\":6044:6050   */\n      dup3\n        /* \"#utility.yul\":6039:6042   */\n      dup2\n        /* \"#utility.yul\":6034:6037   */\n      dup4\n        /* \"#utility.yul\":6021:6051   */\n      calldatacopy\n        /* \"#utility.yul\":6085:6086   */\n      0x00\n        /* \"#utility.yul\":6076:6082   */\n      dup4\n        /* \"#utility.yul\":6071:6074   */\n      dup4\n        /* \"#utility.yul\":6067:6083   */\n      add\n        /* \"#utility.yul\":6060:6087   */\n      mstore\n        /* \"#utility.yul\":5947:6093   */\n      pop\n      pop\n      pop\n      jump\t// out\n        /* \"#utility.yul\":6099:6524   */\n    tag_229:\n        /* \"#utility.yul\":6177:6182   */\n      0x00\n        /* \"#utility.yul\":6202:6268   */\n      tag_342\n        /* \"#utility.yul\":6218:6267   */\n      tag_343\n        /* \"#utility.yul\":6260:6266   */\n      dup5\n        /* \"#utility.yul\":6218:6267   */\n      tag_227\n      jump\t// in\n    tag_343:\n        /* \"#utility.yul\":6202:6268   */\n      tag_226\n      jump\t// in\n    tag_342:\n        /* \"#utility.yul\":6193:6268   */\n      swap1\n      pop\n        /* \"#utility.yul\":6291:6297   */\n      dup3\n        /* \"#utility.yul\":6284:6289   */\n      dup2\n        /* \"#utility.yul\":6277:6298   */\n      mstore\n        /* \"#utility.yul\":6329:6333   */\n      0x20\n        /* \"#utility.yul\":6322:6327   */\n      dup2\n        /* \"#utility.yul\":6318:6334   */\n      add\n        /* \"#utility.yul\":6367:6370   */\n      dup5\n        /* \"#utility.yul\":6358:6364   */\n      dup5\n        /* \"#utility.yul\":6353:6356   */\n      dup5\n        /* \"#utility.yul\":6349:6365   */\n      add\n        /* \"#utility.yul\":6346:6371   */\n      gt\n        /* \"#utility.yul\":6343:6455   */\n      iszero\n      tag_344\n      jumpi\n        /* \"#utility.yul\":6374:6453   */\n      tag_345\n      tag_224\n      jump\t// in\n    tag_345:\n        /* \"#utility.yul\":6343:6455   */\n    tag_344:\n        /* \"#utility.yul\":6464:6518   */\n      tag_346\n        /* \"#utility.yul\":6511:6517   */\n      dup5\n        /* \"#utility.yul\":6506:6509   */\n      dup3\n        /* \"#utility.yul\":6501:6504   */\n      dup6\n        /* \"#utility.yul\":6464:6518   */\n      tag_228\n      jump\t// in\n    tag_346:\n        /* \"#utility.yul\":6183:6524   */\n      pop\n        /* \"#utility.yul\":6099:6524   */\n      swap4\n      swap3\n      pop\n      pop\n      pop\n      jump\t// out\n        /* \"#utility.yul\":6544:6884   */\n    tag_230:\n        /* \"#utility.yul\":6600:6605   */\n      0x00\n        /* \"#utility.yul\":6649:6652   */\n      dup3\n        /* \"#utility.yul\":6642:6646   */\n      0x1f\n        /* \"#utility.yul\":6634:6640   */\n      dup4\n        /* \"#utility.yul\":6630:6647   */\n      add\n        /* \"#utility.yul\":6626:6653   */\n      slt\n        /* \"#utility.yul\":6616:6738   */\n      tag_348\n      jumpi\n        /* \"#utility.yul\":6657:6736   */\n      tag_349\n      tag_223\n      jump\t// in\n    tag_349:\n        /* \"#utility.yul\":6616:6738   */\n    tag_348:\n        /* \"#utility.yul\":6774:6780   */\n      dup2\n        /* \"#utility.yul\":6761:6781   */\n      calldataload\n        /* \"#utility.yul\":6799:6878   */\n      tag_350\n        /* \"#utility.yul\":6874:6877   */\n      dup5\n        /* \"#utility.yul\":6866:6872   */\n      dup3\n        /* \"#utility.yul\":6859:6863   */\n      0x20\n        /* \"#utility.yul\":6851:6857   */\n      dup7\n        /* \"#utility.yul\":6847:6864   */\n      add\n        /* \"#utility.yul\":6799:6878   */\n      tag_229\n      jump\t// in\n    tag_350:\n        /* \"#utility.yul\":6790:6878   */\n      swap2\n      pop\n        /* \"#utility.yul\":6606:6884   */\n      pop\n        /* \"#utility.yul\":6544:6884   */\n      swap3\n      swap2\n      pop\n      pop\n      jump\t// out\n        /* \"#utility.yul\":6890:7399   */\n    tag_17:\n        /* \"#utility.yul\":6959:6965   */\n      0x00\n        /* \"#utility.yul\":7008:7010   */\n      0x20\n        /* \"#utility.yul\":6996:7005   */\n      dup3\n        /* \"#utility.yul\":6987:6994   */\n      dup5\n        /* \"#utility.yul\":6983:7006   */\n      sub\n        /* \"#utility.yul\":6979:7011   */\n      slt\n        /* \"#utility.yul\":6976:7095   */\n      iszero\n      tag_352\n      jumpi\n        /* \"#utility.yul\":7014:7093   */\n      tag_353\n      tag_221\n      jump\t// in\n    tag_353:\n        /* \"#utility.yul\":6976:7095   */\n    tag_352:\n        /* \"#utility.yul\":7162:7163   */\n      0x00\n        /* \"#utility.yul\":7151:7160   */\n      dup3\n        /* \"#utility.yul\":7147:7164   */\n      add\n        /* \"#utility.yul\":7134:7165   */\n      calldataload\n        /* \"#utility.yul\":7192:7210   */\n      0xffffffffffffffff\n        /* \"#utility.yul\":7184:7190   */\n      dup2\n        /* \"#utility.yul\":7181:7211   */\n      gt\n        /* \"#utility.yul\":7178:7295   */\n      iszero\n      tag_354\n      jumpi\n        /* \"#utility.yul\":7214:7293   */\n      tag_355\n      tag_222\n      jump\t// in\n    tag_355:\n        /* \"#utility.yul\":7178:7295   */\n    tag_354:\n        /* \"#utility.yul\":7319:7382   */\n      tag_356\n        /* \"#utility.yul\":7374:7381   */\n      dup5\n        /* \"#utility.yul\":7365:7371   */\n      dup3\n        /* \"#utility.yul\":7354:7363   */\n      dup6\n        /* \"#utility.yul\":7350:7372   */\n      add\n        /* \"#utility.yul\":7319:7382   */\n      tag_230\n      jump\t// in\n    tag_356:\n        /* \"#utility.yul\":7309:7382   */\n      swap2\n      pop\n        /* \"#utility.yul\":7105:7392   */\n      pop\n        /* \"#utility.yul\":6890:7399   */\n      swap3\n      swap2\n      pop\n      pop\n      jump\t// out\n        /* \"#utility.yul\":7405:7726   */\n    tag_231:\n        /* \"#utility.yul\":7492:7496   */\n      0x00\n        /* \"#utility.yul\":7582:7600   */\n      0xffffffffffffffff\n        /* \"#utility.yul\":7574:7580   */\n      dup3\n        /* \"#utility.yul\":7571:7601   */\n      gt\n        /* \"#utility.yul\":7568:7624   */\n      iszero\n      tag_358\n      jumpi\n        /* \"#utility.yul\":7604:7622   */\n      tag_359\n      tag_43\n      jump\t// in\n    tag_359:\n        /* \"#utility.yul\":7568:7624   */\n    tag_358:\n        /* \"#utility.yul\":7654:7658   */\n      0x20\n        /* \"#utility.yul\":7646:7652   */\n      dup3\n        /* \"#utility.yul\":7642:7659   */\n      mul\n        /* \"#utility.yul\":7634:7659   */\n      swap1\n      pop\n        /* \"#utility.yul\":7714:7718   */\n      0x20\n        /* \"#utility.yul\":7708:7712   */\n      dup2\n        /* \"#utility.yul\":7704:7719   */\n      add\n        /* \"#utility.yul\":7696:7719   */\n      swap1\n      pop\n        /* \"#utility.yul\":7405:7726   */\n      swap2\n      swap1\n      pop\n      jump\t// out\n        /* \"#utility.yul\":7732:7849   */\n    tag_232:\n        /* \"#utility.yul\":7841:7842   */\n      0x00\n        /* \"#utility.yul\":7838:7839   */\n      dup1\n        /* \"#utility.yul\":7831:7843   */\n      revert\n        /* \"#utility.yul\":7871:8816   */\n    tag_233:\n        /* \"#utility.yul\":7977:7982   */\n      0x00\n        /* \"#utility.yul\":8002:8093   */\n      tag_362\n        /* \"#utility.yul\":8018:8092   */\n      tag_363\n        /* \"#utility.yul\":8085:8091   */\n      dup5\n        /* \"#utility.yul\":8018:8092   */\n      tag_231\n      jump\t// in\n    tag_363:\n        /* \"#utility.yul\":8002:8093   */\n      tag_226\n      jump\t// in\n    tag_362:\n        /* \"#utility.yul\":7993:8093   */\n      swap1\n      pop\n        /* \"#utility.yul\":8113:8118   */\n      dup1\n        /* \"#utility.yul\":8142:8148   */\n      dup4\n        /* \"#utility.yul\":8135:8140   */\n      dup3\n        /* \"#utility.yul\":8128:8149   */\n      mstore\n        /* \"#utility.yul\":8176:8180   */\n      0x20\n        /* \"#utility.yul\":8169:8174   */\n      dup3\n        /* \"#utility.yul\":8165:8181   */\n      add\n        /* \"#utility.yul\":8158:8181   */\n      swap1\n      pop\n        /* \"#utility.yul\":8229:8233   */\n      0x20\n        /* \"#utility.yul\":8221:8227   */\n      dup5\n        /* \"#utility.yul\":8217:8234   */\n      mul\n        /* \"#utility.yul\":8209:8215   */\n      dup4\n        /* \"#utility.yul\":8205:8235   */\n      add\n        /* \"#utility.yul\":8258:8261   */\n      dup6\n        /* \"#utility.yul\":8250:8256   */\n      dup2\n        /* \"#utility.yul\":8247:8262   */\n      gt\n        /* \"#utility.yul\":8244:8366   */\n      iszero\n      tag_364\n      jumpi\n        /* \"#utility.yul\":8277:8356   */\n      tag_365\n      tag_232\n      jump\t// in\n    tag_365:\n        /* \"#utility.yul\":8244:8366   */\n    tag_364:\n        /* \"#utility.yul\":8392:8398   */\n      dup4\n        /* \"#utility.yul\":8375:8810   */\n    tag_366:\n        /* \"#utility.yul\":8409:8415   */\n      dup2\n        /* \"#utility.yul\":8404:8407   */\n      dup2\n        /* \"#utility.yul\":8401:8416   */\n      lt\n        /* \"#utility.yul\":8375:8810   */\n      iszero\n      tag_368\n      jumpi\n        /* \"#utility.yul\":8498:8501   */\n      dup1\n        /* \"#utility.yul\":8485:8502   */\n      calldataload\n        /* \"#utility.yul\":8534:8552   */\n      0xffffffffffffffff\n        /* \"#utility.yul\":8521:8532   */\n      dup2\n        /* \"#utility.yul\":8518:8553   */\n      gt\n        /* \"#utility.yul\":8515:8637   */\n      iszero\n      tag_369\n      jumpi\n        /* \"#utility.yul\":8556:8635   */\n      tag_370\n      tag_223\n      jump\t// in\n    tag_370:\n        /* \"#utility.yul\":8515:8637   */\n    tag_369:\n        /* \"#utility.yul\":8680:8691   */\n      dup1\n        /* \"#utility.yul\":8672:8678   */\n      dup7\n        /* \"#utility.yul\":8668:8692   */\n      add\n        /* \"#utility.yul\":8718:8765   */\n      tag_371\n        /* \"#utility.yul\":8761:8764   */\n      dup10\n        /* \"#utility.yul\":8749:8759   */\n      dup3\n        /* \"#utility.yul\":8718:8765   */\n      tag_230\n      jump\t// in\n    tag_371:\n        /* \"#utility.yul\":8713:8716   */\n      dup6\n        /* \"#utility.yul\":8706:8766   */\n      mstore\n        /* \"#utility.yul\":8795:8799   */\n      0x20\n        /* \"#utility.yul\":8790:8793   */\n      dup6\n        /* \"#utility.yul\":8786:8800   */\n      add\n        /* \"#utility.yul\":8779:8800   */\n      swap5\n      pop\n        /* \"#utility.yul\":8451:8810   */\n      pop\n      pop\n        /* \"#utility.yul\":8435:8439   */\n      0x20\n        /* \"#utility.yul\":8430:8433   */\n      dup2\n        /* \"#utility.yul\":8426:8440   */\n      add\n        /* \"#utility.yul\":8419:8440   */\n      swap1\n      pop\n        /* \"#utility.yul\":8375:8810   */\n      jump(tag_366)\n    tag_368:\n        /* \"#utility.yul\":8379:8400   */\n      pop\n        /* \"#utility.yul\":7983:8816   */\n      pop\n      pop\n        /* \"#utility.yul\":7871:8816   */\n      swap4\n      swap3\n      pop\n      pop\n      pop\n      jump\t// out\n        /* \"#utility.yul\":8838:9228   */\n    tag_234:\n        /* \"#utility.yul\":8919:8924   */\n      0x00\n        /* \"#utility.yul\":8968:8971   */\n      dup3\n        /* \"#utility.yul\":8961:8965   */\n      0x1f\n        /* \"#utility.yul\":8953:8959   */\n      dup4\n        /* \"#utility.yul\":8949:8966   */\n      add\n        /* \"#utility.yul\":8945:8972   */\n      slt\n        /* \"#utility.yul\":8935:9057   */\n      tag_373\n      jumpi\n        /* \"#utility.yul\":8976:9055   */\n      tag_374\n      tag_223\n      jump\t// in\n    tag_374:\n        /* \"#utility.yul\":8935:9057   */\n    tag_373:\n        /* \"#utility.yul\":9093:9099   */\n      dup2\n        /* \"#utility.yul\":9080:9100   */\n      calldataload\n        /* \"#utility.yul\":9118:9222   */\n      tag_375\n        /* \"#utility.yul\":9218:9221   */\n      dup5\n        /* \"#utility.yul\":9210:9216   */\n      dup3\n        /* \"#utility.yul\":9203:9207   */\n      0x20\n        /* \"#utility.yul\":9195:9201   */\n      dup7\n        /* \"#utility.yul\":9191:9208   */\n      add\n        /* \"#utility.yul\":9118:9222   */\n      tag_233\n      jump\t// in\n    tag_375:\n        /* \"#utility.yul\":9109:9222   */\n      swap2\n      pop\n        /* \"#utility.yul\":8925:9228   */\n      pop\n        /* \"#utility.yul\":8838:9228   */\n      swap3\n      swap2\n      pop\n      pop\n      jump\t// out\n        /* \"#utility.yul\":9234:9793   */\n    tag_21:\n        /* \"#utility.yul\":9328:9334   */\n      0x00\n        /* \"#utility.yul\":9377:9379   */\n      0x20\n        /* \"#utility.yul\":9365:9374   */\n      dup3\n        /* \"#utility.yul\":9356:9363   */\n      dup5\n        /* \"#utility.yul\":9352:9375   */\n      sub\n        /* \"#utility.yul\":9348:9380   */\n      slt\n        /* \"#utility.yul\":9345:9464   */\n      iszero\n      tag_377\n      jumpi\n        /* \"#utility.yul\":9383:9462   */\n      tag_378\n      tag_221\n      jump\t// in\n    tag_378:\n        /* \"#utility.yul\":9345:9464   */\n    tag_377:\n        /* \"#utility.yul\":9531:9532   */\n      0x00\n        /* \"#utility.yul\":9520:9529   */\n      dup3\n        /* \"#utility.yul\":9516:9533   */\n      add\n        /* \"#utility.yul\":9503:9534   */\n      calldataload\n        /* \"#utility.yul\":9561:9579   */\n      0xffffffffffffffff\n        /* \"#utility.yul\":9553:9559   */\n      dup2\n        /* \"#utility.yul\":9550:9580   */\n      gt\n        /* \"#utility.yul\":9547:9664   */\n      iszero\n      tag_379\n      jumpi\n        /* \"#utility.yul\":9583:9662   */\n      tag_380\n      tag_222\n      jump\t// in\n    tag_380:\n        /* \"#utility.yul\":9547:9664   */\n    tag_379:\n        /* \"#utility.yul\":9688:9776   */\n      tag_381\n        /* \"#utility.yul\":9768:9775   */\n      dup5\n        /* \"#utility.yul\":9759:9765   */\n      dup3\n        /* \"#utility.yul\":9748:9757   */\n      dup6\n        /* \"#utility.yul\":9744:9766   */\n      add\n        /* \"#utility.yul\":9688:9776   */\n      tag_234\n      jump\t// in\n    tag_381:\n        /* \"#utility.yul\":9678:9776   */\n      swap2\n      pop\n        /* \"#utility.yul\":9474:9786   */\n      pop\n        /* \"#utility.yul\":9234:9793   */\n      swap3\n      swap2\n      pop\n      pop\n      jump\t// out\n        /* \"#utility.yul\":9851:10446   */\n    tag_235:\n        /* \"#utility.yul\":9958:9961   */\n      0x00\n        /* \"#utility.yul\":9994:9998   */\n      0x40\n        /* \"#utility.yul\":9989:9992   */\n      dup4\n        /* \"#utility.yul\":9985:9999   */\n      add\n        /* \"#utility.yul\":10082:10086   */\n      0x00\n        /* \"#utility.yul\":10075:10080   */\n      dup4\n        /* \"#utility.yul\":10071:10087   */\n      add\n        /* \"#utility.yul\":10065:10088   */\n      mload\n        /* \"#utility.yul\":10101:10164   */\n      tag_383\n        /* \"#utility.yul\":10158:10162   */\n      0x00\n        /* \"#utility.yul\":10153:10156   */\n      dup7\n        /* \"#utility.yul\":10149:10163   */\n      add\n        /* \"#utility.yul\":10135:10147   */\n      dup3\n        /* \"#utility.yul\":10101:10164   */\n      tag_210\n      jump\t// in\n    tag_383:\n        /* \"#utility.yul\":10009:10174   */\n      pop\n        /* \"#utility.yul\":10256:10260   */\n      0x20\n        /* \"#utility.yul\":10249:10254   */\n      dup4\n        /* \"#utility.yul\":10245:10261   */\n      add\n        /* \"#utility.yul\":10239:10262   */\n      mload\n        /* \"#utility.yul\":10309:10312   */\n      dup5\n        /* \"#utility.yul\":10303:10307   */\n      dup3\n        /* \"#utility.yul\":10299:10313   */\n      sub\n        /* \"#utility.yul\":10292:10296   */\n      0x20\n        /* \"#utility.yul\":10287:10290   */\n      dup7\n        /* \"#utility.yul\":10283:10297   */\n      add\n        /* \"#utility.yul\":10276:10314   */\n      mstore\n        /* \"#utility.yul\":10335:10408   */\n      tag_384\n        /* \"#utility.yul\":10403:10407   */\n      dup3\n        /* \"#utility.yul\":10389:10401   */\n      dup3\n        /* \"#utility.yul\":10335:10408   */\n      tag_215\n      jump\t// in\n    tag_384:\n        /* \"#utility.yul\":10327:10408   */\n      swap2\n      pop\n        /* \"#utility.yul\":10184:10419   */\n      pop\n        /* \"#utility.yul\":10436:10440   */\n      dup1\n        /* \"#utility.yul\":10429:10440   */\n      swap2\n      pop\n        /* \"#utility.yul\":9963:10446   */\n      pop\n        /* \"#utility.yul\":9851:10446   */\n      swap3\n      swap2\n      pop\n      pop\n      jump\t// out\n        /* \"#utility.yul\":10452:10801   */\n    tag_27:\n        /* \"#utility.yul\":10583:10587   */\n      0x00\n        /* \"#utility.yul\":10621:10623   */\n      0x20\n        /* \"#utility.yul\":10610:10619   */\n      dup3\n        /* \"#utility.yul\":10606:10624   */\n      add\n        /* \"#utility.yul\":10598:10624   */\n      swap1\n      pop\n        /* \"#utility.yul\":10670:10679   */\n      dup2\n        /* \"#utility.yul\":10664:10668   */\n      dup2\n        /* \"#utility.yul\":10660:10680   */\n      sub\n        /* \"#utility.yul\":10656:10657   */\n      0x00\n        /* \"#utility.yul\":10645:10654   */\n      dup4\n        /* \"#utility.yul\":10641:10658   */\n      add\n        /* \"#utility.yul\":10634:10681   */\n      mstore\n        /* \"#utility.yul\":10698:10794   */\n      tag_386\n        /* \"#utility.yul\":10789:10793   */\n      dup2\n        /* \"#utility.yul\":10780:10786   */\n      dup5\n        /* \"#utility.yul\":10698:10794   */\n      tag_235\n      jump\t// in\n    tag_386:\n        /* \"#utility.yul\":10690:10794   */\n      swap1\n      pop\n        /* \"#utility.yul\":10452:10801   */\n      swap3\n      swap2\n      pop\n      pop\n      jump\t// out\n        /* \"#utility.yul\":10807:11141   */\n    tag_236:\n        /* \"#utility.yul\":10907:10911   */\n      0x00\n        /* \"#utility.yul\":10997:11015   */\n      0xffffffffffffffff\n        /* \"#utility.yul\":10989:10995   */\n      dup3\n        /* \"#utility.yul\":10986:11016   */\n      gt\n        /* \"#utility.yul\":10983:11039   */\n      iszero\n      tag_388\n      jumpi\n        /* \"#utility.yul\":11019:11037   */\n      tag_389\n      tag_43\n      jump\t// in\n    tag_389:\n        /* \"#utility.yul\":10983:11039   */\n    tag_388:\n        /* \"#utility.yul\":11069:11073   */\n      0x20\n        /* \"#utility.yul\":11061:11067   */\n      dup3\n        /* \"#utility.yul\":11057:11074   */\n      mul\n        /* \"#utility.yul\":11049:11074   */\n      swap1\n      pop\n        /* \"#utility.yul\":11129:11133   */\n      0x20\n        /* \"#utility.yul\":11123:11127   */\n      dup2\n        /* \"#utility.yul\":11119:11134   */\n      add\n        /* \"#utility.yul\":11111:11134   */\n      swap1\n      pop\n        /* \"#utility.yul\":10807:11141   */\n      swap2\n      swap1\n      pop\n      jump\t// out\n        /* \"#utility.yul\":11147:11264   */\n    tag_237:\n        /* \"#utility.yul\":11256:11257   */\n      0x00\n        /* \"#utility.yul\":11253:11254   */\n      dup1\n        /* \"#utility.yul\":11246:11258   */\n      revert\n        /* \"#utility.yul\":11270:11387   */\n    tag_238:\n        /* \"#utility.yul\":11379:11380   */\n      0x00\n        /* \"#utility.yul\":11376:11377   */\n      dup1\n        /* \"#utility.yul\":11369:11381   */\n      revert\n        /* \"#utility.yul\":11393:11515   */\n    tag_239:\n        /* \"#utility.yul\":11466:11490   */\n      tag_393\n        /* \"#utility.yul\":11484:11489   */\n      dup2\n        /* \"#utility.yul\":11466:11490   */\n      tag_209\n      jump\t// in\n    tag_393:\n        /* \"#utility.yul\":11459:11464   */\n      dup2\n        /* \"#utility.yul\":11456:11491   */\n      eq\n        /* \"#utility.yul\":11446:11509   */\n      tag_394\n      jumpi\n        /* \"#utility.yul\":11505:11506   */\n      0x00\n        /* \"#utility.yul\":11502:11503   */\n      dup1\n        /* \"#utility.yul\":11495:11507   */\n      revert\n        /* \"#utility.yul\":11446:11509   */\n    tag_394:\n        /* \"#utility.yul\":11393:11515   */\n      pop\n      jump\t// out\n        /* \"#utility.yul\":11521:11660   */\n    tag_240:\n        /* \"#utility.yul\":11567:11572   */\n      0x00\n        /* \"#utility.yul\":11605:11611   */\n      dup2\n        /* \"#utility.yul\":11592:11612   */\n      calldataload\n        /* \"#utility.yul\":11583:11612   */\n      swap1\n      pop\n        /* \"#utility.yul\":11621:11654   */\n      tag_396\n        /* \"#utility.yul\":11648:11653   */\n      dup2\n        /* \"#utility.yul\":11621:11654   */\n      tag_239\n      jump\t// in\n    tag_396:\n        /* \"#utility.yul\":11521:11660   */\n      swap3\n      swap2\n      pop\n      pop\n      jump\t// out\n        /* \"#utility.yul\":11694:12433   */\n    tag_241:\n        /* \"#utility.yul\":11762:11767   */\n      0x00\n        /* \"#utility.yul\":11806:11810   */\n      0x40\n        /* \"#utility.yul\":11794:11803   */\n      dup3\n        /* \"#utility.yul\":11789:11792   */\n      dup5\n        /* \"#utility.yul\":11785:11804   */\n      sub\n        /* \"#utility.yul\":11781:11811   */\n      slt\n        /* \"#utility.yul\":11778:11895   */\n      iszero\n      tag_398\n      jumpi\n        /* \"#utility.yul\":11814:11893   */\n      tag_399\n      tag_237\n      jump\t// in\n    tag_399:\n        /* \"#utility.yul\":11778:11895   */\n    tag_398:\n        /* \"#utility.yul\":11913:11934   */\n      tag_400\n        /* \"#utility.yul\":11929:11933   */\n      0x40\n        /* \"#utility.yul\":11913:11934   */\n      tag_226\n      jump\t// in\n    tag_400:\n        /* \"#utility.yul\":11904:11934   */\n      swap1\n      pop\n        /* \"#utility.yul\":11994:11995   */\n      0x00\n        /* \"#utility.yul\":12034:12083   */\n      tag_401\n        /* \"#utility.yul\":12079:12082   */\n      dup5\n        /* \"#utility.yul\":12070:12076   */\n      dup3\n        /* \"#utility.yul\":12059:12068   */\n      dup6\n        /* \"#utility.yul\":12055:12077   */\n      add\n        /* \"#utility.yul\":12034:12083   */\n      tag_240\n      jump\t// in\n    tag_401:\n        /* \"#utility.yul\":12027:12031   */\n      0x00\n        /* \"#utility.yul\":12020:12025   */\n      dup4\n        /* \"#utility.yul\":12016:12032   */\n      add\n        /* \"#utility.yul\":12009:12084   */\n      mstore\n        /* \"#utility.yul\":11944:12095   */\n      pop\n        /* \"#utility.yul\":12182:12184   */\n      0x20\n        /* \"#utility.yul\":12171:12180   */\n      dup3\n        /* \"#utility.yul\":12167:12185   */\n      add\n        /* \"#utility.yul\":12154:12186   */\n      calldataload\n        /* \"#utility.yul\":12213:12231   */\n      0xffffffffffffffff\n        /* \"#utility.yul\":12205:12211   */\n      dup2\n        /* \"#utility.yul\":12202:12232   */\n      gt\n        /* \"#utility.yul\":12199:12316   */\n      iszero\n      tag_402\n      jumpi\n        /* \"#utility.yul\":12235:12314   */\n      tag_403\n      tag_238\n      jump\t// in\n    tag_403:\n        /* \"#utility.yul\":12199:12316   */\n    tag_402:\n        /* \"#utility.yul\":12355:12414   */\n      tag_404\n        /* \"#utility.yul\":12410:12413   */\n      dup5\n        /* \"#utility.yul\":12401:12407   */\n      dup3\n        /* \"#utility.yul\":12390:12399   */\n      dup6\n        /* \"#utility.yul\":12386:12408   */\n      add\n        /* \"#utility.yul\":12355:12414   */\n      tag_230\n      jump\t// in\n    tag_404:\n        /* \"#utility.yul\":12348:12352   */\n      0x20\n        /* \"#utility.yul\":12341:12346   */\n      dup4\n        /* \"#utility.yul\":12337:12353   */\n      add\n        /* \"#utility.yul\":12330:12415   */\n      mstore\n        /* \"#utility.yul\":12105:12426   */\n      pop\n        /* \"#utility.yul\":11694:12433   */\n      swap3\n      swap2\n      pop\n      pop\n      jump\t// out\n        /* \"#utility.yul\":12470:13390   */\n    tag_242:\n        /* \"#utility.yul\":12542:12547   */\n      0x00\n        /* \"#utility.yul\":12586:12590   */\n      0x40\n        /* \"#utility.yul\":12574:12583   */\n      dup3\n        /* \"#utility.yul\":12569:12572   */\n      dup5\n        /* \"#utility.yul\":12565:12584   */\n      sub\n        /* \"#utility.yul\":12561:12591   */\n      slt\n        /* \"#utility.yul\":12558:12675   */\n      iszero\n      tag_406\n      jumpi\n        /* \"#utility.yul\":12594:12673   */\n      tag_407\n      tag_237\n      jump\t// in\n    tag_407:\n        /* \"#utility.yul\":12558:12675   */\n    tag_406:\n        /* \"#utility.yul\":12693:12714   */\n      tag_408\n        /* \"#utility.yul\":12709:12713   */\n      0x40\n        /* \"#utility.yul\":12693:12714   */\n      tag_226\n      jump\t// in\n    tag_408:\n        /* \"#utility.yul\":12684:12714   */\n      swap1\n      pop\n        /* \"#utility.yul\":12800:12801   */\n      0x00\n        /* \"#utility.yul\":12789:12798   */\n      dup3\n        /* \"#utility.yul\":12785:12802   */\n      add\n        /* \"#utility.yul\":12772:12803   */\n      calldataload\n        /* \"#utility.yul\":12830:12848   */\n      0xffffffffffffffff\n        /* \"#utility.yul\":12822:12828   */\n      dup2\n        /* \"#utility.yul\":12819:12849   */\n      gt\n        /* \"#utility.yul\":12816:12933   */\n      iszero\n      tag_409\n      jumpi\n        /* \"#utility.yul\":12852:12931   */\n      tag_410\n      tag_238\n      jump\t// in\n    tag_410:\n        /* \"#utility.yul\":12816:12933   */\n    tag_409:\n        /* \"#utility.yul\":12972:13031   */\n      tag_411\n        /* \"#utility.yul\":13027:13030   */\n      dup5\n        /* \"#utility.yul\":13018:13024   */\n      dup3\n        /* \"#utility.yul\":13007:13016   */\n      dup6\n        /* \"#utility.yul\":13003:13025   */\n      add\n        /* \"#utility.yul\":12972:13031   */\n      tag_230\n      jump\t// in\n    tag_411:\n        /* \"#utility.yul\":12965:12969   */\n      0x00\n        /* \"#utility.yul\":12958:12963   */\n      dup4\n        /* \"#utility.yul\":12954:12970   */\n      add\n        /* \"#utility.yul\":12947:13032   */\n      mstore\n        /* \"#utility.yul\":12724:13043   */\n      pop\n        /* \"#utility.yul\":13130:13132   */\n      0x20\n        /* \"#utility.yul\":13119:13128   */\n      dup3\n        /* \"#utility.yul\":13115:13133   */\n      add\n        /* \"#utility.yul\":13102:13134   */\n      calldataload\n        /* \"#utility.yul\":13161:13179   */\n      0xffffffffffffffff\n        /* \"#utility.yul\":13153:13159   */\n      dup2\n        /* \"#utility.yul\":13150:13180   */\n      gt\n        /* \"#utility.yul\":13147:13264   */\n      iszero\n      tag_412\n      jumpi\n        /* \"#utility.yul\":13183:13262   */\n      tag_413\n      tag_238\n      jump\t// in\n    tag_413:\n        /* \"#utility.yul\":13147:13264   */\n    tag_412:\n        /* \"#utility.yul\":13303:13371   */\n      tag_414\n        /* \"#utility.yul\":13367:13370   */\n      dup5\n        /* \"#utility.yul\":13358:13364   */\n      dup3\n        /* \"#utility.yul\":13347:13356   */\n      dup6\n        /* \"#utility.yul\":13343:13365   */\n      add\n        /* \"#utility.yul\":13303:13371   */\n      tag_241\n      jump\t// in\n    tag_414:\n        /* \"#utility.yul\":13296:13300   */\n      0x20\n        /* \"#utility.yul\":13289:13294   */\n      dup4\n        /* \"#utility.yul\":13285:13301   */\n      add\n        /* \"#utility.yul\":13278:13372   */\n      mstore\n        /* \"#utility.yul\":13053:13383   */\n      pop\n        /* \"#utility.yul\":12470:13390   */\n      swap3\n      swap2\n      pop\n      pop\n      jump\t// out\n        /* \"#utility.yul\":13429:14413   */\n    tag_243:\n        /* \"#utility.yul\":13548:13553   */\n      0x00\n        /* \"#utility.yul\":13573:13677   */\n      tag_416\n        /* \"#utility.yul\":13589:13676   */\n      tag_417\n        /* \"#utility.yul\":13669:13675   */\n      dup5\n        /* \"#utility.yul\":13589:13676   */\n      tag_236\n      jump\t// in\n    tag_417:\n        /* \"#utility.yul\":13573:13677   */\n      tag_226\n      jump\t// in\n    tag_416:\n        /* \"#utility.yul\":13564:13677   */\n      swap1\n      pop\n        /* \"#utility.yul\":13697:13702   */\n      dup1\n        /* \"#utility.yul\":13726:13732   */\n      dup4\n        /* \"#utility.yul\":13719:13724   */\n      dup3\n        /* \"#utility.yul\":13712:13733   */\n      mstore\n        /* \"#utility.yul\":13760:13764   */\n      0x20\n        /* \"#utility.yul\":13753:13758   */\n      dup3\n        /* \"#utility.yul\":13749:13765   */\n      add\n        /* \"#utility.yul\":13742:13765   */\n      swap1\n      pop\n        /* \"#utility.yul\":13813:13817   */\n      0x20\n        /* \"#utility.yul\":13805:13811   */\n      dup5\n        /* \"#utility.yul\":13801:13818   */\n      mul\n        /* \"#utility.yul\":13793:13799   */\n      dup4\n        /* \"#utility.yul\":13789:13819   */\n      add\n        /* \"#utility.yul\":13842:13845   */\n      dup6\n        /* \"#utility.yul\":13834:13840   */\n      dup2\n        /* \"#utility.yul\":13831:13846   */\n      gt\n        /* \"#utility.yul\":13828:13950   */\n      iszero\n      tag_418\n      jumpi\n        /* \"#utility.yul\":13861:13940   */\n      tag_419\n      tag_232\n      jump\t// in\n    tag_419:\n        /* \"#utility.yul\":13828:13950   */\n    tag_418:\n        /* \"#utility.yul\":13976:13982   */\n      dup4\n        /* \"#utility.yul\":13959:14407   */\n    tag_420:\n        /* \"#utility.yul\":13993:13999   */\n      dup2\n        /* \"#utility.yul\":13988:13991   */\n      dup2\n        /* \"#utility.yul\":13985:14000   */\n      lt\n        /* \"#utility.yul\":13959:14407   */\n      iszero\n      tag_422\n      jumpi\n        /* \"#utility.yul\":14082:14085   */\n      dup1\n        /* \"#utility.yul\":14069:14086   */\n      calldataload\n        /* \"#utility.yul\":14118:14136   */\n      0xffffffffffffffff\n        /* \"#utility.yul\":14105:14116   */\n      dup2\n        /* \"#utility.yul\":14102:14137   */\n      gt\n        /* \"#utility.yul\":14099:14221   */\n      iszero\n      tag_423\n      jumpi\n        /* \"#utility.yul\":14140:14219   */\n      tag_424\n      tag_223\n      jump\t// in\n    tag_424:\n        /* \"#utility.yul\":14099:14221   */\n    tag_423:\n        /* \"#utility.yul\":14264:14275   */\n      dup1\n        /* \"#utility.yul\":14256:14262   */\n      dup7\n        /* \"#utility.yul\":14252:14276   */\n      add\n        /* \"#utility.yul\":14302:14362   */\n      tag_425\n        /* \"#utility.yul\":14358:14361   */\n      dup10\n        /* \"#utility.yul\":14346:14356   */\n      dup3\n        /* \"#utility.yul\":14302:14362   */\n      tag_242\n      jump\t// in\n    tag_425:\n        /* \"#utility.yul\":14297:14300   */\n      dup6\n        /* \"#utility.yul\":14290:14363   */\n      mstore\n        /* \"#utility.yul\":14392:14396   */\n      0x20\n        /* \"#utility.yul\":14387:14390   */\n      dup6\n        /* \"#utility.yul\":14383:14397   */\n      add\n        /* \"#utility.yul\":14376:14397   */\n      swap5\n      pop\n        /* \"#utility.yul\":14035:14407   */\n      pop\n      pop\n        /* \"#utility.yul\":14019:14023   */\n      0x20\n        /* \"#utility.yul\":14014:14017   */\n      dup2\n        /* \"#utility.yul\":14010:14024   */\n      add\n        /* \"#utility.yul\":14003:14024   */\n      swap1\n      pop\n        /* \"#utility.yul\":13959:14407   */\n      jump(tag_420)\n    tag_422:\n        /* \"#utility.yul\":13963:13984   */\n      pop\n        /* \"#utility.yul\":13554:14413   */\n      pop\n      pop\n        /* \"#utility.yul\":13429:14413   */\n      swap4\n      swap3\n      pop\n      pop\n      pop\n      jump\t// out\n        /* \"#utility.yul\":14452:14868   */\n    tag_244:\n        /* \"#utility.yul\":14546:14551   */\n      0x00\n        /* \"#utility.yul\":14595:14598   */\n      dup3\n        /* \"#utility.yul\":14588:14592   */\n      0x1f\n        /* \"#utility.yul\":14580:14586   */\n      dup4\n        /* \"#utility.yul\":14576:14593   */\n      add\n        /* \"#utility.yul\":14572:14599   */\n      slt\n        /* \"#utility.yul\":14562:14684   */\n      tag_427\n      jumpi\n        /* \"#utility.yul\":14603:14682   */\n      tag_428\n      tag_223\n      jump\t// in\n    tag_428:\n        /* \"#utility.yul\":14562:14684   */\n    tag_427:\n        /* \"#utility.yul\":14720:14726   */\n      dup2\n        /* \"#utility.yul\":14707:14727   */\n      calldataload\n        /* \"#utility.yul\":14745:14862   */\n      tag_429\n        /* \"#utility.yul\":14858:14861   */\n      dup5\n        /* \"#utility.yul\":14850:14856   */\n      dup3\n        /* \"#utility.yul\":14843:14847   */\n      0x20\n        /* \"#utility.yul\":14835:14841   */\n      dup7\n        /* \"#utility.yul\":14831:14848   */\n      add\n        /* \"#utility.yul\":14745:14862   */\n      tag_243\n      jump\t// in\n    tag_429:\n        /* \"#utility.yul\":14736:14862   */\n      swap2\n      pop\n        /* \"#utility.yul\":14552:14868   */\n      pop\n        /* \"#utility.yul\":14452:14868   */\n      swap3\n      swap2\n      pop\n      pop\n      jump\t// out\n        /* \"#utility.yul\":14874:15459   */\n    tag_30:\n        /* \"#utility.yul\":14981:14987   */\n      0x00\n        /* \"#utility.yul\":15030:15032   */\n      0x20\n        /* \"#utility.yul\":15018:15027   */\n      dup3\n        /* \"#utility.yul\":15009:15016   */\n      dup5\n        /* \"#utility.yul\":15005:15028   */\n      sub\n        /* \"#utility.yul\":15001:15033   */\n      slt\n        /* \"#utility.yul\":14998:15117   */\n      iszero\n      tag_431\n      jumpi\n        /* \"#utility.yul\":15036:15115   */\n      tag_432\n      tag_221\n      jump\t// in\n    tag_432:\n        /* \"#utility.yul\":14998:15117   */\n    tag_431:\n        /* \"#utility.yul\":15184:15185   */\n      0x00\n        /* \"#utility.yul\":15173:15182   */\n      dup3\n        /* \"#utility.yul\":15169:15186   */\n      add\n        /* \"#utility.yul\":15156:15187   */\n      calldataload\n        /* \"#utility.yul\":15214:15232   */\n      0xffffffffffffffff\n        /* \"#utility.yul\":15206:15212   */\n      dup2\n        /* \"#utility.yul\":15203:15233   */\n      gt\n        /* \"#utility.yul\":15200:15317   */\n      iszero\n      tag_433\n      jumpi\n        /* \"#utility.yul\":15236:15315   */\n      tag_434\n      tag_222\n      jump\t// in\n    tag_434:\n        /* \"#utility.yul\":15200:15317   */\n    tag_433:\n        /* \"#utility.yul\":15341:15442   */\n      tag_435\n        /* \"#utility.yul\":15434:15441   */\n      dup5\n        /* \"#utility.yul\":15425:15431   */\n      dup3\n        /* \"#utility.yul\":15414:15423   */\n      dup6\n        /* \"#utility.yul\":15410:15432   */\n      add\n        /* \"#utility.yul\":15341:15442   */\n      tag_244\n      jump\t// in\n    tag_435:\n        /* \"#utility.yul\":15331:15442   */\n      swap2\n      pop\n        /* \"#utility.yul\":15127:15452   */\n      pop\n        /* \"#utility.yul\":14874:15459   */\n      swap3\n      swap2\n      pop\n      pop\n      jump\t// out\n        /* \"#utility.yul\":15465:15589   */\n    tag_245:\n        /* \"#utility.yul\":15542:15548   */\n      0x00\n        /* \"#utility.yul\":15576:15581   */\n      dup2\n        /* \"#utility.yul\":15570:15582   */\n      mload\n        /* \"#utility.yul\":15560:15582   */\n      swap1\n      pop\n        /* \"#utility.yul\":15465:15589   */\n      swap2\n      swap1\n      pop\n      jump\t// out\n        /* \"#utility.yul\":15595:15789   */\n    tag_246:\n        /* \"#utility.yul\":15704:15715   */\n      0x00\n        /* \"#utility.yul\":15738:15744   */\n      dup3\n        /* \"#utility.yul\":15733:15736   */\n      dup3\n        /* \"#utility.yul\":15726:15745   */\n      mstore\n        /* \"#utility.yul\":15778:15782   */\n      0x20\n        /* \"#utility.yul\":15773:15776   */\n      dup3\n        /* \"#utility.yul\":15769:15783   */\n      add\n        /* \"#utility.yul\":15754:15783   */\n      swap1\n      pop\n        /* \"#utility.yul\":15595:15789   */\n      swap3\n      swap2\n      pop\n      pop\n      jump\t// out\n        /* \"#utility.yul\":15795:15937   */\n    tag_247:\n        /* \"#utility.yul\":15872:15876   */\n      0x00\n        /* \"#utility.yul\":15895:15898   */\n      dup2\n        /* \"#utility.yul\":15887:15898   */\n      swap1\n      pop\n        /* \"#utility.yul\":15925:15929   */\n      0x20\n        /* \"#utility.yul\":15920:15923   */\n      dup3\n        /* \"#utility.yul\":15916:15930   */\n      add\n        /* \"#utility.yul\":15908:15930   */\n      swap1\n      pop\n        /* \"#utility.yul\":15795:15937   */\n      swap2\n      swap1\n      pop\n      jump\t// out\n        /* \"#utility.yul\":15943:16139   */\n    tag_248:\n        /* \"#utility.yul\":16032:16042   */\n      0x00\n        /* \"#utility.yul\":16067:16133   */\n      tag_440\n        /* \"#utility.yul\":16129:16132   */\n      dup4\n        /* \"#utility.yul\":16121:16127   */\n      dup4\n        /* \"#utility.yul\":16067:16133   */\n      tag_215\n      jump\t// in\n    tag_440:\n        /* \"#utility.yul\":16053:16133   */\n      swap1\n      pop\n        /* \"#utility.yul\":15943:16139   */\n      swap3\n      swap2\n      pop\n      pop\n      jump\t// out\n        /* \"#utility.yul\":16145:16268   */\n    tag_249:\n        /* \"#utility.yul\":16225:16229   */\n      0x00\n        /* \"#utility.yul\":16257:16261   */\n      0x20\n        /* \"#utility.yul\":16252:16255   */\n      dup3\n        /* \"#utility.yul\":16248:16262   */\n      add\n        /* \"#utility.yul\":16240:16262   */\n      swap1\n      pop\n        /* \"#utility.yul\":16145:16268   */\n      swap2\n      swap1\n      pop\n      jump\t// out\n        /* \"#utility.yul\":16302:17293   */\n    tag_250:\n        /* \"#utility.yul\":16441:16444   */\n      0x00\n        /* \"#utility.yul\":16470:16534   */\n      tag_443\n        /* \"#utility.yul\":16528:16533   */\n      dup3\n        /* \"#utility.yul\":16470:16534   */\n      tag_245\n      jump\t// in\n    tag_443:\n        /* \"#utility.yul\":16550:16646   */\n      tag_444\n        /* \"#utility.yul\":16639:16645   */\n      dup2\n        /* \"#utility.yul\":16634:16637   */\n      dup6\n        /* \"#utility.yul\":16550:16646   */\n      tag_246\n      jump\t// in\n    tag_444:\n        /* \"#utility.yul\":16543:16646   */\n      swap4\n      pop\n        /* \"#utility.yul\":16672:16675   */\n      dup4\n        /* \"#utility.yul\":16717:16721   */\n      0x20\n        /* \"#utility.yul\":16709:16715   */\n      dup3\n        /* \"#utility.yul\":16705:16722   */\n      mul\n        /* \"#utility.yul\":16700:16703   */\n      dup6\n        /* \"#utility.yul\":16696:16723   */\n      add\n        /* \"#utility.yul\":16747:16813   */\n      tag_445\n        /* \"#utility.yul\":16807:16812   */\n      dup6\n        /* \"#utility.yul\":16747:16813   */\n      tag_247\n      jump\t// in\n    tag_445:\n        /* \"#utility.yul\":16836:16843   */\n      dup1\n        /* \"#utility.yul\":16867:16868   */\n      0x00\n        /* \"#utility.yul\":16852:17248   */\n    tag_446:\n        /* \"#utility.yul\":16877:16883   */\n      dup6\n        /* \"#utility.yul\":16874:16875   */\n      dup2\n        /* \"#utility.yul\":16871:16884   */\n      lt\n        /* \"#utility.yul\":16852:17248   */\n      iszero\n      tag_448\n      jumpi\n        /* \"#utility.yul\":16948:16957   */\n      dup5\n        /* \"#utility.yul\":16942:16946   */\n      dup5\n        /* \"#utility.yul\":16938:16958   */\n      sub\n        /* \"#utility.yul\":16933:16936   */\n      dup10\n        /* \"#utility.yul\":16926:16959   */\n      mstore\n        /* \"#utility.yul\":16999:17005   */\n      dup2\n        /* \"#utility.yul\":16993:17006   */\n      mload\n        /* \"#utility.yul\":17027:17111   */\n      tag_449\n        /* \"#utility.yul\":17106:17110   */\n      dup6\n        /* \"#utility.yul\":17091:17104   */\n      dup3\n        /* \"#utility.yul\":17027:17111   */\n      tag_248\n      jump\t// in\n    tag_449:\n        /* \"#utility.yul\":17019:17111   */\n      swap5\n      pop\n        /* \"#utility.yul\":17134:17204   */\n      tag_450\n        /* \"#utility.yul\":17197:17203   */\n      dup4\n        /* \"#utility.yul\":17134:17204   */\n      tag_249\n      jump\t// in\n    tag_450:\n        /* \"#utility.yul\":17124:17204   */\n      swap3\n      pop\n        /* \"#utility.yul\":17233:17237   */\n      0x20\n        /* \"#utility.yul\":17228:17231   */\n      dup11\n        /* \"#utility.yul\":17224:17238   */\n      add\n        /* \"#utility.yul\":17217:17238   */\n      swap10\n      pop\n        /* \"#utility.yul\":16912:17248   */\n      pop\n        /* \"#utility.yul\":16899:16900   */\n      0x01\n        /* \"#utility.yul\":16896:16897   */\n      dup2\n        /* \"#utility.yul\":16892:16901   */\n      add\n        /* \"#utility.yul\":16887:16901   */\n      swap1\n      pop\n        /* \"#utility.yul\":16852:17248   */\n      jump(tag_446)\n    tag_448:\n        /* \"#utility.yul\":16856:16870   */\n      pop\n        /* \"#utility.yul\":17264:17268   */\n      dup3\n        /* \"#utility.yul\":17257:17268   */\n      swap8\n      pop\n        /* \"#utility.yul\":17284:17287   */\n      dup8\n        /* \"#utility.yul\":17277:17287   */\n      swap6\n      pop\n        /* \"#utility.yul\":16446:17293   */\n      pop\n      pop\n      pop\n      pop\n      pop\n        /* \"#utility.yul\":16302:17293   */\n      swap3\n      swap2\n      pop\n      pop\n      jump\t// out\n        /* \"#utility.yul\":17299:17712   */\n    tag_35:\n        /* \"#utility.yul\":17462:17466   */\n      0x00\n        /* \"#utility.yul\":17500:17502   */\n      0x20\n        /* \"#utility.yul\":17489:17498   */\n      dup3\n        /* \"#utility.yul\":17485:17503   */\n      add\n        /* \"#utility.yul\":17477:17503   */\n      swap1\n      pop\n        /* \"#utility.yul\":17549:17558   */\n      dup2\n        /* \"#utility.yul\":17543:17547   */\n      dup2\n        /* \"#utility.yul\":17539:17559   */\n      sub\n        /* \"#utility.yul\":17535:17536   */\n      0x00\n        /* \"#utility.yul\":17524:17533   */\n      dup4\n        /* \"#utility.yul\":17520:17537   */\n      add\n        /* \"#utility.yul\":17513:17560   */\n      mstore\n        /* \"#utility.yul\":17577:17705   */\n      tag_452\n        /* \"#utility.yul\":17700:17704   */\n      dup2\n        /* \"#utility.yul\":17691:17697   */\n      dup5\n        /* \"#utility.yul\":17577:17705   */\n      tag_250\n      jump\t// in\n    tag_452:\n        /* \"#utility.yul\":17569:17705   */\n      swap1\n      pop\n        /* \"#utility.yul\":17299:17712   */\n      swap3\n      swap2\n      pop\n      pop\n      jump\t// out\n        /* \"#utility.yul\":17718:18570   */\n    tag_38:\n        /* \"#utility.yul\":17815:17821   */\n      0x00\n        /* \"#utility.yul\":17823:17829   */\n      dup1\n        /* \"#utility.yul\":17872:17874   */\n      0x40\n        /* \"#utility.yul\":17860:17869   */\n      dup4\n        /* \"#utility.yul\":17851:17858   */\n      dup6\n        /* \"#utility.yul\":17847:17870   */\n      sub\n        /* \"#utility.yul\":17843:17875   */\n      slt\n        /* \"#utility.yul\":17840:17959   */\n      iszero\n      tag_454\n      jumpi\n        /* \"#utility.yul\":17878:17957   */\n      tag_455\n      tag_221\n      jump\t// in\n    tag_455:\n        /* \"#utility.yul\":17840:17959   */\n    tag_454:\n        /* \"#utility.yul\":18026:18027   */\n      0x00\n        /* \"#utility.yul\":18015:18024   */\n      dup4\n        /* \"#utility.yul\":18011:18028   */\n      add\n        /* \"#utility.yul\":17998:18029   */\n      calldataload\n        /* \"#utility.yul\":18056:18074   */\n      0xffffffffffffffff\n        /* \"#utility.yul\":18048:18054   */\n      dup2\n        /* \"#utility.yul\":18045:18075   */\n      gt\n        /* \"#utility.yul\":18042:18159   */\n      iszero\n      tag_456\n      jumpi\n        /* \"#utility.yul\":18078:18157   */\n      tag_457\n      tag_222\n      jump\t// in\n    tag_457:\n        /* \"#utility.yul\":18042:18159   */\n    tag_456:\n        /* \"#utility.yul\":18183:18246   */\n      tag_458\n        /* \"#utility.yul\":18238:18245   */\n      dup6\n        /* \"#utility.yul\":18229:18235   */\n      dup3\n        /* \"#utility.yul\":18218:18227   */\n      dup7\n        /* \"#utility.yul\":18214:18236   */\n      add\n        /* \"#utility.yul\":18183:18246   */\n      tag_230\n      jump\t// in\n    tag_458:\n        /* \"#utility.yul\":18173:18246   */\n      swap3\n      pop\n        /* \"#utility.yul\":17969:18256   */\n      pop\n        /* \"#utility.yul\":18323:18325   */\n      0x20\n        /* \"#utility.yul\":18312:18321   */\n      dup4\n        /* \"#utility.yul\":18308:18326   */\n      add\n        /* \"#utility.yul\":18295:18327   */\n      calldataload\n        /* \"#utility.yul\":18354:18372   */\n      0xffffffffffffffff\n        /* \"#utility.yul\":18346:18352   */\n      dup2\n        /* \"#utility.yul\":18343:18373   */\n      gt\n        /* \"#utility.yul\":18340:18457   */\n      iszero\n      tag_459\n      jumpi\n        /* \"#utility.yul\":18376:18455   */\n      tag_460\n      tag_222\n      jump\t// in\n    tag_460:\n        /* \"#utility.yul\":18340:18457   */\n    tag_459:\n        /* \"#utility.yul\":18481:18553   */\n      tag_461\n        /* \"#utility.yul\":18545:18552   */\n      dup6\n        /* \"#utility.yul\":18536:18542   */\n      dup3\n        /* \"#utility.yul\":18525:18534   */\n      dup7\n        /* \"#utility.yul\":18521:18543   */\n      add\n        /* \"#utility.yul\":18481:18553   */\n      tag_241\n      jump\t// in\n    tag_461:\n        /* \"#utility.yul\":18471:18553   */\n      swap2\n      pop\n        /* \"#utility.yul\":18266:18563   */\n      pop\n        /* \"#utility.yul\":17718:18570   */\n      swap3\n      pop\n      swap3\n      swap1\n      pop\n      jump\t// out\n        /* \"#utility.yul\":18576:18756   */\n    tag_54:\n        /* \"#utility.yul\":18624:18701   */\n      0x4e487b7100000000000000000000000000000000000000000000000000000000\n        /* \"#utility.yul\":18621:18622   */\n      0x00\n        /* \"#utility.yul\":18614:18702   */\n      mstore\n        /* \"#utility.yul\":18721:18725   */\n      0x32\n        /* \"#utility.yul\":18718:18719   */\n      0x04\n        /* \"#utility.yul\":18711:18726   */\n      mstore\n        /* \"#utility.yul\":18745:18749   */\n      0x24\n        /* \"#utility.yul\":18742:18743   */\n      0x00\n        /* \"#utility.yul\":18735:18750   */\n      revert\n        /* \"#utility.yul\":18762:18942   */\n    tag_251:\n        /* \"#utility.yul\":18810:18887   */\n      0x4e487b7100000000000000000000000000000000000000000000000000000000\n        /* \"#utility.yul\":18807:18808   */\n      0x00\n        /* \"#utility.yul\":18800:18888   */\n      mstore\n        /* \"#utility.yul\":18907:18911   */\n      0x22\n        /* \"#utility.yul\":18904:18905   */\n      0x04\n        /* \"#utility.yul\":18897:18912   */\n      mstore\n        /* \"#utility.yul\":18931:18935   */\n      0x24\n        /* \"#utility.yul\":18928:18929   */\n      0x00\n        /* \"#utility.yul\":18921:18936   */\n      revert\n        /* \"#utility.yul\":18948:19268   */\n    tag_57:\n        /* \"#utility.yul\":18992:18998   */\n      0x00\n        /* \"#utility.yul\":19029:19030   */\n      0x02\n        /* \"#utility.yul\":19023:19027   */\n      dup3\n        /* \"#utility.yul\":19019:19031   */\n      div\n        /* \"#utility.yul\":19009:19031   */\n      swap1\n      pop\n        /* \"#utility.yul\":19076:19077   */\n      0x01\n        /* \"#utility.yul\":19070:19074   */\n      dup3\n        /* \"#utility.yul\":19066:19078   */\n      and\n        /* \"#utility.yul\":19097:19115   */\n      dup1\n        /* \"#utility.yul\":19087:19168   */\n      tag_465\n      jumpi\n        /* \"#utility.yul\":19153:19157   */\n      0x7f\n        /* \"#utility.yul\":19145:19151   */\n      dup3\n        /* \"#utility.yul\":19141:19158   */\n      and\n        /* \"#utility.yul\":19131:19158   */\n      swap2\n      pop\n        /* \"#utility.yul\":19087:19168   */\n    tag_465:\n        /* \"#utility.yul\":19215:19217   */\n      0x20\n        /* \"#utility.yul\":19207:19213   */\n      dup3\n        /* \"#utility.yul\":19204:19218   */\n      lt\n        /* \"#utility.yul\":19184:19202   */\n      dup2\n        /* \"#utility.yul\":19181:19219   */\n      sub\n        /* \"#utility.yul\":19178:19262   */\n      tag_466\n      jumpi\n        /* \"#utility.yul\":19234:19252   */\n      tag_467\n      tag_251\n      jump\t// in\n    tag_467:\n        /* \"#utility.yul\":19178:19262   */\n    tag_466:\n        /* \"#utility.yul\":18999:19268   */\n      pop\n        /* \"#utility.yul\":18948:19268   */\n      swap2\n      swap1\n      pop\n      jump\t// out\n        /* \"#utility.yul\":19274:19454   */\n    tag_252:\n        /* \"#utility.yul\":19322:19399   */\n      0x4e487b7100000000000000000000000000000000000000000000000000000000\n        /* \"#utility.yul\":19319:19320   */\n      0x00\n        /* \"#utility.yul\":19312:19400   */\n      mstore\n        /* \"#utility.yul\":19419:19423   */\n      0x11\n        /* \"#utility.yul\":19416:19417   */\n      0x04\n        /* \"#utility.yul\":19409:19424   */\n      mstore\n        /* \"#utility.yul\":19443:19447   */\n      0x24\n        /* \"#utility.yul\":19440:19441   */\n      0x00\n        /* \"#utility.yul\":19433:19448   */\n      revert\n        /* \"#utility.yul\":19460:19537   */\n    tag_253:\n        /* \"#utility.yul\":19497:19504   */\n      0x00\n        /* \"#utility.yul\":19526:19531   */\n      dup2\n        /* \"#utility.yul\":19515:19531   */\n      swap1\n      pop\n        /* \"#utility.yul\":19460:19537   */\n      swap2\n      swap1\n      pop\n      jump\t// out\n        /* \"#utility.yul\":19543:19776   */\n    tag_66:\n        /* \"#utility.yul\":19582:19585   */\n      0x00\n        /* \"#utility.yul\":19605:19629   */\n      tag_471\n        /* \"#utility.yul\":19623:19628   */\n      dup3\n        /* \"#utility.yul\":19605:19629   */\n      tag_253\n      jump\t// in\n    tag_471:\n        /* \"#utility.yul\":19596:19629   */\n      swap2\n      pop\n        /* \"#utility.yul\":19651:19717   */\n      0xffffffffffffffffffffffffffffffffffffffffffffffffffffffffffffffff\n        /* \"#utility.yul\":19644:19649   */\n      dup3\n        /* \"#utility.yul\":19641:19718   */\n      sub\n        /* \"#utility.yul\":19638:19741   */\n      tag_472\n      jumpi\n        /* \"#utility.yul\":19721:19739   */\n      tag_473\n      tag_252\n      jump\t// in\n    tag_473:\n        /* \"#utility.yul\":19638:19741   */\n    tag_472:\n        /* \"#utility.yul\":19768:19769   */\n      0x01\n        /* \"#utility.yul\":19761:19766   */\n      dup3\n        /* \"#utility.yul\":19757:19770   */\n      add\n        /* \"#utility.yul\":19750:19770   */\n      swap1\n      pop\n        /* \"#utility.yul\":19543:19776   */\n      swap2\n      swap1\n      pop\n      jump\t// out\n        /* \"#utility.yul\":19782:19951   */\n    tag_254:\n        /* \"#utility.yul\":19866:19877   */\n      0x00\n        /* \"#utility.yul\":19900:19906   */\n      dup3\n        /* \"#utility.yul\":19895:19898   */\n      dup3\n        /* \"#utility.yul\":19888:19907   */\n      mstore\n        /* \"#utility.yul\":19940:19944   */\n      0x20\n        /* \"#utility.yul\":19935:19938   */\n      dup3\n        /* \"#utility.yul\":19931:19945   */\n      add\n        /* \"#utility.yul\":19916:19945   */\n      swap1\n      pop\n        /* \"#utility.yul\":19782:19951   */\n      swap3\n      swap2\n      pop\n      pop\n      jump\t// out\n        /* \"#utility.yul\":19957:20114   */\n    tag_255:\n        /* \"#utility.yul\":20097:20106   */\n      0x4e4f5f4b45595300000000000000000000000000000000000000000000000000\n        /* \"#utility.yul\":20093:20094   */\n      0x00\n        /* \"#utility.yul\":20085:20091   */\n      dup3\n        /* \"#utility.yul\":20081:20095   */\n      add\n        /* \"#utility.yul\":20074:20107   */\n      mstore\n        /* \"#utility.yul\":19957:20114   */\n      pop\n      jump\t// out\n        /* \"#utility.yul\":20120:20485   */\n    tag_256:\n        /* \"#utility.yul\":20262:20265   */\n      0x00\n        /* \"#utility.yul\":20283:20349   */\n      tag_477\n        /* \"#utility.yul\":20347:20348   */\n      0x07\n        /* \"#utility.yul\":20342:20345   */\n      dup4\n        /* \"#utility.yul\":20283:20349   */\n      tag_254\n      jump\t// in\n    tag_477:\n        /* \"#utility.yul\":20276:20349   */\n      swap2\n      pop\n        /* \"#utility.yul\":20358:20451   */\n      tag_478\n        /* \"#utility.yul\":20447:20450   */\n      dup3\n        /* \"#utility.yul\":20358:20451   */\n      tag_255\n      jump\t// in\n    tag_478:\n        /* \"#utility.yul\":20476:20478   */\n      0x20\n        /* \"#utility.yul\":20471:20474   */\n      dup3\n        /* \"#utility.yul\":20467:20479   */\n      add\n        /* \"#utility.yul\":20460:20479   */\n      swap1\n      pop\n        /* \"#utility.yul\":20120:20485   */\n      swap2\n      swap1\n      pop\n      jump\t// out\n        /* \"#utility.yul\":20491:20910   */\n    tag_73:\n        /* \"#utility.yul\":20657:20661   */\n      0x00\n        /* \"#utility.yul\":20695:20697   */\n      0x20\n        /* \"#utility.yul\":20684:20693   */\n      dup3\n        /* \"#utility.yul\":20680:20698   */\n      add\n        /* \"#utility.yul\":20672:20698   */\n      swap1\n      pop\n        /* \"#utility.yul\":20744:20753   */\n      dup2\n        /* \"#utility.yul\":20738:20742   */\n      dup2\n        /* \"#utility.yul\":20734:20754   */\n      sub\n        /* \"#utility.yul\":20730:20731   */\n      0x00\n        /* \"#utility.yul\":20719:20728   */\n      dup4\n        /* \"#utility.yul\":20715:20732   */\n      add\n        /* \"#utility.yul\":20708:20755   */\n      mstore\n        /* \"#utility.yul\":20772:20903   */\n      tag_480\n        /* \"#utility.yul\":20898:20902   */\n      dup2\n        /* \"#utility.yul\":20772:20903   */\n      tag_256\n      jump\t// in\n    tag_480:\n        /* \"#utility.yul\":20764:20903   */\n      swap1\n      pop\n        /* \"#utility.yul\":20491:20910   */\n      swap2\n      swap1\n      pop\n      jump\t// out\n        /* \"#utility.yul\":20916:21073   */\n    tag_257:\n        /* \"#utility.yul\":21056:21065   */\n      0x4e4f5f4441544100000000000000000000000000000000000000000000000000\n        /* \"#utility.yul\":21052:21053   */\n      0x00\n        /* \"#utility.yul\":21044:21050   */\n      dup3\n        /* \"#utility.yul\":21040:21054   */\n      add\n        /* \"#utility.yul\":21033:21066   */\n      mstore\n        /* \"#utility.yul\":20916:21073   */\n      pop\n      jump\t// out\n        /* \"#utility.yul\":21079:21444   */\n    tag_258:\n        /* \"#utility.yul\":21221:21224   */\n      0x00\n        /* \"#utility.yul\":21242:21308   */\n      tag_483\n        /* \"#utility.yul\":21306:21307   */\n      0x07\n        /* \"#utility.yul\":21301:21304   */\n      dup4\n        /* \"#utility.yul\":21242:21308   */\n      tag_254\n      jump\t// in\n    tag_483:\n        /* \"#utility.yul\":21235:21308   */\n      swap2\n      pop\n        /* \"#utility.yul\":21317:21410   */\n      tag_484\n        /* \"#utility.yul\":21406:21409   */\n      dup3\n        /* \"#utility.yul\":21317:21410   */\n      tag_257\n      jump\t// in\n    tag_484:\n        /* \"#utility.yul\":21435:21437   */\n      0x20\n        /* \"#utility.yul\":21430:21433   */\n      dup3\n        /* \"#utility.yul\":21426:21438   */\n      add\n        /* \"#utility.yul\":21419:21438   */\n      swap1\n      pop\n        /* \"#utility.yul\":21079:21444   */\n      swap2\n      swap1\n      pop\n      jump\t// out\n        /* \"#utility.yul\":21450:21869   */\n    tag_87:\n        /* \"#utility.yul\":21616:21620   */\n      0x00\n        /* \"#utility.yul\":21654:21656   */\n      0x20\n        /* \"#utility.yul\":21643:21652   */\n      dup3\n        /* \"#utility.yul\":21639:21657   */\n      add\n        /* \"#utility.yul\":21631:21657   */\n      swap1\n      pop\n        /* \"#utility.yul\":21703:21712   */\n      dup2\n        /* \"#utility.yul\":21697:21701   */\n      dup2\n        /* \"#utility.yul\":21693:21713   */\n      sub\n        /* \"#utility.yul\":21689:21690   */\n      0x00\n        /* \"#utility.yul\":21678:21687   */\n      dup4\n        /* \"#utility.yul\":21674:21691   */\n      add\n        /* \"#utility.yul\":21667:21714   */\n      mstore\n        /* \"#utility.yul\":21731:21862   */\n      tag_486\n        /* \"#utility.yul\":21857:21861   */\n      dup2\n        /* \"#utility.yul\":21731:21862   */\n      tag_258\n      jump\t// in\n    tag_486:\n        /* \"#utility.yul\":21723:21862   */\n      swap1\n      pop\n        /* \"#utility.yul\":21450:21869   */\n      swap2\n      swap1\n      pop\n      jump\t// out\n        /* \"#utility.yul\":21875:22033   */\n    tag_259:\n        /* \"#utility.yul\":22015:22025   */\n      0x4e4f5f56414c5545000000000000000000000000000000000000000000000000\n        /* \"#utility.yul\":22011:22012   */\n      0x00\n        /* \"#utility.yul\":22003:22009   */\n      dup3\n        /* \"#utility.yul\":21999:22013   */\n      add\n        /* \"#utility.yul\":21992:22026   */\n      mstore\n        /* \"#utility.yul\":21875:22033   */\n      pop\n      jump\t// out\n        /* \"#utility.yul\":22039:22404   */\n    tag_260:\n        /* \"#utility.yul\":22181:22184   */\n      0x00\n        /* \"#utility.yul\":22202:22268   */\n      tag_489\n        /* \"#utility.yul\":22266:22267   */\n      0x08\n        /* \"#utility.yul\":22261:22264   */\n      dup4\n        /* \"#utility.yul\":22202:22268   */\n      tag_254\n      jump\t// in\n    tag_489:\n        /* \"#utility.yul\":22195:22268   */\n      swap2\n      pop\n        /* \"#utility.yul\":22277:22370   */\n      tag_490\n        /* \"#utility.yul\":22366:22369   */\n      dup3\n        /* \"#utility.yul\":22277:22370   */\n      tag_259\n      jump\t// in\n    tag_490:\n        /* \"#utility.yul\":22395:22397   */\n      0x20\n        /* \"#utility.yul\":22390:22393   */\n      dup3\n        /* \"#utility.yul\":22386:22398   */\n      add\n        /* \"#utility.yul\":22379:22398   */\n      swap1\n      pop\n        /* \"#utility.yul\":22039:22404   */\n      swap2\n      swap1\n      pop\n      jump\t// out\n        /* \"#utility.yul\":22410:22829   */\n    tag_113:\n        /* \"#utility.yul\":22576:22580   */\n      0x00\n        /* \"#utility.yul\":22614:22616   */\n      0x20\n        /* \"#utility.yul\":22603:22612   */\n      dup3\n        /* \"#utility.yul\":22599:22617   */\n      add\n        /* \"#utility.yul\":22591:22617   */\n      swap1\n      pop\n        /* \"#utility.yul\":22663:22672   */\n      dup2\n        /* \"#utility.yul\":22657:22661   */\n      dup2\n        /* \"#utility.yul\":22653:22673   */\n      sub\n        /* \"#utility.yul\":22649:22650   */\n      0x00\n        /* \"#utility.yul\":22638:22647   */\n      dup4\n        /* \"#utility.yul\":22634:22651   */\n      add\n        /* \"#utility.yul\":22627:22674   */\n      mstore\n        /* \"#utility.yul\":22691:22822   */\n      tag_492\n        /* \"#utility.yul\":22817:22821   */\n      dup2\n        /* \"#utility.yul\":22691:22822   */\n      tag_260\n      jump\t// in\n    tag_492:\n        /* \"#utility.yul\":22683:22822   */\n      swap1\n      pop\n        /* \"#utility.yul\":22410:22829   */\n      swap2\n      swap1\n      pop\n      jump\t// out\n        /* \"#utility.yul\":22835:22983   */\n    tag_261:\n        /* \"#utility.yul\":22937:22948   */\n      0x00\n        /* \"#utility.yul\":22974:22977   */\n      dup2\n        /* \"#utility.yul\":22959:22977   */\n      swap1\n      pop\n        /* \"#utility.yul\":22835:22983   */\n      swap3\n      swap2\n      pop\n      pop\n      jump\t// out\n        /* \"#utility.yul\":22989:23379   */\n    tag_262:\n        /* \"#utility.yul\":23095:23098   */\n      0x00\n        /* \"#utility.yul\":23123:23162   */\n      tag_495\n        /* \"#utility.yul\":23156:23161   */\n      dup3\n        /* \"#utility.yul\":23123:23162   */\n      tag_211\n      jump\t// in\n    tag_495:\n        /* \"#utility.yul\":23178:23267   */\n      tag_496\n        /* \"#utility.yul\":23260:23266   */\n      dup2\n        /* \"#utility.yul\":23255:23258   */\n      dup6\n        /* \"#utility.yul\":23178:23267   */\n      tag_261\n      jump\t// in\n    tag_496:\n        /* \"#utility.yul\":23171:23267   */\n      swap4\n      pop\n        /* \"#utility.yul\":23276:23341   */\n      tag_497\n        /* \"#utility.yul\":23334:23340   */\n      dup2\n        /* \"#utility.yul\":23329:23332   */\n      dup6\n        /* \"#utility.yul\":23322:23326   */\n      0x20\n        /* \"#utility.yul\":23315:23320   */\n      dup7\n        /* \"#utility.yul\":23311:23327   */\n      add\n        /* \"#utility.yul\":23276:23341   */\n      tag_213\n      jump\t// in\n    tag_497:\n        /* \"#utility.yul\":23366:23372   */\n      dup1\n        /* \"#utility.yul\":23361:23364   */\n      dup5\n        /* \"#utility.yul\":23357:23373   */\n      add\n        /* \"#utility.yul\":23350:23373   */\n      swap2\n      pop\n        /* \"#utility.yul\":23099:23379   */\n      pop\n        /* \"#utility.yul\":22989:23379   */\n      swap3\n      swap2\n      pop\n      pop\n      jump\t// out\n        /* \"#utility.yul\":23385:23660   */\n    tag_116:\n        /* \"#utility.yul\":23517:23520   */\n      0x00\n        /* \"#utility.yul\":23539:23634   */\n      tag_499\n        /* \"#utility.yul\":23630:23633   */\n      dup3\n        /* \"#utility.yul\":23621:23627   */\n      dup5\n        /* \"#utility.yul\":23539:23634   */\n      tag_262\n      jump\t// in\n    tag_499:\n        /* \"#utility.yul\":23532:23634   */\n      swap2\n      pop\n        /* \"#utility.yul\":23651:23654   */\n      dup2\n        /* \"#utility.yul\":23644:23654   */\n      swap1\n      pop\n        /* \"#utility.yul\":23385:23660   */\n      swap3\n      swap2\n      pop\n      pop\n      jump\t// out\n        /* \"#utility.yul\":23666:23824   */\n    tag_263:\n        /* \"#utility.yul\":23806:23816   */\n      0x4e4f5f4f574e4552000000000000000000000000000000000000000000000000\n        /* \"#utility.yul\":23802:23803   */\n      0x00\n        /* \"#utility.yul\":23794:23800   */\n      dup3\n        /* \"#utility.yul\":23790:23804   */\n      add\n        /* \"#utility.yul\":23783:23817   */\n      mstore\n        /* \"#utility.yul\":23666:23824   */\n      pop\n      jump\t// out\n        /* \"#utility.yul\":23830:24195   */\n    tag_264:\n        /* \"#utility.yul\":23972:23975   */\n      0x00\n        /* \"#utility.yul\":23993:24059   */\n      tag_502\n        /* \"#utility.yul\":24057:24058   */\n      0x08\n        /* \"#utility.yul\":24052:24055   */\n      dup4\n        /* \"#utility.yul\":23993:24059   */\n      tag_254\n      jump\t// in\n    tag_502:\n        /* \"#utility.yul\":23986:24059   */\n      swap2\n      pop\n        /* \"#utility.yul\":24068:24161   */\n      tag_503\n        /* \"#utility.yul\":24157:24160   */\n      dup3\n        /* \"#utility.yul\":24068:24161   */\n      tag_263\n      jump\t// in\n    tag_503:\n        /* \"#utility.yul\":24186:24188   */\n      0x20\n        /* \"#utility.yul\":24181:24184   */\n      dup3\n        /* \"#utility.yul\":24177:24189   */\n      add\n        /* \"#utility.yul\":24170:24189   */\n      swap1\n      pop\n        /* \"#utility.yul\":23830:24195   */\n      swap2\n      swap1\n      pop\n      jump\t// out\n        /* \"#utility.yul\":24201:24620   */\n    tag_130:\n        /* \"#utility.yul\":24367:24371   */\n      0x00\n        /* \"#utility.yul\":24405:24407   */\n      0x20\n        /* \"#utility.yul\":24394:24403   */\n      dup3\n        /* \"#utility.yul\":24390:24408   */\n      add\n        /* \"#utility.yul\":24382:24408   */\n      swap1\n      pop\n        /* \"#utility.yul\":24454:24463   */\n      dup2\n        /* \"#utility.yul\":24448:24452   */\n      dup2\n        /* \"#utility.yul\":24444:24464   */\n      sub\n        /* \"#utility.yul\":24440:24441   */\n      0x00\n        /* \"#utility.yul\":24429:24438   */\n      dup4\n        /* \"#utility.yul\":24425:24442   */\n      add\n        /* \"#utility.yul\":24418:24465   */\n      mstore\n        /* \"#utility.yul\":24482:24613   */\n      tag_505\n        /* \"#utility.yul\":24608:24612   */\n      dup2\n        /* \"#utility.yul\":24482:24613   */\n      tag_264\n      jump\t// in\n    tag_505:\n        /* \"#utility.yul\":24474:24613   */\n      swap1\n      pop\n        /* \"#utility.yul\":24201:24620   */\n      swap2\n      swap1\n      pop\n      jump\t// out\n        /* \"#utility.yul\":24626:24785   */\n    tag_265:\n        /* \"#utility.yul\":24766:24777   */\n      0x464f5242494444454e0000000000000000000000000000000000000000000000\n        /* \"#utility.yul\":24762:24763   */\n      0x00\n        /* \"#utility.yul\":24754:24760   */\n      dup3\n        /* \"#utility.yul\":24750:24764   */\n      add\n        /* \"#utility.yul\":24743:24778   */\n      mstore\n        /* \"#utility.yul\":24626:24785   */\n      pop\n      jump\t// out\n        /* \"#utility.yul\":24791:25156   */\n    tag_266:\n        /* \"#utility.yul\":24933:24936   */\n      0x00\n        /* \"#utility.yul\":24954:25020   */\n      tag_508\n        /* \"#utility.yul\":25018:25019   */\n      0x09\n        /* \"#utility.yul\":25013:25016   */\n      dup4\n        /* \"#utility.yul\":24954:25020   */\n      tag_254\n      jump\t// in\n    tag_508:\n        /* \"#utility.yul\":24947:25020   */\n      swap2\n      pop\n        /* \"#utility.yul\":25029:25122   */\n      tag_509\n        /* \"#utility.yul\":25118:25121   */\n      dup3\n        /* \"#utility.yul\":25029:25122   */\n      tag_265\n      jump\t// in\n    tag_509:\n        /* \"#utility.yul\":25147:25149   */\n      0x20\n        /* \"#utility.yul\":25142:25145   */\n      dup3\n        /* \"#utility.yul\":25138:25150   */\n      add\n        /* \"#utility.yul\":25131:25150   */\n      swap1\n      pop\n        /* \"#utility.yul\":24791:25156   */\n      swap2\n      swap1\n      pop\n      jump\t// out\n        /* \"#utility.yul\":25162:25581   */\n    tag_134:\n        /* \"#utility.yul\":25328:25332   */\n      0x00\n        /* \"#utility.yul\":25366:25368   */\n      0x20\n        /* \"#utility.yul\":25355:25364   */\n      dup3\n        /* \"#utility.yul\":25351:25369   */\n      add\n        /* \"#utility.yul\":25343:25369   */\n      swap1\n      pop\n        /* \"#utility.yul\":25415:25424   */\n      dup2\n        /* \"#utility.yul\":25409:25413   */\n      dup2\n        /* \"#utility.yul\":25405:25425   */\n      sub\n        /* \"#utility.yul\":25401:25402   */\n      0x00\n        /* \"#utility.yul\":25390:25399   */\n      dup4\n        /* \"#utility.yul\":25386:25403   */\n      add\n        /* \"#utility.yul\":25379:25426   */\n      mstore\n        /* \"#utility.yul\":25443:25574   */\n      tag_511\n        /* \"#utility.yul\":25569:25573   */\n      dup2\n        /* \"#utility.yul\":25443:25574   */\n      tag_266\n      jump\t// in\n    tag_511:\n        /* \"#utility.yul\":25435:25574   */\n      swap1\n      pop\n        /* \"#utility.yul\":25162:25581   */\n      swap2\n      swap1\n      pop\n      jump\t// out\n        /* \"#utility.yul\":25587:25728   */\n    tag_267:\n        /* \"#utility.yul\":25636:25640   */\n      0x00\n        /* \"#utility.yul\":25659:25662   */\n      dup2\n        /* \"#utility.yul\":25651:25662   */\n      swap1\n      pop\n        /* \"#utility.yul\":25682:25685   */\n      dup2\n        /* \"#utility.yul\":25679:25680   */\n      0x00\n        /* \"#utility.yul\":25672:25686   */\n      mstore\n        /* \"#utility.yul\":25716:25720   */\n      0x20\n        /* \"#utility.yul\":25713:25714   */\n      0x00\n        /* \"#utility.yul\":25703:25721   */\n      keccak256\n        /* \"#utility.yul\":25695:25721   */\n      swap1\n      pop\n        /* \"#utility.yul\":25587:25728   */\n      swap2\n      swap1\n      pop\n      jump\t// out\n        /* \"#utility.yul\":25758:26632   */\n    tag_268:\n        /* \"#utility.yul\":25861:25864   */\n      0x00\n        /* \"#utility.yul\":25898:25903   */\n      dup2\n        /* \"#utility.yul\":25892:25904   */\n      sload\n        /* \"#utility.yul\":25927:25963   */\n      tag_514\n        /* \"#utility.yul\":25953:25962   */\n      dup2\n        /* \"#utility.yul\":25927:25963   */\n      tag_57\n      jump\t// in\n    tag_514:\n        /* \"#utility.yul\":25979:26068   */\n      tag_515\n        /* \"#utility.yul\":26061:26067   */\n      dup2\n        /* \"#utility.yul\":26056:26059   */\n      dup7\n        /* \"#utility.yul\":25979:26068   */\n      tag_261\n      jump\t// in\n    tag_515:\n        /* \"#utility.yul\":25972:26068   */\n      swap5\n      pop\n        /* \"#utility.yul\":26099:26100   */\n      0x01\n        /* \"#utility.yul\":26088:26097   */\n      dup3\n        /* \"#utility.yul\":26084:26101   */\n      and\n        /* \"#utility.yul\":26115:26116   */\n      0x00\n        /* \"#utility.yul\":26110:26276   */\n      dup2\n      eq\n      tag_517\n      jumpi\n        /* \"#utility.yul\":26290:26291   */\n      0x01\n        /* \"#utility.yul\":26285:26626   */\n      dup2\n      eq\n      tag_518\n      jumpi\n        /* \"#utility.yul\":26077:26626   */\n      jump(tag_516)\n        /* \"#utility.yul\":26110:26276   */\n    tag_517:\n        /* \"#utility.yul\":26194:26198   */\n      0xff\n        /* \"#utility.yul\":26190:26199   */\n      not\n        /* \"#utility.yul\":26179:26188   */\n      dup4\n        /* \"#utility.yul\":26175:26200   */\n      and\n        /* \"#utility.yul\":26170:26173   */\n      dup7\n        /* \"#utility.yul\":26163:26201   */\n      mstore\n        /* \"#utility.yul\":26256:26262   */\n      dup2\n        /* \"#utility.yul\":26249:26263   */\n      iszero\n        /* \"#utility.yul\":26242:26264   */\n      iszero\n        /* \"#utility.yul\":26234:26240   */\n      dup3\n        /* \"#utility.yul\":26230:26265   */\n      mul\n        /* \"#utility.yul\":26225:26228   */\n      dup7\n        /* \"#utility.yul\":26221:26266   */\n      add\n        /* \"#utility.yul\":26214:26266   */\n      swap4\n      pop\n        /* \"#utility.yul\":26110:26276   */\n      jump(tag_516)\n        /* \"#utility.yul\":26285:26626   */\n    tag_518:\n        /* \"#utility.yul\":26352:26390   */\n      tag_519\n        /* \"#utility.yul\":26384:26389   */\n      dup6\n        /* \"#utility.yul\":26352:26390   */\n      tag_267\n      jump\t// in\n    tag_519:\n        /* \"#utility.yul\":26412:26413   */\n      0x00\n        /* \"#utility.yul\":26426:26580   */\n    tag_520:\n        /* \"#utility.yul\":26440:26446   */\n      dup4\n        /* \"#utility.yul\":26437:26438   */\n      dup2\n        /* \"#utility.yul\":26434:26447   */\n      lt\n        /* \"#utility.yul\":26426:26580   */\n      iszero\n      tag_522\n      jumpi\n        /* \"#utility.yul\":26514:26521   */\n      dup2\n        /* \"#utility.yul\":26508:26522   */\n      sload\n        /* \"#utility.yul\":26504:26505   */\n      dup2\n        /* \"#utility.yul\":26499:26502   */\n      dup10\n        /* \"#utility.yul\":26495:26506   */\n      add\n        /* \"#utility.yul\":26488:26523   */\n      mstore\n        /* \"#utility.yul\":26564:26565   */\n      0x01\n        /* \"#utility.yul\":26555:26562   */\n      dup3\n        /* \"#utility.yul\":26551:26566   */\n      add\n        /* \"#utility.yul\":26540:26566   */\n      swap2\n      pop\n        /* \"#utility.yul\":26462:26466   */\n      0x20\n        /* \"#utility.yul\":26459:26460   */\n      dup2\n        /* \"#utility.yul\":26455:26467   */\n      add\n        /* \"#utility.yul\":26450:26467   */\n      swap1\n      pop\n        /* \"#utility.yul\":26426:26580   */\n      jump(tag_520)\n    tag_522:\n        /* \"#utility.yul\":26609:26615   */\n      dup4\n        /* \"#utility.yul\":26604:26607   */\n      dup9\n        /* \"#utility.yul\":26600:26616   */\n      add\n        /* \"#utility.yul\":26593:26616   */\n      swap6\n      pop\n        /* \"#utility.yul\":26292:26626   */\n      pop\n      pop\n        /* \"#utility.yul\":26077:26626   */\n    tag_516:\n      pop\n        /* \"#utility.yul\":25865:26632   */\n      pop\n      pop\n        /* \"#utility.yul\":25758:26632   */\n      swap3\n      swap2\n      pop\n      pop\n      jump\t// out\n        /* \"#utility.yul\":26638:26907   */\n    tag_146:\n        /* \"#utility.yul\":26767:26770   */\n      0x00\n        /* \"#utility.yul\":26789:26881   */\n      tag_524\n        /* \"#utility.yul\":26877:26880   */\n      dup3\n        /* \"#utility.yul\":26868:26874   */\n      dup5\n        /* \"#utility.yul\":26789:26881   */\n      tag_268\n      jump\t// in\n    tag_524:\n        /* \"#utility.yul\":26782:26881   */\n      swap2\n      pop\n        /* \"#utility.yul\":26898:26901   */\n      dup2\n        /* \"#utility.yul\":26891:26901   */\n      swap1\n      pop\n        /* \"#utility.yul\":26638:26907   */\n      swap3\n      swap2\n      pop\n      pop\n      jump\t// out\n        /* \"#utility.yul\":26913:27093   */\n    tag_150:\n        /* \"#utility.yul\":26961:27038   */\n      0x4e487b7100000000000000000000000000000000000000000000000000000000\n        /* \"#utility.yul\":26958:26959   */\n      0x00\n        /* \"#utility.yul\":26951:27039   */\n      mstore\n        /* \"#utility.yul\":27058:27062   */\n      0x31\n        /* \"#utility.yul\":27055:27056   */\n      0x04\n        /* \"#utility.yul\":27048:27063   */\n      mstore\n        /* \"#utility.yul\":27082:27086   */\n      0x24\n        /* \"#utility.yul\":27079:27080   */\n      0x00\n        /* \"#utility.yul\":27072:27087   */\n      revert\n        /* \"#utility.yul\":27099:27293   */\n    tag_158:\n        /* \"#utility.yul\":27139:27143   */\n      0x00\n        /* \"#utility.yul\":27159:27179   */\n      tag_527\n        /* \"#utility.yul\":27177:27178   */\n      dup3\n        /* \"#utility.yul\":27159:27179   */\n      tag_253\n      jump\t// in\n    tag_527:\n        /* \"#utility.yul\":27154:27179   */\n      swap2\n      pop\n        /* \"#utility.yul\":27193:27213   */\n      tag_528\n        /* \"#utility.yul\":27211:27212   */\n      dup4\n        /* \"#utility.yul\":27193:27213   */\n      tag_253\n      jump\t// in\n    tag_528:\n        /* \"#utility.yul\":27188:27213   */\n      swap3\n      pop\n        /* \"#utility.yul\":27237:27238   */\n      dup3\n        /* \"#utility.yul\":27234:27235   */\n      dup3\n        /* \"#utility.yul\":27230:27239   */\n      sub\n        /* \"#utility.yul\":27222:27239   */\n      swap1\n      pop\n        /* \"#utility.yul\":27261:27262   */\n      dup2\n        /* \"#utility.yul\":27255:27259   */\n      dup2\n        /* \"#utility.yul\":27252:27263   */\n      gt\n        /* \"#utility.yul\":27249:27286   */\n      iszero\n      tag_529\n      jumpi\n        /* \"#utility.yul\":27266:27284   */\n      tag_530\n      tag_252\n      jump\t// in\n    tag_530:\n        /* \"#utility.yul\":27249:27286   */\n    tag_529:\n        /* \"#utility.yul\":27099:27293   */\n      swap3\n      swap2\n      pop\n      pop\n      jump\t// out\n        /* \"#utility.yul\":27299:27490   */\n    tag_167:\n        /* \"#utility.yul\":27339:27342   */\n      0x00\n        /* \"#utility.yul\":27358:27378   */\n      tag_532\n        /* \"#utility.yul\":27376:27377   */\n      dup3\n        /* \"#utility.yul\":27358:27378   */\n      tag_253\n      jump\t// in\n    tag_532:\n        /* \"#utility.yul\":27353:27378   */\n      swap2\n      pop\n        /* \"#utility.yul\":27392:27412   */\n      tag_533\n        /* \"#utility.yul\":27410:27411   */\n      dup4\n        /* \"#utility.yul\":27392:27412   */\n      tag_253\n      jump\t// in\n    tag_533:\n        /* \"#utility.yul\":27387:27412   */\n      swap3\n      pop\n        /* \"#utility.yul\":27435:27436   */\n      dup3\n        /* \"#utility.yul\":27432:27433   */\n      dup3\n        /* \"#utility.yul\":27428:27437   */\n      add\n        /* \"#utility.yul\":27421:27437   */\n      swap1\n      pop\n        /* \"#utility.yul\":27456:27459   */\n      dup1\n        /* \"#utility.yul\":27453:27454   */\n      dup3\n        /* \"#utility.yul\":27450:27460   */\n      gt\n        /* \"#utility.yul\":27447:27483   */\n      iszero\n      tag_534\n      jumpi\n        /* \"#utility.yul\":27463:27481   */\n      tag_535\n      tag_252\n      jump\t// in\n    tag_535:\n        /* \"#utility.yul\":27447:27483   */\n    tag_534:\n        /* \"#utility.yul\":27299:27490   */\n      swap3\n      swap2\n      pop\n      pop\n      jump\t// out\n        /* \"#utility.yul\":27496:27649   */\n    tag_269:\n        /* \"#utility.yul\":27549:27555   */\n      0x00\n        /* \"#utility.yul\":27583:27588   */\n      dup2\n        /* \"#utility.yul\":27577:27589   */\n      sload\n        /* \"#utility.yul\":27567:27589   */\n      swap1\n      pop\n        /* \"#utility.yul\":27609:27642   */\n      tag_537\n        /* \"#utility.yul\":27635:27641   */\n      dup2\n        /* \"#utility.yul\":27609:27642   */\n      tag_57\n      jump\t// in\n    tag_537:\n        /* \"#utility.yul\":27599:27642   */\n      swap1\n      pop\n        /* \"#utility.yul\":27496:27649   */\n      swap2\n      swap1\n      pop\n      jump\t// out\n        /* \"#utility.yul\":27655:27800   */\n    tag_270:\n        /* \"#utility.yul\":27708:27712   */\n      0x00\n        /* \"#utility.yul\":27731:27734   */\n      dup2\n        /* \"#utility.yul\":27723:27734   */\n      swap1\n      pop\n        /* \"#utility.yul\":27754:27757   */\n      dup2\n        /* \"#utility.yul\":27751:27752   */\n      0x00\n        /* \"#utility.yul\":27744:27758   */\n      mstore\n        /* \"#utility.yul\":27788:27792   */\n      0x20\n        /* \"#utility.yul\":27785:27786   */\n      0x00\n        /* \"#utility.yul\":27775:27793   */\n      keccak256\n        /* \"#utility.yul\":27767:27793   */\n      swap1\n      pop\n        /* \"#utility.yul\":27655:27800   */\n      swap2\n      swap1\n      pop\n      jump\t// out\n        /* \"#utility.yul\":27806:27899   */\n    tag_271:\n        /* \"#utility.yul\":27843:27849   */\n      0x00\n        /* \"#utility.yul\":27890:27892   */\n      0x20\n        /* \"#utility.yul\":27885:27887   */\n      0x1f\n        /* \"#utility.yul\":27878:27883   */\n      dup4\n        /* \"#utility.yul\":27874:27888   */\n      add\n        /* \"#utility.yul\":27870:27893   */\n      div\n        /* \"#utility.yul\":27860:27893   */\n      swap1\n      pop\n        /* \"#utility.yul\":27806:27899   */\n      swap2\n      swap1\n      pop\n      jump\t// out\n        /* \"#utility.yul\":27905:28012   */\n    tag_272:\n        /* \"#utility.yul\":27949:27957   */\n      0x00\n        /* \"#utility.yul\":27999:28004   */\n      dup3\n        /* \"#utility.yul\":27993:27997   */\n      dup3\n        /* \"#utility.yul\":27989:28005   */\n      shl\n        /* \"#utility.yul\":27968:28005   */\n      swap1\n      pop\n        /* \"#utility.yul\":27905:28012   */\n      swap3\n      swap2\n      pop\n      pop\n      jump\t// out\n        /* \"#utility.yul\":28018:28411   */\n    tag_273:\n        /* \"#utility.yul\":28087:28093   */\n      0x00\n        /* \"#utility.yul\":28137:28138   */\n      0x08\n        /* \"#utility.yul\":28125:28135   */\n      dup4\n        /* \"#utility.yul\":28121:28139   */\n      mul\n        /* \"#utility.yul\":28160:28257   */\n      tag_542\n        /* \"#utility.yul\":28190:28256   */\n      0xffffffffffffffffffffffffffffffffffffffffffffffffffffffffffffffff\n        /* \"#utility.yul\":28179:28188   */\n      dup3\n        /* \"#utility.yul\":28160:28257   */\n      tag_272\n      jump\t// in\n    tag_542:\n        /* \"#utility.yul\":28278:28317   */\n      tag_543\n        /* \"#utility.yul\":28308:28316   */\n      dup7\n        /* \"#utility.yul\":28297:28306   */\n      dup4\n        /* \"#utility.yul\":28278:28317   */\n      tag_272\n      jump\t// in\n    tag_543:\n        /* \"#utility.yul\":28266:28317   */\n      swap6\n      pop\n        /* \"#utility.yul\":28350:28354   */\n      dup1\n        /* \"#utility.yul\":28346:28355   */\n      not\n        /* \"#utility.yul\":28339:28344   */\n      dup5\n        /* \"#utility.yul\":28335:28356   */\n      and\n        /* \"#utility.yul\":28326:28356   */\n      swap4\n      pop\n        /* \"#utility.yul\":28399:28403   */\n      dup1\n        /* \"#utility.yul\":28389:28397   */\n      dup7\n        /* \"#utility.yul\":28385:28404   */\n      and\n        /* \"#utility.yul\":28378:28383   */\n      dup5\n        /* \"#utility.yul\":28375:28405   */\n      or\n        /* \"#utility.yul\":28365:28405   */\n      swap3\n      pop\n        /* \"#utility.yul\":28094:28411   */\n      pop\n      pop\n        /* \"#utility.yul\":28018:28411   */\n      swap4\n      swap3\n      pop\n      pop\n      pop\n      jump\t// out\n        /* \"#utility.yul\":28417:28477   */\n    tag_274:\n        /* \"#utility.yul\":28445:28448   */\n      0x00\n        /* \"#utility.yul\":28466:28471   */\n      dup2\n        /* \"#utility.yul\":28459:28471   */\n      swap1\n      pop\n        /* \"#utility.yul\":28417:28477   */\n      swap2\n      swap1\n      pop\n      jump\t// out\n        /* \"#utility.yul\":28483:28625   */\n    tag_275:\n        /* \"#utility.yul\":28533:28542   */\n      0x00\n        /* \"#utility.yul\":28566:28619   */\n      tag_546\n        /* \"#utility.yul\":28584:28618   */\n      tag_547\n        /* \"#utility.yul\":28593:28617   */\n      tag_548\n        /* \"#utility.yul\":28611:28616   */\n      dup5\n        /* \"#utility.yul\":28593:28617   */\n      tag_253\n      jump\t// in\n    tag_548:\n        /* \"#utility.yul\":28584:28618   */\n      tag_274\n      jump\t// in\n    tag_547:\n        /* \"#utility.yul\":28566:28619   */\n      tag_253\n      jump\t// in\n    tag_546:\n        /* \"#utility.yul\":28553:28619   */\n      swap1\n      pop\n        /* \"#utility.yul\":28483:28625   */\n      swap2\n      swap1\n      pop\n      jump\t// out\n        /* \"#utility.yul\":28631:28706   */\n    tag_276:\n        /* \"#utility.yul\":28674:28677   */\n      0x00\n        /* \"#utility.yul\":28695:28700   */\n      dup2\n        /* \"#utility.yul\":28688:28700   */\n      swap1\n      pop\n        /* \"#utility.yul\":28631:28706   */\n      swap2\n      swap1\n      pop\n      jump\t// out\n        /* \"#utility.yul\":28712:28981   */\n    tag_277:\n        /* \"#utility.yul\":28822:28861   */\n      tag_551\n        /* \"#utility.yul\":28853:28860   */\n      dup4\n        /* \"#utility.yul\":28822:28861   */\n      tag_275\n      jump\t// in\n    tag_551:\n        /* \"#utility.yul\":28883:28974   */\n      tag_552\n        /* \"#utility.yul\":28932:28973   */\n      tag_553\n        /* \"#utility.yul\":28956:28972   */\n      dup3\n        /* \"#utility.yul\":28932:28973   */\n      tag_276\n      jump\t// in\n    tag_553:\n        /* \"#utility.yul\":28924:28930   */\n      dup5\n        /* \"#utility.yul\":28917:28921   */\n      dup5\n        /* \"#utility.yul\":28911:28922   */\n      sload\n        /* \"#utility.yul\":28883:28974   */\n      tag_273\n      jump\t// in\n    tag_552:\n        /* \"#utility.yul\":28877:28881   */\n      dup3\n        /* \"#utility.yul\":28870:28975   */\n      sstore\n        /* \"#utility.yul\":28788:28981   */\n      pop\n        /* \"#utility.yul\":28712:28981   */\n      pop\n      pop\n      pop\n      jump\t// out\n        /* \"#utility.yul\":28987:29060   */\n    tag_278:\n        /* \"#utility.yul\":29032:29035   */\n      0x00\n        /* \"#utility.yul\":28987:29060   */\n      swap1\n      jump\t// out\n        /* \"#utility.yul\":29066:29255   */\n    tag_279:\n        /* \"#utility.yul\":29143:29175   */\n      tag_556\n      tag_278\n      jump\t// in\n    tag_556:\n        /* \"#utility.yul\":29184:29249   */\n      tag_557\n        /* \"#utility.yul\":29242:29248   */\n      dup2\n        /* \"#utility.yul\":29234:29240   */\n      dup5\n        /* \"#utility.yul\":29228:29232   */\n      dup5\n        /* \"#utility.yul\":29184:29249   */\n      tag_277\n      jump\t// in\n    tag_557:\n        /* \"#utility.yul\":29119:29255   */\n      pop\n        /* \"#utility.yul\":29066:29255   */\n      pop\n      pop\n      jump\t// out\n        /* \"#utility.yul\":29261:29447   */\n    tag_280:\n        /* \"#utility.yul\":29321:29441   */\n    tag_559:\n        /* \"#utility.yul\":29338:29341   */\n      dup2\n        /* \"#utility.yul\":29331:29336   */\n      dup2\n        /* \"#utility.yul\":29328:29342   */\n      lt\n        /* \"#utility.yul\":29321:29441   */\n      iszero\n      tag_561\n      jumpi\n        /* \"#utility.yul\":29392:29431   */\n      tag_562\n        /* \"#utility.yul\":29429:29430   */\n      0x00\n        /* \"#utility.yul\":29422:29427   */\n      dup3\n        /* \"#utility.yul\":29392:29431   */\n      tag_279\n      jump\t// in\n    tag_562:\n        /* \"#utility.yul\":29365:29366   */\n      0x01\n        /* \"#utility.yul\":29358:29363   */\n      dup2\n        /* \"#utility.yul\":29354:29367   */\n      add\n        /* \"#utility.yul\":29345:29367   */\n      swap1\n      pop\n        /* \"#utility.yul\":29321:29441   */\n      jump(tag_559)\n    tag_561:\n        /* \"#utility.yul\":29261:29447   */\n      pop\n      pop\n      jump\t// out\n        /* \"#utility.yul\":29453:29996   */\n    tag_281:\n        /* \"#utility.yul\":29554:29556   */\n      0x1f\n        /* \"#utility.yul\":29549:29552   */\n      dup3\n        /* \"#utility.yul\":29546:29557   */\n      gt\n        /* \"#utility.yul\":29543:29989   */\n      iszero\n      tag_564\n      jumpi\n        /* \"#utility.yul\":29588:29626   */\n      tag_565\n        /* \"#utility.yul\":29620:29625   */\n      dup2\n        /* \"#utility.yul\":29588:29626   */\n      tag_267\n      jump\t// in\n    tag_565:\n        /* \"#utility.yul\":29672:29701   */\n      tag_566\n        /* \"#utility.yul\":29690:29700   */\n      dup5\n        /* \"#utility.yul\":29672:29701   */\n      tag_271\n      jump\t// in\n    tag_566:\n        /* \"#utility.yul\":29662:29670   */\n      dup2\n        /* \"#utility.yul\":29658:29702   */\n      add\n        /* \"#utility.yul\":29855:29857   */\n      0x20\n        /* \"#utility.yul\":29843:29853   */\n      dup6\n        /* \"#utility.yul\":29840:29858   */\n      lt\n        /* \"#utility.yul\":29837:29886   */\n      iszero\n      tag_567\n      jumpi\n        /* \"#utility.yul\":29876:29884   */\n      dup2\n        /* \"#utility.yul\":29861:29884   */\n      swap1\n      pop\n        /* \"#utility.yul\":29837:29886   */\n    tag_567:\n        /* \"#utility.yul\":29899:29979   */\n      tag_568\n        /* \"#utility.yul\":29955:29977   */\n      tag_569\n        /* \"#utility.yul\":29973:29976   */\n      dup6\n        /* \"#utility.yul\":29955:29977   */\n      tag_271\n      jump\t// in\n    tag_569:\n        /* \"#utility.yul\":29945:29953   */\n      dup4\n        /* \"#utility.yul\":29941:29978   */\n      add\n        /* \"#utility.yul\":29928:29939   */\n      dup3\n        /* \"#utility.yul\":29899:29979   */\n      tag_280\n      jump\t// in\n    tag_568:\n        /* \"#utility.yul\":29558:29989   */\n      pop\n      pop\n        /* \"#utility.yul\":29543:29989   */\n    tag_564:\n        /* \"#utility.yul\":29453:29996   */\n      pop\n      pop\n      pop\n      jump\t// out\n        /* \"#utility.yul\":30002:30119   */\n    tag_282:\n        /* \"#utility.yul\":30056:30064   */\n      0x00\n        /* \"#utility.yul\":30106:30111   */\n      dup3\n        /* \"#utility.yul\":30100:30104   */\n      dup3\n        /* \"#utility.yul\":30096:30112   */\n      shr\n        /* \"#utility.yul\":30075:30112   */\n      swap1\n      pop\n        /* \"#utility.yul\":30002:30119   */\n      swap3\n      swap2\n      pop\n      pop\n      jump\t// out\n        /* \"#utility.yul\":30125:30294   */\n    tag_283:\n        /* \"#utility.yul\":30169:30175   */\n      0x00\n        /* \"#utility.yul\":30202:30253   */\n      tag_572\n        /* \"#utility.yul\":30250:30251   */\n      0x00\n        /* \"#utility.yul\":30246:30252   */\n      not\n        /* \"#utility.yul\":30238:30243   */\n      dup5\n        /* \"#utility.yul\":30235:30236   */\n      0x08\n        /* \"#utility.yul\":30231:30244   */\n      mul\n        /* \"#utility.yul\":30202:30253   */\n      tag_282\n      jump\t// in\n    tag_572:\n        /* \"#utility.yul\":30198:30254   */\n      not\n        /* \"#utility.yul\":30283:30287   */\n      dup1\n        /* \"#utility.yul\":30277:30281   */\n      dup4\n        /* \"#utility.yul\":30273:30288   */\n      and\n        /* \"#utility.yul\":30263:30288   */\n      swap2\n      pop\n        /* \"#utility.yul\":30176:30294   */\n      pop\n        /* \"#utility.yul\":30125:30294   */\n      swap3\n      swap2\n      pop\n      pop\n      jump\t// out\n        /* \"#utility.yul\":30299:30594   */\n    tag_284:\n        /* \"#utility.yul\":30375:30379   */\n      0x00\n        /* \"#utility.yul\":30521:30550   */\n      tag_574\n        /* \"#utility.yul\":30546:30549   */\n      dup4\n        /* \"#utility.yul\":30540:30544   */\n      dup4\n        /* \"#utility.yul\":30521:30550   */\n      tag_283\n      jump\t// in\n    tag_574:\n        /* \"#utility.yul\":30513:30550   */\n      swap2\n      pop\n        /* \"#utility.yul\":30583:30586   */\n      dup3\n        /* \"#utility.yul\":30580:30581   */\n      0x02\n        /* \"#utility.yul\":30576:30587   */\n      mul\n        /* \"#utility.yul\":30570:30574   */\n      dup3\n        /* \"#utility.yul\":30567:30588   */\n      or\n        /* \"#utility.yul\":30559:30588   */\n      swap1\n      pop\n        /* \"#utility.yul\":30299:30594   */\n      swap3\n      swap2\n      pop\n      pop\n      jump\t// out\n        /* \"#utility.yul\":30599:32062   */\n    tag_175:\n        /* \"#utility.yul\":30714:30717   */\n      dup2\n        /* \"#utility.yul\":30708:30712   */\n      dup2\n        /* \"#utility.yul\":30705:30718   */\n      sub\n        /* \"#utility.yul\":30702:30728   */\n      tag_576\n      jumpi\n        /* \"#utility.yul\":30721:30726   */\n      pop\n      pop\n      jump(tag_575)\n        /* \"#utility.yul\":30702:30728   */\n    tag_576:\n        /* \"#utility.yul\":30752:30790   */\n      tag_577\n        /* \"#utility.yul\":30786:30789   */\n      dup3\n        /* \"#utility.yul\":30752:30790   */\n      tag_269\n      jump\t// in\n    tag_577:\n        /* \"#utility.yul\":30855:30873   */\n      0xffffffffffffffff\n        /* \"#utility.yul\":30847:30853   */\n      dup2\n        /* \"#utility.yul\":30844:30874   */\n      gt\n        /* \"#utility.yul\":30841:30897   */\n      iszero\n      tag_578\n      jumpi\n        /* \"#utility.yul\":30877:30895   */\n      tag_579\n      tag_43\n      jump\t// in\n    tag_579:\n        /* \"#utility.yul\":30841:30897   */\n    tag_578:\n        /* \"#utility.yul\":30921:30959   */\n      tag_580\n        /* \"#utility.yul\":30953:30957   */\n      dup3\n        /* \"#utility.yul\":30947:30958   */\n      sload\n        /* \"#utility.yul\":30921:30959   */\n      tag_57\n      jump\t// in\n    tag_580:\n        /* \"#utility.yul\":31006:31073   */\n      tag_581\n        /* \"#utility.yul\":31066:31072   */\n      dup3\n        /* \"#utility.yul\":31058:31064   */\n      dup3\n        /* \"#utility.yul\":31052:31056   */\n      dup6\n        /* \"#utility.yul\":31006:31073   */\n      tag_281\n      jump\t// in\n    tag_581:\n        /* \"#utility.yul\":31100:31101   */\n      0x00\n        /* \"#utility.yul\":31129:31131   */\n      0x1f\n        /* \"#utility.yul\":31121:31127   */\n      dup4\n        /* \"#utility.yul\":31118:31132   */\n      gt\n        /* \"#utility.yul\":31146:31147   */\n      0x01\n        /* \"#utility.yul\":31141:31817   */\n      dup2\n      eq\n      tag_583\n      jumpi\n        /* \"#utility.yul\":31861:31862   */\n      0x00\n        /* \"#utility.yul\":31878:31884   */\n      dup5\n        /* \"#utility.yul\":31875:31952   */\n      iszero\n      tag_584\n      jumpi\n        /* \"#utility.yul\":31927:31936   */\n      dup3\n        /* \"#utility.yul\":31922:31925   */\n      dup8\n        /* \"#utility.yul\":31918:31937   */\n      add\n        /* \"#utility.yul\":31912:31938   */\n      sload\n        /* \"#utility.yul\":31903:31938   */\n      swap1\n      pop\n        /* \"#utility.yul\":31875:31952   */\n    tag_584:\n        /* \"#utility.yul\":31978:32045   */\n      tag_585\n        /* \"#utility.yul\":32038:32044   */\n      dup6\n        /* \"#utility.yul\":32031:32036   */\n      dup3\n        /* \"#utility.yul\":31978:32045   */\n      tag_284\n      jump\t// in\n    tag_585:\n        /* \"#utility.yul\":31972:31976   */\n      dup7\n        /* \"#utility.yul\":31965:32046   */\n      sstore\n        /* \"#utility.yul\":31834:32056   */\n      pop\n        /* \"#utility.yul\":31111:32056   */\n      jump(tag_582)\n        /* \"#utility.yul\":31141:31817   */\n    tag_583:\n        /* \"#utility.yul\":31193:31197   */\n      0x1f\n        /* \"#utility.yul\":31189:31198   */\n      not\n        /* \"#utility.yul\":31181:31187   */\n      dup5\n        /* \"#utility.yul\":31177:31199   */\n      and\n        /* \"#utility.yul\":31219:31259   */\n      tag_586\n        /* \"#utility.yul\":31255:31258   */\n      dup8\n        /* \"#utility.yul\":31219:31259   */\n      tag_270\n      jump\t// in\n    tag_586:\n        /* \"#utility.yul\":31212:31259   */\n      swap7\n      pop\n        /* \"#utility.yul\":31286:31323   */\n      tag_587\n        /* \"#utility.yul\":31318:31322   */\n      dup7\n        /* \"#utility.yul\":31286:31323   */\n      tag_267\n      jump\t// in\n    tag_587:\n        /* \"#utility.yul\":31345:31346   */\n      0x00\n        /* \"#utility.yul\":31359:31566   */\n    tag_588:\n        /* \"#utility.yul\":31373:31380   */\n      dup3\n        /* \"#utility.yul\":31370:31371   */\n      dup2\n        /* \"#utility.yul\":31367:31381   */\n      lt\n        /* \"#utility.yul\":31359:31566   */\n      iszero\n      tag_590\n      jumpi\n        /* \"#utility.yul\":31452:31461   */\n      dup5\n        /* \"#utility.yul\":31447:31450   */\n      dup10\n        /* \"#utility.yul\":31443:31462   */\n      add\n        /* \"#utility.yul\":31437:31463   */\n      sload\n        /* \"#utility.yul\":31429:31435   */\n      dup3\n        /* \"#utility.yul\":31422:31464   */\n      sstore\n        /* \"#utility.yul\":31503:31504   */\n      0x01\n        /* \"#utility.yul\":31495:31501   */\n      dup3\n        /* \"#utility.yul\":31491:31505   */\n      add\n        /* \"#utility.yul\":31481:31505   */\n      swap2\n      pop\n        /* \"#utility.yul\":31550:31551   */\n      0x01\n        /* \"#utility.yul\":31539:31548   */\n      dup6\n        /* \"#utility.yul\":31535:31552   */\n      add\n        /* \"#utility.yul\":31522:31552   */\n      swap5\n      pop\n        /* \"#utility.yul\":31396:31400   */\n      0x20\n        /* \"#utility.yul\":31393:31394   */\n      dup2\n        /* \"#utility.yul\":31389:31401   */\n      add\n        /* \"#utility.yul\":31384:31401   */\n      swap1\n      pop\n        /* \"#utility.yul\":31359:31566   */\n      jump(tag_588)\n    tag_590:\n        /* \"#utility.yul\":31594:31600   */\n      dup7\n        /* \"#utility.yul\":31585:31592   */\n      dup4\n        /* \"#utility.yul\":31582:31601   */\n      lt\n        /* \"#utility.yul\":31579:31758   */\n      iszero\n      tag_591\n      jumpi\n        /* \"#utility.yul\":31652:31661   */\n      dup5\n        /* \"#utility.yul\":31647:31650   */\n      dup10\n        /* \"#utility.yul\":31643:31662   */\n      add\n        /* \"#utility.yul\":31637:31663   */\n      sload\n        /* \"#utility.yul\":31695:31743   */\n      tag_592\n        /* \"#utility.yul\":31737:31741   */\n      0x1f\n        /* \"#utility.yul\":31729:31735   */\n      dup10\n        /* \"#utility.yul\":31725:31742   */\n      and\n        /* \"#utility.yul\":31714:31723   */\n      dup3\n        /* \"#utility.yul\":31695:31743   */\n      tag_283\n      jump\t// in\n    tag_592:\n        /* \"#utility.yul\":31687:31693   */\n      dup4\n        /* \"#utility.yul\":31680:31744   */\n      sstore\n        /* \"#utility.yul\":31602:31758   */\n      pop\n        /* \"#utility.yul\":31579:31758   */\n    tag_591:\n        /* \"#utility.yul\":31804:31805   */\n      0x01\n        /* \"#utility.yul\":31800:31801   */\n      0x02\n        /* \"#utility.yul\":31792:31798   */\n      dup9\n        /* \"#utility.yul\":31788:31802   */\n      mul\n        /* \"#utility.yul\":31784:31806   */\n      add\n        /* \"#utility.yul\":31778:31782   */\n      dup9\n        /* \"#utility.yul\":31771:31807   */\n      sstore\n        /* \"#utility.yul\":31148:31817   */\n      pop\n      pop\n      pop\n        /* \"#utility.yul\":31111:32056   */\n    tag_582:\n      pop\n        /* \"#utility.yul\":30692:32062   */\n      pop\n      pop\n      pop\n        /* \"#utility.yul\":30599:32062   */\n      pop\n      pop\n    tag_575:\n      jump\t// out\n        /* \"#utility.yul\":32068:33463   */\n    tag_194:\n        /* \"#utility.yul\":32185:32222   */\n      tag_594\n        /* \"#utility.yul\":32218:32221   */\n      dup3\n        /* \"#utility.yul\":32185:32222   */\n      tag_211\n      jump\t// in\n    tag_594:\n        /* \"#utility.yul\":32287:32305   */\n      0xffffffffffffffff\n        /* \"#utility.yul\":32279:32285   */\n      dup2\n        /* \"#utility.yul\":32276:32306   */\n      gt\n        /* \"#utility.yul\":32273:32329   */\n      iszero\n      tag_595\n      jumpi\n        /* \"#utility.yul\":32309:32327   */\n      tag_596\n      tag_43\n      jump\t// in\n    tag_596:\n        /* \"#utility.yul\":32273:32329   */\n    tag_595:\n        /* \"#utility.yul\":32353:32391   */\n      tag_597\n        /* \"#utility.yul\":32385:32389   */\n      dup3\n        /* \"#utility.yul\":32379:32390   */\n      sload\n        /* \"#utility.yul\":32353:32391   */\n      tag_57\n      jump\t// in\n    tag_597:\n        /* \"#utility.yul\":32438:32505   */\n      tag_598\n        /* \"#utility.yul\":32498:32504   */\n      dup3\n        /* \"#utility.yul\":32490:32496   */\n      dup3\n        /* \"#utility.yul\":32484:32488   */\n      dup6\n        /* \"#utility.yul\":32438:32505   */\n      tag_281\n      jump\t// in\n    tag_598:\n        /* \"#utility.yul\":32532:32533   */\n      0x00\n        /* \"#utility.yul\":32556:32560   */\n      0x20\n        /* \"#utility.yul\":32543:32560   */\n      swap1\n      pop\n        /* \"#utility.yul\":32588:32590   */\n      0x1f\n        /* \"#utility.yul\":32580:32586   */\n      dup4\n        /* \"#utility.yul\":32577:32591   */\n      gt\n        /* \"#utility.yul\":32605:32606   */\n      0x01\n        /* \"#utility.yul\":32600:33218   */\n      dup2\n      eq\n      tag_600\n      jumpi\n        /* \"#utility.yul\":33262:33263   */\n      0x00\n        /* \"#utility.yul\":33279:33285   */\n      dup5\n        /* \"#utility.yul\":33276:33353   */\n      iszero\n      tag_601\n      jumpi\n        /* \"#utility.yul\":33328:33337   */\n      dup3\n        /* \"#utility.yul\":33323:33326   */\n      dup8\n        /* \"#utility.yul\":33319:33338   */\n      add\n        /* \"#utility.yul\":33313:33339   */\n      mload\n        /* \"#utility.yul\":33304:33339   */\n      swap1\n      pop\n        /* \"#utility.yul\":33276:33353   */\n    tag_601:\n        /* \"#utility.yul\":33379:33446   */\n      tag_602\n        /* \"#utility.yul\":33439:33445   */\n      dup6\n        /* \"#utility.yul\":33432:33437   */\n      dup3\n        /* \"#utility.yul\":33379:33446   */\n      tag_284\n      jump\t// in\n    tag_602:\n        /* \"#utility.yul\":33373:33377   */\n      dup7\n        /* \"#utility.yul\":33366:33447   */\n      sstore\n        /* \"#utility.yul\":33235:33457   */\n      pop\n        /* \"#utility.yul\":32570:33457   */\n      jump(tag_599)\n        /* \"#utility.yul\":32600:33218   */\n    tag_600:\n        /* \"#utility.yul\":32652:32656   */\n      0x1f\n        /* \"#utility.yul\":32648:32657   */\n      not\n        /* \"#utility.yul\":32640:32646   */\n      dup5\n        /* \"#utility.yul\":32636:32658   */\n      and\n        /* \"#utility.yul\":32686:32723   */\n      tag_603\n        /* \"#utility.yul\":32718:32722   */\n      dup7\n        /* \"#utility.yul\":32686:32723   */\n      tag_267\n      jump\t// in\n    tag_603:\n        /* \"#utility.yul\":32745:32746   */\n      0x00\n        /* \"#utility.yul\":32759:32967   */\n    tag_604:\n        /* \"#utility.yul\":32773:32780   */\n      dup3\n        /* \"#utility.yul\":32770:32771   */\n      dup2\n        /* \"#utility.yul\":32767:32781   */\n      lt\n        /* \"#utility.yul\":32759:32967   */\n      iszero\n      tag_606\n      jumpi\n        /* \"#utility.yul\":32852:32861   */\n      dup5\n        /* \"#utility.yul\":32847:32850   */\n      dup10\n        /* \"#utility.yul\":32843:32862   */\n      add\n        /* \"#utility.yul\":32837:32863   */\n      mload\n        /* \"#utility.yul\":32829:32835   */\n      dup3\n        /* \"#utility.yul\":32822:32864   */\n      sstore\n        /* \"#utility.yul\":32903:32904   */\n      0x01\n        /* \"#utility.yul\":32895:32901   */\n      dup3\n        /* \"#utility.yul\":32891:32905   */\n      add\n        /* \"#utility.yul\":32881:32905   */\n      swap2\n      pop\n        /* \"#utility.yul\":32950:32952   */\n      0x20\n        /* \"#utility.yul\":32939:32948   */\n      dup6\n        /* \"#utility.yul\":32935:32953   */\n      add\n        /* \"#utility.yul\":32922:32953   */\n      swap5\n      pop\n        /* \"#utility.yul\":32796:32800   */\n      0x20\n        /* \"#utility.yul\":32793:32794   */\n      dup2\n        /* \"#utility.yul\":32789:32801   */\n      add\n        /* \"#utility.yul\":32784:32801   */\n      swap1\n      pop\n        /* \"#utility.yul\":32759:32967   */\n      jump(tag_604)\n    tag_606:\n        /* \"#utility.yul\":32995:33001   */\n      dup7\n        /* \"#utility.yul\":32986:32993   */\n      dup4\n        /* \"#utility.yul\":32983:33002   */\n      lt\n        /* \"#utility.yul\":32980:33159   */\n      iszero\n      tag_607\n      jumpi\n        /* \"#utility.yul\":33053:33062   */\n      dup5\n        /* \"#utility.yul\":33048:33051   */\n      dup10\n        /* \"#utility.yul\":33044:33063   */\n      add\n        /* \"#utility.yul\":33038:33064   */\n      mload\n        /* \"#utility.yul\":33096:33144   */\n      tag_608\n        /* \"#utility.yul\":33138:33142   */\n      0x1f\n        /* \"#utility.yul\":33130:33136   */\n      dup10\n        /* \"#utility.yul\":33126:33143   */\n      and\n        /* \"#utility.yul\":33115:33124   */\n      dup3\n        /* \"#utility.yul\":33096:33144   */\n      tag_283\n      jump\t// in\n    tag_608:\n        /* \"#utility.yul\":33088:33094   */\n      dup4\n        /* \"#utility.yul\":33081:33145   */\n      sstore\n        /* \"#utility.yul\":33003:33159   */\n      pop\n        /* \"#utility.yul\":32980:33159   */\n    tag_607:\n        /* \"#utility.yul\":33205:33206   */\n      0x01\n        /* \"#utility.yul\":33201:33202   */\n      0x02\n        /* \"#utility.yul\":33193:33199   */\n      dup9\n        /* \"#utility.yul\":33189:33203   */\n      mul\n        /* \"#utility.yul\":33185:33207   */\n      add\n        /* \"#utility.yul\":33179:33183   */\n      dup9\n        /* \"#utility.yul\":33172:33208   */\n      sstore\n        /* \"#utility.yul\":32607:33218   */\n      pop\n      pop\n      pop\n        /* \"#utility.yul\":32570:33457   */\n    tag_599:\n      pop\n        /* \"#utility.yul\":32160:33463   */\n      pop\n      pop\n      pop\n        /* \"#utility.yul\":32068:33463   */\n      pop\n      pop\n      jump\t// out\n\n    auxdata: 0xa26469706673582212201bb1a5685cc77bd2ed11b812f5076b1e0a92510e4df46eb71c652bfaac24226e64736f6c63430008110033\n}\n",
				"bytecode": {
					"linkReferences": {},
					"object": "608060405234801561001057600080fd5b50611e87806100206000396000f3fe608060405234801561001057600080fd5b506004361061007d5760003560e01c8063ae55c8881161005b578063ae55c888146100d8578063be05133c14610108578063cb965ae914610124578063f14805c3146101425761007d565b806311d881b11461008257806328ce8638146100a0578063ac193f1a146100bc575b600080fd5b61008a61015e565b6040516100979190610f0d565b60405180910390f35b6100ba60048036038101906100b59190611078565b6102b5565b005b6100d660048036038101906100d191906111a7565b6102c1565b005b6100f260048036038101906100ed9190611078565b61034b565b6040516100ff919061122d565b60405180910390f35b610122600480360381019061011d919061145a565b610363565b005b61012c610410565b6040516101399190611565565b60405180910390f35b61015c60048036038101906101579190611587565b6104e9565b005b6060600060018054905067ffffffffffffffff81111561018157610180610f4d565b5b6040519080825280602002602001820160405280156101ba57816020015b6101a7610cb0565b81526020019060019003908161019f5790505b50905060005b6001805490508110156102ad5761027c600182815481106101e4576101e36115ff565b5b9060005260206000200180546101f99061165d565b80601f01602080910402602001604051908101604052809291908181526020018280546102259061165d565b80156102725780601f1061024757610100808354040283529160200191610272565b820191906000526020600020905b81548152906001019060200180831161025557829003601f168201915b50505050506104f7565b82828151811061028f5761028e6115ff565b5b602002602001018190525080806102a5906116c7565b9150506101c0565b508091505090565b6102be81610667565b50565b6000815111610305576040517f08c379a00000000000000000000000000000000000000000000000000000000081526004016102fc9061176c565b60405180910390fd5b60005b815181101561034757610334828281518110610327576103266115ff565b5b6020026020010151610667565b808061033f906116c7565b915050610308565b5050565b610353610cb0565b61035c826104f7565b9050919050565b60008151116103a7576040517f08c379a000000000000000000000000000000000000000000000000000000000815260040161039e906117d8565b60405180910390fd5b60005b815181101561040c576103f98282815181106103c9576103c86115ff565b5b6020026020010151600001518383815181106103e8576103e76115ff565b5b602002602001015160200151610a6a565b8080610404906116c7565b9150506103aa565b5050565b60606001805480602002602001604051908101604052809291908181526020016000905b828210156104e05783829060005260206000200180546104539061165d565b80601f016020809104026020016040519081016040528092919081815260200182805461047f9061165d565b80156104cc5780601f106104a1576101008083540402835291602001916104cc565b820191906000526020600020905b8154815290600101906020018083116104af57829003601f168201915b505050505081526020019060010190610434565b50505050905090565b6104f38282610a6a565b5050565b6104ff610cb0565b8160008190506000815103610549576040517f08c379a000000000000000000000000000000000000000000000000000000000815260040161054090611844565b60405180910390fd5b604051806040016040528060008660405161056491906118a0565b908152602001604051809103902060000160009054906101000a900473ffffffffffffffffffffffffffffffffffffffff1673ffffffffffffffffffffffffffffffffffffffff1681526020016000866040516105c191906118a0565b908152602001604051809103902060010180546105dd9061165d565b80601f01602080910402602001604051908101604052809291908181526020018280546106099061165d565b80156106565780601f1061062b57610100808354040283529160200191610656565b820191906000526020600020905b81548152906001019060200180831161063957829003601f168201915b505050505081525092505050919050565b80600081905060008151036106b1576040517f08c379a00000000000000000000000000000000000000000000000000000000081526004016106a890611844565b60405180910390fd5b82600073ffffffffffffffffffffffffffffffffffffffff166000826040516106da91906118a0565b908152602001604051809103902060000160009054906101000a900473ffffffffffffffffffffffffffffffffffffffff1673ffffffffffffffffffffffffffffffffffffffff1603610762576040517f08c379a000000000000000000000000000000000000000000000000000000000815260040161075990611903565b60405180910390fd5b60008160405161077291906118a0565b908152602001604051809103902060000160009054906101000a900473ffffffffffffffffffffffffffffffffffffffff1673ffffffffffffffffffffffffffffffffffffffff163373ffffffffffffffffffffffffffffffffffffffff1614610811576040517f08c379a00000000000000000000000000000000000000000000000000000000081526004016108089061196f565b60405180910390fd5b60008460405161082191906118a0565b9081526020016040518091039020600080820160006101000a81549073ffffffffffffffffffffffffffffffffffffffff02191690556001820160006108679190610ce0565b505060006001805490500315610a6457600180805490500361092a578360405160200161089491906118a0565b6040516020818303038152906040528051906020012060016000815481106108bf576108be6115ff565b5b906000526020600020016040516020016108d99190611a27565b604051602081830303815290604052805190602001200361092557600180548061090657610905611a3e565b5b6001900381819060005260206000200160006109229190610ce0565b90555b610a63565b6000805b6001808054905061093f9190611a6d565b811015610a29578560405160200161095791906118a0565b6040516020818303038152906040528051906020012060018281548110610981576109806115ff565b5b9060005260206000200160405160200161099b9190611a27565b60405160208183030381529060405280519060200120036109bb57600191505b8115610a1657600180826109cf9190611aa1565b815481106109e0576109df6115ff565b5b90600052602060002001600182815481106109fe576109fd6115ff565b5b906000526020600020019081610a149190611c97565b505b8080610a21906116c7565b91505061092e565b508015610a61576001805480610a4257610a41611a3e565b5b600190038181906000526020600020016000610a5e9190610ce0565b90555b505b5b50505050565b8160008190506000815103610ab4576040517f08c379a0000000000000000000000000000000000000000000000000000000008152600401610aab90611844565b60405180910390fd5b600073ffffffffffffffffffffffffffffffffffffffff16600085604051610adc91906118a0565b908152602001604051809103902060000160009054906101000a900473ffffffffffffffffffffffffffffffffffffffff1673ffffffffffffffffffffffffffffffffffffffff1614610bdd57600084604051610b3991906118a0565b908152602001604051809103902060000160009054906101000a900473ffffffffffffffffffffffffffffffffffffffff1673ffffffffffffffffffffffffffffffffffffffff163373ffffffffffffffffffffffffffffffffffffffff1614610bd8576040517f08c379a0000000000000000000000000000000000000000000000000000000008152600401610bcf9061196f565b60405180910390fd5b610c13565b600184908060018154018082558091505060019003906000526020600020016000909190919091509081610c119190611d7f565b505b8260000151600085604051610c2891906118a0565b908152602001604051809103902060000160006101000a81548173ffffffffffffffffffffffffffffffffffffffff021916908373ffffffffffffffffffffffffffffffffffffffff1602179055508260200151600085604051610c8c91906118a0565b90815260200160405180910390206001019081610ca99190611d7f565b5050505050565b6040518060400160405280600073ffffffffffffffffffffffffffffffffffffffff168152602001606081525090565b508054610cec9061165d565b6000825580601f10610cfe5750610d1d565b601f016020900490600052602060002090810190610d1c9190610d20565b5b50565b5b80821115610d39576000816000905550600101610d21565b5090565b600081519050919050565b600082825260208201905092915050565b6000819050602082019050919050565b600073ffffffffffffffffffffffffffffffffffffffff82169050919050565b6000610d9482610d69565b9050919050565b610da481610d89565b82525050565b600081519050919050565b600082825260208201905092915050565b60005b83811015610de4578082015181840152602081019050610dc9565b60008484015250505050565b6000601f19601f8301169050919050565b6000610e0c82610daa565b610e168185610db5565b9350610e26818560208601610dc6565b610e2f81610df0565b840191505092915050565b6000604083016000830151610e526000860182610d9b565b5060208301518482036020860152610e6a8282610e01565b9150508091505092915050565b6000610e838383610e3a565b905092915050565b6000602082019050919050565b6000610ea382610d3d565b610ead8185610d48565b935083602082028501610ebf85610d59565b8060005b85811015610efb5784840389528151610edc8582610e77565b9450610ee783610e8b565b925060208a01995050600181019050610ec3565b50829750879550505050505092915050565b60006020820190508181036000830152610f278184610e98565b905092915050565b6000604051905090565b600080fd5b600080fd5b600080fd5b600080fd5b7f4e487b7100000000000000000000000000000000000000000000000000000000600052604160045260246000fd5b610f8582610df0565b810181811067ffffffffffffffff82111715610fa457610fa3610f4d565b5b80604052505050565b6000610fb7610f2f565b9050610fc38282610f7c565b919050565b600067ffffffffffffffff821115610fe357610fe2610f4d565b5b610fec82610df0565b9050602081019050919050565b82818337600083830152505050565b600061101b61101684610fc8565b610fad565b90508281526020810184848401111561103757611036610f48565b5b611042848285610ff9565b509392505050565b600082601f83011261105f5761105e610f43565b5b813561106f848260208601611008565b91505092915050565b60006020828403121561108e5761108d610f39565b5b600082013567ffffffffffffffff8111156110ac576110ab610f3e565b5b6110b88482850161104a565b91505092915050565b600067ffffffffffffffff8211156110dc576110db610f4d565b5b602082029050602081019050919050565b600080fd5b6000611105611100846110c1565b610fad565b90508083825260208201905060208402830185811115611128576111276110ed565b5b835b8181101561116f57803567ffffffffffffffff81111561114d5761114c610f43565b5b80860161115a898261104a565b8552602085019450505060208101905061112a565b5050509392505050565b600082601f83011261118e5761118d610f43565b5b813561119e8482602086016110f2565b91505092915050565b6000602082840312156111bd576111bc610f39565b5b600082013567ffffffffffffffff8111156111db576111da610f3e565b5b6111e784828501611179565b91505092915050565b60006040830160008301516112086000860182610d9b565b50602083015184820360208601526112208282610e01565b9150508091505092915050565b6000602082019050818103600083015261124781846111f0565b905092915050565b600067ffffffffffffffff82111561126a57611269610f4d565b5b602082029050602081019050919050565b600080fd5b600080fd5b61128e81610d89565b811461129957600080fd5b50565b6000813590506112ab81611285565b92915050565b6000604082840312156112c7576112c661127b565b5b6112d16040610fad565b905060006112e18482850161129c565b600083015250602082013567ffffffffffffffff81111561130557611304611280565b5b6113118482850161104a565b60208301525092915050565b6000604082840312156113335761133261127b565b5b61133d6040610fad565b9050600082013567ffffffffffffffff81111561135d5761135c611280565b5b6113698482850161104a565b600083015250602082013567ffffffffffffffff81111561138d5761138c611280565b5b611399848285016112b1565b60208301525092915050565b60006113b86113b38461124f565b610fad565b905080838252602082019050602084028301858111156113db576113da6110ed565b5b835b8181101561142257803567ffffffffffffffff811115611400576113ff610f43565b5b80860161140d898261131d565b855260208501945050506020810190506113dd565b5050509392505050565b600082601f83011261144157611440610f43565b5b81356114518482602086016113a5565b91505092915050565b6000602082840312156114705761146f610f39565b5b600082013567ffffffffffffffff81111561148e5761148d610f3e565b5b61149a8482850161142c565b91505092915050565b600081519050919050565b600082825260208201905092915050565b6000819050602082019050919050565b60006114db8383610e01565b905092915050565b6000602082019050919050565b60006114fb826114a3565b61150581856114ae565b935083602082028501611517856114bf565b8060005b85811015611553578484038952815161153485826114cf565b945061153f836114e3565b925060208a0199505060018101905061151b565b50829750879550505050505092915050565b6000602082019050818103600083015261157f81846114f0565b905092915050565b6000806040838503121561159e5761159d610f39565b5b600083013567ffffffffffffffff8111156115bc576115bb610f3e565b5b6115c88582860161104a565b925050602083013567ffffffffffffffff8111156115e9576115e8610f3e565b5b6115f5858286016112b1565b9150509250929050565b7f4e487b7100000000000000000000000000000000000000000000000000000000600052603260045260246000fd5b7f4e487b7100000000000000000000000000000000000000000000000000000000600052602260045260246000fd5b6000600282049050600182168061167557607f821691505b6020821081036116885761168761162e565b5b50919050565b7f4e487b7100000000000000000000000000000000000000000000000000000000600052601160045260246000fd5b6000819050919050565b60006116d2826116bd565b91507fffffffffffffffffffffffffffffffffffffffffffffffffffffffffffffffff82036117045761170361168e565b5b600182019050919050565b600082825260208201905092915050565b7f4e4f5f4b45595300000000000000000000000000000000000000000000000000600082015250565b600061175660078361170f565b915061176182611720565b602082019050919050565b6000602082019050818103600083015261178581611749565b9050919050565b7f4e4f5f4441544100000000000000000000000000000000000000000000000000600082015250565b60006117c260078361170f565b91506117cd8261178c565b602082019050919050565b600060208201905081810360008301526117f1816117b5565b9050919050565b7f4e4f5f56414c5545000000000000000000000000000000000000000000000000600082015250565b600061182e60088361170f565b9150611839826117f8565b602082019050919050565b6000602082019050818103600083015261185d81611821565b9050919050565b600081905092915050565b600061187a82610daa565b6118848185611864565b9350611894818560208601610dc6565b80840191505092915050565b60006118ac828461186f565b915081905092915050565b7f4e4f5f4f574e4552000000000000000000000000000000000000000000000000600082015250565b60006118ed60088361170f565b91506118f8826118b7565b602082019050919050565b6000602082019050818103600083015261191c816118e0565b9050919050565b7f464f5242494444454e0000000000000000000000000000000000000000000000600082015250565b600061195960098361170f565b915061196482611923565b602082019050919050565b600060208201905081810360008301526119888161194c565b9050919050565b60008190508160005260206000209050919050565b600081546119b18161165d565b6119bb8186611864565b945060018216600081146119d657600181146119eb57611a1e565b60ff1983168652811515820286019350611a1e565b6119f48561198f565b60005b83811015611a16578154818901526001820191506020810190506119f7565b838801955050505b50505092915050565b6000611a3382846119a4565b915081905092915050565b7f4e487b7100000000000000000000000000000000000000000000000000000000600052603160045260246000fd5b6000611a78826116bd565b9150611a83836116bd565b9250828203905081811115611a9b57611a9a61168e565b5b92915050565b6000611aac826116bd565b9150611ab7836116bd565b9250828201905080821115611acf57611ace61168e565b5b92915050565b600081549050611ae48161165d565b9050919050565b60008190508160005260206000209050919050565b60006020601f8301049050919050565b600082821b905092915050565b600060088302611b4d7fffffffffffffffffffffffffffffffffffffffffffffffffffffffffffffffff82611b10565b611b578683611b10565b95508019841693508086168417925050509392505050565b6000819050919050565b6000611b94611b8f611b8a846116bd565b611b6f565b6116bd565b9050919050565b6000819050919050565b611bae83611b79565b611bc2611bba82611b9b565b848454611b1d565b825550505050565b600090565b611bd7611bca565b611be2818484611ba5565b505050565b5b81811015611c0657611bfb600082611bcf565b600181019050611be8565b5050565b601f821115611c4b57611c1c8161198f565b611c2584611b00565b81016020851015611c34578190505b611c48611c4085611b00565b830182611be7565b50505b505050565b600082821c905092915050565b6000611c6e60001984600802611c50565b1980831691505092915050565b6000611c878383611c5d565b9150826002028217905092915050565b818103611ca5575050611d7d565b611cae82611ad5565b67ffffffffffffffff811115611cc757611cc6610f4d565b5b611cd1825461165d565b611cdc828285611c0a565b6000601f831160018114611d0b5760008415611cf9578287015490505b611d038582611c7b565b865550611d76565b601f198416611d1987611aeb565b9650611d248661198f565b60005b82811015611d4c57848901548255600182019150600185019450602081019050611d27565b86831015611d695784890154611d65601f891682611c5d565b8355505b6001600288020188555050505b5050505050505b565b611d8882610daa565b67ffffffffffffffff811115611da157611da0610f4d565b5b611dab825461165d565b611db6828285611c0a565b600060209050601f831160018114611de95760008415611dd7578287015190505b611de18582611c7b565b865550611e49565b601f198416611df78661198f565b60005b82811015611e1f57848901518255600182019150602085019450602081019050611dfa565b86831015611e3c5784890151611e38601f891682611c5d565b8355505b6001600288020188555050505b50505050505056fea26469706673582212201bb1a5685cc77bd2ed11b812f5076b1e0a92510e4df46eb71c652bfaac24226e64736f6c63430008110033",
					"opcodes": "PUSH1 0x80 PUSH1 0x40 MSTORE CALLVALUE DUP1 ISZERO PUSH2 0x10 JUMPI PUSH1 0x0 DUP1 REVERT JUMPDEST POP PUSH2 0x1E87 DUP1 PUSH2 0x20 PUSH1 0x0 CODECOPY PUSH1 0x0 RETURN INVALID PUSH1 0x80 PUSH1 0x40 MSTORE CALLVALUE DUP1 ISZERO PUSH2 0x10 JUMPI PUSH1 0x0 DUP1 REVERT JUMPDEST POP PUSH1 0x4 CALLDATASIZE LT PUSH2 0x7D JUMPI PUSH1 0x0 CALLDATALOAD PUSH1 0xE0 SHR DUP1 PUSH4 0xAE55C888 GT PUSH2 0x5B JUMPI DUP1 PUSH4 0xAE55C888 EQ PUSH2 0xD8 JUMPI DUP1 PUSH4 0xBE05133C EQ PUSH2 0x108 JUMPI DUP1 PUSH4 0xCB965AE9 EQ PUSH2 0x124 JUMPI DUP1 PUSH4 0xF14805C3 EQ PUSH2 0x142 JUMPI PUSH2 0x7D JUMP JUMPDEST DUP1 PUSH4 0x11D881B1 EQ PUSH2 0x82 JUMPI DUP1 PUSH4 0x28CE8638 EQ PUSH2 0xA0 JUMPI DUP1 PUSH4 0xAC193F1A EQ PUSH2 0xBC JUMPI JUMPDEST PUSH1 0x0 DUP1 REVERT JUMPDEST PUSH2 0x8A PUSH2 0x15E JUMP JUMPDEST PUSH1 0x40 MLOAD PUSH2 0x97 SWAP2 SWAP1 PUSH2 0xF0D JUMP JUMPDEST PUSH1 0x40 MLOAD DUP1 SWAP2 SUB SWAP1 RETURN JUMPDEST PUSH2 0xBA PUSH1 0x4 DUP1 CALLDATASIZE SUB DUP2 ADD SWAP1 PUSH2 0xB5 SWAP2 SWAP1 PUSH2 0x1078 JUMP JUMPDEST PUSH2 0x2B5 JUMP JUMPDEST STOP JUMPDEST PUSH2 0xD6 PUSH1 0x4 DUP1 CALLDATASIZE SUB DUP2 ADD SWAP1 PUSH2 0xD1 SWAP2 SWAP1 PUSH2 0x11A7 JUMP JUMPDEST PUSH2 0x2C1 JUMP JUMPDEST STOP JUMPDEST PUSH2 0xF2 PUSH1 0x4 DUP1 CALLDATASIZE SUB DUP2 ADD SWAP1 PUSH2 0xED SWAP2 SWAP1 PUSH2 0x1078 JUMP JUMPDEST PUSH2 0x34B JUMP JUMPDEST PUSH1 0x40 MLOAD PUSH2 0xFF SWAP2 SWAP1 PUSH2 0x122D JUMP JUMPDEST PUSH1 0x40 MLOAD DUP1 SWAP2 SUB SWAP1 RETURN JUMPDEST PUSH2 0x122 PUSH1 0x4 DUP1 CALLDATASIZE SUB DUP2 ADD SWAP1 PUSH2 0x11D SWAP2 SWAP1 PUSH2 0x145A JUMP JUMPDEST PUSH2 0x363 JUMP JUMPDEST STOP JUMPDEST PUSH2 0x12C PUSH2 0x410 JUMP JUMPDEST PUSH1 0x40 MLOAD PUSH2 0x139 SWAP2 SWAP1 PUSH2 0x1565 JUMP JUMPDEST PUSH1 0x40 MLOAD DUP1 SWAP2 SUB SWAP1 RETURN JUMPDEST PUSH2 0x15C PUSH1 0x4 DUP1 CALLDATASIZE SUB DUP2 ADD SWAP1 PUSH2 0x157 SWAP2 SWAP1 PUSH2 0x1587 JUMP JUMPDEST PUSH2 0x4E9 JUMP JUMPDEST STOP JUMPDEST PUSH1 0x60 PUSH1 0x0 PUSH1 0x1 DUP1 SLOAD SWAP1 POP PUSH8 0xFFFFFFFFFFFFFFFF DUP2 GT ISZERO PUSH2 0x181 JUMPI PUSH2 0x180 PUSH2 0xF4D JUMP JUMPDEST JUMPDEST PUSH1 0x40 MLOAD SWAP1 DUP1 DUP3 MSTORE DUP1 PUSH1 0x20 MUL PUSH1 0x20 ADD DUP3 ADD PUSH1 0x40 MSTORE DUP1 ISZERO PUSH2 0x1BA JUMPI DUP2 PUSH1 0x20 ADD JUMPDEST PUSH2 0x1A7 PUSH2 0xCB0 JUMP JUMPDEST DUP2 MSTORE PUSH1 0x20 ADD SWAP1 PUSH1 0x1 SWAP1 SUB SWAP1 DUP2 PUSH2 0x19F JUMPI SWAP1 POP JUMPDEST POP SWAP1 POP PUSH1 0x0 JUMPDEST PUSH1 0x1 DUP1 SLOAD SWAP1 POP DUP2 LT ISZERO PUSH2 0x2AD JUMPI PUSH2 0x27C PUSH1 0x1 DUP3 DUP2 SLOAD DUP2 LT PUSH2 0x1E4 JUMPI PUSH2 0x1E3 PUSH2 0x15FF JUMP JUMPDEST JUMPDEST SWAP1 PUSH1 0x0 MSTORE PUSH1 0x20 PUSH1 0x0 KECCAK256 ADD DUP1 SLOAD PUSH2 0x1F9 SWAP1 PUSH2 0x165D JUMP JUMPDEST DUP1 PUSH1 0x1F ADD PUSH1 0x20 DUP1 SWAP2 DIV MUL PUSH1 0x20 ADD PUSH1 0x40 MLOAD SWAP1 DUP2 ADD PUSH1 0x40 MSTORE DUP1 SWAP3 SWAP2 SWAP1 DUP2 DUP2 MSTORE PUSH1 0x20 ADD DUP3 DUP1 SLOAD PUSH2 0x225 SWAP1 PUSH2 0x165D JUMP JUMPDEST DUP1 ISZERO PUSH2 0x272 JUMPI DUP1 PUSH1 0x1F LT PUSH2 0x247 JUMPI PUSH2 0x100 DUP1 DUP4 SLOAD DIV MUL DUP4 MSTORE SWAP2 PUSH1 0x20 ADD SWAP2 PUSH2 0x272 JUMP JUMPDEST DUP3 ADD SWAP2 SWAP1 PUSH1 0x0 MSTORE PUSH1 0x20 PUSH1 0x0 KECCAK256 SWAP1 JUMPDEST DUP2 SLOAD DUP2 MSTORE SWAP1 PUSH1 0x1 ADD SWAP1 PUSH1 0x20 ADD DUP1 DUP4 GT PUSH2 0x255 JUMPI DUP3 SWAP1 SUB PUSH1 0x1F AND DUP3 ADD SWAP2 JUMPDEST POP POP POP POP POP PUSH2 0x4F7 JUMP JUMPDEST DUP3 DUP3 DUP2 MLOAD DUP2 LT PUSH2 0x28F JUMPI PUSH2 0x28E PUSH2 0x15FF JUMP JUMPDEST JUMPDEST PUSH1 0x20 MUL PUSH1 0x20 ADD ADD DUP2 SWAP1 MSTORE POP DUP1 DUP1 PUSH2 0x2A5 SWAP1 PUSH2 0x16C7 JUMP JUMPDEST SWAP2 POP POP PUSH2 0x1C0 JUMP JUMPDEST POP DUP1 SWAP2 POP POP SWAP1 JUMP JUMPDEST PUSH2 0x2BE DUP2 PUSH2 0x667 JUMP JUMPDEST POP JUMP JUMPDEST PUSH1 0x0 DUP2 MLOAD GT PUSH2 0x305 JUMPI PUSH1 0x40 MLOAD PUSH32 0x8C379A000000000000000000000000000000000000000000000000000000000 DUP2 MSTORE PUSH1 0x4 ADD PUSH2 0x2FC SWAP1 PUSH2 0x176C JUMP JUMPDEST PUSH1 0x40 MLOAD DUP1 SWAP2 SUB SWAP1 REVERT JUMPDEST PUSH1 0x0 JUMPDEST DUP2 MLOAD DUP2 LT ISZERO PUSH2 0x347 JUMPI PUSH2 0x334 DUP3 DUP3 DUP2 MLOAD DUP2 LT PUSH2 0x327 JUMPI PUSH2 0x326 PUSH2 0x15FF JUMP JUMPDEST JUMPDEST PUSH1 0x20 MUL PUSH1 0x20 ADD ADD MLOAD PUSH2 0x667 JUMP JUMPDEST DUP1 DUP1 PUSH2 0x33F SWAP1 PUSH2 0x16C7 JUMP JUMPDEST SWAP2 POP POP PUSH2 0x308 JUMP JUMPDEST POP POP JUMP JUMPDEST PUSH2 0x353 PUSH2 0xCB0 JUMP JUMPDEST PUSH2 0x35C DUP3 PUSH2 0x4F7 JUMP JUMPDEST SWAP1 POP SWAP2 SWAP1 POP JUMP JUMPDEST PUSH1 0x0 DUP2 MLOAD GT PUSH2 0x3A7 JUMPI PUSH1 0x40 MLOAD PUSH32 0x8C379A000000000000000000000000000000000000000000000000000000000 DUP2 MSTORE PUSH1 0x4 ADD PUSH2 0x39E SWAP1 PUSH2 0x17D8 JUMP JUMPDEST PUSH1 0x40 MLOAD DUP1 SWAP2 SUB SWAP1 REVERT JUMPDEST PUSH1 0x0 JUMPDEST DUP2 MLOAD DUP2 LT ISZERO PUSH2 0x40C JUMPI PUSH2 0x3F9 DUP3 DUP3 DUP2 MLOAD DUP2 LT PUSH2 0x3C9 JUMPI PUSH2 0x3C8 PUSH2 0x15FF JUMP JUMPDEST JUMPDEST PUSH1 0x20 MUL PUSH1 0x20 ADD ADD MLOAD PUSH1 0x0 ADD MLOAD DUP4 DUP4 DUP2 MLOAD DUP2 LT PUSH2 0x3E8 JUMPI PUSH2 0x3E7 PUSH2 0x15FF JUMP JUMPDEST JUMPDEST PUSH1 0x20 MUL PUSH1 0x20 ADD ADD MLOAD PUSH1 0x20 ADD MLOAD PUSH2 0xA6A JUMP JUMPDEST DUP1 DUP1 PUSH2 0x404 SWAP1 PUSH2 0x16C7 JUMP JUMPDEST SWAP2 POP POP PUSH2 0x3AA JUMP JUMPDEST POP POP JUMP JUMPDEST PUSH1 0x60 PUSH1 0x1 DUP1 SLOAD DUP1 PUSH1 0x20 MUL PUSH1 0x20 ADD PUSH1 0x40 MLOAD SWAP1 DUP2 ADD PUSH1 0x40 MSTORE DUP1 SWAP3 SWAP2 SWAP1 DUP2 DUP2 MSTORE PUSH1 0x20 ADD PUSH1 0x0 SWAP1 JUMPDEST DUP3 DUP3 LT ISZERO PUSH2 0x4E0 JUMPI DUP4 DUP3 SWAP1 PUSH1 0x0 MSTORE PUSH1 0x20 PUSH1 0x0 KECCAK256 ADD DUP1 SLOAD PUSH2 0x453 SWAP1 PUSH2 0x165D JUMP JUMPDEST DUP1 PUSH1 0x1F ADD PUSH1 0x20 DUP1 SWAP2 DIV MUL PUSH1 0x20 ADD PUSH1 0x40 MLOAD SWAP1 DUP2 ADD PUSH1 0x40 MSTORE DUP1 SWAP3 SWAP2 SWAP1 DUP2 DUP2 MSTORE PUSH1 0x20 ADD DUP3 DUP1 SLOAD PUSH2 0x47F SWAP1 PUSH2 0x165D JUMP JUMPDEST DUP1 ISZERO PUSH2 0x4CC JUMPI DUP1 PUSH1 0x1F LT PUSH2 0x4A1 JUMPI PUSH2 0x100 DUP1 DUP4 SLOAD DIV MUL DUP4 MSTORE SWAP2 PUSH1 0x20 ADD SWAP2 PUSH2 0x4CC JUMP JUMPDEST DUP3 ADD SWAP2 SWAP1 PUSH1 0x0 MSTORE PUSH1 0x20 PUSH1 0x0 KECCAK256 SWAP1 JUMPDEST DUP2 SLOAD DUP2 MSTORE SWAP1 PUSH1 0x1 ADD SWAP1 PUSH1 0x20 ADD DUP1 DUP4 GT PUSH2 0x4AF JUMPI DUP3 SWAP1 SUB PUSH1 0x1F AND DUP3 ADD SWAP2 JUMPDEST POP POP POP POP POP DUP2 MSTORE PUSH1 0x20 ADD SWAP1 PUSH1 0x1 ADD SWAP1 PUSH2 0x434 JUMP JUMPDEST POP POP POP POP SWAP1 POP SWAP1 JUMP JUMPDEST PUSH2 0x4F3 DUP3 DUP3 PUSH2 0xA6A JUMP JUMPDEST POP POP JUMP JUMPDEST PUSH2 0x4FF PUSH2 0xCB0 JUMP JUMPDEST DUP2 PUSH1 0x0 DUP2 SWAP1 POP PUSH1 0x0 DUP2 MLOAD SUB PUSH2 0x549 JUMPI PUSH1 0x40 MLOAD PUSH32 0x8C379A000000000000000000000000000000000000000000000000000000000 DUP2 MSTORE PUSH1 0x4 ADD PUSH2 0x540 SWAP1 PUSH2 0x1844 JUMP JUMPDEST PUSH1 0x40 MLOAD DUP1 SWAP2 SUB SWAP1 REVERT JUMPDEST PUSH1 0x40 MLOAD DUP1 PUSH1 0x40 ADD PUSH1 0x40 MSTORE DUP1 PUSH1 0x0 DUP7 PUSH1 0x40 MLOAD PUSH2 0x564 SWAP2 SWAP1 PUSH2 0x18A0 JUMP JUMPDEST SWAP1 DUP2 MSTORE PUSH1 0x20 ADD PUSH1 0x40 MLOAD DUP1 SWAP2 SUB SWAP1 KECCAK256 PUSH1 0x0 ADD PUSH1 0x0 SWAP1 SLOAD SWAP1 PUSH2 0x100 EXP SWAP1 DIV PUSH20 0xFFFFFFFFFFFFFFFFFFFFFFFFFFFFFFFFFFFFFFFF AND PUSH20 0xFFFFFFFFFFFFFFFFFFFFFFFFFFFFFFFFFFFFFFFF AND DUP2 MSTORE PUSH1 0x20 ADD PUSH1 0x0 DUP7 PUSH1 0x40 MLOAD PUSH2 0x5C1 SWAP2 SWAP1 PUSH2 0x18A0 JUMP JUMPDEST SWAP1 DUP2 MSTORE PUSH1 0x20 ADD PUSH1 0x40 MLOAD DUP1 SWAP2 SUB SWAP1 KECCAK256 PUSH1 0x1 ADD DUP1 SLOAD PUSH2 0x5DD SWAP1 PUSH2 0x165D JUMP JUMPDEST DUP1 PUSH1 0x1F ADD PUSH1 0x20 DUP1 SWAP2 DIV MUL PUSH1 0x20 ADD PUSH1 0x40 MLOAD SWAP1 DUP2 ADD PUSH1 0x40 MSTORE DUP1 SWAP3 SWAP2 SWAP1 DUP2 DUP2 MSTORE PUSH1 0x20 ADD DUP3 DUP1 SLOAD PUSH2 0x609 SWAP1 PUSH2 0x165D JUMP JUMPDEST DUP1 ISZERO PUSH2 0x656 JUMPI DUP1 PUSH1 0x1F LT PUSH2 0x62B JUMPI PUSH2 0x100 DUP1 DUP4 SLOAD DIV MUL DUP4 MSTORE SWAP2 PUSH1 0x20 ADD SWAP2 PUSH2 0x656 JUMP JUMPDEST DUP3 ADD SWAP2 SWAP1 PUSH1 0x0 MSTORE PUSH1 0x20 PUSH1 0x0 KECCAK256 SWAP1 JUMPDEST DUP2 SLOAD DUP2 MSTORE SWAP1 PUSH1 0x1 ADD SWAP1 PUSH1 0x20 ADD DUP1 DUP4 GT PUSH2 0x639 JUMPI DUP3 SWAP1 SUB PUSH1 0x1F AND DUP3 ADD SWAP2 JUMPDEST POP POP POP POP POP DUP2 MSTORE POP SWAP3 POP POP POP SWAP2 SWAP1 POP JUMP JUMPDEST DUP1 PUSH1 0x0 DUP2 SWAP1 POP PUSH1 0x0 DUP2 MLOAD SUB PUSH2 0x6B1 JUMPI PUSH1 0x40 MLOAD PUSH32 0x8C379A000000000000000000000000000000000000000000000000000000000 DUP2 MSTORE PUSH1 0x4 ADD PUSH2 0x6A8 SWAP1 PUSH2 0x1844 JUMP JUMPDEST PUSH1 0x40 MLOAD DUP1 SWAP2 SUB SWAP1 REVERT JUMPDEST DUP3 PUSH1 0x0 PUSH20 0xFFFFFFFFFFFFFFFFFFFFFFFFFFFFFFFFFFFFFFFF AND PUSH1 0x0 DUP3 PUSH1 0x40 MLOAD PUSH2 0x6DA SWAP2 SWAP1 PUSH2 0x18A0 JUMP JUMPDEST SWAP1 DUP2 MSTORE PUSH1 0x20 ADD PUSH1 0x40 MLOAD DUP1 SWAP2 SUB SWAP1 KECCAK256 PUSH1 0x0 ADD PUSH1 0x0 SWAP1 SLOAD SWAP1 PUSH2 0x100 EXP SWAP1 DIV PUSH20 0xFFFFFFFFFFFFFFFFFFFFFFFFFFFFFFFFFFFFFFFF AND PUSH20 0xFFFFFFFFFFFFFFFFFFFFFFFFFFFFFFFFFFFFFFFF AND SUB PUSH2 0x762 JUMPI PUSH1 0x40 MLOAD PUSH32 0x8C379A000000000000000000000000000000000000000000000000000000000 DUP2 MSTORE PUSH1 0x4 ADD PUSH2 0x759 SWAP1 PUSH2 0x1903 JUMP JUMPDEST PUSH1 0x40 MLOAD DUP1 SWAP2 SUB SWAP1 REVERT JUMPDEST PUSH1 0x0 DUP2 PUSH1 0x40 MLOAD PUSH2 0x772 SWAP2 SWAP1 PUSH2 0x18A0 JUMP JUMPDEST SWAP1 DUP2 MSTORE PUSH1 0x20 ADD PUSH1 0x40 MLOAD DUP1 SWAP2 SUB SWAP1 KECCAK256 PUSH1 0x0 ADD PUSH1 0x0 SWAP1 SLOAD SWAP1 PUSH2 0x100 EXP SWAP1 DIV PUSH20 0xFFFFFFFFFFFFFFFFFFFFFFFFFFFFFFFFFFFFFFFF AND PUSH20 0xFFFFFFFFFFFFFFFFFFFFFFFFFFFFFFFFFFFFFFFF AND CALLER PUSH20 0xFFFFFFFFFFFFFFFFFFFFFFFFFFFFFFFFFFFFFFFF AND EQ PUSH2 0x811 JUMPI PUSH1 0x40 MLOAD PUSH32 0x8C379A000000000000000000000000000000000000000000000000000000000 DUP2 MSTORE PUSH1 0x4 ADD PUSH2 0x808 SWAP1 PUSH2 0x196F JUMP JUMPDEST PUSH1 0x40 MLOAD DUP1 SWAP2 SUB SWAP1 REVERT JUMPDEST PUSH1 0x0 DUP5 PUSH1 0x40 MLOAD PUSH2 0x821 SWAP2 SWAP1 PUSH2 0x18A0 JUMP JUMPDEST SWAP1 DUP2 MSTORE PUSH1 0x20 ADD PUSH1 0x40 MLOAD DUP1 SWAP2 SUB SWAP1 KECCAK256 PUSH1 0x0 DUP1 DUP3 ADD PUSH1 0x0 PUSH2 0x100 EXP DUP2 SLOAD SWAP1 PUSH20 0xFFFFFFFFFFFFFFFFFFFFFFFFFFFFFFFFFFFFFFFF MUL NOT AND SWAP1 SSTORE PUSH1 0x1 DUP3 ADD PUSH1 0x0 PUSH2 0x867 SWAP2 SWAP1 PUSH2 0xCE0 JUMP JUMPDEST POP POP PUSH1 0x0 PUSH1 0x1 DUP1 SLOAD SWAP1 POP SUB ISZERO PUSH2 0xA64 JUMPI PUSH1 0x1 DUP1 DUP1 SLOAD SWAP1 POP SUB PUSH2 0x92A JUMPI DUP4 PUSH1 0x40 MLOAD PUSH1 0x20 ADD PUSH2 0x894 SWAP2 SWAP1 PUSH2 0x18A0 JUMP JUMPDEST PUSH1 0x40 MLOAD PUSH1 0x20 DUP2 DUP4 SUB SUB DUP2 MSTORE SWAP1 PUSH1 0x40 MSTORE DUP1 MLOAD SWAP1 PUSH1 0x20 ADD KECCAK256 PUSH1 0x1 PUSH1 0x0 DUP2 SLOAD DUP2 LT PUSH2 0x8BF JUMPI PUSH2 0x8BE PUSH2 0x15FF JUMP JUMPDEST JUMPDEST SWAP1 PUSH1 0x0 MSTORE PUSH1 0x20 PUSH1 0x0 KECCAK256 ADD PUSH1 0x40 MLOAD PUSH1 0x20 ADD PUSH2 0x8D9 SWAP2 SWAP1 PUSH2 0x1A27 JUMP JUMPDEST PUSH1 0x40 MLOAD PUSH1 0x20 DUP2 DUP4 SUB SUB DUP2 MSTORE SWAP1 PUSH1 0x40 MSTORE DUP1 MLOAD SWAP1 PUSH1 0x20 ADD KECCAK256 SUB PUSH2 0x925 JUMPI PUSH1 0x1 DUP1 SLOAD DUP1 PUSH2 0x906 JUMPI PUSH2 0x905 PUSH2 0x1A3E JUMP JUMPDEST JUMPDEST PUSH1 0x1 SWAP1 SUB DUP2 DUP2 SWAP1 PUSH1 0x0 MSTORE PUSH1 0x20 PUSH1 0x0 KECCAK256 ADD PUSH1 0x0 PUSH2 0x922 SWAP2 SWAP1 PUSH2 0xCE0 JUMP JUMPDEST SWAP1 SSTORE JUMPDEST PUSH2 0xA63 JUMP JUMPDEST PUSH1 0x0 DUP1 JUMPDEST PUSH1 0x1 DUP1 DUP1 SLOAD SWAP1 POP PUSH2 0x93F SWAP2 SWAP1 PUSH2 0x1A6D JUMP JUMPDEST DUP2 LT ISZERO PUSH2 0xA29 JUMPI DUP6 PUSH1 0x40 MLOAD PUSH1 0x20 ADD PUSH2 0x957 SWAP2 SWAP1 PUSH2 0x18A0 JUMP JUMPDEST PUSH1 0x40 MLOAD PUSH1 0x20 DUP2 DUP4 SUB SUB DUP2 MSTORE SWAP1 PUSH1 0x40 MSTORE DUP1 MLOAD SWAP1 PUSH1 0x20 ADD KECCAK256 PUSH1 0x1 DUP3 DUP2 SLOAD DUP2 LT PUSH2 0x981 JUMPI PUSH2 0x980 PUSH2 0x15FF JUMP JUMPDEST JUMPDEST SWAP1 PUSH1 0x0 MSTORE PUSH1 0x20 PUSH1 0x0 KECCAK256 ADD PUSH1 0x40 MLOAD PUSH1 0x20 ADD PUSH2 0x99B SWAP2 SWAP1 PUSH2 0x1A27 JUMP JUMPDEST PUSH1 0x40 MLOAD PUSH1 0x20 DUP2 DUP4 SUB SUB DUP2 MSTORE SWAP1 PUSH1 0x40 MSTORE DUP1 MLOAD SWAP1 PUSH1 0x20 ADD KECCAK256 SUB PUSH2 0x9BB JUMPI PUSH1 0x1 SWAP2 POP JUMPDEST DUP2 ISZERO PUSH2 0xA16 JUMPI PUSH1 0x1 DUP1 DUP3 PUSH2 0x9CF SWAP2 SWAP1 PUSH2 0x1AA1 JUMP JUMPDEST DUP2 SLOAD DUP2 LT PUSH2 0x9E0 JUMPI PUSH2 0x9DF PUSH2 0x15FF JUMP JUMPDEST JUMPDEST SWAP1 PUSH1 0x0 MSTORE PUSH1 0x20 PUSH1 0x0 KECCAK256 ADD PUSH1 0x1 DUP3 DUP2 SLOAD DUP2 LT PUSH2 0x9FE JUMPI PUSH2 0x9FD PUSH2 0x15FF JUMP JUMPDEST JUMPDEST SWAP1 PUSH1 0x0 MSTORE PUSH1 0x20 PUSH1 0x0 KECCAK256 ADD SWAP1 DUP2 PUSH2 0xA14 SWAP2 SWAP1 PUSH2 0x1C97 JUMP JUMPDEST POP JUMPDEST DUP1 DUP1 PUSH2 0xA21 SWAP1 PUSH2 0x16C7 JUMP JUMPDEST SWAP2 POP POP PUSH2 0x92E JUMP JUMPDEST POP DUP1 ISZERO PUSH2 0xA61 JUMPI PUSH1 0x1 DUP1 SLOAD DUP1 PUSH2 0xA42 JUMPI PUSH2 0xA41 PUSH2 0x1A3E JUMP JUMPDEST JUMPDEST PUSH1 0x1 SWAP1 SUB DUP2 DUP2 SWAP1 PUSH1 0x0 MSTORE PUSH1 0x20 PUSH1 0x0 KECCAK256 ADD PUSH1 0x0 PUSH2 0xA5E SWAP2 SWAP1 PUSH2 0xCE0 JUMP JUMPDEST SWAP1 SSTORE JUMPDEST POP JUMPDEST JUMPDEST POP POP POP POP JUMP JUMPDEST DUP2 PUSH1 0x0 DUP2 SWAP1 POP PUSH1 0x0 DUP2 MLOAD SUB PUSH2 0xAB4 JUMPI PUSH1 0x40 MLOAD PUSH32 0x8C379A000000000000000000000000000000000000000000000000000000000 DUP2 MSTORE PUSH1 0x4 ADD PUSH2 0xAAB SWAP1 PUSH2 0x1844 JUMP JUMPDEST PUSH1 0x40 MLOAD DUP1 SWAP2 SUB SWAP1 REVERT JUMPDEST PUSH1 0x0 PUSH20 0xFFFFFFFFFFFFFFFFFFFFFFFFFFFFFFFFFFFFFFFF AND PUSH1 0x0 DUP6 PUSH1 0x40 MLOAD PUSH2 0xADC SWAP2 SWAP1 PUSH2 0x18A0 JUMP JUMPDEST SWAP1 DUP2 MSTORE PUSH1 0x20 ADD PUSH1 0x40 MLOAD DUP1 SWAP2 SUB SWAP1 KECCAK256 PUSH1 0x0 ADD PUSH1 0x0 SWAP1 SLOAD SWAP1 PUSH2 0x100 EXP SWAP1 DIV PUSH20 0xFFFFFFFFFFFFFFFFFFFFFFFFFFFFFFFFFFFFFFFF AND PUSH20 0xFFFFFFFFFFFFFFFFFFFFFFFFFFFFFFFFFFFFFFFF AND EQ PUSH2 0xBDD JUMPI PUSH1 0x0 DUP5 PUSH1 0x40 MLOAD PUSH2 0xB39 SWAP2 SWAP1 PUSH2 0x18A0 JUMP JUMPDEST SWAP1 DUP2 MSTORE PUSH1 0x20 ADD PUSH1 0x40 MLOAD DUP1 SWAP2 SUB SWAP1 KECCAK256 PUSH1 0x0 ADD PUSH1 0x0 SWAP1 SLOAD SWAP1 PUSH2 0x100 EXP SWAP1 DIV PUSH20 0xFFFFFFFFFFFFFFFFFFFFFFFFFFFFFFFFFFFFFFFF AND PUSH20 0xFFFFFFFFFFFFFFFFFFFFFFFFFFFFFFFFFFFFFFFF AND CALLER PUSH20 0xFFFFFFFFFFFFFFFFFFFFFFFFFFFFFFFFFFFFFFFF AND EQ PUSH2 0xBD8 JUMPI PUSH1 0x40 MLOAD PUSH32 0x8C379A000000000000000000000000000000000000000000000000000000000 DUP2 MSTORE PUSH1 0x4 ADD PUSH2 0xBCF SWAP1 PUSH2 0x196F JUMP JUMPDEST PUSH1 0x40 MLOAD DUP1 SWAP2 SUB SWAP1 REVERT JUMPDEST PUSH2 0xC13 JUMP JUMPDEST PUSH1 0x1 DUP5 SWAP1 DUP1 PUSH1 0x1 DUP2 SLOAD ADD DUP1 DUP3 SSTORE DUP1 SWAP2 POP POP PUSH1 0x1 SWAP1 SUB SWAP1 PUSH1 0x0 MSTORE PUSH1 0x20 PUSH1 0x0 KECCAK256 ADD PUSH1 0x0 SWAP1 SWAP2 SWAP1 SWAP2 SWAP1 SWAP2 POP SWAP1 DUP2 PUSH2 0xC11 SWAP2 SWAP1 PUSH2 0x1D7F JUMP JUMPDEST POP JUMPDEST DUP3 PUSH1 0x0 ADD MLOAD PUSH1 0x0 DUP6 PUSH1 0x40 MLOAD PUSH2 0xC28 SWAP2 SWAP1 PUSH2 0x18A0 JUMP JUMPDEST SWAP1 DUP2 MSTORE PUSH1 0x20 ADD PUSH1 0x40 MLOAD DUP1 SWAP2 SUB SWAP1 KECCAK256 PUSH1 0x0 ADD PUSH1 0x0 PUSH2 0x100 EXP DUP2 SLOAD DUP2 PUSH20 0xFFFFFFFFFFFFFFFFFFFFFFFFFFFFFFFFFFFFFFFF MUL NOT AND SWAP1 DUP4 PUSH20 0xFFFFFFFFFFFFFFFFFFFFFFFFFFFFFFFFFFFFFFFF AND MUL OR SWAP1 SSTORE POP DUP3 PUSH1 0x20 ADD MLOAD PUSH1 0x0 DUP6 PUSH1 0x40 MLOAD PUSH2 0xC8C SWAP2 SWAP1 PUSH2 0x18A0 JUMP JUMPDEST SWAP1 DUP2 MSTORE PUSH1 0x20 ADD PUSH1 0x40 MLOAD DUP1 SWAP2 SUB SWAP1 KECCAK256 PUSH1 0x1 ADD SWAP1 DUP2 PUSH2 0xCA9 SWAP2 SWAP1 PUSH2 0x1D7F JUMP JUMPDEST POP POP POP POP POP JUMP JUMPDEST PUSH1 0x40 MLOAD DUP1 PUSH1 0x40 ADD PUSH1 0x40 MSTORE DUP1 PUSH1 0x0 PUSH20 0xFFFFFFFFFFFFFFFFFFFFFFFFFFFFFFFFFFFFFFFF AND DUP2 MSTORE PUSH1 0x20 ADD PUSH1 0x60 DUP2 MSTORE POP SWAP1 JUMP JUMPDEST POP DUP1 SLOAD PUSH2 0xCEC SWAP1 PUSH2 0x165D JUMP JUMPDEST PUSH1 0x0 DUP3 SSTORE DUP1 PUSH1 0x1F LT PUSH2 0xCFE JUMPI POP PUSH2 0xD1D JUMP JUMPDEST PUSH1 0x1F ADD PUSH1 0x20 SWAP1 DIV SWAP1 PUSH1 0x0 MSTORE PUSH1 0x20 PUSH1 0x0 KECCAK256 SWAP1 DUP2 ADD SWAP1 PUSH2 0xD1C SWAP2 SWAP1 PUSH2 0xD20 JUMP JUMPDEST JUMPDEST POP JUMP JUMPDEST JUMPDEST DUP1 DUP3 GT ISZERO PUSH2 0xD39 JUMPI PUSH1 0x0 DUP2 PUSH1 0x0 SWAP1 SSTORE POP PUSH1 0x1 ADD PUSH2 0xD21 JUMP JUMPDEST POP SWAP1 JUMP JUMPDEST PUSH1 0x0 DUP2 MLOAD SWAP1 POP SWAP2 SWAP1 POP JUMP JUMPDEST PUSH1 0x0 DUP3 DUP3 MSTORE PUSH1 0x20 DUP3 ADD SWAP1 POP SWAP3 SWAP2 POP POP JUMP JUMPDEST PUSH1 0x0 DUP2 SWAP1 POP PUSH1 0x20 DUP3 ADD SWAP1 POP SWAP2 SWAP1 POP JUMP JUMPDEST PUSH1 0x0 PUSH20 0xFFFFFFFFFFFFFFFFFFFFFFFFFFFFFFFFFFFFFFFF DUP3 AND SWAP1 POP SWAP2 SWAP1 POP JUMP JUMPDEST PUSH1 0x0 PUSH2 0xD94 DUP3 PUSH2 0xD69 JUMP JUMPDEST SWAP1 POP SWAP2 SWAP1 POP JUMP JUMPDEST PUSH2 0xDA4 DUP2 PUSH2 0xD89 JUMP JUMPDEST DUP3 MSTORE POP POP JUMP JUMPDEST PUSH1 0x0 DUP2 MLOAD SWAP1 POP SWAP2 SWAP1 POP JUMP JUMPDEST PUSH1 0x0 DUP3 DUP3 MSTORE PUSH1 0x20 DUP3 ADD SWAP1 POP SWAP3 SWAP2 POP POP JUMP JUMPDEST PUSH1 0x0 JUMPDEST DUP4 DUP2 LT ISZERO PUSH2 0xDE4 JUMPI DUP1 DUP3 ADD MLOAD DUP2 DUP5 ADD MSTORE PUSH1 0x20 DUP2 ADD SWAP1 POP PUSH2 0xDC9 JUMP JUMPDEST PUSH1 0x0 DUP5 DUP5 ADD MSTORE POP POP POP POP JUMP JUMPDEST PUSH1 0x0 PUSH1 0x1F NOT PUSH1 0x1F DUP4 ADD AND SWAP1 POP SWAP2 SWAP1 POP JUMP JUMPDEST PUSH1 0x0 PUSH2 0xE0C DUP3 PUSH2 0xDAA JUMP JUMPDEST PUSH2 0xE16 DUP2 DUP6 PUSH2 0xDB5 JUMP JUMPDEST SWAP4 POP PUSH2 0xE26 DUP2 DUP6 PUSH1 0x20 DUP7 ADD PUSH2 0xDC6 JUMP JUMPDEST PUSH2 0xE2F DUP2 PUSH2 0xDF0 JUMP JUMPDEST DUP5 ADD SWAP2 POP POP SWAP3 SWAP2 POP POP JUMP JUMPDEST PUSH1 0x0 PUSH1 0x40 DUP4 ADD PUSH1 0x0 DUP4 ADD MLOAD PUSH2 0xE52 PUSH1 0x0 DUP7 ADD DUP3 PUSH2 0xD9B JUMP JUMPDEST POP PUSH1 0x20 DUP4 ADD MLOAD DUP5 DUP3 SUB PUSH1 0x20 DUP7 ADD MSTORE PUSH2 0xE6A DUP3 DUP3 PUSH2 0xE01 JUMP JUMPDEST SWAP2 POP POP DUP1 SWAP2 POP POP SWAP3 SWAP2 POP POP JUMP JUMPDEST PUSH1 0x0 PUSH2 0xE83 DUP4 DUP4 PUSH2 0xE3A JUMP JUMPDEST SWAP1 POP SWAP3 SWAP2 POP POP JUMP JUMPDEST PUSH1 0x0 PUSH1 0x20 DUP3 ADD SWAP1 POP SWAP2 SWAP1 POP JUMP JUMPDEST PUSH1 0x0 PUSH2 0xEA3 DUP3 PUSH2 0xD3D JUMP JUMPDEST PUSH2 0xEAD DUP2 DUP6 PUSH2 0xD48 JUMP JUMPDEST SWAP4 POP DUP4 PUSH1 0x20 DUP3 MUL DUP6 ADD PUSH2 0xEBF DUP6 PUSH2 0xD59 JUMP JUMPDEST DUP1 PUSH1 0x0 JUMPDEST DUP6 DUP2 LT ISZERO PUSH2 0xEFB JUMPI DUP5 DUP5 SUB DUP10 MSTORE DUP2 MLOAD PUSH2 0xEDC DUP6 DUP3 PUSH2 0xE77 JUMP JUMPDEST SWAP5 POP PUSH2 0xEE7 DUP4 PUSH2 0xE8B JUMP JUMPDEST SWAP3 POP PUSH1 0x20 DUP11 ADD SWAP10 POP POP PUSH1 0x1 DUP2 ADD SWAP1 POP PUSH2 0xEC3 JUMP JUMPDEST POP DUP3 SWAP8 POP DUP8 SWAP6 POP POP POP POP POP POP SWAP3 SWAP2 POP POP JUMP JUMPDEST PUSH1 0x0 PUSH1 0x20 DUP3 ADD SWAP1 POP DUP2 DUP2 SUB PUSH1 0x0 DUP4 ADD MSTORE PUSH2 0xF27 DUP2 DUP5 PUSH2 0xE98 JUMP JUMPDEST SWAP1 POP SWAP3 SWAP2 POP POP JUMP JUMPDEST PUSH1 0x0 PUSH1 0x40 MLOAD SWAP1 POP SWAP1 JUMP JUMPDEST PUSH1 0x0 DUP1 REVERT JUMPDEST PUSH1 0x0 DUP1 REVERT JUMPDEST PUSH1 0x0 DUP1 REVERT JUMPDEST PUSH1 0x0 DUP1 REVERT JUMPDEST PUSH32 0x4E487B7100000000000000000000000000000000000000000000000000000000 PUSH1 0x0 MSTORE PUSH1 0x41 PUSH1 0x4 MSTORE PUSH1 0x24 PUSH1 0x0 REVERT JUMPDEST PUSH2 0xF85 DUP3 PUSH2 0xDF0 JUMP JUMPDEST DUP2 ADD DUP2 DUP2 LT PUSH8 0xFFFFFFFFFFFFFFFF DUP3 GT OR ISZERO PUSH2 0xFA4 JUMPI PUSH2 0xFA3 PUSH2 0xF4D JUMP JUMPDEST JUMPDEST DUP1 PUSH1 0x40 MSTORE POP POP POP JUMP JUMPDEST PUSH1 0x0 PUSH2 0xFB7 PUSH2 0xF2F JUMP JUMPDEST SWAP1 POP PUSH2 0xFC3 DUP3 DUP3 PUSH2 0xF7C JUMP JUMPDEST SWAP2 SWAP1 POP JUMP JUMPDEST PUSH1 0x0 PUSH8 0xFFFFFFFFFFFFFFFF DUP3 GT ISZERO PUSH2 0xFE3 JUMPI PUSH2 0xFE2 PUSH2 0xF4D JUMP JUMPDEST JUMPDEST PUSH2 0xFEC DUP3 PUSH2 0xDF0 JUMP JUMPDEST SWAP1 POP PUSH1 0x20 DUP2 ADD SWAP1 POP SWAP2 SWAP1 POP JUMP JUMPDEST DUP3 DUP2 DUP4 CALLDATACOPY PUSH1 0x0 DUP4 DUP4 ADD MSTORE POP POP POP JUMP JUMPDEST PUSH1 0x0 PUSH2 0x101B PUSH2 0x1016 DUP5 PUSH2 0xFC8 JUMP JUMPDEST PUSH2 0xFAD JUMP JUMPDEST SWAP1 POP DUP3 DUP2 MSTORE PUSH1 0x20 DUP2 ADD DUP5 DUP5 DUP5 ADD GT ISZERO PUSH2 0x1037 JUMPI PUSH2 0x1036 PUSH2 0xF48 JUMP JUMPDEST JUMPDEST PUSH2 0x1042 DUP5 DUP3 DUP6 PUSH2 0xFF9 JUMP JUMPDEST POP SWAP4 SWAP3 POP POP POP JUMP JUMPDEST PUSH1 0x0 DUP3 PUSH1 0x1F DUP4 ADD SLT PUSH2 0x105F JUMPI PUSH2 0x105E PUSH2 0xF43 JUMP JUMPDEST JUMPDEST DUP2 CALLDATALOAD PUSH2 0x106F DUP5 DUP3 PUSH1 0x20 DUP7 ADD PUSH2 0x1008 JUMP JUMPDEST SWAP2 POP POP SWAP3 SWAP2 POP POP JUMP JUMPDEST PUSH1 0x0 PUSH1 0x20 DUP3 DUP5 SUB SLT ISZERO PUSH2 0x108E JUMPI PUSH2 0x108D PUSH2 0xF39 JUMP JUMPDEST JUMPDEST PUSH1 0x0 DUP3 ADD CALLDATALOAD PUSH8 0xFFFFFFFFFFFFFFFF DUP2 GT ISZERO PUSH2 0x10AC JUMPI PUSH2 0x10AB PUSH2 0xF3E JUMP JUMPDEST JUMPDEST PUSH2 0x10B8 DUP5 DUP3 DUP6 ADD PUSH2 0x104A JUMP JUMPDEST SWAP2 POP POP SWAP3 SWAP2 POP POP JUMP JUMPDEST PUSH1 0x0 PUSH8 0xFFFFFFFFFFFFFFFF DUP3 GT ISZERO PUSH2 0x10DC JUMPI PUSH2 0x10DB PUSH2 0xF4D JUMP JUMPDEST JUMPDEST PUSH1 0x20 DUP3 MUL SWAP1 POP PUSH1 0x20 DUP2 ADD SWAP1 POP SWAP2 SWAP1 POP JUMP JUMPDEST PUSH1 0x0 DUP1 REVERT JUMPDEST PUSH1 0x0 PUSH2 0x1105 PUSH2 0x1100 DUP5 PUSH2 0x10C1 JUMP JUMPDEST PUSH2 0xFAD JUMP JUMPDEST SWAP1 POP DUP1 DUP4 DUP3 MSTORE PUSH1 0x20 DUP3 ADD SWAP1 POP PUSH1 0x20 DUP5 MUL DUP4 ADD DUP6 DUP2 GT ISZERO PUSH2 0x1128 JUMPI PUSH2 0x1127 PUSH2 0x10ED JUMP JUMPDEST JUMPDEST DUP4 JUMPDEST DUP2 DUP2 LT ISZERO PUSH2 0x116F JUMPI DUP1 CALLDATALOAD PUSH8 0xFFFFFFFFFFFFFFFF DUP2 GT ISZERO PUSH2 0x114D JUMPI PUSH2 0x114C PUSH2 0xF43 JUMP JUMPDEST JUMPDEST DUP1 DUP7 ADD PUSH2 0x115A DUP10 DUP3 PUSH2 0x104A JUMP JUMPDEST DUP6 MSTORE PUSH1 0x20 DUP6 ADD SWAP5 POP POP POP PUSH1 0x20 DUP2 ADD SWAP1 POP PUSH2 0x112A JUMP JUMPDEST POP POP POP SWAP4 SWAP3 POP POP POP JUMP JUMPDEST PUSH1 0x0 DUP3 PUSH1 0x1F DUP4 ADD SLT PUSH2 0x118E JUMPI PUSH2 0x118D PUSH2 0xF43 JUMP JUMPDEST JUMPDEST DUP2 CALLDATALOAD PUSH2 0x119E DUP5 DUP3 PUSH1 0x20 DUP7 ADD PUSH2 0x10F2 JUMP JUMPDEST SWAP2 POP POP SWAP3 SWAP2 POP POP JUMP JUMPDEST PUSH1 0x0 PUSH1 0x20 DUP3 DUP5 SUB SLT ISZERO PUSH2 0x11BD JUMPI PUSH2 0x11BC PUSH2 0xF39 JUMP JUMPDEST JUMPDEST PUSH1 0x0 DUP3 ADD CALLDATALOAD PUSH8 0xFFFFFFFFFFFFFFFF DUP2 GT ISZERO PUSH2 0x11DB JUMPI PUSH2 0x11DA PUSH2 0xF3E JUMP JUMPDEST JUMPDEST PUSH2 0x11E7 DUP5 DUP3 DUP6 ADD PUSH2 0x1179 JUMP JUMPDEST SWAP2 POP POP SWAP3 SWAP2 POP POP JUMP JUMPDEST PUSH1 0x0 PUSH1 0x40 DUP4 ADD PUSH1 0x0 DUP4 ADD MLOAD PUSH2 0x1208 PUSH1 0x0 DUP7 ADD DUP3 PUSH2 0xD9B JUMP JUMPDEST POP PUSH1 0x20 DUP4 ADD MLOAD DUP5 DUP3 SUB PUSH1 0x20 DUP7 ADD MSTORE PUSH2 0x1220 DUP3 DUP3 PUSH2 0xE01 JUMP JUMPDEST SWAP2 POP POP DUP1 SWAP2 POP POP SWAP3 SWAP2 POP POP JUMP JUMPDEST PUSH1 0x0 PUSH1 0x20 DUP3 ADD SWAP1 POP DUP2 DUP2 SUB PUSH1 0x0 DUP4 ADD MSTORE PUSH2 0x1247 DUP2 DUP5 PUSH2 0x11F0 JUMP JUMPDEST SWAP1 POP SWAP3 SWAP2 POP POP JUMP JUMPDEST PUSH1 0x0 PUSH8 0xFFFFFFFFFFFFFFFF DUP3 GT ISZERO PUSH2 0x126A JUMPI PUSH2 0x1269 PUSH2 0xF4D JUMP JUMPDEST JUMPDEST PUSH1 0x20 DUP3 MUL SWAP1 POP PUSH1 0x20 DUP2 ADD SWAP1 POP SWAP2 SWAP1 POP JUMP JUMPDEST PUSH1 0x0 DUP1 REVERT JUMPDEST PUSH1 0x0 DUP1 REVERT JUMPDEST PUSH2 0x128E DUP2 PUSH2 0xD89 JUMP JUMPDEST DUP2 EQ PUSH2 0x1299 JUMPI PUSH1 0x0 DUP1 REVERT JUMPDEST POP JUMP JUMPDEST PUSH1 0x0 DUP2 CALLDATALOAD SWAP1 POP PUSH2 0x12AB DUP2 PUSH2 0x1285 JUMP JUMPDEST SWAP3 SWAP2 POP POP JUMP JUMPDEST PUSH1 0x0 PUSH1 0x40 DUP3 DUP5 SUB SLT ISZERO PUSH2 0x12C7 JUMPI PUSH2 0x12C6 PUSH2 0x127B JUMP JUMPDEST JUMPDEST PUSH2 0x12D1 PUSH1 0x40 PUSH2 0xFAD JUMP JUMPDEST SWAP1 POP PUSH1 0x0 PUSH2 0x12E1 DUP5 DUP3 DUP6 ADD PUSH2 0x129C JUMP JUMPDEST PUSH1 0x0 DUP4 ADD MSTORE POP PUSH1 0x20 DUP3 ADD CALLDATALOAD PUSH8 0xFFFFFFFFFFFFFFFF DUP2 GT ISZERO PUSH2 0x1305 JUMPI PUSH2 0x1304 PUSH2 0x1280 JUMP JUMPDEST JUMPDEST PUSH2 0x1311 DUP5 DUP3 DUP6 ADD PUSH2 0x104A JUMP JUMPDEST PUSH1 0x20 DUP4 ADD MSTORE POP SWAP3 SWAP2 POP POP JUMP JUMPDEST PUSH1 0x0 PUSH1 0x40 DUP3 DUP5 SUB SLT ISZERO PUSH2 0x1333 JUMPI PUSH2 0x1332 PUSH2 0x127B JUMP JUMPDEST JUMPDEST PUSH2 0x133D PUSH1 0x40 PUSH2 0xFAD JUMP JUMPDEST SWAP1 POP PUSH1 0x0 DUP3 ADD CALLDATALOAD PUSH8 0xFFFFFFFFFFFFFFFF DUP2 GT ISZERO PUSH2 0x135D JUMPI PUSH2 0x135C PUSH2 0x1280 JUMP JUMPDEST JUMPDEST PUSH2 0x1369 DUP5 DUP3 DUP6 ADD PUSH2 0x104A JUMP JUMPDEST PUSH1 0x0 DUP4 ADD MSTORE POP PUSH1 0x20 DUP3 ADD CALLDATALOAD PUSH8 0xFFFFFFFFFFFFFFFF DUP2 GT ISZERO PUSH2 0x138D JUMPI PUSH2 0x138C PUSH2 0x1280 JUMP JUMPDEST JUMPDEST PUSH2 0x1399 DUP5 DUP3 DUP6 ADD PUSH2 0x12B1 JUMP JUMPDEST PUSH1 0x20 DUP4 ADD MSTORE POP SWAP3 SWAP2 POP POP JUMP JUMPDEST PUSH1 0x0 PUSH2 0x13B8 PUSH2 0x13B3 DUP5 PUSH2 0x124F JUMP JUMPDEST PUSH2 0xFAD JUMP JUMPDEST SWAP1 POP DUP1 DUP4 DUP3 MSTORE PUSH1 0x20 DUP3 ADD SWAP1 POP PUSH1 0x20 DUP5 MUL DUP4 ADD DUP6 DUP2 GT ISZERO PUSH2 0x13DB JUMPI PUSH2 0x13DA PUSH2 0x10ED JUMP JUMPDEST JUMPDEST DUP4 JUMPDEST DUP2 DUP2 LT ISZERO PUSH2 0x1422 JUMPI DUP1 CALLDATALOAD PUSH8 0xFFFFFFFFFFFFFFFF DUP2 GT ISZERO PUSH2 0x1400 JUMPI PUSH2 0x13FF PUSH2 0xF43 JUMP JUMPDEST JUMPDEST DUP1 DUP7 ADD PUSH2 0x140D DUP10 DUP3 PUSH2 0x131D JUMP JUMPDEST DUP6 MSTORE PUSH1 0x20 DUP6 ADD SWAP5 POP POP POP PUSH1 0x20 DUP2 ADD SWAP1 POP PUSH2 0x13DD JUMP JUMPDEST POP POP POP SWAP4 SWAP3 POP POP POP JUMP JUMPDEST PUSH1 0x0 DUP3 PUSH1 0x1F DUP4 ADD SLT PUSH2 0x1441 JUMPI PUSH2 0x1440 PUSH2 0xF43 JUMP JUMPDEST JUMPDEST DUP2 CALLDATALOAD PUSH2 0x1451 DUP5 DUP3 PUSH1 0x20 DUP7 ADD PUSH2 0x13A5 JUMP JUMPDEST SWAP2 POP POP SWAP3 SWAP2 POP POP JUMP JUMPDEST PUSH1 0x0 PUSH1 0x20 DUP3 DUP5 SUB SLT ISZERO PUSH2 0x1470 JUMPI PUSH2 0x146F PUSH2 0xF39 JUMP JUMPDEST JUMPDEST PUSH1 0x0 DUP3 ADD CALLDATALOAD PUSH8 0xFFFFFFFFFFFFFFFF DUP2 GT ISZERO PUSH2 0x148E JUMPI PUSH2 0x148D PUSH2 0xF3E JUMP JUMPDEST JUMPDEST PUSH2 0x149A DUP5 DUP3 DUP6 ADD PUSH2 0x142C JUMP JUMPDEST SWAP2 POP POP SWAP3 SWAP2 POP POP JUMP JUMPDEST PUSH1 0x0 DUP2 MLOAD SWAP1 POP SWAP2 SWAP1 POP JUMP JUMPDEST PUSH1 0x0 DUP3 DUP3 MSTORE PUSH1 0x20 DUP3 ADD SWAP1 POP SWAP3 SWAP2 POP POP JUMP JUMPDEST PUSH1 0x0 DUP2 SWAP1 POP PUSH1 0x20 DUP3 ADD SWAP1 POP SWAP2 SWAP1 POP JUMP JUMPDEST PUSH1 0x0 PUSH2 0x14DB DUP4 DUP4 PUSH2 0xE01 JUMP JUMPDEST SWAP1 POP SWAP3 SWAP2 POP POP JUMP JUMPDEST PUSH1 0x0 PUSH1 0x20 DUP3 ADD SWAP1 POP SWAP2 SWAP1 POP JUMP JUMPDEST PUSH1 0x0 PUSH2 0x14FB DUP3 PUSH2 0x14A3 JUMP JUMPDEST PUSH2 0x1505 DUP2 DUP6 PUSH2 0x14AE JUMP JUMPDEST SWAP4 POP DUP4 PUSH1 0x20 DUP3 MUL DUP6 ADD PUSH2 0x1517 DUP6 PUSH2 0x14BF JUMP JUMPDEST DUP1 PUSH1 0x0 JUMPDEST DUP6 DUP2 LT ISZERO PUSH2 0x1553 JUMPI DUP5 DUP5 SUB DUP10 MSTORE DUP2 MLOAD PUSH2 0x1534 DUP6 DUP3 PUSH2 0x14CF JUMP JUMPDEST SWAP5 POP PUSH2 0x153F DUP4 PUSH2 0x14E3 JUMP JUMPDEST SWAP3 POP PUSH1 0x20 DUP11 ADD SWAP10 POP POP PUSH1 0x1 DUP2 ADD SWAP1 POP PUSH2 0x151B JUMP JUMPDEST POP DUP3 SWAP8 POP DUP8 SWAP6 POP POP POP POP POP POP SWAP3 SWAP2 POP POP JUMP JUMPDEST PUSH1 0x0 PUSH1 0x20 DUP3 ADD SWAP1 POP DUP2 DUP2 SUB PUSH1 0x0 DUP4 ADD MSTORE PUSH2 0x157F DUP2 DUP5 PUSH2 0x14F0 JUMP JUMPDEST SWAP1 POP SWAP3 SWAP2 POP POP JUMP JUMPDEST PUSH1 0x0 DUP1 PUSH1 0x40 DUP4 DUP6 SUB SLT ISZERO PUSH2 0x159E JUMPI PUSH2 0x159D PUSH2 0xF39 JUMP JUMPDEST JUMPDEST PUSH1 0x0 DUP4 ADD CALLDATALOAD PUSH8 0xFFFFFFFFFFFFFFFF DUP2 GT ISZERO PUSH2 0x15BC JUMPI PUSH2 0x15BB PUSH2 0xF3E JUMP JUMPDEST JUMPDEST PUSH2 0x15C8 DUP6 DUP3 DUP7 ADD PUSH2 0x104A JUMP JUMPDEST SWAP3 POP POP PUSH1 0x20 DUP4 ADD CALLDATALOAD PUSH8 0xFFFFFFFFFFFFFFFF DUP2 GT ISZERO PUSH2 0x15E9 JUMPI PUSH2 0x15E8 PUSH2 0xF3E JUMP JUMPDEST JUMPDEST PUSH2 0x15F5 DUP6 DUP3 DUP7 ADD PUSH2 0x12B1 JUMP JUMPDEST SWAP2 POP POP SWAP3 POP SWAP3 SWAP1 POP JUMP JUMPDEST PUSH32 0x4E487B7100000000000000000000000000000000000000000000000000000000 PUSH1 0x0 MSTORE PUSH1 0x32 PUSH1 0x4 MSTORE PUSH1 0x24 PUSH1 0x0 REVERT JUMPDEST PUSH32 0x4E487B7100000000000000000000000000000000000000000000000000000000 PUSH1 0x0 MSTORE PUSH1 0x22 PUSH1 0x4 MSTORE PUSH1 0x24 PUSH1 0x0 REVERT JUMPDEST PUSH1 0x0 PUSH1 0x2 DUP3 DIV SWAP1 POP PUSH1 0x1 DUP3 AND DUP1 PUSH2 0x1675 JUMPI PUSH1 0x7F DUP3 AND SWAP2 POP JUMPDEST PUSH1 0x20 DUP3 LT DUP2 SUB PUSH2 0x1688 JUMPI PUSH2 0x1687 PUSH2 0x162E JUMP JUMPDEST JUMPDEST POP SWAP2 SWAP1 POP JUMP JUMPDEST PUSH32 0x4E487B7100000000000000000000000000000000000000000000000000000000 PUSH1 0x0 MSTORE PUSH1 0x11 PUSH1 0x4 MSTORE PUSH1 0x24 PUSH1 0x0 REVERT JUMPDEST PUSH1 0x0 DUP2 SWAP1 POP SWAP2 SWAP1 POP JUMP JUMPDEST PUSH1 0x0 PUSH2 0x16D2 DUP3 PUSH2 0x16BD JUMP JUMPDEST SWAP2 POP PUSH32 0xFFFFFFFFFFFFFFFFFFFFFFFFFFFFFFFFFFFFFFFFFFFFFFFFFFFFFFFFFFFFFFFF DUP3 SUB PUSH2 0x1704 JUMPI PUSH2 0x1703 PUSH2 0x168E JUMP JUMPDEST JUMPDEST PUSH1 0x1 DUP3 ADD SWAP1 POP SWAP2 SWAP1 POP JUMP JUMPDEST PUSH1 0x0 DUP3 DUP3 MSTORE PUSH1 0x20 DUP3 ADD SWAP1 POP SWAP3 SWAP2 POP POP JUMP JUMPDEST PUSH32 0x4E4F5F4B45595300000000000000000000000000000000000000000000000000 PUSH1 0x0 DUP3 ADD MSTORE POP JUMP JUMPDEST PUSH1 0x0 PUSH2 0x1756 PUSH1 0x7 DUP4 PUSH2 0x170F JUMP JUMPDEST SWAP2 POP PUSH2 0x1761 DUP3 PUSH2 0x1720 JUMP JUMPDEST PUSH1 0x20 DUP3 ADD SWAP1 POP SWAP2 SWAP1 POP JUMP JUMPDEST PUSH1 0x0 PUSH1 0x20 DUP3 ADD SWAP1 POP DUP2 DUP2 SUB PUSH1 0x0 DUP4 ADD MSTORE PUSH2 0x1785 DUP2 PUSH2 0x1749 JUMP JUMPDEST SWAP1 POP SWAP2 SWAP1 POP JUMP JUMPDEST PUSH32 0x4E4F5F4441544100000000000000000000000000000000000000000000000000 PUSH1 0x0 DUP3 ADD MSTORE POP JUMP JUMPDEST PUSH1 0x0 PUSH2 0x17C2 PUSH1 0x7 DUP4 PUSH2 0x170F JUMP JUMPDEST SWAP2 POP PUSH2 0x17CD DUP3 PUSH2 0x178C JUMP JUMPDEST PUSH1 0x20 DUP3 ADD SWAP1 POP SWAP2 SWAP1 POP JUMP JUMPDEST PUSH1 0x0 PUSH1 0x20 DUP3 ADD SWAP1 POP DUP2 DUP2 SUB PUSH1 0x0 DUP4 ADD MSTORE PUSH2 0x17F1 DUP2 PUSH2 0x17B5 JUMP JUMPDEST SWAP1 POP SWAP2 SWAP1 POP JUMP JUMPDEST PUSH32 0x4E4F5F56414C5545000000000000000000000000000000000000000000000000 PUSH1 0x0 DUP3 ADD MSTORE POP JUMP JUMPDEST PUSH1 0x0 PUSH2 0x182E PUSH1 0x8 DUP4 PUSH2 0x170F JUMP JUMPDEST SWAP2 POP PUSH2 0x1839 DUP3 PUSH2 0x17F8 JUMP JUMPDEST PUSH1 0x20 DUP3 ADD SWAP1 POP SWAP2 SWAP1 POP JUMP JUMPDEST PUSH1 0x0 PUSH1 0x20 DUP3 ADD SWAP1 POP DUP2 DUP2 SUB PUSH1 0x0 DUP4 ADD MSTORE PUSH2 0x185D DUP2 PUSH2 0x1821 JUMP JUMPDEST SWAP1 POP SWAP2 SWAP1 POP JUMP JUMPDEST PUSH1 0x0 DUP2 SWAP1 POP SWAP3 SWAP2 POP POP JUMP JUMPDEST PUSH1 0x0 PUSH2 0x187A DUP3 PUSH2 0xDAA JUMP JUMPDEST PUSH2 0x1884 DUP2 DUP6 PUSH2 0x1864 JUMP JUMPDEST SWAP4 POP PUSH2 0x1894 DUP2 DUP6 PUSH1 0x20 DUP7 ADD PUSH2 0xDC6 JUMP JUMPDEST DUP1 DUP5 ADD SWAP2 POP POP SWAP3 SWAP2 POP POP JUMP JUMPDEST PUSH1 0x0 PUSH2 0x18AC DUP3 DUP5 PUSH2 0x186F JUMP JUMPDEST SWAP2 POP DUP2 SWAP1 POP SWAP3 SWAP2 POP POP JUMP JUMPDEST PUSH32 0x4E4F5F4F574E4552000000000000000000000000000000000000000000000000 PUSH1 0x0 DUP3 ADD MSTORE POP JUMP JUMPDEST PUSH1 0x0 PUSH2 0x18ED PUSH1 0x8 DUP4 PUSH2 0x170F JUMP JUMPDEST SWAP2 POP PUSH2 0x18F8 DUP3 PUSH2 0x18B7 JUMP JUMPDEST PUSH1 0x20 DUP3 ADD SWAP1 POP SWAP2 SWAP1 POP JUMP JUMPDEST PUSH1 0x0 PUSH1 0x20 DUP3 ADD SWAP1 POP DUP2 DUP2 SUB PUSH1 0x0 DUP4 ADD MSTORE PUSH2 0x191C DUP2 PUSH2 0x18E0 JUMP JUMPDEST SWAP1 POP SWAP2 SWAP1 POP JUMP JUMPDEST PUSH32 0x464F5242494444454E0000000000000000000000000000000000000000000000 PUSH1 0x0 DUP3 ADD MSTORE POP JUMP JUMPDEST PUSH1 0x0 PUSH2 0x1959 PUSH1 0x9 DUP4 PUSH2 0x170F JUMP JUMPDEST SWAP2 POP PUSH2 0x1964 DUP3 PUSH2 0x1923 JUMP JUMPDEST PUSH1 0x20 DUP3 ADD SWAP1 POP SWAP2 SWAP1 POP JUMP JUMPDEST PUSH1 0x0 PUSH1 0x20 DUP3 ADD SWAP1 POP DUP2 DUP2 SUB PUSH1 0x0 DUP4 ADD MSTORE PUSH2 0x1988 DUP2 PUSH2 0x194C JUMP JUMPDEST SWAP1 POP SWAP2 SWAP1 POP JUMP JUMPDEST PUSH1 0x0 DUP2 SWAP1 POP DUP2 PUSH1 0x0 MSTORE PUSH1 0x20 PUSH1 0x0 KECCAK256 SWAP1 POP SWAP2 SWAP1 POP JUMP JUMPDEST PUSH1 0x0 DUP2 SLOAD PUSH2 0x19B1 DUP2 PUSH2 0x165D JUMP JUMPDEST PUSH2 0x19BB DUP2 DUP7 PUSH2 0x1864 JUMP JUMPDEST SWAP5 POP PUSH1 0x1 DUP3 AND PUSH1 0x0 DUP2 EQ PUSH2 0x19D6 JUMPI PUSH1 0x1 DUP2 EQ PUSH2 0x19EB JUMPI PUSH2 0x1A1E JUMP JUMPDEST PUSH1 0xFF NOT DUP4 AND DUP7 MSTORE DUP2 ISZERO ISZERO DUP3 MUL DUP7 ADD SWAP4 POP PUSH2 0x1A1E JUMP JUMPDEST PUSH2 0x19F4 DUP6 PUSH2 0x198F JUMP JUMPDEST PUSH1 0x0 JUMPDEST DUP4 DUP2 LT ISZERO PUSH2 0x1A16 JUMPI DUP2 SLOAD DUP2 DUP10 ADD MSTORE PUSH1 0x1 DUP3 ADD SWAP2 POP PUSH1 0x20 DUP2 ADD SWAP1 POP PUSH2 0x19F7 JUMP JUMPDEST DUP4 DUP9 ADD SWAP6 POP POP POP JUMPDEST POP POP POP SWAP3 SWAP2 POP POP JUMP JUMPDEST PUSH1 0x0 PUSH2 0x1A33 DUP3 DUP5 PUSH2 0x19A4 JUMP JUMPDEST SWAP2 POP DUP2 SWAP1 POP SWAP3 SWAP2 POP POP JUMP JUMPDEST PUSH32 0x4E487B7100000000000000000000000000000000000000000000000000000000 PUSH1 0x0 MSTORE PUSH1 0x31 PUSH1 0x4 MSTORE PUSH1 0x24 PUSH1 0x0 REVERT JUMPDEST PUSH1 0x0 PUSH2 0x1A78 DUP3 PUSH2 0x16BD JUMP JUMPDEST SWAP2 POP PUSH2 0x1A83 DUP4 PUSH2 0x16BD JUMP JUMPDEST SWAP3 POP DUP3 DUP3 SUB SWAP1 POP DUP2 DUP2 GT ISZERO PUSH2 0x1A9B JUMPI PUSH2 0x1A9A PUSH2 0x168E JUMP JUMPDEST JUMPDEST SWAP3 SWAP2 POP POP JUMP JUMPDEST PUSH1 0x0 PUSH2 0x1AAC DUP3 PUSH2 0x16BD JUMP JUMPDEST SWAP2 POP PUSH2 0x1AB7 DUP4 PUSH2 0x16BD JUMP JUMPDEST SWAP3 POP DUP3 DUP3 ADD SWAP1 POP DUP1 DUP3 GT ISZERO PUSH2 0x1ACF JUMPI PUSH2 0x1ACE PUSH2 0x168E JUMP JUMPDEST JUMPDEST SWAP3 SWAP2 POP POP JUMP JUMPDEST PUSH1 0x0 DUP2 SLOAD SWAP1 POP PUSH2 0x1AE4 DUP2 PUSH2 0x165D JUMP JUMPDEST SWAP1 POP SWAP2 SWAP1 POP JUMP JUMPDEST PUSH1 0x0 DUP2 SWAP1 POP DUP2 PUSH1 0x0 MSTORE PUSH1 0x20 PUSH1 0x0 KECCAK256 SWAP1 POP SWAP2 SWAP1 POP JUMP JUMPDEST PUSH1 0x0 PUSH1 0x20 PUSH1 0x1F DUP4 ADD DIV SWAP1 POP SWAP2 SWAP1 POP JUMP JUMPDEST PUSH1 0x0 DUP3 DUP3 SHL SWAP1 POP SWAP3 SWAP2 POP POP JUMP JUMPDEST PUSH1 0x0 PUSH1 0x8 DUP4 MUL PUSH2 0x1B4D PUSH32 0xFFFFFFFFFFFFFFFFFFFFFFFFFFFFFFFFFFFFFFFFFFFFFFFFFFFFFFFFFFFFFFFF DUP3 PUSH2 0x1B10 JUMP JUMPDEST PUSH2 0x1B57 DUP7 DUP4 PUSH2 0x1B10 JUMP JUMPDEST SWAP6 POP DUP1 NOT DUP5 AND SWAP4 POP DUP1 DUP7 AND DUP5 OR SWAP3 POP POP POP SWAP4 SWAP3 POP POP POP JUMP JUMPDEST PUSH1 0x0 DUP2 SWAP1 POP SWAP2 SWAP1 POP JUMP JUMPDEST PUSH1 0x0 PUSH2 0x1B94 PUSH2 0x1B8F PUSH2 0x1B8A DUP5 PUSH2 0x16BD JUMP JUMPDEST PUSH2 0x1B6F JUMP JUMPDEST PUSH2 0x16BD JUMP JUMPDEST SWAP1 POP SWAP2 SWAP1 POP JUMP JUMPDEST PUSH1 0x0 DUP2 SWAP1 POP SWAP2 SWAP1 POP JUMP JUMPDEST PUSH2 0x1BAE DUP4 PUSH2 0x1B79 JUMP JUMPDEST PUSH2 0x1BC2 PUSH2 0x1BBA DUP3 PUSH2 0x1B9B JUMP JUMPDEST DUP5 DUP5 SLOAD PUSH2 0x1B1D JUMP JUMPDEST DUP3 SSTORE POP POP POP POP JUMP JUMPDEST PUSH1 0x0 SWAP1 JUMP JUMPDEST PUSH2 0x1BD7 PUSH2 0x1BCA JUMP JUMPDEST PUSH2 0x1BE2 DUP2 DUP5 DUP5 PUSH2 0x1BA5 JUMP JUMPDEST POP POP POP JUMP JUMPDEST JUMPDEST DUP2 DUP2 LT ISZERO PUSH2 0x1C06 JUMPI PUSH2 0x1BFB PUSH1 0x0 DUP3 PUSH2 0x1BCF JUMP JUMPDEST PUSH1 0x1 DUP2 ADD SWAP1 POP PUSH2 0x1BE8 JUMP JUMPDEST POP POP JUMP JUMPDEST PUSH1 0x1F DUP3 GT ISZERO PUSH2 0x1C4B JUMPI PUSH2 0x1C1C DUP2 PUSH2 0x198F JUMP JUMPDEST PUSH2 0x1C25 DUP5 PUSH2 0x1B00 JUMP JUMPDEST DUP2 ADD PUSH1 0x20 DUP6 LT ISZERO PUSH2 0x1C34 JUMPI DUP2 SWAP1 POP JUMPDEST PUSH2 0x1C48 PUSH2 0x1C40 DUP6 PUSH2 0x1B00 JUMP JUMPDEST DUP4 ADD DUP3 PUSH2 0x1BE7 JUMP JUMPDEST POP POP JUMPDEST POP POP POP JUMP JUMPDEST PUSH1 0x0 DUP3 DUP3 SHR SWAP1 POP SWAP3 SWAP2 POP POP JUMP JUMPDEST PUSH1 0x0 PUSH2 0x1C6E PUSH1 0x0 NOT DUP5 PUSH1 0x8 MUL PUSH2 0x1C50 JUMP JUMPDEST NOT DUP1 DUP4 AND SWAP2 POP POP SWAP3 SWAP2 POP POP JUMP JUMPDEST PUSH1 0x0 PUSH2 0x1C87 DUP4 DUP4 PUSH2 0x1C5D JUMP JUMPDEST SWAP2 POP DUP3 PUSH1 0x2 MUL DUP3 OR SWAP1 POP SWAP3 SWAP2 POP POP JUMP JUMPDEST DUP2 DUP2 SUB PUSH2 0x1CA5 JUMPI POP POP PUSH2 0x1D7D JUMP JUMPDEST PUSH2 0x1CAE DUP3 PUSH2 0x1AD5 JUMP JUMPDEST PUSH8 0xFFFFFFFFFFFFFFFF DUP2 GT ISZERO PUSH2 0x1CC7 JUMPI PUSH2 0x1CC6 PUSH2 0xF4D JUMP JUMPDEST JUMPDEST PUSH2 0x1CD1 DUP3 SLOAD PUSH2 0x165D JUMP JUMPDEST PUSH2 0x1CDC DUP3 DUP3 DUP6 PUSH2 0x1C0A JUMP JUMPDEST PUSH1 0x0 PUSH1 0x1F DUP4 GT PUSH1 0x1 DUP2 EQ PUSH2 0x1D0B JUMPI PUSH1 0x0 DUP5 ISZERO PUSH2 0x1CF9 JUMPI DUP3 DUP8 ADD SLOAD SWAP1 POP JUMPDEST PUSH2 0x1D03 DUP6 DUP3 PUSH2 0x1C7B JUMP JUMPDEST DUP7 SSTORE POP PUSH2 0x1D76 JUMP JUMPDEST PUSH1 0x1F NOT DUP5 AND PUSH2 0x1D19 DUP8 PUSH2 0x1AEB JUMP JUMPDEST SWAP7 POP PUSH2 0x1D24 DUP7 PUSH2 0x198F JUMP JUMPDEST PUSH1 0x0 JUMPDEST DUP3 DUP2 LT ISZERO PUSH2 0x1D4C JUMPI DUP5 DUP10 ADD SLOAD DUP3 SSTORE PUSH1 0x1 DUP3 ADD SWAP2 POP PUSH1 0x1 DUP6 ADD SWAP5 POP PUSH1 0x20 DUP2 ADD SWAP1 POP PUSH2 0x1D27 JUMP JUMPDEST DUP7 DUP4 LT ISZERO PUSH2 0x1D69 JUMPI DUP5 DUP10 ADD SLOAD PUSH2 0x1D65 PUSH1 0x1F DUP10 AND DUP3 PUSH2 0x1C5D JUMP JUMPDEST DUP4 SSTORE POP JUMPDEST PUSH1 0x1 PUSH1 0x2 DUP9 MUL ADD DUP9 SSTORE POP POP POP JUMPDEST POP POP POP POP POP POP JUMPDEST JUMP JUMPDEST PUSH2 0x1D88 DUP3 PUSH2 0xDAA JUMP JUMPDEST PUSH8 0xFFFFFFFFFFFFFFFF DUP2 GT ISZERO PUSH2 0x1DA1 JUMPI PUSH2 0x1DA0 PUSH2 0xF4D JUMP JUMPDEST JUMPDEST PUSH2 0x1DAB DUP3 SLOAD PUSH2 0x165D JUMP JUMPDEST PUSH2 0x1DB6 DUP3 DUP3 DUP6 PUSH2 0x1C0A JUMP JUMPDEST PUSH1 0x0 PUSH1 0x20 SWAP1 POP PUSH1 0x1F DUP4 GT PUSH1 0x1 DUP2 EQ PUSH2 0x1DE9 JUMPI PUSH1 0x0 DUP5 ISZERO PUSH2 0x1DD7 JUMPI DUP3 DUP8 ADD MLOAD SWAP1 POP JUMPDEST PUSH2 0x1DE1 DUP6 DUP3 PUSH2 0x1C7B JUMP JUMPDEST DUP7 SSTORE POP PUSH2 0x1E49 JUMP JUMPDEST PUSH1 0x1F NOT DUP5 AND PUSH2 0x1DF7 DUP7 PUSH2 0x198F JUMP JUMPDEST PUSH1 0x0 JUMPDEST DUP3 DUP2 LT ISZERO PUSH2 0x1E1F JUMPI DUP5 DUP10 ADD MLOAD DUP3 SSTORE PUSH1 0x1 DUP3 ADD SWAP2 POP PUSH1 0x20 DUP6 ADD SWAP5 POP PUSH1 0x20 DUP2 ADD SWAP1 POP PUSH2 0x1DFA JUMP JUMPDEST DUP7 DUP4 LT ISZERO PUSH2 0x1E3C JUMPI DUP5 DUP10 ADD MLOAD PUSH2 0x1E38 PUSH1 0x1F DUP10 AND DUP3 PUSH2 0x1C5D JUMP JUMPDEST DUP4 SSTORE POP JUMPDEST PUSH1 0x1 PUSH1 0x2 DUP9 MUL ADD DUP9 SSTORE POP POP POP JUMPDEST POP POP POP POP POP POP JUMP INVALID LOG2 PUSH5 0x6970667358 0x22 SLT KECCAK256 SHL 0xB1 0xA5 PUSH9 0x5CC77BD2ED11B812F5 SMOD PUSH12 0x1E0A92510E4DF46EB71C652B STATICCALL 0xAC 0x24 0x22 PUSH15 0x64736F6C6343000811003300000000 "
				},
				"gasEstimates": {
					"creation": {
						"codeDepositCost": "1563000",
						"executionCost": "1638",
						"totalCost": "1564638"
					},
					"external": {
						"allKeys()": "infinite",
						"allKeysData()": "infinite",
						"clearKeyData(string)": "infinite",
						"clearKeysData(string[])": "infinite",
						"getData(string)": "infinite",
						"setKeyData(string,(address,string))": "infinite",
						"setKeysData((string,(address,string))[])": "infinite"
					},
					"internal": {
						"_clearKeyData(string memory)": "infinite",
						"_keyData(string memory)": "infinite",
						"_setKeyData(string memory,struct IStorage.Data memory)": "infinite"
					}
				},
				"methodIdentifiers": {
					"allKeys()": "cb965ae9",
					"allKeysData()": "11d881b1",
					"clearKeyData(string)": "28ce8638",
					"clearKeysData(string[])": "ac193f1a",
					"getData(string)": "ae55c888",
					"setKeyData(string,(address,string))": "f14805c3",
					"setKeysData((string,(address,string))[])": "be05133c"
				}
			},
			"storageLayout": {
				"storage": [
					{
						"astId": 67,
						"contract": "source/Storage.sol:Storage",
						"label": "allData",
						"offset": 0,
						"slot": "0",
						"type": "t_mapping(t_string_memory_ptr,t_struct(Data)6_storage)"
					},
					{
						"astId": 70,
						"contract": "source/Storage.sol:Storage",
						"label": "keys",
						"offset": 0,
						"slot": "1",
						"type": "t_array(t_string_storage)dyn_storage"
					}
				],
				"types": {
					"t_address": {
						"encoding": "inplace",
						"label": "address",
						"numberOfBytes": "20"
					},
					"t_array(t_string_storage)dyn_storage": {
						"base": "t_string_storage",
						"encoding": "dynamic_array",
						"label": "string[]",
						"numberOfBytes": "32"
					},
					"t_mapping(t_string_memory_ptr,t_struct(Data)6_storage)": {
						"encoding": "mapping",
						"key": "t_string_memory_ptr",
						"label": "mapping(string => struct IStorage.Data)",
						"numberOfBytes": "32",
						"value": "t_struct(Data)6_storage"
					},
					"t_string_memory_ptr": {
						"encoding": "bytes",
						"label": "string",
						"numberOfBytes": "32"
					},
					"t_string_storage": {
						"encoding": "bytes",
						"label": "string",
						"numberOfBytes": "32"
					},
					"t_struct(Data)6_storage": {
						"encoding": "inplace",
						"label": "struct IStorage.Data",
						"members": [
							{
								"astId": 3,
								"contract": "source/Storage.sol:Storage",
								"label": "owner",
								"offset": 0,
								"slot": "0",
								"type": "t_address"
							},
							{
								"astId": 5,
								"contract": "source/Storage.sol:Storage",
								"label": "info",
								"offset": 0,
								"slot": "1",
								"type": "t_string_storage"
							}
						],
						"numberOfBytes": "64"
					}
				}
			},
			"userdoc": {
				"kind": "user",
				"methods": {},
				"version": 1
			}
		}
	}
}