{"_format":"hh-sol-artifact-1","contractName":"Storage","sourceName":"contracts/Storage.sol","abi":[{"inputs":[],"name":"allKeys","outputs":[{"internalType":"string[]","name":"","type":"string[]"}],"stateMutability":"view","type":"function"},{"inputs":[],"name":"allKeysData","outputs":[{"components":[{"internalType":"address","name":"owner","type":"address"},{"internalType":"string","name":"info","type":"string"}],"internalType":"struct IStorage.Data[]","name":"","type":"tuple[]"}],"stateMutability":"view","type":"function"},{"inputs":[{"internalType":"string","name":"_key","type":"string"}],"name":"clearKeyData","outputs":[],"stateMutability":"nonpayable","type":"function"},{"inputs":[{"internalType":"string[]","name":"_keys","type":"string[]"}],"name":"clearKeysData","outputs":[],"stateMutability":"nonpayable","type":"function"},{"inputs":[{"internalType":"string","name":"_key","type":"string"}],"name":"getData","outputs":[{"components":[{"internalType":"address","name":"owner","type":"address"},{"internalType":"string","name":"info","type":"string"}],"internalType":"struct IStorage.Data","name":"","type":"tuple"}],"stateMutability":"view","type":"function"},{"inputs":[{"internalType":"string","name":"_key","type":"string"},{"components":[{"internalType":"address","name":"owner","type":"address"},{"internalType":"string","name":"info","type":"string"}],"internalType":"struct IStorage.Data","name":"_data","type":"tuple"}],"name":"setKeyData","outputs":[],"stateMutability":"nonpayable","type":"function"},{"inputs":[{"components":[{"internalType":"string","name":"key","type":"string"},{"components":[{"internalType":"address","name":"owner","type":"address"},{"internalType":"string","name":"info","type":"string"}],"internalType":"struct IStorage.Data","name":"data","type":"tuple"}],"internalType":"struct IStorage.KeyData[]","name":"_keysData","type":"tuple[]"}],"name":"setKeysData","outputs":[],"stateMutability":"nonpayable","type":"function"}],"bytecode":"0x608060405234801561001057600080fd5b50611698806100206000396000f3fe608060405234801561001057600080fd5b506004361061007d5760003560e01c8063ae55c8881161005b578063ae55c888146100c8578063be05133c146100e8578063cb965ae9146100fb578063f14805c31461011057600080fd5b806311d881b11461008257806328ce8638146100a0578063ac193f1a146100b5575b600080fd5b61008a610123565b6040516100979190610eea565b60405180910390f35b6100b36100ae36600461109f565b61027e565b005b6100b36100c33660046110f8565b61028a565b6100db6100d636600461109f565b61033e565b60405161009791906111ae565b6100b36100f636600461123c565b610362565b61010361042f565b6040516100979190611359565b6100b361011e3660046113cc565b610508565b60015460609060009067ffffffffffffffff81111561014457610144610f6a565b60405190808252806020026020018201604052801561018a57816020015b6040805180820190915260008152606060208201528152602001906001900390816101625790505b50905060005b60015481101561027857610248600182815481106101b0576101b0611430565b9060005260206000200180546101c59061145f565b80601f01602080910402602001604051908101604052809291908181526020018280546101f19061145f565b801561023e5780601f106102135761010080835404028352916020019161023e565b820191906000526020600020905b81548152906001019060200180831161022157829003601f168201915b5050505050610512565b82828151811061025a5761025a611430565b60200260200101819052508080610270906114dc565b915050610190565b50919050565b61028781610690565b50565b60008151116102fa576040517f08c379a000000000000000000000000000000000000000000000000000000000815260206004820152600760248201527f4e4f5f4b4559530000000000000000000000000000000000000000000000000060448201526064015b60405180910390fd5b60005b815181101561033a5761032882828151811061031b5761031b611430565b6020026020010151610690565b80610332816114dc565b9150506102fd565b5050565b60408051808201909152600081526060602082015261035c82610512565b92915050565b60008151116103cd576040517f08c379a000000000000000000000000000000000000000000000000000000000815260206004820152600760248201527f4e4f5f444154410000000000000000000000000000000000000000000000000060448201526064016102f1565b60005b815181101561033a5761041d8282815181106103ee576103ee611430565b60200260200101516000015183838151811061040c5761040c611430565b602002602001015160200151610aa6565b80610427816114dc565b9150506103d0565b60606001805480602002602001604051908101604052809291908181526020016000905b828210156104ff5783829060005260206000200180546104729061145f565b80601f016020809104026020016040519081016040528092919081815260200182805461049e9061145f565b80156104eb5780601f106104c0576101008083540402835291602001916104eb565b820191906000526020600020905b8154815290600101906020018083116104ce57829003601f168201915b505050505081526020019060010190610453565b50505050905090565b61033a8282610aa6565b604080518082019091526000815260606020820152815182908190610593576040517f08c379a000000000000000000000000000000000000000000000000000000000815260206004820152600860248201527f4e4f5f56414c554500000000000000000000000000000000000000000000000060448201526064016102f1565b60405180604001604052806000866040516105ae9190611515565b90815260408051602092819003830190205473ffffffffffffffffffffffffffffffffffffffff168352519101906000906105ea908890611515565b908152602001604051809103902060010180546106069061145f565b80601f01602080910402602001604051908101604052809291908181526020018280546106329061145f565b801561067f5780601f106106545761010080835404028352916020019161067f565b820191906000526020600020905b81548152906001019060200180831161066257829003601f168201915b505050505081525092505050919050565b8051819081906106fc576040517f08c379a000000000000000000000000000000000000000000000000000000000815260206004820152600860248201527f4e4f5f56414c554500000000000000000000000000000000000000000000000060448201526064016102f1565b82600073ffffffffffffffffffffffffffffffffffffffff166000826040516107259190611515565b9081526040519081900360200190205473ffffffffffffffffffffffffffffffffffffffff1614156107b3576040517f08c379a000000000000000000000000000000000000000000000000000000000815260206004820152600860248201527f4e4f5f4f574e455200000000000000000000000000000000000000000000000060448201526064016102f1565b6000816040516107c39190611515565b908152604051908190036020019020543373ffffffffffffffffffffffffffffffffffffffff90911614610853576040517f08c379a000000000000000000000000000000000000000000000000000000000815260206004820152600960248201527f464f5242494444454e000000000000000000000000000000000000000000000060448201526064016102f1565b6000846040516108639190611515565b90815260405190819003602001902080547fffffffffffffffffffffffff000000000000000000000000000000000000000016815560006108a76001830182610ce9565b50506001546108b557610aa0565b60018054141561096557836040516020016108d09190611515565b6040516020818303038152906040528051906020012060016000815481106108fa576108fa611430565b906000526020600020016040516020016109149190611531565b60405160208183030381529060405280519060200120141561096057600180548061094157610941611604565b60019003818190600052602060002001600061095d9190610ce9565b90555b610aa0565b6000805b600180546109779190611633565b811015610a67578560405160200161098f9190611515565b60405160208183030381529060405280519060200120600182815481106109b8576109b8611430565b906000526020600020016040516020016109d29190611531565b6040516020818303038152906040528051906020012014156109f357600191505b8115610a55576001610a05828261164a565b81548110610a1557610a15611430565b9060005260206000200160018281548110610a3257610a32611430565b90600052602060002001908054610a489061145f565b610a53929190610d23565b505b80610a5f816114dc565b915050610969565b508015610a9e576001805480610a7f57610a7f611604565b600190038181906000526020600020016000610a9b9190610ce9565b90555b505b50505050565b815182908190610b12576040517f08c379a000000000000000000000000000000000000000000000000000000000815260206004820152600860248201527f4e4f5f56414c554500000000000000000000000000000000000000000000000060448201526064016102f1565b600073ffffffffffffffffffffffffffffffffffffffff16600085604051610b3a9190611515565b9081526040519081900360200190205473ffffffffffffffffffffffffffffffffffffffff1614610c0a57600084604051610b759190611515565b908152604051908190036020019020543373ffffffffffffffffffffffffffffffffffffffff90911614610c05576040517f08c379a000000000000000000000000000000000000000000000000000000000815260206004820152600960248201527f464f5242494444454e000000000000000000000000000000000000000000000060448201526064016102f1565b610c4e565b6001805480820182556000919091528451610c4c917fb10e2d527612073b26eecdfd717e6a320cf44b4afac2b0732d9fcbe2b7fa0cf601906020870190610dae565b505b8251604051600090610c61908790611515565b908152602001604051809103902060000160006101000a81548173ffffffffffffffffffffffffffffffffffffffff021916908373ffffffffffffffffffffffffffffffffffffffff1602179055508260200151600085604051610cc59190611515565b90815260200160405180910390206001019080519060200190610a9e929190610dae565b508054610cf59061145f565b6000825580601f10610d05575050565b601f0160209004906000526020600020908101906102879190610e22565b828054610d2f9061145f565b90600052602060002090601f016020900481019282610d515760008555610d9e565b82601f10610d625780548555610d9e565b82800160010185558215610d9e57600052602060002091601f016020900482015b82811115610d9e578254825591600101919060010190610d83565b50610daa929150610e22565b5090565b828054610dba9061145f565b90600052602060002090601f016020900481019282610ddc5760008555610d9e565b82601f10610df557805160ff1916838001178555610d9e565b82800160010185558215610d9e579182015b82811115610d9e578251825591602001919060010190610e07565b5b80821115610daa5760008155600101610e23565b60005b83811015610e52578181015183820152602001610e3a565b83811115610aa05750506000910152565b60008151808452610e7b816020860160208601610e37565b601f017fffffffffffffffffffffffffffffffffffffffffffffffffffffffffffffffe0169290920160200192915050565b73ffffffffffffffffffffffffffffffffffffffff81511682526000602082015160406020850152610ee26040850182610e63565b949350505050565b6000602080830181845280855180835260408601915060408160051b870101925083870160005b82811015610f5d577fffffffffffffffffffffffffffffffffffffffffffffffffffffffffffffffc0888603018452610f4b858351610ead565b94509285019290850190600101610f11565b5092979650505050505050565b7f4e487b7100000000000000000000000000000000000000000000000000000000600052604160045260246000fd5b6040805190810167ffffffffffffffff81118282101715610fbc57610fbc610f6a565b60405290565b604051601f82017fffffffffffffffffffffffffffffffffffffffffffffffffffffffffffffffe016810167ffffffffffffffff8111828210171561100957611009610f6a565b604052919050565b600082601f83011261102257600080fd5b813567ffffffffffffffff81111561103c5761103c610f6a565b61106d60207fffffffffffffffffffffffffffffffffffffffffffffffffffffffffffffffe0601f84011601610fc2565b81815284602083860101111561108257600080fd5b816020850160208301376000918101602001919091529392505050565b6000602082840312156110b157600080fd5b813567ffffffffffffffff8111156110c857600080fd5b610ee284828501611011565b600067ffffffffffffffff8211156110ee576110ee610f6a565b5060051b60200190565b6000602080838503121561110b57600080fd5b823567ffffffffffffffff8082111561112357600080fd5b818501915085601f83011261113757600080fd5b813561114a611145826110d4565b610fc2565b81815260059190911b8301840190848101908883111561116957600080fd5b8585015b838110156111a1578035858111156111855760008081fd5b6111938b89838a0101611011565b84525091860191860161116d565b5098975050505050505050565b6020815260006111c16020830184610ead565b9392505050565b6000604082840312156111da57600080fd5b6111e2610f99565b9050813573ffffffffffffffffffffffffffffffffffffffff8116811461120857600080fd5b8152602082013567ffffffffffffffff81111561122457600080fd5b61123084828501611011565b60208301525092915050565b6000602080838503121561124f57600080fd5b823567ffffffffffffffff8082111561126757600080fd5b818501915085601f83011261127b57600080fd5b8135611289611145826110d4565b81815260059190911b830184019084810190888311156112a857600080fd5b8585015b838110156111a1578035858111156112c45760008081fd5b86016040818c037fffffffffffffffffffffffffffffffffffffffffffffffffffffffffffffffe0018113156112fa5760008081fd5b611302610f99565b89830135888111156113145760008081fd5b6113228e8c83870101611011565b8252509082013590878211156113385760008081fd5b6113468d8b848601016111c8565b818b0152855250509186019186016112ac565b6000602080830181845280855180835260408601915060408160051b870101925083870160005b82811015610f5d577fffffffffffffffffffffffffffffffffffffffffffffffffffffffffffffffc08886030184526113ba858351610e63565b94509285019290850190600101611380565b600080604083850312156113df57600080fd5b823567ffffffffffffffff808211156113f757600080fd5b61140386838701611011565b9350602085013591508082111561141957600080fd5b50611426858286016111c8565b9150509250929050565b7f4e487b7100000000000000000000000000000000000000000000000000000000600052603260045260246000fd5b600181811c9082168061147357607f821691505b60208210811415610278577f4e487b7100000000000000000000000000000000000000000000000000000000600052602260045260246000fd5b7f4e487b7100000000000000000000000000000000000000000000000000000000600052601160045260246000fd5b60007fffffffffffffffffffffffffffffffffffffffffffffffffffffffffffffffff82141561150e5761150e6114ad565b5060010190565b60008251611527818460208701610e37565b9190910192915050565b600080835481600182811c91508083168061154d57607f831692505b6020808410821415611586577f4e487b710000000000000000000000000000000000000000000000000000000086526022600452602486fd5b81801561159a57600181146115c9576115f6565b7fffffffffffffffffffffffffffffffffffffffffffffffffffffffffffffff008616895284890196506115f6565b60008a81526020902060005b868110156115ee5781548b8201529085019083016115d5565b505084890196505b509498975050505050505050565b7f4e487b7100000000000000000000000000000000000000000000000000000000600052603160045260246000fd5b600082821015611645576116456114ad565b500390565b6000821982111561165d5761165d6114ad565b50019056fea26469706673582212206d68b52887aebf96199744b42f4219bbf102a36ae9df5ea32e27cf310af954e164736f6c634300080c0033","linkReferences":{},"deployedLinkReferences":{}}