{
	"data": {
		"bytecode": {
			"linkReferences": {},
			"object": "6080604052620186a060055560036006556007805460ff1916905560006008553480156200002c57600080fd5b5060405162001851380380620018518339810160408190526200004f9162000138565b60016000819055805460ff191690556200006933620000c5565b600380546001600160a01b039687166001600160a01b0319918216811790925560048054821690921790915560028054959096169416939093179093556005556008556007805491151560ff19909216919091179055620001a4565b600180546001600160a01b03838116610100818102610100600160a81b031985161790945560405193909204169182907f8be0079c531659141344cd1fd0a4f28419497f9722a3daafe3b4186f6b6457e090600090a35050565b6001600160a01b03811681146200013557600080fd5b50565b600080600080600060a086880312156200015157600080fd5b85516200015e816200011f565b602087015190955062000171816200011f565b60408701516060880151919550935080151581146200018f57600080fd5b80925050608086015190509295509295909350565b61169d80620001b46000396000f3fe608060405234801561001057600080fd5b506004361061014d5760003560e01c8063715018a6116100c3578063ae04d45d1161007c578063ae04d45d1461030b578063b5a5e5091461031e578063d1af0c7d14610331578063f2fde38b14610344578063f854a27f14610357578063f995441b1461036a57600080fd5b8063715018a61461025e5780638da5cb5b146102665780638e7271fa1461027c5780639168ae721461028557806394067045146102cf578063a694fc3a146102f857600080fd5b8063372500ab11610115578063372500ab146101e457806354fd4d50146101ec5780635c975abb146101f557806363c28db1146102005780636588103b146102205780636aa4439f1461024b57600080fd5b80630c2517a8146101525780630d6680871461017b578063114cd3c8146101925780632e1a7d4d146101b25780633166b848146101c7575b600080fd5b6101656101603660046113c2565b610372565b60405161017291906113df565b60405180910390f35b61018460085481565b604051908152602001610172565b6101846101a0366004611441565b600b6020526000908152604090205481565b6101c56101c0366004611441565b6105ae565b005b6007546101d49060ff1681565b6040519015158152602001610172565b6101c561092f565b61018460065481565b60015460ff166101d4565b61021361020e3660046113c2565b6109e2565b604051610172919061145a565b600354610233906001600160a01b031681565b6040516001600160a01b039091168152602001610172565b6101c56102593660046114b3565b610af1565b6101c5610b0c565b60015461010090046001600160a01b0316610233565b61018460055481565b6102b46102933660046113c2565b60096020526000908152604090208054600282015460039092015490919083565b60408051938452602084019290925290820152606001610172565b6102336102dd366004611441565b600a602052600090815260409020546001600160a01b031681565b6101c5610306366004611441565b610b20565b6101c5610319366004611441565b610b44565b6101c561032c366004611441565b610b51565b600254610233906001600160a01b031681565b6101c56103523660046113c2565b610b5e565b6101846103653660046113c2565b610bd4565b6101c5610c0c565b6001600160a01b03811660009081526009602052604090205460609015610551576001600160a01b03821660009081526009602052604081205467ffffffffffffffff8111156103c4576103c46114d0565b60405190808252806020026020018201604052801561042257816020015b61040f604051806060016040528060006001600160a01b0316815260200160008152602001600081525090565b8152602001906001900390816103e25790505b5090506000805b6001600160a01b038516600090815260096020526040902060010154811015610548576001600160a01b0385166000908152600960205260408120600101805483908110610479576104796114e6565b60009182526020909120600390910201546001600160a01b031614610536576001600160a01b03851660009081526009602052604090206001018054829081106104c5576104c56114e6565b600091825260209182902060408051606081018252600390930290910180546001600160a01b0316835260018101549383019390935260029092015491810191909152835184908490811061051c5761051c6114e6565b6020026020010181905250818061053290611512565b9250505b8061054081611512565b915050610429565b50909392505050565b60408051600080825260208201909252906105a7565b610594604051806060016040528060006001600160a01b0316815260200160008152602001600081525090565b8152602001906001900390816105675790505b5092915050565b6105b6610ca3565b336000908152600960205260409020546106175760405162461bcd60e51b815260206004820152601960248201527f596f752068617665206e6f20746f6b656e73207374616b65640000000000000060448201526064015b60405180910390fd5b6000818152600a60205260409020546001600160a01b031633146106795760405162461bcd60e51b8152602060048201526019602482015278596f7520646f6e2774206f776e207468697320746f6b656e2160381b604482015260640161060e565b60075460ff1680156106a557506008546000828152600b602052604090205442916106a39161152b565b105b806106b3575060075460ff16155b61070b5760405162461bcd60e51b815260206004820152602360248201527f546f6b656e206c6f636b2074696d6520686173206e6f742079657420657870696044820152621c995960ea1b606482015260840161060e565b600061071633610cfc565b3360009081526009602052604081206003018054929350839290919061073d90849061152b565b9091555060009050805b3360009081526009602052604090206001015481101561080257336000908152600960205260409020600101805485919083908110610788576107886114e6565b9060005260206000209060030201600101541480156107e357503360009081526009602052604081206001018054839081106107c6576107c66114e6565b60009182526020909120600390910201546001600160a01b031614155b156107f057809150610802565b806107fa81611512565b915050610747565b50336000908152600960205260408120600101805483908110610827576108276114e6565b6000918252602080832060039290920290910180546001600160a01b0319166001600160a01b0394909416939093179092553381526009909152604081208054916108718361153e565b90915550506000838152600a6020908152604080832080546001600160a01b0319169055600b9091528082209190915560035490516323b872dd60e01b8152306004820152336024820152604481018590526001600160a01b03909116906323b872dd90606401600060405180830381600087803b1580156108f257600080fd5b505af1158015610906573d6000803e3d6000fd5b5050336000908152600960205260409020426002909101555061092c9250610d56915050565b50565b33600081815260096020526040812060030154909161094d90610cfc565b610957919061152b565b9050600081116109a95760405162461bcd60e51b815260206004820152601c60248201527f596f752068617665206e6f207265776172647320746f20636c61696d00000000604482015260640161060e565b336000818152600960205260408120426002808301919091556003909101919091555461092c916001600160a01b039091169083610d5d565b606060006109ef83610372565b90506000815167ffffffffffffffff811115610a0d57610a0d6114d0565b604051908082528060200260200182016040528015610a5257816020015b6040805180820190915260008082526020820152815260200190600190039081610a2b5790505b50905060005b8251811115610ae9576040518060400160405280848381518110610a7e57610a7e6114e6565b6020026020010151600001516001600160a01b03168152602001848381518110610aaa57610aaa6114e6565b602002602001015160200151815250828281518110610acb57610acb6114e6565b60200260200101819052508080610ae190611512565b915050610a58565b509392505050565b610af9610db4565b6007805460ff1916911515919091179055565b610b14610db4565b610b1e6000610e14565b565b610b28610ca3565b610b30610e6e565b610b3a3382610eb4565b61092c6001600055565b610b4c610db4565b600855565b610b59610db4565b600555565b610b66610db4565b6001600160a01b038116610bcb5760405162461bcd60e51b815260206004820152602660248201527f4f776e61626c653a206e6577206f776e657220697320746865207a65726f206160448201526564647265737360d01b606482015260840161060e565b61092c81610e14565b6001600160a01b0381166000908152600960205260408120600301548190610bfb84610cfc565b610c05919061152b565b9392505050565b610c14610db4565b610c1c61111a565b6002546040516370a0823160e01b81523060048201526000916001600160a01b0316906370a0823190602401602060405180830381865afa158015610c65573d6000803e3d6000fd5b505050506040513d601f19601f82011682018060405250810190610c899190611555565b60025490915061092c906001600160a01b03163383610d5d565b600260005403610cf55760405162461bcd60e51b815260206004820152601f60248201527f5265656e7472616e637947756172643a207265656e7472616e742063616c6c00604482015260640161060e565b6002600055565b6005546001600160a01b038216600090815260096020526040812080546002909101549192610e1092909190610d32904261156e565b610d3c9190611581565b610d469190611581565b610d509190611598565b92915050565b6001600055565b604080516001600160a01b038416602482015260448082018490528251808303909101815260649091019091526020810180516001600160e01b031663a9059cbb60e01b179052610daf908490611163565b505050565b6001546001600160a01b03610100909104163314610b1e5760405162461bcd60e51b815260206004820181905260248201527f4f776e61626c653a2063616c6c6572206973206e6f7420746865206f776e6572604482015260640161060e565b600180546001600160a01b03838116610100818102610100600160a81b031985161790945560405193909204169182907f8be0079c531659141344cd1fd0a4f28419497f9722a3daafe3b4186f6b6457e090600090a35050565b60015460ff1615610b1e5760405162461bcd60e51b815260206004820152601060248201526f14185d5cd8589b194e881c185d5cd95960821b604482015260640161060e565b6003546040516331a9108f60e11b8152600481018390526001600160a01b03848116921690636352211e90602401602060405180830381865afa158015610eff573d6000803e3d6000fd5b505050506040513d601f19601f82011682018060405250810190610f2391906115ba565b6001600160a01b031614610f755760405162461bcd60e51b8152602060048201526019602482015278596f7520646f6e2774206f776e207468697320746f6b656e2160381b604482015260640161060e565b6001600160a01b03821660009081526009602052604090205415610fd5576000610f9e83610cfc565b6001600160a01b038416600090815260096020526040812060030180549293508392909190610fce90849061152b565b9091555050505b6003546040516323b872dd60e01b81526001600160a01b03848116600483015230602483015260448201849052909116906323b872dd90606401600060405180830381600087803b15801561102957600080fd5b505af115801561103d573d6000803e3d6000fd5b5050604080516060810182526001600160a01b03868116808352602080840188815242858701908152600084815260098452968720600180820180548083018255908a52948920885160039096020180546001600160a01b03191695909716949094178655915192850192909255905160029093019290925583528054919450909250906110ca83611512565b9091555050506000908152600a6020908152604080832080546001600160a01b039095166001600160a01b031990951685179055600b825280832042908190559383526009909152902060020155565b60015460ff16610b1e5760405162461bcd60e51b815260206004820152601460248201527314185d5cd8589b194e881b9bdd081c185d5cd95960621b604482015260640161060e565b60006111b8826040518060400160405280602081526020017f5361666545524332303a206c6f772d6c6576656c2063616c6c206661696c6564815250856001600160a01b03166112359092919063ffffffff16565b805190915015610daf57808060200190518101906111d691906115d7565b610daf5760405162461bcd60e51b815260206004820152602a60248201527f5361666545524332303a204552433230206f7065726174696f6e20646964206e6044820152691bdd081cdd58d8d9595960b21b606482015260840161060e565b6060611244848460008561124c565b949350505050565b6060824710156112ad5760405162461bcd60e51b815260206004820152602660248201527f416464726573733a20696e73756666696369656e742062616c616e636520666f6044820152651c8818d85b1b60d21b606482015260840161060e565b843b6112fb5760405162461bcd60e51b815260206004820152601d60248201527f416464726573733a2063616c6c20746f206e6f6e2d636f6e7472616374000000604482015260640161060e565b600080866001600160a01b031685876040516113179190611618565b60006040518083038185875af1925050503d8060008114611354576040519150601f19603f3d011682016040523d82523d6000602084013e611359565b606091505b5091509150611369828286611374565b979650505050505050565b60608315611383575081610c05565b8251156113935782518084602001fd5b8160405162461bcd60e51b815260040161060e9190611634565b6001600160a01b038116811461092c57600080fd5b6000602082840312156113d457600080fd5b8135610c05816113ad565b602080825282518282018190526000919060409081850190868401855b8281101561143457815180516001600160a01b03168552868101518786015285015185850152606090930192908501906001016113fc565b5091979650505050505050565b60006020828403121561145357600080fd5b5035919050565b602080825282518282018190526000919060409081850190868401855b8281101561143457815180516001600160a01b03168552860151868501529284019290850190600101611477565b801515811461092c57600080fd5b6000602082840312156114c557600080fd5b8135610c05816114a5565b634e487b7160e01b600052604160045260246000fd5b634e487b7160e01b600052603260045260246000fd5b634e487b7160e01b600052601160045260246000fd5b600060018201611524576115246114fc565b5060010190565b80820180821115610d5057610d506114fc565b60008161154d5761154d6114fc565b506000190190565b60006020828403121561156757600080fd5b5051919050565b81810381811115610d5057610d506114fc565b8082028115828204841417610d5057610d506114fc565b6000826115b557634e487b7160e01b600052601260045260246000fd5b500490565b6000602082840312156115cc57600080fd5b8151610c05816113ad565b6000602082840312156115e957600080fd5b8151610c05816114a5565b60005b8381101561160f5781810151838201526020016115f7565b50506000910152565b6000825161162a8184602087016115f4565b9190910192915050565b60208152600082518060208401526116538160408501602087016115f4565b601f01601f1916919091016040019291505056fea264697066735822122031a6ba8384db8430167747d143d3222bb10865f21fe12da799b4e1ecd6d816ba64736f6c63430008120033",
			"opcodes": "PUSH1 0x80 PUSH1 0x40 MSTORE PUSH3 0x186A0 PUSH1 0x5 SSTORE PUSH1 0x3 PUSH1 0x6 SSTORE PUSH1 0x7 DUP1 SLOAD PUSH1 0xFF NOT AND SWAP1 SSTORE PUSH1 0x0 PUSH1 0x8 SSTORE CALLVALUE DUP1 ISZERO PUSH3 0x2C JUMPI PUSH1 0x0 DUP1 REVERT JUMPDEST POP PUSH1 0x40 MLOAD PUSH3 0x1851 CODESIZE SUB DUP1 PUSH3 0x1851 DUP4 CODECOPY DUP2 ADD PUSH1 0x40 DUP2 SWAP1 MSTORE PUSH3 0x4F SWAP2 PUSH3 0x138 JUMP JUMPDEST PUSH1 0x1 PUSH1 0x0 DUP2 SWAP1 SSTORE DUP1 SLOAD PUSH1 0xFF NOT AND SWAP1 SSTORE PUSH3 0x69 CALLER PUSH3 0xC5 JUMP JUMPDEST PUSH1 0x3 DUP1 SLOAD PUSH1 0x1 PUSH1 0x1 PUSH1 0xA0 SHL SUB SWAP7 DUP8 AND PUSH1 0x1 PUSH1 0x1 PUSH1 0xA0 SHL SUB NOT SWAP2 DUP3 AND DUP2 OR SWAP1 SWAP3 SSTORE PUSH1 0x4 DUP1 SLOAD DUP3 AND SWAP1 SWAP3 OR SWAP1 SWAP2 SSTORE PUSH1 0x2 DUP1 SLOAD SWAP6 SWAP1 SWAP7 AND SWAP5 AND SWAP4 SWAP1 SWAP4 OR SWAP1 SWAP4 SSTORE PUSH1 0x5 SSTORE PUSH1 0x8 SSTORE PUSH1 0x7 DUP1 SLOAD SWAP2 ISZERO ISZERO PUSH1 0xFF NOT SWAP1 SWAP3 AND SWAP2 SWAP1 SWAP2 OR SWAP1 SSTORE PUSH3 0x1A4 JUMP JUMPDEST PUSH1 0x1 DUP1 SLOAD PUSH1 0x1 PUSH1 0x1 PUSH1 0xA0 SHL SUB DUP4 DUP2 AND PUSH2 0x100 DUP2 DUP2 MUL PUSH2 0x100 PUSH1 0x1 PUSH1 0xA8 SHL SUB NOT DUP6 AND OR SWAP1 SWAP5 SSTORE PUSH1 0x40 MLOAD SWAP4 SWAP1 SWAP3 DIV AND SWAP2 DUP3 SWAP1 PUSH32 0x8BE0079C531659141344CD1FD0A4F28419497F9722A3DAAFE3B4186F6B6457E0 SWAP1 PUSH1 0x0 SWAP1 LOG3 POP POP JUMP JUMPDEST PUSH1 0x1 PUSH1 0x1 PUSH1 0xA0 SHL SUB DUP2 AND DUP2 EQ PUSH3 0x135 JUMPI PUSH1 0x0 DUP1 REVERT JUMPDEST POP JUMP JUMPDEST PUSH1 0x0 DUP1 PUSH1 0x0 DUP1 PUSH1 0x0 PUSH1 0xA0 DUP7 DUP9 SUB SLT ISZERO PUSH3 0x151 JUMPI PUSH1 0x0 DUP1 REVERT JUMPDEST DUP6 MLOAD PUSH3 0x15E DUP2 PUSH3 0x11F JUMP JUMPDEST PUSH1 0x20 DUP8 ADD MLOAD SWAP1 SWAP6 POP PUSH3 0x171 DUP2 PUSH3 0x11F JUMP JUMPDEST PUSH1 0x40 DUP8 ADD MLOAD PUSH1 0x60 DUP9 ADD MLOAD SWAP2 SWAP6 POP SWAP4 POP DUP1 ISZERO ISZERO DUP2 EQ PUSH3 0x18F JUMPI PUSH1 0x0 DUP1 REVERT JUMPDEST DUP1 SWAP3 POP POP PUSH1 0x80 DUP7 ADD MLOAD SWAP1 POP SWAP3 SWAP6 POP SWAP3 SWAP6 SWAP1 SWAP4 POP JUMP JUMPDEST PUSH2 0x169D DUP1 PUSH3 0x1B4 PUSH1 0x0 CODECOPY PUSH1 0x0 RETURN INVALID PUSH1 0x80 PUSH1 0x40 MSTORE CALLVALUE DUP1 ISZERO PUSH2 0x10 JUMPI PUSH1 0x0 DUP1 REVERT JUMPDEST POP PUSH1 0x4 CALLDATASIZE LT PUSH2 0x14D JUMPI PUSH1 0x0 CALLDATALOAD PUSH1 0xE0 SHR DUP1 PUSH4 0x715018A6 GT PUSH2 0xC3 JUMPI DUP1 PUSH4 0xAE04D45D GT PUSH2 0x7C JUMPI DUP1 PUSH4 0xAE04D45D EQ PUSH2 0x30B JUMPI DUP1 PUSH4 0xB5A5E509 EQ PUSH2 0x31E JUMPI DUP1 PUSH4 0xD1AF0C7D EQ PUSH2 0x331 JUMPI DUP1 PUSH4 0xF2FDE38B EQ PUSH2 0x344 JUMPI DUP1 PUSH4 0xF854A27F EQ PUSH2 0x357 JUMPI DUP1 PUSH4 0xF995441B EQ PUSH2 0x36A JUMPI PUSH1 0x0 DUP1 REVERT JUMPDEST DUP1 PUSH4 0x715018A6 EQ PUSH2 0x25E JUMPI DUP1 PUSH4 0x8DA5CB5B EQ PUSH2 0x266 JUMPI DUP1 PUSH4 0x8E7271FA EQ PUSH2 0x27C JUMPI DUP1 PUSH4 0x9168AE72 EQ PUSH2 0x285 JUMPI DUP1 PUSH4 0x94067045 EQ PUSH2 0x2CF JUMPI DUP1 PUSH4 0xA694FC3A EQ PUSH2 0x2F8 JUMPI PUSH1 0x0 DUP1 REVERT JUMPDEST DUP1 PUSH4 0x372500AB GT PUSH2 0x115 JUMPI DUP1 PUSH4 0x372500AB EQ PUSH2 0x1E4 JUMPI DUP1 PUSH4 0x54FD4D50 EQ PUSH2 0x1EC JUMPI DUP1 PUSH4 0x5C975ABB EQ PUSH2 0x1F5 JUMPI DUP1 PUSH4 0x63C28DB1 EQ PUSH2 0x200 JUMPI DUP1 PUSH4 0x6588103B EQ PUSH2 0x220 JUMPI DUP1 PUSH4 0x6AA4439F EQ PUSH2 0x24B JUMPI PUSH1 0x0 DUP1 REVERT JUMPDEST DUP1 PUSH4 0xC2517A8 EQ PUSH2 0x152 JUMPI DUP1 PUSH4 0xD668087 EQ PUSH2 0x17B JUMPI DUP1 PUSH4 0x114CD3C8 EQ PUSH2 0x192 JUMPI DUP1 PUSH4 0x2E1A7D4D EQ PUSH2 0x1B2 JUMPI DUP1 PUSH4 0x3166B848 EQ PUSH2 0x1C7 JUMPI JUMPDEST PUSH1 0x0 DUP1 REVERT JUMPDEST PUSH2 0x165 PUSH2 0x160 CALLDATASIZE PUSH1 0x4 PUSH2 0x13C2 JUMP JUMPDEST PUSH2 0x372 JUMP JUMPDEST PUSH1 0x40 MLOAD PUSH2 0x172 SWAP2 SWAP1 PUSH2 0x13DF JUMP JUMPDEST PUSH1 0x40 MLOAD DUP1 SWAP2 SUB SWAP1 RETURN JUMPDEST PUSH2 0x184 PUSH1 0x8 SLOAD DUP2 JUMP JUMPDEST PUSH1 0x40 MLOAD SWAP1 DUP2 MSTORE PUSH1 0x20 ADD PUSH2 0x172 JUMP JUMPDEST PUSH2 0x184 PUSH2 0x1A0 CALLDATASIZE PUSH1 0x4 PUSH2 0x1441 JUMP JUMPDEST PUSH1 0xB PUSH1 0x20 MSTORE PUSH1 0x0 SWAP1 DUP2 MSTORE PUSH1 0x40 SWAP1 KECCAK256 SLOAD DUP2 JUMP JUMPDEST PUSH2 0x1C5 PUSH2 0x1C0 CALLDATASIZE PUSH1 0x4 PUSH2 0x1441 JUMP JUMPDEST PUSH2 0x5AE JUMP JUMPDEST STOP JUMPDEST PUSH1 0x7 SLOAD PUSH2 0x1D4 SWAP1 PUSH1 0xFF AND DUP2 JUMP JUMPDEST PUSH1 0x40 MLOAD SWAP1 ISZERO ISZERO DUP2 MSTORE PUSH1 0x20 ADD PUSH2 0x172 JUMP JUMPDEST PUSH2 0x1C5 PUSH2 0x92F JUMP JUMPDEST PUSH2 0x184 PUSH1 0x6 SLOAD DUP2 JUMP JUMPDEST PUSH1 0x1 SLOAD PUSH1 0xFF AND PUSH2 0x1D4 JUMP JUMPDEST PUSH2 0x213 PUSH2 0x20E CALLDATASIZE PUSH1 0x4 PUSH2 0x13C2 JUMP JUMPDEST PUSH2 0x9E2 JUMP JUMPDEST PUSH1 0x40 MLOAD PUSH2 0x172 SWAP2 SWAP1 PUSH2 0x145A JUMP JUMPDEST PUSH1 0x3 SLOAD PUSH2 0x233 SWAP1 PUSH1 0x1 PUSH1 0x1 PUSH1 0xA0 SHL SUB AND DUP2 JUMP JUMPDEST PUSH1 0x40 MLOAD PUSH1 0x1 PUSH1 0x1 PUSH1 0xA0 SHL SUB SWAP1 SWAP2 AND DUP2 MSTORE PUSH1 0x20 ADD PUSH2 0x172 JUMP JUMPDEST PUSH2 0x1C5 PUSH2 0x259 CALLDATASIZE PUSH1 0x4 PUSH2 0x14B3 JUMP JUMPDEST PUSH2 0xAF1 JUMP JUMPDEST PUSH2 0x1C5 PUSH2 0xB0C JUMP JUMPDEST PUSH1 0x1 SLOAD PUSH2 0x100 SWAP1 DIV PUSH1 0x1 PUSH1 0x1 PUSH1 0xA0 SHL SUB AND PUSH2 0x233 JUMP JUMPDEST PUSH2 0x184 PUSH1 0x5 SLOAD DUP2 JUMP JUMPDEST PUSH2 0x2B4 PUSH2 0x293 CALLDATASIZE PUSH1 0x4 PUSH2 0x13C2 JUMP JUMPDEST PUSH1 0x9 PUSH1 0x20 MSTORE PUSH1 0x0 SWAP1 DUP2 MSTORE PUSH1 0x40 SWAP1 KECCAK256 DUP1 SLOAD PUSH1 0x2 DUP3 ADD SLOAD PUSH1 0x3 SWAP1 SWAP3 ADD SLOAD SWAP1 SWAP2 SWAP1 DUP4 JUMP JUMPDEST PUSH1 0x40 DUP1 MLOAD SWAP4 DUP5 MSTORE PUSH1 0x20 DUP5 ADD SWAP3 SWAP1 SWAP3 MSTORE SWAP1 DUP3 ADD MSTORE PUSH1 0x60 ADD PUSH2 0x172 JUMP JUMPDEST PUSH2 0x233 PUSH2 0x2DD CALLDATASIZE PUSH1 0x4 PUSH2 0x1441 JUMP JUMPDEST PUSH1 0xA PUSH1 0x20 MSTORE PUSH1 0x0 SWAP1 DUP2 MSTORE PUSH1 0x40 SWAP1 KECCAK256 SLOAD PUSH1 0x1 PUSH1 0x1 PUSH1 0xA0 SHL SUB AND DUP2 JUMP JUMPDEST PUSH2 0x1C5 PUSH2 0x306 CALLDATASIZE PUSH1 0x4 PUSH2 0x1441 JUMP JUMPDEST PUSH2 0xB20 JUMP JUMPDEST PUSH2 0x1C5 PUSH2 0x319 CALLDATASIZE PUSH1 0x4 PUSH2 0x1441 JUMP JUMPDEST PUSH2 0xB44 JUMP JUMPDEST PUSH2 0x1C5 PUSH2 0x32C CALLDATASIZE PUSH1 0x4 PUSH2 0x1441 JUMP JUMPDEST PUSH2 0xB51 JUMP JUMPDEST PUSH1 0x2 SLOAD PUSH2 0x233 SWAP1 PUSH1 0x1 PUSH1 0x1 PUSH1 0xA0 SHL SUB AND DUP2 JUMP JUMPDEST PUSH2 0x1C5 PUSH2 0x352 CALLDATASIZE PUSH1 0x4 PUSH2 0x13C2 JUMP JUMPDEST PUSH2 0xB5E JUMP JUMPDEST PUSH2 0x184 PUSH2 0x365 CALLDATASIZE PUSH1 0x4 PUSH2 0x13C2 JUMP JUMPDEST PUSH2 0xBD4 JUMP JUMPDEST PUSH2 0x1C5 PUSH2 0xC0C JUMP JUMPDEST PUSH1 0x1 PUSH1 0x1 PUSH1 0xA0 SHL SUB DUP2 AND PUSH1 0x0 SWAP1 DUP2 MSTORE PUSH1 0x9 PUSH1 0x20 MSTORE PUSH1 0x40 SWAP1 KECCAK256 SLOAD PUSH1 0x60 SWAP1 ISZERO PUSH2 0x551 JUMPI PUSH1 0x1 PUSH1 0x1 PUSH1 0xA0 SHL SUB DUP3 AND PUSH1 0x0 SWAP1 DUP2 MSTORE PUSH1 0x9 PUSH1 0x20 MSTORE PUSH1 0x40 DUP2 KECCAK256 SLOAD PUSH8 0xFFFFFFFFFFFFFFFF DUP2 GT ISZERO PUSH2 0x3C4 JUMPI PUSH2 0x3C4 PUSH2 0x14D0 JUMP JUMPDEST PUSH1 0x40 MLOAD SWAP1 DUP1 DUP3 MSTORE DUP1 PUSH1 0x20 MUL PUSH1 0x20 ADD DUP3 ADD PUSH1 0x40 MSTORE DUP1 ISZERO PUSH2 0x422 JUMPI DUP2 PUSH1 0x20 ADD JUMPDEST PUSH2 0x40F PUSH1 0x40 MLOAD DUP1 PUSH1 0x60 ADD PUSH1 0x40 MSTORE DUP1 PUSH1 0x0 PUSH1 0x1 PUSH1 0x1 PUSH1 0xA0 SHL SUB AND DUP2 MSTORE PUSH1 0x20 ADD PUSH1 0x0 DUP2 MSTORE PUSH1 0x20 ADD PUSH1 0x0 DUP2 MSTORE POP SWAP1 JUMP JUMPDEST DUP2 MSTORE PUSH1 0x20 ADD SWAP1 PUSH1 0x1 SWAP1 SUB SWAP1 DUP2 PUSH2 0x3E2 JUMPI SWAP1 POP JUMPDEST POP SWAP1 POP PUSH1 0x0 DUP1 JUMPDEST PUSH1 0x1 PUSH1 0x1 PUSH1 0xA0 SHL SUB DUP6 AND PUSH1 0x0 SWAP1 DUP2 MSTORE PUSH1 0x9 PUSH1 0x20 MSTORE PUSH1 0x40 SWAP1 KECCAK256 PUSH1 0x1 ADD SLOAD DUP2 LT ISZERO PUSH2 0x548 JUMPI PUSH1 0x1 PUSH1 0x1 PUSH1 0xA0 SHL SUB DUP6 AND PUSH1 0x0 SWAP1 DUP2 MSTORE PUSH1 0x9 PUSH1 0x20 MSTORE PUSH1 0x40 DUP2 KECCAK256 PUSH1 0x1 ADD DUP1 SLOAD DUP4 SWAP1 DUP2 LT PUSH2 0x479 JUMPI PUSH2 0x479 PUSH2 0x14E6 JUMP JUMPDEST PUSH1 0x0 SWAP2 DUP3 MSTORE PUSH1 0x20 SWAP1 SWAP2 KECCAK256 PUSH1 0x3 SWAP1 SWAP2 MUL ADD SLOAD PUSH1 0x1 PUSH1 0x1 PUSH1 0xA0 SHL SUB AND EQ PUSH2 0x536 JUMPI PUSH1 0x1 PUSH1 0x1 PUSH1 0xA0 SHL SUB DUP6 AND PUSH1 0x0 SWAP1 DUP2 MSTORE PUSH1 0x9 PUSH1 0x20 MSTORE PUSH1 0x40 SWAP1 KECCAK256 PUSH1 0x1 ADD DUP1 SLOAD DUP3 SWAP1 DUP2 LT PUSH2 0x4C5 JUMPI PUSH2 0x4C5 PUSH2 0x14E6 JUMP JUMPDEST PUSH1 0x0 SWAP2 DUP3 MSTORE PUSH1 0x20 SWAP2 DUP3 SWAP1 KECCAK256 PUSH1 0x40 DUP1 MLOAD PUSH1 0x60 DUP2 ADD DUP3 MSTORE PUSH1 0x3 SWAP1 SWAP4 MUL SWAP1 SWAP2 ADD DUP1 SLOAD PUSH1 0x1 PUSH1 0x1 PUSH1 0xA0 SHL SUB AND DUP4 MSTORE PUSH1 0x1 DUP2 ADD SLOAD SWAP4 DUP4 ADD SWAP4 SWAP1 SWAP4 MSTORE PUSH1 0x2 SWAP1 SWAP3 ADD SLOAD SWAP2 DUP2 ADD SWAP2 SWAP1 SWAP2 MSTORE DUP4 MLOAD DUP5 SWAP1 DUP5 SWAP1 DUP2 LT PUSH2 0x51C JUMPI PUSH2 0x51C PUSH2 0x14E6 JUMP JUMPDEST PUSH1 0x20 MUL PUSH1 0x20 ADD ADD DUP2 SWAP1 MSTORE POP DUP2 DUP1 PUSH2 0x532 SWAP1 PUSH2 0x1512 JUMP JUMPDEST SWAP3 POP POP JUMPDEST DUP1 PUSH2 0x540 DUP2 PUSH2 0x1512 JUMP JUMPDEST SWAP2 POP POP PUSH2 0x429 JUMP JUMPDEST POP SWAP1 SWAP4 SWAP3 POP POP POP JUMP JUMPDEST PUSH1 0x40 DUP1 MLOAD PUSH1 0x0 DUP1 DUP3 MSTORE PUSH1 0x20 DUP3 ADD SWAP1 SWAP3 MSTORE SWAP1 PUSH2 0x5A7 JUMP JUMPDEST PUSH2 0x594 PUSH1 0x40 MLOAD DUP1 PUSH1 0x60 ADD PUSH1 0x40 MSTORE DUP1 PUSH1 0x0 PUSH1 0x1 PUSH1 0x1 PUSH1 0xA0 SHL SUB AND DUP2 MSTORE PUSH1 0x20 ADD PUSH1 0x0 DUP2 MSTORE PUSH1 0x20 ADD PUSH1 0x0 DUP2 MSTORE POP SWAP1 JUMP JUMPDEST DUP2 MSTORE PUSH1 0x20 ADD SWAP1 PUSH1 0x1 SWAP1 SUB SWAP1 DUP2 PUSH2 0x567 JUMPI SWAP1 POP JUMPDEST POP SWAP3 SWAP2 POP POP JUMP JUMPDEST PUSH2 0x5B6 PUSH2 0xCA3 JUMP JUMPDEST CALLER PUSH1 0x0 SWAP1 DUP2 MSTORE PUSH1 0x9 PUSH1 0x20 MSTORE PUSH1 0x40 SWAP1 KECCAK256 SLOAD PUSH2 0x617 JUMPI PUSH1 0x40 MLOAD PUSH3 0x461BCD PUSH1 0xE5 SHL DUP2 MSTORE PUSH1 0x20 PUSH1 0x4 DUP3 ADD MSTORE PUSH1 0x19 PUSH1 0x24 DUP3 ADD MSTORE PUSH32 0x596F752068617665206E6F20746F6B656E73207374616B656400000000000000 PUSH1 0x44 DUP3 ADD MSTORE PUSH1 0x64 ADD JUMPDEST PUSH1 0x40 MLOAD DUP1 SWAP2 SUB SWAP1 REVERT JUMPDEST PUSH1 0x0 DUP2 DUP2 MSTORE PUSH1 0xA PUSH1 0x20 MSTORE PUSH1 0x40 SWAP1 KECCAK256 SLOAD PUSH1 0x1 PUSH1 0x1 PUSH1 0xA0 SHL SUB AND CALLER EQ PUSH2 0x679 JUMPI PUSH1 0x40 MLOAD PUSH3 0x461BCD PUSH1 0xE5 SHL DUP2 MSTORE PUSH1 0x20 PUSH1 0x4 DUP3 ADD MSTORE PUSH1 0x19 PUSH1 0x24 DUP3 ADD MSTORE PUSH25 0x596F7520646F6E2774206F776E207468697320746F6B656E21 PUSH1 0x38 SHL PUSH1 0x44 DUP3 ADD MSTORE PUSH1 0x64 ADD PUSH2 0x60E JUMP JUMPDEST PUSH1 0x7 SLOAD PUSH1 0xFF AND DUP1 ISZERO PUSH2 0x6A5 JUMPI POP PUSH1 0x8 SLOAD PUSH1 0x0 DUP3 DUP2 MSTORE PUSH1 0xB PUSH1 0x20 MSTORE PUSH1 0x40 SWAP1 KECCAK256 SLOAD TIMESTAMP SWAP2 PUSH2 0x6A3 SWAP2 PUSH2 0x152B JUMP JUMPDEST LT JUMPDEST DUP1 PUSH2 0x6B3 JUMPI POP PUSH1 0x7 SLOAD PUSH1 0xFF AND ISZERO JUMPDEST PUSH2 0x70B JUMPI PUSH1 0x40 MLOAD PUSH3 0x461BCD PUSH1 0xE5 SHL DUP2 MSTORE PUSH1 0x20 PUSH1 0x4 DUP3 ADD MSTORE PUSH1 0x23 PUSH1 0x24 DUP3 ADD MSTORE PUSH32 0x546F6B656E206C6F636B2074696D6520686173206E6F74207965742065787069 PUSH1 0x44 DUP3 ADD MSTORE PUSH3 0x1C9959 PUSH1 0xEA SHL PUSH1 0x64 DUP3 ADD MSTORE PUSH1 0x84 ADD PUSH2 0x60E JUMP JUMPDEST PUSH1 0x0 PUSH2 0x716 CALLER PUSH2 0xCFC JUMP JUMPDEST CALLER PUSH1 0x0 SWAP1 DUP2 MSTORE PUSH1 0x9 PUSH1 0x20 MSTORE PUSH1 0x40 DUP2 KECCAK256 PUSH1 0x3 ADD DUP1 SLOAD SWAP3 SWAP4 POP DUP4 SWAP3 SWAP1 SWAP2 SWAP1 PUSH2 0x73D SWAP1 DUP5 SWAP1 PUSH2 0x152B JUMP JUMPDEST SWAP1 SWAP2 SSTORE POP PUSH1 0x0 SWAP1 POP DUP1 JUMPDEST CALLER PUSH1 0x0 SWAP1 DUP2 MSTORE PUSH1 0x9 PUSH1 0x20 MSTORE PUSH1 0x40 SWAP1 KECCAK256 PUSH1 0x1 ADD SLOAD DUP2 LT ISZERO PUSH2 0x802 JUMPI CALLER PUSH1 0x0 SWAP1 DUP2 MSTORE PUSH1 0x9 PUSH1 0x20 MSTORE PUSH1 0x40 SWAP1 KECCAK256 PUSH1 0x1 ADD DUP1 SLOAD DUP6 SWAP2 SWAP1 DUP4 SWAP1 DUP2 LT PUSH2 0x788 JUMPI PUSH2 0x788 PUSH2 0x14E6 JUMP JUMPDEST SWAP1 PUSH1 0x0 MSTORE PUSH1 0x20 PUSH1 0x0 KECCAK256 SWAP1 PUSH1 0x3 MUL ADD PUSH1 0x1 ADD SLOAD EQ DUP1 ISZERO PUSH2 0x7E3 JUMPI POP CALLER PUSH1 0x0 SWAP1 DUP2 MSTORE PUSH1 0x9 PUSH1 0x20 MSTORE PUSH1 0x40 DUP2 KECCAK256 PUSH1 0x1 ADD DUP1 SLOAD DUP4 SWAP1 DUP2 LT PUSH2 0x7C6 JUMPI PUSH2 0x7C6 PUSH2 0x14E6 JUMP JUMPDEST PUSH1 0x0 SWAP2 DUP3 MSTORE PUSH1 0x20 SWAP1 SWAP2 KECCAK256 PUSH1 0x3 SWAP1 SWAP2 MUL ADD SLOAD PUSH1 0x1 PUSH1 0x1 PUSH1 0xA0 SHL SUB AND EQ ISZERO JUMPDEST ISZERO PUSH2 0x7F0 JUMPI DUP1 SWAP2 POP PUSH2 0x802 JUMP JUMPDEST DUP1 PUSH2 0x7FA DUP2 PUSH2 0x1512 JUMP JUMPDEST SWAP2 POP POP PUSH2 0x747 JUMP JUMPDEST POP CALLER PUSH1 0x0 SWAP1 DUP2 MSTORE PUSH1 0x9 PUSH1 0x20 MSTORE PUSH1 0x40 DUP2 KECCAK256 PUSH1 0x1 ADD DUP1 SLOAD DUP4 SWAP1 DUP2 LT PUSH2 0x827 JUMPI PUSH2 0x827 PUSH2 0x14E6 JUMP JUMPDEST PUSH1 0x0 SWAP2 DUP3 MSTORE PUSH1 0x20 DUP1 DUP4 KECCAK256 PUSH1 0x3 SWAP3 SWAP1 SWAP3 MUL SWAP1 SWAP2 ADD DUP1 SLOAD PUSH1 0x1 PUSH1 0x1 PUSH1 0xA0 SHL SUB NOT AND PUSH1 0x1 PUSH1 0x1 PUSH1 0xA0 SHL SUB SWAP5 SWAP1 SWAP5 AND SWAP4 SWAP1 SWAP4 OR SWAP1 SWAP3 SSTORE CALLER DUP2 MSTORE PUSH1 0x9 SWAP1 SWAP2 MSTORE PUSH1 0x40 DUP2 KECCAK256 DUP1 SLOAD SWAP2 PUSH2 0x871 DUP4 PUSH2 0x153E JUMP JUMPDEST SWAP1 SWAP2 SSTORE POP POP PUSH1 0x0 DUP4 DUP2 MSTORE PUSH1 0xA PUSH1 0x20 SWAP1 DUP2 MSTORE PUSH1 0x40 DUP1 DUP4 KECCAK256 DUP1 SLOAD PUSH1 0x1 PUSH1 0x1 PUSH1 0xA0 SHL SUB NOT AND SWAP1 SSTORE PUSH1 0xB SWAP1 SWAP2 MSTORE DUP1 DUP3 KECCAK256 SWAP2 SWAP1 SWAP2 SSTORE PUSH1 0x3 SLOAD SWAP1 MLOAD PUSH4 0x23B872DD PUSH1 0xE0 SHL DUP2 MSTORE ADDRESS PUSH1 0x4 DUP3 ADD MSTORE CALLER PUSH1 0x24 DUP3 ADD MSTORE PUSH1 0x44 DUP2 ADD DUP6 SWAP1 MSTORE PUSH1 0x1 PUSH1 0x1 PUSH1 0xA0 SHL SUB SWAP1 SWAP2 AND SWAP1 PUSH4 0x23B872DD SWAP1 PUSH1 0x64 ADD PUSH1 0x0 PUSH1 0x40 MLOAD DUP1 DUP4 SUB DUP2 PUSH1 0x0 DUP8 DUP1 EXTCODESIZE ISZERO DUP1 ISZERO PUSH2 0x8F2 JUMPI PUSH1 0x0 DUP1 REVERT JUMPDEST POP GAS CALL ISZERO DUP1 ISZERO PUSH2 0x906 JUMPI RETURNDATASIZE PUSH1 0x0 DUP1 RETURNDATACOPY RETURNDATASIZE PUSH1 0x0 REVERT JUMPDEST POP POP CALLER PUSH1 0x0 SWAP1 DUP2 MSTORE PUSH1 0x9 PUSH1 0x20 MSTORE PUSH1 0x40 SWAP1 KECCAK256 TIMESTAMP PUSH1 0x2 SWAP1 SWAP2 ADD SSTORE POP PUSH2 0x92C SWAP3 POP PUSH2 0xD56 SWAP2 POP POP JUMP JUMPDEST POP JUMP JUMPDEST CALLER PUSH1 0x0 DUP2 DUP2 MSTORE PUSH1 0x9 PUSH1 0x20 MSTORE PUSH1 0x40 DUP2 KECCAK256 PUSH1 0x3 ADD SLOAD SWAP1 SWAP2 PUSH2 0x94D SWAP1 PUSH2 0xCFC JUMP JUMPDEST PUSH2 0x957 SWAP2 SWAP1 PUSH2 0x152B JUMP JUMPDEST SWAP1 POP PUSH1 0x0 DUP2 GT PUSH2 0x9A9 JUMPI PUSH1 0x40 MLOAD PUSH3 0x461BCD PUSH1 0xE5 SHL DUP2 MSTORE PUSH1 0x20 PUSH1 0x4 DUP3 ADD MSTORE PUSH1 0x1C PUSH1 0x24 DUP3 ADD MSTORE PUSH32 0x596F752068617665206E6F207265776172647320746F20636C61696D00000000 PUSH1 0x44 DUP3 ADD MSTORE PUSH1 0x64 ADD PUSH2 0x60E JUMP JUMPDEST CALLER PUSH1 0x0 DUP2 DUP2 MSTORE PUSH1 0x9 PUSH1 0x20 MSTORE PUSH1 0x40 DUP2 KECCAK256 TIMESTAMP PUSH1 0x2 DUP1 DUP4 ADD SWAP2 SWAP1 SWAP2 SSTORE PUSH1 0x3 SWAP1 SWAP2 ADD SWAP2 SWAP1 SWAP2 SSTORE SLOAD PUSH2 0x92C SWAP2 PUSH1 0x1 PUSH1 0x1 PUSH1 0xA0 SHL SUB SWAP1 SWAP2 AND SWAP1 DUP4 PUSH2 0xD5D JUMP JUMPDEST PUSH1 0x60 PUSH1 0x0 PUSH2 0x9EF DUP4 PUSH2 0x372 JUMP JUMPDEST SWAP1 POP PUSH1 0x0 DUP2 MLOAD PUSH8 0xFFFFFFFFFFFFFFFF DUP2 GT ISZERO PUSH2 0xA0D JUMPI PUSH2 0xA0D PUSH2 0x14D0 JUMP JUMPDEST PUSH1 0x40 MLOAD SWAP1 DUP1 DUP3 MSTORE DUP1 PUSH1 0x20 MUL PUSH1 0x20 ADD DUP3 ADD PUSH1 0x40 MSTORE DUP1 ISZERO PUSH2 0xA52 JUMPI DUP2 PUSH1 0x20 ADD JUMPDEST PUSH1 0x40 DUP1 MLOAD DUP1 DUP3 ADD SWAP1 SWAP2 MSTORE PUSH1 0x0 DUP1 DUP3 MSTORE PUSH1 0x20 DUP3 ADD MSTORE DUP2 MSTORE PUSH1 0x20 ADD SWAP1 PUSH1 0x1 SWAP1 SUB SWAP1 DUP2 PUSH2 0xA2B JUMPI SWAP1 POP JUMPDEST POP SWAP1 POP PUSH1 0x0 JUMPDEST DUP3 MLOAD DUP2 GT ISZERO PUSH2 0xAE9 JUMPI PUSH1 0x40 MLOAD DUP1 PUSH1 0x40 ADD PUSH1 0x40 MSTORE DUP1 DUP5 DUP4 DUP2 MLOAD DUP2 LT PUSH2 0xA7E JUMPI PUSH2 0xA7E PUSH2 0x14E6 JUMP JUMPDEST PUSH1 0x20 MUL PUSH1 0x20 ADD ADD MLOAD PUSH1 0x0 ADD MLOAD PUSH1 0x1 PUSH1 0x1 PUSH1 0xA0 SHL SUB AND DUP2 MSTORE PUSH1 0x20 ADD DUP5 DUP4 DUP2 MLOAD DUP2 LT PUSH2 0xAAA JUMPI PUSH2 0xAAA PUSH2 0x14E6 JUMP JUMPDEST PUSH1 0x20 MUL PUSH1 0x20 ADD ADD MLOAD PUSH1 0x20 ADD MLOAD DUP2 MSTORE POP DUP3 DUP3 DUP2 MLOAD DUP2 LT PUSH2 0xACB JUMPI PUSH2 0xACB PUSH2 0x14E6 JUMP JUMPDEST PUSH1 0x20 MUL PUSH1 0x20 ADD ADD DUP2 SWAP1 MSTORE POP DUP1 DUP1 PUSH2 0xAE1 SWAP1 PUSH2 0x1512 JUMP JUMPDEST SWAP2 POP POP PUSH2 0xA58 JUMP JUMPDEST POP SWAP4 SWAP3 POP POP POP JUMP JUMPDEST PUSH2 0xAF9 PUSH2 0xDB4 JUMP JUMPDEST PUSH1 0x7 DUP1 SLOAD PUSH1 0xFF NOT AND SWAP2 ISZERO ISZERO SWAP2 SWAP1 SWAP2 OR SWAP1 SSTORE JUMP JUMPDEST PUSH2 0xB14 PUSH2 0xDB4 JUMP JUMPDEST PUSH2 0xB1E PUSH1 0x0 PUSH2 0xE14 JUMP JUMPDEST JUMP JUMPDEST PUSH2 0xB28 PUSH2 0xCA3 JUMP JUMPDEST PUSH2 0xB30 PUSH2 0xE6E JUMP JUMPDEST PUSH2 0xB3A CALLER DUP3 PUSH2 0xEB4 JUMP JUMPDEST PUSH2 0x92C PUSH1 0x1 PUSH1 0x0 SSTORE JUMP JUMPDEST PUSH2 0xB4C PUSH2 0xDB4 JUMP JUMPDEST PUSH1 0x8 SSTORE JUMP JUMPDEST PUSH2 0xB59 PUSH2 0xDB4 JUMP JUMPDEST PUSH1 0x5 SSTORE JUMP JUMPDEST PUSH2 0xB66 PUSH2 0xDB4 JUMP JUMPDEST PUSH1 0x1 PUSH1 0x1 PUSH1 0xA0 SHL SUB DUP2 AND PUSH2 0xBCB JUMPI PUSH1 0x40 MLOAD PUSH3 0x461BCD PUSH1 0xE5 SHL DUP2 MSTORE PUSH1 0x20 PUSH1 0x4 DUP3 ADD MSTORE PUSH1 0x26 PUSH1 0x24 DUP3 ADD MSTORE PUSH32 0x4F776E61626C653A206E6577206F776E657220697320746865207A65726F2061 PUSH1 0x44 DUP3 ADD MSTORE PUSH6 0x646472657373 PUSH1 0xD0 SHL PUSH1 0x64 DUP3 ADD MSTORE PUSH1 0x84 ADD PUSH2 0x60E JUMP JUMPDEST PUSH2 0x92C DUP2 PUSH2 0xE14 JUMP JUMPDEST PUSH1 0x1 PUSH1 0x1 PUSH1 0xA0 SHL SUB DUP2 AND PUSH1 0x0 SWAP1 DUP2 MSTORE PUSH1 0x9 PUSH1 0x20 MSTORE PUSH1 0x40 DUP2 KECCAK256 PUSH1 0x3 ADD SLOAD DUP2 SWAP1 PUSH2 0xBFB DUP5 PUSH2 0xCFC JUMP JUMPDEST PUSH2 0xC05 SWAP2 SWAP1 PUSH2 0x152B JUMP JUMPDEST SWAP4 SWAP3 POP POP POP JUMP JUMPDEST PUSH2 0xC14 PUSH2 0xDB4 JUMP JUMPDEST PUSH2 0xC1C PUSH2 0x111A JUMP JUMPDEST PUSH1 0x2 SLOAD PUSH1 0x40 MLOAD PUSH4 0x70A08231 PUSH1 0xE0 SHL DUP2 MSTORE ADDRESS PUSH1 0x4 DUP3 ADD MSTORE PUSH1 0x0 SWAP2 PUSH1 0x1 PUSH1 0x1 PUSH1 0xA0 SHL SUB AND SWAP1 PUSH4 0x70A08231 SWAP1 PUSH1 0x24 ADD PUSH1 0x20 PUSH1 0x40 MLOAD DUP1 DUP4 SUB DUP2 DUP7 GAS STATICCALL ISZERO DUP1 ISZERO PUSH2 0xC65 JUMPI RETURNDATASIZE PUSH1 0x0 DUP1 RETURNDATACOPY RETURNDATASIZE PUSH1 0x0 REVERT JUMPDEST POP POP POP POP PUSH1 0x40 MLOAD RETURNDATASIZE PUSH1 0x1F NOT PUSH1 0x1F DUP3 ADD AND DUP3 ADD DUP1 PUSH1 0x40 MSTORE POP DUP2 ADD SWAP1 PUSH2 0xC89 SWAP2 SWAP1 PUSH2 0x1555 JUMP JUMPDEST PUSH1 0x2 SLOAD SWAP1 SWAP2 POP PUSH2 0x92C SWAP1 PUSH1 0x1 PUSH1 0x1 PUSH1 0xA0 SHL SUB AND CALLER DUP4 PUSH2 0xD5D JUMP JUMPDEST PUSH1 0x2 PUSH1 0x0 SLOAD SUB PUSH2 0xCF5 JUMPI PUSH1 0x40 MLOAD PUSH3 0x461BCD PUSH1 0xE5 SHL DUP2 MSTORE PUSH1 0x20 PUSH1 0x4 DUP3 ADD MSTORE PUSH1 0x1F PUSH1 0x24 DUP3 ADD MSTORE PUSH32 0x5265656E7472616E637947756172643A207265656E7472616E742063616C6C00 PUSH1 0x44 DUP3 ADD MSTORE PUSH1 0x64 ADD PUSH2 0x60E JUMP JUMPDEST PUSH1 0x2 PUSH1 0x0 SSTORE JUMP JUMPDEST PUSH1 0x5 SLOAD PUSH1 0x1 PUSH1 0x1 PUSH1 0xA0 SHL SUB DUP3 AND PUSH1 0x0 SWAP1 DUP2 MSTORE PUSH1 0x9 PUSH1 0x20 MSTORE PUSH1 0x40 DUP2 KECCAK256 DUP1 SLOAD PUSH1 0x2 SWAP1 SWAP2 ADD SLOAD SWAP2 SWAP3 PUSH2 0xE10 SWAP3 SWAP1 SWAP2 SWAP1 PUSH2 0xD32 SWAP1 TIMESTAMP PUSH2 0x156E JUMP JUMPDEST PUSH2 0xD3C SWAP2 SWAP1 PUSH2 0x1581 JUMP JUMPDEST PUSH2 0xD46 SWAP2 SWAP1 PUSH2 0x1581 JUMP JUMPDEST PUSH2 0xD50 SWAP2 SWAP1 PUSH2 0x1598 JUMP JUMPDEST SWAP3 SWAP2 POP POP JUMP JUMPDEST PUSH1 0x1 PUSH1 0x0 SSTORE JUMP JUMPDEST PUSH1 0x40 DUP1 MLOAD PUSH1 0x1 PUSH1 0x1 PUSH1 0xA0 SHL SUB DUP5 AND PUSH1 0x24 DUP3 ADD MSTORE PUSH1 0x44 DUP1 DUP3 ADD DUP5 SWAP1 MSTORE DUP3 MLOAD DUP1 DUP4 SUB SWAP1 SWAP2 ADD DUP2 MSTORE PUSH1 0x64 SWAP1 SWAP2 ADD SWAP1 SWAP2 MSTORE PUSH1 0x20 DUP2 ADD DUP1 MLOAD PUSH1 0x1 PUSH1 0x1 PUSH1 0xE0 SHL SUB AND PUSH4 0xA9059CBB PUSH1 0xE0 SHL OR SWAP1 MSTORE PUSH2 0xDAF SWAP1 DUP5 SWAP1 PUSH2 0x1163 JUMP JUMPDEST POP POP POP JUMP JUMPDEST PUSH1 0x1 SLOAD PUSH1 0x1 PUSH1 0x1 PUSH1 0xA0 SHL SUB PUSH2 0x100 SWAP1 SWAP2 DIV AND CALLER EQ PUSH2 0xB1E JUMPI PUSH1 0x40 MLOAD PUSH3 0x461BCD PUSH1 0xE5 SHL DUP2 MSTORE PUSH1 0x20 PUSH1 0x4 DUP3 ADD DUP2 SWAP1 MSTORE PUSH1 0x24 DUP3 ADD MSTORE PUSH32 0x4F776E61626C653A2063616C6C6572206973206E6F7420746865206F776E6572 PUSH1 0x44 DUP3 ADD MSTORE PUSH1 0x64 ADD PUSH2 0x60E JUMP JUMPDEST PUSH1 0x1 DUP1 SLOAD PUSH1 0x1 PUSH1 0x1 PUSH1 0xA0 SHL SUB DUP4 DUP2 AND PUSH2 0x100 DUP2 DUP2 MUL PUSH2 0x100 PUSH1 0x1 PUSH1 0xA8 SHL SUB NOT DUP6 AND OR SWAP1 SWAP5 SSTORE PUSH1 0x40 MLOAD SWAP4 SWAP1 SWAP3 DIV AND SWAP2 DUP3 SWAP1 PUSH32 0x8BE0079C531659141344CD1FD0A4F28419497F9722A3DAAFE3B4186F6B6457E0 SWAP1 PUSH1 0x0 SWAP1 LOG3 POP POP JUMP JUMPDEST PUSH1 0x1 SLOAD PUSH1 0xFF AND ISZERO PUSH2 0xB1E JUMPI PUSH1 0x40 MLOAD PUSH3 0x461BCD PUSH1 0xE5 SHL DUP2 MSTORE PUSH1 0x20 PUSH1 0x4 DUP3 ADD MSTORE PUSH1 0x10 PUSH1 0x24 DUP3 ADD MSTORE PUSH16 0x14185D5CD8589B194E881C185D5CD959 PUSH1 0x82 SHL PUSH1 0x44 DUP3 ADD MSTORE PUSH1 0x64 ADD PUSH2 0x60E JUMP JUMPDEST PUSH1 0x3 SLOAD PUSH1 0x40 MLOAD PUSH4 0x31A9108F PUSH1 0xE1 SHL DUP2 MSTORE PUSH1 0x4 DUP2 ADD DUP4 SWAP1 MSTORE PUSH1 0x1 PUSH1 0x1 PUSH1 0xA0 SHL SUB DUP5 DUP2 AND SWAP3 AND SWAP1 PUSH4 0x6352211E SWAP1 PUSH1 0x24 ADD PUSH1 0x20 PUSH1 0x40 MLOAD DUP1 DUP4 SUB DUP2 DUP7 GAS STATICCALL ISZERO DUP1 ISZERO PUSH2 0xEFF JUMPI RETURNDATASIZE PUSH1 0x0 DUP1 RETURNDATACOPY RETURNDATASIZE PUSH1 0x0 REVERT JUMPDEST POP POP POP POP PUSH1 0x40 MLOAD RETURNDATASIZE PUSH1 0x1F NOT PUSH1 0x1F DUP3 ADD AND DUP3 ADD DUP1 PUSH1 0x40 MSTORE POP DUP2 ADD SWAP1 PUSH2 0xF23 SWAP2 SWAP1 PUSH2 0x15BA JUMP JUMPDEST PUSH1 0x1 PUSH1 0x1 PUSH1 0xA0 SHL SUB AND EQ PUSH2 0xF75 JUMPI PUSH1 0x40 MLOAD PUSH3 0x461BCD PUSH1 0xE5 SHL DUP2 MSTORE PUSH1 0x20 PUSH1 0x4 DUP3 ADD MSTORE PUSH1 0x19 PUSH1 0x24 DUP3 ADD MSTORE PUSH25 0x596F7520646F6E2774206F776E207468697320746F6B656E21 PUSH1 0x38 SHL PUSH1 0x44 DUP3 ADD MSTORE PUSH1 0x64 ADD PUSH2 0x60E JUMP JUMPDEST PUSH1 0x1 PUSH1 0x1 PUSH1 0xA0 SHL SUB DUP3 AND PUSH1 0x0 SWAP1 DUP2 MSTORE PUSH1 0x9 PUSH1 0x20 MSTORE PUSH1 0x40 SWAP1 KECCAK256 SLOAD ISZERO PUSH2 0xFD5 JUMPI PUSH1 0x0 PUSH2 0xF9E DUP4 PUSH2 0xCFC JUMP JUMPDEST PUSH1 0x1 PUSH1 0x1 PUSH1 0xA0 SHL SUB DUP5 AND PUSH1 0x0 SWAP1 DUP2 MSTORE PUSH1 0x9 PUSH1 0x20 MSTORE PUSH1 0x40 DUP2 KECCAK256 PUSH1 0x3 ADD DUP1 SLOAD SWAP3 SWAP4 POP DUP4 SWAP3 SWAP1 SWAP2 SWAP1 PUSH2 0xFCE SWAP1 DUP5 SWAP1 PUSH2 0x152B JUMP JUMPDEST SWAP1 SWAP2 SSTORE POP POP POP JUMPDEST PUSH1 0x3 SLOAD PUSH1 0x40 MLOAD PUSH4 0x23B872DD PUSH1 0xE0 SHL DUP2 MSTORE PUSH1 0x1 PUSH1 0x1 PUSH1 0xA0 SHL SUB DUP5 DUP2 AND PUSH1 0x4 DUP4 ADD MSTORE ADDRESS PUSH1 0x24 DUP4 ADD MSTORE PUSH1 0x44 DUP3 ADD DUP5 SWAP1 MSTORE SWAP1 SWAP2 AND SWAP1 PUSH4 0x23B872DD SWAP1 PUSH1 0x64 ADD PUSH1 0x0 PUSH1 0x40 MLOAD DUP1 DUP4 SUB DUP2 PUSH1 0x0 DUP8 DUP1 EXTCODESIZE ISZERO DUP1 ISZERO PUSH2 0x1029 JUMPI PUSH1 0x0 DUP1 REVERT JUMPDEST POP GAS CALL ISZERO DUP1 ISZERO PUSH2 0x103D JUMPI RETURNDATASIZE PUSH1 0x0 DUP1 RETURNDATACOPY RETURNDATASIZE PUSH1 0x0 REVERT JUMPDEST POP POP PUSH1 0x40 DUP1 MLOAD PUSH1 0x60 DUP2 ADD DUP3 MSTORE PUSH1 0x1 PUSH1 0x1 PUSH1 0xA0 SHL SUB DUP7 DUP2 AND DUP1 DUP4 MSTORE PUSH1 0x20 DUP1 DUP5 ADD DUP9 DUP2 MSTORE TIMESTAMP DUP6 DUP8 ADD SWAP1 DUP2 MSTORE PUSH1 0x0 DUP5 DUP2 MSTORE PUSH1 0x9 DUP5 MSTORE SWAP7 DUP8 KECCAK256 PUSH1 0x1 DUP1 DUP3 ADD DUP1 SLOAD DUP1 DUP4 ADD DUP3 SSTORE SWAP1 DUP11 MSTORE SWAP5 DUP10 KECCAK256 DUP9 MLOAD PUSH1 0x3 SWAP1 SWAP7 MUL ADD DUP1 SLOAD PUSH1 0x1 PUSH1 0x1 PUSH1 0xA0 SHL SUB NOT AND SWAP6 SWAP1 SWAP8 AND SWAP5 SWAP1 SWAP5 OR DUP7 SSTORE SWAP2 MLOAD SWAP3 DUP6 ADD SWAP3 SWAP1 SWAP3 SSTORE SWAP1 MLOAD PUSH1 0x2 SWAP1 SWAP4 ADD SWAP3 SWAP1 SWAP3 SSTORE DUP4 MSTORE DUP1 SLOAD SWAP2 SWAP5 POP SWAP1 SWAP3 POP SWAP1 PUSH2 0x10CA DUP4 PUSH2 0x1512 JUMP JUMPDEST SWAP1 SWAP2 SSTORE POP POP POP PUSH1 0x0 SWAP1 DUP2 MSTORE PUSH1 0xA PUSH1 0x20 SWAP1 DUP2 MSTORE PUSH1 0x40 DUP1 DUP4 KECCAK256 DUP1 SLOAD PUSH1 0x1 PUSH1 0x1 PUSH1 0xA0 SHL SUB SWAP1 SWAP6 AND PUSH1 0x1 PUSH1 0x1 PUSH1 0xA0 SHL SUB NOT SWAP1 SWAP6 AND DUP6 OR SWAP1 SSTORE PUSH1 0xB DUP3 MSTORE DUP1 DUP4 KECCAK256 TIMESTAMP SWAP1 DUP2 SWAP1 SSTORE SWAP4 DUP4 MSTORE PUSH1 0x9 SWAP1 SWAP2 MSTORE SWAP1 KECCAK256 PUSH1 0x2 ADD SSTORE JUMP JUMPDEST PUSH1 0x1 SLOAD PUSH1 0xFF AND PUSH2 0xB1E JUMPI PUSH1 0x40 MLOAD PUSH3 0x461BCD PUSH1 0xE5 SHL DUP2 MSTORE PUSH1 0x20 PUSH1 0x4 DUP3 ADD MSTORE PUSH1 0x14 PUSH1 0x24 DUP3 ADD MSTORE PUSH20 0x14185D5CD8589B194E881B9BDD081C185D5CD959 PUSH1 0x62 SHL PUSH1 0x44 DUP3 ADD MSTORE PUSH1 0x64 ADD PUSH2 0x60E JUMP JUMPDEST PUSH1 0x0 PUSH2 0x11B8 DUP3 PUSH1 0x40 MLOAD DUP1 PUSH1 0x40 ADD PUSH1 0x40 MSTORE DUP1 PUSH1 0x20 DUP2 MSTORE PUSH1 0x20 ADD PUSH32 0x5361666545524332303A206C6F772D6C6576656C2063616C6C206661696C6564 DUP2 MSTORE POP DUP6 PUSH1 0x1 PUSH1 0x1 PUSH1 0xA0 SHL SUB AND PUSH2 0x1235 SWAP1 SWAP3 SWAP2 SWAP1 PUSH4 0xFFFFFFFF AND JUMP JUMPDEST DUP1 MLOAD SWAP1 SWAP2 POP ISZERO PUSH2 0xDAF JUMPI DUP1 DUP1 PUSH1 0x20 ADD SWAP1 MLOAD DUP2 ADD SWAP1 PUSH2 0x11D6 SWAP2 SWAP1 PUSH2 0x15D7 JUMP JUMPDEST PUSH2 0xDAF JUMPI PUSH1 0x40 MLOAD PUSH3 0x461BCD PUSH1 0xE5 SHL DUP2 MSTORE PUSH1 0x20 PUSH1 0x4 DUP3 ADD MSTORE PUSH1 0x2A PUSH1 0x24 DUP3 ADD MSTORE PUSH32 0x5361666545524332303A204552433230206F7065726174696F6E20646964206E PUSH1 0x44 DUP3 ADD MSTORE PUSH10 0x1BDD081CDD58D8D95959 PUSH1 0xB2 SHL PUSH1 0x64 DUP3 ADD MSTORE PUSH1 0x84 ADD PUSH2 0x60E JUMP JUMPDEST PUSH1 0x60 PUSH2 0x1244 DUP5 DUP5 PUSH1 0x0 DUP6 PUSH2 0x124C JUMP JUMPDEST SWAP5 SWAP4 POP POP POP POP JUMP JUMPDEST PUSH1 0x60 DUP3 SELFBALANCE LT ISZERO PUSH2 0x12AD JUMPI PUSH1 0x40 MLOAD PUSH3 0x461BCD PUSH1 0xE5 SHL DUP2 MSTORE PUSH1 0x20 PUSH1 0x4 DUP3 ADD MSTORE PUSH1 0x26 PUSH1 0x24 DUP3 ADD MSTORE PUSH32 0x416464726573733A20696E73756666696369656E742062616C616E636520666F PUSH1 0x44 DUP3 ADD MSTORE PUSH6 0x1C8818D85B1B PUSH1 0xD2 SHL PUSH1 0x64 DUP3 ADD MSTORE PUSH1 0x84 ADD PUSH2 0x60E JUMP JUMPDEST DUP5 EXTCODESIZE PUSH2 0x12FB JUMPI PUSH1 0x40 MLOAD PUSH3 0x461BCD PUSH1 0xE5 SHL DUP2 MSTORE PUSH1 0x20 PUSH1 0x4 DUP3 ADD MSTORE PUSH1 0x1D PUSH1 0x24 DUP3 ADD MSTORE PUSH32 0x416464726573733A2063616C6C20746F206E6F6E2D636F6E7472616374000000 PUSH1 0x44 DUP3 ADD MSTORE PUSH1 0x64 ADD PUSH2 0x60E JUMP JUMPDEST PUSH1 0x0 DUP1 DUP7 PUSH1 0x1 PUSH1 0x1 PUSH1 0xA0 SHL SUB AND DUP6 DUP8 PUSH1 0x40 MLOAD PUSH2 0x1317 SWAP2 SWAP1 PUSH2 0x1618 JUMP JUMPDEST PUSH1 0x0 PUSH1 0x40 MLOAD DUP1 DUP4 SUB DUP2 DUP6 DUP8 GAS CALL SWAP3 POP POP POP RETURNDATASIZE DUP1 PUSH1 0x0 DUP2 EQ PUSH2 0x1354 JUMPI PUSH1 0x40 MLOAD SWAP2 POP PUSH1 0x1F NOT PUSH1 0x3F RETURNDATASIZE ADD AND DUP3 ADD PUSH1 0x40 MSTORE RETURNDATASIZE DUP3 MSTORE RETURNDATASIZE PUSH1 0x0 PUSH1 0x20 DUP5 ADD RETURNDATACOPY PUSH2 0x1359 JUMP JUMPDEST PUSH1 0x60 SWAP2 POP JUMPDEST POP SWAP2 POP SWAP2 POP PUSH2 0x1369 DUP3 DUP3 DUP7 PUSH2 0x1374 JUMP JUMPDEST SWAP8 SWAP7 POP POP POP POP POP POP POP JUMP JUMPDEST PUSH1 0x60 DUP4 ISZERO PUSH2 0x1383 JUMPI POP DUP2 PUSH2 0xC05 JUMP JUMPDEST DUP3 MLOAD ISZERO PUSH2 0x1393 JUMPI DUP3 MLOAD DUP1 DUP5 PUSH1 0x20 ADD REVERT JUMPDEST DUP2 PUSH1 0x40 MLOAD PUSH3 0x461BCD PUSH1 0xE5 SHL DUP2 MSTORE PUSH1 0x4 ADD PUSH2 0x60E SWAP2 SWAP1 PUSH2 0x1634 JUMP JUMPDEST PUSH1 0x1 PUSH1 0x1 PUSH1 0xA0 SHL SUB DUP2 AND DUP2 EQ PUSH2 0x92C JUMPI PUSH1 0x0 DUP1 REVERT JUMPDEST PUSH1 0x0 PUSH1 0x20 DUP3 DUP5 SUB SLT ISZERO PUSH2 0x13D4 JUMPI PUSH1 0x0 DUP1 REVERT JUMPDEST DUP2 CALLDATALOAD PUSH2 0xC05 DUP2 PUSH2 0x13AD JUMP JUMPDEST PUSH1 0x20 DUP1 DUP3 MSTORE DUP3 MLOAD DUP3 DUP3 ADD DUP2 SWAP1 MSTORE PUSH1 0x0 SWAP2 SWAP1 PUSH1 0x40 SWAP1 DUP2 DUP6 ADD SWAP1 DUP7 DUP5 ADD DUP6 JUMPDEST DUP3 DUP2 LT ISZERO PUSH2 0x1434 JUMPI DUP2 MLOAD DUP1 MLOAD PUSH1 0x1 PUSH1 0x1 PUSH1 0xA0 SHL SUB AND DUP6 MSTORE DUP7 DUP2 ADD MLOAD DUP8 DUP7 ADD MSTORE DUP6 ADD MLOAD DUP6 DUP6 ADD MSTORE PUSH1 0x60 SWAP1 SWAP4 ADD SWAP3 SWAP1 DUP6 ADD SWAP1 PUSH1 0x1 ADD PUSH2 0x13FC JUMP JUMPDEST POP SWAP2 SWAP8 SWAP7 POP POP POP POP POP POP POP JUMP JUMPDEST PUSH1 0x0 PUSH1 0x20 DUP3 DUP5 SUB SLT ISZERO PUSH2 0x1453 JUMPI PUSH1 0x0 DUP1 REVERT JUMPDEST POP CALLDATALOAD SWAP2 SWAP1 POP JUMP JUMPDEST PUSH1 0x20 DUP1 DUP3 MSTORE DUP3 MLOAD DUP3 DUP3 ADD DUP2 SWAP1 MSTORE PUSH1 0x0 SWAP2 SWAP1 PUSH1 0x40 SWAP1 DUP2 DUP6 ADD SWAP1 DUP7 DUP5 ADD DUP6 JUMPDEST DUP3 DUP2 LT ISZERO PUSH2 0x1434 JUMPI DUP2 MLOAD DUP1 MLOAD PUSH1 0x1 PUSH1 0x1 PUSH1 0xA0 SHL SUB AND DUP6 MSTORE DUP7 ADD MLOAD DUP7 DUP6 ADD MSTORE SWAP3 DUP5 ADD SWAP3 SWAP1 DUP6 ADD SWAP1 PUSH1 0x1 ADD PUSH2 0x1477 JUMP JUMPDEST DUP1 ISZERO ISZERO DUP2 EQ PUSH2 0x92C JUMPI PUSH1 0x0 DUP1 REVERT JUMPDEST PUSH1 0x0 PUSH1 0x20 DUP3 DUP5 SUB SLT ISZERO PUSH2 0x14C5 JUMPI PUSH1 0x0 DUP1 REVERT JUMPDEST DUP2 CALLDATALOAD PUSH2 0xC05 DUP2 PUSH2 0x14A5 JUMP JUMPDEST PUSH4 0x4E487B71 PUSH1 0xE0 SHL PUSH1 0x0 MSTORE PUSH1 0x41 PUSH1 0x4 MSTORE PUSH1 0x24 PUSH1 0x0 REVERT JUMPDEST PUSH4 0x4E487B71 PUSH1 0xE0 SHL PUSH1 0x0 MSTORE PUSH1 0x32 PUSH1 0x4 MSTORE PUSH1 0x24 PUSH1 0x0 REVERT JUMPDEST PUSH4 0x4E487B71 PUSH1 0xE0 SHL PUSH1 0x0 MSTORE PUSH1 0x11 PUSH1 0x4 MSTORE PUSH1 0x24 PUSH1 0x0 REVERT JUMPDEST PUSH1 0x0 PUSH1 0x1 DUP3 ADD PUSH2 0x1524 JUMPI PUSH2 0x1524 PUSH2 0x14FC JUMP JUMPDEST POP PUSH1 0x1 ADD SWAP1 JUMP JUMPDEST DUP1 DUP3 ADD DUP1 DUP3 GT ISZERO PUSH2 0xD50 JUMPI PUSH2 0xD50 PUSH2 0x14FC JUMP JUMPDEST PUSH1 0x0 DUP2 PUSH2 0x154D JUMPI PUSH2 0x154D PUSH2 0x14FC JUMP JUMPDEST POP PUSH1 0x0 NOT ADD SWAP1 JUMP JUMPDEST PUSH1 0x0 PUSH1 0x20 DUP3 DUP5 SUB SLT ISZERO PUSH2 0x1567 JUMPI PUSH1 0x0 DUP1 REVERT JUMPDEST POP MLOAD SWAP2 SWAP1 POP JUMP JUMPDEST DUP2 DUP2 SUB DUP2 DUP2 GT ISZERO PUSH2 0xD50 JUMPI PUSH2 0xD50 PUSH2 0x14FC JUMP JUMPDEST DUP1 DUP3 MUL DUP2 ISZERO DUP3 DUP3 DIV DUP5 EQ OR PUSH2 0xD50 JUMPI PUSH2 0xD50 PUSH2 0x14FC JUMP JUMPDEST PUSH1 0x0 DUP3 PUSH2 0x15B5 JUMPI PUSH4 0x4E487B71 PUSH1 0xE0 SHL PUSH1 0x0 MSTORE PUSH1 0x12 PUSH1 0x4 MSTORE PUSH1 0x24 PUSH1 0x0 REVERT JUMPDEST POP DIV SWAP1 JUMP JUMPDEST PUSH1 0x0 PUSH1 0x20 DUP3 DUP5 SUB SLT ISZERO PUSH2 0x15CC JUMPI PUSH1 0x0 DUP1 REVERT JUMPDEST DUP2 MLOAD PUSH2 0xC05 DUP2 PUSH2 0x13AD JUMP JUMPDEST PUSH1 0x0 PUSH1 0x20 DUP3 DUP5 SUB SLT ISZERO PUSH2 0x15E9 JUMPI PUSH1 0x0 DUP1 REVERT JUMPDEST DUP2 MLOAD PUSH2 0xC05 DUP2 PUSH2 0x14A5 JUMP JUMPDEST PUSH1 0x0 JUMPDEST DUP4 DUP2 LT ISZERO PUSH2 0x160F JUMPI DUP2 DUP2 ADD MLOAD DUP4 DUP3 ADD MSTORE PUSH1 0x20 ADD PUSH2 0x15F7 JUMP JUMPDEST POP POP PUSH1 0x0 SWAP2 ADD MSTORE JUMP JUMPDEST PUSH1 0x0 DUP3 MLOAD PUSH2 0x162A DUP2 DUP5 PUSH1 0x20 DUP8 ADD PUSH2 0x15F4 JUMP JUMPDEST SWAP2 SWAP1 SWAP2 ADD SWAP3 SWAP2 POP POP JUMP JUMPDEST PUSH1 0x20 DUP2 MSTORE PUSH1 0x0 DUP3 MLOAD DUP1 PUSH1 0x20 DUP5 ADD MSTORE PUSH2 0x1653 DUP2 PUSH1 0x40 DUP6 ADD PUSH1 0x20 DUP8 ADD PUSH2 0x15F4 JUMP JUMPDEST PUSH1 0x1F ADD PUSH1 0x1F NOT AND SWAP2 SWAP1 SWAP2 ADD PUSH1 0x40 ADD SWAP3 SWAP2 POP POP JUMP INVALID LOG2 PUSH5 0x6970667358 0x22 SLT KECCAK256 BALANCE 0xA6 0xBA DUP4 DUP5 0xDB DUP5 ADDRESS AND PUSH24 0x47D143D3222BB10865F21FE12DA799B4E1ECD6D816BA6473 PUSH16 0x6C634300081200330000000000000000 "
		},
		"gasEstimates": {
			"creation": {
				"codeDepositCost": "1157800",
				"executionCost": "infinite",
				"totalCost": "infinite"
			},
			"external": {
				"adminWithdrawRewards()": "infinite",
				"availableRewards(address)": "infinite",
				"claimRewards()": "infinite",
				"getStakedTokens(address)": "infinite",
				"getStakedTokens_V3(address)": "infinite",
				"lockEnabled()": "2422",
				"lockTime()": "2341",
				"nftCollection()": "2448",
				"owner()": "2387",
				"paused()": "2371",
				"renounceOwnership()": "infinite",
				"rewardsPerHour()": "2362",
				"rewardsToken()": "2403",
				"setLockEnabled(bool)": "26834",
				"setLockTime(uint256)": "24524",
				"setRewardsPerHour(uint256)": "24546",
				"stake(uint256)": "infinite",
				"stakerAddress(uint256)": "2588",
				"stakers(address)": "6877",
				"tokenStartStakeTime(uint256)": "2506",
				"transferOwnership(address)": "infinite",
				"version()": "2340",
				"withdraw(uint256)": "infinite"
			},
			"internal": {
				"_stake(address,uint256)": "infinite",
				"calculateRewards(address)": "infinite"
			}
		},
		"methodIdentifiers": {
			"adminWithdrawRewards()": "f995441b",
			"availableRewards(address)": "f854a27f",
			"claimRewards()": "372500ab",
			"getStakedTokens(address)": "63c28db1",
			"getStakedTokens_V3(address)": "0c2517a8",
			"lockEnabled()": "3166b848",
			"lockTime()": "0d668087",
			"nftCollection()": "6588103b",
			"owner()": "8da5cb5b",
			"paused()": "5c975abb",
			"renounceOwnership()": "715018a6",
			"rewardsPerHour()": "8e7271fa",
			"rewardsToken()": "d1af0c7d",
			"setLockEnabled(bool)": "6aa4439f",
			"setLockTime(uint256)": "ae04d45d",
			"setRewardsPerHour(uint256)": "b5a5e509",
			"stake(uint256)": "a694fc3a",
			"stakerAddress(uint256)": "94067045",
			"stakers(address)": "9168ae72",
			"tokenStartStakeTime(uint256)": "114cd3c8",
			"transferOwnership(address)": "f2fde38b",
			"version()": "54fd4d50",
			"withdraw(uint256)": "2e1a7d4d"
		}
	},
	"abi": [
		{
			"inputs": [
				{
					"internalType": "address",
					"name": "_nftCollection",
					"type": "address"
				},
				{
					"internalType": "contract IERC20",
					"name": "_rewardsToken",
					"type": "address"
				},
				{
					"internalType": "uint256",
					"name": "_rewardsPerHour",
					"type": "uint256"
				},
				{
					"internalType": "bool",
					"name": "_lockEnabled",
					"type": "bool"
				},
				{
					"internalType": "uint256",
					"name": "_lockTime",
					"type": "uint256"
				}
			],
			"stateMutability": "nonpayable",
			"type": "constructor"
		},
		{
			"anonymous": false,
			"inputs": [
				{
					"indexed": true,
					"internalType": "address",
					"name": "previousOwner",
					"type": "address"
				},
				{
					"indexed": true,
					"internalType": "address",
					"name": "newOwner",
					"type": "address"
				}
			],
			"name": "OwnershipTransferred",
			"type": "event"
		},
		{
			"anonymous": false,
			"inputs": [
				{
					"indexed": false,
					"internalType": "address",
					"name": "account",
					"type": "address"
				}
			],
			"name": "Paused",
			"type": "event"
		},
		{
			"anonymous": false,
			"inputs": [
				{
					"indexed": false,
					"internalType": "address",
					"name": "account",
					"type": "address"
				}
			],
			"name": "Unpaused",
			"type": "event"
		},
		{
			"inputs": [],
			"name": "adminWithdrawRewards",
			"outputs": [],
			"stateMutability": "nonpayable",
			"type": "function"
		},
		{
			"inputs": [
				{
					"internalType": "address",
					"name": "_staker",
					"type": "address"
				}
			],
			"name": "availableRewards",
			"outputs": [
				{
					"internalType": "uint256",
					"name": "",
					"type": "uint256"
				}
			],
			"stateMutability": "view",
			"type": "function"
		},
		{
			"inputs": [],
			"name": "claimRewards",
			"outputs": [],
			"stateMutability": "nonpayable",
			"type": "function"
		},
		{
			"inputs": [
				{
					"internalType": "address",
					"name": "_user",
					"type": "address"
				}
			],
			"name": "getStakedTokens",
			"outputs": [
				{
					"components": [
						{
							"internalType": "address",
							"name": "staker",
							"type": "address"
						},
						{
							"internalType": "uint256",
							"name": "tokenId",
							"type": "uint256"
						}
					],
					"internalType": "struct Farm.StakedToken_V1[]",
					"name": "",
					"type": "tuple[]"
				}
			],
			"stateMutability": "view",
			"type": "function"
		},
		{
			"inputs": [
				{
					"internalType": "address",
					"name": "_user",
					"type": "address"
				}
			],
			"name": "getStakedTokens_V3",
			"outputs": [
				{
					"components": [
						{
							"internalType": "address",
							"name": "staker",
							"type": "address"
						},
						{
							"internalType": "uint256",
							"name": "tokenId",
							"type": "uint256"
						},
						{
							"internalType": "uint256",
							"name": "stackeUtx",
							"type": "uint256"
						}
					],
					"internalType": "struct Farm.StakedToken[]",
					"name": "",
					"type": "tuple[]"
				}
			],
			"stateMutability": "view",
			"type": "function"
		},
		{
			"inputs": [],
			"name": "lockEnabled",
			"outputs": [
				{
					"internalType": "bool",
					"name": "",
					"type": "bool"
				}
			],
			"stateMutability": "view",
			"type": "function"
		},
		{
			"inputs": [],
			"name": "lockTime",
			"outputs": [
				{
					"internalType": "uint256",
					"name": "",
					"type": "uint256"
				}
			],
			"stateMutability": "view",
			"type": "function"
		},
		{
			"inputs": [],
			"name": "nftCollection",
			"outputs": [
				{
					"internalType": "contract IERC721",
					"name": "",
					"type": "address"
				}
			],
			"stateMutability": "view",
			"type": "function"
		},
		{
			"inputs": [],
			"name": "owner",
			"outputs": [
				{
					"internalType": "address",
					"name": "",
					"type": "address"
				}
			],
			"stateMutability": "view",
			"type": "function"
		},
		{
			"inputs": [],
			"name": "paused",
			"outputs": [
				{
					"internalType": "bool",
					"name": "",
					"type": "bool"
				}
			],
			"stateMutability": "view",
			"type": "function"
		},
		{
			"inputs": [],
			"name": "renounceOwnership",
			"outputs": [],
			"stateMutability": "nonpayable",
			"type": "function"
		},
		{
			"inputs": [],
			"name": "rewardsPerHour",
			"outputs": [
				{
					"internalType": "uint256",
					"name": "",
					"type": "uint256"
				}
			],
			"stateMutability": "view",
			"type": "function"
		},
		{
			"inputs": [],
			"name": "rewardsToken",
			"outputs": [
				{
					"internalType": "contract IERC20",
					"name": "",
					"type": "address"
				}
			],
			"stateMutability": "view",
			"type": "function"
		},
		{
			"inputs": [
				{
					"internalType": "bool",
					"name": "_lockEnabled",
					"type": "bool"
				}
			],
			"name": "setLockEnabled",
			"outputs": [],
			"stateMutability": "nonpayable",
			"type": "function"
		},
		{
			"inputs": [
				{
					"internalType": "uint256",
					"name": "_lockTime",
					"type": "uint256"
				}
			],
			"name": "setLockTime",
			"outputs": [],
			"stateMutability": "nonpayable",
			"type": "function"
		},
		{
			"inputs": [
				{
					"internalType": "uint256",
					"name": "_rewardsPerHour",
					"type": "uint256"
				}
			],
			"name": "setRewardsPerHour",
			"outputs": [],
			"stateMutability": "nonpayable",
			"type": "function"
		},
		{
			"inputs": [
				{
					"internalType": "uint256",
					"name": "_tokenId",
					"type": "uint256"
				}
			],
			"name": "stake",
			"outputs": [],
			"stateMutability": "nonpayable",
			"type": "function"
		},
		{
			"inputs": [
				{
					"internalType": "uint256",
					"name": "",
					"type": "uint256"
				}
			],
			"name": "stakerAddress",
			"outputs": [
				{
					"internalType": "address",
					"name": "",
					"type": "address"
				}
			],
			"stateMutability": "view",
			"type": "function"
		},
		{
			"inputs": [
				{
					"internalType": "address",
					"name": "",
					"type": "address"
				}
			],
			"name": "stakers",
			"outputs": [
				{
					"internalType": "uint256",
					"name": "amountStaked",
					"type": "uint256"
				},
				{
					"internalType": "uint256",
					"name": "timeOfLastUpdate",
					"type": "uint256"
				},
				{
					"internalType": "uint256",
					"name": "unclaimedRewards",
					"type": "uint256"
				}
			],
			"stateMutability": "view",
			"type": "function"
		},
		{
			"inputs": [
				{
					"internalType": "uint256",
					"name": "",
					"type": "uint256"
				}
			],
			"name": "tokenStartStakeTime",
			"outputs": [
				{
					"internalType": "uint256",
					"name": "",
					"type": "uint256"
				}
			],
			"stateMutability": "view",
			"type": "function"
		},
		{
			"inputs": [
				{
					"internalType": "address",
					"name": "newOwner",
					"type": "address"
				}
			],
			"name": "transferOwnership",
			"outputs": [],
			"stateMutability": "nonpayable",
			"type": "function"
		},
		{
			"inputs": [],
			"name": "version",
			"outputs": [
				{
					"internalType": "uint256",
					"name": "",
					"type": "uint256"
				}
			],
			"stateMutability": "view",
			"type": "function"
		},
		{
			"inputs": [
				{
					"internalType": "uint256",
					"name": "_tokenId",
					"type": "uint256"
				}
			],
			"name": "withdraw",
			"outputs": [],
			"stateMutability": "nonpayable",
			"type": "function"
		}
	]
}