{
	"data": {
		"bytecode": {
			"linkReferences": {},
			"object": "60806040526122b86009556001600a819055600b805461ffff19166101011790556000600c819055600d805460ff19169092179091556011819055601281905560138190556015553480156200005457600080fd5b506040516200527638038062005276833981016040819052620000779162000408565b875188908a906200009090600090602085019062000177565b508051620000a690600190602084019062000177565b505050620000c3620000bd6200012160201b60201c565b62000125565b60098790556015869055600b805461ffff191686151561ff0019161761010086151502179055600c839055600d805460ff191683151517905580516200011190601090602084019062000206565b505050505050505050506200052c565b3390565b600780546001600160a01b038381166001600160a01b0319831681179093556040519116919082907f8be0079c531659141344cd1fd0a4f28419497f9722a3daafe3b4186f6b6457e090600090a35050565b8280546200018590620004ef565b90600052602060002090601f016020900481019282620001a95760008555620001f4565b82601f10620001c457805160ff1916838001178555620001f4565b82800160010185558215620001f4579182015b82811115620001f4578251825591602001919060010190620001d7565b50620002029291506200025e565b5090565b828054828255906000526020600020908101928215620001f4579160200282015b82811115620001f457825182546001600160a01b0319166001600160a01b0390911617825560209092019160019091019062000227565b5b808211156200020257600081556001016200025f565b634e487b7160e01b600052604160045260246000fd5b604051601f8201601f191681016001600160401b0381118282101715620002b657620002b662000275565b604052919050565b600082601f830112620002d057600080fd5b81516001600160401b03811115620002ec57620002ec62000275565b602062000302601f8301601f191682016200028b565b82815285828487010111156200031757600080fd5b60005b83811015620003375785810183015182820184015282016200031a565b83811115620003495760008385840101525b5095945050505050565b805180151581146200036457600080fd5b919050565b600082601f8301126200037b57600080fd5b815160206001600160401b0382111562000399576200039962000275565b8160051b620003aa8282016200028b565b9283528481018201928281019087851115620003c557600080fd5b83870192505b84831015620003fd5782516001600160a01b0381168114620003ed5760008081fd5b82529183019190830190620003cb565b979650505050505050565b60008060008060008060008060006101208a8c0312156200042857600080fd5b89516001600160401b03808211156200044057600080fd5b6200044e8d838e01620002be565b9a5060208c01519150808211156200046557600080fd5b620004738d838e01620002be565b995060408c0151985060608c015197506200049160808d0162000353565b9650620004a160a08d0162000353565b955060c08c01519450620004b860e08d0162000353565b93506101008c0151915080821115620004d057600080fd5b50620004df8c828d0162000369565b9150509295985092959850929598565b600181811c908216806200050457607f821691505b602082108114156200052657634e487b7160e01b600052602260045260246000fd5b50919050565b614d3a806200053c6000396000f3fe6080604052600436106103355760003560e01c80638c7eb38e116101ab578063bda8d370116100f7578063e9e4e16011610095578063f4a0a5281161006f578063f4a0a5281461094d578063f7e944ee1461096d578063fcf984a91461098d578063ff7f0cf9146109ad57600080fd5b8063e9e4e160146108ed578063eacabe141461090d578063f2fde38b1461092d57600080fd5b8063d55a34e4116100d1578063d55a34e41461084d578063d5abeb0114610862578063e1e767e614610877578063e985e9c5146108a457600080fd5b8063bda8d370146107f0578063c399748d14610810578063c87b56dd1461082d57600080fd5b8063a096c5a211610164578063a7f93ebd1161013e578063a7f93ebd14610790578063ad3ea47e146107a5578063b42a275e146107bd578063b88d4fde146107d057600080fd5b8063a096c5a214610743578063a22cb46514610758578063a6fde7ab1461077857600080fd5b80638c7eb38e146106a65780638da5cb5b146106bb57806391a48a1e146106d9578063952977f5146106f957806395d89b411461070e5780639fd5d2ab1461072357600080fd5b8063476caa701161028557806369c5735211610223578063715018a6116101fd578063715018a614610631578063785fa7ce146106465780637918a1df146106665780637b6684571461068657600080fd5b806369c57352146105cf5780636f8b44b0146105f157806370a082311461061157600080fd5b806354fd4d501161025f57806354fd4d50146105575780635e81078d1461056d5780636352211e1461058d57806365f5f661146105ad57600080fd5b8063476caa7014610504578063512ddcf91461052457806351ed82881461054457600080fd5b806318160ddd116102f257806323b872dd116102cc57806323b872dd1461049b57806331af3886146104bb57806332cb6b0c146104ce57806342842e0e146104e457600080fd5b806318160ddd1461042b57806319c8c1c51461044e5780631a3074dc1461047b57600080fd5b806301ffc9a71461033a578063047a5d431461036f57806306fdde0314610391578063081812fc146103b3578063095ea7b3146103eb578063106030231461040b575b600080fd5b34801561034657600080fd5b5061035a610355366004613ede565b6109c2565b60405190151581526020015b60405180910390f35b34801561037b57600080fd5b5061038f61038a366004613efb565b610a14565b005b34801561039d57600080fd5b506103a6610edb565b6040516103669190613f6c565b3480156103bf57600080fd5b506103d36103ce366004613efb565b610f6d565b6040516001600160a01b039091168152602001610366565b3480156103f757600080fd5b5061038f610406366004613f9b565b610f94565b34801561041757600080fd5b5061038f610426366004613efb565b6110aa565b34801561043757600080fd5b506104406110b7565b604051908152602001610366565b34801561045a57600080fd5b5061046e610469366004613fc5565b6110c7565b6040516103669190613fe0565b34801561048757600080fd5b5061038f61049636600461408f565b611325565b3480156104a757600080fd5b5061038f6104b63660046140ac565b611347565b6104406104c9366004613efb565b611378565b3480156104da57600080fd5b5061044060095481565b3480156104f057600080fd5b5061038f6104ff3660046140ac565b611635565b34801561051057600080fd5b5061044061051f366004613fc5565b611650565b34801561053057600080fd5b5061038f61053f366004613efb565b6116c4565b61038f610552366004613efb565b611788565b34801561056357600080fd5b50610440600a5481565b34801561057957600080fd5b5061038f61058836600461408f565b611ac7565b34801561059957600080fd5b506103d36105a8366004613efb565b611ae2565b3480156105b957600080fd5b506105c2611b42565b60405161036691906140e8565b3480156105db57600080fd5b506105e4611c1b565b604051610366919061414a565b3480156105fd57600080fd5b5061038f61060c366004613efb565b611c7c565b34801561061d57600080fd5b5061044061062c366004613fc5565b611c89565b34801561063d57600080fd5b5061038f611d0f565b34801561065257600080fd5b5061035a610661366004613fc5565b611d23565b34801561067257600080fd5b5061038f610681366004614272565b611d87565b34801561069257600080fd5b5061038f6106a13660046142f8565b611dd6565b3480156106b257600080fd5b5061035a600181565b3480156106c757600080fd5b506007546001600160a01b03166103d3565b3480156106e557600080fd5b5061038f6106f436600461431d565b61209f565b34801561070557600080fd5b50600c54610440565b34801561071a57600080fd5b506103a66122dc565b34801561072f57600080fd5b5061038f61073e36600461408f565b6122eb565b34801561074f57600080fd5b5061046e612306565b34801561076457600080fd5b5061038f61077336600461433f565b612311565b34801561078457600080fd5b50600d5460ff1661035a565b34801561079c57600080fd5b50601554610440565b3480156107b157600080fd5b50600b5460ff1661035a565b3480156107c957600080fd5b5047610440565b3480156107dc57600080fd5b5061038f6107eb3660046143cd565b612320565b3480156107fc57600080fd5b5061038f61080b3660046144e7565b612352565b34801561081c57600080fd5b50600b54610100900460ff1661035a565b34801561083957600080fd5b506103a6610848366004613efb565b61236d565b34801561085957600080fd5b5061046e61247e565b34801561086e57600080fd5b50600954610440565b34801561088357600080fd5b5061089761089236600461451b565b61268b565b6040516103669190614609565b3480156108b057600080fd5b5061035a6108bf366004614641565b6001600160a01b03918216600090815260056020908152604080832093909416825291909152205460ff1690565b3480156108f957600080fd5b5061038f610908366004614674565b612bd9565b34801561091957600080fd5b506104406109283660046146a8565b612bf4565b34801561093957600080fd5b5061038f610948366004613fc5565b612c68565b34801561095957600080fd5b5061038f610968366004613efb565b612cde565b34801561097957600080fd5b5061038f610988366004613efb565b612ceb565b34801561099957600080fd5b5061038f6109a8366004613fc5565b612d65565b3480156109b957600080fd5b5061038f612e6e565b60006001600160e01b031982166380ac58cd60e01b14806109f357506001600160e01b03198216635b5e139f60e01b145b80610a0e57506301ffc9a760e01b6001600160e01b03198316145b92915050565b600b5460ff161515600114610a445760405162461bcd60e51b8152600401610a3b906146f5565b60405180910390fd5b610a4d81611ae2565b6001600160a01b0316306001600160a01b031614610aad5760405162461bcd60e51b815260206004820152601a60248201527f54686973204e4654206e6f742061742073616c6520626f6172640000000000006044820152606401610a3b565b6000818152600e602052604090205460ff161515600114610b0b5760405162461bcd60e51b815260206004820152601860248201527754686973204e4654206973206e6f7420666f722073616c6560401b6044820152606401610a3b565b6000818152600f60205260409020600401546001600160a01b0316610b725760405162461bcd60e51b815260206004820181905260248201527f5468697320746f6b656e2073656c6c6564206279204e617469766520636f696e6044820152606401610a3b565b6000818152600f602052604080822060049081015491516370a0823160e01b815233918101919091526001600160a01b03909116919082906370a0823190602401602060405180830381865afa158015610bd0573d6000803e3d6000fd5b505050506040513d601f19601f82011682018060405250810190610bf49190614720565b6000848152600f6020526040902060030154909150811015610c755760405162461bcd60e51b815260206004820152603460248201527f596f7520646f206e6f74206861766520656e6f75676820746f6b656e73206f6e60448201527320796f75722062616c616e636520746f2070617960601b6064820152608401610a3b565b604051636eb1769f60e11b81523360048201523060248201526000906001600160a01b0384169063dd62ed3e90604401602060405180830381865afa158015610cc2573d6000803e3d6000fd5b505050506040513d601f19601f82011682018060405250810190610ce69190614720565b6000858152600f6020526040902060030154909150811015610d705760405162461bcd60e51b815260206004820152603a60248201527f596f7520646964206e6f7420616c6c6f772074686520636f6e7472616374207460448201527f6f2073656e642074686520707572636861736520616d6f756e740000000000006064820152608401610a3b565b6000848152600f602052604081206003015490610d99610d91836064612ee2565b600c54612eee565b9050610dad6007546001600160a01b031690565b6000878152600f60205260409020600201546001600160a01b0390811691161415610dd6575060005b6000610de28383612efa565b6000888152600f6020526040902060020154909150610e10906001600160a01b038881169133911684612f06565b8115610e3e57610e3e33610e2c6007546001600160a01b031690565b6001600160a01b038916919085612f06565b610e49303389612f60565b6000878152600e60209081526040808320805460ff19169055600f9091529081902060028101546004820154600383015493517fdba1fe9f25c97c0abd4cd5f6b4f2e4dae96ac31138a8e8ff5b3c042deec9e05e94610ec1946001600160a01b039485169433948f9460019390930193911691614814565b60405180910390a1610ed2876130d1565b50505050505050565b606060008054610eea90614739565b80601f0160208091040260200160405190810160405280929190818152602001828054610f1690614739565b8015610f635780601f10610f3857610100808354040283529160200191610f63565b820191906000526020600020905b815481529060010190602001808311610f4657829003601f168201915b5050505050905090565b6000610f7882613176565b506000908152600460205260409020546001600160a01b031690565b6000610f9f82611ae2565b9050806001600160a01b0316836001600160a01b0316141561100d5760405162461bcd60e51b815260206004820152602160248201527f4552433732313a20617070726f76616c20746f2063757272656e74206f776e656044820152603960f91b6064820152608401610a3b565b336001600160a01b0382161480611029575061102981336108bf565b61109b5760405162461bcd60e51b815260206004820152603d60248201527f4552433732313a20617070726f76652063616c6c6572206973206e6f7420746f60448201527f6b656e206f776e6572206f7220617070726f76656420666f7220616c6c0000006064820152608401610a3b565b6110a583836131d5565b505050565b6110b2613243565b600c55565b60006110c260085490565b905090565b60606000805b600954811015611136576000818152600e602052604090205460ff16801561111157506000818152600f60205260409020600201546001600160a01b038581169116145b1561112457816111208161486e565b9250505b8061112e8161486e565b9150506110cd565b506000816001600160401b0381111561115157611151614197565b60405190808252806020026020018201604052801561118a57816020015b611177613ce9565b81526020019060019003908161116f5790505b5090506000915060005b60095481101561131d576000818152600e602052604090205460ff1680156111d857506000818152600f60205260409020600201546001600160a01b038681169116145b1561130b5760006040518060a00160405280838152602001600f6000858152602001908152602001600020600101805461121190614739565b80601f016020809104026020016040519081016040528092919081815260200182805461123d90614739565b801561128a5780601f1061125f5761010080835404028352916020019161128a565b820191906000526020600020905b81548152906001019060200180831161126d57829003601f168201915b50505091835250506000848152600f6020818152604080842060028101546001600160a01b03908116848801526003820154928701929092529388905291905260049091015416606090910152835190915081908490869081106112f0576112f0614889565b602002602001018190525083806113069061486e565b945050505b806113158161486e565b915050611194565b509392505050565b61132d613243565b600b80549115156101000261ff0019909216919091179055565b611351338261329d565b61136d5760405162461bcd60e51b8152600401610a3b9061489f565b6110a5838383612f60565b600d5460009060ff1615156001146113c55760405162461bcd60e51b815260206004820152601060248201526f135a5b9d081b9bdd08185b1b1bddd95960821b6044820152606401610a3b565b6014546114145760405162461bcd60e51b815260206004820152601a60248201527f52616e646f6d206d696e74206e6f7420636f6e666967757265640000000000006044820152606401610a3b565b6000601554116114665760405162461bcd60e51b815260206004820152601960248201527f4d696e74207072696365206e6f7420636f6e66696775726564000000000000006044820152606401610a3b565b6015543410156114c25760405162461bcd60e51b815260206004820152602160248201527f596f752068617665206e6f74207061696420656e6f75676820666f72206d696e6044820152601d60fa1b6064820152608401610a3b565b60006114d38360148054905061331b565b90506114e3600880546001019055565b60006114ee60085490565b90506114fa33826133f5565b6115a9816014848154811061151157611511614889565b90600052602060002001805461152690614739565b80601f016020809104026020016040519081016040528092919081815260200182805461155290614739565b801561159f5780601f106115745761010080835404028352916020019161159f565b820191906000526020600020905b81548152906001019060200180831161158257829003601f168201915b505050505061358e565b6007546040516001600160a01b03909116903480156108fc02916000818181858888f193505050501580156115e2573d6000803e3d6000fd5b506115eb613628565b7f85a66b9141978db9980f7e0ce3b468cebf4f7999f32b23091c5c03e798b1ba7a33826116178461236d565b604051611626939291906148ec565b60405180910390a19392505050565b6110a583838360405180602001604052806000815250612320565b6040516370a0823160e01b815230600482015260009082906001600160a01b038216906370a0823190602401602060405180830381865afa158015611699573d6000803e3d6000fd5b505050506040513d601f19601f820116820180604052508101906116bd9190614720565b9392505050565b6007546001600160a01b0316331461170f576000818152600f60205260409020600201546001600160a01b0316331461170f5760405162461bcd60e51b8152600401610a3b90614913565b6000818152600e60209081526040808320805460ff19169055600f9091529081902090517f521eb7406b49a95fb2dfab95388fb8bd894a74fcd27400ae688df8847847b99191611769913391859160019190910190614941565b60405180910390a161177a816130d1565b611785303383612f60565b50565b600b5460ff1615156001146117af5760405162461bcd60e51b8152600401610a3b906146f5565b6117b881611ae2565b6001600160a01b0316306001600160a01b0316146118185760405162461bcd60e51b815260206004820152601a60248201527f54686973204e4654206e6f742061742073616c6520626f6172640000000000006044820152606401610a3b565b6000818152600e602052604090205460ff1615156001146118765760405162461bcd60e51b815260206004820152601860248201527754686973204e4654206973206e6f7420666f722073616c6560401b6044820152606401610a3b565b6000818152600f60205260409020600301543410156118e65760405162461bcd60e51b815260206004820152602660248201527f596f752068617665206e6f74207061696420656e6f75676820666f722074686960448201526573206974656d60d01b6064820152608401610a3b565b6000818152600f60205260409020600401546001600160a01b03161561194e5760405162461bcd60e51b815260206004820152601a60248201527f5468697320746f6b656e2073656c6c65642062792045524332300000000000006044820152606401610a3b565b34600061195f610d91836064612ee2565b90506119736007546001600160a01b031690565b6000848152600f60205260409020600201546001600160a01b039081169116141561199c575060005b60006119a88383612efa565b6000858152600f60205260408082206002015490519293506001600160a01b03169183156108fc0291849190818181858888f193505050501580156119f1573d6000803e3d6000fd5b508115611a34576007546040516001600160a01b039091169083156108fc029084906000818181858888f19350505050158015611a32573d6000803e3d6000fd5b505b611a3f303386612f60565b6000848152600e60209081526040808320805460ff19169055600f909152908190206002810154600382015492517fc785e39ed8f1e4e707fd90d52e643a9685d3943dcb7b56595be9add9157ce2b193611ab0936001600160a01b039093169233928a926001929092019190614968565b60405180910390a1611ac1846130d1565b50505050565b611acf613243565b600d805460ff1916911515919091179055565b6000818152600260205260408120546001600160a01b031680610a0e5760405162461bcd60e51b8152602060048201526018602482015277115490cdcc8c4e881a5b9d985b1a59081d1bdad95b88125160421b6044820152606401610a3b565b60606014805480602002602001604051908101604052809291908181526020016000905b82821015611c12578382906000526020600020018054611b8590614739565b80601f0160208091040260200160405190810160405280929190818152602001828054611bb190614739565b8015611bfe5780601f10611bd357610100808354040283529160200191611bfe565b820191906000526020600020905b815481529060010190602001808311611be157829003601f168201915b505050505081526020019060010190611b66565b50505050905090565b60606010805480602002602001604051908101604052809291908181526020018280548015610f6357602002820191906000526020600020905b81546001600160a01b03168152600190910190602001808311611c55575050505050905090565b611c84613243565b600955565b60006001600160a01b038216611cf35760405162461bcd60e51b815260206004820152602960248201527f4552433732313a2061646472657373207a65726f206973206e6f7420612076616044820152683634b21037bbb732b960b91b6064820152608401610a3b565b506001600160a01b031660009081526003602052604090205490565b611d17613243565b611d216000613641565b565b6000805b601054811015611d7e5760108181548110611d4457611d44614889565b6000918252602090912001546001600160a01b0384811691161415611d6c5750600192915050565b80611d768161486e565b915050611d27565b50600092915050565b611d8f613243565b6015869055600b805461ffff191686151561ff0019161761010086151502179055600c839055600d805460ff19168315151790558051610ed2906010906020840190613d2a565b600b5460ff161515600114611dfd5760405162461bcd60e51b8152600401610a3b906146f5565b600b54610100900460ff1680611e1d57506007546001600160a01b031633145b611e695760405162461bcd60e51b815260206004820181905260248201527f54726164696e67206973206e6f7420616c6c6f77656420666f722075736572736044820152606401610a3b565b611e7283611ae2565b6001600160a01b0316336001600160a01b031614611ea25760405162461bcd60e51b8152600401610a3b90614913565b60008111611ef25760405162461bcd60e51b815260206004820152601f60248201527f5072696365206d7573742062652067726561746572207468616e207a65726f006044820152606401610a3b565b611efb82611d23565b1515600114611f615760405162461bcd60e51b815260206004820152602c60248201527f54686973204552433230206e6f7420616c6c6f7765642061732061207472616460448201526b696e672063757272656e637960a01b6064820152608401610a3b565b6000838152600e6020908152604091829020805460ff19166001179055815160a081019092528482528101611f958561236d565b8152602001336001600160a01b03168152602001828152602001836001600160a01b0316815250600f6000858152602001908152602001600020600082015181600001556020820151816001019080519060200190611ff5929190613d8f565b5060408201516002820180546001600160a01b03199081166001600160a01b039384161790915560608401516003840155608090930151600490920180549093169116179055612046333085612f60565b7f361dd47387032eb423040830b257e1343b2ea5cc7698ac0555757e021299ca9d3384600f600087815260200190815260200160002060010185856040516120929594939291906149ad565b60405180910390a1505050565b600b5460ff1615156001146120c65760405162461bcd60e51b8152600401610a3b906146f5565b600b54610100900460ff16806120e657506007546001600160a01b031633145b6121325760405162461bcd60e51b815260206004820181905260248201527f54726164696e67206973206e6f7420616c6c6f77656420666f722075736572736044820152606401610a3b565b61213b82611ae2565b6001600160a01b0316336001600160a01b03161461216b5760405162461bcd60e51b8152600401610a3b90614913565b600081116121bb5760405162461bcd60e51b815260206004820152601d60248201527f5072696365206d757374206265206772656174207468616e207a65726f0000006044820152606401610a3b565b6000828152600e6020908152604091829020805460ff19166001179055815160a0810190925283825281016121ef8461236d565b815233602080830191909152604080830185905260006060909301839052858352600f825290912082518155828201518051919261223592600185019290910190613d8f565b5060408201516002820180546001600160a01b03199081166001600160a01b039384161790915560608401516003840155608090930151600490920180549093169116179055612286333084612f60565b7fa74b4f4f2cdcc4b59c64be4786d504f3a55adc7683c42f4186af5f1ddd901e993383600f6000868152602001908152602001600020600101846040516122d094939291906149e8565b60405180910390a15050565b606060018054610eea90614739565b6122f3613243565b600b805460ff1916911515919091179055565b60606110c2336110c7565b61231c338383613693565b5050565b61232a338361329d565b6123465760405162461bcd60e51b8152600401610a3b9061489f565b611ac184848484613762565b61235a613243565b805161231c906014906020840190613e03565b606061237882613176565b6000828152600660205260408120805461239190614739565b80601f01602080910402602001604051908101604052809291908181526020018280546123bd90614739565b801561240a5780601f106123df5761010080835404028352916020019161240a565b820191906000526020600020905b8154815290600101906020018083116123ed57829003601f168201915b50505050509050600061242860408051602081019091526000815290565b905080516000141561243b575092915050565b81511561246d578082604051602001612455929190614a20565b60405160208183030381529060405292505050919050565b61247684613795565b949350505050565b60606000805b6009548110156124c5576000818152600e602052604090205460ff16156124b357816124af8161486e565b9250505b806124bd8161486e565b915050612484565b506000816001600160401b038111156124e0576124e0614197565b60405190808252806020026020018201604052801561251957816020015b612506613ce9565b8152602001906001900390816124fe5790505b5090506000915060005b600954811015612684576000818152600e602052604090205460ff16156126725760006040518060a00160405280838152602001600f6000858152602001908152602001600020600101805461257890614739565b80601f01602080910402602001604051908101604052809291908181526020018280546125a490614739565b80156125f15780601f106125c6576101008083540402835291602001916125f1565b820191906000526020600020905b8154815290600101906020018083116125d457829003601f168201915b50505091835250506000848152600f6020818152604080842060028101546001600160a01b039081168488015260038201549287019290925293889052919052600490910154166060909101528351909150819084908690811061265757612657614889565b6020026020010181905250838061266d9061486e565b945050505b8061267c8161486e565b915050612523565b5092915050565b6060612695613243565b835185511480156126a7575082518451145b6127115760405162461bcd60e51b815260206004820152603560248201527f55524973206c656e6774682c204552433230206c656e67746820616e642050726044820152741a58d95cc81b195b99dd1a081b9bdd08195c5d585b605a1b6064820152608401610a3b565b60005b835181101561283057600084828151811061273157612731614889565b60200260200101511161274382613808565b6040516020016127539190614a4f565b604051602081830303815290604052906127805760405162461bcd60e51b8152600401610a3b9190613f6c565b5060006001600160a01b031685828151811061279e5761279e614889565b60200260200101516001600160a01b03161461281e576127d68582815181106127c9576127c9614889565b6020026020010151611d23565b6127df82613808565b6040516020016127ef9190614aa9565b6040516020818303038152906040529061281c5760405162461bcd60e51b8152600401610a3b9190613f6c565b505b806128288161486e565b915050612714565b50600085516001600160401b0381111561284c5761284c614197565b604051908082528060200260200182016040528015612875578160200160208202803683370190505b50905060006001600160a01b0384161561288f578361289c565b6007546001600160a01b03165b905060005b8551811015612bc6576128b8600880546001019055565b60006128c360085490565b90506128cf30826133f5565b6128f2818a84815181106128e5576128e5614889565b602002602001015161358e565b6000818152600e6020908152604091829020805460ff19166001179055815160a081019092528282528a51908201908b908590811061293357612933614889565b60200260200101518152602001846001600160a01b0316815260200188848151811061296157612961614889565b6020026020010151815260200189848151811061298057612980614889565b6020908102919091018101516001600160a01b03169091526000838152600f8252604090208251815582820151805191926129c392600185019290910190613d8f565b5060408201516002820180546001600160a01b03199081166001600160a01b03938416179091556060840151600384015560809093015160049092018054909316911617905588517f85a66b9141978db9980f7e0ce3b468cebf4f7999f32b23091c5c03e798b1ba7a90849083908c9086908110612a4357612a43614889565b6020026020010151604051612a5a939291906148ec565b60405180910390a160006001600160a01b0316888381518110612a7f57612a7f614889565b60200260200101516001600160a01b03161415612b0a577fa74b4f4f2cdcc4b59c64be4786d504f3a55adc7683c42f4186af5f1ddd901e9983828b8581518110612acb57612acb614889565b60200260200101518a8681518110612ae557612ae5614889565b6020026020010151604051612afd9493929190614aff565b60405180910390a1612b95565b7f361dd47387032eb423040830b257e1343b2ea5cc7698ac0555757e021299ca9d83828b8581518110612b3f57612b3f614889565b60200260200101518b8681518110612b5957612b59614889565b60200260200101518b8781518110612b7357612b73614889565b6020026020010151604051612b8c959493929190614b26565b60405180910390a15b80848381518110612ba857612ba8614889565b60209081029190910101525080612bbe8161486e565b9150506128a1565b50612bcf613628565b5095945050505050565b612be1613243565b805161231c906010906020840190613d2a565b6000612bfe613243565b612c0c600880546001019055565b6000612c1760085490565b9050612c2384826133f5565b612c2d818461358e565b612c35613628565b7f85a66b9141978db9980f7e0ce3b468cebf4f7999f32b23091c5c03e798b1ba7a848285604051611626939291906148ec565b612c70613243565b6001600160a01b038116612cd55760405162461bcd60e51b815260206004820152602660248201527f4f776e61626c653a206e6577206f776e657220697320746865207a65726f206160448201526564647265737360d01b6064820152608401610a3b565b61178581613641565b612ce6613243565b601555565b612cf3613243565b60004260115460135460125485612d0960085490565b6014546040805160208101989098528701959095526060860193909352608085019190915260a084015260c083015260e08201526101000160408051601f19818403018152919052805160209091012060128054601355555050565b612d6d613243565b6040516370a0823160e01b815230600482015281906000906001600160a01b038316906370a0823190602401602060405180830381865afa158015612db6573d6000803e3d6000fd5b505050506040513d601f19601f82011682018060405250810190612dda9190614720565b9050816001600160a01b031663a9059cbb612dfd6007546001600160a01b031690565b6040516001600160e01b031960e084901b1681526001600160a01b039091166004820152602481018490526044016020604051808303816000875af1158015612e4a573d6000803e3d6000fd5b505050506040513d601f19601f82011682018060405250810190611ac19190614b4e565b612e76613243565b6040514790339082156108fc029083906000818181858888f19350505050158015612ea5573d6000803e3d6000fd5b5060408051338152602081018390527fd59f809f461fb2e2ca77f931dc43a9aaaa4295b0ed3c8e6adc04d0aab43eeb47910160405180910390a150565b60006116bd8284614b81565b60006116bd8284614b95565b60006116bd8284614bb4565b604080516001600160a01b0385811660248301528416604482015260648082018490528251808303909101815260849091019091526020810180516001600160e01b03166323b872dd60e01b179052611ac190859061389c565b826001600160a01b0316612f7382611ae2565b6001600160a01b031614612f995760405162461bcd60e51b8152600401610a3b90614bcb565b6001600160a01b038216612ffb5760405162461bcd60e51b8152602060048201526024808201527f4552433732313a207472616e7366657220746f20746865207a65726f206164646044820152637265737360e01b6064820152608401610a3b565b613008838383600161396e565b826001600160a01b031661301b82611ae2565b6001600160a01b0316146130415760405162461bcd60e51b8152600401610a3b90614bcb565b600081815260046020908152604080832080546001600160a01b03199081169091556001600160a01b0387811680865260038552838620805460001901905590871680865283862080546001019055868652600290945282852080549092168417909155905184937fddf252ad1be2c89b69c2b068fc378daa952ba7f163c4a11628f55a4df523b3ef91a4505050565b6040805160a08101825260008082528251602081810185528282528084019182528385018390526060840183905260808401839052858352600f81529390912082518155905180519293919261312d9260018501920190613d8f565b5060408201516002820180546001600160a01b03199081166001600160a01b03938416179091556060840151600384015560809093015160049092018054909316911617905550565b6000818152600260205260409020546001600160a01b03166117855760405162461bcd60e51b8152602060048201526018602482015277115490cdcc8c4e881a5b9d985b1a59081d1bdad95b88125160421b6044820152606401610a3b565b600081815260046020526040902080546001600160a01b0319166001600160a01b038416908117909155819061320a82611ae2565b6001600160a01b03167f8c5be1e5ebec7d5bd14f71427d1e84f3dd0314c0f7b2291e5b200ac8c7c3b92560405160405180910390a45050565b6007546001600160a01b03163314611d215760405162461bcd60e51b815260206004820181905260248201527f4f776e61626c653a2063616c6c6572206973206e6f7420746865206f776e65726044820152606401610a3b565b6000806132a983611ae2565b9050806001600160a01b0316846001600160a01b031614806132f057506001600160a01b0380821660009081526005602090815260408083209388168352929052205460ff165b806124765750836001600160a01b031661330984610f6d565b6001600160a01b031614949350505050565b600080428460115460125460135443404144453a61333860085490565b60145433905a60408051602081019f909f528e019c909c526060808e019b909b5260808d019990995260a08c019790975260c08b01959095526bffffffffffffffffffffffff1993881b841660e08b015260f48a0192909252610114890152610134880152610154870191909152921b9091166101748401526101888301526101a88201526101c80160408051601f1981840301815291905280516020909101206011859055905060006133ec8483614c10565b95945050505050565b6001600160a01b03821661344b5760405162461bcd60e51b815260206004820181905260248201527f4552433732313a206d696e7420746f20746865207a65726f20616464726573736044820152606401610a3b565b6000818152600260205260409020546001600160a01b0316156134b05760405162461bcd60e51b815260206004820152601c60248201527f4552433732313a20746f6b656e20616c7265616479206d696e746564000000006044820152606401610a3b565b6134be60008383600161396e565b6000818152600260205260409020546001600160a01b0316156135235760405162461bcd60e51b815260206004820152601c60248201527f4552433732313a20746f6b656e20616c7265616479206d696e746564000000006044820152606401610a3b565b6001600160a01b038216600081815260036020908152604080832080546001019055848352600290915280822080546001600160a01b0319168417905551839291907fddf252ad1be2c89b69c2b068fc378daa952ba7f163c4a11628f55a4df523b3ef908290a45050565b6000828152600260205260409020546001600160a01b03166136095760405162461bcd60e51b815260206004820152602e60248201527f45524337323155524953746f726167653a2055524920736574206f66206e6f6e60448201526d32bc34b9ba32b73a103a37b5b2b760911b6064820152608401610a3b565b600082815260066020908152604090912082516110a592840190613d8f565b60095460085410611d2157600854611c84906001614c24565b600780546001600160a01b038381166001600160a01b0319831681179093556040519116919082907f8be0079c531659141344cd1fd0a4f28419497f9722a3daafe3b4186f6b6457e090600090a35050565b816001600160a01b0316836001600160a01b031614156136f55760405162461bcd60e51b815260206004820152601960248201527f4552433732313a20617070726f766520746f2063616c6c6572000000000000006044820152606401610a3b565b6001600160a01b03838116600081815260056020908152604080832094871680845294825291829020805460ff191686151590811790915591519182527f17307eab39ab6107e8899845ad3d59bd9653f200f220920489ca2b5937696c31910160405180910390a3505050565b61376d848484612f60565b613779848484846139f6565b611ac15760405162461bcd60e51b8152600401610a3b90614c3c565b60606137a082613176565b60006137b760408051602081019091526000815290565b905060008151116137d757604051806020016040528060008152506116bd565b806137e184613808565b6040516020016137f2929190614a20565b6040516020818303038152906040529392505050565b6060600061381583613af1565b60010190506000816001600160401b0381111561383457613834614197565b6040519080825280601f01601f19166020018201604052801561385e576020820181803683370190505b5090508181016020015b600019016f181899199a1a9b1b9c1cb0b131b232b360811b600a86061a8153600a85049450846138975761131d565b613868565b60006138f1826040518060400160405280602081526020017f5361666545524332303a206c6f772d6c6576656c2063616c6c206661696c6564815250856001600160a01b0316613bc99092919063ffffffff16565b8051909150156110a5578080602001905181019061390f9190614b4e565b6110a55760405162461bcd60e51b815260206004820152602a60248201527f5361666545524332303a204552433230206f7065726174696f6e20646964206e6044820152691bdd081cdd58d8d9595960b21b6064820152608401610a3b565b6001811115611ac1576001600160a01b038416156139b4576001600160a01b038416600090815260036020526040812080548392906139ae908490614bb4565b90915550505b6001600160a01b03831615611ac1576001600160a01b038316600090815260036020526040812080548392906139eb908490614c24565b909155505050505050565b60006001600160a01b0384163b15613ae957604051630a85bd0160e11b81526001600160a01b0385169063150b7a0290613a3a903390899088908890600401614c8e565b6020604051808303816000875af1925050508015613a75575060408051601f3d908101601f19168201909252613a7291810190614ccb565b60015b613acf573d808015613aa3576040519150601f19603f3d011682016040523d82523d6000602084013e613aa8565b606091505b508051613ac75760405162461bcd60e51b8152600401610a3b90614c3c565b805181602001fd5b6001600160e01b031916630a85bd0160e11b149050612476565b506001612476565b60008072184f03e93ff9f4daa797ed6e38ed64bf6a1f0160401b8310613b305772184f03e93ff9f4daa797ed6e38ed64bf6a1f0160401b830492506040015b6d04ee2d6d415b85acef81000000008310613b5c576d04ee2d6d415b85acef8100000000830492506020015b662386f26fc100008310613b7a57662386f26fc10000830492506010015b6305f5e1008310613b92576305f5e100830492506008015b6127108310613ba657612710830492506004015b60648310613bb8576064830492506002015b600a8310610a0e5760010192915050565b6060612476848460008585600080866001600160a01b03168587604051613bf09190614ce8565b60006040518083038185875af1925050503d8060008114613c2d576040519150601f19603f3d011682016040523d82523d6000602084013e613c32565b606091505b5091509150613c4387838387613c4e565b979650505050505050565b60608315613cba578251613cb3576001600160a01b0385163b613cb35760405162461bcd60e51b815260206004820152601d60248201527f416464726573733a2063616c6c20746f206e6f6e2d636f6e74726163740000006044820152606401610a3b565b5081612476565b6124768383815115613ccf5781518083602001fd5b8060405162461bcd60e51b8152600401610a3b9190613f6c565b6040518060a00160405280600081526020016060815260200160006001600160a01b031681526020016000815260200160006001600160a01b031681525090565b828054828255906000526020600020908101928215613d7f579160200282015b82811115613d7f57825182546001600160a01b0319166001600160a01b03909116178255602090920191600190910190613d4a565b50613d8b929150613e5c565b5090565b828054613d9b90614739565b90600052602060002090601f016020900481019282613dbd5760008555613d7f565b82601f10613dd657805160ff1916838001178555613d7f565b82800160010185558215613d7f579182015b82811115613d7f578251825591602001919060010190613de8565b828054828255906000526020600020908101928215613e50579160200282015b82811115613e505782518051613e40918491602090910190613d8f565b5091602001919060010190613e23565b50613d8b929150613e71565b5b80821115613d8b5760008155600101613e5d565b80821115613d8b576000613e858282613e8e565b50600101613e71565b508054613e9a90614739565b6000825580601f10613eaa575050565b601f0160209004906000526020600020908101906117859190613e5c565b6001600160e01b03198116811461178557600080fd5b600060208284031215613ef057600080fd5b81356116bd81613ec8565b600060208284031215613f0d57600080fd5b5035919050565b60005b83811015613f2f578181015183820152602001613f17565b83811115611ac15750506000910152565b60008151808452613f58816020860160208601613f14565b601f01601f19169290920160200192915050565b6020815260006116bd6020830184613f40565b80356001600160a01b0381168114613f9657600080fd5b919050565b60008060408385031215613fae57600080fd5b613fb783613f7f565b946020939093013593505050565b600060208284031215613fd757600080fd5b6116bd82613f7f565b60006020808301818452808551808352604092508286019150828160051b87010184880160005b8381101561407357603f19898403018552815160a08151855288820151818a87015261403582870182613f40565b838a01516001600160a01b03908116888c01526060808601519089015260809485015116939096019290925250509386019390860190600101614007565b509098975050505050505050565b801515811461178557600080fd5b6000602082840312156140a157600080fd5b81356116bd81614081565b6000806000606084860312156140c157600080fd5b6140ca84613f7f565b92506140d860208501613f7f565b9150604084013590509250925092565b6000602080830181845280855180835260408601915060408160051b870101925083870160005b8281101561413d57603f1988860301845261412b858351613f40565b9450928501929085019060010161410f565b5092979650505050505050565b6020808252825182820181905260009190848201906040850190845b8181101561418b5783516001600160a01b031683529284019291840191600101614166565b50909695505050505050565b634e487b7160e01b600052604160045260246000fd5b604051601f8201601f191681016001600160401b03811182821017156141d5576141d5614197565b604052919050565b60006001600160401b038211156141f6576141f6614197565b5060051b60200190565b600082601f83011261421157600080fd5b81356020614226614221836141dd565b6141ad565b82815260059290921b8401810191818101908684111561424557600080fd5b8286015b848110156142675761425a81613f7f565b8352918301918301614249565b509695505050505050565b60008060008060008060c0878903121561428b57600080fd5b86359550602087013561429d81614081565b945060408701356142ad81614081565b93506060870135925060808701356142c481614081565b915060a08701356001600160401b038111156142df57600080fd5b6142eb89828a01614200565b9150509295509295509295565b60008060006060848603121561430d57600080fd5b833592506140d860208501613f7f565b6000806040838503121561433057600080fd5b50508035926020909101359150565b6000806040838503121561435257600080fd5b61435b83613f7f565b9150602083013561436b81614081565b809150509250929050565b60006001600160401b0383111561438f5761438f614197565b6143a2601f8401601f19166020016141ad565b90508281528383830111156143b657600080fd5b828260208301376000602084830101529392505050565b600080600080608085870312156143e357600080fd5b6143ec85613f7f565b93506143fa60208601613f7f565b92506040850135915060608501356001600160401b0381111561441c57600080fd5b8501601f8101871361442d57600080fd5b61443c87823560208401614376565b91505092959194509250565b600082601f83011261445957600080fd5b6116bd83833560208501614376565b600082601f83011261447957600080fd5b81356020614489614221836141dd565b82815260059290921b840181019181810190868411156144a857600080fd5b8286015b848110156142675780356001600160401b038111156144cb5760008081fd5b6144d98986838b0101614448565b8452509183019183016144ac565b6000602082840312156144f957600080fd5b81356001600160401b0381111561450f57600080fd5b61247684828501614468565b6000806000806080858703121561453157600080fd5b84356001600160401b038082111561454857600080fd5b61455488838901614468565b955060209150818701358181111561456b57600080fd5b61457789828a01614200565b95505060408701358181111561458c57600080fd5b87019050601f8101881361459f57600080fd5b80356145ad614221826141dd565b81815260059190911b8201830190838101908a8311156145cc57600080fd5b928401925b828410156145ea578335825292840192908401906145d1565b80965050505050506145fe60608601613f7f565b905092959194509250565b6020808252825182820181905260009190848201906040850190845b8181101561418b57835183529284019291840191600101614625565b6000806040838503121561465457600080fd5b61465d83613f7f565b915061466b60208401613f7f565b90509250929050565b60006020828403121561468657600080fd5b81356001600160401b0381111561469c57600080fd5b61247684828501614200565b600080604083850312156146bb57600080fd5b6146c483613f7f565b915060208301356001600160401b038111156146df57600080fd5b6146eb85828601614448565b9150509250929050565b602080825260119082015270151c985919481b9bdd08185b1b1bddd959607a1b604082015260600190565b60006020828403121561473257600080fd5b5051919050565b600181811c9082168061474d57607f821691505b6020821081141561476e57634e487b7160e01b600052602260045260246000fd5b50919050565b8054600090600181811c908083168061478e57607f831692505b60208084108214156147b057634e487b7160e01b600052602260045260246000fd5b838852602088018280156147cb57600181146147dc57614807565b60ff19871682528282019750614807565b60008981526020902060005b87811015614801578154848201529086019084016147e8565b83019850505b5050505050505092915050565b600060018060a01b038089168352808816602084015286604084015260c0606084015261484460c0840187614774565b941660808301525060a00152949350505050565b634e487b7160e01b600052601160045260246000fd5b600060001982141561488257614882614858565b5060010190565b634e487b7160e01b600052603260045260246000fd5b6020808252602d908201527f4552433732313a2063616c6c6572206973206e6f7420746f6b656e206f776e6560408201526c1c881bdc88185c1c1c9bdd9959609a1b606082015260800190565b60018060a01b03841681528260208201526060604082015260006133ec6060830184613f40565b602080825260149082015273151a1a5cc81a5cc81b9bdd081e5bdd5c8813919560621b604082015260600190565b60018060a01b03841681528260208201526060604082015260006133ec6060830184614774565b6001600160a01b038681168252851660208201526040810184905260a06060820181905260009061499b90830185614774565b90508260808301529695505050505050565b600060018060a01b03808816835286602084015260a060408401526149d560a0840187614774565b9416606083015250608001529392505050565b60018060a01b0385168152836020820152608060408201526000614a0f6080830185614774565b905082606083015295945050505050565b60008351614a32818460208801613f14565b835190830190614a46818360208801613f14565b01949350505050565b7f5072696365206d757374206265206772656174207468616e207a65726f2e205081526b7269636520696e646578202360a01b602082015260008251614a9c81602c850160208701613f14565b91909101602c0192915050565b7f4e6f7420616c6c6f7765642045524320666f722074726164652e20455243323081526720696e646578202360c01b602082015260008251614af2816028850160208701613f14565b9190910160280192915050565b60018060a01b0385168152836020820152608060408201526000614a0f6080830185613f40565b600060018060a01b03808816835286602084015260a060408401526149d560a0840187613f40565b600060208284031215614b6057600080fd5b81516116bd81614081565b634e487b7160e01b600052601260045260246000fd5b600082614b9057614b90614b6b565b500490565b6000816000190483118215151615614baf57614baf614858565b500290565b600082821015614bc657614bc6614858565b500390565b60208082526025908201527f4552433732313a207472616e736665722066726f6d20696e636f72726563742060408201526437bbb732b960d91b606082015260800190565b600082614c1f57614c1f614b6b565b500690565b60008219821115614c3757614c37614858565b500190565b60208082526032908201527f4552433732313a207472616e7366657220746f206e6f6e20455243373231526560408201527131b2b4bb32b91034b6b83632b6b2b73a32b960711b606082015260800190565b6001600160a01b0385811682528416602082015260408101839052608060608201819052600090614cc190830184613f40565b9695505050505050565b600060208284031215614cdd57600080fd5b81516116bd81613ec8565b60008251614cfa818460208701613f14565b919091019291505056fea2646970667358221220aeaf9f0ae945865dc6c6cdb8860029bada059e420035746accf18cdadb2b445364736f6c634300080c0033",
			"opcodes": "PUSH1 0x80 PUSH1 0x40 MSTORE PUSH2 0x22B8 PUSH1 0x9 SSTORE PUSH1 0x1 PUSH1 0xA DUP2 SWAP1 SSTORE PUSH1 0xB DUP1 SLOAD PUSH2 0xFFFF NOT AND PUSH2 0x101 OR SWAP1 SSTORE PUSH1 0x0 PUSH1 0xC DUP2 SWAP1 SSTORE PUSH1 0xD DUP1 SLOAD PUSH1 0xFF NOT AND SWAP1 SWAP3 OR SWAP1 SWAP2 SSTORE PUSH1 0x11 DUP2 SWAP1 SSTORE PUSH1 0x12 DUP2 SWAP1 SSTORE PUSH1 0x13 DUP2 SWAP1 SSTORE PUSH1 0x15 SSTORE CALLVALUE DUP1 ISZERO PUSH3 0x54 JUMPI PUSH1 0x0 DUP1 REVERT JUMPDEST POP PUSH1 0x40 MLOAD PUSH3 0x5276 CODESIZE SUB DUP1 PUSH3 0x5276 DUP4 CODECOPY DUP2 ADD PUSH1 0x40 DUP2 SWAP1 MSTORE PUSH3 0x77 SWAP2 PUSH3 0x408 JUMP JUMPDEST DUP8 MLOAD DUP9 SWAP1 DUP11 SWAP1 PUSH3 0x90 SWAP1 PUSH1 0x0 SWAP1 PUSH1 0x20 DUP6 ADD SWAP1 PUSH3 0x177 JUMP JUMPDEST POP DUP1 MLOAD PUSH3 0xA6 SWAP1 PUSH1 0x1 SWAP1 PUSH1 0x20 DUP5 ADD SWAP1 PUSH3 0x177 JUMP JUMPDEST POP POP POP PUSH3 0xC3 PUSH3 0xBD PUSH3 0x121 PUSH1 0x20 SHL PUSH1 0x20 SHR JUMP JUMPDEST PUSH3 0x125 JUMP JUMPDEST PUSH1 0x9 DUP8 SWAP1 SSTORE PUSH1 0x15 DUP7 SWAP1 SSTORE PUSH1 0xB DUP1 SLOAD PUSH2 0xFFFF NOT AND DUP7 ISZERO ISZERO PUSH2 0xFF00 NOT AND OR PUSH2 0x100 DUP7 ISZERO ISZERO MUL OR SWAP1 SSTORE PUSH1 0xC DUP4 SWAP1 SSTORE PUSH1 0xD DUP1 SLOAD PUSH1 0xFF NOT AND DUP4 ISZERO ISZERO OR SWAP1 SSTORE DUP1 MLOAD PUSH3 0x111 SWAP1 PUSH1 0x10 SWAP1 PUSH1 0x20 DUP5 ADD SWAP1 PUSH3 0x206 JUMP JUMPDEST POP POP POP POP POP POP POP POP POP POP PUSH3 0x52C JUMP JUMPDEST CALLER SWAP1 JUMP JUMPDEST PUSH1 0x7 DUP1 SLOAD PUSH1 0x1 PUSH1 0x1 PUSH1 0xA0 SHL SUB DUP4 DUP2 AND PUSH1 0x1 PUSH1 0x1 PUSH1 0xA0 SHL SUB NOT DUP4 AND DUP2 OR SWAP1 SWAP4 SSTORE PUSH1 0x40 MLOAD SWAP2 AND SWAP2 SWAP1 DUP3 SWAP1 PUSH32 0x8BE0079C531659141344CD1FD0A4F28419497F9722A3DAAFE3B4186F6B6457E0 SWAP1 PUSH1 0x0 SWAP1 LOG3 POP POP JUMP JUMPDEST DUP3 DUP1 SLOAD PUSH3 0x185 SWAP1 PUSH3 0x4EF JUMP JUMPDEST SWAP1 PUSH1 0x0 MSTORE PUSH1 0x20 PUSH1 0x0 KECCAK256 SWAP1 PUSH1 0x1F ADD PUSH1 0x20 SWAP1 DIV DUP2 ADD SWAP3 DUP3 PUSH3 0x1A9 JUMPI PUSH1 0x0 DUP6 SSTORE PUSH3 0x1F4 JUMP JUMPDEST DUP3 PUSH1 0x1F LT PUSH3 0x1C4 JUMPI DUP1 MLOAD PUSH1 0xFF NOT AND DUP4 DUP1 ADD OR DUP6 SSTORE PUSH3 0x1F4 JUMP JUMPDEST DUP3 DUP1 ADD PUSH1 0x1 ADD DUP6 SSTORE DUP3 ISZERO PUSH3 0x1F4 JUMPI SWAP2 DUP3 ADD JUMPDEST DUP3 DUP2 GT ISZERO PUSH3 0x1F4 JUMPI DUP3 MLOAD DUP3 SSTORE SWAP2 PUSH1 0x20 ADD SWAP2 SWAP1 PUSH1 0x1 ADD SWAP1 PUSH3 0x1D7 JUMP JUMPDEST POP PUSH3 0x202 SWAP3 SWAP2 POP PUSH3 0x25E JUMP JUMPDEST POP SWAP1 JUMP JUMPDEST DUP3 DUP1 SLOAD DUP3 DUP3 SSTORE SWAP1 PUSH1 0x0 MSTORE PUSH1 0x20 PUSH1 0x0 KECCAK256 SWAP1 DUP2 ADD SWAP3 DUP3 ISZERO PUSH3 0x1F4 JUMPI SWAP2 PUSH1 0x20 MUL DUP3 ADD JUMPDEST DUP3 DUP2 GT ISZERO PUSH3 0x1F4 JUMPI DUP3 MLOAD DUP3 SLOAD PUSH1 0x1 PUSH1 0x1 PUSH1 0xA0 SHL SUB NOT AND PUSH1 0x1 PUSH1 0x1 PUSH1 0xA0 SHL SUB SWAP1 SWAP2 AND OR DUP3 SSTORE PUSH1 0x20 SWAP1 SWAP3 ADD SWAP2 PUSH1 0x1 SWAP1 SWAP2 ADD SWAP1 PUSH3 0x227 JUMP JUMPDEST JUMPDEST DUP1 DUP3 GT ISZERO PUSH3 0x202 JUMPI PUSH1 0x0 DUP2 SSTORE PUSH1 0x1 ADD PUSH3 0x25F JUMP JUMPDEST PUSH4 0x4E487B71 PUSH1 0xE0 SHL PUSH1 0x0 MSTORE PUSH1 0x41 PUSH1 0x4 MSTORE PUSH1 0x24 PUSH1 0x0 REVERT JUMPDEST PUSH1 0x40 MLOAD PUSH1 0x1F DUP3 ADD PUSH1 0x1F NOT AND DUP2 ADD PUSH1 0x1 PUSH1 0x1 PUSH1 0x40 SHL SUB DUP2 GT DUP3 DUP3 LT OR ISZERO PUSH3 0x2B6 JUMPI PUSH3 0x2B6 PUSH3 0x275 JUMP JUMPDEST PUSH1 0x40 MSTORE SWAP2 SWAP1 POP JUMP JUMPDEST PUSH1 0x0 DUP3 PUSH1 0x1F DUP4 ADD SLT PUSH3 0x2D0 JUMPI PUSH1 0x0 DUP1 REVERT JUMPDEST DUP2 MLOAD PUSH1 0x1 PUSH1 0x1 PUSH1 0x40 SHL SUB DUP2 GT ISZERO PUSH3 0x2EC JUMPI PUSH3 0x2EC PUSH3 0x275 JUMP JUMPDEST PUSH1 0x20 PUSH3 0x302 PUSH1 0x1F DUP4 ADD PUSH1 0x1F NOT AND DUP3 ADD PUSH3 0x28B JUMP JUMPDEST DUP3 DUP2 MSTORE DUP6 DUP3 DUP5 DUP8 ADD ADD GT ISZERO PUSH3 0x317 JUMPI PUSH1 0x0 DUP1 REVERT JUMPDEST PUSH1 0x0 JUMPDEST DUP4 DUP2 LT ISZERO PUSH3 0x337 JUMPI DUP6 DUP2 ADD DUP4 ADD MLOAD DUP3 DUP3 ADD DUP5 ADD MSTORE DUP3 ADD PUSH3 0x31A JUMP JUMPDEST DUP4 DUP2 GT ISZERO PUSH3 0x349 JUMPI PUSH1 0x0 DUP4 DUP6 DUP5 ADD ADD MSTORE JUMPDEST POP SWAP6 SWAP5 POP POP POP POP POP JUMP JUMPDEST DUP1 MLOAD DUP1 ISZERO ISZERO DUP2 EQ PUSH3 0x364 JUMPI PUSH1 0x0 DUP1 REVERT JUMPDEST SWAP2 SWAP1 POP JUMP JUMPDEST PUSH1 0x0 DUP3 PUSH1 0x1F DUP4 ADD SLT PUSH3 0x37B JUMPI PUSH1 0x0 DUP1 REVERT JUMPDEST DUP2 MLOAD PUSH1 0x20 PUSH1 0x1 PUSH1 0x1 PUSH1 0x40 SHL SUB DUP3 GT ISZERO PUSH3 0x399 JUMPI PUSH3 0x399 PUSH3 0x275 JUMP JUMPDEST DUP2 PUSH1 0x5 SHL PUSH3 0x3AA DUP3 DUP3 ADD PUSH3 0x28B JUMP JUMPDEST SWAP3 DUP4 MSTORE DUP5 DUP2 ADD DUP3 ADD SWAP3 DUP3 DUP2 ADD SWAP1 DUP8 DUP6 GT ISZERO PUSH3 0x3C5 JUMPI PUSH1 0x0 DUP1 REVERT JUMPDEST DUP4 DUP8 ADD SWAP3 POP JUMPDEST DUP5 DUP4 LT ISZERO PUSH3 0x3FD JUMPI DUP3 MLOAD PUSH1 0x1 PUSH1 0x1 PUSH1 0xA0 SHL SUB DUP2 AND DUP2 EQ PUSH3 0x3ED JUMPI PUSH1 0x0 DUP1 DUP2 REVERT JUMPDEST DUP3 MSTORE SWAP2 DUP4 ADD SWAP2 SWAP1 DUP4 ADD SWAP1 PUSH3 0x3CB JUMP JUMPDEST SWAP8 SWAP7 POP POP POP POP POP POP POP JUMP JUMPDEST PUSH1 0x0 DUP1 PUSH1 0x0 DUP1 PUSH1 0x0 DUP1 PUSH1 0x0 DUP1 PUSH1 0x0 PUSH2 0x120 DUP11 DUP13 SUB SLT ISZERO PUSH3 0x428 JUMPI PUSH1 0x0 DUP1 REVERT JUMPDEST DUP10 MLOAD PUSH1 0x1 PUSH1 0x1 PUSH1 0x40 SHL SUB DUP1 DUP3 GT ISZERO PUSH3 0x440 JUMPI PUSH1 0x0 DUP1 REVERT JUMPDEST PUSH3 0x44E DUP14 DUP4 DUP15 ADD PUSH3 0x2BE JUMP JUMPDEST SWAP11 POP PUSH1 0x20 DUP13 ADD MLOAD SWAP2 POP DUP1 DUP3 GT ISZERO PUSH3 0x465 JUMPI PUSH1 0x0 DUP1 REVERT JUMPDEST PUSH3 0x473 DUP14 DUP4 DUP15 ADD PUSH3 0x2BE JUMP JUMPDEST SWAP10 POP PUSH1 0x40 DUP13 ADD MLOAD SWAP9 POP PUSH1 0x60 DUP13 ADD MLOAD SWAP8 POP PUSH3 0x491 PUSH1 0x80 DUP14 ADD PUSH3 0x353 JUMP JUMPDEST SWAP7 POP PUSH3 0x4A1 PUSH1 0xA0 DUP14 ADD PUSH3 0x353 JUMP JUMPDEST SWAP6 POP PUSH1 0xC0 DUP13 ADD MLOAD SWAP5 POP PUSH3 0x4B8 PUSH1 0xE0 DUP14 ADD PUSH3 0x353 JUMP JUMPDEST SWAP4 POP PUSH2 0x100 DUP13 ADD MLOAD SWAP2 POP DUP1 DUP3 GT ISZERO PUSH3 0x4D0 JUMPI PUSH1 0x0 DUP1 REVERT JUMPDEST POP PUSH3 0x4DF DUP13 DUP3 DUP14 ADD PUSH3 0x369 JUMP JUMPDEST SWAP2 POP POP SWAP3 SWAP6 SWAP9 POP SWAP3 SWAP6 SWAP9 POP SWAP3 SWAP6 SWAP9 JUMP JUMPDEST PUSH1 0x1 DUP2 DUP2 SHR SWAP1 DUP3 AND DUP1 PUSH3 0x504 JUMPI PUSH1 0x7F DUP3 AND SWAP2 POP JUMPDEST PUSH1 0x20 DUP3 LT DUP2 EQ ISZERO PUSH3 0x526 JUMPI PUSH4 0x4E487B71 PUSH1 0xE0 SHL PUSH1 0x0 MSTORE PUSH1 0x22 PUSH1 0x4 MSTORE PUSH1 0x24 PUSH1 0x0 REVERT JUMPDEST POP SWAP2 SWAP1 POP JUMP JUMPDEST PUSH2 0x4D3A DUP1 PUSH3 0x53C PUSH1 0x0 CODECOPY PUSH1 0x0 RETURN INVALID PUSH1 0x80 PUSH1 0x40 MSTORE PUSH1 0x4 CALLDATASIZE LT PUSH2 0x335 JUMPI PUSH1 0x0 CALLDATALOAD PUSH1 0xE0 SHR DUP1 PUSH4 0x8C7EB38E GT PUSH2 0x1AB JUMPI DUP1 PUSH4 0xBDA8D370 GT PUSH2 0xF7 JUMPI DUP1 PUSH4 0xE9E4E160 GT PUSH2 0x95 JUMPI DUP1 PUSH4 0xF4A0A528 GT PUSH2 0x6F JUMPI DUP1 PUSH4 0xF4A0A528 EQ PUSH2 0x94D JUMPI DUP1 PUSH4 0xF7E944EE EQ PUSH2 0x96D JUMPI DUP1 PUSH4 0xFCF984A9 EQ PUSH2 0x98D JUMPI DUP1 PUSH4 0xFF7F0CF9 EQ PUSH2 0x9AD JUMPI PUSH1 0x0 DUP1 REVERT JUMPDEST DUP1 PUSH4 0xE9E4E160 EQ PUSH2 0x8ED JUMPI DUP1 PUSH4 0xEACABE14 EQ PUSH2 0x90D JUMPI DUP1 PUSH4 0xF2FDE38B EQ PUSH2 0x92D JUMPI PUSH1 0x0 DUP1 REVERT JUMPDEST DUP1 PUSH4 0xD55A34E4 GT PUSH2 0xD1 JUMPI DUP1 PUSH4 0xD55A34E4 EQ PUSH2 0x84D JUMPI DUP1 PUSH4 0xD5ABEB01 EQ PUSH2 0x862 JUMPI DUP1 PUSH4 0xE1E767E6 EQ PUSH2 0x877 JUMPI DUP1 PUSH4 0xE985E9C5 EQ PUSH2 0x8A4 JUMPI PUSH1 0x0 DUP1 REVERT JUMPDEST DUP1 PUSH4 0xBDA8D370 EQ PUSH2 0x7F0 JUMPI DUP1 PUSH4 0xC399748D EQ PUSH2 0x810 JUMPI DUP1 PUSH4 0xC87B56DD EQ PUSH2 0x82D JUMPI PUSH1 0x0 DUP1 REVERT JUMPDEST DUP1 PUSH4 0xA096C5A2 GT PUSH2 0x164 JUMPI DUP1 PUSH4 0xA7F93EBD GT PUSH2 0x13E JUMPI DUP1 PUSH4 0xA7F93EBD EQ PUSH2 0x790 JUMPI DUP1 PUSH4 0xAD3EA47E EQ PUSH2 0x7A5 JUMPI DUP1 PUSH4 0xB42A275E EQ PUSH2 0x7BD JUMPI DUP1 PUSH4 0xB88D4FDE EQ PUSH2 0x7D0 JUMPI PUSH1 0x0 DUP1 REVERT JUMPDEST DUP1 PUSH4 0xA096C5A2 EQ PUSH2 0x743 JUMPI DUP1 PUSH4 0xA22CB465 EQ PUSH2 0x758 JUMPI DUP1 PUSH4 0xA6FDE7AB EQ PUSH2 0x778 JUMPI PUSH1 0x0 DUP1 REVERT JUMPDEST DUP1 PUSH4 0x8C7EB38E EQ PUSH2 0x6A6 JUMPI DUP1 PUSH4 0x8DA5CB5B EQ PUSH2 0x6BB JUMPI DUP1 PUSH4 0x91A48A1E EQ PUSH2 0x6D9 JUMPI DUP1 PUSH4 0x952977F5 EQ PUSH2 0x6F9 JUMPI DUP1 PUSH4 0x95D89B41 EQ PUSH2 0x70E JUMPI DUP1 PUSH4 0x9FD5D2AB EQ PUSH2 0x723 JUMPI PUSH1 0x0 DUP1 REVERT JUMPDEST DUP1 PUSH4 0x476CAA70 GT PUSH2 0x285 JUMPI DUP1 PUSH4 0x69C57352 GT PUSH2 0x223 JUMPI DUP1 PUSH4 0x715018A6 GT PUSH2 0x1FD JUMPI DUP1 PUSH4 0x715018A6 EQ PUSH2 0x631 JUMPI DUP1 PUSH4 0x785FA7CE EQ PUSH2 0x646 JUMPI DUP1 PUSH4 0x7918A1DF EQ PUSH2 0x666 JUMPI DUP1 PUSH4 0x7B668457 EQ PUSH2 0x686 JUMPI PUSH1 0x0 DUP1 REVERT JUMPDEST DUP1 PUSH4 0x69C57352 EQ PUSH2 0x5CF JUMPI DUP1 PUSH4 0x6F8B44B0 EQ PUSH2 0x5F1 JUMPI DUP1 PUSH4 0x70A08231 EQ PUSH2 0x611 JUMPI PUSH1 0x0 DUP1 REVERT JUMPDEST DUP1 PUSH4 0x54FD4D50 GT PUSH2 0x25F JUMPI DUP1 PUSH4 0x54FD4D50 EQ PUSH2 0x557 JUMPI DUP1 PUSH4 0x5E81078D EQ PUSH2 0x56D JUMPI DUP1 PUSH4 0x6352211E EQ PUSH2 0x58D JUMPI DUP1 PUSH4 0x65F5F661 EQ PUSH2 0x5AD JUMPI PUSH1 0x0 DUP1 REVERT JUMPDEST DUP1 PUSH4 0x476CAA70 EQ PUSH2 0x504 JUMPI DUP1 PUSH4 0x512DDCF9 EQ PUSH2 0x524 JUMPI DUP1 PUSH4 0x51ED8288 EQ PUSH2 0x544 JUMPI PUSH1 0x0 DUP1 REVERT JUMPDEST DUP1 PUSH4 0x18160DDD GT PUSH2 0x2F2 JUMPI DUP1 PUSH4 0x23B872DD GT PUSH2 0x2CC JUMPI DUP1 PUSH4 0x23B872DD EQ PUSH2 0x49B JUMPI DUP1 PUSH4 0x31AF3886 EQ PUSH2 0x4BB JUMPI DUP1 PUSH4 0x32CB6B0C EQ PUSH2 0x4CE JUMPI DUP1 PUSH4 0x42842E0E EQ PUSH2 0x4E4 JUMPI PUSH1 0x0 DUP1 REVERT JUMPDEST DUP1 PUSH4 0x18160DDD EQ PUSH2 0x42B JUMPI DUP1 PUSH4 0x19C8C1C5 EQ PUSH2 0x44E JUMPI DUP1 PUSH4 0x1A3074DC EQ PUSH2 0x47B JUMPI PUSH1 0x0 DUP1 REVERT JUMPDEST DUP1 PUSH4 0x1FFC9A7 EQ PUSH2 0x33A JUMPI DUP1 PUSH4 0x47A5D43 EQ PUSH2 0x36F JUMPI DUP1 PUSH4 0x6FDDE03 EQ PUSH2 0x391 JUMPI DUP1 PUSH4 0x81812FC EQ PUSH2 0x3B3 JUMPI DUP1 PUSH4 0x95EA7B3 EQ PUSH2 0x3EB JUMPI DUP1 PUSH4 0x10603023 EQ PUSH2 0x40B JUMPI JUMPDEST PUSH1 0x0 DUP1 REVERT JUMPDEST CALLVALUE DUP1 ISZERO PUSH2 0x346 JUMPI PUSH1 0x0 DUP1 REVERT JUMPDEST POP PUSH2 0x35A PUSH2 0x355 CALLDATASIZE PUSH1 0x4 PUSH2 0x3EDE JUMP JUMPDEST PUSH2 0x9C2 JUMP JUMPDEST PUSH1 0x40 MLOAD SWAP1 ISZERO ISZERO DUP2 MSTORE PUSH1 0x20 ADD JUMPDEST PUSH1 0x40 MLOAD DUP1 SWAP2 SUB SWAP1 RETURN JUMPDEST CALLVALUE DUP1 ISZERO PUSH2 0x37B JUMPI PUSH1 0x0 DUP1 REVERT JUMPDEST POP PUSH2 0x38F PUSH2 0x38A CALLDATASIZE PUSH1 0x4 PUSH2 0x3EFB JUMP JUMPDEST PUSH2 0xA14 JUMP JUMPDEST STOP JUMPDEST CALLVALUE DUP1 ISZERO PUSH2 0x39D JUMPI PUSH1 0x0 DUP1 REVERT JUMPDEST POP PUSH2 0x3A6 PUSH2 0xEDB JUMP JUMPDEST PUSH1 0x40 MLOAD PUSH2 0x366 SWAP2 SWAP1 PUSH2 0x3F6C JUMP JUMPDEST CALLVALUE DUP1 ISZERO PUSH2 0x3BF JUMPI PUSH1 0x0 DUP1 REVERT JUMPDEST POP PUSH2 0x3D3 PUSH2 0x3CE CALLDATASIZE PUSH1 0x4 PUSH2 0x3EFB JUMP JUMPDEST PUSH2 0xF6D JUMP JUMPDEST PUSH1 0x40 MLOAD PUSH1 0x1 PUSH1 0x1 PUSH1 0xA0 SHL SUB SWAP1 SWAP2 AND DUP2 MSTORE PUSH1 0x20 ADD PUSH2 0x366 JUMP JUMPDEST CALLVALUE DUP1 ISZERO PUSH2 0x3F7 JUMPI PUSH1 0x0 DUP1 REVERT JUMPDEST POP PUSH2 0x38F PUSH2 0x406 CALLDATASIZE PUSH1 0x4 PUSH2 0x3F9B JUMP JUMPDEST PUSH2 0xF94 JUMP JUMPDEST CALLVALUE DUP1 ISZERO PUSH2 0x417 JUMPI PUSH1 0x0 DUP1 REVERT JUMPDEST POP PUSH2 0x38F PUSH2 0x426 CALLDATASIZE PUSH1 0x4 PUSH2 0x3EFB JUMP JUMPDEST PUSH2 0x10AA JUMP JUMPDEST CALLVALUE DUP1 ISZERO PUSH2 0x437 JUMPI PUSH1 0x0 DUP1 REVERT JUMPDEST POP PUSH2 0x440 PUSH2 0x10B7 JUMP JUMPDEST PUSH1 0x40 MLOAD SWAP1 DUP2 MSTORE PUSH1 0x20 ADD PUSH2 0x366 JUMP JUMPDEST CALLVALUE DUP1 ISZERO PUSH2 0x45A JUMPI PUSH1 0x0 DUP1 REVERT JUMPDEST POP PUSH2 0x46E PUSH2 0x469 CALLDATASIZE PUSH1 0x4 PUSH2 0x3FC5 JUMP JUMPDEST PUSH2 0x10C7 JUMP JUMPDEST PUSH1 0x40 MLOAD PUSH2 0x366 SWAP2 SWAP1 PUSH2 0x3FE0 JUMP JUMPDEST CALLVALUE DUP1 ISZERO PUSH2 0x487 JUMPI PUSH1 0x0 DUP1 REVERT JUMPDEST POP PUSH2 0x38F PUSH2 0x496 CALLDATASIZE PUSH1 0x4 PUSH2 0x408F JUMP JUMPDEST PUSH2 0x1325 JUMP JUMPDEST CALLVALUE DUP1 ISZERO PUSH2 0x4A7 JUMPI PUSH1 0x0 DUP1 REVERT JUMPDEST POP PUSH2 0x38F PUSH2 0x4B6 CALLDATASIZE PUSH1 0x4 PUSH2 0x40AC JUMP JUMPDEST PUSH2 0x1347 JUMP JUMPDEST PUSH2 0x440 PUSH2 0x4C9 CALLDATASIZE PUSH1 0x4 PUSH2 0x3EFB JUMP JUMPDEST PUSH2 0x1378 JUMP JUMPDEST CALLVALUE DUP1 ISZERO PUSH2 0x4DA JUMPI PUSH1 0x0 DUP1 REVERT JUMPDEST POP PUSH2 0x440 PUSH1 0x9 SLOAD DUP2 JUMP JUMPDEST CALLVALUE DUP1 ISZERO PUSH2 0x4F0 JUMPI PUSH1 0x0 DUP1 REVERT JUMPDEST POP PUSH2 0x38F PUSH2 0x4FF CALLDATASIZE PUSH1 0x4 PUSH2 0x40AC JUMP JUMPDEST PUSH2 0x1635 JUMP JUMPDEST CALLVALUE DUP1 ISZERO PUSH2 0x510 JUMPI PUSH1 0x0 DUP1 REVERT JUMPDEST POP PUSH2 0x440 PUSH2 0x51F CALLDATASIZE PUSH1 0x4 PUSH2 0x3FC5 JUMP JUMPDEST PUSH2 0x1650 JUMP JUMPDEST CALLVALUE DUP1 ISZERO PUSH2 0x530 JUMPI PUSH1 0x0 DUP1 REVERT JUMPDEST POP PUSH2 0x38F PUSH2 0x53F CALLDATASIZE PUSH1 0x4 PUSH2 0x3EFB JUMP JUMPDEST PUSH2 0x16C4 JUMP JUMPDEST PUSH2 0x38F PUSH2 0x552 CALLDATASIZE PUSH1 0x4 PUSH2 0x3EFB JUMP JUMPDEST PUSH2 0x1788 JUMP JUMPDEST CALLVALUE DUP1 ISZERO PUSH2 0x563 JUMPI PUSH1 0x0 DUP1 REVERT JUMPDEST POP PUSH2 0x440 PUSH1 0xA SLOAD DUP2 JUMP JUMPDEST CALLVALUE DUP1 ISZERO PUSH2 0x579 JUMPI PUSH1 0x0 DUP1 REVERT JUMPDEST POP PUSH2 0x38F PUSH2 0x588 CALLDATASIZE PUSH1 0x4 PUSH2 0x408F JUMP JUMPDEST PUSH2 0x1AC7 JUMP JUMPDEST CALLVALUE DUP1 ISZERO PUSH2 0x599 JUMPI PUSH1 0x0 DUP1 REVERT JUMPDEST POP PUSH2 0x3D3 PUSH2 0x5A8 CALLDATASIZE PUSH1 0x4 PUSH2 0x3EFB JUMP JUMPDEST PUSH2 0x1AE2 JUMP JUMPDEST CALLVALUE DUP1 ISZERO PUSH2 0x5B9 JUMPI PUSH1 0x0 DUP1 REVERT JUMPDEST POP PUSH2 0x5C2 PUSH2 0x1B42 JUMP JUMPDEST PUSH1 0x40 MLOAD PUSH2 0x366 SWAP2 SWAP1 PUSH2 0x40E8 JUMP JUMPDEST CALLVALUE DUP1 ISZERO PUSH2 0x5DB JUMPI PUSH1 0x0 DUP1 REVERT JUMPDEST POP PUSH2 0x5E4 PUSH2 0x1C1B JUMP JUMPDEST PUSH1 0x40 MLOAD PUSH2 0x366 SWAP2 SWAP1 PUSH2 0x414A JUMP JUMPDEST CALLVALUE DUP1 ISZERO PUSH2 0x5FD JUMPI PUSH1 0x0 DUP1 REVERT JUMPDEST POP PUSH2 0x38F PUSH2 0x60C CALLDATASIZE PUSH1 0x4 PUSH2 0x3EFB JUMP JUMPDEST PUSH2 0x1C7C JUMP JUMPDEST CALLVALUE DUP1 ISZERO PUSH2 0x61D JUMPI PUSH1 0x0 DUP1 REVERT JUMPDEST POP PUSH2 0x440 PUSH2 0x62C CALLDATASIZE PUSH1 0x4 PUSH2 0x3FC5 JUMP JUMPDEST PUSH2 0x1C89 JUMP JUMPDEST CALLVALUE DUP1 ISZERO PUSH2 0x63D JUMPI PUSH1 0x0 DUP1 REVERT JUMPDEST POP PUSH2 0x38F PUSH2 0x1D0F JUMP JUMPDEST CALLVALUE DUP1 ISZERO PUSH2 0x652 JUMPI PUSH1 0x0 DUP1 REVERT JUMPDEST POP PUSH2 0x35A PUSH2 0x661 CALLDATASIZE PUSH1 0x4 PUSH2 0x3FC5 JUMP JUMPDEST PUSH2 0x1D23 JUMP JUMPDEST CALLVALUE DUP1 ISZERO PUSH2 0x672 JUMPI PUSH1 0x0 DUP1 REVERT JUMPDEST POP PUSH2 0x38F PUSH2 0x681 CALLDATASIZE PUSH1 0x4 PUSH2 0x4272 JUMP JUMPDEST PUSH2 0x1D87 JUMP JUMPDEST CALLVALUE DUP1 ISZERO PUSH2 0x692 JUMPI PUSH1 0x0 DUP1 REVERT JUMPDEST POP PUSH2 0x38F PUSH2 0x6A1 CALLDATASIZE PUSH1 0x4 PUSH2 0x42F8 JUMP JUMPDEST PUSH2 0x1DD6 JUMP JUMPDEST CALLVALUE DUP1 ISZERO PUSH2 0x6B2 JUMPI PUSH1 0x0 DUP1 REVERT JUMPDEST POP PUSH2 0x35A PUSH1 0x1 DUP2 JUMP JUMPDEST CALLVALUE DUP1 ISZERO PUSH2 0x6C7 JUMPI PUSH1 0x0 DUP1 REVERT JUMPDEST POP PUSH1 0x7 SLOAD PUSH1 0x1 PUSH1 0x1 PUSH1 0xA0 SHL SUB AND PUSH2 0x3D3 JUMP JUMPDEST CALLVALUE DUP1 ISZERO PUSH2 0x6E5 JUMPI PUSH1 0x0 DUP1 REVERT JUMPDEST POP PUSH2 0x38F PUSH2 0x6F4 CALLDATASIZE PUSH1 0x4 PUSH2 0x431D JUMP JUMPDEST PUSH2 0x209F JUMP JUMPDEST CALLVALUE DUP1 ISZERO PUSH2 0x705 JUMPI PUSH1 0x0 DUP1 REVERT JUMPDEST POP PUSH1 0xC SLOAD PUSH2 0x440 JUMP JUMPDEST CALLVALUE DUP1 ISZERO PUSH2 0x71A JUMPI PUSH1 0x0 DUP1 REVERT JUMPDEST POP PUSH2 0x3A6 PUSH2 0x22DC JUMP JUMPDEST CALLVALUE DUP1 ISZERO PUSH2 0x72F JUMPI PUSH1 0x0 DUP1 REVERT JUMPDEST POP PUSH2 0x38F PUSH2 0x73E CALLDATASIZE PUSH1 0x4 PUSH2 0x408F JUMP JUMPDEST PUSH2 0x22EB JUMP JUMPDEST CALLVALUE DUP1 ISZERO PUSH2 0x74F JUMPI PUSH1 0x0 DUP1 REVERT JUMPDEST POP PUSH2 0x46E PUSH2 0x2306 JUMP JUMPDEST CALLVALUE DUP1 ISZERO PUSH2 0x764 JUMPI PUSH1 0x0 DUP1 REVERT JUMPDEST POP PUSH2 0x38F PUSH2 0x773 CALLDATASIZE PUSH1 0x4 PUSH2 0x433F JUMP JUMPDEST PUSH2 0x2311 JUMP JUMPDEST CALLVALUE DUP1 ISZERO PUSH2 0x784 JUMPI PUSH1 0x0 DUP1 REVERT JUMPDEST POP PUSH1 0xD SLOAD PUSH1 0xFF AND PUSH2 0x35A JUMP JUMPDEST CALLVALUE DUP1 ISZERO PUSH2 0x79C JUMPI PUSH1 0x0 DUP1 REVERT JUMPDEST POP PUSH1 0x15 SLOAD PUSH2 0x440 JUMP JUMPDEST CALLVALUE DUP1 ISZERO PUSH2 0x7B1 JUMPI PUSH1 0x0 DUP1 REVERT JUMPDEST POP PUSH1 0xB SLOAD PUSH1 0xFF AND PUSH2 0x35A JUMP JUMPDEST CALLVALUE DUP1 ISZERO PUSH2 0x7C9 JUMPI PUSH1 0x0 DUP1 REVERT JUMPDEST POP SELFBALANCE PUSH2 0x440 JUMP JUMPDEST CALLVALUE DUP1 ISZERO PUSH2 0x7DC JUMPI PUSH1 0x0 DUP1 REVERT JUMPDEST POP PUSH2 0x38F PUSH2 0x7EB CALLDATASIZE PUSH1 0x4 PUSH2 0x43CD JUMP JUMPDEST PUSH2 0x2320 JUMP JUMPDEST CALLVALUE DUP1 ISZERO PUSH2 0x7FC JUMPI PUSH1 0x0 DUP1 REVERT JUMPDEST POP PUSH2 0x38F PUSH2 0x80B CALLDATASIZE PUSH1 0x4 PUSH2 0x44E7 JUMP JUMPDEST PUSH2 0x2352 JUMP JUMPDEST CALLVALUE DUP1 ISZERO PUSH2 0x81C JUMPI PUSH1 0x0 DUP1 REVERT JUMPDEST POP PUSH1 0xB SLOAD PUSH2 0x100 SWAP1 DIV PUSH1 0xFF AND PUSH2 0x35A JUMP JUMPDEST CALLVALUE DUP1 ISZERO PUSH2 0x839 JUMPI PUSH1 0x0 DUP1 REVERT JUMPDEST POP PUSH2 0x3A6 PUSH2 0x848 CALLDATASIZE PUSH1 0x4 PUSH2 0x3EFB JUMP JUMPDEST PUSH2 0x236D JUMP JUMPDEST CALLVALUE DUP1 ISZERO PUSH2 0x859 JUMPI PUSH1 0x0 DUP1 REVERT JUMPDEST POP PUSH2 0x46E PUSH2 0x247E JUMP JUMPDEST CALLVALUE DUP1 ISZERO PUSH2 0x86E JUMPI PUSH1 0x0 DUP1 REVERT JUMPDEST POP PUSH1 0x9 SLOAD PUSH2 0x440 JUMP JUMPDEST CALLVALUE DUP1 ISZERO PUSH2 0x883 JUMPI PUSH1 0x0 DUP1 REVERT JUMPDEST POP PUSH2 0x897 PUSH2 0x892 CALLDATASIZE PUSH1 0x4 PUSH2 0x451B JUMP JUMPDEST PUSH2 0x268B JUMP JUMPDEST PUSH1 0x40 MLOAD PUSH2 0x366 SWAP2 SWAP1 PUSH2 0x4609 JUMP JUMPDEST CALLVALUE DUP1 ISZERO PUSH2 0x8B0 JUMPI PUSH1 0x0 DUP1 REVERT JUMPDEST POP PUSH2 0x35A PUSH2 0x8BF CALLDATASIZE PUSH1 0x4 PUSH2 0x4641 JUMP JUMPDEST PUSH1 0x1 PUSH1 0x1 PUSH1 0xA0 SHL SUB SWAP2 DUP3 AND PUSH1 0x0 SWAP1 DUP2 MSTORE PUSH1 0x5 PUSH1 0x20 SWAP1 DUP2 MSTORE PUSH1 0x40 DUP1 DUP4 KECCAK256 SWAP4 SWAP1 SWAP5 AND DUP3 MSTORE SWAP2 SWAP1 SWAP2 MSTORE KECCAK256 SLOAD PUSH1 0xFF AND SWAP1 JUMP JUMPDEST CALLVALUE DUP1 ISZERO PUSH2 0x8F9 JUMPI PUSH1 0x0 DUP1 REVERT JUMPDEST POP PUSH2 0x38F PUSH2 0x908 CALLDATASIZE PUSH1 0x4 PUSH2 0x4674 JUMP JUMPDEST PUSH2 0x2BD9 JUMP JUMPDEST CALLVALUE DUP1 ISZERO PUSH2 0x919 JUMPI PUSH1 0x0 DUP1 REVERT JUMPDEST POP PUSH2 0x440 PUSH2 0x928 CALLDATASIZE PUSH1 0x4 PUSH2 0x46A8 JUMP JUMPDEST PUSH2 0x2BF4 JUMP JUMPDEST CALLVALUE DUP1 ISZERO PUSH2 0x939 JUMPI PUSH1 0x0 DUP1 REVERT JUMPDEST POP PUSH2 0x38F PUSH2 0x948 CALLDATASIZE PUSH1 0x4 PUSH2 0x3FC5 JUMP JUMPDEST PUSH2 0x2C68 JUMP JUMPDEST CALLVALUE DUP1 ISZERO PUSH2 0x959 JUMPI PUSH1 0x0 DUP1 REVERT JUMPDEST POP PUSH2 0x38F PUSH2 0x968 CALLDATASIZE PUSH1 0x4 PUSH2 0x3EFB JUMP JUMPDEST PUSH2 0x2CDE JUMP JUMPDEST CALLVALUE DUP1 ISZERO PUSH2 0x979 JUMPI PUSH1 0x0 DUP1 REVERT JUMPDEST POP PUSH2 0x38F PUSH2 0x988 CALLDATASIZE PUSH1 0x4 PUSH2 0x3EFB JUMP JUMPDEST PUSH2 0x2CEB JUMP JUMPDEST CALLVALUE DUP1 ISZERO PUSH2 0x999 JUMPI PUSH1 0x0 DUP1 REVERT JUMPDEST POP PUSH2 0x38F PUSH2 0x9A8 CALLDATASIZE PUSH1 0x4 PUSH2 0x3FC5 JUMP JUMPDEST PUSH2 0x2D65 JUMP JUMPDEST CALLVALUE DUP1 ISZERO PUSH2 0x9B9 JUMPI PUSH1 0x0 DUP1 REVERT JUMPDEST POP PUSH2 0x38F PUSH2 0x2E6E JUMP JUMPDEST PUSH1 0x0 PUSH1 0x1 PUSH1 0x1 PUSH1 0xE0 SHL SUB NOT DUP3 AND PUSH4 0x80AC58CD PUSH1 0xE0 SHL EQ DUP1 PUSH2 0x9F3 JUMPI POP PUSH1 0x1 PUSH1 0x1 PUSH1 0xE0 SHL SUB NOT DUP3 AND PUSH4 0x5B5E139F PUSH1 0xE0 SHL EQ JUMPDEST DUP1 PUSH2 0xA0E JUMPI POP PUSH4 0x1FFC9A7 PUSH1 0xE0 SHL PUSH1 0x1 PUSH1 0x1 PUSH1 0xE0 SHL SUB NOT DUP4 AND EQ JUMPDEST SWAP3 SWAP2 POP POP JUMP JUMPDEST PUSH1 0xB SLOAD PUSH1 0xFF AND ISZERO ISZERO PUSH1 0x1 EQ PUSH2 0xA44 JUMPI PUSH1 0x40 MLOAD PUSH3 0x461BCD PUSH1 0xE5 SHL DUP2 MSTORE PUSH1 0x4 ADD PUSH2 0xA3B SWAP1 PUSH2 0x46F5 JUMP JUMPDEST PUSH1 0x40 MLOAD DUP1 SWAP2 SUB SWAP1 REVERT JUMPDEST PUSH2 0xA4D DUP2 PUSH2 0x1AE2 JUMP JUMPDEST PUSH1 0x1 PUSH1 0x1 PUSH1 0xA0 SHL SUB AND ADDRESS PUSH1 0x1 PUSH1 0x1 PUSH1 0xA0 SHL SUB AND EQ PUSH2 0xAAD JUMPI PUSH1 0x40 MLOAD PUSH3 0x461BCD PUSH1 0xE5 SHL DUP2 MSTORE PUSH1 0x20 PUSH1 0x4 DUP3 ADD MSTORE PUSH1 0x1A PUSH1 0x24 DUP3 ADD MSTORE PUSH32 0x54686973204E4654206E6F742061742073616C6520626F617264000000000000 PUSH1 0x44 DUP3 ADD MSTORE PUSH1 0x64 ADD PUSH2 0xA3B JUMP JUMPDEST PUSH1 0x0 DUP2 DUP2 MSTORE PUSH1 0xE PUSH1 0x20 MSTORE PUSH1 0x40 SWAP1 KECCAK256 SLOAD PUSH1 0xFF AND ISZERO ISZERO PUSH1 0x1 EQ PUSH2 0xB0B JUMPI PUSH1 0x40 MLOAD PUSH3 0x461BCD PUSH1 0xE5 SHL DUP2 MSTORE PUSH1 0x20 PUSH1 0x4 DUP3 ADD MSTORE PUSH1 0x18 PUSH1 0x24 DUP3 ADD MSTORE PUSH24 0x54686973204E4654206973206E6F7420666F722073616C65 PUSH1 0x40 SHL PUSH1 0x44 DUP3 ADD MSTORE PUSH1 0x64 ADD PUSH2 0xA3B JUMP JUMPDEST PUSH1 0x0 DUP2 DUP2 MSTORE PUSH1 0xF PUSH1 0x20 MSTORE PUSH1 0x40 SWAP1 KECCAK256 PUSH1 0x4 ADD SLOAD PUSH1 0x1 PUSH1 0x1 PUSH1 0xA0 SHL SUB AND PUSH2 0xB72 JUMPI PUSH1 0x40 MLOAD PUSH3 0x461BCD PUSH1 0xE5 SHL DUP2 MSTORE PUSH1 0x20 PUSH1 0x4 DUP3 ADD DUP2 SWAP1 MSTORE PUSH1 0x24 DUP3 ADD MSTORE PUSH32 0x5468697320746F6B656E2073656C6C6564206279204E617469766520636F696E PUSH1 0x44 DUP3 ADD MSTORE PUSH1 0x64 ADD PUSH2 0xA3B JUMP JUMPDEST PUSH1 0x0 DUP2 DUP2 MSTORE PUSH1 0xF PUSH1 0x20 MSTORE PUSH1 0x40 DUP1 DUP3 KECCAK256 PUSH1 0x4 SWAP1 DUP2 ADD SLOAD SWAP2 MLOAD PUSH4 0x70A08231 PUSH1 0xE0 SHL DUP2 MSTORE CALLER SWAP2 DUP2 ADD SWAP2 SWAP1 SWAP2 MSTORE PUSH1 0x1 PUSH1 0x1 PUSH1 0xA0 SHL SUB SWAP1 SWAP2 AND SWAP2 SWAP1 DUP3 SWAP1 PUSH4 0x70A08231 SWAP1 PUSH1 0x24 ADD PUSH1 0x20 PUSH1 0x40 MLOAD DUP1 DUP4 SUB DUP2 DUP7 GAS STATICCALL ISZERO DUP1 ISZERO PUSH2 0xBD0 JUMPI RETURNDATASIZE PUSH1 0x0 DUP1 RETURNDATACOPY RETURNDATASIZE PUSH1 0x0 REVERT JUMPDEST POP POP POP POP PUSH1 0x40 MLOAD RETURNDATASIZE PUSH1 0x1F NOT PUSH1 0x1F DUP3 ADD AND DUP3 ADD DUP1 PUSH1 0x40 MSTORE POP DUP2 ADD SWAP1 PUSH2 0xBF4 SWAP2 SWAP1 PUSH2 0x4720 JUMP JUMPDEST PUSH1 0x0 DUP5 DUP2 MSTORE PUSH1 0xF PUSH1 0x20 MSTORE PUSH1 0x40 SWAP1 KECCAK256 PUSH1 0x3 ADD SLOAD SWAP1 SWAP2 POP DUP2 LT ISZERO PUSH2 0xC75 JUMPI PUSH1 0x40 MLOAD PUSH3 0x461BCD PUSH1 0xE5 SHL DUP2 MSTORE PUSH1 0x20 PUSH1 0x4 DUP3 ADD MSTORE PUSH1 0x34 PUSH1 0x24 DUP3 ADD MSTORE PUSH32 0x596F7520646F206E6F74206861766520656E6F75676820746F6B656E73206F6E PUSH1 0x44 DUP3 ADD MSTORE PUSH20 0x20796F75722062616C616E636520746F20706179 PUSH1 0x60 SHL PUSH1 0x64 DUP3 ADD MSTORE PUSH1 0x84 ADD PUSH2 0xA3B JUMP JUMPDEST PUSH1 0x40 MLOAD PUSH4 0x6EB1769F PUSH1 0xE1 SHL DUP2 MSTORE CALLER PUSH1 0x4 DUP3 ADD MSTORE ADDRESS PUSH1 0x24 DUP3 ADD MSTORE PUSH1 0x0 SWAP1 PUSH1 0x1 PUSH1 0x1 PUSH1 0xA0 SHL SUB DUP5 AND SWAP1 PUSH4 0xDD62ED3E SWAP1 PUSH1 0x44 ADD PUSH1 0x20 PUSH1 0x40 MLOAD DUP1 DUP4 SUB DUP2 DUP7 GAS STATICCALL ISZERO DUP1 ISZERO PUSH2 0xCC2 JUMPI RETURNDATASIZE PUSH1 0x0 DUP1 RETURNDATACOPY RETURNDATASIZE PUSH1 0x0 REVERT JUMPDEST POP POP POP POP PUSH1 0x40 MLOAD RETURNDATASIZE PUSH1 0x1F NOT PUSH1 0x1F DUP3 ADD AND DUP3 ADD DUP1 PUSH1 0x40 MSTORE POP DUP2 ADD SWAP1 PUSH2 0xCE6 SWAP2 SWAP1 PUSH2 0x4720 JUMP JUMPDEST PUSH1 0x0 DUP6 DUP2 MSTORE PUSH1 0xF PUSH1 0x20 MSTORE PUSH1 0x40 SWAP1 KECCAK256 PUSH1 0x3 ADD SLOAD SWAP1 SWAP2 POP DUP2 LT ISZERO PUSH2 0xD70 JUMPI PUSH1 0x40 MLOAD PUSH3 0x461BCD PUSH1 0xE5 SHL DUP2 MSTORE PUSH1 0x20 PUSH1 0x4 DUP3 ADD MSTORE PUSH1 0x3A PUSH1 0x24 DUP3 ADD MSTORE PUSH32 0x596F7520646964206E6F7420616C6C6F772074686520636F6E74726163742074 PUSH1 0x44 DUP3 ADD MSTORE PUSH32 0x6F2073656E642074686520707572636861736520616D6F756E74000000000000 PUSH1 0x64 DUP3 ADD MSTORE PUSH1 0x84 ADD PUSH2 0xA3B JUMP JUMPDEST PUSH1 0x0 DUP5 DUP2 MSTORE PUSH1 0xF PUSH1 0x20 MSTORE PUSH1 0x40 DUP2 KECCAK256 PUSH1 0x3 ADD SLOAD SWAP1 PUSH2 0xD99 PUSH2 0xD91 DUP4 PUSH1 0x64 PUSH2 0x2EE2 JUMP JUMPDEST PUSH1 0xC SLOAD PUSH2 0x2EEE JUMP JUMPDEST SWAP1 POP PUSH2 0xDAD PUSH1 0x7 SLOAD PUSH1 0x1 PUSH1 0x1 PUSH1 0xA0 SHL SUB AND SWAP1 JUMP JUMPDEST PUSH1 0x0 DUP8 DUP2 MSTORE PUSH1 0xF PUSH1 0x20 MSTORE PUSH1 0x40 SWAP1 KECCAK256 PUSH1 0x2 ADD SLOAD PUSH1 0x1 PUSH1 0x1 PUSH1 0xA0 SHL SUB SWAP1 DUP2 AND SWAP2 AND EQ ISZERO PUSH2 0xDD6 JUMPI POP PUSH1 0x0 JUMPDEST PUSH1 0x0 PUSH2 0xDE2 DUP4 DUP4 PUSH2 0x2EFA JUMP JUMPDEST PUSH1 0x0 DUP9 DUP2 MSTORE PUSH1 0xF PUSH1 0x20 MSTORE PUSH1 0x40 SWAP1 KECCAK256 PUSH1 0x2 ADD SLOAD SWAP1 SWAP2 POP PUSH2 0xE10 SWAP1 PUSH1 0x1 PUSH1 0x1 PUSH1 0xA0 SHL SUB DUP9 DUP2 AND SWAP2 CALLER SWAP2 AND DUP5 PUSH2 0x2F06 JUMP JUMPDEST DUP2 ISZERO PUSH2 0xE3E JUMPI PUSH2 0xE3E CALLER PUSH2 0xE2C PUSH1 0x7 SLOAD PUSH1 0x1 PUSH1 0x1 PUSH1 0xA0 SHL SUB AND SWAP1 JUMP JUMPDEST PUSH1 0x1 PUSH1 0x1 PUSH1 0xA0 SHL SUB DUP10 AND SWAP2 SWAP1 DUP6 PUSH2 0x2F06 JUMP JUMPDEST PUSH2 0xE49 ADDRESS CALLER DUP10 PUSH2 0x2F60 JUMP JUMPDEST PUSH1 0x0 DUP8 DUP2 MSTORE PUSH1 0xE PUSH1 0x20 SWAP1 DUP2 MSTORE PUSH1 0x40 DUP1 DUP4 KECCAK256 DUP1 SLOAD PUSH1 0xFF NOT AND SWAP1 SSTORE PUSH1 0xF SWAP1 SWAP2 MSTORE SWAP1 DUP2 SWAP1 KECCAK256 PUSH1 0x2 DUP2 ADD SLOAD PUSH1 0x4 DUP3 ADD SLOAD PUSH1 0x3 DUP4 ADD SLOAD SWAP4 MLOAD PUSH32 0xDBA1FE9F25C97C0ABD4CD5F6B4F2E4DAE96AC31138A8E8FF5B3C042DEEC9E05E SWAP5 PUSH2 0xEC1 SWAP5 PUSH1 0x1 PUSH1 0x1 PUSH1 0xA0 SHL SUB SWAP5 DUP6 AND SWAP5 CALLER SWAP5 DUP16 SWAP5 PUSH1 0x1 SWAP4 SWAP1 SWAP4 ADD SWAP4 SWAP2 AND SWAP2 PUSH2 0x4814 JUMP JUMPDEST PUSH1 0x40 MLOAD DUP1 SWAP2 SUB SWAP1 LOG1 PUSH2 0xED2 DUP8 PUSH2 0x30D1 JUMP JUMPDEST POP POP POP POP POP POP POP JUMP JUMPDEST PUSH1 0x60 PUSH1 0x0 DUP1 SLOAD PUSH2 0xEEA SWAP1 PUSH2 0x4739 JUMP JUMPDEST DUP1 PUSH1 0x1F ADD PUSH1 0x20 DUP1 SWAP2 DIV MUL PUSH1 0x20 ADD PUSH1 0x40 MLOAD SWAP1 DUP2 ADD PUSH1 0x40 MSTORE DUP1 SWAP3 SWAP2 SWAP1 DUP2 DUP2 MSTORE PUSH1 0x20 ADD DUP3 DUP1 SLOAD PUSH2 0xF16 SWAP1 PUSH2 0x4739 JUMP JUMPDEST DUP1 ISZERO PUSH2 0xF63 JUMPI DUP1 PUSH1 0x1F LT PUSH2 0xF38 JUMPI PUSH2 0x100 DUP1 DUP4 SLOAD DIV MUL DUP4 MSTORE SWAP2 PUSH1 0x20 ADD SWAP2 PUSH2 0xF63 JUMP JUMPDEST DUP3 ADD SWAP2 SWAP1 PUSH1 0x0 MSTORE PUSH1 0x20 PUSH1 0x0 KECCAK256 SWAP1 JUMPDEST DUP2 SLOAD DUP2 MSTORE SWAP1 PUSH1 0x1 ADD SWAP1 PUSH1 0x20 ADD DUP1 DUP4 GT PUSH2 0xF46 JUMPI DUP3 SWAP1 SUB PUSH1 0x1F AND DUP3 ADD SWAP2 JUMPDEST POP POP POP POP POP SWAP1 POP SWAP1 JUMP JUMPDEST PUSH1 0x0 PUSH2 0xF78 DUP3 PUSH2 0x3176 JUMP JUMPDEST POP PUSH1 0x0 SWAP1 DUP2 MSTORE PUSH1 0x4 PUSH1 0x20 MSTORE PUSH1 0x40 SWAP1 KECCAK256 SLOAD PUSH1 0x1 PUSH1 0x1 PUSH1 0xA0 SHL SUB AND SWAP1 JUMP JUMPDEST PUSH1 0x0 PUSH2 0xF9F DUP3 PUSH2 0x1AE2 JUMP JUMPDEST SWAP1 POP DUP1 PUSH1 0x1 PUSH1 0x1 PUSH1 0xA0 SHL SUB AND DUP4 PUSH1 0x1 PUSH1 0x1 PUSH1 0xA0 SHL SUB AND EQ ISZERO PUSH2 0x100D JUMPI PUSH1 0x40 MLOAD PUSH3 0x461BCD PUSH1 0xE5 SHL DUP2 MSTORE PUSH1 0x20 PUSH1 0x4 DUP3 ADD MSTORE PUSH1 0x21 PUSH1 0x24 DUP3 ADD MSTORE PUSH32 0x4552433732313A20617070726F76616C20746F2063757272656E74206F776E65 PUSH1 0x44 DUP3 ADD MSTORE PUSH1 0x39 PUSH1 0xF9 SHL PUSH1 0x64 DUP3 ADD MSTORE PUSH1 0x84 ADD PUSH2 0xA3B JUMP JUMPDEST CALLER PUSH1 0x1 PUSH1 0x1 PUSH1 0xA0 SHL SUB DUP3 AND EQ DUP1 PUSH2 0x1029 JUMPI POP PUSH2 0x1029 DUP2 CALLER PUSH2 0x8BF JUMP JUMPDEST PUSH2 0x109B JUMPI PUSH1 0x40 MLOAD PUSH3 0x461BCD PUSH1 0xE5 SHL DUP2 MSTORE PUSH1 0x20 PUSH1 0x4 DUP3 ADD MSTORE PUSH1 0x3D PUSH1 0x24 DUP3 ADD MSTORE PUSH32 0x4552433732313A20617070726F76652063616C6C6572206973206E6F7420746F PUSH1 0x44 DUP3 ADD MSTORE PUSH32 0x6B656E206F776E6572206F7220617070726F76656420666F7220616C6C000000 PUSH1 0x64 DUP3 ADD MSTORE PUSH1 0x84 ADD PUSH2 0xA3B JUMP JUMPDEST PUSH2 0x10A5 DUP4 DUP4 PUSH2 0x31D5 JUMP JUMPDEST POP POP POP JUMP JUMPDEST PUSH2 0x10B2 PUSH2 0x3243 JUMP JUMPDEST PUSH1 0xC SSTORE JUMP JUMPDEST PUSH1 0x0 PUSH2 0x10C2 PUSH1 0x8 SLOAD SWAP1 JUMP JUMPDEST SWAP1 POP SWAP1 JUMP JUMPDEST PUSH1 0x60 PUSH1 0x0 DUP1 JUMPDEST PUSH1 0x9 SLOAD DUP2 LT ISZERO PUSH2 0x1136 JUMPI PUSH1 0x0 DUP2 DUP2 MSTORE PUSH1 0xE PUSH1 0x20 MSTORE PUSH1 0x40 SWAP1 KECCAK256 SLOAD PUSH1 0xFF AND DUP1 ISZERO PUSH2 0x1111 JUMPI POP PUSH1 0x0 DUP2 DUP2 MSTORE PUSH1 0xF PUSH1 0x20 MSTORE PUSH1 0x40 SWAP1 KECCAK256 PUSH1 0x2 ADD SLOAD PUSH1 0x1 PUSH1 0x1 PUSH1 0xA0 SHL SUB DUP6 DUP2 AND SWAP2 AND EQ JUMPDEST ISZERO PUSH2 0x1124 JUMPI DUP2 PUSH2 0x1120 DUP2 PUSH2 0x486E JUMP JUMPDEST SWAP3 POP POP JUMPDEST DUP1 PUSH2 0x112E DUP2 PUSH2 0x486E JUMP JUMPDEST SWAP2 POP POP PUSH2 0x10CD JUMP JUMPDEST POP PUSH1 0x0 DUP2 PUSH1 0x1 PUSH1 0x1 PUSH1 0x40 SHL SUB DUP2 GT ISZERO PUSH2 0x1151 JUMPI PUSH2 0x1151 PUSH2 0x4197 JUMP JUMPDEST PUSH1 0x40 MLOAD SWAP1 DUP1 DUP3 MSTORE DUP1 PUSH1 0x20 MUL PUSH1 0x20 ADD DUP3 ADD PUSH1 0x40 MSTORE DUP1 ISZERO PUSH2 0x118A JUMPI DUP2 PUSH1 0x20 ADD JUMPDEST PUSH2 0x1177 PUSH2 0x3CE9 JUMP JUMPDEST DUP2 MSTORE PUSH1 0x20 ADD SWAP1 PUSH1 0x1 SWAP1 SUB SWAP1 DUP2 PUSH2 0x116F JUMPI SWAP1 POP JUMPDEST POP SWAP1 POP PUSH1 0x0 SWAP2 POP PUSH1 0x0 JUMPDEST PUSH1 0x9 SLOAD DUP2 LT ISZERO PUSH2 0x131D JUMPI PUSH1 0x0 DUP2 DUP2 MSTORE PUSH1 0xE PUSH1 0x20 MSTORE PUSH1 0x40 SWAP1 KECCAK256 SLOAD PUSH1 0xFF AND DUP1 ISZERO PUSH2 0x11D8 JUMPI POP PUSH1 0x0 DUP2 DUP2 MSTORE PUSH1 0xF PUSH1 0x20 MSTORE PUSH1 0x40 SWAP1 KECCAK256 PUSH1 0x2 ADD SLOAD PUSH1 0x1 PUSH1 0x1 PUSH1 0xA0 SHL SUB DUP7 DUP2 AND SWAP2 AND EQ JUMPDEST ISZERO PUSH2 0x130B JUMPI PUSH1 0x0 PUSH1 0x40 MLOAD DUP1 PUSH1 0xA0 ADD PUSH1 0x40 MSTORE DUP1 DUP4 DUP2 MSTORE PUSH1 0x20 ADD PUSH1 0xF PUSH1 0x0 DUP6 DUP2 MSTORE PUSH1 0x20 ADD SWAP1 DUP2 MSTORE PUSH1 0x20 ADD PUSH1 0x0 KECCAK256 PUSH1 0x1 ADD DUP1 SLOAD PUSH2 0x1211 SWAP1 PUSH2 0x4739 JUMP JUMPDEST DUP1 PUSH1 0x1F ADD PUSH1 0x20 DUP1 SWAP2 DIV MUL PUSH1 0x20 ADD PUSH1 0x40 MLOAD SWAP1 DUP2 ADD PUSH1 0x40 MSTORE DUP1 SWAP3 SWAP2 SWAP1 DUP2 DUP2 MSTORE PUSH1 0x20 ADD DUP3 DUP1 SLOAD PUSH2 0x123D SWAP1 PUSH2 0x4739 JUMP JUMPDEST DUP1 ISZERO PUSH2 0x128A JUMPI DUP1 PUSH1 0x1F LT PUSH2 0x125F JUMPI PUSH2 0x100 DUP1 DUP4 SLOAD DIV MUL DUP4 MSTORE SWAP2 PUSH1 0x20 ADD SWAP2 PUSH2 0x128A JUMP JUMPDEST DUP3 ADD SWAP2 SWAP1 PUSH1 0x0 MSTORE PUSH1 0x20 PUSH1 0x0 KECCAK256 SWAP1 JUMPDEST DUP2 SLOAD DUP2 MSTORE SWAP1 PUSH1 0x1 ADD SWAP1 PUSH1 0x20 ADD DUP1 DUP4 GT PUSH2 0x126D JUMPI DUP3 SWAP1 SUB PUSH1 0x1F AND DUP3 ADD SWAP2 JUMPDEST POP POP POP SWAP2 DUP4 MSTORE POP POP PUSH1 0x0 DUP5 DUP2 MSTORE PUSH1 0xF PUSH1 0x20 DUP2 DUP2 MSTORE PUSH1 0x40 DUP1 DUP5 KECCAK256 PUSH1 0x2 DUP2 ADD SLOAD PUSH1 0x1 PUSH1 0x1 PUSH1 0xA0 SHL SUB SWAP1 DUP2 AND DUP5 DUP9 ADD MSTORE PUSH1 0x3 DUP3 ADD SLOAD SWAP3 DUP8 ADD SWAP3 SWAP1 SWAP3 MSTORE SWAP4 DUP9 SWAP1 MSTORE SWAP2 SWAP1 MSTORE PUSH1 0x4 SWAP1 SWAP2 ADD SLOAD AND PUSH1 0x60 SWAP1 SWAP2 ADD MSTORE DUP4 MLOAD SWAP1 SWAP2 POP DUP2 SWAP1 DUP5 SWAP1 DUP7 SWAP1 DUP2 LT PUSH2 0x12F0 JUMPI PUSH2 0x12F0 PUSH2 0x4889 JUMP JUMPDEST PUSH1 0x20 MUL PUSH1 0x20 ADD ADD DUP2 SWAP1 MSTORE POP DUP4 DUP1 PUSH2 0x1306 SWAP1 PUSH2 0x486E JUMP JUMPDEST SWAP5 POP POP POP JUMPDEST DUP1 PUSH2 0x1315 DUP2 PUSH2 0x486E JUMP JUMPDEST SWAP2 POP POP PUSH2 0x1194 JUMP JUMPDEST POP SWAP4 SWAP3 POP POP POP JUMP JUMPDEST PUSH2 0x132D PUSH2 0x3243 JUMP JUMPDEST PUSH1 0xB DUP1 SLOAD SWAP2 ISZERO ISZERO PUSH2 0x100 MUL PUSH2 0xFF00 NOT SWAP1 SWAP3 AND SWAP2 SWAP1 SWAP2 OR SWAP1 SSTORE JUMP JUMPDEST PUSH2 0x1351 CALLER DUP3 PUSH2 0x329D JUMP JUMPDEST PUSH2 0x136D JUMPI PUSH1 0x40 MLOAD PUSH3 0x461BCD PUSH1 0xE5 SHL DUP2 MSTORE PUSH1 0x4 ADD PUSH2 0xA3B SWAP1 PUSH2 0x489F JUMP JUMPDEST PUSH2 0x10A5 DUP4 DUP4 DUP4 PUSH2 0x2F60 JUMP JUMPDEST PUSH1 0xD SLOAD PUSH1 0x0 SWAP1 PUSH1 0xFF AND ISZERO ISZERO PUSH1 0x1 EQ PUSH2 0x13C5 JUMPI PUSH1 0x40 MLOAD PUSH3 0x461BCD PUSH1 0xE5 SHL DUP2 MSTORE PUSH1 0x20 PUSH1 0x4 DUP3 ADD MSTORE PUSH1 0x10 PUSH1 0x24 DUP3 ADD MSTORE PUSH16 0x135A5B9D081B9BDD08185B1B1BDDD959 PUSH1 0x82 SHL PUSH1 0x44 DUP3 ADD MSTORE PUSH1 0x64 ADD PUSH2 0xA3B JUMP JUMPDEST PUSH1 0x14 SLOAD PUSH2 0x1414 JUMPI PUSH1 0x40 MLOAD PUSH3 0x461BCD PUSH1 0xE5 SHL DUP2 MSTORE PUSH1 0x20 PUSH1 0x4 DUP3 ADD MSTORE PUSH1 0x1A PUSH1 0x24 DUP3 ADD MSTORE PUSH32 0x52616E646F6D206D696E74206E6F7420636F6E66696775726564000000000000 PUSH1 0x44 DUP3 ADD MSTORE PUSH1 0x64 ADD PUSH2 0xA3B JUMP JUMPDEST PUSH1 0x0 PUSH1 0x15 SLOAD GT PUSH2 0x1466 JUMPI PUSH1 0x40 MLOAD PUSH3 0x461BCD PUSH1 0xE5 SHL DUP2 MSTORE PUSH1 0x20 PUSH1 0x4 DUP3 ADD MSTORE PUSH1 0x19 PUSH1 0x24 DUP3 ADD MSTORE PUSH32 0x4D696E74207072696365206E6F7420636F6E6669677572656400000000000000 PUSH1 0x44 DUP3 ADD MSTORE PUSH1 0x64 ADD PUSH2 0xA3B JUMP JUMPDEST PUSH1 0x15 SLOAD CALLVALUE LT ISZERO PUSH2 0x14C2 JUMPI PUSH1 0x40 MLOAD PUSH3 0x461BCD PUSH1 0xE5 SHL DUP2 MSTORE PUSH1 0x20 PUSH1 0x4 DUP3 ADD MSTORE PUSH1 0x21 PUSH1 0x24 DUP3 ADD MSTORE PUSH32 0x596F752068617665206E6F74207061696420656E6F75676820666F72206D696E PUSH1 0x44 DUP3 ADD MSTORE PUSH1 0x1D PUSH1 0xFA SHL PUSH1 0x64 DUP3 ADD MSTORE PUSH1 0x84 ADD PUSH2 0xA3B JUMP JUMPDEST PUSH1 0x0 PUSH2 0x14D3 DUP4 PUSH1 0x14 DUP1 SLOAD SWAP1 POP PUSH2 0x331B JUMP JUMPDEST SWAP1 POP PUSH2 0x14E3 PUSH1 0x8 DUP1 SLOAD PUSH1 0x1 ADD SWAP1 SSTORE JUMP JUMPDEST PUSH1 0x0 PUSH2 0x14EE PUSH1 0x8 SLOAD SWAP1 JUMP JUMPDEST SWAP1 POP PUSH2 0x14FA CALLER DUP3 PUSH2 0x33F5 JUMP JUMPDEST PUSH2 0x15A9 DUP2 PUSH1 0x14 DUP5 DUP2 SLOAD DUP2 LT PUSH2 0x1511 JUMPI PUSH2 0x1511 PUSH2 0x4889 JUMP JUMPDEST SWAP1 PUSH1 0x0 MSTORE PUSH1 0x20 PUSH1 0x0 KECCAK256 ADD DUP1 SLOAD PUSH2 0x1526 SWAP1 PUSH2 0x4739 JUMP JUMPDEST DUP1 PUSH1 0x1F ADD PUSH1 0x20 DUP1 SWAP2 DIV MUL PUSH1 0x20 ADD PUSH1 0x40 MLOAD SWAP1 DUP2 ADD PUSH1 0x40 MSTORE DUP1 SWAP3 SWAP2 SWAP1 DUP2 DUP2 MSTORE PUSH1 0x20 ADD DUP3 DUP1 SLOAD PUSH2 0x1552 SWAP1 PUSH2 0x4739 JUMP JUMPDEST DUP1 ISZERO PUSH2 0x159F JUMPI DUP1 PUSH1 0x1F LT PUSH2 0x1574 JUMPI PUSH2 0x100 DUP1 DUP4 SLOAD DIV MUL DUP4 MSTORE SWAP2 PUSH1 0x20 ADD SWAP2 PUSH2 0x159F JUMP JUMPDEST DUP3 ADD SWAP2 SWAP1 PUSH1 0x0 MSTORE PUSH1 0x20 PUSH1 0x0 KECCAK256 SWAP1 JUMPDEST DUP2 SLOAD DUP2 MSTORE SWAP1 PUSH1 0x1 ADD SWAP1 PUSH1 0x20 ADD DUP1 DUP4 GT PUSH2 0x1582 JUMPI DUP3 SWAP1 SUB PUSH1 0x1F AND DUP3 ADD SWAP2 JUMPDEST POP POP POP POP POP PUSH2 0x358E JUMP JUMPDEST PUSH1 0x7 SLOAD PUSH1 0x40 MLOAD PUSH1 0x1 PUSH1 0x1 PUSH1 0xA0 SHL SUB SWAP1 SWAP2 AND SWAP1 CALLVALUE DUP1 ISZERO PUSH2 0x8FC MUL SWAP2 PUSH1 0x0 DUP2 DUP2 DUP2 DUP6 DUP9 DUP9 CALL SWAP4 POP POP POP POP ISZERO DUP1 ISZERO PUSH2 0x15E2 JUMPI RETURNDATASIZE PUSH1 0x0 DUP1 RETURNDATACOPY RETURNDATASIZE PUSH1 0x0 REVERT JUMPDEST POP PUSH2 0x15EB PUSH2 0x3628 JUMP JUMPDEST PUSH32 0x85A66B9141978DB9980F7E0CE3B468CEBF4F7999F32B23091C5C03E798B1BA7A CALLER DUP3 PUSH2 0x1617 DUP5 PUSH2 0x236D JUMP JUMPDEST PUSH1 0x40 MLOAD PUSH2 0x1626 SWAP4 SWAP3 SWAP2 SWAP1 PUSH2 0x48EC JUMP JUMPDEST PUSH1 0x40 MLOAD DUP1 SWAP2 SUB SWAP1 LOG1 SWAP4 SWAP3 POP POP POP JUMP JUMPDEST PUSH2 0x10A5 DUP4 DUP4 DUP4 PUSH1 0x40 MLOAD DUP1 PUSH1 0x20 ADD PUSH1 0x40 MSTORE DUP1 PUSH1 0x0 DUP2 MSTORE POP PUSH2 0x2320 JUMP JUMPDEST PUSH1 0x40 MLOAD PUSH4 0x70A08231 PUSH1 0xE0 SHL DUP2 MSTORE ADDRESS PUSH1 0x4 DUP3 ADD MSTORE PUSH1 0x0 SWAP1 DUP3 SWAP1 PUSH1 0x1 PUSH1 0x1 PUSH1 0xA0 SHL SUB DUP3 AND SWAP1 PUSH4 0x70A08231 SWAP1 PUSH1 0x24 ADD PUSH1 0x20 PUSH1 0x40 MLOAD DUP1 DUP4 SUB DUP2 DUP7 GAS STATICCALL ISZERO DUP1 ISZERO PUSH2 0x1699 JUMPI RETURNDATASIZE PUSH1 0x0 DUP1 RETURNDATACOPY RETURNDATASIZE PUSH1 0x0 REVERT JUMPDEST POP POP POP POP PUSH1 0x40 MLOAD RETURNDATASIZE PUSH1 0x1F NOT PUSH1 0x1F DUP3 ADD AND DUP3 ADD DUP1 PUSH1 0x40 MSTORE POP DUP2 ADD SWAP1 PUSH2 0x16BD SWAP2 SWAP1 PUSH2 0x4720 JUMP JUMPDEST SWAP4 SWAP3 POP POP POP JUMP JUMPDEST PUSH1 0x7 SLOAD PUSH1 0x1 PUSH1 0x1 PUSH1 0xA0 SHL SUB AND CALLER EQ PUSH2 0x170F JUMPI PUSH1 0x0 DUP2 DUP2 MSTORE PUSH1 0xF PUSH1 0x20 MSTORE PUSH1 0x40 SWAP1 KECCAK256 PUSH1 0x2 ADD SLOAD PUSH1 0x1 PUSH1 0x1 PUSH1 0xA0 SHL SUB AND CALLER EQ PUSH2 0x170F JUMPI PUSH1 0x40 MLOAD PUSH3 0x461BCD PUSH1 0xE5 SHL DUP2 MSTORE PUSH1 0x4 ADD PUSH2 0xA3B SWAP1 PUSH2 0x4913 JUMP JUMPDEST PUSH1 0x0 DUP2 DUP2 MSTORE PUSH1 0xE PUSH1 0x20 SWAP1 DUP2 MSTORE PUSH1 0x40 DUP1 DUP4 KECCAK256 DUP1 SLOAD PUSH1 0xFF NOT AND SWAP1 SSTORE PUSH1 0xF SWAP1 SWAP2 MSTORE SWAP1 DUP2 SWAP1 KECCAK256 SWAP1 MLOAD PUSH32 0x521EB7406B49A95FB2DFAB95388FB8BD894A74FCD27400AE688DF8847847B991 SWAP2 PUSH2 0x1769 SWAP2 CALLER SWAP2 DUP6 SWAP2 PUSH1 0x1 SWAP2 SWAP1 SWAP2 ADD SWAP1 PUSH2 0x4941 JUMP JUMPDEST PUSH1 0x40 MLOAD DUP1 SWAP2 SUB SWAP1 LOG1 PUSH2 0x177A DUP2 PUSH2 0x30D1 JUMP JUMPDEST PUSH2 0x1785 ADDRESS CALLER DUP4 PUSH2 0x2F60 JUMP JUMPDEST POP JUMP JUMPDEST PUSH1 0xB SLOAD PUSH1 0xFF AND ISZERO ISZERO PUSH1 0x1 EQ PUSH2 0x17AF JUMPI PUSH1 0x40 MLOAD PUSH3 0x461BCD PUSH1 0xE5 SHL DUP2 MSTORE PUSH1 0x4 ADD PUSH2 0xA3B SWAP1 PUSH2 0x46F5 JUMP JUMPDEST PUSH2 0x17B8 DUP2 PUSH2 0x1AE2 JUMP JUMPDEST PUSH1 0x1 PUSH1 0x1 PUSH1 0xA0 SHL SUB AND ADDRESS PUSH1 0x1 PUSH1 0x1 PUSH1 0xA0 SHL SUB AND EQ PUSH2 0x1818 JUMPI PUSH1 0x40 MLOAD PUSH3 0x461BCD PUSH1 0xE5 SHL DUP2 MSTORE PUSH1 0x20 PUSH1 0x4 DUP3 ADD MSTORE PUSH1 0x1A PUSH1 0x24 DUP3 ADD MSTORE PUSH32 0x54686973204E4654206E6F742061742073616C6520626F617264000000000000 PUSH1 0x44 DUP3 ADD MSTORE PUSH1 0x64 ADD PUSH2 0xA3B JUMP JUMPDEST PUSH1 0x0 DUP2 DUP2 MSTORE PUSH1 0xE PUSH1 0x20 MSTORE PUSH1 0x40 SWAP1 KECCAK256 SLOAD PUSH1 0xFF AND ISZERO ISZERO PUSH1 0x1 EQ PUSH2 0x1876 JUMPI PUSH1 0x40 MLOAD PUSH3 0x461BCD PUSH1 0xE5 SHL DUP2 MSTORE PUSH1 0x20 PUSH1 0x4 DUP3 ADD MSTORE PUSH1 0x18 PUSH1 0x24 DUP3 ADD MSTORE PUSH24 0x54686973204E4654206973206E6F7420666F722073616C65 PUSH1 0x40 SHL PUSH1 0x44 DUP3 ADD MSTORE PUSH1 0x64 ADD PUSH2 0xA3B JUMP JUMPDEST PUSH1 0x0 DUP2 DUP2 MSTORE PUSH1 0xF PUSH1 0x20 MSTORE PUSH1 0x40 SWAP1 KECCAK256 PUSH1 0x3 ADD SLOAD CALLVALUE LT ISZERO PUSH2 0x18E6 JUMPI PUSH1 0x40 MLOAD PUSH3 0x461BCD PUSH1 0xE5 SHL DUP2 MSTORE PUSH1 0x20 PUSH1 0x4 DUP3 ADD MSTORE PUSH1 0x26 PUSH1 0x24 DUP3 ADD MSTORE PUSH32 0x596F752068617665206E6F74207061696420656E6F75676820666F7220746869 PUSH1 0x44 DUP3 ADD MSTORE PUSH6 0x73206974656D PUSH1 0xD0 SHL PUSH1 0x64 DUP3 ADD MSTORE PUSH1 0x84 ADD PUSH2 0xA3B JUMP JUMPDEST PUSH1 0x0 DUP2 DUP2 MSTORE PUSH1 0xF PUSH1 0x20 MSTORE PUSH1 0x40 SWAP1 KECCAK256 PUSH1 0x4 ADD SLOAD PUSH1 0x1 PUSH1 0x1 PUSH1 0xA0 SHL SUB AND ISZERO PUSH2 0x194E JUMPI PUSH1 0x40 MLOAD PUSH3 0x461BCD PUSH1 0xE5 SHL DUP2 MSTORE PUSH1 0x20 PUSH1 0x4 DUP3 ADD MSTORE PUSH1 0x1A PUSH1 0x24 DUP3 ADD MSTORE PUSH32 0x5468697320746F6B656E2073656C6C6564206279204552433230000000000000 PUSH1 0x44 DUP3 ADD MSTORE PUSH1 0x64 ADD PUSH2 0xA3B JUMP JUMPDEST CALLVALUE PUSH1 0x0 PUSH2 0x195F PUSH2 0xD91 DUP4 PUSH1 0x64 PUSH2 0x2EE2 JUMP JUMPDEST SWAP1 POP PUSH2 0x1973 PUSH1 0x7 SLOAD PUSH1 0x1 PUSH1 0x1 PUSH1 0xA0 SHL SUB AND SWAP1 JUMP JUMPDEST PUSH1 0x0 DUP5 DUP2 MSTORE PUSH1 0xF PUSH1 0x20 MSTORE PUSH1 0x40 SWAP1 KECCAK256 PUSH1 0x2 ADD SLOAD PUSH1 0x1 PUSH1 0x1 PUSH1 0xA0 SHL SUB SWAP1 DUP2 AND SWAP2 AND EQ ISZERO PUSH2 0x199C JUMPI POP PUSH1 0x0 JUMPDEST PUSH1 0x0 PUSH2 0x19A8 DUP4 DUP4 PUSH2 0x2EFA JUMP JUMPDEST PUSH1 0x0 DUP6 DUP2 MSTORE PUSH1 0xF PUSH1 0x20 MSTORE PUSH1 0x40 DUP1 DUP3 KECCAK256 PUSH1 0x2 ADD SLOAD SWAP1 MLOAD SWAP3 SWAP4 POP PUSH1 0x1 PUSH1 0x1 PUSH1 0xA0 SHL SUB AND SWAP2 DUP4 ISZERO PUSH2 0x8FC MUL SWAP2 DUP5 SWAP2 SWAP1 DUP2 DUP2 DUP2 DUP6 DUP9 DUP9 CALL SWAP4 POP POP POP POP ISZERO DUP1 ISZERO PUSH2 0x19F1 JUMPI RETURNDATASIZE PUSH1 0x0 DUP1 RETURNDATACOPY RETURNDATASIZE PUSH1 0x0 REVERT JUMPDEST POP DUP2 ISZERO PUSH2 0x1A34 JUMPI PUSH1 0x7 SLOAD PUSH1 0x40 MLOAD PUSH1 0x1 PUSH1 0x1 PUSH1 0xA0 SHL SUB SWAP1 SWAP2 AND SWAP1 DUP4 ISZERO PUSH2 0x8FC MUL SWAP1 DUP5 SWAP1 PUSH1 0x0 DUP2 DUP2 DUP2 DUP6 DUP9 DUP9 CALL SWAP4 POP POP POP POP ISZERO DUP1 ISZERO PUSH2 0x1A32 JUMPI RETURNDATASIZE PUSH1 0x0 DUP1 RETURNDATACOPY RETURNDATASIZE PUSH1 0x0 REVERT JUMPDEST POP JUMPDEST PUSH2 0x1A3F ADDRESS CALLER DUP7 PUSH2 0x2F60 JUMP JUMPDEST PUSH1 0x0 DUP5 DUP2 MSTORE PUSH1 0xE PUSH1 0x20 SWAP1 DUP2 MSTORE PUSH1 0x40 DUP1 DUP4 KECCAK256 DUP1 SLOAD PUSH1 0xFF NOT AND SWAP1 SSTORE PUSH1 0xF SWAP1 SWAP2 MSTORE SWAP1 DUP2 SWAP1 KECCAK256 PUSH1 0x2 DUP2 ADD SLOAD PUSH1 0x3 DUP3 ADD SLOAD SWAP3 MLOAD PUSH32 0xC785E39ED8F1E4E707FD90D52E643A9685D3943DCB7B56595BE9ADD9157CE2B1 SWAP4 PUSH2 0x1AB0 SWAP4 PUSH1 0x1 PUSH1 0x1 PUSH1 0xA0 SHL SUB SWAP1 SWAP4 AND SWAP3 CALLER SWAP3 DUP11 SWAP3 PUSH1 0x1 SWAP3 SWAP1 SWAP3 ADD SWAP2 SWAP1 PUSH2 0x4968 JUMP JUMPDEST PUSH1 0x40 MLOAD DUP1 SWAP2 SUB SWAP1 LOG1 PUSH2 0x1AC1 DUP5 PUSH2 0x30D1 JUMP JUMPDEST POP POP POP POP JUMP JUMPDEST PUSH2 0x1ACF PUSH2 0x3243 JUMP JUMPDEST PUSH1 0xD DUP1 SLOAD PUSH1 0xFF NOT AND SWAP2 ISZERO ISZERO SWAP2 SWAP1 SWAP2 OR SWAP1 SSTORE JUMP JUMPDEST PUSH1 0x0 DUP2 DUP2 MSTORE PUSH1 0x2 PUSH1 0x20 MSTORE PUSH1 0x40 DUP2 KECCAK256 SLOAD PUSH1 0x1 PUSH1 0x1 PUSH1 0xA0 SHL SUB AND DUP1 PUSH2 0xA0E JUMPI PUSH1 0x40 MLOAD PUSH3 0x461BCD PUSH1 0xE5 SHL DUP2 MSTORE PUSH1 0x20 PUSH1 0x4 DUP3 ADD MSTORE PUSH1 0x18 PUSH1 0x24 DUP3 ADD MSTORE PUSH24 0x115490CDCC8C4E881A5B9D985B1A59081D1BDAD95B881251 PUSH1 0x42 SHL PUSH1 0x44 DUP3 ADD MSTORE PUSH1 0x64 ADD PUSH2 0xA3B JUMP JUMPDEST PUSH1 0x60 PUSH1 0x14 DUP1 SLOAD DUP1 PUSH1 0x20 MUL PUSH1 0x20 ADD PUSH1 0x40 MLOAD SWAP1 DUP2 ADD PUSH1 0x40 MSTORE DUP1 SWAP3 SWAP2 SWAP1 DUP2 DUP2 MSTORE PUSH1 0x20 ADD PUSH1 0x0 SWAP1 JUMPDEST DUP3 DUP3 LT ISZERO PUSH2 0x1C12 JUMPI DUP4 DUP3 SWAP1 PUSH1 0x0 MSTORE PUSH1 0x20 PUSH1 0x0 KECCAK256 ADD DUP1 SLOAD PUSH2 0x1B85 SWAP1 PUSH2 0x4739 JUMP JUMPDEST DUP1 PUSH1 0x1F ADD PUSH1 0x20 DUP1 SWAP2 DIV MUL PUSH1 0x20 ADD PUSH1 0x40 MLOAD SWAP1 DUP2 ADD PUSH1 0x40 MSTORE DUP1 SWAP3 SWAP2 SWAP1 DUP2 DUP2 MSTORE PUSH1 0x20 ADD DUP3 DUP1 SLOAD PUSH2 0x1BB1 SWAP1 PUSH2 0x4739 JUMP JUMPDEST DUP1 ISZERO PUSH2 0x1BFE JUMPI DUP1 PUSH1 0x1F LT PUSH2 0x1BD3 JUMPI PUSH2 0x100 DUP1 DUP4 SLOAD DIV MUL DUP4 MSTORE SWAP2 PUSH1 0x20 ADD SWAP2 PUSH2 0x1BFE JUMP JUMPDEST DUP3 ADD SWAP2 SWAP1 PUSH1 0x0 MSTORE PUSH1 0x20 PUSH1 0x0 KECCAK256 SWAP1 JUMPDEST DUP2 SLOAD DUP2 MSTORE SWAP1 PUSH1 0x1 ADD SWAP1 PUSH1 0x20 ADD DUP1 DUP4 GT PUSH2 0x1BE1 JUMPI DUP3 SWAP1 SUB PUSH1 0x1F AND DUP3 ADD SWAP2 JUMPDEST POP POP POP POP POP DUP2 MSTORE PUSH1 0x20 ADD SWAP1 PUSH1 0x1 ADD SWAP1 PUSH2 0x1B66 JUMP JUMPDEST POP POP POP POP SWAP1 POP SWAP1 JUMP JUMPDEST PUSH1 0x60 PUSH1 0x10 DUP1 SLOAD DUP1 PUSH1 0x20 MUL PUSH1 0x20 ADD PUSH1 0x40 MLOAD SWAP1 DUP2 ADD PUSH1 0x40 MSTORE DUP1 SWAP3 SWAP2 SWAP1 DUP2 DUP2 MSTORE PUSH1 0x20 ADD DUP3 DUP1 SLOAD DUP1 ISZERO PUSH2 0xF63 JUMPI PUSH1 0x20 MUL DUP3 ADD SWAP2 SWAP1 PUSH1 0x0 MSTORE PUSH1 0x20 PUSH1 0x0 KECCAK256 SWAP1 JUMPDEST DUP2 SLOAD PUSH1 0x1 PUSH1 0x1 PUSH1 0xA0 SHL SUB AND DUP2 MSTORE PUSH1 0x1 SWAP1 SWAP2 ADD SWAP1 PUSH1 0x20 ADD DUP1 DUP4 GT PUSH2 0x1C55 JUMPI POP POP POP POP POP SWAP1 POP SWAP1 JUMP JUMPDEST PUSH2 0x1C84 PUSH2 0x3243 JUMP JUMPDEST PUSH1 0x9 SSTORE JUMP JUMPDEST PUSH1 0x0 PUSH1 0x1 PUSH1 0x1 PUSH1 0xA0 SHL SUB DUP3 AND PUSH2 0x1CF3 JUMPI PUSH1 0x40 MLOAD PUSH3 0x461BCD PUSH1 0xE5 SHL DUP2 MSTORE PUSH1 0x20 PUSH1 0x4 DUP3 ADD MSTORE PUSH1 0x29 PUSH1 0x24 DUP3 ADD MSTORE PUSH32 0x4552433732313A2061646472657373207A65726F206973206E6F742061207661 PUSH1 0x44 DUP3 ADD MSTORE PUSH9 0x3634B21037BBB732B9 PUSH1 0xB9 SHL PUSH1 0x64 DUP3 ADD MSTORE PUSH1 0x84 ADD PUSH2 0xA3B JUMP JUMPDEST POP PUSH1 0x1 PUSH1 0x1 PUSH1 0xA0 SHL SUB AND PUSH1 0x0 SWAP1 DUP2 MSTORE PUSH1 0x3 PUSH1 0x20 MSTORE PUSH1 0x40 SWAP1 KECCAK256 SLOAD SWAP1 JUMP JUMPDEST PUSH2 0x1D17 PUSH2 0x3243 JUMP JUMPDEST PUSH2 0x1D21 PUSH1 0x0 PUSH2 0x3641 JUMP JUMPDEST JUMP JUMPDEST PUSH1 0x0 DUP1 JUMPDEST PUSH1 0x10 SLOAD DUP2 LT ISZERO PUSH2 0x1D7E JUMPI PUSH1 0x10 DUP2 DUP2 SLOAD DUP2 LT PUSH2 0x1D44 JUMPI PUSH2 0x1D44 PUSH2 0x4889 JUMP JUMPDEST PUSH1 0x0 SWAP2 DUP3 MSTORE PUSH1 0x20 SWAP1 SWAP2 KECCAK256 ADD SLOAD PUSH1 0x1 PUSH1 0x1 PUSH1 0xA0 SHL SUB DUP5 DUP2 AND SWAP2 AND EQ ISZERO PUSH2 0x1D6C JUMPI POP PUSH1 0x1 SWAP3 SWAP2 POP POP JUMP JUMPDEST DUP1 PUSH2 0x1D76 DUP2 PUSH2 0x486E JUMP JUMPDEST SWAP2 POP POP PUSH2 0x1D27 JUMP JUMPDEST POP PUSH1 0x0 SWAP3 SWAP2 POP POP JUMP JUMPDEST PUSH2 0x1D8F PUSH2 0x3243 JUMP JUMPDEST PUSH1 0x15 DUP7 SWAP1 SSTORE PUSH1 0xB DUP1 SLOAD PUSH2 0xFFFF NOT AND DUP7 ISZERO ISZERO PUSH2 0xFF00 NOT AND OR PUSH2 0x100 DUP7 ISZERO ISZERO MUL OR SWAP1 SSTORE PUSH1 0xC DUP4 SWAP1 SSTORE PUSH1 0xD DUP1 SLOAD PUSH1 0xFF NOT AND DUP4 ISZERO ISZERO OR SWAP1 SSTORE DUP1 MLOAD PUSH2 0xED2 SWAP1 PUSH1 0x10 SWAP1 PUSH1 0x20 DUP5 ADD SWAP1 PUSH2 0x3D2A JUMP JUMPDEST PUSH1 0xB SLOAD PUSH1 0xFF AND ISZERO ISZERO PUSH1 0x1 EQ PUSH2 0x1DFD JUMPI PUSH1 0x40 MLOAD PUSH3 0x461BCD PUSH1 0xE5 SHL DUP2 MSTORE PUSH1 0x4 ADD PUSH2 0xA3B SWAP1 PUSH2 0x46F5 JUMP JUMPDEST PUSH1 0xB SLOAD PUSH2 0x100 SWAP1 DIV PUSH1 0xFF AND DUP1 PUSH2 0x1E1D JUMPI POP PUSH1 0x7 SLOAD PUSH1 0x1 PUSH1 0x1 PUSH1 0xA0 SHL SUB AND CALLER EQ JUMPDEST PUSH2 0x1E69 JUMPI PUSH1 0x40 MLOAD PUSH3 0x461BCD PUSH1 0xE5 SHL DUP2 MSTORE PUSH1 0x20 PUSH1 0x4 DUP3 ADD DUP2 SWAP1 MSTORE PUSH1 0x24 DUP3 ADD MSTORE PUSH32 0x54726164696E67206973206E6F7420616C6C6F77656420666F72207573657273 PUSH1 0x44 DUP3 ADD MSTORE PUSH1 0x64 ADD PUSH2 0xA3B JUMP JUMPDEST PUSH2 0x1E72 DUP4 PUSH2 0x1AE2 JUMP JUMPDEST PUSH1 0x1 PUSH1 0x1 PUSH1 0xA0 SHL SUB AND CALLER PUSH1 0x1 PUSH1 0x1 PUSH1 0xA0 SHL SUB AND EQ PUSH2 0x1EA2 JUMPI PUSH1 0x40 MLOAD PUSH3 0x461BCD PUSH1 0xE5 SHL DUP2 MSTORE PUSH1 0x4 ADD PUSH2 0xA3B SWAP1 PUSH2 0x4913 JUMP JUMPDEST PUSH1 0x0 DUP2 GT PUSH2 0x1EF2 JUMPI PUSH1 0x40 MLOAD PUSH3 0x461BCD PUSH1 0xE5 SHL DUP2 MSTORE PUSH1 0x20 PUSH1 0x4 DUP3 ADD MSTORE PUSH1 0x1F PUSH1 0x24 DUP3 ADD MSTORE PUSH32 0x5072696365206D7573742062652067726561746572207468616E207A65726F00 PUSH1 0x44 DUP3 ADD MSTORE PUSH1 0x64 ADD PUSH2 0xA3B JUMP JUMPDEST PUSH2 0x1EFB DUP3 PUSH2 0x1D23 JUMP JUMPDEST ISZERO ISZERO PUSH1 0x1 EQ PUSH2 0x1F61 JUMPI PUSH1 0x40 MLOAD PUSH3 0x461BCD PUSH1 0xE5 SHL DUP2 MSTORE PUSH1 0x20 PUSH1 0x4 DUP3 ADD MSTORE PUSH1 0x2C PUSH1 0x24 DUP3 ADD MSTORE PUSH32 0x54686973204552433230206E6F7420616C6C6F77656420617320612074726164 PUSH1 0x44 DUP3 ADD MSTORE PUSH12 0x696E672063757272656E6379 PUSH1 0xA0 SHL PUSH1 0x64 DUP3 ADD MSTORE PUSH1 0x84 ADD PUSH2 0xA3B JUMP JUMPDEST PUSH1 0x0 DUP4 DUP2 MSTORE PUSH1 0xE PUSH1 0x20 SWAP1 DUP2 MSTORE PUSH1 0x40 SWAP2 DUP3 SWAP1 KECCAK256 DUP1 SLOAD PUSH1 0xFF NOT AND PUSH1 0x1 OR SWAP1 SSTORE DUP2 MLOAD PUSH1 0xA0 DUP2 ADD SWAP1 SWAP3 MSTORE DUP5 DUP3 MSTORE DUP2 ADD PUSH2 0x1F95 DUP6 PUSH2 0x236D JUMP JUMPDEST DUP2 MSTORE PUSH1 0x20 ADD CALLER PUSH1 0x1 PUSH1 0x1 PUSH1 0xA0 SHL SUB AND DUP2 MSTORE PUSH1 0x20 ADD DUP3 DUP2 MSTORE PUSH1 0x20 ADD DUP4 PUSH1 0x1 PUSH1 0x1 PUSH1 0xA0 SHL SUB AND DUP2 MSTORE POP PUSH1 0xF PUSH1 0x0 DUP6 DUP2 MSTORE PUSH1 0x20 ADD SWAP1 DUP2 MSTORE PUSH1 0x20 ADD PUSH1 0x0 KECCAK256 PUSH1 0x0 DUP3 ADD MLOAD DUP2 PUSH1 0x0 ADD SSTORE PUSH1 0x20 DUP3 ADD MLOAD DUP2 PUSH1 0x1 ADD SWAP1 DUP1 MLOAD SWAP1 PUSH1 0x20 ADD SWAP1 PUSH2 0x1FF5 SWAP3 SWAP2 SWAP1 PUSH2 0x3D8F JUMP JUMPDEST POP PUSH1 0x40 DUP3 ADD MLOAD PUSH1 0x2 DUP3 ADD DUP1 SLOAD PUSH1 0x1 PUSH1 0x1 PUSH1 0xA0 SHL SUB NOT SWAP1 DUP2 AND PUSH1 0x1 PUSH1 0x1 PUSH1 0xA0 SHL SUB SWAP4 DUP5 AND OR SWAP1 SWAP2 SSTORE PUSH1 0x60 DUP5 ADD MLOAD PUSH1 0x3 DUP5 ADD SSTORE PUSH1 0x80 SWAP1 SWAP4 ADD MLOAD PUSH1 0x4 SWAP1 SWAP3 ADD DUP1 SLOAD SWAP1 SWAP4 AND SWAP2 AND OR SWAP1 SSTORE PUSH2 0x2046 CALLER ADDRESS DUP6 PUSH2 0x2F60 JUMP JUMPDEST PUSH32 0x361DD47387032EB423040830B257E1343B2EA5CC7698AC0555757E021299CA9D CALLER DUP5 PUSH1 0xF PUSH1 0x0 DUP8 DUP2 MSTORE PUSH1 0x20 ADD SWAP1 DUP2 MSTORE PUSH1 0x20 ADD PUSH1 0x0 KECCAK256 PUSH1 0x1 ADD DUP6 DUP6 PUSH1 0x40 MLOAD PUSH2 0x2092 SWAP6 SWAP5 SWAP4 SWAP3 SWAP2 SWAP1 PUSH2 0x49AD JUMP JUMPDEST PUSH1 0x40 MLOAD DUP1 SWAP2 SUB SWAP1 LOG1 POP POP POP JUMP JUMPDEST PUSH1 0xB SLOAD PUSH1 0xFF AND ISZERO ISZERO PUSH1 0x1 EQ PUSH2 0x20C6 JUMPI PUSH1 0x40 MLOAD PUSH3 0x461BCD PUSH1 0xE5 SHL DUP2 MSTORE PUSH1 0x4 ADD PUSH2 0xA3B SWAP1 PUSH2 0x46F5 JUMP JUMPDEST PUSH1 0xB SLOAD PUSH2 0x100 SWAP1 DIV PUSH1 0xFF AND DUP1 PUSH2 0x20E6 JUMPI POP PUSH1 0x7 SLOAD PUSH1 0x1 PUSH1 0x1 PUSH1 0xA0 SHL SUB AND CALLER EQ JUMPDEST PUSH2 0x2132 JUMPI PUSH1 0x40 MLOAD PUSH3 0x461BCD PUSH1 0xE5 SHL DUP2 MSTORE PUSH1 0x20 PUSH1 0x4 DUP3 ADD DUP2 SWAP1 MSTORE PUSH1 0x24 DUP3 ADD MSTORE PUSH32 0x54726164696E67206973206E6F7420616C6C6F77656420666F72207573657273 PUSH1 0x44 DUP3 ADD MSTORE PUSH1 0x64 ADD PUSH2 0xA3B JUMP JUMPDEST PUSH2 0x213B DUP3 PUSH2 0x1AE2 JUMP JUMPDEST PUSH1 0x1 PUSH1 0x1 PUSH1 0xA0 SHL SUB AND CALLER PUSH1 0x1 PUSH1 0x1 PUSH1 0xA0 SHL SUB AND EQ PUSH2 0x216B JUMPI PUSH1 0x40 MLOAD PUSH3 0x461BCD PUSH1 0xE5 SHL DUP2 MSTORE PUSH1 0x4 ADD PUSH2 0xA3B SWAP1 PUSH2 0x4913 JUMP JUMPDEST PUSH1 0x0 DUP2 GT PUSH2 0x21BB JUMPI PUSH1 0x40 MLOAD PUSH3 0x461BCD PUSH1 0xE5 SHL DUP2 MSTORE PUSH1 0x20 PUSH1 0x4 DUP3 ADD MSTORE PUSH1 0x1D PUSH1 0x24 DUP3 ADD MSTORE PUSH32 0x5072696365206D757374206265206772656174207468616E207A65726F000000 PUSH1 0x44 DUP3 ADD MSTORE PUSH1 0x64 ADD PUSH2 0xA3B JUMP JUMPDEST PUSH1 0x0 DUP3 DUP2 MSTORE PUSH1 0xE PUSH1 0x20 SWAP1 DUP2 MSTORE PUSH1 0x40 SWAP2 DUP3 SWAP1 KECCAK256 DUP1 SLOAD PUSH1 0xFF NOT AND PUSH1 0x1 OR SWAP1 SSTORE DUP2 MLOAD PUSH1 0xA0 DUP2 ADD SWAP1 SWAP3 MSTORE DUP4 DUP3 MSTORE DUP2 ADD PUSH2 0x21EF DUP5 PUSH2 0x236D JUMP JUMPDEST DUP2 MSTORE CALLER PUSH1 0x20 DUP1 DUP4 ADD SWAP2 SWAP1 SWAP2 MSTORE PUSH1 0x40 DUP1 DUP4 ADD DUP6 SWAP1 MSTORE PUSH1 0x0 PUSH1 0x60 SWAP1 SWAP4 ADD DUP4 SWAP1 MSTORE DUP6 DUP4 MSTORE PUSH1 0xF DUP3 MSTORE SWAP1 SWAP2 KECCAK256 DUP3 MLOAD DUP2 SSTORE DUP3 DUP3 ADD MLOAD DUP1 MLOAD SWAP2 SWAP3 PUSH2 0x2235 SWAP3 PUSH1 0x1 DUP6 ADD SWAP3 SWAP1 SWAP2 ADD SWAP1 PUSH2 0x3D8F JUMP JUMPDEST POP PUSH1 0x40 DUP3 ADD MLOAD PUSH1 0x2 DUP3 ADD DUP1 SLOAD PUSH1 0x1 PUSH1 0x1 PUSH1 0xA0 SHL SUB NOT SWAP1 DUP2 AND PUSH1 0x1 PUSH1 0x1 PUSH1 0xA0 SHL SUB SWAP4 DUP5 AND OR SWAP1 SWAP2 SSTORE PUSH1 0x60 DUP5 ADD MLOAD PUSH1 0x3 DUP5 ADD SSTORE PUSH1 0x80 SWAP1 SWAP4 ADD MLOAD PUSH1 0x4 SWAP1 SWAP3 ADD DUP1 SLOAD SWAP1 SWAP4 AND SWAP2 AND OR SWAP1 SSTORE PUSH2 0x2286 CALLER ADDRESS DUP5 PUSH2 0x2F60 JUMP JUMPDEST PUSH32 0xA74B4F4F2CDCC4B59C64BE4786D504F3A55ADC7683C42F4186AF5F1DDD901E99 CALLER DUP4 PUSH1 0xF PUSH1 0x0 DUP7 DUP2 MSTORE PUSH1 0x20 ADD SWAP1 DUP2 MSTORE PUSH1 0x20 ADD PUSH1 0x0 KECCAK256 PUSH1 0x1 ADD DUP5 PUSH1 0x40 MLOAD PUSH2 0x22D0 SWAP5 SWAP4 SWAP3 SWAP2 SWAP1 PUSH2 0x49E8 JUMP JUMPDEST PUSH1 0x40 MLOAD DUP1 SWAP2 SUB SWAP1 LOG1 POP POP JUMP JUMPDEST PUSH1 0x60 PUSH1 0x1 DUP1 SLOAD PUSH2 0xEEA SWAP1 PUSH2 0x4739 JUMP JUMPDEST PUSH2 0x22F3 PUSH2 0x3243 JUMP JUMPDEST PUSH1 0xB DUP1 SLOAD PUSH1 0xFF NOT AND SWAP2 ISZERO ISZERO SWAP2 SWAP1 SWAP2 OR SWAP1 SSTORE JUMP JUMPDEST PUSH1 0x60 PUSH2 0x10C2 CALLER PUSH2 0x10C7 JUMP JUMPDEST PUSH2 0x231C CALLER DUP4 DUP4 PUSH2 0x3693 JUMP JUMPDEST POP POP JUMP JUMPDEST PUSH2 0x232A CALLER DUP4 PUSH2 0x329D JUMP JUMPDEST PUSH2 0x2346 JUMPI PUSH1 0x40 MLOAD PUSH3 0x461BCD PUSH1 0xE5 SHL DUP2 MSTORE PUSH1 0x4 ADD PUSH2 0xA3B SWAP1 PUSH2 0x489F JUMP JUMPDEST PUSH2 0x1AC1 DUP5 DUP5 DUP5 DUP5 PUSH2 0x3762 JUMP JUMPDEST PUSH2 0x235A PUSH2 0x3243 JUMP JUMPDEST DUP1 MLOAD PUSH2 0x231C SWAP1 PUSH1 0x14 SWAP1 PUSH1 0x20 DUP5 ADD SWAP1 PUSH2 0x3E03 JUMP JUMPDEST PUSH1 0x60 PUSH2 0x2378 DUP3 PUSH2 0x3176 JUMP JUMPDEST PUSH1 0x0 DUP3 DUP2 MSTORE PUSH1 0x6 PUSH1 0x20 MSTORE PUSH1 0x40 DUP2 KECCAK256 DUP1 SLOAD PUSH2 0x2391 SWAP1 PUSH2 0x4739 JUMP JUMPDEST DUP1 PUSH1 0x1F ADD PUSH1 0x20 DUP1 SWAP2 DIV MUL PUSH1 0x20 ADD PUSH1 0x40 MLOAD SWAP1 DUP2 ADD PUSH1 0x40 MSTORE DUP1 SWAP3 SWAP2 SWAP1 DUP2 DUP2 MSTORE PUSH1 0x20 ADD DUP3 DUP1 SLOAD PUSH2 0x23BD SWAP1 PUSH2 0x4739 JUMP JUMPDEST DUP1 ISZERO PUSH2 0x240A JUMPI DUP1 PUSH1 0x1F LT PUSH2 0x23DF JUMPI PUSH2 0x100 DUP1 DUP4 SLOAD DIV MUL DUP4 MSTORE SWAP2 PUSH1 0x20 ADD SWAP2 PUSH2 0x240A JUMP JUMPDEST DUP3 ADD SWAP2 SWAP1 PUSH1 0x0 MSTORE PUSH1 0x20 PUSH1 0x0 KECCAK256 SWAP1 JUMPDEST DUP2 SLOAD DUP2 MSTORE SWAP1 PUSH1 0x1 ADD SWAP1 PUSH1 0x20 ADD DUP1 DUP4 GT PUSH2 0x23ED JUMPI DUP3 SWAP1 SUB PUSH1 0x1F AND DUP3 ADD SWAP2 JUMPDEST POP POP POP POP POP SWAP1 POP PUSH1 0x0 PUSH2 0x2428 PUSH1 0x40 DUP1 MLOAD PUSH1 0x20 DUP2 ADD SWAP1 SWAP2 MSTORE PUSH1 0x0 DUP2 MSTORE SWAP1 JUMP JUMPDEST SWAP1 POP DUP1 MLOAD PUSH1 0x0 EQ ISZERO PUSH2 0x243B JUMPI POP SWAP3 SWAP2 POP POP JUMP JUMPDEST DUP2 MLOAD ISZERO PUSH2 0x246D JUMPI DUP1 DUP3 PUSH1 0x40 MLOAD PUSH1 0x20 ADD PUSH2 0x2455 SWAP3 SWAP2 SWAP1 PUSH2 0x4A20 JUMP JUMPDEST PUSH1 0x40 MLOAD PUSH1 0x20 DUP2 DUP4 SUB SUB DUP2 MSTORE SWAP1 PUSH1 0x40 MSTORE SWAP3 POP POP POP SWAP2 SWAP1 POP JUMP JUMPDEST PUSH2 0x2476 DUP5 PUSH2 0x3795 JUMP JUMPDEST SWAP5 SWAP4 POP POP POP POP JUMP JUMPDEST PUSH1 0x60 PUSH1 0x0 DUP1 JUMPDEST PUSH1 0x9 SLOAD DUP2 LT ISZERO PUSH2 0x24C5 JUMPI PUSH1 0x0 DUP2 DUP2 MSTORE PUSH1 0xE PUSH1 0x20 MSTORE PUSH1 0x40 SWAP1 KECCAK256 SLOAD PUSH1 0xFF AND ISZERO PUSH2 0x24B3 JUMPI DUP2 PUSH2 0x24AF DUP2 PUSH2 0x486E JUMP JUMPDEST SWAP3 POP POP JUMPDEST DUP1 PUSH2 0x24BD DUP2 PUSH2 0x486E JUMP JUMPDEST SWAP2 POP POP PUSH2 0x2484 JUMP JUMPDEST POP PUSH1 0x0 DUP2 PUSH1 0x1 PUSH1 0x1 PUSH1 0x40 SHL SUB DUP2 GT ISZERO PUSH2 0x24E0 JUMPI PUSH2 0x24E0 PUSH2 0x4197 JUMP JUMPDEST PUSH1 0x40 MLOAD SWAP1 DUP1 DUP3 MSTORE DUP1 PUSH1 0x20 MUL PUSH1 0x20 ADD DUP3 ADD PUSH1 0x40 MSTORE DUP1 ISZERO PUSH2 0x2519 JUMPI DUP2 PUSH1 0x20 ADD JUMPDEST PUSH2 0x2506 PUSH2 0x3CE9 JUMP JUMPDEST DUP2 MSTORE PUSH1 0x20 ADD SWAP1 PUSH1 0x1 SWAP1 SUB SWAP1 DUP2 PUSH2 0x24FE JUMPI SWAP1 POP JUMPDEST POP SWAP1 POP PUSH1 0x0 SWAP2 POP PUSH1 0x0 JUMPDEST PUSH1 0x9 SLOAD DUP2 LT ISZERO PUSH2 0x2684 JUMPI PUSH1 0x0 DUP2 DUP2 MSTORE PUSH1 0xE PUSH1 0x20 MSTORE PUSH1 0x40 SWAP1 KECCAK256 SLOAD PUSH1 0xFF AND ISZERO PUSH2 0x2672 JUMPI PUSH1 0x0 PUSH1 0x40 MLOAD DUP1 PUSH1 0xA0 ADD PUSH1 0x40 MSTORE DUP1 DUP4 DUP2 MSTORE PUSH1 0x20 ADD PUSH1 0xF PUSH1 0x0 DUP6 DUP2 MSTORE PUSH1 0x20 ADD SWAP1 DUP2 MSTORE PUSH1 0x20 ADD PUSH1 0x0 KECCAK256 PUSH1 0x1 ADD DUP1 SLOAD PUSH2 0x2578 SWAP1 PUSH2 0x4739 JUMP JUMPDEST DUP1 PUSH1 0x1F ADD PUSH1 0x20 DUP1 SWAP2 DIV MUL PUSH1 0x20 ADD PUSH1 0x40 MLOAD SWAP1 DUP2 ADD PUSH1 0x40 MSTORE DUP1 SWAP3 SWAP2 SWAP1 DUP2 DUP2 MSTORE PUSH1 0x20 ADD DUP3 DUP1 SLOAD PUSH2 0x25A4 SWAP1 PUSH2 0x4739 JUMP JUMPDEST DUP1 ISZERO PUSH2 0x25F1 JUMPI DUP1 PUSH1 0x1F LT PUSH2 0x25C6 JUMPI PUSH2 0x100 DUP1 DUP4 SLOAD DIV MUL DUP4 MSTORE SWAP2 PUSH1 0x20 ADD SWAP2 PUSH2 0x25F1 JUMP JUMPDEST DUP3 ADD SWAP2 SWAP1 PUSH1 0x0 MSTORE PUSH1 0x20 PUSH1 0x0 KECCAK256 SWAP1 JUMPDEST DUP2 SLOAD DUP2 MSTORE SWAP1 PUSH1 0x1 ADD SWAP1 PUSH1 0x20 ADD DUP1 DUP4 GT PUSH2 0x25D4 JUMPI DUP3 SWAP1 SUB PUSH1 0x1F AND DUP3 ADD SWAP2 JUMPDEST POP POP POP SWAP2 DUP4 MSTORE POP POP PUSH1 0x0 DUP5 DUP2 MSTORE PUSH1 0xF PUSH1 0x20 DUP2 DUP2 MSTORE PUSH1 0x40 DUP1 DUP5 KECCAK256 PUSH1 0x2 DUP2 ADD SLOAD PUSH1 0x1 PUSH1 0x1 PUSH1 0xA0 SHL SUB SWAP1 DUP2 AND DUP5 DUP9 ADD MSTORE PUSH1 0x3 DUP3 ADD SLOAD SWAP3 DUP8 ADD SWAP3 SWAP1 SWAP3 MSTORE SWAP4 DUP9 SWAP1 MSTORE SWAP2 SWAP1 MSTORE PUSH1 0x4 SWAP1 SWAP2 ADD SLOAD AND PUSH1 0x60 SWAP1 SWAP2 ADD MSTORE DUP4 MLOAD SWAP1 SWAP2 POP DUP2 SWAP1 DUP5 SWAP1 DUP7 SWAP1 DUP2 LT PUSH2 0x2657 JUMPI PUSH2 0x2657 PUSH2 0x4889 JUMP JUMPDEST PUSH1 0x20 MUL PUSH1 0x20 ADD ADD DUP2 SWAP1 MSTORE POP DUP4 DUP1 PUSH2 0x266D SWAP1 PUSH2 0x486E JUMP JUMPDEST SWAP5 POP POP POP JUMPDEST DUP1 PUSH2 0x267C DUP2 PUSH2 0x486E JUMP JUMPDEST SWAP2 POP POP PUSH2 0x2523 JUMP JUMPDEST POP SWAP3 SWAP2 POP POP JUMP JUMPDEST PUSH1 0x60 PUSH2 0x2695 PUSH2 0x3243 JUMP JUMPDEST DUP4 MLOAD DUP6 MLOAD EQ DUP1 ISZERO PUSH2 0x26A7 JUMPI POP DUP3 MLOAD DUP5 MLOAD EQ JUMPDEST PUSH2 0x2711 JUMPI PUSH1 0x40 MLOAD PUSH3 0x461BCD PUSH1 0xE5 SHL DUP2 MSTORE PUSH1 0x20 PUSH1 0x4 DUP3 ADD MSTORE PUSH1 0x35 PUSH1 0x24 DUP3 ADD MSTORE PUSH32 0x55524973206C656E6774682C204552433230206C656E67746820616E64205072 PUSH1 0x44 DUP3 ADD MSTORE PUSH21 0x1A58D95CC81B195B99DD1A081B9BDD08195C5D585B PUSH1 0x5A SHL PUSH1 0x64 DUP3 ADD MSTORE PUSH1 0x84 ADD PUSH2 0xA3B JUMP JUMPDEST PUSH1 0x0 JUMPDEST DUP4 MLOAD DUP2 LT ISZERO PUSH2 0x2830 JUMPI PUSH1 0x0 DUP5 DUP3 DUP2 MLOAD DUP2 LT PUSH2 0x2731 JUMPI PUSH2 0x2731 PUSH2 0x4889 JUMP JUMPDEST PUSH1 0x20 MUL PUSH1 0x20 ADD ADD MLOAD GT PUSH2 0x2743 DUP3 PUSH2 0x3808 JUMP JUMPDEST PUSH1 0x40 MLOAD PUSH1 0x20 ADD PUSH2 0x2753 SWAP2 SWAP1 PUSH2 0x4A4F JUMP JUMPDEST PUSH1 0x40 MLOAD PUSH1 0x20 DUP2 DUP4 SUB SUB DUP2 MSTORE SWAP1 PUSH1 0x40 MSTORE SWAP1 PUSH2 0x2780 JUMPI PUSH1 0x40 MLOAD PUSH3 0x461BCD PUSH1 0xE5 SHL DUP2 MSTORE PUSH1 0x4 ADD PUSH2 0xA3B SWAP2 SWAP1 PUSH2 0x3F6C JUMP JUMPDEST POP PUSH1 0x0 PUSH1 0x1 PUSH1 0x1 PUSH1 0xA0 SHL SUB AND DUP6 DUP3 DUP2 MLOAD DUP2 LT PUSH2 0x279E JUMPI PUSH2 0x279E PUSH2 0x4889 JUMP JUMPDEST PUSH1 0x20 MUL PUSH1 0x20 ADD ADD MLOAD PUSH1 0x1 PUSH1 0x1 PUSH1 0xA0 SHL SUB AND EQ PUSH2 0x281E JUMPI PUSH2 0x27D6 DUP6 DUP3 DUP2 MLOAD DUP2 LT PUSH2 0x27C9 JUMPI PUSH2 0x27C9 PUSH2 0x4889 JUMP JUMPDEST PUSH1 0x20 MUL PUSH1 0x20 ADD ADD MLOAD PUSH2 0x1D23 JUMP JUMPDEST PUSH2 0x27DF DUP3 PUSH2 0x3808 JUMP JUMPDEST PUSH1 0x40 MLOAD PUSH1 0x20 ADD PUSH2 0x27EF SWAP2 SWAP1 PUSH2 0x4AA9 JUMP JUMPDEST PUSH1 0x40 MLOAD PUSH1 0x20 DUP2 DUP4 SUB SUB DUP2 MSTORE SWAP1 PUSH1 0x40 MSTORE SWAP1 PUSH2 0x281C JUMPI PUSH1 0x40 MLOAD PUSH3 0x461BCD PUSH1 0xE5 SHL DUP2 MSTORE PUSH1 0x4 ADD PUSH2 0xA3B SWAP2 SWAP1 PUSH2 0x3F6C JUMP JUMPDEST POP JUMPDEST DUP1 PUSH2 0x2828 DUP2 PUSH2 0x486E JUMP JUMPDEST SWAP2 POP POP PUSH2 0x2714 JUMP JUMPDEST POP PUSH1 0x0 DUP6 MLOAD PUSH1 0x1 PUSH1 0x1 PUSH1 0x40 SHL SUB DUP2 GT ISZERO PUSH2 0x284C JUMPI PUSH2 0x284C PUSH2 0x4197 JUMP JUMPDEST PUSH1 0x40 MLOAD SWAP1 DUP1 DUP3 MSTORE DUP1 PUSH1 0x20 MUL PUSH1 0x20 ADD DUP3 ADD PUSH1 0x40 MSTORE DUP1 ISZERO PUSH2 0x2875 JUMPI DUP2 PUSH1 0x20 ADD PUSH1 0x20 DUP3 MUL DUP1 CALLDATASIZE DUP4 CALLDATACOPY ADD SWAP1 POP JUMPDEST POP SWAP1 POP PUSH1 0x0 PUSH1 0x1 PUSH1 0x1 PUSH1 0xA0 SHL SUB DUP5 AND ISZERO PUSH2 0x288F JUMPI DUP4 PUSH2 0x289C JUMP JUMPDEST PUSH1 0x7 SLOAD PUSH1 0x1 PUSH1 0x1 PUSH1 0xA0 SHL SUB AND JUMPDEST SWAP1 POP PUSH1 0x0 JUMPDEST DUP6 MLOAD DUP2 LT ISZERO PUSH2 0x2BC6 JUMPI PUSH2 0x28B8 PUSH1 0x8 DUP1 SLOAD PUSH1 0x1 ADD SWAP1 SSTORE JUMP JUMPDEST PUSH1 0x0 PUSH2 0x28C3 PUSH1 0x8 SLOAD SWAP1 JUMP JUMPDEST SWAP1 POP PUSH2 0x28CF ADDRESS DUP3 PUSH2 0x33F5 JUMP JUMPDEST PUSH2 0x28F2 DUP2 DUP11 DUP5 DUP2 MLOAD DUP2 LT PUSH2 0x28E5 JUMPI PUSH2 0x28E5 PUSH2 0x4889 JUMP JUMPDEST PUSH1 0x20 MUL PUSH1 0x20 ADD ADD MLOAD PUSH2 0x358E JUMP JUMPDEST PUSH1 0x0 DUP2 DUP2 MSTORE PUSH1 0xE PUSH1 0x20 SWAP1 DUP2 MSTORE PUSH1 0x40 SWAP2 DUP3 SWAP1 KECCAK256 DUP1 SLOAD PUSH1 0xFF NOT AND PUSH1 0x1 OR SWAP1 SSTORE DUP2 MLOAD PUSH1 0xA0 DUP2 ADD SWAP1 SWAP3 MSTORE DUP3 DUP3 MSTORE DUP11 MLOAD SWAP1 DUP3 ADD SWAP1 DUP12 SWAP1 DUP6 SWAP1 DUP2 LT PUSH2 0x2933 JUMPI PUSH2 0x2933 PUSH2 0x4889 JUMP JUMPDEST PUSH1 0x20 MUL PUSH1 0x20 ADD ADD MLOAD DUP2 MSTORE PUSH1 0x20 ADD DUP5 PUSH1 0x1 PUSH1 0x1 PUSH1 0xA0 SHL SUB AND DUP2 MSTORE PUSH1 0x20 ADD DUP9 DUP5 DUP2 MLOAD DUP2 LT PUSH2 0x2961 JUMPI PUSH2 0x2961 PUSH2 0x4889 JUMP JUMPDEST PUSH1 0x20 MUL PUSH1 0x20 ADD ADD MLOAD DUP2 MSTORE PUSH1 0x20 ADD DUP10 DUP5 DUP2 MLOAD DUP2 LT PUSH2 0x2980 JUMPI PUSH2 0x2980 PUSH2 0x4889 JUMP JUMPDEST PUSH1 0x20 SWAP1 DUP2 MUL SWAP2 SWAP1 SWAP2 ADD DUP2 ADD MLOAD PUSH1 0x1 PUSH1 0x1 PUSH1 0xA0 SHL SUB AND SWAP1 SWAP2 MSTORE PUSH1 0x0 DUP4 DUP2 MSTORE PUSH1 0xF DUP3 MSTORE PUSH1 0x40 SWAP1 KECCAK256 DUP3 MLOAD DUP2 SSTORE DUP3 DUP3 ADD MLOAD DUP1 MLOAD SWAP2 SWAP3 PUSH2 0x29C3 SWAP3 PUSH1 0x1 DUP6 ADD SWAP3 SWAP1 SWAP2 ADD SWAP1 PUSH2 0x3D8F JUMP JUMPDEST POP PUSH1 0x40 DUP3 ADD MLOAD PUSH1 0x2 DUP3 ADD DUP1 SLOAD PUSH1 0x1 PUSH1 0x1 PUSH1 0xA0 SHL SUB NOT SWAP1 DUP2 AND PUSH1 0x1 PUSH1 0x1 PUSH1 0xA0 SHL SUB SWAP4 DUP5 AND OR SWAP1 SWAP2 SSTORE PUSH1 0x60 DUP5 ADD MLOAD PUSH1 0x3 DUP5 ADD SSTORE PUSH1 0x80 SWAP1 SWAP4 ADD MLOAD PUSH1 0x4 SWAP1 SWAP3 ADD DUP1 SLOAD SWAP1 SWAP4 AND SWAP2 AND OR SWAP1 SSTORE DUP9 MLOAD PUSH32 0x85A66B9141978DB9980F7E0CE3B468CEBF4F7999F32B23091C5C03E798B1BA7A SWAP1 DUP5 SWAP1 DUP4 SWAP1 DUP13 SWAP1 DUP7 SWAP1 DUP2 LT PUSH2 0x2A43 JUMPI PUSH2 0x2A43 PUSH2 0x4889 JUMP JUMPDEST PUSH1 0x20 MUL PUSH1 0x20 ADD ADD MLOAD PUSH1 0x40 MLOAD PUSH2 0x2A5A SWAP4 SWAP3 SWAP2 SWAP1 PUSH2 0x48EC JUMP JUMPDEST PUSH1 0x40 MLOAD DUP1 SWAP2 SUB SWAP1 LOG1 PUSH1 0x0 PUSH1 0x1 PUSH1 0x1 PUSH1 0xA0 SHL SUB AND DUP9 DUP4 DUP2 MLOAD DUP2 LT PUSH2 0x2A7F JUMPI PUSH2 0x2A7F PUSH2 0x4889 JUMP JUMPDEST PUSH1 0x20 MUL PUSH1 0x20 ADD ADD MLOAD PUSH1 0x1 PUSH1 0x1 PUSH1 0xA0 SHL SUB AND EQ ISZERO PUSH2 0x2B0A JUMPI PUSH32 0xA74B4F4F2CDCC4B59C64BE4786D504F3A55ADC7683C42F4186AF5F1DDD901E99 DUP4 DUP3 DUP12 DUP6 DUP2 MLOAD DUP2 LT PUSH2 0x2ACB JUMPI PUSH2 0x2ACB PUSH2 0x4889 JUMP JUMPDEST PUSH1 0x20 MUL PUSH1 0x20 ADD ADD MLOAD DUP11 DUP7 DUP2 MLOAD DUP2 LT PUSH2 0x2AE5 JUMPI PUSH2 0x2AE5 PUSH2 0x4889 JUMP JUMPDEST PUSH1 0x20 MUL PUSH1 0x20 ADD ADD MLOAD PUSH1 0x40 MLOAD PUSH2 0x2AFD SWAP5 SWAP4 SWAP3 SWAP2 SWAP1 PUSH2 0x4AFF JUMP JUMPDEST PUSH1 0x40 MLOAD DUP1 SWAP2 SUB SWAP1 LOG1 PUSH2 0x2B95 JUMP JUMPDEST PUSH32 0x361DD47387032EB423040830B257E1343B2EA5CC7698AC0555757E021299CA9D DUP4 DUP3 DUP12 DUP6 DUP2 MLOAD DUP2 LT PUSH2 0x2B3F JUMPI PUSH2 0x2B3F PUSH2 0x4889 JUMP JUMPDEST PUSH1 0x20 MUL PUSH1 0x20 ADD ADD MLOAD DUP12 DUP7 DUP2 MLOAD DUP2 LT PUSH2 0x2B59 JUMPI PUSH2 0x2B59 PUSH2 0x4889 JUMP JUMPDEST PUSH1 0x20 MUL PUSH1 0x20 ADD ADD MLOAD DUP12 DUP8 DUP2 MLOAD DUP2 LT PUSH2 0x2B73 JUMPI PUSH2 0x2B73 PUSH2 0x4889 JUMP JUMPDEST PUSH1 0x20 MUL PUSH1 0x20 ADD ADD MLOAD PUSH1 0x40 MLOAD PUSH2 0x2B8C SWAP6 SWAP5 SWAP4 SWAP3 SWAP2 SWAP1 PUSH2 0x4B26 JUMP JUMPDEST PUSH1 0x40 MLOAD DUP1 SWAP2 SUB SWAP1 LOG1 JUMPDEST DUP1 DUP5 DUP4 DUP2 MLOAD DUP2 LT PUSH2 0x2BA8 JUMPI PUSH2 0x2BA8 PUSH2 0x4889 JUMP JUMPDEST PUSH1 0x20 SWAP1 DUP2 MUL SWAP2 SWAP1 SWAP2 ADD ADD MSTORE POP DUP1 PUSH2 0x2BBE DUP2 PUSH2 0x486E JUMP JUMPDEST SWAP2 POP POP PUSH2 0x28A1 JUMP JUMPDEST POP PUSH2 0x2BCF PUSH2 0x3628 JUMP JUMPDEST POP SWAP6 SWAP5 POP POP POP POP POP JUMP JUMPDEST PUSH2 0x2BE1 PUSH2 0x3243 JUMP JUMPDEST DUP1 MLOAD PUSH2 0x231C SWAP1 PUSH1 0x10 SWAP1 PUSH1 0x20 DUP5 ADD SWAP1 PUSH2 0x3D2A JUMP JUMPDEST PUSH1 0x0 PUSH2 0x2BFE PUSH2 0x3243 JUMP JUMPDEST PUSH2 0x2C0C PUSH1 0x8 DUP1 SLOAD PUSH1 0x1 ADD SWAP1 SSTORE JUMP JUMPDEST PUSH1 0x0 PUSH2 0x2C17 PUSH1 0x8 SLOAD SWAP1 JUMP JUMPDEST SWAP1 POP PUSH2 0x2C23 DUP5 DUP3 PUSH2 0x33F5 JUMP JUMPDEST PUSH2 0x2C2D DUP2 DUP5 PUSH2 0x358E JUMP JUMPDEST PUSH2 0x2C35 PUSH2 0x3628 JUMP JUMPDEST PUSH32 0x85A66B9141978DB9980F7E0CE3B468CEBF4F7999F32B23091C5C03E798B1BA7A DUP5 DUP3 DUP6 PUSH1 0x40 MLOAD PUSH2 0x1626 SWAP4 SWAP3 SWAP2 SWAP1 PUSH2 0x48EC JUMP JUMPDEST PUSH2 0x2C70 PUSH2 0x3243 JUMP JUMPDEST PUSH1 0x1 PUSH1 0x1 PUSH1 0xA0 SHL SUB DUP2 AND PUSH2 0x2CD5 JUMPI PUSH1 0x40 MLOAD PUSH3 0x461BCD PUSH1 0xE5 SHL DUP2 MSTORE PUSH1 0x20 PUSH1 0x4 DUP3 ADD MSTORE PUSH1 0x26 PUSH1 0x24 DUP3 ADD MSTORE PUSH32 0x4F776E61626C653A206E6577206F776E657220697320746865207A65726F2061 PUSH1 0x44 DUP3 ADD MSTORE PUSH6 0x646472657373 PUSH1 0xD0 SHL PUSH1 0x64 DUP3 ADD MSTORE PUSH1 0x84 ADD PUSH2 0xA3B JUMP JUMPDEST PUSH2 0x1785 DUP2 PUSH2 0x3641 JUMP JUMPDEST PUSH2 0x2CE6 PUSH2 0x3243 JUMP JUMPDEST PUSH1 0x15 SSTORE JUMP JUMPDEST PUSH2 0x2CF3 PUSH2 0x3243 JUMP JUMPDEST PUSH1 0x0 TIMESTAMP PUSH1 0x11 SLOAD PUSH1 0x13 SLOAD PUSH1 0x12 SLOAD DUP6 PUSH2 0x2D09 PUSH1 0x8 SLOAD SWAP1 JUMP JUMPDEST PUSH1 0x14 SLOAD PUSH1 0x40 DUP1 MLOAD PUSH1 0x20 DUP2 ADD SWAP9 SWAP1 SWAP9 MSTORE DUP8 ADD SWAP6 SWAP1 SWAP6 MSTORE PUSH1 0x60 DUP7 ADD SWAP4 SWAP1 SWAP4 MSTORE PUSH1 0x80 DUP6 ADD SWAP2 SWAP1 SWAP2 MSTORE PUSH1 0xA0 DUP5 ADD MSTORE PUSH1 0xC0 DUP4 ADD MSTORE PUSH1 0xE0 DUP3 ADD MSTORE PUSH2 0x100 ADD PUSH1 0x40 DUP1 MLOAD PUSH1 0x1F NOT DUP2 DUP5 SUB ADD DUP2 MSTORE SWAP2 SWAP1 MSTORE DUP1 MLOAD PUSH1 0x20 SWAP1 SWAP2 ADD KECCAK256 PUSH1 0x12 DUP1 SLOAD PUSH1 0x13 SSTORE SSTORE POP POP JUMP JUMPDEST PUSH2 0x2D6D PUSH2 0x3243 JUMP JUMPDEST PUSH1 0x40 MLOAD PUSH4 0x70A08231 PUSH1 0xE0 SHL DUP2 MSTORE ADDRESS PUSH1 0x4 DUP3 ADD MSTORE DUP2 SWAP1 PUSH1 0x0 SWAP1 PUSH1 0x1 PUSH1 0x1 PUSH1 0xA0 SHL SUB DUP4 AND SWAP1 PUSH4 0x70A08231 SWAP1 PUSH1 0x24 ADD PUSH1 0x20 PUSH1 0x40 MLOAD DUP1 DUP4 SUB DUP2 DUP7 GAS STATICCALL ISZERO DUP1 ISZERO PUSH2 0x2DB6 JUMPI RETURNDATASIZE PUSH1 0x0 DUP1 RETURNDATACOPY RETURNDATASIZE PUSH1 0x0 REVERT JUMPDEST POP POP POP POP PUSH1 0x40 MLOAD RETURNDATASIZE PUSH1 0x1F NOT PUSH1 0x1F DUP3 ADD AND DUP3 ADD DUP1 PUSH1 0x40 MSTORE POP DUP2 ADD SWAP1 PUSH2 0x2DDA SWAP2 SWAP1 PUSH2 0x4720 JUMP JUMPDEST SWAP1 POP DUP2 PUSH1 0x1 PUSH1 0x1 PUSH1 0xA0 SHL SUB AND PUSH4 0xA9059CBB PUSH2 0x2DFD PUSH1 0x7 SLOAD PUSH1 0x1 PUSH1 0x1 PUSH1 0xA0 SHL SUB AND SWAP1 JUMP JUMPDEST PUSH1 0x40 MLOAD PUSH1 0x1 PUSH1 0x1 PUSH1 0xE0 SHL SUB NOT PUSH1 0xE0 DUP5 SWAP1 SHL AND DUP2 MSTORE PUSH1 0x1 PUSH1 0x1 PUSH1 0xA0 SHL SUB SWAP1 SWAP2 AND PUSH1 0x4 DUP3 ADD MSTORE PUSH1 0x24 DUP2 ADD DUP5 SWAP1 MSTORE PUSH1 0x44 ADD PUSH1 0x20 PUSH1 0x40 MLOAD DUP1 DUP4 SUB DUP2 PUSH1 0x0 DUP8 GAS CALL ISZERO DUP1 ISZERO PUSH2 0x2E4A JUMPI RETURNDATASIZE PUSH1 0x0 DUP1 RETURNDATACOPY RETURNDATASIZE PUSH1 0x0 REVERT JUMPDEST POP POP POP POP PUSH1 0x40 MLOAD RETURNDATASIZE PUSH1 0x1F NOT PUSH1 0x1F DUP3 ADD AND DUP3 ADD DUP1 PUSH1 0x40 MSTORE POP DUP2 ADD SWAP1 PUSH2 0x1AC1 SWAP2 SWAP1 PUSH2 0x4B4E JUMP JUMPDEST PUSH2 0x2E76 PUSH2 0x3243 JUMP JUMPDEST PUSH1 0x40 MLOAD SELFBALANCE SWAP1 CALLER SWAP1 DUP3 ISZERO PUSH2 0x8FC MUL SWAP1 DUP4 SWAP1 PUSH1 0x0 DUP2 DUP2 DUP2 DUP6 DUP9 DUP9 CALL SWAP4 POP POP POP POP ISZERO DUP1 ISZERO PUSH2 0x2EA5 JUMPI RETURNDATASIZE PUSH1 0x0 DUP1 RETURNDATACOPY RETURNDATASIZE PUSH1 0x0 REVERT JUMPDEST POP PUSH1 0x40 DUP1 MLOAD CALLER DUP2 MSTORE PUSH1 0x20 DUP2 ADD DUP4 SWAP1 MSTORE PUSH32 0xD59F809F461FB2E2CA77F931DC43A9AAAA4295B0ED3C8E6ADC04D0AAB43EEB47 SWAP2 ADD PUSH1 0x40 MLOAD DUP1 SWAP2 SUB SWAP1 LOG1 POP JUMP JUMPDEST PUSH1 0x0 PUSH2 0x16BD DUP3 DUP5 PUSH2 0x4B81 JUMP JUMPDEST PUSH1 0x0 PUSH2 0x16BD DUP3 DUP5 PUSH2 0x4B95 JUMP JUMPDEST PUSH1 0x0 PUSH2 0x16BD DUP3 DUP5 PUSH2 0x4BB4 JUMP JUMPDEST PUSH1 0x40 DUP1 MLOAD PUSH1 0x1 PUSH1 0x1 PUSH1 0xA0 SHL SUB DUP6 DUP2 AND PUSH1 0x24 DUP4 ADD MSTORE DUP5 AND PUSH1 0x44 DUP3 ADD MSTORE PUSH1 0x64 DUP1 DUP3 ADD DUP5 SWAP1 MSTORE DUP3 MLOAD DUP1 DUP4 SUB SWAP1 SWAP2 ADD DUP2 MSTORE PUSH1 0x84 SWAP1 SWAP2 ADD SWAP1 SWAP2 MSTORE PUSH1 0x20 DUP2 ADD DUP1 MLOAD PUSH1 0x1 PUSH1 0x1 PUSH1 0xE0 SHL SUB AND PUSH4 0x23B872DD PUSH1 0xE0 SHL OR SWAP1 MSTORE PUSH2 0x1AC1 SWAP1 DUP6 SWAP1 PUSH2 0x389C JUMP JUMPDEST DUP3 PUSH1 0x1 PUSH1 0x1 PUSH1 0xA0 SHL SUB AND PUSH2 0x2F73 DUP3 PUSH2 0x1AE2 JUMP JUMPDEST PUSH1 0x1 PUSH1 0x1 PUSH1 0xA0 SHL SUB AND EQ PUSH2 0x2F99 JUMPI PUSH1 0x40 MLOAD PUSH3 0x461BCD PUSH1 0xE5 SHL DUP2 MSTORE PUSH1 0x4 ADD PUSH2 0xA3B SWAP1 PUSH2 0x4BCB JUMP JUMPDEST PUSH1 0x1 PUSH1 0x1 PUSH1 0xA0 SHL SUB DUP3 AND PUSH2 0x2FFB JUMPI PUSH1 0x40 MLOAD PUSH3 0x461BCD PUSH1 0xE5 SHL DUP2 MSTORE PUSH1 0x20 PUSH1 0x4 DUP3 ADD MSTORE PUSH1 0x24 DUP1 DUP3 ADD MSTORE PUSH32 0x4552433732313A207472616E7366657220746F20746865207A65726F20616464 PUSH1 0x44 DUP3 ADD MSTORE PUSH4 0x72657373 PUSH1 0xE0 SHL PUSH1 0x64 DUP3 ADD MSTORE PUSH1 0x84 ADD PUSH2 0xA3B JUMP JUMPDEST PUSH2 0x3008 DUP4 DUP4 DUP4 PUSH1 0x1 PUSH2 0x396E JUMP JUMPDEST DUP3 PUSH1 0x1 PUSH1 0x1 PUSH1 0xA0 SHL SUB AND PUSH2 0x301B DUP3 PUSH2 0x1AE2 JUMP JUMPDEST PUSH1 0x1 PUSH1 0x1 PUSH1 0xA0 SHL SUB AND EQ PUSH2 0x3041 JUMPI PUSH1 0x40 MLOAD PUSH3 0x461BCD PUSH1 0xE5 SHL DUP2 MSTORE PUSH1 0x4 ADD PUSH2 0xA3B SWAP1 PUSH2 0x4BCB JUMP JUMPDEST PUSH1 0x0 DUP2 DUP2 MSTORE PUSH1 0x4 PUSH1 0x20 SWAP1 DUP2 MSTORE PUSH1 0x40 DUP1 DUP4 KECCAK256 DUP1 SLOAD PUSH1 0x1 PUSH1 0x1 PUSH1 0xA0 SHL SUB NOT SWAP1 DUP2 AND SWAP1 SWAP2 SSTORE PUSH1 0x1 PUSH1 0x1 PUSH1 0xA0 SHL SUB DUP8 DUP2 AND DUP1 DUP7 MSTORE PUSH1 0x3 DUP6 MSTORE DUP4 DUP7 KECCAK256 DUP1 SLOAD PUSH1 0x0 NOT ADD SWAP1 SSTORE SWAP1 DUP8 AND DUP1 DUP7 MSTORE DUP4 DUP7 KECCAK256 DUP1 SLOAD PUSH1 0x1 ADD SWAP1 SSTORE DUP7 DUP7 MSTORE PUSH1 0x2 SWAP1 SWAP5 MSTORE DUP3 DUP6 KECCAK256 DUP1 SLOAD SWAP1 SWAP3 AND DUP5 OR SWAP1 SWAP2 SSTORE SWAP1 MLOAD DUP5 SWAP4 PUSH32 0xDDF252AD1BE2C89B69C2B068FC378DAA952BA7F163C4A11628F55A4DF523B3EF SWAP2 LOG4 POP POP POP JUMP JUMPDEST PUSH1 0x40 DUP1 MLOAD PUSH1 0xA0 DUP2 ADD DUP3 MSTORE PUSH1 0x0 DUP1 DUP3 MSTORE DUP3 MLOAD PUSH1 0x20 DUP2 DUP2 ADD DUP6 MSTORE DUP3 DUP3 MSTORE DUP1 DUP5 ADD SWAP2 DUP3 MSTORE DUP4 DUP6 ADD DUP4 SWAP1 MSTORE PUSH1 0x60 DUP5 ADD DUP4 SWAP1 MSTORE PUSH1 0x80 DUP5 ADD DUP4 SWAP1 MSTORE DUP6 DUP4 MSTORE PUSH1 0xF DUP2 MSTORE SWAP4 SWAP1 SWAP2 KECCAK256 DUP3 MLOAD DUP2 SSTORE SWAP1 MLOAD DUP1 MLOAD SWAP3 SWAP4 SWAP2 SWAP3 PUSH2 0x312D SWAP3 PUSH1 0x1 DUP6 ADD SWAP3 ADD SWAP1 PUSH2 0x3D8F JUMP JUMPDEST POP PUSH1 0x40 DUP3 ADD MLOAD PUSH1 0x2 DUP3 ADD DUP1 SLOAD PUSH1 0x1 PUSH1 0x1 PUSH1 0xA0 SHL SUB NOT SWAP1 DUP2 AND PUSH1 0x1 PUSH1 0x1 PUSH1 0xA0 SHL SUB SWAP4 DUP5 AND OR SWAP1 SWAP2 SSTORE PUSH1 0x60 DUP5 ADD MLOAD PUSH1 0x3 DUP5 ADD SSTORE PUSH1 0x80 SWAP1 SWAP4 ADD MLOAD PUSH1 0x4 SWAP1 SWAP3 ADD DUP1 SLOAD SWAP1 SWAP4 AND SWAP2 AND OR SWAP1 SSTORE POP JUMP JUMPDEST PUSH1 0x0 DUP2 DUP2 MSTORE PUSH1 0x2 PUSH1 0x20 MSTORE PUSH1 0x40 SWAP1 KECCAK256 SLOAD PUSH1 0x1 PUSH1 0x1 PUSH1 0xA0 SHL SUB AND PUSH2 0x1785 JUMPI PUSH1 0x40 MLOAD PUSH3 0x461BCD PUSH1 0xE5 SHL DUP2 MSTORE PUSH1 0x20 PUSH1 0x4 DUP3 ADD MSTORE PUSH1 0x18 PUSH1 0x24 DUP3 ADD MSTORE PUSH24 0x115490CDCC8C4E881A5B9D985B1A59081D1BDAD95B881251 PUSH1 0x42 SHL PUSH1 0x44 DUP3 ADD MSTORE PUSH1 0x64 ADD PUSH2 0xA3B JUMP JUMPDEST PUSH1 0x0 DUP2 DUP2 MSTORE PUSH1 0x4 PUSH1 0x20 MSTORE PUSH1 0x40 SWAP1 KECCAK256 DUP1 SLOAD PUSH1 0x1 PUSH1 0x1 PUSH1 0xA0 SHL SUB NOT AND PUSH1 0x1 PUSH1 0x1 PUSH1 0xA0 SHL SUB DUP5 AND SWAP1 DUP2 OR SWAP1 SWAP2 SSTORE DUP2 SWAP1 PUSH2 0x320A DUP3 PUSH2 0x1AE2 JUMP JUMPDEST PUSH1 0x1 PUSH1 0x1 PUSH1 0xA0 SHL SUB AND PUSH32 0x8C5BE1E5EBEC7D5BD14F71427D1E84F3DD0314C0F7B2291E5B200AC8C7C3B925 PUSH1 0x40 MLOAD PUSH1 0x40 MLOAD DUP1 SWAP2 SUB SWAP1 LOG4 POP POP JUMP JUMPDEST PUSH1 0x7 SLOAD PUSH1 0x1 PUSH1 0x1 PUSH1 0xA0 SHL SUB AND CALLER EQ PUSH2 0x1D21 JUMPI PUSH1 0x40 MLOAD PUSH3 0x461BCD PUSH1 0xE5 SHL DUP2 MSTORE PUSH1 0x20 PUSH1 0x4 DUP3 ADD DUP2 SWAP1 MSTORE PUSH1 0x24 DUP3 ADD MSTORE PUSH32 0x4F776E61626C653A2063616C6C6572206973206E6F7420746865206F776E6572 PUSH1 0x44 DUP3 ADD MSTORE PUSH1 0x64 ADD PUSH2 0xA3B JUMP JUMPDEST PUSH1 0x0 DUP1 PUSH2 0x32A9 DUP4 PUSH2 0x1AE2 JUMP JUMPDEST SWAP1 POP DUP1 PUSH1 0x1 PUSH1 0x1 PUSH1 0xA0 SHL SUB AND DUP5 PUSH1 0x1 PUSH1 0x1 PUSH1 0xA0 SHL SUB AND EQ DUP1 PUSH2 0x32F0 JUMPI POP PUSH1 0x1 PUSH1 0x1 PUSH1 0xA0 SHL SUB DUP1 DUP3 AND PUSH1 0x0 SWAP1 DUP2 MSTORE PUSH1 0x5 PUSH1 0x20 SWAP1 DUP2 MSTORE PUSH1 0x40 DUP1 DUP4 KECCAK256 SWAP4 DUP9 AND DUP4 MSTORE SWAP3 SWAP1 MSTORE KECCAK256 SLOAD PUSH1 0xFF AND JUMPDEST DUP1 PUSH2 0x2476 JUMPI POP DUP4 PUSH1 0x1 PUSH1 0x1 PUSH1 0xA0 SHL SUB AND PUSH2 0x3309 DUP5 PUSH2 0xF6D JUMP JUMPDEST PUSH1 0x1 PUSH1 0x1 PUSH1 0xA0 SHL SUB AND EQ SWAP5 SWAP4 POP POP POP POP JUMP JUMPDEST PUSH1 0x0 DUP1 TIMESTAMP DUP5 PUSH1 0x11 SLOAD PUSH1 0x12 SLOAD PUSH1 0x13 SLOAD NUMBER BLOCKHASH COINBASE DIFFICULTY GASLIMIT GASPRICE PUSH2 0x3338 PUSH1 0x8 SLOAD SWAP1 JUMP JUMPDEST PUSH1 0x14 SLOAD CALLER SWAP1 GAS PUSH1 0x40 DUP1 MLOAD PUSH1 0x20 DUP2 ADD SWAP16 SWAP1 SWAP16 MSTORE DUP15 ADD SWAP13 SWAP1 SWAP13 MSTORE PUSH1 0x60 DUP1 DUP15 ADD SWAP12 SWAP1 SWAP12 MSTORE PUSH1 0x80 DUP14 ADD SWAP10 SWAP1 SWAP10 MSTORE PUSH1 0xA0 DUP13 ADD SWAP8 SWAP1 SWAP8 MSTORE PUSH1 0xC0 DUP12 ADD SWAP6 SWAP1 SWAP6 MSTORE PUSH12 0xFFFFFFFFFFFFFFFFFFFFFFFF NOT SWAP4 DUP9 SHL DUP5 AND PUSH1 0xE0 DUP12 ADD MSTORE PUSH1 0xF4 DUP11 ADD SWAP3 SWAP1 SWAP3 MSTORE PUSH2 0x114 DUP10 ADD MSTORE PUSH2 0x134 DUP9 ADD MSTORE PUSH2 0x154 DUP8 ADD SWAP2 SWAP1 SWAP2 MSTORE SWAP3 SHL SWAP1 SWAP2 AND PUSH2 0x174 DUP5 ADD MSTORE PUSH2 0x188 DUP4 ADD MSTORE PUSH2 0x1A8 DUP3 ADD MSTORE PUSH2 0x1C8 ADD PUSH1 0x40 DUP1 MLOAD PUSH1 0x1F NOT DUP2 DUP5 SUB ADD DUP2 MSTORE SWAP2 SWAP1 MSTORE DUP1 MLOAD PUSH1 0x20 SWAP1 SWAP2 ADD KECCAK256 PUSH1 0x11 DUP6 SWAP1 SSTORE SWAP1 POP PUSH1 0x0 PUSH2 0x33EC DUP5 DUP4 PUSH2 0x4C10 JUMP JUMPDEST SWAP6 SWAP5 POP POP POP POP POP JUMP JUMPDEST PUSH1 0x1 PUSH1 0x1 PUSH1 0xA0 SHL SUB DUP3 AND PUSH2 0x344B JUMPI PUSH1 0x40 MLOAD PUSH3 0x461BCD PUSH1 0xE5 SHL DUP2 MSTORE PUSH1 0x20 PUSH1 0x4 DUP3 ADD DUP2 SWAP1 MSTORE PUSH1 0x24 DUP3 ADD MSTORE PUSH32 0x4552433732313A206D696E7420746F20746865207A65726F2061646472657373 PUSH1 0x44 DUP3 ADD MSTORE PUSH1 0x64 ADD PUSH2 0xA3B JUMP JUMPDEST PUSH1 0x0 DUP2 DUP2 MSTORE PUSH1 0x2 PUSH1 0x20 MSTORE PUSH1 0x40 SWAP1 KECCAK256 SLOAD PUSH1 0x1 PUSH1 0x1 PUSH1 0xA0 SHL SUB AND ISZERO PUSH2 0x34B0 JUMPI PUSH1 0x40 MLOAD PUSH3 0x461BCD PUSH1 0xE5 SHL DUP2 MSTORE PUSH1 0x20 PUSH1 0x4 DUP3 ADD MSTORE PUSH1 0x1C PUSH1 0x24 DUP3 ADD MSTORE PUSH32 0x4552433732313A20746F6B656E20616C7265616479206D696E74656400000000 PUSH1 0x44 DUP3 ADD MSTORE PUSH1 0x64 ADD PUSH2 0xA3B JUMP JUMPDEST PUSH2 0x34BE PUSH1 0x0 DUP4 DUP4 PUSH1 0x1 PUSH2 0x396E JUMP JUMPDEST PUSH1 0x0 DUP2 DUP2 MSTORE PUSH1 0x2 PUSH1 0x20 MSTORE PUSH1 0x40 SWAP1 KECCAK256 SLOAD PUSH1 0x1 PUSH1 0x1 PUSH1 0xA0 SHL SUB AND ISZERO PUSH2 0x3523 JUMPI PUSH1 0x40 MLOAD PUSH3 0x461BCD PUSH1 0xE5 SHL DUP2 MSTORE PUSH1 0x20 PUSH1 0x4 DUP3 ADD MSTORE PUSH1 0x1C PUSH1 0x24 DUP3 ADD MSTORE PUSH32 0x4552433732313A20746F6B656E20616C7265616479206D696E74656400000000 PUSH1 0x44 DUP3 ADD MSTORE PUSH1 0x64 ADD PUSH2 0xA3B JUMP JUMPDEST PUSH1 0x1 PUSH1 0x1 PUSH1 0xA0 SHL SUB DUP3 AND PUSH1 0x0 DUP2 DUP2 MSTORE PUSH1 0x3 PUSH1 0x20 SWAP1 DUP2 MSTORE PUSH1 0x40 DUP1 DUP4 KECCAK256 DUP1 SLOAD PUSH1 0x1 ADD SWAP1 SSTORE DUP5 DUP4 MSTORE PUSH1 0x2 SWAP1 SWAP2 MSTORE DUP1 DUP3 KECCAK256 DUP1 SLOAD PUSH1 0x1 PUSH1 0x1 PUSH1 0xA0 SHL SUB NOT AND DUP5 OR SWAP1 SSTORE MLOAD DUP4 SWAP3 SWAP2 SWAP1 PUSH32 0xDDF252AD1BE2C89B69C2B068FC378DAA952BA7F163C4A11628F55A4DF523B3EF SWAP1 DUP3 SWAP1 LOG4 POP POP JUMP JUMPDEST PUSH1 0x0 DUP3 DUP2 MSTORE PUSH1 0x2 PUSH1 0x20 MSTORE PUSH1 0x40 SWAP1 KECCAK256 SLOAD PUSH1 0x1 PUSH1 0x1 PUSH1 0xA0 SHL SUB AND PUSH2 0x3609 JUMPI PUSH1 0x40 MLOAD PUSH3 0x461BCD PUSH1 0xE5 SHL DUP2 MSTORE PUSH1 0x20 PUSH1 0x4 DUP3 ADD MSTORE PUSH1 0x2E PUSH1 0x24 DUP3 ADD MSTORE PUSH32 0x45524337323155524953746F726167653A2055524920736574206F66206E6F6E PUSH1 0x44 DUP3 ADD MSTORE PUSH14 0x32BC34B9BA32B73A103A37B5B2B7 PUSH1 0x91 SHL PUSH1 0x64 DUP3 ADD MSTORE PUSH1 0x84 ADD PUSH2 0xA3B JUMP JUMPDEST PUSH1 0x0 DUP3 DUP2 MSTORE PUSH1 0x6 PUSH1 0x20 SWAP1 DUP2 MSTORE PUSH1 0x40 SWAP1 SWAP2 KECCAK256 DUP3 MLOAD PUSH2 0x10A5 SWAP3 DUP5 ADD SWAP1 PUSH2 0x3D8F JUMP JUMPDEST PUSH1 0x9 SLOAD PUSH1 0x8 SLOAD LT PUSH2 0x1D21 JUMPI PUSH1 0x8 SLOAD PUSH2 0x1C84 SWAP1 PUSH1 0x1 PUSH2 0x4C24 JUMP JUMPDEST PUSH1 0x7 DUP1 SLOAD PUSH1 0x1 PUSH1 0x1 PUSH1 0xA0 SHL SUB DUP4 DUP2 AND PUSH1 0x1 PUSH1 0x1 PUSH1 0xA0 SHL SUB NOT DUP4 AND DUP2 OR SWAP1 SWAP4 SSTORE PUSH1 0x40 MLOAD SWAP2 AND SWAP2 SWAP1 DUP3 SWAP1 PUSH32 0x8BE0079C531659141344CD1FD0A4F28419497F9722A3DAAFE3B4186F6B6457E0 SWAP1 PUSH1 0x0 SWAP1 LOG3 POP POP JUMP JUMPDEST DUP2 PUSH1 0x1 PUSH1 0x1 PUSH1 0xA0 SHL SUB AND DUP4 PUSH1 0x1 PUSH1 0x1 PUSH1 0xA0 SHL SUB AND EQ ISZERO PUSH2 0x36F5 JUMPI PUSH1 0x40 MLOAD PUSH3 0x461BCD PUSH1 0xE5 SHL DUP2 MSTORE PUSH1 0x20 PUSH1 0x4 DUP3 ADD MSTORE PUSH1 0x19 PUSH1 0x24 DUP3 ADD MSTORE PUSH32 0x4552433732313A20617070726F766520746F2063616C6C657200000000000000 PUSH1 0x44 DUP3 ADD MSTORE PUSH1 0x64 ADD PUSH2 0xA3B JUMP JUMPDEST PUSH1 0x1 PUSH1 0x1 PUSH1 0xA0 SHL SUB DUP4 DUP2 AND PUSH1 0x0 DUP2 DUP2 MSTORE PUSH1 0x5 PUSH1 0x20 SWAP1 DUP2 MSTORE PUSH1 0x40 DUP1 DUP4 KECCAK256 SWAP5 DUP8 AND DUP1 DUP5 MSTORE SWAP5 DUP3 MSTORE SWAP2 DUP3 SWAP1 KECCAK256 DUP1 SLOAD PUSH1 0xFF NOT AND DUP7 ISZERO ISZERO SWAP1 DUP2 OR SWAP1 SWAP2 SSTORE SWAP2 MLOAD SWAP2 DUP3 MSTORE PUSH32 0x17307EAB39AB6107E8899845AD3D59BD9653F200F220920489CA2B5937696C31 SWAP2 ADD PUSH1 0x40 MLOAD DUP1 SWAP2 SUB SWAP1 LOG3 POP POP POP JUMP JUMPDEST PUSH2 0x376D DUP5 DUP5 DUP5 PUSH2 0x2F60 JUMP JUMPDEST PUSH2 0x3779 DUP5 DUP5 DUP5 DUP5 PUSH2 0x39F6 JUMP JUMPDEST PUSH2 0x1AC1 JUMPI PUSH1 0x40 MLOAD PUSH3 0x461BCD PUSH1 0xE5 SHL DUP2 MSTORE PUSH1 0x4 ADD PUSH2 0xA3B SWAP1 PUSH2 0x4C3C JUMP JUMPDEST PUSH1 0x60 PUSH2 0x37A0 DUP3 PUSH2 0x3176 JUMP JUMPDEST PUSH1 0x0 PUSH2 0x37B7 PUSH1 0x40 DUP1 MLOAD PUSH1 0x20 DUP2 ADD SWAP1 SWAP2 MSTORE PUSH1 0x0 DUP2 MSTORE SWAP1 JUMP JUMPDEST SWAP1 POP PUSH1 0x0 DUP2 MLOAD GT PUSH2 0x37D7 JUMPI PUSH1 0x40 MLOAD DUP1 PUSH1 0x20 ADD PUSH1 0x40 MSTORE DUP1 PUSH1 0x0 DUP2 MSTORE POP PUSH2 0x16BD JUMP JUMPDEST DUP1 PUSH2 0x37E1 DUP5 PUSH2 0x3808 JUMP JUMPDEST PUSH1 0x40 MLOAD PUSH1 0x20 ADD PUSH2 0x37F2 SWAP3 SWAP2 SWAP1 PUSH2 0x4A20 JUMP JUMPDEST PUSH1 0x40 MLOAD PUSH1 0x20 DUP2 DUP4 SUB SUB DUP2 MSTORE SWAP1 PUSH1 0x40 MSTORE SWAP4 SWAP3 POP POP POP JUMP JUMPDEST PUSH1 0x60 PUSH1 0x0 PUSH2 0x3815 DUP4 PUSH2 0x3AF1 JUMP JUMPDEST PUSH1 0x1 ADD SWAP1 POP PUSH1 0x0 DUP2 PUSH1 0x1 PUSH1 0x1 PUSH1 0x40 SHL SUB DUP2 GT ISZERO PUSH2 0x3834 JUMPI PUSH2 0x3834 PUSH2 0x4197 JUMP JUMPDEST PUSH1 0x40 MLOAD SWAP1 DUP1 DUP3 MSTORE DUP1 PUSH1 0x1F ADD PUSH1 0x1F NOT AND PUSH1 0x20 ADD DUP3 ADD PUSH1 0x40 MSTORE DUP1 ISZERO PUSH2 0x385E JUMPI PUSH1 0x20 DUP3 ADD DUP2 DUP1 CALLDATASIZE DUP4 CALLDATACOPY ADD SWAP1 POP JUMPDEST POP SWAP1 POP DUP2 DUP2 ADD PUSH1 0x20 ADD JUMPDEST PUSH1 0x0 NOT ADD PUSH16 0x181899199A1A9B1B9C1CB0B131B232B3 PUSH1 0x81 SHL PUSH1 0xA DUP7 MOD BYTE DUP2 MSTORE8 PUSH1 0xA DUP6 DIV SWAP5 POP DUP5 PUSH2 0x3897 JUMPI PUSH2 0x131D JUMP JUMPDEST PUSH2 0x3868 JUMP JUMPDEST PUSH1 0x0 PUSH2 0x38F1 DUP3 PUSH1 0x40 MLOAD DUP1 PUSH1 0x40 ADD PUSH1 0x40 MSTORE DUP1 PUSH1 0x20 DUP2 MSTORE PUSH1 0x20 ADD PUSH32 0x5361666545524332303A206C6F772D6C6576656C2063616C6C206661696C6564 DUP2 MSTORE POP DUP6 PUSH1 0x1 PUSH1 0x1 PUSH1 0xA0 SHL SUB AND PUSH2 0x3BC9 SWAP1 SWAP3 SWAP2 SWAP1 PUSH4 0xFFFFFFFF AND JUMP JUMPDEST DUP1 MLOAD SWAP1 SWAP2 POP ISZERO PUSH2 0x10A5 JUMPI DUP1 DUP1 PUSH1 0x20 ADD SWAP1 MLOAD DUP2 ADD SWAP1 PUSH2 0x390F SWAP2 SWAP1 PUSH2 0x4B4E JUMP JUMPDEST PUSH2 0x10A5 JUMPI PUSH1 0x40 MLOAD PUSH3 0x461BCD PUSH1 0xE5 SHL DUP2 MSTORE PUSH1 0x20 PUSH1 0x4 DUP3 ADD MSTORE PUSH1 0x2A PUSH1 0x24 DUP3 ADD MSTORE PUSH32 0x5361666545524332303A204552433230206F7065726174696F6E20646964206E PUSH1 0x44 DUP3 ADD MSTORE PUSH10 0x1BDD081CDD58D8D95959 PUSH1 0xB2 SHL PUSH1 0x64 DUP3 ADD MSTORE PUSH1 0x84 ADD PUSH2 0xA3B JUMP JUMPDEST PUSH1 0x1 DUP2 GT ISZERO PUSH2 0x1AC1 JUMPI PUSH1 0x1 PUSH1 0x1 PUSH1 0xA0 SHL SUB DUP5 AND ISZERO PUSH2 0x39B4 JUMPI PUSH1 0x1 PUSH1 0x1 PUSH1 0xA0 SHL SUB DUP5 AND PUSH1 0x0 SWAP1 DUP2 MSTORE PUSH1 0x3 PUSH1 0x20 MSTORE PUSH1 0x40 DUP2 KECCAK256 DUP1 SLOAD DUP4 SWAP3 SWAP1 PUSH2 0x39AE SWAP1 DUP5 SWAP1 PUSH2 0x4BB4 JUMP JUMPDEST SWAP1 SWAP2 SSTORE POP POP JUMPDEST PUSH1 0x1 PUSH1 0x1 PUSH1 0xA0 SHL SUB DUP4 AND ISZERO PUSH2 0x1AC1 JUMPI PUSH1 0x1 PUSH1 0x1 PUSH1 0xA0 SHL SUB DUP4 AND PUSH1 0x0 SWAP1 DUP2 MSTORE PUSH1 0x3 PUSH1 0x20 MSTORE PUSH1 0x40 DUP2 KECCAK256 DUP1 SLOAD DUP4 SWAP3 SWAP1 PUSH2 0x39EB SWAP1 DUP5 SWAP1 PUSH2 0x4C24 JUMP JUMPDEST SWAP1 SWAP2 SSTORE POP POP POP POP POP POP JUMP JUMPDEST PUSH1 0x0 PUSH1 0x1 PUSH1 0x1 PUSH1 0xA0 SHL SUB DUP5 AND EXTCODESIZE ISZERO PUSH2 0x3AE9 JUMPI PUSH1 0x40 MLOAD PUSH4 0xA85BD01 PUSH1 0xE1 SHL DUP2 MSTORE PUSH1 0x1 PUSH1 0x1 PUSH1 0xA0 SHL SUB DUP6 AND SWAP1 PUSH4 0x150B7A02 SWAP1 PUSH2 0x3A3A SWAP1 CALLER SWAP1 DUP10 SWAP1 DUP9 SWAP1 DUP9 SWAP1 PUSH1 0x4 ADD PUSH2 0x4C8E JUMP JUMPDEST PUSH1 0x20 PUSH1 0x40 MLOAD DUP1 DUP4 SUB DUP2 PUSH1 0x0 DUP8 GAS CALL SWAP3 POP POP POP DUP1 ISZERO PUSH2 0x3A75 JUMPI POP PUSH1 0x40 DUP1 MLOAD PUSH1 0x1F RETURNDATASIZE SWAP1 DUP2 ADD PUSH1 0x1F NOT AND DUP3 ADD SWAP1 SWAP3 MSTORE PUSH2 0x3A72 SWAP2 DUP2 ADD SWAP1 PUSH2 0x4CCB JUMP JUMPDEST PUSH1 0x1 JUMPDEST PUSH2 0x3ACF JUMPI RETURNDATASIZE DUP1 DUP1 ISZERO PUSH2 0x3AA3 JUMPI PUSH1 0x40 MLOAD SWAP2 POP PUSH1 0x1F NOT PUSH1 0x3F RETURNDATASIZE ADD AND DUP3 ADD PUSH1 0x40 MSTORE RETURNDATASIZE DUP3 MSTORE RETURNDATASIZE PUSH1 0x0 PUSH1 0x20 DUP5 ADD RETURNDATACOPY PUSH2 0x3AA8 JUMP JUMPDEST PUSH1 0x60 SWAP2 POP JUMPDEST POP DUP1 MLOAD PUSH2 0x3AC7 JUMPI PUSH1 0x40 MLOAD PUSH3 0x461BCD PUSH1 0xE5 SHL DUP2 MSTORE PUSH1 0x4 ADD PUSH2 0xA3B SWAP1 PUSH2 0x4C3C JUMP JUMPDEST DUP1 MLOAD DUP2 PUSH1 0x20 ADD REVERT JUMPDEST PUSH1 0x1 PUSH1 0x1 PUSH1 0xE0 SHL SUB NOT AND PUSH4 0xA85BD01 PUSH1 0xE1 SHL EQ SWAP1 POP PUSH2 0x2476 JUMP JUMPDEST POP PUSH1 0x1 PUSH2 0x2476 JUMP JUMPDEST PUSH1 0x0 DUP1 PUSH19 0x184F03E93FF9F4DAA797ED6E38ED64BF6A1F01 PUSH1 0x40 SHL DUP4 LT PUSH2 0x3B30 JUMPI PUSH19 0x184F03E93FF9F4DAA797ED6E38ED64BF6A1F01 PUSH1 0x40 SHL DUP4 DIV SWAP3 POP PUSH1 0x40 ADD JUMPDEST PUSH14 0x4EE2D6D415B85ACEF8100000000 DUP4 LT PUSH2 0x3B5C JUMPI PUSH14 0x4EE2D6D415B85ACEF8100000000 DUP4 DIV SWAP3 POP PUSH1 0x20 ADD JUMPDEST PUSH7 0x2386F26FC10000 DUP4 LT PUSH2 0x3B7A JUMPI PUSH7 0x2386F26FC10000 DUP4 DIV SWAP3 POP PUSH1 0x10 ADD JUMPDEST PUSH4 0x5F5E100 DUP4 LT PUSH2 0x3B92 JUMPI PUSH4 0x5F5E100 DUP4 DIV SWAP3 POP PUSH1 0x8 ADD JUMPDEST PUSH2 0x2710 DUP4 LT PUSH2 0x3BA6 JUMPI PUSH2 0x2710 DUP4 DIV SWAP3 POP PUSH1 0x4 ADD JUMPDEST PUSH1 0x64 DUP4 LT PUSH2 0x3BB8 JUMPI PUSH1 0x64 DUP4 DIV SWAP3 POP PUSH1 0x2 ADD JUMPDEST PUSH1 0xA DUP4 LT PUSH2 0xA0E JUMPI PUSH1 0x1 ADD SWAP3 SWAP2 POP POP JUMP JUMPDEST PUSH1 0x60 PUSH2 0x2476 DUP5 DUP5 PUSH1 0x0 DUP6 DUP6 PUSH1 0x0 DUP1 DUP7 PUSH1 0x1 PUSH1 0x1 PUSH1 0xA0 SHL SUB AND DUP6 DUP8 PUSH1 0x40 MLOAD PUSH2 0x3BF0 SWAP2 SWAP1 PUSH2 0x4CE8 JUMP JUMPDEST PUSH1 0x0 PUSH1 0x40 MLOAD DUP1 DUP4 SUB DUP2 DUP6 DUP8 GAS CALL SWAP3 POP POP POP RETURNDATASIZE DUP1 PUSH1 0x0 DUP2 EQ PUSH2 0x3C2D JUMPI PUSH1 0x40 MLOAD SWAP2 POP PUSH1 0x1F NOT PUSH1 0x3F RETURNDATASIZE ADD AND DUP3 ADD PUSH1 0x40 MSTORE RETURNDATASIZE DUP3 MSTORE RETURNDATASIZE PUSH1 0x0 PUSH1 0x20 DUP5 ADD RETURNDATACOPY PUSH2 0x3C32 JUMP JUMPDEST PUSH1 0x60 SWAP2 POP JUMPDEST POP SWAP2 POP SWAP2 POP PUSH2 0x3C43 DUP8 DUP4 DUP4 DUP8 PUSH2 0x3C4E JUMP JUMPDEST SWAP8 SWAP7 POP POP POP POP POP POP POP JUMP JUMPDEST PUSH1 0x60 DUP4 ISZERO PUSH2 0x3CBA JUMPI DUP3 MLOAD PUSH2 0x3CB3 JUMPI PUSH1 0x1 PUSH1 0x1 PUSH1 0xA0 SHL SUB DUP6 AND EXTCODESIZE PUSH2 0x3CB3 JUMPI PUSH1 0x40 MLOAD PUSH3 0x461BCD PUSH1 0xE5 SHL DUP2 MSTORE PUSH1 0x20 PUSH1 0x4 DUP3 ADD MSTORE PUSH1 0x1D PUSH1 0x24 DUP3 ADD MSTORE PUSH32 0x416464726573733A2063616C6C20746F206E6F6E2D636F6E7472616374000000 PUSH1 0x44 DUP3 ADD MSTORE PUSH1 0x64 ADD PUSH2 0xA3B JUMP JUMPDEST POP DUP2 PUSH2 0x2476 JUMP JUMPDEST PUSH2 0x2476 DUP4 DUP4 DUP2 MLOAD ISZERO PUSH2 0x3CCF JUMPI DUP2 MLOAD DUP1 DUP4 PUSH1 0x20 ADD REVERT JUMPDEST DUP1 PUSH1 0x40 MLOAD PUSH3 0x461BCD PUSH1 0xE5 SHL DUP2 MSTORE PUSH1 0x4 ADD PUSH2 0xA3B SWAP2 SWAP1 PUSH2 0x3F6C JUMP JUMPDEST PUSH1 0x40 MLOAD DUP1 PUSH1 0xA0 ADD PUSH1 0x40 MSTORE DUP1 PUSH1 0x0 DUP2 MSTORE PUSH1 0x20 ADD PUSH1 0x60 DUP2 MSTORE PUSH1 0x20 ADD PUSH1 0x0 PUSH1 0x1 PUSH1 0x1 PUSH1 0xA0 SHL SUB AND DUP2 MSTORE PUSH1 0x20 ADD PUSH1 0x0 DUP2 MSTORE PUSH1 0x20 ADD PUSH1 0x0 PUSH1 0x1 PUSH1 0x1 PUSH1 0xA0 SHL SUB AND DUP2 MSTORE POP SWAP1 JUMP JUMPDEST DUP3 DUP1 SLOAD DUP3 DUP3 SSTORE SWAP1 PUSH1 0x0 MSTORE PUSH1 0x20 PUSH1 0x0 KECCAK256 SWAP1 DUP2 ADD SWAP3 DUP3 ISZERO PUSH2 0x3D7F JUMPI SWAP2 PUSH1 0x20 MUL DUP3 ADD JUMPDEST DUP3 DUP2 GT ISZERO PUSH2 0x3D7F JUMPI DUP3 MLOAD DUP3 SLOAD PUSH1 0x1 PUSH1 0x1 PUSH1 0xA0 SHL SUB NOT AND PUSH1 0x1 PUSH1 0x1 PUSH1 0xA0 SHL SUB SWAP1 SWAP2 AND OR DUP3 SSTORE PUSH1 0x20 SWAP1 SWAP3 ADD SWAP2 PUSH1 0x1 SWAP1 SWAP2 ADD SWAP1 PUSH2 0x3D4A JUMP JUMPDEST POP PUSH2 0x3D8B SWAP3 SWAP2 POP PUSH2 0x3E5C JUMP JUMPDEST POP SWAP1 JUMP JUMPDEST DUP3 DUP1 SLOAD PUSH2 0x3D9B SWAP1 PUSH2 0x4739 JUMP JUMPDEST SWAP1 PUSH1 0x0 MSTORE PUSH1 0x20 PUSH1 0x0 KECCAK256 SWAP1 PUSH1 0x1F ADD PUSH1 0x20 SWAP1 DIV DUP2 ADD SWAP3 DUP3 PUSH2 0x3DBD JUMPI PUSH1 0x0 DUP6 SSTORE PUSH2 0x3D7F JUMP JUMPDEST DUP3 PUSH1 0x1F LT PUSH2 0x3DD6 JUMPI DUP1 MLOAD PUSH1 0xFF NOT AND DUP4 DUP1 ADD OR DUP6 SSTORE PUSH2 0x3D7F JUMP JUMPDEST DUP3 DUP1 ADD PUSH1 0x1 ADD DUP6 SSTORE DUP3 ISZERO PUSH2 0x3D7F JUMPI SWAP2 DUP3 ADD JUMPDEST DUP3 DUP2 GT ISZERO PUSH2 0x3D7F JUMPI DUP3 MLOAD DUP3 SSTORE SWAP2 PUSH1 0x20 ADD SWAP2 SWAP1 PUSH1 0x1 ADD SWAP1 PUSH2 0x3DE8 JUMP JUMPDEST DUP3 DUP1 SLOAD DUP3 DUP3 SSTORE SWAP1 PUSH1 0x0 MSTORE PUSH1 0x20 PUSH1 0x0 KECCAK256 SWAP1 DUP2 ADD SWAP3 DUP3 ISZERO PUSH2 0x3E50 JUMPI SWAP2 PUSH1 0x20 MUL DUP3 ADD JUMPDEST DUP3 DUP2 GT ISZERO PUSH2 0x3E50 JUMPI DUP3 MLOAD DUP1 MLOAD PUSH2 0x3E40 SWAP2 DUP5 SWAP2 PUSH1 0x20 SWAP1 SWAP2 ADD SWAP1 PUSH2 0x3D8F JUMP JUMPDEST POP SWAP2 PUSH1 0x20 ADD SWAP2 SWAP1 PUSH1 0x1 ADD SWAP1 PUSH2 0x3E23 JUMP JUMPDEST POP PUSH2 0x3D8B SWAP3 SWAP2 POP PUSH2 0x3E71 JUMP JUMPDEST JUMPDEST DUP1 DUP3 GT ISZERO PUSH2 0x3D8B JUMPI PUSH1 0x0 DUP2 SSTORE PUSH1 0x1 ADD PUSH2 0x3E5D JUMP JUMPDEST DUP1 DUP3 GT ISZERO PUSH2 0x3D8B JUMPI PUSH1 0x0 PUSH2 0x3E85 DUP3 DUP3 PUSH2 0x3E8E JUMP JUMPDEST POP PUSH1 0x1 ADD PUSH2 0x3E71 JUMP JUMPDEST POP DUP1 SLOAD PUSH2 0x3E9A SWAP1 PUSH2 0x4739 JUMP JUMPDEST PUSH1 0x0 DUP3 SSTORE DUP1 PUSH1 0x1F LT PUSH2 0x3EAA JUMPI POP POP JUMP JUMPDEST PUSH1 0x1F ADD PUSH1 0x20 SWAP1 DIV SWAP1 PUSH1 0x0 MSTORE PUSH1 0x20 PUSH1 0x0 KECCAK256 SWAP1 DUP2 ADD SWAP1 PUSH2 0x1785 SWAP2 SWAP1 PUSH2 0x3E5C JUMP JUMPDEST PUSH1 0x1 PUSH1 0x1 PUSH1 0xE0 SHL SUB NOT DUP2 AND DUP2 EQ PUSH2 0x1785 JUMPI PUSH1 0x0 DUP1 REVERT JUMPDEST PUSH1 0x0 PUSH1 0x20 DUP3 DUP5 SUB SLT ISZERO PUSH2 0x3EF0 JUMPI PUSH1 0x0 DUP1 REVERT JUMPDEST DUP2 CALLDATALOAD PUSH2 0x16BD DUP2 PUSH2 0x3EC8 JUMP JUMPDEST PUSH1 0x0 PUSH1 0x20 DUP3 DUP5 SUB SLT ISZERO PUSH2 0x3F0D JUMPI PUSH1 0x0 DUP1 REVERT JUMPDEST POP CALLDATALOAD SWAP2 SWAP1 POP JUMP JUMPDEST PUSH1 0x0 JUMPDEST DUP4 DUP2 LT ISZERO PUSH2 0x3F2F JUMPI DUP2 DUP2 ADD MLOAD DUP4 DUP3 ADD MSTORE PUSH1 0x20 ADD PUSH2 0x3F17 JUMP JUMPDEST DUP4 DUP2 GT ISZERO PUSH2 0x1AC1 JUMPI POP POP PUSH1 0x0 SWAP2 ADD MSTORE JUMP JUMPDEST PUSH1 0x0 DUP2 MLOAD DUP1 DUP5 MSTORE PUSH2 0x3F58 DUP2 PUSH1 0x20 DUP7 ADD PUSH1 0x20 DUP7 ADD PUSH2 0x3F14 JUMP JUMPDEST PUSH1 0x1F ADD PUSH1 0x1F NOT AND SWAP3 SWAP1 SWAP3 ADD PUSH1 0x20 ADD SWAP3 SWAP2 POP POP JUMP JUMPDEST PUSH1 0x20 DUP2 MSTORE PUSH1 0x0 PUSH2 0x16BD PUSH1 0x20 DUP4 ADD DUP5 PUSH2 0x3F40 JUMP JUMPDEST DUP1 CALLDATALOAD PUSH1 0x1 PUSH1 0x1 PUSH1 0xA0 SHL SUB DUP2 AND DUP2 EQ PUSH2 0x3F96 JUMPI PUSH1 0x0 DUP1 REVERT JUMPDEST SWAP2 SWAP1 POP JUMP JUMPDEST PUSH1 0x0 DUP1 PUSH1 0x40 DUP4 DUP6 SUB SLT ISZERO PUSH2 0x3FAE JUMPI PUSH1 0x0 DUP1 REVERT JUMPDEST PUSH2 0x3FB7 DUP4 PUSH2 0x3F7F JUMP JUMPDEST SWAP5 PUSH1 0x20 SWAP4 SWAP1 SWAP4 ADD CALLDATALOAD SWAP4 POP POP POP JUMP JUMPDEST PUSH1 0x0 PUSH1 0x20 DUP3 DUP5 SUB SLT ISZERO PUSH2 0x3FD7 JUMPI PUSH1 0x0 DUP1 REVERT JUMPDEST PUSH2 0x16BD DUP3 PUSH2 0x3F7F JUMP JUMPDEST PUSH1 0x0 PUSH1 0x20 DUP1 DUP4 ADD DUP2 DUP5 MSTORE DUP1 DUP6 MLOAD DUP1 DUP4 MSTORE PUSH1 0x40 SWAP3 POP DUP3 DUP7 ADD SWAP2 POP DUP3 DUP2 PUSH1 0x5 SHL DUP8 ADD ADD DUP5 DUP9 ADD PUSH1 0x0 JUMPDEST DUP4 DUP2 LT ISZERO PUSH2 0x4073 JUMPI PUSH1 0x3F NOT DUP10 DUP5 SUB ADD DUP6 MSTORE DUP2 MLOAD PUSH1 0xA0 DUP2 MLOAD DUP6 MSTORE DUP9 DUP3 ADD MLOAD DUP2 DUP11 DUP8 ADD MSTORE PUSH2 0x4035 DUP3 DUP8 ADD DUP3 PUSH2 0x3F40 JUMP JUMPDEST DUP4 DUP11 ADD MLOAD PUSH1 0x1 PUSH1 0x1 PUSH1 0xA0 SHL SUB SWAP1 DUP2 AND DUP9 DUP13 ADD MSTORE PUSH1 0x60 DUP1 DUP7 ADD MLOAD SWAP1 DUP10 ADD MSTORE PUSH1 0x80 SWAP5 DUP6 ADD MLOAD AND SWAP4 SWAP1 SWAP7 ADD SWAP3 SWAP1 SWAP3 MSTORE POP POP SWAP4 DUP7 ADD SWAP4 SWAP1 DUP7 ADD SWAP1 PUSH1 0x1 ADD PUSH2 0x4007 JUMP JUMPDEST POP SWAP1 SWAP9 SWAP8 POP POP POP POP POP POP POP POP JUMP JUMPDEST DUP1 ISZERO ISZERO DUP2 EQ PUSH2 0x1785 JUMPI PUSH1 0x0 DUP1 REVERT JUMPDEST PUSH1 0x0 PUSH1 0x20 DUP3 DUP5 SUB SLT ISZERO PUSH2 0x40A1 JUMPI PUSH1 0x0 DUP1 REVERT JUMPDEST DUP2 CALLDATALOAD PUSH2 0x16BD DUP2 PUSH2 0x4081 JUMP JUMPDEST PUSH1 0x0 DUP1 PUSH1 0x0 PUSH1 0x60 DUP5 DUP7 SUB SLT ISZERO PUSH2 0x40C1 JUMPI PUSH1 0x0 DUP1 REVERT JUMPDEST PUSH2 0x40CA DUP5 PUSH2 0x3F7F JUMP JUMPDEST SWAP3 POP PUSH2 0x40D8 PUSH1 0x20 DUP6 ADD PUSH2 0x3F7F JUMP JUMPDEST SWAP2 POP PUSH1 0x40 DUP5 ADD CALLDATALOAD SWAP1 POP SWAP3 POP SWAP3 POP SWAP3 JUMP JUMPDEST PUSH1 0x0 PUSH1 0x20 DUP1 DUP4 ADD DUP2 DUP5 MSTORE DUP1 DUP6 MLOAD DUP1 DUP4 MSTORE PUSH1 0x40 DUP7 ADD SWAP2 POP PUSH1 0x40 DUP2 PUSH1 0x5 SHL DUP8 ADD ADD SWAP3 POP DUP4 DUP8 ADD PUSH1 0x0 JUMPDEST DUP3 DUP2 LT ISZERO PUSH2 0x413D JUMPI PUSH1 0x3F NOT DUP9 DUP7 SUB ADD DUP5 MSTORE PUSH2 0x412B DUP6 DUP4 MLOAD PUSH2 0x3F40 JUMP JUMPDEST SWAP5 POP SWAP3 DUP6 ADD SWAP3 SWAP1 DUP6 ADD SWAP1 PUSH1 0x1 ADD PUSH2 0x410F JUMP JUMPDEST POP SWAP3 SWAP8 SWAP7 POP POP POP POP POP POP POP JUMP JUMPDEST PUSH1 0x20 DUP1 DUP3 MSTORE DUP3 MLOAD DUP3 DUP3 ADD DUP2 SWAP1 MSTORE PUSH1 0x0 SWAP2 SWAP1 DUP5 DUP3 ADD SWAP1 PUSH1 0x40 DUP6 ADD SWAP1 DUP5 JUMPDEST DUP2 DUP2 LT ISZERO PUSH2 0x418B JUMPI DUP4 MLOAD PUSH1 0x1 PUSH1 0x1 PUSH1 0xA0 SHL SUB AND DUP4 MSTORE SWAP3 DUP5 ADD SWAP3 SWAP2 DUP5 ADD SWAP2 PUSH1 0x1 ADD PUSH2 0x4166 JUMP JUMPDEST POP SWAP1 SWAP7 SWAP6 POP POP POP POP POP POP JUMP JUMPDEST PUSH4 0x4E487B71 PUSH1 0xE0 SHL PUSH1 0x0 MSTORE PUSH1 0x41 PUSH1 0x4 MSTORE PUSH1 0x24 PUSH1 0x0 REVERT JUMPDEST PUSH1 0x40 MLOAD PUSH1 0x1F DUP3 ADD PUSH1 0x1F NOT AND DUP2 ADD PUSH1 0x1 PUSH1 0x1 PUSH1 0x40 SHL SUB DUP2 GT DUP3 DUP3 LT OR ISZERO PUSH2 0x41D5 JUMPI PUSH2 0x41D5 PUSH2 0x4197 JUMP JUMPDEST PUSH1 0x40 MSTORE SWAP2 SWAP1 POP JUMP JUMPDEST PUSH1 0x0 PUSH1 0x1 PUSH1 0x1 PUSH1 0x40 SHL SUB DUP3 GT ISZERO PUSH2 0x41F6 JUMPI PUSH2 0x41F6 PUSH2 0x4197 JUMP JUMPDEST POP PUSH1 0x5 SHL PUSH1 0x20 ADD SWAP1 JUMP JUMPDEST PUSH1 0x0 DUP3 PUSH1 0x1F DUP4 ADD SLT PUSH2 0x4211 JUMPI PUSH1 0x0 DUP1 REVERT JUMPDEST DUP2 CALLDATALOAD PUSH1 0x20 PUSH2 0x4226 PUSH2 0x4221 DUP4 PUSH2 0x41DD JUMP JUMPDEST PUSH2 0x41AD JUMP JUMPDEST DUP3 DUP2 MSTORE PUSH1 0x5 SWAP3 SWAP1 SWAP3 SHL DUP5 ADD DUP2 ADD SWAP2 DUP2 DUP2 ADD SWAP1 DUP7 DUP5 GT ISZERO PUSH2 0x4245 JUMPI PUSH1 0x0 DUP1 REVERT JUMPDEST DUP3 DUP7 ADD JUMPDEST DUP5 DUP2 LT ISZERO PUSH2 0x4267 JUMPI PUSH2 0x425A DUP2 PUSH2 0x3F7F JUMP JUMPDEST DUP4 MSTORE SWAP2 DUP4 ADD SWAP2 DUP4 ADD PUSH2 0x4249 JUMP JUMPDEST POP SWAP7 SWAP6 POP POP POP POP POP POP JUMP JUMPDEST PUSH1 0x0 DUP1 PUSH1 0x0 DUP1 PUSH1 0x0 DUP1 PUSH1 0xC0 DUP8 DUP10 SUB SLT ISZERO PUSH2 0x428B JUMPI PUSH1 0x0 DUP1 REVERT JUMPDEST DUP7 CALLDATALOAD SWAP6 POP PUSH1 0x20 DUP8 ADD CALLDATALOAD PUSH2 0x429D DUP2 PUSH2 0x4081 JUMP JUMPDEST SWAP5 POP PUSH1 0x40 DUP8 ADD CALLDATALOAD PUSH2 0x42AD DUP2 PUSH2 0x4081 JUMP JUMPDEST SWAP4 POP PUSH1 0x60 DUP8 ADD CALLDATALOAD SWAP3 POP PUSH1 0x80 DUP8 ADD CALLDATALOAD PUSH2 0x42C4 DUP2 PUSH2 0x4081 JUMP JUMPDEST SWAP2 POP PUSH1 0xA0 DUP8 ADD CALLDATALOAD PUSH1 0x1 PUSH1 0x1 PUSH1 0x40 SHL SUB DUP2 GT ISZERO PUSH2 0x42DF JUMPI PUSH1 0x0 DUP1 REVERT JUMPDEST PUSH2 0x42EB DUP10 DUP3 DUP11 ADD PUSH2 0x4200 JUMP JUMPDEST SWAP2 POP POP SWAP3 SWAP6 POP SWAP3 SWAP6 POP SWAP3 SWAP6 JUMP JUMPDEST PUSH1 0x0 DUP1 PUSH1 0x0 PUSH1 0x60 DUP5 DUP7 SUB SLT ISZERO PUSH2 0x430D JUMPI PUSH1 0x0 DUP1 REVERT JUMPDEST DUP4 CALLDATALOAD SWAP3 POP PUSH2 0x40D8 PUSH1 0x20 DUP6 ADD PUSH2 0x3F7F JUMP JUMPDEST PUSH1 0x0 DUP1 PUSH1 0x40 DUP4 DUP6 SUB SLT ISZERO PUSH2 0x4330 JUMPI PUSH1 0x0 DUP1 REVERT JUMPDEST POP POP DUP1 CALLDATALOAD SWAP3 PUSH1 0x20 SWAP1 SWAP2 ADD CALLDATALOAD SWAP2 POP JUMP JUMPDEST PUSH1 0x0 DUP1 PUSH1 0x40 DUP4 DUP6 SUB SLT ISZERO PUSH2 0x4352 JUMPI PUSH1 0x0 DUP1 REVERT JUMPDEST PUSH2 0x435B DUP4 PUSH2 0x3F7F JUMP JUMPDEST SWAP2 POP PUSH1 0x20 DUP4 ADD CALLDATALOAD PUSH2 0x436B DUP2 PUSH2 0x4081 JUMP JUMPDEST DUP1 SWAP2 POP POP SWAP3 POP SWAP3 SWAP1 POP JUMP JUMPDEST PUSH1 0x0 PUSH1 0x1 PUSH1 0x1 PUSH1 0x40 SHL SUB DUP4 GT ISZERO PUSH2 0x438F JUMPI PUSH2 0x438F PUSH2 0x4197 JUMP JUMPDEST PUSH2 0x43A2 PUSH1 0x1F DUP5 ADD PUSH1 0x1F NOT AND PUSH1 0x20 ADD PUSH2 0x41AD JUMP JUMPDEST SWAP1 POP DUP3 DUP2 MSTORE DUP4 DUP4 DUP4 ADD GT ISZERO PUSH2 0x43B6 JUMPI PUSH1 0x0 DUP1 REVERT JUMPDEST DUP3 DUP3 PUSH1 0x20 DUP4 ADD CALLDATACOPY PUSH1 0x0 PUSH1 0x20 DUP5 DUP4 ADD ADD MSTORE SWAP4 SWAP3 POP POP POP JUMP JUMPDEST PUSH1 0x0 DUP1 PUSH1 0x0 DUP1 PUSH1 0x80 DUP6 DUP8 SUB SLT ISZERO PUSH2 0x43E3 JUMPI PUSH1 0x0 DUP1 REVERT JUMPDEST PUSH2 0x43EC DUP6 PUSH2 0x3F7F JUMP JUMPDEST SWAP4 POP PUSH2 0x43FA PUSH1 0x20 DUP7 ADD PUSH2 0x3F7F JUMP JUMPDEST SWAP3 POP PUSH1 0x40 DUP6 ADD CALLDATALOAD SWAP2 POP PUSH1 0x60 DUP6 ADD CALLDATALOAD PUSH1 0x1 PUSH1 0x1 PUSH1 0x40 SHL SUB DUP2 GT ISZERO PUSH2 0x441C JUMPI PUSH1 0x0 DUP1 REVERT JUMPDEST DUP6 ADD PUSH1 0x1F DUP2 ADD DUP8 SGT PUSH2 0x442D JUMPI PUSH1 0x0 DUP1 REVERT JUMPDEST PUSH2 0x443C DUP8 DUP3 CALLDATALOAD PUSH1 0x20 DUP5 ADD PUSH2 0x4376 JUMP JUMPDEST SWAP2 POP POP SWAP3 SWAP6 SWAP2 SWAP5 POP SWAP3 POP JUMP JUMPDEST PUSH1 0x0 DUP3 PUSH1 0x1F DUP4 ADD SLT PUSH2 0x4459 JUMPI PUSH1 0x0 DUP1 REVERT JUMPDEST PUSH2 0x16BD DUP4 DUP4 CALLDATALOAD PUSH1 0x20 DUP6 ADD PUSH2 0x4376 JUMP JUMPDEST PUSH1 0x0 DUP3 PUSH1 0x1F DUP4 ADD SLT PUSH2 0x4479 JUMPI PUSH1 0x0 DUP1 REVERT JUMPDEST DUP2 CALLDATALOAD PUSH1 0x20 PUSH2 0x4489 PUSH2 0x4221 DUP4 PUSH2 0x41DD JUMP JUMPDEST DUP3 DUP2 MSTORE PUSH1 0x5 SWAP3 SWAP1 SWAP3 SHL DUP5 ADD DUP2 ADD SWAP2 DUP2 DUP2 ADD SWAP1 DUP7 DUP5 GT ISZERO PUSH2 0x44A8 JUMPI PUSH1 0x0 DUP1 REVERT JUMPDEST DUP3 DUP7 ADD JUMPDEST DUP5 DUP2 LT ISZERO PUSH2 0x4267 JUMPI DUP1 CALLDATALOAD PUSH1 0x1 PUSH1 0x1 PUSH1 0x40 SHL SUB DUP2 GT ISZERO PUSH2 0x44CB JUMPI PUSH1 0x0 DUP1 DUP2 REVERT JUMPDEST PUSH2 0x44D9 DUP10 DUP7 DUP4 DUP12 ADD ADD PUSH2 0x4448 JUMP JUMPDEST DUP5 MSTORE POP SWAP2 DUP4 ADD SWAP2 DUP4 ADD PUSH2 0x44AC JUMP JUMPDEST PUSH1 0x0 PUSH1 0x20 DUP3 DUP5 SUB SLT ISZERO PUSH2 0x44F9 JUMPI PUSH1 0x0 DUP1 REVERT JUMPDEST DUP2 CALLDATALOAD PUSH1 0x1 PUSH1 0x1 PUSH1 0x40 SHL SUB DUP2 GT ISZERO PUSH2 0x450F JUMPI PUSH1 0x0 DUP1 REVERT JUMPDEST PUSH2 0x2476 DUP5 DUP3 DUP6 ADD PUSH2 0x4468 JUMP JUMPDEST PUSH1 0x0 DUP1 PUSH1 0x0 DUP1 PUSH1 0x80 DUP6 DUP8 SUB SLT ISZERO PUSH2 0x4531 JUMPI PUSH1 0x0 DUP1 REVERT JUMPDEST DUP5 CALLDATALOAD PUSH1 0x1 PUSH1 0x1 PUSH1 0x40 SHL SUB DUP1 DUP3 GT ISZERO PUSH2 0x4548 JUMPI PUSH1 0x0 DUP1 REVERT JUMPDEST PUSH2 0x4554 DUP9 DUP4 DUP10 ADD PUSH2 0x4468 JUMP JUMPDEST SWAP6 POP PUSH1 0x20 SWAP2 POP DUP2 DUP8 ADD CALLDATALOAD DUP2 DUP2 GT ISZERO PUSH2 0x456B JUMPI PUSH1 0x0 DUP1 REVERT JUMPDEST PUSH2 0x4577 DUP10 DUP3 DUP11 ADD PUSH2 0x4200 JUMP JUMPDEST SWAP6 POP POP PUSH1 0x40 DUP8 ADD CALLDATALOAD DUP2 DUP2 GT ISZERO PUSH2 0x458C JUMPI PUSH1 0x0 DUP1 REVERT JUMPDEST DUP8 ADD SWAP1 POP PUSH1 0x1F DUP2 ADD DUP9 SGT PUSH2 0x459F JUMPI PUSH1 0x0 DUP1 REVERT JUMPDEST DUP1 CALLDATALOAD PUSH2 0x45AD PUSH2 0x4221 DUP3 PUSH2 0x41DD JUMP JUMPDEST DUP2 DUP2 MSTORE PUSH1 0x5 SWAP2 SWAP1 SWAP2 SHL DUP3 ADD DUP4 ADD SWAP1 DUP4 DUP2 ADD SWAP1 DUP11 DUP4 GT ISZERO PUSH2 0x45CC JUMPI PUSH1 0x0 DUP1 REVERT JUMPDEST SWAP3 DUP5 ADD SWAP3 JUMPDEST DUP3 DUP5 LT ISZERO PUSH2 0x45EA JUMPI DUP4 CALLDATALOAD DUP3 MSTORE SWAP3 DUP5 ADD SWAP3 SWAP1 DUP5 ADD SWAP1 PUSH2 0x45D1 JUMP JUMPDEST DUP1 SWAP7 POP POP POP POP POP POP PUSH2 0x45FE PUSH1 0x60 DUP7 ADD PUSH2 0x3F7F JUMP JUMPDEST SWAP1 POP SWAP3 SWAP6 SWAP2 SWAP5 POP SWAP3 POP JUMP JUMPDEST PUSH1 0x20 DUP1 DUP3 MSTORE DUP3 MLOAD DUP3 DUP3 ADD DUP2 SWAP1 MSTORE PUSH1 0x0 SWAP2 SWAP1 DUP5 DUP3 ADD SWAP1 PUSH1 0x40 DUP6 ADD SWAP1 DUP5 JUMPDEST DUP2 DUP2 LT ISZERO PUSH2 0x418B JUMPI DUP4 MLOAD DUP4 MSTORE SWAP3 DUP5 ADD SWAP3 SWAP2 DUP5 ADD SWAP2 PUSH1 0x1 ADD PUSH2 0x4625 JUMP JUMPDEST PUSH1 0x0 DUP1 PUSH1 0x40 DUP4 DUP6 SUB SLT ISZERO PUSH2 0x4654 JUMPI PUSH1 0x0 DUP1 REVERT JUMPDEST PUSH2 0x465D DUP4 PUSH2 0x3F7F JUMP JUMPDEST SWAP2 POP PUSH2 0x466B PUSH1 0x20 DUP5 ADD PUSH2 0x3F7F JUMP JUMPDEST SWAP1 POP SWAP3 POP SWAP3 SWAP1 POP JUMP JUMPDEST PUSH1 0x0 PUSH1 0x20 DUP3 DUP5 SUB SLT ISZERO PUSH2 0x4686 JUMPI PUSH1 0x0 DUP1 REVERT JUMPDEST DUP2 CALLDATALOAD PUSH1 0x1 PUSH1 0x1 PUSH1 0x40 SHL SUB DUP2 GT ISZERO PUSH2 0x469C JUMPI PUSH1 0x0 DUP1 REVERT JUMPDEST PUSH2 0x2476 DUP5 DUP3 DUP6 ADD PUSH2 0x4200 JUMP JUMPDEST PUSH1 0x0 DUP1 PUSH1 0x40 DUP4 DUP6 SUB SLT ISZERO PUSH2 0x46BB JUMPI PUSH1 0x0 DUP1 REVERT JUMPDEST PUSH2 0x46C4 DUP4 PUSH2 0x3F7F JUMP JUMPDEST SWAP2 POP PUSH1 0x20 DUP4 ADD CALLDATALOAD PUSH1 0x1 PUSH1 0x1 PUSH1 0x40 SHL SUB DUP2 GT ISZERO PUSH2 0x46DF JUMPI PUSH1 0x0 DUP1 REVERT JUMPDEST PUSH2 0x46EB DUP6 DUP3 DUP7 ADD PUSH2 0x4448 JUMP JUMPDEST SWAP2 POP POP SWAP3 POP SWAP3 SWAP1 POP JUMP JUMPDEST PUSH1 0x20 DUP1 DUP3 MSTORE PUSH1 0x11 SWAP1 DUP3 ADD MSTORE PUSH17 0x151C985919481B9BDD08185B1B1BDDD959 PUSH1 0x7A SHL PUSH1 0x40 DUP3 ADD MSTORE PUSH1 0x60 ADD SWAP1 JUMP JUMPDEST PUSH1 0x0 PUSH1 0x20 DUP3 DUP5 SUB SLT ISZERO PUSH2 0x4732 JUMPI PUSH1 0x0 DUP1 REVERT JUMPDEST POP MLOAD SWAP2 SWAP1 POP JUMP JUMPDEST PUSH1 0x1 DUP2 DUP2 SHR SWAP1 DUP3 AND DUP1 PUSH2 0x474D JUMPI PUSH1 0x7F DUP3 AND SWAP2 POP JUMPDEST PUSH1 0x20 DUP3 LT DUP2 EQ ISZERO PUSH2 0x476E JUMPI PUSH4 0x4E487B71 PUSH1 0xE0 SHL PUSH1 0x0 MSTORE PUSH1 0x22 PUSH1 0x4 MSTORE PUSH1 0x24 PUSH1 0x0 REVERT JUMPDEST POP SWAP2 SWAP1 POP JUMP JUMPDEST DUP1 SLOAD PUSH1 0x0 SWAP1 PUSH1 0x1 DUP2 DUP2 SHR SWAP1 DUP1 DUP4 AND DUP1 PUSH2 0x478E JUMPI PUSH1 0x7F DUP4 AND SWAP3 POP JUMPDEST PUSH1 0x20 DUP1 DUP5 LT DUP3 EQ ISZERO PUSH2 0x47B0 JUMPI PUSH4 0x4E487B71 PUSH1 0xE0 SHL PUSH1 0x0 MSTORE PUSH1 0x22 PUSH1 0x4 MSTORE PUSH1 0x24 PUSH1 0x0 REVERT JUMPDEST DUP4 DUP9 MSTORE PUSH1 0x20 DUP9 ADD DUP3 DUP1 ISZERO PUSH2 0x47CB JUMPI PUSH1 0x1 DUP2 EQ PUSH2 0x47DC JUMPI PUSH2 0x4807 JUMP JUMPDEST PUSH1 0xFF NOT DUP8 AND DUP3 MSTORE DUP3 DUP3 ADD SWAP8 POP PUSH2 0x4807 JUMP JUMPDEST PUSH1 0x0 DUP10 DUP2 MSTORE PUSH1 0x20 SWAP1 KECCAK256 PUSH1 0x0 JUMPDEST DUP8 DUP2 LT ISZERO PUSH2 0x4801 JUMPI DUP2 SLOAD DUP5 DUP3 ADD MSTORE SWAP1 DUP7 ADD SWAP1 DUP5 ADD PUSH2 0x47E8 JUMP JUMPDEST DUP4 ADD SWAP9 POP POP JUMPDEST POP POP POP POP POP POP POP SWAP3 SWAP2 POP POP JUMP JUMPDEST PUSH1 0x0 PUSH1 0x1 DUP1 PUSH1 0xA0 SHL SUB DUP1 DUP10 AND DUP4 MSTORE DUP1 DUP9 AND PUSH1 0x20 DUP5 ADD MSTORE DUP7 PUSH1 0x40 DUP5 ADD MSTORE PUSH1 0xC0 PUSH1 0x60 DUP5 ADD MSTORE PUSH2 0x4844 PUSH1 0xC0 DUP5 ADD DUP8 PUSH2 0x4774 JUMP JUMPDEST SWAP5 AND PUSH1 0x80 DUP4 ADD MSTORE POP PUSH1 0xA0 ADD MSTORE SWAP5 SWAP4 POP POP POP POP JUMP JUMPDEST PUSH4 0x4E487B71 PUSH1 0xE0 SHL PUSH1 0x0 MSTORE PUSH1 0x11 PUSH1 0x4 MSTORE PUSH1 0x24 PUSH1 0x0 REVERT JUMPDEST PUSH1 0x0 PUSH1 0x0 NOT DUP3 EQ ISZERO PUSH2 0x4882 JUMPI PUSH2 0x4882 PUSH2 0x4858 JUMP JUMPDEST POP PUSH1 0x1 ADD SWAP1 JUMP JUMPDEST PUSH4 0x4E487B71 PUSH1 0xE0 SHL PUSH1 0x0 MSTORE PUSH1 0x32 PUSH1 0x4 MSTORE PUSH1 0x24 PUSH1 0x0 REVERT JUMPDEST PUSH1 0x20 DUP1 DUP3 MSTORE PUSH1 0x2D SWAP1 DUP3 ADD MSTORE PUSH32 0x4552433732313A2063616C6C6572206973206E6F7420746F6B656E206F776E65 PUSH1 0x40 DUP3 ADD MSTORE PUSH13 0x1C881BDC88185C1C1C9BDD9959 PUSH1 0x9A SHL PUSH1 0x60 DUP3 ADD MSTORE PUSH1 0x80 ADD SWAP1 JUMP JUMPDEST PUSH1 0x1 DUP1 PUSH1 0xA0 SHL SUB DUP5 AND DUP2 MSTORE DUP3 PUSH1 0x20 DUP3 ADD MSTORE PUSH1 0x60 PUSH1 0x40 DUP3 ADD MSTORE PUSH1 0x0 PUSH2 0x33EC PUSH1 0x60 DUP4 ADD DUP5 PUSH2 0x3F40 JUMP JUMPDEST PUSH1 0x20 DUP1 DUP3 MSTORE PUSH1 0x14 SWAP1 DUP3 ADD MSTORE PUSH20 0x151A1A5CC81A5CC81B9BDD081E5BDD5C88139195 PUSH1 0x62 SHL PUSH1 0x40 DUP3 ADD MSTORE PUSH1 0x60 ADD SWAP1 JUMP JUMPDEST PUSH1 0x1 DUP1 PUSH1 0xA0 SHL SUB DUP5 AND DUP2 MSTORE DUP3 PUSH1 0x20 DUP3 ADD MSTORE PUSH1 0x60 PUSH1 0x40 DUP3 ADD MSTORE PUSH1 0x0 PUSH2 0x33EC PUSH1 0x60 DUP4 ADD DUP5 PUSH2 0x4774 JUMP JUMPDEST PUSH1 0x1 PUSH1 0x1 PUSH1 0xA0 SHL SUB DUP7 DUP2 AND DUP3 MSTORE DUP6 AND PUSH1 0x20 DUP3 ADD MSTORE PUSH1 0x40 DUP2 ADD DUP5 SWAP1 MSTORE PUSH1 0xA0 PUSH1 0x60 DUP3 ADD DUP2 SWAP1 MSTORE PUSH1 0x0 SWAP1 PUSH2 0x499B SWAP1 DUP4 ADD DUP6 PUSH2 0x4774 JUMP JUMPDEST SWAP1 POP DUP3 PUSH1 0x80 DUP4 ADD MSTORE SWAP7 SWAP6 POP POP POP POP POP POP JUMP JUMPDEST PUSH1 0x0 PUSH1 0x1 DUP1 PUSH1 0xA0 SHL SUB DUP1 DUP9 AND DUP4 MSTORE DUP7 PUSH1 0x20 DUP5 ADD MSTORE PUSH1 0xA0 PUSH1 0x40 DUP5 ADD MSTORE PUSH2 0x49D5 PUSH1 0xA0 DUP5 ADD DUP8 PUSH2 0x4774 JUMP JUMPDEST SWAP5 AND PUSH1 0x60 DUP4 ADD MSTORE POP PUSH1 0x80 ADD MSTORE SWAP4 SWAP3 POP POP POP JUMP JUMPDEST PUSH1 0x1 DUP1 PUSH1 0xA0 SHL SUB DUP6 AND DUP2 MSTORE DUP4 PUSH1 0x20 DUP3 ADD MSTORE PUSH1 0x80 PUSH1 0x40 DUP3 ADD MSTORE PUSH1 0x0 PUSH2 0x4A0F PUSH1 0x80 DUP4 ADD DUP6 PUSH2 0x4774 JUMP JUMPDEST SWAP1 POP DUP3 PUSH1 0x60 DUP4 ADD MSTORE SWAP6 SWAP5 POP POP POP POP POP JUMP JUMPDEST PUSH1 0x0 DUP4 MLOAD PUSH2 0x4A32 DUP2 DUP5 PUSH1 0x20 DUP9 ADD PUSH2 0x3F14 JUMP JUMPDEST DUP4 MLOAD SWAP1 DUP4 ADD SWAP1 PUSH2 0x4A46 DUP2 DUP4 PUSH1 0x20 DUP9 ADD PUSH2 0x3F14 JUMP JUMPDEST ADD SWAP5 SWAP4 POP POP POP POP JUMP JUMPDEST PUSH32 0x5072696365206D757374206265206772656174207468616E207A65726F2E2050 DUP2 MSTORE PUSH12 0x7269636520696E6465782023 PUSH1 0xA0 SHL PUSH1 0x20 DUP3 ADD MSTORE PUSH1 0x0 DUP3 MLOAD PUSH2 0x4A9C DUP2 PUSH1 0x2C DUP6 ADD PUSH1 0x20 DUP8 ADD PUSH2 0x3F14 JUMP JUMPDEST SWAP2 SWAP1 SWAP2 ADD PUSH1 0x2C ADD SWAP3 SWAP2 POP POP JUMP JUMPDEST PUSH32 0x4E6F7420616C6C6F7765642045524320666F722074726164652E204552433230 DUP2 MSTORE PUSH8 0x20696E6465782023 PUSH1 0xC0 SHL PUSH1 0x20 DUP3 ADD MSTORE PUSH1 0x0 DUP3 MLOAD PUSH2 0x4AF2 DUP2 PUSH1 0x28 DUP6 ADD PUSH1 0x20 DUP8 ADD PUSH2 0x3F14 JUMP JUMPDEST SWAP2 SWAP1 SWAP2 ADD PUSH1 0x28 ADD SWAP3 SWAP2 POP POP JUMP JUMPDEST PUSH1 0x1 DUP1 PUSH1 0xA0 SHL SUB DUP6 AND DUP2 MSTORE DUP4 PUSH1 0x20 DUP3 ADD MSTORE PUSH1 0x80 PUSH1 0x40 DUP3 ADD MSTORE PUSH1 0x0 PUSH2 0x4A0F PUSH1 0x80 DUP4 ADD DUP6 PUSH2 0x3F40 JUMP JUMPDEST PUSH1 0x0 PUSH1 0x1 DUP1 PUSH1 0xA0 SHL SUB DUP1 DUP9 AND DUP4 MSTORE DUP7 PUSH1 0x20 DUP5 ADD MSTORE PUSH1 0xA0 PUSH1 0x40 DUP5 ADD MSTORE PUSH2 0x49D5 PUSH1 0xA0 DUP5 ADD DUP8 PUSH2 0x3F40 JUMP JUMPDEST PUSH1 0x0 PUSH1 0x20 DUP3 DUP5 SUB SLT ISZERO PUSH2 0x4B60 JUMPI PUSH1 0x0 DUP1 REVERT JUMPDEST DUP2 MLOAD PUSH2 0x16BD DUP2 PUSH2 0x4081 JUMP JUMPDEST PUSH4 0x4E487B71 PUSH1 0xE0 SHL PUSH1 0x0 MSTORE PUSH1 0x12 PUSH1 0x4 MSTORE PUSH1 0x24 PUSH1 0x0 REVERT JUMPDEST PUSH1 0x0 DUP3 PUSH2 0x4B90 JUMPI PUSH2 0x4B90 PUSH2 0x4B6B JUMP JUMPDEST POP DIV SWAP1 JUMP JUMPDEST PUSH1 0x0 DUP2 PUSH1 0x0 NOT DIV DUP4 GT DUP3 ISZERO ISZERO AND ISZERO PUSH2 0x4BAF JUMPI PUSH2 0x4BAF PUSH2 0x4858 JUMP JUMPDEST POP MUL SWAP1 JUMP JUMPDEST PUSH1 0x0 DUP3 DUP3 LT ISZERO PUSH2 0x4BC6 JUMPI PUSH2 0x4BC6 PUSH2 0x4858 JUMP JUMPDEST POP SUB SWAP1 JUMP JUMPDEST PUSH1 0x20 DUP1 DUP3 MSTORE PUSH1 0x25 SWAP1 DUP3 ADD MSTORE PUSH32 0x4552433732313A207472616E736665722066726F6D20696E636F727265637420 PUSH1 0x40 DUP3 ADD MSTORE PUSH5 0x37BBB732B9 PUSH1 0xD9 SHL PUSH1 0x60 DUP3 ADD MSTORE PUSH1 0x80 ADD SWAP1 JUMP JUMPDEST PUSH1 0x0 DUP3 PUSH2 0x4C1F JUMPI PUSH2 0x4C1F PUSH2 0x4B6B JUMP JUMPDEST POP MOD SWAP1 JUMP JUMPDEST PUSH1 0x0 DUP3 NOT DUP3 GT ISZERO PUSH2 0x4C37 JUMPI PUSH2 0x4C37 PUSH2 0x4858 JUMP JUMPDEST POP ADD SWAP1 JUMP JUMPDEST PUSH1 0x20 DUP1 DUP3 MSTORE PUSH1 0x32 SWAP1 DUP3 ADD MSTORE PUSH32 0x4552433732313A207472616E7366657220746F206E6F6E204552433732315265 PUSH1 0x40 DUP3 ADD MSTORE PUSH18 0x31B2B4BB32B91034B6B83632B6B2B73A32B9 PUSH1 0x71 SHL PUSH1 0x60 DUP3 ADD MSTORE PUSH1 0x80 ADD SWAP1 JUMP JUMPDEST PUSH1 0x1 PUSH1 0x1 PUSH1 0xA0 SHL SUB DUP6 DUP2 AND DUP3 MSTORE DUP5 AND PUSH1 0x20 DUP3 ADD MSTORE PUSH1 0x40 DUP2 ADD DUP4 SWAP1 MSTORE PUSH1 0x80 PUSH1 0x60 DUP3 ADD DUP2 SWAP1 MSTORE PUSH1 0x0 SWAP1 PUSH2 0x4CC1 SWAP1 DUP4 ADD DUP5 PUSH2 0x3F40 JUMP JUMPDEST SWAP7 SWAP6 POP POP POP POP POP POP JUMP JUMPDEST PUSH1 0x0 PUSH1 0x20 DUP3 DUP5 SUB SLT ISZERO PUSH2 0x4CDD JUMPI PUSH1 0x0 DUP1 REVERT JUMPDEST DUP2 MLOAD PUSH2 0x16BD DUP2 PUSH2 0x3EC8 JUMP JUMPDEST PUSH1 0x0 DUP3 MLOAD PUSH2 0x4CFA DUP2 DUP5 PUSH1 0x20 DUP8 ADD PUSH2 0x3F14 JUMP JUMPDEST SWAP2 SWAP1 SWAP2 ADD SWAP3 SWAP2 POP POP JUMP INVALID LOG2 PUSH5 0x6970667358 0x22 SLT KECCAK256 0xAE 0xAF SWAP16 EXP 0xE9 GASLIMIT DUP7 0x5D 0xC6 0xC6 0xCD 0xB8 DUP7 STOP 0x29 0xBA 0xDA SDIV SWAP15 TIMESTAMP STOP CALLDATALOAD PUSH21 0x6ACCF18CDADB2B445364736F6C634300080C003300 "
		},
		"gasEstimates": {
			"creation": {
				"codeDepositCost": "3954000",
				"executionCost": "infinite",
				"totalCost": "infinite"
			},
			"external": {
				"MAX_SUPPLY()": "2407",
				"approve(address,uint256)": "infinite",
				"balanceOf(address)": "2701",
				"bankAmount()": "305",
				"bankAmountERC20(address)": "infinite",
				"buyNFT(uint256)": "infinite",
				"buyNFTbyERC20(uint256)": "infinite",
				"deSellNFT(uint256)": "infinite",
				"flushRandom(bytes32)": "59615",
				"getAllowMint()": "2405",
				"getAllowTrade()": "2382",
				"getAllowUserSale()": "2394",
				"getAllowedERC20()": "infinite",
				"getApproved(uint256)": "4837",
				"getMintPrice()": "2359",
				"getMintUris()": "infinite",
				"getMyTokensAtSale()": "infinite",
				"getTokensAtSale()": "infinite",
				"getTradeFee()": "2404",
				"getUserTokensAtSale(address)": "infinite",
				"isAllowedERC20(address)": "infinite",
				"isApprovedForAll(address,address)": "infinite",
				"isNFTStakeToken()": "236",
				"maxSupply()": "2381",
				"mintNFT(address,string)": "infinite",
				"mintNFTForSell(string[],address[],uint256[],address)": "infinite",
				"mintRandom(bytes32)": "infinite",
				"name()": "infinite",
				"owner()": "2399",
				"ownerOf(uint256)": "2650",
				"renounceOwnership()": "infinite",
				"safeTransferFrom(address,address,uint256)": "infinite",
				"safeTransferFrom(address,address,uint256,bytes)": "infinite",
				"sellNFT(uint256,uint256)": "infinite",
				"sellNFTforERC20(uint256,address,uint256)": "infinite",
				"setAllowMint(bool)": "26777",
				"setAllowTrade(bool)": "26843",
				"setAllowUserSale(bool)": "26814",
				"setAllowedERC20(address[])": "infinite",
				"setApprovalForAll(address,bool)": "26805",
				"setMaxSupply(uint256)": "24578",
				"setMintPrice(uint256)": "24554",
				"setMintUris(string[])": "infinite",
				"setNewOptions(uint256,bool,bool,uint256,bool,address[])": "infinite",
				"setTradeFee(uint256)": "24645",
				"supportsInterface(bytes4)": "557",
				"symbol()": "infinite",
				"tokenURI(uint256)": "infinite",
				"totalSupply()": "2399",
				"transferFrom(address,address,uint256)": "infinite",
				"transferOwnership(address)": "28447",
				"version()": "2363",
				"withdrawBank()": "infinite",
				"withdrawBankERC20(address)": "infinite"
			},
			"internal": {
				"_clearSellToken(uint256)": "infinite",
				"fixTotalSupply()": "28507",
				"getAllowance(address)": "infinite",
				"getRandom(bytes32,uint256)": "infinite"
			}
		},
		"methodIdentifiers": {
			"MAX_SUPPLY()": "32cb6b0c",
			"approve(address,uint256)": "095ea7b3",
			"balanceOf(address)": "70a08231",
			"bankAmount()": "b42a275e",
			"bankAmountERC20(address)": "476caa70",
			"buyNFT(uint256)": "51ed8288",
			"buyNFTbyERC20(uint256)": "047a5d43",
			"deSellNFT(uint256)": "512ddcf9",
			"flushRandom(bytes32)": "f7e944ee",
			"getAllowMint()": "a6fde7ab",
			"getAllowTrade()": "ad3ea47e",
			"getAllowUserSale()": "c399748d",
			"getAllowedERC20()": "69c57352",
			"getApproved(uint256)": "081812fc",
			"getMintPrice()": "a7f93ebd",
			"getMintUris()": "65f5f661",
			"getMyTokensAtSale()": "a096c5a2",
			"getTokensAtSale()": "d55a34e4",
			"getTradeFee()": "952977f5",
			"getUserTokensAtSale(address)": "19c8c1c5",
			"isAllowedERC20(address)": "785fa7ce",
			"isApprovedForAll(address,address)": "e985e9c5",
			"isNFTStakeToken()": "8c7eb38e",
			"maxSupply()": "d5abeb01",
			"mintNFT(address,string)": "eacabe14",
			"mintNFTForSell(string[],address[],uint256[],address)": "e1e767e6",
			"mintRandom(bytes32)": "31af3886",
			"name()": "06fdde03",
			"owner()": "8da5cb5b",
			"ownerOf(uint256)": "6352211e",
			"renounceOwnership()": "715018a6",
			"safeTransferFrom(address,address,uint256)": "42842e0e",
			"safeTransferFrom(address,address,uint256,bytes)": "b88d4fde",
			"sellNFT(uint256,uint256)": "91a48a1e",
			"sellNFTforERC20(uint256,address,uint256)": "7b668457",
			"setAllowMint(bool)": "5e81078d",
			"setAllowTrade(bool)": "9fd5d2ab",
			"setAllowUserSale(bool)": "1a3074dc",
			"setAllowedERC20(address[])": "e9e4e160",
			"setApprovalForAll(address,bool)": "a22cb465",
			"setMaxSupply(uint256)": "6f8b44b0",
			"setMintPrice(uint256)": "f4a0a528",
			"setMintUris(string[])": "bda8d370",
			"setNewOptions(uint256,bool,bool,uint256,bool,address[])": "7918a1df",
			"setTradeFee(uint256)": "10603023",
			"supportsInterface(bytes4)": "01ffc9a7",
			"symbol()": "95d89b41",
			"tokenURI(uint256)": "c87b56dd",
			"totalSupply()": "18160ddd",
			"transferFrom(address,address,uint256)": "23b872dd",
			"transferOwnership(address)": "f2fde38b",
			"version()": "54fd4d50",
			"withdrawBank()": "ff7f0cf9",
			"withdrawBankERC20(address)": "fcf984a9"
		}
	},
	"abi": [
		{
			"inputs": [
				{
					"internalType": "string",
					"name": "__symbol",
					"type": "string"
				},
				{
					"internalType": "string",
					"name": "__name",
					"type": "string"
				},
				{
					"internalType": "uint256",
					"name": "__maxSupply",
					"type": "uint256"
				},
				{
					"internalType": "uint256",
					"name": "__mintPrice",
					"type": "uint256"
				},
				{
					"internalType": "bool",
					"name": "__allowTrade",
					"type": "bool"
				},
				{
					"internalType": "bool",
					"name": "__allowUserSale",
					"type": "bool"
				},
				{
					"internalType": "uint256",
					"name": "__tradeFee",
					"type": "uint256"
				},
				{
					"internalType": "bool",
					"name": "__allowMint",
					"type": "bool"
				},
				{
					"internalType": "address[]",
					"name": "__allowedERC20",
					"type": "address[]"
				}
			],
			"stateMutability": "nonpayable",
			"type": "constructor"
		},
		{
			"anonymous": false,
			"inputs": [
				{
					"indexed": true,
					"internalType": "address",
					"name": "owner",
					"type": "address"
				},
				{
					"indexed": true,
					"internalType": "address",
					"name": "approved",
					"type": "address"
				},
				{
					"indexed": true,
					"internalType": "uint256",
					"name": "tokenId",
					"type": "uint256"
				}
			],
			"name": "Approval",
			"type": "event"
		},
		{
			"anonymous": false,
			"inputs": [
				{
					"indexed": true,
					"internalType": "address",
					"name": "owner",
					"type": "address"
				},
				{
					"indexed": true,
					"internalType": "address",
					"name": "operator",
					"type": "address"
				},
				{
					"indexed": false,
					"internalType": "bool",
					"name": "approved",
					"type": "bool"
				}
			],
			"name": "ApprovalForAll",
			"type": "event"
		},
		{
			"anonymous": false,
			"inputs": [
				{
					"indexed": false,
					"internalType": "address",
					"name": "owner",
					"type": "address"
				},
				{
					"indexed": false,
					"internalType": "address",
					"name": "buyer",
					"type": "address"
				},
				{
					"indexed": false,
					"internalType": "uint256",
					"name": "tokenId",
					"type": "uint256"
				},
				{
					"indexed": false,
					"internalType": "string",
					"name": "tokenUri",
					"type": "string"
				},
				{
					"indexed": false,
					"internalType": "uint256",
					"name": "price",
					"type": "uint256"
				}
			],
			"name": "Buy",
			"type": "event"
		},
		{
			"anonymous": false,
			"inputs": [
				{
					"indexed": false,
					"internalType": "address",
					"name": "owner",
					"type": "address"
				},
				{
					"indexed": false,
					"internalType": "address",
					"name": "buyer",
					"type": "address"
				},
				{
					"indexed": false,
					"internalType": "uint256",
					"name": "tokenId",
					"type": "uint256"
				},
				{
					"indexed": false,
					"internalType": "string",
					"name": "tokenUri",
					"type": "string"
				},
				{
					"indexed": false,
					"internalType": "address",
					"name": "erc20",
					"type": "address"
				},
				{
					"indexed": false,
					"internalType": "uint256",
					"name": "price",
					"type": "uint256"
				}
			],
			"name": "BuyWithERC20",
			"type": "event"
		},
		{
			"anonymous": false,
			"inputs": [
				{
					"indexed": false,
					"internalType": "address",
					"name": "owner",
					"type": "address"
				},
				{
					"indexed": false,
					"internalType": "uint256",
					"name": "tokenId",
					"type": "uint256"
				},
				{
					"indexed": false,
					"internalType": "string",
					"name": "tokenUri",
					"type": "string"
				}
			],
			"name": "Mint",
			"type": "event"
		},
		{
			"anonymous": false,
			"inputs": [
				{
					"indexed": true,
					"internalType": "address",
					"name": "previousOwner",
					"type": "address"
				},
				{
					"indexed": true,
					"internalType": "address",
					"name": "newOwner",
					"type": "address"
				}
			],
			"name": "OwnershipTransferred",
			"type": "event"
		},
		{
			"anonymous": false,
			"inputs": [
				{
					"indexed": false,
					"internalType": "address",
					"name": "owner",
					"type": "address"
				},
				{
					"indexed": false,
					"internalType": "uint256",
					"name": "tokenId",
					"type": "uint256"
				},
				{
					"indexed": false,
					"internalType": "string",
					"name": "tokenUri",
					"type": "string"
				},
				{
					"indexed": false,
					"internalType": "uint256",
					"name": "price",
					"type": "uint256"
				}
			],
			"name": "PutUpForSale",
			"type": "event"
		},
		{
			"anonymous": false,
			"inputs": [
				{
					"indexed": false,
					"internalType": "address",
					"name": "owner",
					"type": "address"
				},
				{
					"indexed": false,
					"internalType": "uint256",
					"name": "tokenId",
					"type": "uint256"
				},
				{
					"indexed": false,
					"internalType": "string",
					"name": "tokenUri",
					"type": "string"
				},
				{
					"indexed": false,
					"internalType": "address",
					"name": "erc20",
					"type": "address"
				},
				{
					"indexed": false,
					"internalType": "uint256",
					"name": "price",
					"type": "uint256"
				}
			],
			"name": "PutUpForSaleWithERC20",
			"type": "event"
		},
		{
			"anonymous": false,
			"inputs": [
				{
					"indexed": true,
					"internalType": "address",
					"name": "from",
					"type": "address"
				},
				{
					"indexed": true,
					"internalType": "address",
					"name": "to",
					"type": "address"
				},
				{
					"indexed": true,
					"internalType": "uint256",
					"name": "tokenId",
					"type": "uint256"
				}
			],
			"name": "Transfer",
			"type": "event"
		},
		{
			"anonymous": false,
			"inputs": [
				{
					"indexed": false,
					"internalType": "address",
					"name": "to",
					"type": "address"
				},
				{
					"indexed": false,
					"internalType": "uint256",
					"name": "amount",
					"type": "uint256"
				}
			],
			"name": "WithdrawBank",
			"type": "event"
		},
		{
			"anonymous": false,
			"inputs": [
				{
					"indexed": false,
					"internalType": "address",
					"name": "owner",
					"type": "address"
				},
				{
					"indexed": false,
					"internalType": "uint256",
					"name": "tokenId",
					"type": "uint256"
				},
				{
					"indexed": false,
					"internalType": "string",
					"name": "tokenUri",
					"type": "string"
				}
			],
			"name": "WithdrawFromSale",
			"type": "event"
		},
		{
			"inputs": [],
			"name": "MAX_SUPPLY",
			"outputs": [
				{
					"internalType": "uint256",
					"name": "",
					"type": "uint256"
				}
			],
			"stateMutability": "view",
			"type": "function"
		},
		{
			"inputs": [
				{
					"internalType": "address",
					"name": "to",
					"type": "address"
				},
				{
					"internalType": "uint256",
					"name": "tokenId",
					"type": "uint256"
				}
			],
			"name": "approve",
			"outputs": [],
			"stateMutability": "nonpayable",
			"type": "function"
		},
		{
			"inputs": [
				{
					"internalType": "address",
					"name": "owner",
					"type": "address"
				}
			],
			"name": "balanceOf",
			"outputs": [
				{
					"internalType": "uint256",
					"name": "",
					"type": "uint256"
				}
			],
			"stateMutability": "view",
			"type": "function"
		},
		{
			"inputs": [],
			"name": "bankAmount",
			"outputs": [
				{
					"internalType": "uint256",
					"name": "",
					"type": "uint256"
				}
			],
			"stateMutability": "view",
			"type": "function"
		},
		{
			"inputs": [
				{
					"internalType": "address",
					"name": "erc20",
					"type": "address"
				}
			],
			"name": "bankAmountERC20",
			"outputs": [
				{
					"internalType": "uint256",
					"name": "",
					"type": "uint256"
				}
			],
			"stateMutability": "view",
			"type": "function"
		},
		{
			"inputs": [
				{
					"internalType": "uint256",
					"name": "_tokenId",
					"type": "uint256"
				}
			],
			"name": "buyNFT",
			"outputs": [],
			"stateMutability": "payable",
			"type": "function"
		},
		{
			"inputs": [
				{
					"internalType": "uint256",
					"name": "_tokenId",
					"type": "uint256"
				}
			],
			"name": "buyNFTbyERC20",
			"outputs": [],
			"stateMutability": "nonpayable",
			"type": "function"
		},
		{
			"inputs": [
				{
					"internalType": "uint256",
					"name": "_tokenId",
					"type": "uint256"
				}
			],
			"name": "deSellNFT",
			"outputs": [],
			"stateMutability": "nonpayable",
			"type": "function"
		},
		{
			"inputs": [
				{
					"internalType": "bytes32",
					"name": "_flushSeed",
					"type": "bytes32"
				}
			],
			"name": "flushRandom",
			"outputs": [],
			"stateMutability": "nonpayable",
			"type": "function"
		},
		{
			"inputs": [],
			"name": "getAllowMint",
			"outputs": [
				{
					"internalType": "bool",
					"name": "",
					"type": "bool"
				}
			],
			"stateMutability": "view",
			"type": "function"
		},
		{
			"inputs": [],
			"name": "getAllowTrade",
			"outputs": [
				{
					"internalType": "bool",
					"name": "",
					"type": "bool"
				}
			],
			"stateMutability": "view",
			"type": "function"
		},
		{
			"inputs": [],
			"name": "getAllowUserSale",
			"outputs": [
				{
					"internalType": "bool",
					"name": "",
					"type": "bool"
				}
			],
			"stateMutability": "view",
			"type": "function"
		},
		{
			"inputs": [],
			"name": "getAllowedERC20",
			"outputs": [
				{
					"internalType": "address[]",
					"name": "",
					"type": "address[]"
				}
			],
			"stateMutability": "view",
			"type": "function"
		},
		{
			"inputs": [
				{
					"internalType": "uint256",
					"name": "tokenId",
					"type": "uint256"
				}
			],
			"name": "getApproved",
			"outputs": [
				{
					"internalType": "address",
					"name": "",
					"type": "address"
				}
			],
			"stateMutability": "view",
			"type": "function"
		},
		{
			"inputs": [],
			"name": "getMintPrice",
			"outputs": [
				{
					"internalType": "uint256",
					"name": "",
					"type": "uint256"
				}
			],
			"stateMutability": "view",
			"type": "function"
		},
		{
			"inputs": [],
			"name": "getMintUris",
			"outputs": [
				{
					"internalType": "string[]",
					"name": "",
					"type": "string[]"
				}
			],
			"stateMutability": "view",
			"type": "function"
		},
		{
			"inputs": [],
			"name": "getMyTokensAtSale",
			"outputs": [
				{
					"components": [
						{
							"internalType": "uint256",
							"name": "tokenId",
							"type": "uint256"
						},
						{
							"internalType": "string",
							"name": "uri",
							"type": "string"
						},
						{
							"internalType": "address",
							"name": "seller",
							"type": "address"
						},
						{
							"internalType": "uint256",
							"name": "price",
							"type": "uint256"
						},
						{
							"internalType": "address",
							"name": "erc20",
							"type": "address"
						}
					],
					"internalType": "struct StakeNFT.SelledNFT[]",
					"name": "ret",
					"type": "tuple[]"
				}
			],
			"stateMutability": "view",
			"type": "function"
		},
		{
			"inputs": [],
			"name": "getTokensAtSale",
			"outputs": [
				{
					"components": [
						{
							"internalType": "uint256",
							"name": "tokenId",
							"type": "uint256"
						},
						{
							"internalType": "string",
							"name": "uri",
							"type": "string"
						},
						{
							"internalType": "address",
							"name": "seller",
							"type": "address"
						},
						{
							"internalType": "uint256",
							"name": "price",
							"type": "uint256"
						},
						{
							"internalType": "address",
							"name": "erc20",
							"type": "address"
						}
					],
					"internalType": "struct StakeNFT.SelledNFT[]",
					"name": "ret",
					"type": "tuple[]"
				}
			],
			"stateMutability": "view",
			"type": "function"
		},
		{
			"inputs": [],
			"name": "getTradeFee",
			"outputs": [
				{
					"internalType": "uint256",
					"name": "",
					"type": "uint256"
				}
			],
			"stateMutability": "view",
			"type": "function"
		},
		{
			"inputs": [
				{
					"internalType": "address",
					"name": "seller",
					"type": "address"
				}
			],
			"name": "getUserTokensAtSale",
			"outputs": [
				{
					"components": [
						{
							"internalType": "uint256",
							"name": "tokenId",
							"type": "uint256"
						},
						{
							"internalType": "string",
							"name": "uri",
							"type": "string"
						},
						{
							"internalType": "address",
							"name": "seller",
							"type": "address"
						},
						{
							"internalType": "uint256",
							"name": "price",
							"type": "uint256"
						},
						{
							"internalType": "address",
							"name": "erc20",
							"type": "address"
						}
					],
					"internalType": "struct StakeNFT.SelledNFT[]",
					"name": "ret",
					"type": "tuple[]"
				}
			],
			"stateMutability": "view",
			"type": "function"
		},
		{
			"inputs": [
				{
					"internalType": "address",
					"name": "erc20",
					"type": "address"
				}
			],
			"name": "isAllowedERC20",
			"outputs": [
				{
					"internalType": "bool",
					"name": "",
					"type": "bool"
				}
			],
			"stateMutability": "view",
			"type": "function"
		},
		{
			"inputs": [
				{
					"internalType": "address",
					"name": "owner",
					"type": "address"
				},
				{
					"internalType": "address",
					"name": "operator",
					"type": "address"
				}
			],
			"name": "isApprovedForAll",
			"outputs": [
				{
					"internalType": "bool",
					"name": "",
					"type": "bool"
				}
			],
			"stateMutability": "view",
			"type": "function"
		},
		{
			"inputs": [],
			"name": "isNFTStakeToken",
			"outputs": [
				{
					"internalType": "bool",
					"name": "",
					"type": "bool"
				}
			],
			"stateMutability": "view",
			"type": "function"
		},
		{
			"inputs": [],
			"name": "maxSupply",
			"outputs": [
				{
					"internalType": "uint256",
					"name": "",
					"type": "uint256"
				}
			],
			"stateMutability": "view",
			"type": "function"
		},
		{
			"inputs": [
				{
					"internalType": "address",
					"name": "recipient",
					"type": "address"
				},
				{
					"internalType": "string",
					"name": "tokenURI",
					"type": "string"
				}
			],
			"name": "mintNFT",
			"outputs": [
				{
					"internalType": "uint256",
					"name": "",
					"type": "uint256"
				}
			],
			"stateMutability": "nonpayable",
			"type": "function"
		},
		{
			"inputs": [
				{
					"internalType": "string[]",
					"name": "tokenURIs",
					"type": "string[]"
				},
				{
					"internalType": "address[]",
					"name": "erc20",
					"type": "address[]"
				},
				{
					"internalType": "uint256[]",
					"name": "prices",
					"type": "uint256[]"
				},
				{
					"internalType": "address",
					"name": "seller",
					"type": "address"
				}
			],
			"name": "mintNFTForSell",
			"outputs": [
				{
					"internalType": "uint256[]",
					"name": "",
					"type": "uint256[]"
				}
			],
			"stateMutability": "nonpayable",
			"type": "function"
		},
		{
			"inputs": [
				{
					"internalType": "bytes32",
					"name": "_seed",
					"type": "bytes32"
				}
			],
			"name": "mintRandom",
			"outputs": [
				{
					"internalType": "uint256",
					"name": "",
					"type": "uint256"
				}
			],
			"stateMutability": "payable",
			"type": "function"
		},
		{
			"inputs": [],
			"name": "name",
			"outputs": [
				{
					"internalType": "string",
					"name": "",
					"type": "string"
				}
			],
			"stateMutability": "view",
			"type": "function"
		},
		{
			"inputs": [],
			"name": "owner",
			"outputs": [
				{
					"internalType": "address",
					"name": "",
					"type": "address"
				}
			],
			"stateMutability": "view",
			"type": "function"
		},
		{
			"inputs": [
				{
					"internalType": "uint256",
					"name": "tokenId",
					"type": "uint256"
				}
			],
			"name": "ownerOf",
			"outputs": [
				{
					"internalType": "address",
					"name": "",
					"type": "address"
				}
			],
			"stateMutability": "view",
			"type": "function"
		},
		{
			"inputs": [],
			"name": "renounceOwnership",
			"outputs": [],
			"stateMutability": "nonpayable",
			"type": "function"
		},
		{
			"inputs": [
				{
					"internalType": "address",
					"name": "from",
					"type": "address"
				},
				{
					"internalType": "address",
					"name": "to",
					"type": "address"
				},
				{
					"internalType": "uint256",
					"name": "tokenId",
					"type": "uint256"
				}
			],
			"name": "safeTransferFrom",
			"outputs": [],
			"stateMutability": "nonpayable",
			"type": "function"
		},
		{
			"inputs": [
				{
					"internalType": "address",
					"name": "from",
					"type": "address"
				},
				{
					"internalType": "address",
					"name": "to",
					"type": "address"
				},
				{
					"internalType": "uint256",
					"name": "tokenId",
					"type": "uint256"
				},
				{
					"internalType": "bytes",
					"name": "data",
					"type": "bytes"
				}
			],
			"name": "safeTransferFrom",
			"outputs": [],
			"stateMutability": "nonpayable",
			"type": "function"
		},
		{
			"inputs": [
				{
					"internalType": "uint256",
					"name": "_tokenId",
					"type": "uint256"
				},
				{
					"internalType": "uint256",
					"name": "price",
					"type": "uint256"
				}
			],
			"name": "sellNFT",
			"outputs": [],
			"stateMutability": "nonpayable",
			"type": "function"
		},
		{
			"inputs": [
				{
					"internalType": "uint256",
					"name": "_tokenId",
					"type": "uint256"
				},
				{
					"internalType": "address",
					"name": "_erc20",
					"type": "address"
				},
				{
					"internalType": "uint256",
					"name": "price",
					"type": "uint256"
				}
			],
			"name": "sellNFTforERC20",
			"outputs": [],
			"stateMutability": "nonpayable",
			"type": "function"
		},
		{
			"inputs": [
				{
					"internalType": "bool",
					"name": "_newAllowMint",
					"type": "bool"
				}
			],
			"name": "setAllowMint",
			"outputs": [],
			"stateMutability": "nonpayable",
			"type": "function"
		},
		{
			"inputs": [
				{
					"internalType": "bool",
					"name": "_newAllowTrade",
					"type": "bool"
				}
			],
			"name": "setAllowTrade",
			"outputs": [],
			"stateMutability": "nonpayable",
			"type": "function"
		},
		{
			"inputs": [
				{
					"internalType": "bool",
					"name": "_newAllowUserSale",
					"type": "bool"
				}
			],
			"name": "setAllowUserSale",
			"outputs": [],
			"stateMutability": "nonpayable",
			"type": "function"
		},
		{
			"inputs": [
				{
					"internalType": "address[]",
					"name": "newAllowedERC20",
					"type": "address[]"
				}
			],
			"name": "setAllowedERC20",
			"outputs": [],
			"stateMutability": "nonpayable",
			"type": "function"
		},
		{
			"inputs": [
				{
					"internalType": "address",
					"name": "operator",
					"type": "address"
				},
				{
					"internalType": "bool",
					"name": "approved",
					"type": "bool"
				}
			],
			"name": "setApprovalForAll",
			"outputs": [],
			"stateMutability": "nonpayable",
			"type": "function"
		},
		{
			"inputs": [
				{
					"internalType": "uint256",
					"name": "_newMaxSupply",
					"type": "uint256"
				}
			],
			"name": "setMaxSupply",
			"outputs": [],
			"stateMutability": "nonpayable",
			"type": "function"
		},
		{
			"inputs": [
				{
					"internalType": "uint256",
					"name": "_newMintPrice",
					"type": "uint256"
				}
			],
			"name": "setMintPrice",
			"outputs": [],
			"stateMutability": "nonpayable",
			"type": "function"
		},
		{
			"inputs": [
				{
					"internalType": "string[]",
					"name": "newMintUris",
					"type": "string[]"
				}
			],
			"name": "setMintUris",
			"outputs": [],
			"stateMutability": "nonpayable",
			"type": "function"
		},
		{
			"inputs": [
				{
					"internalType": "uint256",
					"name": "__mintPrice",
					"type": "uint256"
				},
				{
					"internalType": "bool",
					"name": "__allowTrade",
					"type": "bool"
				},
				{
					"internalType": "bool",
					"name": "__allowUserSale",
					"type": "bool"
				},
				{
					"internalType": "uint256",
					"name": "__tradeFee",
					"type": "uint256"
				},
				{
					"internalType": "bool",
					"name": "__allowMint",
					"type": "bool"
				},
				{
					"internalType": "address[]",
					"name": "__allowedERC20",
					"type": "address[]"
				}
			],
			"name": "setNewOptions",
			"outputs": [],
			"stateMutability": "nonpayable",
			"type": "function"
		},
		{
			"inputs": [
				{
					"internalType": "uint256",
					"name": "_newTradeFee",
					"type": "uint256"
				}
			],
			"name": "setTradeFee",
			"outputs": [],
			"stateMutability": "nonpayable",
			"type": "function"
		},
		{
			"inputs": [
				{
					"internalType": "bytes4",
					"name": "interfaceId",
					"type": "bytes4"
				}
			],
			"name": "supportsInterface",
			"outputs": [
				{
					"internalType": "bool",
					"name": "",
					"type": "bool"
				}
			],
			"stateMutability": "view",
			"type": "function"
		},
		{
			"inputs": [],
			"name": "symbol",
			"outputs": [
				{
					"internalType": "string",
					"name": "",
					"type": "string"
				}
			],
			"stateMutability": "view",
			"type": "function"
		},
		{
			"inputs": [
				{
					"internalType": "uint256",
					"name": "tokenId",
					"type": "uint256"
				}
			],
			"name": "tokenURI",
			"outputs": [
				{
					"internalType": "string",
					"name": "",
					"type": "string"
				}
			],
			"stateMutability": "view",
			"type": "function"
		},
		{
			"inputs": [],
			"name": "totalSupply",
			"outputs": [
				{
					"internalType": "uint256",
					"name": "",
					"type": "uint256"
				}
			],
			"stateMutability": "view",
			"type": "function"
		},
		{
			"inputs": [
				{
					"internalType": "address",
					"name": "from",
					"type": "address"
				},
				{
					"internalType": "address",
					"name": "to",
					"type": "address"
				},
				{
					"internalType": "uint256",
					"name": "tokenId",
					"type": "uint256"
				}
			],
			"name": "transferFrom",
			"outputs": [],
			"stateMutability": "nonpayable",
			"type": "function"
		},
		{
			"inputs": [
				{
					"internalType": "address",
					"name": "newOwner",
					"type": "address"
				}
			],
			"name": "transferOwnership",
			"outputs": [],
			"stateMutability": "nonpayable",
			"type": "function"
		},
		{
			"inputs": [],
			"name": "version",
			"outputs": [
				{
					"internalType": "uint256",
					"name": "",
					"type": "uint256"
				}
			],
			"stateMutability": "view",
			"type": "function"
		},
		{
			"inputs": [],
			"name": "withdrawBank",
			"outputs": [],
			"stateMutability": "nonpayable",
			"type": "function"
		},
		{
			"inputs": [
				{
					"internalType": "address",
					"name": "erc20",
					"type": "address"
				}
			],
			"name": "withdrawBankERC20",
			"outputs": [],
			"stateMutability": "nonpayable",
			"type": "function"
		}
	]
}