{
	"data": {
		"bytecode": {
			"linkReferences": {},
			"object": "608060405234801561001057600080fd5b506112c3806100206000396000f3fe608060405234801561001057600080fd5b506004361061007d5760003560e01c8063ae55c8881161005b578063ae55c888146100c8578063be05133c146100e8578063cb965ae9146100fb578063f14805c31461011057600080fd5b806311d881b11461008257806328ce8638146100a0578063ac193f1a146100b5575b600080fd5b61008a610123565b6040516100979190610c68565b60405180910390f35b6100b36100ae366004610daa565b61027e565b005b6100b36100c3366004610e03565b61028a565b6100db6100d6366004610daa565b61030e565b6040516100979190610eb9565b6100b36100f6366004610f3a565b610332565b6101036103cf565b6040516100979190611039565b6100b361011e36600461108e565b6104a8565b60015460609060009067ffffffffffffffff81111561014457610144610cca565b60405190808252806020026020018201604052801561018a57816020015b6040805180820190915260008152606060208201528152602001906001900390816101625790505b50905060005b60015481101561027857610248600182815481106101b0576101b06110f2565b9060005260206000200180546101c590611108565b80601f01602080910402602001604051908101604052809291908181526020018280546101f190611108565b801561023e5780601f106102135761010080835404028352916020019161023e565b820191906000526020600020905b81548152906001019060200180831161022157829003601f168201915b50505050506104b2565b82828151811061025a5761025a6110f2565b6020026020010181905250808061027090611153565b915050610190565b50919050565b610287816105d9565b50565b60008151116102ca5760405162461bcd60e51b81526020600482015260076024820152664e4f5f4b45595360c81b60448201526064015b60405180910390fd5b60005b815181101561030a576102f88282815181106102eb576102eb6110f2565b60200260200101516105d9565b8061030281611153565b9150506102cd565b5050565b60408051808201909152600081526060602082015261032c826104b2565b92915050565b600081511161036d5760405162461bcd60e51b81526020600482015260076024820152664e4f5f4441544160c81b60448201526064016102c1565b60005b815181101561030a576103bd82828151811061038e5761038e6110f2565b6020026020010151600001518383815181106103ac576103ac6110f2565b602002602001015160200151610909565b806103c781611153565b915050610370565b60606001805480602002602001604051908101604052809291908181526020016000905b8282101561049f57838290600052602060002001805461041290611108565b80601f016020809104026020016040519081016040528092919081815260200182805461043e90611108565b801561048b5780601f106104605761010080835404028352916020019161048b565b820191906000526020600020905b81548152906001019060200180831161046e57829003601f168201915b5050505050815260200190600101906103f3565b50505050905090565b61030a8282610909565b6040805180820190915260008152606060208201528151829081906104e95760405162461bcd60e51b81526004016102c19061116e565b60405180604001604052806000866040516105049190611190565b9081526040805160209281900383019020546001600160a01b0316835251910190600090610533908890611190565b9081526020016040518091039020600101805461054f90611108565b80601f016020809104026020016040519081016040528092919081815260200182805461057b90611108565b80156105c85780601f1061059d576101008083540402835291602001916105c8565b820191906000526020600020905b8154815290600101906020018083116105ab57829003601f168201915b505050505081525092505050919050565b8051819081906105fb5760405162461bcd60e51b81526004016102c19061116e565b8260006001600160a01b03166000826040516106179190611190565b908152604051908190036020019020546001600160a01b031614156106695760405162461bcd60e51b81526020600482015260086024820152672727afa7aba722a960c11b60448201526064016102c1565b6000816040516106799190611190565b90815260405190819003602001902054336001600160a01b03909116146106ce5760405162461bcd60e51b81526020600482015260096024820152682327a92124a22222a760b91b60448201526064016102c1565b6000846040516106de9190611190565b90815260405190819003602001902080546001600160a01b0319168155600061070a6001830182610a93565b505060015461071857610903565b6001805414156107c857836040516020016107339190611190565b60405160208183030381529060405280519060200120600160008154811061075d5761075d6110f2565b9060005260206000200160405160200161077791906111ac565b6040516020818303038152906040528051906020012014156107c35760018054806107a4576107a4611248565b6001900381819060005260206000200160006107c09190610a93565b90555b610903565b6000805b600180546107da919061125e565b8110156108ca57856040516020016107f29190611190565b604051602081830303815290604052805190602001206001828154811061081b5761081b6110f2565b9060005260206000200160405160200161083591906111ac565b60405160208183030381529060405280519060200120141561085657600191505b81156108b85760016108688282611275565b81548110610878576108786110f2565b9060005260206000200160018281548110610895576108956110f2565b906000526020600020019080546108ab90611108565b6108b6929190610acd565b505b806108c281611153565b9150506107cc565b5080156109015760018054806108e2576108e2611248565b6001900381819060005260206000200160006108fe9190610a93565b90555b505b50505050565b81518290819061092b5760405162461bcd60e51b81526004016102c19061116e565b60006001600160a01b03166000856040516109469190611190565b908152604051908190036020019020546001600160a01b0316146109ce576000846040516109749190611190565b90815260405190819003602001902054336001600160a01b03909116146109c95760405162461bcd60e51b81526020600482015260096024820152682327a92124a22222a760b91b60448201526064016102c1565b610a12565b6001805480820182556000919091528451610a10917fb10e2d527612073b26eecdfd717e6a320cf44b4afac2b0732d9fcbe2b7fa0cf601906020870190610b58565b505b8251604051600090610a25908790611190565b908152602001604051809103902060000160006101000a8154816001600160a01b0302191690836001600160a01b031602179055508260200151600085604051610a6f9190611190565b90815260200160405180910390206001019080519060200190610901929190610b58565b508054610a9f90611108565b6000825580601f10610aaf575050565b601f0160209004906000526020600020908101906102879190610bcc565b828054610ad990611108565b90600052602060002090601f016020900481019282610afb5760008555610b48565b82601f10610b0c5780548555610b48565b82800160010185558215610b4857600052602060002091601f016020900482015b82811115610b48578254825591600101919060010190610b2d565b50610b54929150610bcc565b5090565b828054610b6490611108565b90600052602060002090601f016020900481019282610b865760008555610b48565b82601f10610b9f57805160ff1916838001178555610b48565b82800160010185558215610b48579182015b82811115610b48578251825591602001919060010190610bb1565b5b80821115610b545760008155600101610bcd565b60005b83811015610bfc578181015183820152602001610be4565b838111156109035750506000910152565b60008151808452610c25816020860160208601610be1565b601f01601f19169290920160200192915050565b60018060a01b0381511682526000602082015160406020850152610c606040850182610c0d565b949350505050565b6000602080830181845280855180835260408601915060408160051b870101925083870160005b82811015610cbd57603f19888603018452610cab858351610c39565b94509285019290850190600101610c8f565b5092979650505050505050565b634e487b7160e01b600052604160045260246000fd5b6040805190810167ffffffffffffffff81118282101715610d0357610d03610cca565b60405290565b604051601f8201601f1916810167ffffffffffffffff81118282101715610d3257610d32610cca565b604052919050565b600082601f830112610d4b57600080fd5b813567ffffffffffffffff811115610d6557610d65610cca565b610d78601f8201601f1916602001610d09565b818152846020838601011115610d8d57600080fd5b816020850160208301376000918101602001919091529392505050565b600060208284031215610dbc57600080fd5b813567ffffffffffffffff811115610dd357600080fd5b610c6084828501610d3a565b600067ffffffffffffffff821115610df957610df9610cca565b5060051b60200190565b60006020808385031215610e1657600080fd5b823567ffffffffffffffff80821115610e2e57600080fd5b818501915085601f830112610e4257600080fd5b8135610e55610e5082610ddf565b610d09565b81815260059190911b83018401908481019088831115610e7457600080fd5b8585015b83811015610eac57803585811115610e905760008081fd5b610e9e8b89838a0101610d3a565b845250918601918601610e78565b5098975050505050505050565b602081526000610ecc6020830184610c39565b9392505050565b600060408284031215610ee557600080fd5b610eed610ce0565b905081356001600160a01b0381168114610f0657600080fd5b8152602082013567ffffffffffffffff811115610f2257600080fd5b610f2e84828501610d3a565b60208301525092915050565b60006020808385031215610f4d57600080fd5b823567ffffffffffffffff80821115610f6557600080fd5b818501915085601f830112610f7957600080fd5b8135610f87610e5082610ddf565b81815260059190911b83018401908481019088831115610fa657600080fd5b8585015b83811015610eac57803585811115610fc25760008081fd5b86016040818c03601f1901811315610fda5760008081fd5b610fe2610ce0565b8983013588811115610ff45760008081fd5b6110028e8c83870101610d3a565b8252509082013590878211156110185760008081fd5b6110268d8b84860101610ed3565b818b015285525050918601918601610faa565b6000602080830181845280855180835260408601915060408160051b870101925083870160005b82811015610cbd57603f1988860301845261107c858351610c0d565b94509285019290850190600101611060565b600080604083850312156110a157600080fd5b823567ffffffffffffffff808211156110b957600080fd5b6110c586838701610d3a565b935060208501359150808211156110db57600080fd5b506110e885828601610ed3565b9150509250929050565b634e487b7160e01b600052603260045260246000fd5b600181811c9082168061111c57607f821691505b6020821081141561027857634e487b7160e01b600052602260045260246000fd5b634e487b7160e01b600052601160045260246000fd5b60006000198214156111675761116761113d565b5060010190565b6020808252600890820152674e4f5f56414c554560c01b604082015260600190565b600082516111a2818460208701610be1565b9190910192915050565b600080835481600182811c9150808316806111c857607f831692505b60208084108214156111e857634e487b7160e01b86526022600452602486fd5b8180156111fc576001811461120d5761123a565b60ff1986168952848901965061123a565b60008a81526020902060005b868110156112325781548b820152908501908301611219565b505084890196505b509498975050505050505050565b634e487b7160e01b600052603160045260246000fd5b6000828210156112705761127061113d565b500390565b600082198211156112885761128861113d565b50019056fea264697066735822122014b64f9b0a1367db6c03105e01d53b7ffefe6d1ee92ef5c4fd62e5bfe33752f464736f6c634300080c0033",
			"opcodes": "PUSH1 0x80 PUSH1 0x40 MSTORE CALLVALUE DUP1 ISZERO PUSH2 0x10 JUMPI PUSH1 0x0 DUP1 REVERT JUMPDEST POP PUSH2 0x12C3 DUP1 PUSH2 0x20 PUSH1 0x0 CODECOPY PUSH1 0x0 RETURN INVALID PUSH1 0x80 PUSH1 0x40 MSTORE CALLVALUE DUP1 ISZERO PUSH2 0x10 JUMPI PUSH1 0x0 DUP1 REVERT JUMPDEST POP PUSH1 0x4 CALLDATASIZE LT PUSH2 0x7D JUMPI PUSH1 0x0 CALLDATALOAD PUSH1 0xE0 SHR DUP1 PUSH4 0xAE55C888 GT PUSH2 0x5B JUMPI DUP1 PUSH4 0xAE55C888 EQ PUSH2 0xC8 JUMPI DUP1 PUSH4 0xBE05133C EQ PUSH2 0xE8 JUMPI DUP1 PUSH4 0xCB965AE9 EQ PUSH2 0xFB JUMPI DUP1 PUSH4 0xF14805C3 EQ PUSH2 0x110 JUMPI PUSH1 0x0 DUP1 REVERT JUMPDEST DUP1 PUSH4 0x11D881B1 EQ PUSH2 0x82 JUMPI DUP1 PUSH4 0x28CE8638 EQ PUSH2 0xA0 JUMPI DUP1 PUSH4 0xAC193F1A EQ PUSH2 0xB5 JUMPI JUMPDEST PUSH1 0x0 DUP1 REVERT JUMPDEST PUSH2 0x8A PUSH2 0x123 JUMP JUMPDEST PUSH1 0x40 MLOAD PUSH2 0x97 SWAP2 SWAP1 PUSH2 0xC68 JUMP JUMPDEST PUSH1 0x40 MLOAD DUP1 SWAP2 SUB SWAP1 RETURN JUMPDEST PUSH2 0xB3 PUSH2 0xAE CALLDATASIZE PUSH1 0x4 PUSH2 0xDAA JUMP JUMPDEST PUSH2 0x27E JUMP JUMPDEST STOP JUMPDEST PUSH2 0xB3 PUSH2 0xC3 CALLDATASIZE PUSH1 0x4 PUSH2 0xE03 JUMP JUMPDEST PUSH2 0x28A JUMP JUMPDEST PUSH2 0xDB PUSH2 0xD6 CALLDATASIZE PUSH1 0x4 PUSH2 0xDAA JUMP JUMPDEST PUSH2 0x30E JUMP JUMPDEST PUSH1 0x40 MLOAD PUSH2 0x97 SWAP2 SWAP1 PUSH2 0xEB9 JUMP JUMPDEST PUSH2 0xB3 PUSH2 0xF6 CALLDATASIZE PUSH1 0x4 PUSH2 0xF3A JUMP JUMPDEST PUSH2 0x332 JUMP JUMPDEST PUSH2 0x103 PUSH2 0x3CF JUMP JUMPDEST PUSH1 0x40 MLOAD PUSH2 0x97 SWAP2 SWAP1 PUSH2 0x1039 JUMP JUMPDEST PUSH2 0xB3 PUSH2 0x11E CALLDATASIZE PUSH1 0x4 PUSH2 0x108E JUMP JUMPDEST PUSH2 0x4A8 JUMP JUMPDEST PUSH1 0x1 SLOAD PUSH1 0x60 SWAP1 PUSH1 0x0 SWAP1 PUSH8 0xFFFFFFFFFFFFFFFF DUP2 GT ISZERO PUSH2 0x144 JUMPI PUSH2 0x144 PUSH2 0xCCA JUMP JUMPDEST PUSH1 0x40 MLOAD SWAP1 DUP1 DUP3 MSTORE DUP1 PUSH1 0x20 MUL PUSH1 0x20 ADD DUP3 ADD PUSH1 0x40 MSTORE DUP1 ISZERO PUSH2 0x18A JUMPI DUP2 PUSH1 0x20 ADD JUMPDEST PUSH1 0x40 DUP1 MLOAD DUP1 DUP3 ADD SWAP1 SWAP2 MSTORE PUSH1 0x0 DUP2 MSTORE PUSH1 0x60 PUSH1 0x20 DUP3 ADD MSTORE DUP2 MSTORE PUSH1 0x20 ADD SWAP1 PUSH1 0x1 SWAP1 SUB SWAP1 DUP2 PUSH2 0x162 JUMPI SWAP1 POP JUMPDEST POP SWAP1 POP PUSH1 0x0 JUMPDEST PUSH1 0x1 SLOAD DUP2 LT ISZERO PUSH2 0x278 JUMPI PUSH2 0x248 PUSH1 0x1 DUP3 DUP2 SLOAD DUP2 LT PUSH2 0x1B0 JUMPI PUSH2 0x1B0 PUSH2 0x10F2 JUMP JUMPDEST SWAP1 PUSH1 0x0 MSTORE PUSH1 0x20 PUSH1 0x0 KECCAK256 ADD DUP1 SLOAD PUSH2 0x1C5 SWAP1 PUSH2 0x1108 JUMP JUMPDEST DUP1 PUSH1 0x1F ADD PUSH1 0x20 DUP1 SWAP2 DIV MUL PUSH1 0x20 ADD PUSH1 0x40 MLOAD SWAP1 DUP2 ADD PUSH1 0x40 MSTORE DUP1 SWAP3 SWAP2 SWAP1 DUP2 DUP2 MSTORE PUSH1 0x20 ADD DUP3 DUP1 SLOAD PUSH2 0x1F1 SWAP1 PUSH2 0x1108 JUMP JUMPDEST DUP1 ISZERO PUSH2 0x23E JUMPI DUP1 PUSH1 0x1F LT PUSH2 0x213 JUMPI PUSH2 0x100 DUP1 DUP4 SLOAD DIV MUL DUP4 MSTORE SWAP2 PUSH1 0x20 ADD SWAP2 PUSH2 0x23E JUMP JUMPDEST DUP3 ADD SWAP2 SWAP1 PUSH1 0x0 MSTORE PUSH1 0x20 PUSH1 0x0 KECCAK256 SWAP1 JUMPDEST DUP2 SLOAD DUP2 MSTORE SWAP1 PUSH1 0x1 ADD SWAP1 PUSH1 0x20 ADD DUP1 DUP4 GT PUSH2 0x221 JUMPI DUP3 SWAP1 SUB PUSH1 0x1F AND DUP3 ADD SWAP2 JUMPDEST POP POP POP POP POP PUSH2 0x4B2 JUMP JUMPDEST DUP3 DUP3 DUP2 MLOAD DUP2 LT PUSH2 0x25A JUMPI PUSH2 0x25A PUSH2 0x10F2 JUMP JUMPDEST PUSH1 0x20 MUL PUSH1 0x20 ADD ADD DUP2 SWAP1 MSTORE POP DUP1 DUP1 PUSH2 0x270 SWAP1 PUSH2 0x1153 JUMP JUMPDEST SWAP2 POP POP PUSH2 0x190 JUMP JUMPDEST POP SWAP2 SWAP1 POP JUMP JUMPDEST PUSH2 0x287 DUP2 PUSH2 0x5D9 JUMP JUMPDEST POP JUMP JUMPDEST PUSH1 0x0 DUP2 MLOAD GT PUSH2 0x2CA JUMPI PUSH1 0x40 MLOAD PUSH3 0x461BCD PUSH1 0xE5 SHL DUP2 MSTORE PUSH1 0x20 PUSH1 0x4 DUP3 ADD MSTORE PUSH1 0x7 PUSH1 0x24 DUP3 ADD MSTORE PUSH7 0x4E4F5F4B455953 PUSH1 0xC8 SHL PUSH1 0x44 DUP3 ADD MSTORE PUSH1 0x64 ADD JUMPDEST PUSH1 0x40 MLOAD DUP1 SWAP2 SUB SWAP1 REVERT JUMPDEST PUSH1 0x0 JUMPDEST DUP2 MLOAD DUP2 LT ISZERO PUSH2 0x30A JUMPI PUSH2 0x2F8 DUP3 DUP3 DUP2 MLOAD DUP2 LT PUSH2 0x2EB JUMPI PUSH2 0x2EB PUSH2 0x10F2 JUMP JUMPDEST PUSH1 0x20 MUL PUSH1 0x20 ADD ADD MLOAD PUSH2 0x5D9 JUMP JUMPDEST DUP1 PUSH2 0x302 DUP2 PUSH2 0x1153 JUMP JUMPDEST SWAP2 POP POP PUSH2 0x2CD JUMP JUMPDEST POP POP JUMP JUMPDEST PUSH1 0x40 DUP1 MLOAD DUP1 DUP3 ADD SWAP1 SWAP2 MSTORE PUSH1 0x0 DUP2 MSTORE PUSH1 0x60 PUSH1 0x20 DUP3 ADD MSTORE PUSH2 0x32C DUP3 PUSH2 0x4B2 JUMP JUMPDEST SWAP3 SWAP2 POP POP JUMP JUMPDEST PUSH1 0x0 DUP2 MLOAD GT PUSH2 0x36D JUMPI PUSH1 0x40 MLOAD PUSH3 0x461BCD PUSH1 0xE5 SHL DUP2 MSTORE PUSH1 0x20 PUSH1 0x4 DUP3 ADD MSTORE PUSH1 0x7 PUSH1 0x24 DUP3 ADD MSTORE PUSH7 0x4E4F5F44415441 PUSH1 0xC8 SHL PUSH1 0x44 DUP3 ADD MSTORE PUSH1 0x64 ADD PUSH2 0x2C1 JUMP JUMPDEST PUSH1 0x0 JUMPDEST DUP2 MLOAD DUP2 LT ISZERO PUSH2 0x30A JUMPI PUSH2 0x3BD DUP3 DUP3 DUP2 MLOAD DUP2 LT PUSH2 0x38E JUMPI PUSH2 0x38E PUSH2 0x10F2 JUMP JUMPDEST PUSH1 0x20 MUL PUSH1 0x20 ADD ADD MLOAD PUSH1 0x0 ADD MLOAD DUP4 DUP4 DUP2 MLOAD DUP2 LT PUSH2 0x3AC JUMPI PUSH2 0x3AC PUSH2 0x10F2 JUMP JUMPDEST PUSH1 0x20 MUL PUSH1 0x20 ADD ADD MLOAD PUSH1 0x20 ADD MLOAD PUSH2 0x909 JUMP JUMPDEST DUP1 PUSH2 0x3C7 DUP2 PUSH2 0x1153 JUMP JUMPDEST SWAP2 POP POP PUSH2 0x370 JUMP JUMPDEST PUSH1 0x60 PUSH1 0x1 DUP1 SLOAD DUP1 PUSH1 0x20 MUL PUSH1 0x20 ADD PUSH1 0x40 MLOAD SWAP1 DUP2 ADD PUSH1 0x40 MSTORE DUP1 SWAP3 SWAP2 SWAP1 DUP2 DUP2 MSTORE PUSH1 0x20 ADD PUSH1 0x0 SWAP1 JUMPDEST DUP3 DUP3 LT ISZERO PUSH2 0x49F JUMPI DUP4 DUP3 SWAP1 PUSH1 0x0 MSTORE PUSH1 0x20 PUSH1 0x0 KECCAK256 ADD DUP1 SLOAD PUSH2 0x412 SWAP1 PUSH2 0x1108 JUMP JUMPDEST DUP1 PUSH1 0x1F ADD PUSH1 0x20 DUP1 SWAP2 DIV MUL PUSH1 0x20 ADD PUSH1 0x40 MLOAD SWAP1 DUP2 ADD PUSH1 0x40 MSTORE DUP1 SWAP3 SWAP2 SWAP1 DUP2 DUP2 MSTORE PUSH1 0x20 ADD DUP3 DUP1 SLOAD PUSH2 0x43E SWAP1 PUSH2 0x1108 JUMP JUMPDEST DUP1 ISZERO PUSH2 0x48B JUMPI DUP1 PUSH1 0x1F LT PUSH2 0x460 JUMPI PUSH2 0x100 DUP1 DUP4 SLOAD DIV MUL DUP4 MSTORE SWAP2 PUSH1 0x20 ADD SWAP2 PUSH2 0x48B JUMP JUMPDEST DUP3 ADD SWAP2 SWAP1 PUSH1 0x0 MSTORE PUSH1 0x20 PUSH1 0x0 KECCAK256 SWAP1 JUMPDEST DUP2 SLOAD DUP2 MSTORE SWAP1 PUSH1 0x1 ADD SWAP1 PUSH1 0x20 ADD DUP1 DUP4 GT PUSH2 0x46E JUMPI DUP3 SWAP1 SUB PUSH1 0x1F AND DUP3 ADD SWAP2 JUMPDEST POP POP POP POP POP DUP2 MSTORE PUSH1 0x20 ADD SWAP1 PUSH1 0x1 ADD SWAP1 PUSH2 0x3F3 JUMP JUMPDEST POP POP POP POP SWAP1 POP SWAP1 JUMP JUMPDEST PUSH2 0x30A DUP3 DUP3 PUSH2 0x909 JUMP JUMPDEST PUSH1 0x40 DUP1 MLOAD DUP1 DUP3 ADD SWAP1 SWAP2 MSTORE PUSH1 0x0 DUP2 MSTORE PUSH1 0x60 PUSH1 0x20 DUP3 ADD MSTORE DUP2 MLOAD DUP3 SWAP1 DUP2 SWAP1 PUSH2 0x4E9 JUMPI PUSH1 0x40 MLOAD PUSH3 0x461BCD PUSH1 0xE5 SHL DUP2 MSTORE PUSH1 0x4 ADD PUSH2 0x2C1 SWAP1 PUSH2 0x116E JUMP JUMPDEST PUSH1 0x40 MLOAD DUP1 PUSH1 0x40 ADD PUSH1 0x40 MSTORE DUP1 PUSH1 0x0 DUP7 PUSH1 0x40 MLOAD PUSH2 0x504 SWAP2 SWAP1 PUSH2 0x1190 JUMP JUMPDEST SWAP1 DUP2 MSTORE PUSH1 0x40 DUP1 MLOAD PUSH1 0x20 SWAP3 DUP2 SWAP1 SUB DUP4 ADD SWAP1 KECCAK256 SLOAD PUSH1 0x1 PUSH1 0x1 PUSH1 0xA0 SHL SUB AND DUP4 MSTORE MLOAD SWAP2 ADD SWAP1 PUSH1 0x0 SWAP1 PUSH2 0x533 SWAP1 DUP9 SWAP1 PUSH2 0x1190 JUMP JUMPDEST SWAP1 DUP2 MSTORE PUSH1 0x20 ADD PUSH1 0x40 MLOAD DUP1 SWAP2 SUB SWAP1 KECCAK256 PUSH1 0x1 ADD DUP1 SLOAD PUSH2 0x54F SWAP1 PUSH2 0x1108 JUMP JUMPDEST DUP1 PUSH1 0x1F ADD PUSH1 0x20 DUP1 SWAP2 DIV MUL PUSH1 0x20 ADD PUSH1 0x40 MLOAD SWAP1 DUP2 ADD PUSH1 0x40 MSTORE DUP1 SWAP3 SWAP2 SWAP1 DUP2 DUP2 MSTORE PUSH1 0x20 ADD DUP3 DUP1 SLOAD PUSH2 0x57B SWAP1 PUSH2 0x1108 JUMP JUMPDEST DUP1 ISZERO PUSH2 0x5C8 JUMPI DUP1 PUSH1 0x1F LT PUSH2 0x59D JUMPI PUSH2 0x100 DUP1 DUP4 SLOAD DIV MUL DUP4 MSTORE SWAP2 PUSH1 0x20 ADD SWAP2 PUSH2 0x5C8 JUMP JUMPDEST DUP3 ADD SWAP2 SWAP1 PUSH1 0x0 MSTORE PUSH1 0x20 PUSH1 0x0 KECCAK256 SWAP1 JUMPDEST DUP2 SLOAD DUP2 MSTORE SWAP1 PUSH1 0x1 ADD SWAP1 PUSH1 0x20 ADD DUP1 DUP4 GT PUSH2 0x5AB JUMPI DUP3 SWAP1 SUB PUSH1 0x1F AND DUP3 ADD SWAP2 JUMPDEST POP POP POP POP POP DUP2 MSTORE POP SWAP3 POP POP POP SWAP2 SWAP1 POP JUMP JUMPDEST DUP1 MLOAD DUP2 SWAP1 DUP2 SWAP1 PUSH2 0x5FB JUMPI PUSH1 0x40 MLOAD PUSH3 0x461BCD PUSH1 0xE5 SHL DUP2 MSTORE PUSH1 0x4 ADD PUSH2 0x2C1 SWAP1 PUSH2 0x116E JUMP JUMPDEST DUP3 PUSH1 0x0 PUSH1 0x1 PUSH1 0x1 PUSH1 0xA0 SHL SUB AND PUSH1 0x0 DUP3 PUSH1 0x40 MLOAD PUSH2 0x617 SWAP2 SWAP1 PUSH2 0x1190 JUMP JUMPDEST SWAP1 DUP2 MSTORE PUSH1 0x40 MLOAD SWAP1 DUP2 SWAP1 SUB PUSH1 0x20 ADD SWAP1 KECCAK256 SLOAD PUSH1 0x1 PUSH1 0x1 PUSH1 0xA0 SHL SUB AND EQ ISZERO PUSH2 0x669 JUMPI PUSH1 0x40 MLOAD PUSH3 0x461BCD PUSH1 0xE5 SHL DUP2 MSTORE PUSH1 0x20 PUSH1 0x4 DUP3 ADD MSTORE PUSH1 0x8 PUSH1 0x24 DUP3 ADD MSTORE PUSH8 0x2727AFA7ABA722A9 PUSH1 0xC1 SHL PUSH1 0x44 DUP3 ADD MSTORE PUSH1 0x64 ADD PUSH2 0x2C1 JUMP JUMPDEST PUSH1 0x0 DUP2 PUSH1 0x40 MLOAD PUSH2 0x679 SWAP2 SWAP1 PUSH2 0x1190 JUMP JUMPDEST SWAP1 DUP2 MSTORE PUSH1 0x40 MLOAD SWAP1 DUP2 SWAP1 SUB PUSH1 0x20 ADD SWAP1 KECCAK256 SLOAD CALLER PUSH1 0x1 PUSH1 0x1 PUSH1 0xA0 SHL SUB SWAP1 SWAP2 AND EQ PUSH2 0x6CE JUMPI PUSH1 0x40 MLOAD PUSH3 0x461BCD PUSH1 0xE5 SHL DUP2 MSTORE PUSH1 0x20 PUSH1 0x4 DUP3 ADD MSTORE PUSH1 0x9 PUSH1 0x24 DUP3 ADD MSTORE PUSH9 0x2327A92124A22222A7 PUSH1 0xB9 SHL PUSH1 0x44 DUP3 ADD MSTORE PUSH1 0x64 ADD PUSH2 0x2C1 JUMP JUMPDEST PUSH1 0x0 DUP5 PUSH1 0x40 MLOAD PUSH2 0x6DE SWAP2 SWAP1 PUSH2 0x1190 JUMP JUMPDEST SWAP1 DUP2 MSTORE PUSH1 0x40 MLOAD SWAP1 DUP2 SWAP1 SUB PUSH1 0x20 ADD SWAP1 KECCAK256 DUP1 SLOAD PUSH1 0x1 PUSH1 0x1 PUSH1 0xA0 SHL SUB NOT AND DUP2 SSTORE PUSH1 0x0 PUSH2 0x70A PUSH1 0x1 DUP4 ADD DUP3 PUSH2 0xA93 JUMP JUMPDEST POP POP PUSH1 0x1 SLOAD PUSH2 0x718 JUMPI PUSH2 0x903 JUMP JUMPDEST PUSH1 0x1 DUP1 SLOAD EQ ISZERO PUSH2 0x7C8 JUMPI DUP4 PUSH1 0x40 MLOAD PUSH1 0x20 ADD PUSH2 0x733 SWAP2 SWAP1 PUSH2 0x1190 JUMP JUMPDEST PUSH1 0x40 MLOAD PUSH1 0x20 DUP2 DUP4 SUB SUB DUP2 MSTORE SWAP1 PUSH1 0x40 MSTORE DUP1 MLOAD SWAP1 PUSH1 0x20 ADD KECCAK256 PUSH1 0x1 PUSH1 0x0 DUP2 SLOAD DUP2 LT PUSH2 0x75D JUMPI PUSH2 0x75D PUSH2 0x10F2 JUMP JUMPDEST SWAP1 PUSH1 0x0 MSTORE PUSH1 0x20 PUSH1 0x0 KECCAK256 ADD PUSH1 0x40 MLOAD PUSH1 0x20 ADD PUSH2 0x777 SWAP2 SWAP1 PUSH2 0x11AC JUMP JUMPDEST PUSH1 0x40 MLOAD PUSH1 0x20 DUP2 DUP4 SUB SUB DUP2 MSTORE SWAP1 PUSH1 0x40 MSTORE DUP1 MLOAD SWAP1 PUSH1 0x20 ADD KECCAK256 EQ ISZERO PUSH2 0x7C3 JUMPI PUSH1 0x1 DUP1 SLOAD DUP1 PUSH2 0x7A4 JUMPI PUSH2 0x7A4 PUSH2 0x1248 JUMP JUMPDEST PUSH1 0x1 SWAP1 SUB DUP2 DUP2 SWAP1 PUSH1 0x0 MSTORE PUSH1 0x20 PUSH1 0x0 KECCAK256 ADD PUSH1 0x0 PUSH2 0x7C0 SWAP2 SWAP1 PUSH2 0xA93 JUMP JUMPDEST SWAP1 SSTORE JUMPDEST PUSH2 0x903 JUMP JUMPDEST PUSH1 0x0 DUP1 JUMPDEST PUSH1 0x1 DUP1 SLOAD PUSH2 0x7DA SWAP2 SWAP1 PUSH2 0x125E JUMP JUMPDEST DUP2 LT ISZERO PUSH2 0x8CA JUMPI DUP6 PUSH1 0x40 MLOAD PUSH1 0x20 ADD PUSH2 0x7F2 SWAP2 SWAP1 PUSH2 0x1190 JUMP JUMPDEST PUSH1 0x40 MLOAD PUSH1 0x20 DUP2 DUP4 SUB SUB DUP2 MSTORE SWAP1 PUSH1 0x40 MSTORE DUP1 MLOAD SWAP1 PUSH1 0x20 ADD KECCAK256 PUSH1 0x1 DUP3 DUP2 SLOAD DUP2 LT PUSH2 0x81B JUMPI PUSH2 0x81B PUSH2 0x10F2 JUMP JUMPDEST SWAP1 PUSH1 0x0 MSTORE PUSH1 0x20 PUSH1 0x0 KECCAK256 ADD PUSH1 0x40 MLOAD PUSH1 0x20 ADD PUSH2 0x835 SWAP2 SWAP1 PUSH2 0x11AC JUMP JUMPDEST PUSH1 0x40 MLOAD PUSH1 0x20 DUP2 DUP4 SUB SUB DUP2 MSTORE SWAP1 PUSH1 0x40 MSTORE DUP1 MLOAD SWAP1 PUSH1 0x20 ADD KECCAK256 EQ ISZERO PUSH2 0x856 JUMPI PUSH1 0x1 SWAP2 POP JUMPDEST DUP2 ISZERO PUSH2 0x8B8 JUMPI PUSH1 0x1 PUSH2 0x868 DUP3 DUP3 PUSH2 0x1275 JUMP JUMPDEST DUP2 SLOAD DUP2 LT PUSH2 0x878 JUMPI PUSH2 0x878 PUSH2 0x10F2 JUMP JUMPDEST SWAP1 PUSH1 0x0 MSTORE PUSH1 0x20 PUSH1 0x0 KECCAK256 ADD PUSH1 0x1 DUP3 DUP2 SLOAD DUP2 LT PUSH2 0x895 JUMPI PUSH2 0x895 PUSH2 0x10F2 JUMP JUMPDEST SWAP1 PUSH1 0x0 MSTORE PUSH1 0x20 PUSH1 0x0 KECCAK256 ADD SWAP1 DUP1 SLOAD PUSH2 0x8AB SWAP1 PUSH2 0x1108 JUMP JUMPDEST PUSH2 0x8B6 SWAP3 SWAP2 SWAP1 PUSH2 0xACD JUMP JUMPDEST POP JUMPDEST DUP1 PUSH2 0x8C2 DUP2 PUSH2 0x1153 JUMP JUMPDEST SWAP2 POP POP PUSH2 0x7CC JUMP JUMPDEST POP DUP1 ISZERO PUSH2 0x901 JUMPI PUSH1 0x1 DUP1 SLOAD DUP1 PUSH2 0x8E2 JUMPI PUSH2 0x8E2 PUSH2 0x1248 JUMP JUMPDEST PUSH1 0x1 SWAP1 SUB DUP2 DUP2 SWAP1 PUSH1 0x0 MSTORE PUSH1 0x20 PUSH1 0x0 KECCAK256 ADD PUSH1 0x0 PUSH2 0x8FE SWAP2 SWAP1 PUSH2 0xA93 JUMP JUMPDEST SWAP1 SSTORE JUMPDEST POP JUMPDEST POP POP POP POP JUMP JUMPDEST DUP2 MLOAD DUP3 SWAP1 DUP2 SWAP1 PUSH2 0x92B JUMPI PUSH1 0x40 MLOAD PUSH3 0x461BCD PUSH1 0xE5 SHL DUP2 MSTORE PUSH1 0x4 ADD PUSH2 0x2C1 SWAP1 PUSH2 0x116E JUMP JUMPDEST PUSH1 0x0 PUSH1 0x1 PUSH1 0x1 PUSH1 0xA0 SHL SUB AND PUSH1 0x0 DUP6 PUSH1 0x40 MLOAD PUSH2 0x946 SWAP2 SWAP1 PUSH2 0x1190 JUMP JUMPDEST SWAP1 DUP2 MSTORE PUSH1 0x40 MLOAD SWAP1 DUP2 SWAP1 SUB PUSH1 0x20 ADD SWAP1 KECCAK256 SLOAD PUSH1 0x1 PUSH1 0x1 PUSH1 0xA0 SHL SUB AND EQ PUSH2 0x9CE JUMPI PUSH1 0x0 DUP5 PUSH1 0x40 MLOAD PUSH2 0x974 SWAP2 SWAP1 PUSH2 0x1190 JUMP JUMPDEST SWAP1 DUP2 MSTORE PUSH1 0x40 MLOAD SWAP1 DUP2 SWAP1 SUB PUSH1 0x20 ADD SWAP1 KECCAK256 SLOAD CALLER PUSH1 0x1 PUSH1 0x1 PUSH1 0xA0 SHL SUB SWAP1 SWAP2 AND EQ PUSH2 0x9C9 JUMPI PUSH1 0x40 MLOAD PUSH3 0x461BCD PUSH1 0xE5 SHL DUP2 MSTORE PUSH1 0x20 PUSH1 0x4 DUP3 ADD MSTORE PUSH1 0x9 PUSH1 0x24 DUP3 ADD MSTORE PUSH9 0x2327A92124A22222A7 PUSH1 0xB9 SHL PUSH1 0x44 DUP3 ADD MSTORE PUSH1 0x64 ADD PUSH2 0x2C1 JUMP JUMPDEST PUSH2 0xA12 JUMP JUMPDEST PUSH1 0x1 DUP1 SLOAD DUP1 DUP3 ADD DUP3 SSTORE PUSH1 0x0 SWAP2 SWAP1 SWAP2 MSTORE DUP5 MLOAD PUSH2 0xA10 SWAP2 PUSH32 0xB10E2D527612073B26EECDFD717E6A320CF44B4AFAC2B0732D9FCBE2B7FA0CF6 ADD SWAP1 PUSH1 0x20 DUP8 ADD SWAP1 PUSH2 0xB58 JUMP JUMPDEST POP JUMPDEST DUP3 MLOAD PUSH1 0x40 MLOAD PUSH1 0x0 SWAP1 PUSH2 0xA25 SWAP1 DUP8 SWAP1 PUSH2 0x1190 JUMP JUMPDEST SWAP1 DUP2 MSTORE PUSH1 0x20 ADD PUSH1 0x40 MLOAD DUP1 SWAP2 SUB SWAP1 KECCAK256 PUSH1 0x0 ADD PUSH1 0x0 PUSH2 0x100 EXP DUP2 SLOAD DUP2 PUSH1 0x1 PUSH1 0x1 PUSH1 0xA0 SHL SUB MUL NOT AND SWAP1 DUP4 PUSH1 0x1 PUSH1 0x1 PUSH1 0xA0 SHL SUB AND MUL OR SWAP1 SSTORE POP DUP3 PUSH1 0x20 ADD MLOAD PUSH1 0x0 DUP6 PUSH1 0x40 MLOAD PUSH2 0xA6F SWAP2 SWAP1 PUSH2 0x1190 JUMP JUMPDEST SWAP1 DUP2 MSTORE PUSH1 0x20 ADD PUSH1 0x40 MLOAD DUP1 SWAP2 SUB SWAP1 KECCAK256 PUSH1 0x1 ADD SWAP1 DUP1 MLOAD SWAP1 PUSH1 0x20 ADD SWAP1 PUSH2 0x901 SWAP3 SWAP2 SWAP1 PUSH2 0xB58 JUMP JUMPDEST POP DUP1 SLOAD PUSH2 0xA9F SWAP1 PUSH2 0x1108 JUMP JUMPDEST PUSH1 0x0 DUP3 SSTORE DUP1 PUSH1 0x1F LT PUSH2 0xAAF JUMPI POP POP JUMP JUMPDEST PUSH1 0x1F ADD PUSH1 0x20 SWAP1 DIV SWAP1 PUSH1 0x0 MSTORE PUSH1 0x20 PUSH1 0x0 KECCAK256 SWAP1 DUP2 ADD SWAP1 PUSH2 0x287 SWAP2 SWAP1 PUSH2 0xBCC JUMP JUMPDEST DUP3 DUP1 SLOAD PUSH2 0xAD9 SWAP1 PUSH2 0x1108 JUMP JUMPDEST SWAP1 PUSH1 0x0 MSTORE PUSH1 0x20 PUSH1 0x0 KECCAK256 SWAP1 PUSH1 0x1F ADD PUSH1 0x20 SWAP1 DIV DUP2 ADD SWAP3 DUP3 PUSH2 0xAFB JUMPI PUSH1 0x0 DUP6 SSTORE PUSH2 0xB48 JUMP JUMPDEST DUP3 PUSH1 0x1F LT PUSH2 0xB0C JUMPI DUP1 SLOAD DUP6 SSTORE PUSH2 0xB48 JUMP JUMPDEST DUP3 DUP1 ADD PUSH1 0x1 ADD DUP6 SSTORE DUP3 ISZERO PUSH2 0xB48 JUMPI PUSH1 0x0 MSTORE PUSH1 0x20 PUSH1 0x0 KECCAK256 SWAP2 PUSH1 0x1F ADD PUSH1 0x20 SWAP1 DIV DUP3 ADD JUMPDEST DUP3 DUP2 GT ISZERO PUSH2 0xB48 JUMPI DUP3 SLOAD DUP3 SSTORE SWAP2 PUSH1 0x1 ADD SWAP2 SWAP1 PUSH1 0x1 ADD SWAP1 PUSH2 0xB2D JUMP JUMPDEST POP PUSH2 0xB54 SWAP3 SWAP2 POP PUSH2 0xBCC JUMP JUMPDEST POP SWAP1 JUMP JUMPDEST DUP3 DUP1 SLOAD PUSH2 0xB64 SWAP1 PUSH2 0x1108 JUMP JUMPDEST SWAP1 PUSH1 0x0 MSTORE PUSH1 0x20 PUSH1 0x0 KECCAK256 SWAP1 PUSH1 0x1F ADD PUSH1 0x20 SWAP1 DIV DUP2 ADD SWAP3 DUP3 PUSH2 0xB86 JUMPI PUSH1 0x0 DUP6 SSTORE PUSH2 0xB48 JUMP JUMPDEST DUP3 PUSH1 0x1F LT PUSH2 0xB9F JUMPI DUP1 MLOAD PUSH1 0xFF NOT AND DUP4 DUP1 ADD OR DUP6 SSTORE PUSH2 0xB48 JUMP JUMPDEST DUP3 DUP1 ADD PUSH1 0x1 ADD DUP6 SSTORE DUP3 ISZERO PUSH2 0xB48 JUMPI SWAP2 DUP3 ADD JUMPDEST DUP3 DUP2 GT ISZERO PUSH2 0xB48 JUMPI DUP3 MLOAD DUP3 SSTORE SWAP2 PUSH1 0x20 ADD SWAP2 SWAP1 PUSH1 0x1 ADD SWAP1 PUSH2 0xBB1 JUMP JUMPDEST JUMPDEST DUP1 DUP3 GT ISZERO PUSH2 0xB54 JUMPI PUSH1 0x0 DUP2 SSTORE PUSH1 0x1 ADD PUSH2 0xBCD JUMP JUMPDEST PUSH1 0x0 JUMPDEST DUP4 DUP2 LT ISZERO PUSH2 0xBFC JUMPI DUP2 DUP2 ADD MLOAD DUP4 DUP3 ADD MSTORE PUSH1 0x20 ADD PUSH2 0xBE4 JUMP JUMPDEST DUP4 DUP2 GT ISZERO PUSH2 0x903 JUMPI POP POP PUSH1 0x0 SWAP2 ADD MSTORE JUMP JUMPDEST PUSH1 0x0 DUP2 MLOAD DUP1 DUP5 MSTORE PUSH2 0xC25 DUP2 PUSH1 0x20 DUP7 ADD PUSH1 0x20 DUP7 ADD PUSH2 0xBE1 JUMP JUMPDEST PUSH1 0x1F ADD PUSH1 0x1F NOT AND SWAP3 SWAP1 SWAP3 ADD PUSH1 0x20 ADD SWAP3 SWAP2 POP POP JUMP JUMPDEST PUSH1 0x1 DUP1 PUSH1 0xA0 SHL SUB DUP2 MLOAD AND DUP3 MSTORE PUSH1 0x0 PUSH1 0x20 DUP3 ADD MLOAD PUSH1 0x40 PUSH1 0x20 DUP6 ADD MSTORE PUSH2 0xC60 PUSH1 0x40 DUP6 ADD DUP3 PUSH2 0xC0D JUMP JUMPDEST SWAP5 SWAP4 POP POP POP POP JUMP JUMPDEST PUSH1 0x0 PUSH1 0x20 DUP1 DUP4 ADD DUP2 DUP5 MSTORE DUP1 DUP6 MLOAD DUP1 DUP4 MSTORE PUSH1 0x40 DUP7 ADD SWAP2 POP PUSH1 0x40 DUP2 PUSH1 0x5 SHL DUP8 ADD ADD SWAP3 POP DUP4 DUP8 ADD PUSH1 0x0 JUMPDEST DUP3 DUP2 LT ISZERO PUSH2 0xCBD JUMPI PUSH1 0x3F NOT DUP9 DUP7 SUB ADD DUP5 MSTORE PUSH2 0xCAB DUP6 DUP4 MLOAD PUSH2 0xC39 JUMP JUMPDEST SWAP5 POP SWAP3 DUP6 ADD SWAP3 SWAP1 DUP6 ADD SWAP1 PUSH1 0x1 ADD PUSH2 0xC8F JUMP JUMPDEST POP SWAP3 SWAP8 SWAP7 POP POP POP POP POP POP POP JUMP JUMPDEST PUSH4 0x4E487B71 PUSH1 0xE0 SHL PUSH1 0x0 MSTORE PUSH1 0x41 PUSH1 0x4 MSTORE PUSH1 0x24 PUSH1 0x0 REVERT JUMPDEST PUSH1 0x40 DUP1 MLOAD SWAP1 DUP2 ADD PUSH8 0xFFFFFFFFFFFFFFFF DUP2 GT DUP3 DUP3 LT OR ISZERO PUSH2 0xD03 JUMPI PUSH2 0xD03 PUSH2 0xCCA JUMP JUMPDEST PUSH1 0x40 MSTORE SWAP1 JUMP JUMPDEST PUSH1 0x40 MLOAD PUSH1 0x1F DUP3 ADD PUSH1 0x1F NOT AND DUP2 ADD PUSH8 0xFFFFFFFFFFFFFFFF DUP2 GT DUP3 DUP3 LT OR ISZERO PUSH2 0xD32 JUMPI PUSH2 0xD32 PUSH2 0xCCA JUMP JUMPDEST PUSH1 0x40 MSTORE SWAP2 SWAP1 POP JUMP JUMPDEST PUSH1 0x0 DUP3 PUSH1 0x1F DUP4 ADD SLT PUSH2 0xD4B JUMPI PUSH1 0x0 DUP1 REVERT JUMPDEST DUP2 CALLDATALOAD PUSH8 0xFFFFFFFFFFFFFFFF DUP2 GT ISZERO PUSH2 0xD65 JUMPI PUSH2 0xD65 PUSH2 0xCCA JUMP JUMPDEST PUSH2 0xD78 PUSH1 0x1F DUP3 ADD PUSH1 0x1F NOT AND PUSH1 0x20 ADD PUSH2 0xD09 JUMP JUMPDEST DUP2 DUP2 MSTORE DUP5 PUSH1 0x20 DUP4 DUP7 ADD ADD GT ISZERO PUSH2 0xD8D JUMPI PUSH1 0x0 DUP1 REVERT JUMPDEST DUP2 PUSH1 0x20 DUP6 ADD PUSH1 0x20 DUP4 ADD CALLDATACOPY PUSH1 0x0 SWAP2 DUP2 ADD PUSH1 0x20 ADD SWAP2 SWAP1 SWAP2 MSTORE SWAP4 SWAP3 POP POP POP JUMP JUMPDEST PUSH1 0x0 PUSH1 0x20 DUP3 DUP5 SUB SLT ISZERO PUSH2 0xDBC JUMPI PUSH1 0x0 DUP1 REVERT JUMPDEST DUP2 CALLDATALOAD PUSH8 0xFFFFFFFFFFFFFFFF DUP2 GT ISZERO PUSH2 0xDD3 JUMPI PUSH1 0x0 DUP1 REVERT JUMPDEST PUSH2 0xC60 DUP5 DUP3 DUP6 ADD PUSH2 0xD3A JUMP JUMPDEST PUSH1 0x0 PUSH8 0xFFFFFFFFFFFFFFFF DUP3 GT ISZERO PUSH2 0xDF9 JUMPI PUSH2 0xDF9 PUSH2 0xCCA JUMP JUMPDEST POP PUSH1 0x5 SHL PUSH1 0x20 ADD SWAP1 JUMP JUMPDEST PUSH1 0x0 PUSH1 0x20 DUP1 DUP4 DUP6 SUB SLT ISZERO PUSH2 0xE16 JUMPI PUSH1 0x0 DUP1 REVERT JUMPDEST DUP3 CALLDATALOAD PUSH8 0xFFFFFFFFFFFFFFFF DUP1 DUP3 GT ISZERO PUSH2 0xE2E JUMPI PUSH1 0x0 DUP1 REVERT JUMPDEST DUP2 DUP6 ADD SWAP2 POP DUP6 PUSH1 0x1F DUP4 ADD SLT PUSH2 0xE42 JUMPI PUSH1 0x0 DUP1 REVERT JUMPDEST DUP2 CALLDATALOAD PUSH2 0xE55 PUSH2 0xE50 DUP3 PUSH2 0xDDF JUMP JUMPDEST PUSH2 0xD09 JUMP JUMPDEST DUP2 DUP2 MSTORE PUSH1 0x5 SWAP2 SWAP1 SWAP2 SHL DUP4 ADD DUP5 ADD SWAP1 DUP5 DUP2 ADD SWAP1 DUP9 DUP4 GT ISZERO PUSH2 0xE74 JUMPI PUSH1 0x0 DUP1 REVERT JUMPDEST DUP6 DUP6 ADD JUMPDEST DUP4 DUP2 LT ISZERO PUSH2 0xEAC JUMPI DUP1 CALLDATALOAD DUP6 DUP2 GT ISZERO PUSH2 0xE90 JUMPI PUSH1 0x0 DUP1 DUP2 REVERT JUMPDEST PUSH2 0xE9E DUP12 DUP10 DUP4 DUP11 ADD ADD PUSH2 0xD3A JUMP JUMPDEST DUP5 MSTORE POP SWAP2 DUP7 ADD SWAP2 DUP7 ADD PUSH2 0xE78 JUMP JUMPDEST POP SWAP9 SWAP8 POP POP POP POP POP POP POP POP JUMP JUMPDEST PUSH1 0x20 DUP2 MSTORE PUSH1 0x0 PUSH2 0xECC PUSH1 0x20 DUP4 ADD DUP5 PUSH2 0xC39 JUMP JUMPDEST SWAP4 SWAP3 POP POP POP JUMP JUMPDEST PUSH1 0x0 PUSH1 0x40 DUP3 DUP5 SUB SLT ISZERO PUSH2 0xEE5 JUMPI PUSH1 0x0 DUP1 REVERT JUMPDEST PUSH2 0xEED PUSH2 0xCE0 JUMP JUMPDEST SWAP1 POP DUP2 CALLDATALOAD PUSH1 0x1 PUSH1 0x1 PUSH1 0xA0 SHL SUB DUP2 AND DUP2 EQ PUSH2 0xF06 JUMPI PUSH1 0x0 DUP1 REVERT JUMPDEST DUP2 MSTORE PUSH1 0x20 DUP3 ADD CALLDATALOAD PUSH8 0xFFFFFFFFFFFFFFFF DUP2 GT ISZERO PUSH2 0xF22 JUMPI PUSH1 0x0 DUP1 REVERT JUMPDEST PUSH2 0xF2E DUP5 DUP3 DUP6 ADD PUSH2 0xD3A JUMP JUMPDEST PUSH1 0x20 DUP4 ADD MSTORE POP SWAP3 SWAP2 POP POP JUMP JUMPDEST PUSH1 0x0 PUSH1 0x20 DUP1 DUP4 DUP6 SUB SLT ISZERO PUSH2 0xF4D JUMPI PUSH1 0x0 DUP1 REVERT JUMPDEST DUP3 CALLDATALOAD PUSH8 0xFFFFFFFFFFFFFFFF DUP1 DUP3 GT ISZERO PUSH2 0xF65 JUMPI PUSH1 0x0 DUP1 REVERT JUMPDEST DUP2 DUP6 ADD SWAP2 POP DUP6 PUSH1 0x1F DUP4 ADD SLT PUSH2 0xF79 JUMPI PUSH1 0x0 DUP1 REVERT JUMPDEST DUP2 CALLDATALOAD PUSH2 0xF87 PUSH2 0xE50 DUP3 PUSH2 0xDDF JUMP JUMPDEST DUP2 DUP2 MSTORE PUSH1 0x5 SWAP2 SWAP1 SWAP2 SHL DUP4 ADD DUP5 ADD SWAP1 DUP5 DUP2 ADD SWAP1 DUP9 DUP4 GT ISZERO PUSH2 0xFA6 JUMPI PUSH1 0x0 DUP1 REVERT JUMPDEST DUP6 DUP6 ADD JUMPDEST DUP4 DUP2 LT ISZERO PUSH2 0xEAC JUMPI DUP1 CALLDATALOAD DUP6 DUP2 GT ISZERO PUSH2 0xFC2 JUMPI PUSH1 0x0 DUP1 DUP2 REVERT JUMPDEST DUP7 ADD PUSH1 0x40 DUP2 DUP13 SUB PUSH1 0x1F NOT ADD DUP2 SGT ISZERO PUSH2 0xFDA JUMPI PUSH1 0x0 DUP1 DUP2 REVERT JUMPDEST PUSH2 0xFE2 PUSH2 0xCE0 JUMP JUMPDEST DUP10 DUP4 ADD CALLDATALOAD DUP9 DUP2 GT ISZERO PUSH2 0xFF4 JUMPI PUSH1 0x0 DUP1 DUP2 REVERT JUMPDEST PUSH2 0x1002 DUP15 DUP13 DUP4 DUP8 ADD ADD PUSH2 0xD3A JUMP JUMPDEST DUP3 MSTORE POP SWAP1 DUP3 ADD CALLDATALOAD SWAP1 DUP8 DUP3 GT ISZERO PUSH2 0x1018 JUMPI PUSH1 0x0 DUP1 DUP2 REVERT JUMPDEST PUSH2 0x1026 DUP14 DUP12 DUP5 DUP7 ADD ADD PUSH2 0xED3 JUMP JUMPDEST DUP2 DUP12 ADD MSTORE DUP6 MSTORE POP POP SWAP2 DUP7 ADD SWAP2 DUP7 ADD PUSH2 0xFAA JUMP JUMPDEST PUSH1 0x0 PUSH1 0x20 DUP1 DUP4 ADD DUP2 DUP5 MSTORE DUP1 DUP6 MLOAD DUP1 DUP4 MSTORE PUSH1 0x40 DUP7 ADD SWAP2 POP PUSH1 0x40 DUP2 PUSH1 0x5 SHL DUP8 ADD ADD SWAP3 POP DUP4 DUP8 ADD PUSH1 0x0 JUMPDEST DUP3 DUP2 LT ISZERO PUSH2 0xCBD JUMPI PUSH1 0x3F NOT DUP9 DUP7 SUB ADD DUP5 MSTORE PUSH2 0x107C DUP6 DUP4 MLOAD PUSH2 0xC0D JUMP JUMPDEST SWAP5 POP SWAP3 DUP6 ADD SWAP3 SWAP1 DUP6 ADD SWAP1 PUSH1 0x1 ADD PUSH2 0x1060 JUMP JUMPDEST PUSH1 0x0 DUP1 PUSH1 0x40 DUP4 DUP6 SUB SLT ISZERO PUSH2 0x10A1 JUMPI PUSH1 0x0 DUP1 REVERT JUMPDEST DUP3 CALLDATALOAD PUSH8 0xFFFFFFFFFFFFFFFF DUP1 DUP3 GT ISZERO PUSH2 0x10B9 JUMPI PUSH1 0x0 DUP1 REVERT JUMPDEST PUSH2 0x10C5 DUP7 DUP4 DUP8 ADD PUSH2 0xD3A JUMP JUMPDEST SWAP4 POP PUSH1 0x20 DUP6 ADD CALLDATALOAD SWAP2 POP DUP1 DUP3 GT ISZERO PUSH2 0x10DB JUMPI PUSH1 0x0 DUP1 REVERT JUMPDEST POP PUSH2 0x10E8 DUP6 DUP3 DUP7 ADD PUSH2 0xED3 JUMP JUMPDEST SWAP2 POP POP SWAP3 POP SWAP3 SWAP1 POP JUMP JUMPDEST PUSH4 0x4E487B71 PUSH1 0xE0 SHL PUSH1 0x0 MSTORE PUSH1 0x32 PUSH1 0x4 MSTORE PUSH1 0x24 PUSH1 0x0 REVERT JUMPDEST PUSH1 0x1 DUP2 DUP2 SHR SWAP1 DUP3 AND DUP1 PUSH2 0x111C JUMPI PUSH1 0x7F DUP3 AND SWAP2 POP JUMPDEST PUSH1 0x20 DUP3 LT DUP2 EQ ISZERO PUSH2 0x278 JUMPI PUSH4 0x4E487B71 PUSH1 0xE0 SHL PUSH1 0x0 MSTORE PUSH1 0x22 PUSH1 0x4 MSTORE PUSH1 0x24 PUSH1 0x0 REVERT JUMPDEST PUSH4 0x4E487B71 PUSH1 0xE0 SHL PUSH1 0x0 MSTORE PUSH1 0x11 PUSH1 0x4 MSTORE PUSH1 0x24 PUSH1 0x0 REVERT JUMPDEST PUSH1 0x0 PUSH1 0x0 NOT DUP3 EQ ISZERO PUSH2 0x1167 JUMPI PUSH2 0x1167 PUSH2 0x113D JUMP JUMPDEST POP PUSH1 0x1 ADD SWAP1 JUMP JUMPDEST PUSH1 0x20 DUP1 DUP3 MSTORE PUSH1 0x8 SWAP1 DUP3 ADD MSTORE PUSH8 0x4E4F5F56414C5545 PUSH1 0xC0 SHL PUSH1 0x40 DUP3 ADD MSTORE PUSH1 0x60 ADD SWAP1 JUMP JUMPDEST PUSH1 0x0 DUP3 MLOAD PUSH2 0x11A2 DUP2 DUP5 PUSH1 0x20 DUP8 ADD PUSH2 0xBE1 JUMP JUMPDEST SWAP2 SWAP1 SWAP2 ADD SWAP3 SWAP2 POP POP JUMP JUMPDEST PUSH1 0x0 DUP1 DUP4 SLOAD DUP2 PUSH1 0x1 DUP3 DUP2 SHR SWAP2 POP DUP1 DUP4 AND DUP1 PUSH2 0x11C8 JUMPI PUSH1 0x7F DUP4 AND SWAP3 POP JUMPDEST PUSH1 0x20 DUP1 DUP5 LT DUP3 EQ ISZERO PUSH2 0x11E8 JUMPI PUSH4 0x4E487B71 PUSH1 0xE0 SHL DUP7 MSTORE PUSH1 0x22 PUSH1 0x4 MSTORE PUSH1 0x24 DUP7 REVERT JUMPDEST DUP2 DUP1 ISZERO PUSH2 0x11FC JUMPI PUSH1 0x1 DUP2 EQ PUSH2 0x120D JUMPI PUSH2 0x123A JUMP JUMPDEST PUSH1 0xFF NOT DUP7 AND DUP10 MSTORE DUP5 DUP10 ADD SWAP7 POP PUSH2 0x123A JUMP JUMPDEST PUSH1 0x0 DUP11 DUP2 MSTORE PUSH1 0x20 SWAP1 KECCAK256 PUSH1 0x0 JUMPDEST DUP7 DUP2 LT ISZERO PUSH2 0x1232 JUMPI DUP2 SLOAD DUP12 DUP3 ADD MSTORE SWAP1 DUP6 ADD SWAP1 DUP4 ADD PUSH2 0x1219 JUMP JUMPDEST POP POP DUP5 DUP10 ADD SWAP7 POP JUMPDEST POP SWAP5 SWAP9 SWAP8 POP POP POP POP POP POP POP POP JUMP JUMPDEST PUSH4 0x4E487B71 PUSH1 0xE0 SHL PUSH1 0x0 MSTORE PUSH1 0x31 PUSH1 0x4 MSTORE PUSH1 0x24 PUSH1 0x0 REVERT JUMPDEST PUSH1 0x0 DUP3 DUP3 LT ISZERO PUSH2 0x1270 JUMPI PUSH2 0x1270 PUSH2 0x113D JUMP JUMPDEST POP SUB SWAP1 JUMP JUMPDEST PUSH1 0x0 DUP3 NOT DUP3 GT ISZERO PUSH2 0x1288 JUMPI PUSH2 0x1288 PUSH2 0x113D JUMP JUMPDEST POP ADD SWAP1 JUMP INVALID LOG2 PUSH5 0x6970667358 0x22 SLT KECCAK256 EQ 0xB6 0x4F SWAP12 EXP SGT PUSH8 0xDB6C03105E01D53B PUSH32 0xFEFE6D1EE92EF5C4FD62E5BFE33752F464736F6C634300080C00330000000000 "
		},
		"gasEstimates": {
			"creation": {
				"codeDepositCost": "960600",
				"executionCost": "1001",
				"totalCost": "961601"
			},
			"external": {
				"allKeys()": "infinite",
				"allKeysData()": "infinite",
				"clearKeyData(string)": "infinite",
				"clearKeysData(string[])": "infinite",
				"getData(string)": "infinite",
				"setKeyData(string,(address,string))": "infinite",
				"setKeysData((string,(address,string))[])": "infinite"
			},
			"internal": {
				"_clearKeyData(string memory)": "infinite",
				"_keyData(string memory)": "infinite",
				"_setKeyData(string memory,struct IStorage.Data memory)": "infinite"
			}
		},
		"methodIdentifiers": {
			"allKeys()": "cb965ae9",
			"allKeysData()": "11d881b1",
			"clearKeyData(string)": "28ce8638",
			"clearKeysData(string[])": "ac193f1a",
			"getData(string)": "ae55c888",
			"setKeyData(string,(address,string))": "f14805c3",
			"setKeysData((string,(address,string))[])": "be05133c"
		}
	},
	"abi": [
		{
			"inputs": [],
			"name": "allKeys",
			"outputs": [
				{
					"internalType": "string[]",
					"name": "",
					"type": "string[]"
				}
			],
			"stateMutability": "view",
			"type": "function"
		},
		{
			"inputs": [],
			"name": "allKeysData",
			"outputs": [
				{
					"components": [
						{
							"internalType": "address",
							"name": "owner",
							"type": "address"
						},
						{
							"internalType": "string",
							"name": "info",
							"type": "string"
						}
					],
					"internalType": "struct IStorage.Data[]",
					"name": "",
					"type": "tuple[]"
				}
			],
			"stateMutability": "view",
			"type": "function"
		},
		{
			"inputs": [
				{
					"internalType": "string",
					"name": "_key",
					"type": "string"
				}
			],
			"name": "clearKeyData",
			"outputs": [],
			"stateMutability": "nonpayable",
			"type": "function"
		},
		{
			"inputs": [
				{
					"internalType": "string[]",
					"name": "_keys",
					"type": "string[]"
				}
			],
			"name": "clearKeysData",
			"outputs": [],
			"stateMutability": "nonpayable",
			"type": "function"
		},
		{
			"inputs": [
				{
					"internalType": "string",
					"name": "_key",
					"type": "string"
				}
			],
			"name": "getData",
			"outputs": [
				{
					"components": [
						{
							"internalType": "address",
							"name": "owner",
							"type": "address"
						},
						{
							"internalType": "string",
							"name": "info",
							"type": "string"
						}
					],
					"internalType": "struct IStorage.Data",
					"name": "",
					"type": "tuple"
				}
			],
			"stateMutability": "view",
			"type": "function"
		},
		{
			"inputs": [
				{
					"internalType": "string",
					"name": "_key",
					"type": "string"
				},
				{
					"components": [
						{
							"internalType": "address",
							"name": "owner",
							"type": "address"
						},
						{
							"internalType": "string",
							"name": "info",
							"type": "string"
						}
					],
					"internalType": "struct IStorage.Data",
					"name": "_data",
					"type": "tuple"
				}
			],
			"name": "setKeyData",
			"outputs": [],
			"stateMutability": "nonpayable",
			"type": "function"
		},
		{
			"inputs": [
				{
					"components": [
						{
							"internalType": "string",
							"name": "key",
							"type": "string"
						},
						{
							"components": [
								{
									"internalType": "address",
									"name": "owner",
									"type": "address"
								},
								{
									"internalType": "string",
									"name": "info",
									"type": "string"
								}
							],
							"internalType": "struct IStorage.Data",
							"name": "data",
							"type": "tuple"
						}
					],
					"internalType": "struct IStorage.KeyData[]",
					"name": "_keysData",
					"type": "tuple[]"
				}
			],
			"name": "setKeysData",
			"outputs": [],
			"stateMutability": "nonpayable",
			"type": "function"
		}
	]
}